{"abi":[{"type":"constructor","inputs":[{"name":"_game","type":"address","internalType":"address"}],"stateMutability":"nonpayable"},{"type":"fallback","stateMutability":"payable"},{"type":"receive","stateMutability":"payable"},{"type":"function","name":"enrollInTournament","inputs":[{"name":"tierId","type":"uint8","internalType":"uint8"},{"name":"instanceId","type":"uint8","internalType":"uint8"}],"outputs":[],"stateMutability":"payable"},{"type":"function","name":"forceStartTournament","inputs":[{"name":"tierId","type":"uint8","internalType":"uint8"},{"name":"instanceId","type":"uint8","internalType":"uint8"}],"outputs":[],"stateMutability":"nonpayable"},{"type":"function","name":"game","inputs":[],"outputs":[{"name":"","type":"address","internalType":"contract ITicTacChain"}],"stateMutability":"view"},{"type":"function","name":"getStats","inputs":[],"outputs":[{"name":"received","type":"uint256","internalType":"uint256"},{"name":"rejected","type":"uint256","internalType":"uint256"},{"name":"isRejecting","type":"bool","internalType":"bool"}],"stateMutability":"view"},{"type":"function","name":"makeMove","inputs":[{"name":"tierId","type":"uint8","internalType":"uint8"},{"name":"instanceId","type":"uint8","internalType":"uint8"},{"name":"roundIndex","type":"uint8","internalType":"uint8"},{"name":"matchIndex","type":"uint8","internalType":"uint8"},{"name":"position","type":"uint8","internalType":"uint8"}],"outputs":[],"stateMutability":"nonpayable"},{"type":"function","name":"receivedAmount","inputs":[],"outputs":[{"name":"","type":"uint256","internalType":"uint256"}],"stateMutability":"view"},{"type":"function","name":"rejectPayments","inputs":[],"outputs":[{"name":"","type":"bool","internalType":"bool"}],"stateMutability":"view"},{"type":"function","name":"rejectionCount","inputs":[],"outputs":[{"name":"","type":"uint256","internalType":"uint256"}],"stateMutability":"view"},{"type":"function","name":"setRejectPayments","inputs":[{"name":"_reject","type":"bool","internalType":"bool"}],"outputs":[],"stateMutability":"nonpayable"},{"type":"function","name":"withdraw","inputs":[],"outputs":[],"stateMutability":"nonpayable"},{"type":"event","name":"PaymentReceived","inputs":[{"name":"amount","type":"uint256","indexed":false,"internalType":"uint256"}],"anonymous":false},{"type":"event","name":"PaymentRejected","inputs":[{"name":"amount","type":"uint256","indexed":false,"internalType":"uint256"}],"anonymous":false}],"bytecode":{"object":"0x60806040523461002f576100196100146100f4565b6101ee565b610021610034565b610db661020d8239610db690f35b61003a565b60405190565b5f80fd5b601f801991011690565b634e487b7160e01b5f52604160045260245ffd5b906100669061003e565b810190811060018060401b0382111761007e57604052565b610048565b9061009661008f610034565b928361005c565b565b5f80fd5b60018060a01b031690565b6100b09061009c565b90565b6100bc816100a7565b036100c357565b5f80fd5b905051906100d4826100b3565b565b906020828203126100ef576100ec915f016100c7565b90565b610098565b610112610fc38038038061010781610083565b9283398101906100d6565b90565b90565b61012c6101276101319261009c565b610115565b61009c565b90565b61013d90610118565b90565b61014990610134565b90565b5f1b90565b9061016260018060a01b039161014c565b9181191691161790565b61017590610134565b90565b90565b9061019061018b6101979261016c565b610178565b8254610151565b9055565b60a01b90565b906101b060ff60a01b9161019b565b9181191691161790565b151590565b6101c8906101ba565b90565b90565b906101e36101de6101ea926101bf565b6101cb565b82546101a1565b9055565b6101fa61020091610140565b5f61017b565b61020a5f5f6101ce565b56fe60806040526004361015610028575b361561001e5761001c610ca2565b005b610026610bc4565b005b6100325f356100d1565b806323e737aa146100cc5780633290afed146100c75780633ccfd60b146100c25780635a2056ba146100bd5780635a59799c146100b85780639632e720146100b3578063c3fe3e28146100ae578063c59d4847146100a9578063e6c455f5146100a45763ea2b1d730361000e57610560565b610536565b6104d1565b61046a565b610392565b610350565b6102da565b610245565b610210565b610169565b60e01c90565b60405190565b5f80fd5b5f80fd5b60ff1690565b6100f4816100e5565b036100fb57565b5f80fd5b9050359061010c826100eb565b565b919060a08382031261015f57610126815f85016100ff565b9261013482602083016100ff565b9261015c61014584604085016100ff565b9361015381606086016100ff565b936080016100ff565b90565b6100e1565b5f0190565b3461019b5761018561017c36600461010e565b93929092610684565b61018d6100d7565b8061019781610164565b0390f35b6100dd565b5f9103126101aa57565b6100e1565b1c90565b90565b6101c69060086101cb93026101af565b6101b3565b90565b906101d991546101b6565b90565b6101e860025f906101ce565b90565b90565b6101f7906101eb565b9052565b919061020e905f602085019401906101ee565b565b34610240576102203660046101a0565b61023c61022b6101dc565b6102336100d7565b918291826101fb565b0390f35b6100dd565b34610273576102553660046101a0565b61025d610853565b6102656100d7565b8061026f81610164565b0390f35b6100dd565b60ff1690565b61028e90600861029393026101af565b610278565b90565b906102a1915461027e565b90565b6102b05f601490610296565b90565b151590565b6102c1906102b3565b9052565b91906102d8905f602085019401906102b8565b565b3461030a576102ea3660046101a0565b6103066102f56102a4565b6102fd6100d7565b918291826102c5565b0390f35b6100dd565b610318816102b3565b0361031f57565b5f80fd5b905035906103308261030f565b565b9060208282031261034b57610348915f01610323565b90565b6100e1565b3461037e57610368610363366004610332565b6108d8565b6103706100d7565b8061037a81610164565b0390f35b6100dd565b61038f60015f906101ce565b90565b346103c2576103a23660046101a0565b6103be6103ad610383565b6103b56100d7565b918291826101fb565b0390f35b6100dd565b60018060a01b031690565b6103e29060086103e793026101af565b6103c7565b90565b906103f591546103d2565b90565b6104035f5f906103ea565b90565b60018060a01b031690565b90565b61042861042361042d92610406565b610411565b610406565b90565b61043990610414565b90565b61044590610430565b90565b6104519061043c565b9052565b9190610468905f60208501940190610448565b565b3461049a5761047a3660046101a0565b6104966104856103f8565b61048d6100d7565b91829182610455565b0390f35b6100dd565b6040906104c86104cf94969593966104be60608401985f8501906101ee565b60208301906101ee565b01906102b8565b565b34610504576104e13660046101a0565b6105006104ec610934565b6104f79391936100d7565b9384938461049f565b0390f35b6100dd565b9190604083820312610531578061052561052e925f86016100ff565b936020016100ff565b90565b6100e1565b61054a610544366004610509565b90610996565b6105526100d7565b8061055c81610164565b0390f35b3461058f57610579610573366004610509565b90610a2b565b6105816100d7565b8061058b81610164565b0390f35b6100dd565b5f1c90565b6105a56105aa91610594565b6103c7565b90565b6105b79054610599565b90565b5f80fd5b601f801991011690565b634e487b7160e01b5f52604160045260245ffd5b906105e6906105be565b810190811067ffffffffffffffff82111761060057604052565b6105c8565b60e01b90565b5f91031261061557565b6100e1565b610623906100e5565b9052565b909594926106729461066161066b9261065760809661064d60a088019c5f89019061061a565b602087019061061a565b604085019061061a565b606083019061061a565b019061061a565b565b61067c6100d7565b3d5f823e3d90fd5b939091936106996106945f6105ad565b61043c565b916323e737aa919395949091833b1561071a576106d76106cc935f979388946106c06100d7565b9a8b998a988997610605565b875260048701610627565b03925af18015610715576106e9575b50565b610708905f3d811161070e575b61070081836105dc565b81019061060b565b5f6106e6565b503d6106f6565b610674565b6105ba565b61072890610430565b90565b905090565b61073b5f809261072b565b0190565b61074890610730565b90565b9061075e6107576100d7565b92836105dc565b565b67ffffffffffffffff811161077e5761077a6020916105be565b0190565b6105c8565b9061079561079083610760565b61074b565b918252565b606090565b3d5f146107ba576107af3d610783565b903d5f602084013e5b565b6107c261079a565b906107b8565b60209181520190565b5f7f5769746864726177616c206661696c6564000000000000000000000000000000910152565b61080560116020926107c8565b61080e816107d1565b0190565b6108279060208101905f8183039101526107f8565b90565b1561083157565b6108396100d7565b62461bcd60e51b81528061084f60048201610812565b0390fd5b6108885f80336108623061071f565b3161086b6100d7565b90816108768161073f565b03925af161088261079f565b5061082a565b565b60a01b90565b9061089f60ff60a01b9161088a565b9181191691161790565b6108b2906102b3565b90565b90565b906108cd6108c86108d4926108a9565b6108b5565b8254610890565b9055565b6108e2905f6108b8565b565b5f90565b5f90565b6108f86108fd91610594565b6101b3565b90565b61090a90546108ec565b90565b60a01c90565b61091f6109249161090d565b610278565b90565b6109319054610913565b90565b61093c6108e4565b506109456108e4565b5061094e6108e8565b506109596001610900565b6109636002610900565b9161096d5f610927565b91929190565b91602061099492949361098d60408201965f83019061061a565b019061061a565b565b6109a76109a25f6105ad565b61043c565b9163e6c455f534939093929193813b15610a26575f936109d8916109e36109cc6100d7565b97889687958694610605565b845260048401610973565b03925af18015610a21576109f5575b50565b610a14905f3d8111610a1a575b610a0c81836105dc565b81019061060b565b5f6109f2565b503d610a02565b610674565b6105ba565b610a3c610a375f6105ad565b61043c565b9163ea2b1d73919092803b15610ab757610a695f8094610a74610a5d6100d7565b97889687958694610605565b845260048401610973565b03925af18015610ab257610a86575b50565b610aa5905f3d8111610aab575b610a9d81836105dc565b81019061060b565b5f610a83565b503d610a93565b610674565b6105ba565b634e487b7160e01b5f52601160045260245ffd5b610ad9906101eb565b5f198114610ae75760010190565b610abc565b5f1b90565b90610afd5f1991610aec565b9181191691161790565b610b1b610b16610b20926101eb565b610411565b6101eb565b90565b90565b90610b3b610b36610b4292610b07565b610b23565b8254610af1565b9055565b5f7f506c6179657250726f78793a205061796d656e742072656a6563746564000000910152565b610b7a601d6020926107c8565b610b8381610b46565b0190565b610b9c9060208101905f818303910152610b6d565b90565b610bae610bb4919392936101eb565b926101eb565b8201809211610bbf57565b610abc565b610bcd5f610927565b610c2a57610bee610be734610be26001610900565b610b9f565b6001610b26565b34610c257f1a07f76ee25d689f09f51951e5b4594bb2e440b7935111a41ba06afeb50ff01491610c1c6100d7565b918291826101fb565b0390a1565b610c46610c3f610c3a6002610900565b610ad0565b6002610b26565b34610c7d7ff5ec7914f551b0e22d281faf431be56bd547434a136fa460d18a3b21664f46fb91610c746100d7565b918291826101fb565b0390a1610c886100d7565b62461bcd60e51b815280610c9e60048201610b87565b0390fd5b610cab5f610927565b610d0857610ccc610cc534610cc06001610900565b610b9f565b6001610b26565b34610d037f1a07f76ee25d689f09f51951e5b4594bb2e440b7935111a41ba06afeb50ff01491610cfa6100d7565b918291826101fb565b0390a1565b610d24610d1d610d186002610900565b610ad0565b6002610b26565b34610d5b7ff5ec7914f551b0e22d281faf431be56bd547434a136fa460d18a3b21664f46fb91610d526100d7565b918291826101fb565b0390a1610d666100d7565b62461bcd60e51b815280610d7c60048201610b87565b0390fdfea26469706673582212209bd97c0dd7df9c41e949dff19e8d03e54b54e6afb987d77f6b636d1bde29f30364736f6c634300081e0033","linkReferences":{}},"methodIdentifiers":{"enrollInTournament(uint8,uint8)":"e6c455f5","forceStartTournament(uint8,uint8)":"ea2b1d73","game()":"c3fe3e28","getStats()":"c59d4847","makeMove(uint8,uint8,uint8,uint8,uint8)":"23e737aa","receivedAmount()":"9632e720","rejectPayments()":"5a2056ba","rejectionCount()":"3290afed","setRejectPayments(bool)":"5a59799c","withdraw()":"3ccfd60b"},"id":11}