{"abi":[{"type":"constructor","inputs":[],"stateMutability":"nonpayable"},{"type":"function","name":"BASIS_POINTS","inputs":[],"outputs":[{"name":"","type":"uint256","internalType":"uint256"}],"stateMutability":"view"},{"type":"function","name":"MODULE_CORE","inputs":[],"outputs":[{"name":"","type":"address","internalType":"address"}],"stateMutability":"view"},{"type":"function","name":"MODULE_ESCALATION","inputs":[],"outputs":[{"name":"","type":"address","internalType":"address"}],"stateMutability":"view"},{"type":"function","name":"MODULE_MATCHES","inputs":[],"outputs":[{"name":"","type":"address","internalType":"address"}],"stateMutability":"view"},{"type":"function","name":"MODULE_PRIZES","inputs":[],"outputs":[{"name":"","type":"address","internalType":"address"}],"stateMutability":"view"},{"type":"function","name":"MODULE_RAFFLE","inputs":[],"outputs":[{"name":"","type":"address","internalType":"address"}],"stateMutability":"view"},{"type":"function","name":"NO_ROUND","inputs":[],"outputs":[{"name":"","type":"uint8","internalType":"uint8"}],"stateMutability":"view"},{"type":"function","name":"OWNER_SHARE_BPS","inputs":[],"outputs":[{"name":"","type":"uint256","internalType":"uint256"}],"stateMutability":"view"},{"type":"function","name":"PARTICIPANTS_SHARE_BPS","inputs":[],"outputs":[{"name":"","type":"uint256","internalType":"uint256"}],"stateMutability":"view"},{"type":"function","name":"PROTOCOL_SHARE_BPS","inputs":[],"outputs":[{"name":"","type":"uint256","internalType":"uint256"}],"stateMutability":"view"},{"type":"function","name":"_completeMatchWithResult","inputs":[{"name":"","type":"bytes32","internalType":"bytes32"},{"name":"","type":"address","internalType":"address"},{"name":"","type":"bool","internalType":"bool"}],"outputs":[],"stateMutability":"nonpayable"},{"type":"function","name":"_createMatchGame","inputs":[{"name":"","type":"uint8","internalType":"uint8"},{"name":"","type":"uint8","internalType":"uint8"},{"name":"","type":"uint8","internalType":"uint8"},{"name":"","type":"uint8","internalType":"uint8"},{"name":"","type":"address","internalType":"address"},{"name":"","type":"address","internalType":"address"}],"outputs":[],"stateMutability":"nonpayable"},{"type":"function","name":"_getActiveMatchData","inputs":[{"name":"matchId","type":"bytes32","internalType":"bytes32"},{"name":"tierId","type":"uint8","internalType":"uint8"},{"name":"instanceId","type":"uint8","internalType":"uint8"},{"name":"roundNumber","type":"uint8","internalType":"uint8"},{"name":"matchNumber","type":"uint8","internalType":"uint8"}],"outputs":[{"name":"","type":"tuple","internalType":"struct ETour_Storage.CommonMatchData","components":[{"name":"player1","type":"address","internalType":"address"},{"name":"player2","type":"address","internalType":"address"},{"name":"winner","type":"address","internalType":"address"},{"name":"loser","type":"address","internalType":"address"},{"name":"status","type":"uint8","internalType":"enum ETour_Storage.MatchStatus"},{"name":"isDraw","type":"bool","internalType":"bool"},{"name":"startTime","type":"uint256","internalType":"uint256"},{"name":"lastMoveTime","type":"uint256","internalType":"uint256"},{"name":"tierId","type":"uint8","internalType":"uint8"},{"name":"instanceId","type":"uint8","internalType":"uint8"},{"name":"roundNumber","type":"uint8","internalType":"uint8"},{"name":"matchNumber","type":"uint8","internalType":"uint8"},{"name":"isCached","type":"bool","internalType":"bool"}]}],"stateMutability":"view"},{"type":"function","name":"_getMatchPlayers","inputs":[{"name":"matchId","type":"bytes32","internalType":"bytes32"}],"outputs":[{"name":"player1","type":"address","internalType":"address"},{"name":"player2","type":"address","internalType":"address"}],"stateMutability":"view"},{"type":"function","name":"_getMatchResult","inputs":[{"name":"","type":"bytes32","internalType":"bytes32"}],"outputs":[{"name":"","type":"address","internalType":"address"},{"name":"","type":"bool","internalType":"bool"},{"name":"","type":"uint8","internalType":"enum ETour_Storage.MatchStatus"}],"stateMutability":"view"},{"type":"function","name":"_getTimeIncrement","inputs":[],"outputs":[{"name":"","type":"uint256","internalType":"uint256"}],"stateMutability":"view"},{"type":"function","name":"_hasCurrentPlayerTimedOut","inputs":[{"name":"","type":"bytes32","internalType":"bytes32"}],"outputs":[{"name":"","type":"bool","internalType":"bool"}],"stateMutability":"view"},{"type":"function","name":"_initializeMatchForPlay","inputs":[{"name":"","type":"bytes32","internalType":"bytes32"},{"name":"","type":"uint8","internalType":"uint8"}],"outputs":[],"stateMutability":"nonpayable"},{"type":"function","name":"_isMatchActive","inputs":[{"name":"matchId","type":"bytes32","internalType":"bytes32"}],"outputs":[{"name":"","type":"bool","internalType":"bool"}],"stateMutability":"view"},{"type":"function","name":"_resetMatchGame","inputs":[{"name":"","type":"bytes32","internalType":"bytes32"}],"outputs":[],"stateMutability":"nonpayable"},{"type":"function","name":"_setMatchPlayer","inputs":[{"name":"matchId","type":"bytes32","internalType":"bytes32"},{"name":"slot","type":"uint8","internalType":"uint8"},{"name":"player","type":"address","internalType":"address"}],"outputs":[],"stateMutability":"nonpayable"},{"type":"function","name":"accumulatedProtocolShare","inputs":[],"outputs":[{"name":"","type":"uint256","internalType":"uint256"}],"stateMutability":"view"},{"type":"function","name":"claimTimeoutWin","inputs":[{"name":"tierId","type":"uint8","internalType":"uint8"},{"name":"instanceId","type":"uint8","internalType":"uint8"},{"name":"roundNumber","type":"uint8","internalType":"uint8"},{"name":"matchNumber","type":"uint8","internalType":"uint8"}],"outputs":[],"stateMutability":"nonpayable"},{"type":"function","name":"currentRaffleIndex","inputs":[],"outputs":[{"name":"","type":"uint256","internalType":"uint256"}],"stateMutability":"view"},{"type":"function","name":"drawParticipants","inputs":[{"name":"","type":"uint8","internalType":"uint8"},{"name":"","type":"uint8","internalType":"uint8"},{"name":"","type":"uint8","internalType":"uint8"},{"name":"","type":"uint8","internalType":"uint8"},{"name":"","type":"address","internalType":"address"}],"outputs":[{"name":"","type":"bool","internalType":"bool"}],"stateMutability":"view"},{"type":"function","name":"enrollInTournament","inputs":[{"name":"tierId","type":"uint8","internalType":"uint8"},{"name":"instanceId","type":"uint8","internalType":"uint8"}],"outputs":[],"stateMutability":"payable"},{"type":"function","name":"enrolledPlayers","inputs":[{"name":"","type":"uint8","internalType":"uint8"},{"name":"","type":"uint8","internalType":"uint8"},{"name":"","type":"uint256","internalType":"uint256"}],"outputs":[{"name":"","type":"address","internalType":"address"}],"stateMutability":"view"},{"type":"function","name":"executeProtocolRaffle","inputs":[],"outputs":[{"name":"winner","type":"address","internalType":"address"},{"name":"ownerAmount","type":"uint256","internalType":"uint256"},{"name":"winnerAmount","type":"uint256","internalType":"uint256"}],"stateMutability":"nonpayable"},{"type":"function","name":"forceStartTournament","inputs":[{"name":"tierId","type":"uint8","internalType":"uint8"},{"name":"instanceId","type":"uint8","internalType":"uint8"}],"outputs":[],"stateMutability":"nonpayable"},{"type":"function","name":"getAllEnrolledPlayersWithWeights","inputs":[],"outputs":[{"name":"players","type":"address[]","internalType":"address[]"},{"name":"weights","type":"uint256[]","internalType":"uint256[]"},{"name":"totalWeight","type":"uint256","internalType":"uint256"}],"stateMutability":"view"},{"type":"function","name":"getEligiblePlayerCount","inputs":[],"outputs":[{"name":"","type":"uint256","internalType":"uint256"}],"stateMutability":"view"},{"type":"function","name":"getLeaderboard","inputs":[],"outputs":[{"name":"","type":"tuple[]","internalType":"struct ETour_Storage.LeaderboardEntry[]","components":[{"name":"player","type":"address","internalType":"address"},{"name":"earnings","type":"int256","internalType":"int256"}]}],"stateMutability":"view"},{"type":"function","name":"getPlayerActiveTournaments","inputs":[{"name":"player","type":"address","internalType":"address"}],"outputs":[{"name":"","type":"tuple[]","internalType":"struct ETour_Storage.TournamentRef[]","components":[{"name":"tierId","type":"uint8","internalType":"uint8"},{"name":"instanceId","type":"uint8","internalType":"uint8"}]}],"stateMutability":"view"},{"type":"function","name":"getPlayerEnrollingTournaments","inputs":[{"name":"player","type":"address","internalType":"address"}],"outputs":[{"name":"","type":"tuple[]","internalType":"struct ETour_Storage.TournamentRef[]","components":[{"name":"tierId","type":"uint8","internalType":"uint8"},{"name":"instanceId","type":"uint8","internalType":"uint8"}]}],"stateMutability":"view"},{"type":"function","name":"getPlayerStats","inputs":[],"outputs":[{"name":"totalEarnings","type":"int256","internalType":"int256"}],"stateMutability":"view"},{"type":"function","name":"getRaffleInfo","inputs":[],"outputs":[{"name":"raffleIndex","type":"uint256","internalType":"uint256"},{"name":"isReady","type":"bool","internalType":"bool"},{"name":"currentAccumulated","type":"uint256","internalType":"uint256"},{"name":"threshold","type":"uint256","internalType":"uint256"},{"name":"reserve","type":"uint256","internalType":"uint256"},{"name":"raffleAmount","type":"uint256","internalType":"uint256"},{"name":"ownerShare","type":"uint256","internalType":"uint256"},{"name":"winnerShare","type":"uint256","internalType":"uint256"},{"name":"eligiblePlayerCount","type":"uint256","internalType":"uint256"}],"stateMutability":"view"},{"type":"function","name":"getRaffleReserve","inputs":[],"outputs":[{"name":"","type":"uint256","internalType":"uint256"}],"stateMutability":"view"},{"type":"function","name":"getRaffleResult","inputs":[{"name":"raffleIndex","type":"uint256","internalType":"uint256"}],"outputs":[{"name":"executor","type":"address","internalType":"address"},{"name":"timestamp","type":"uint256","internalType":"uint256"},{"name":"rafflePot","type":"uint256","internalType":"uint256"},{"name":"participants","type":"address[]","internalType":"address[]"},{"name":"weights","type":"uint256[]","internalType":"uint256[]"},{"name":"winner","type":"address","internalType":"address"},{"name":"winnerPrize","type":"uint256","internalType":"uint256"},{"name":"protocolReserve","type":"uint256","internalType":"uint256"},{"name":"ownerShare","type":"uint256","internalType":"uint256"}],"stateMutability":"view"},{"type":"function","name":"getRaffleThreshold","inputs":[],"outputs":[{"name":"","type":"uint256","internalType":"uint256"}],"stateMutability":"view"},{"type":"function","name":"getRoundInfo","inputs":[{"name":"tierId","type":"uint8","internalType":"uint8"},{"name":"instanceId","type":"uint8","internalType":"uint8"},{"name":"roundNumber","type":"uint8","internalType":"uint8"}],"outputs":[{"name":"totalMatches","type":"uint8","internalType":"uint8"},{"name":"completedMatches","type":"uint8","internalType":"uint8"},{"name":"initialized","type":"bool","internalType":"bool"}],"stateMutability":"view"},{"type":"function","name":"getTournamentInfo","inputs":[{"name":"tierId","type":"uint8","internalType":"uint8"},{"name":"instanceId","type":"uint8","internalType":"uint8"}],"outputs":[{"name":"status","type":"uint8","internalType":"enum ETour_Storage.TournamentStatus"},{"name":"currentRound","type":"uint8","internalType":"uint8"},{"name":"enrolledCount","type":"uint8","internalType":"uint8"},{"name":"prizePool","type":"uint256","internalType":"uint256"},{"name":"winner","type":"address","internalType":"address"}],"stateMutability":"view"},{"type":"function","name":"initializeRound","inputs":[{"name":"","type":"uint8","internalType":"uint8"},{"name":"","type":"uint8","internalType":"uint8"},{"name":"","type":"uint8","internalType":"uint8"}],"outputs":[],"stateMutability":"nonpayable"},{"type":"function","name":"isCallerEnrolledInActiveTournament","inputs":[{"name":"caller","type":"address","internalType":"address"}],"outputs":[{"name":"","type":"bool","internalType":"bool"}],"stateMutability":"view"},{"type":"function","name":"isEnrolled","inputs":[{"name":"","type":"uint8","internalType":"uint8"},{"name":"","type":"uint8","internalType":"uint8"},{"name":"","type":"address","internalType":"address"}],"outputs":[{"name":"","type":"bool","internalType":"bool"}],"stateMutability":"view"},{"type":"function","name":"isMatchEscL2Available","inputs":[{"name":"tierId","type":"uint8","internalType":"uint8"},{"name":"instanceId","type":"uint8","internalType":"uint8"},{"name":"roundNumber","type":"uint8","internalType":"uint8"},{"name":"matchNumber","type":"uint8","internalType":"uint8"}],"outputs":[{"name":"","type":"bool","internalType":"bool"}],"stateMutability":"view"},{"type":"function","name":"isMatchEscL3Available","inputs":[{"name":"tierId","type":"uint8","internalType":"uint8"},{"name":"instanceId","type":"uint8","internalType":"uint8"},{"name":"roundNumber","type":"uint8","internalType":"uint8"},{"name":"matchNumber","type":"uint8","internalType":"uint8"}],"outputs":[{"name":"","type":"bool","internalType":"bool"}],"stateMutability":"view"},{"type":"function","name":"isPlayerInAdvancedRound","inputs":[{"name":"tierId","type":"uint8","internalType":"uint8"},{"name":"instanceId","type":"uint8","internalType":"uint8"},{"name":"stalledRoundNumber","type":"uint8","internalType":"uint8"},{"name":"player","type":"address","internalType":"address"}],"outputs":[{"name":"hasAdvanced","type":"bool","internalType":"bool"}],"stateMutability":"view"},{"type":"function","name":"matchTimeouts","inputs":[{"name":"","type":"bytes32","internalType":"bytes32"}],"outputs":[{"name":"escalation1Start","type":"uint256","internalType":"uint256"},{"name":"escalation2Start","type":"uint256","internalType":"uint256"},{"name":"activeEscalation","type":"uint8","internalType":"enum ETour_Storage.EscalationLevel"},{"name":"isStalled","type":"bool","internalType":"bool"}],"stateMutability":"view"},{"type":"function","name":"matches","inputs":[{"name":"","type":"bytes32","internalType":"bytes32"}],"outputs":[{"name":"player1","type":"address","internalType":"address"},{"name":"player2","type":"address","internalType":"address"},{"name":"winner","type":"address","internalType":"address"},{"name":"currentTurn","type":"address","internalType":"address"},{"name":"firstPlayer","type":"address","internalType":"address"},{"name":"status","type":"uint8","internalType":"enum ETour_Storage.MatchStatus"},{"name":"isDraw","type":"bool","internalType":"bool"},{"name":"packedBoard","type":"uint256","internalType":"uint256"},{"name":"packedState","type":"uint256","internalType":"uint256"},{"name":"startTime","type":"uint256","internalType":"uint256"},{"name":"lastMoveTime","type":"uint256","internalType":"uint256"},{"name":"player1TimeRemaining","type":"uint256","internalType":"uint256"},{"name":"player2TimeRemaining","type":"uint256","internalType":"uint256"},{"name":"moves","type":"string","internalType":"string"}],"stateMutability":"view"},{"type":"function","name":"owner","inputs":[],"outputs":[{"name":"","type":"address","internalType":"address"}],"stateMutability":"view"},{"type":"function","name":"playerActiveMatches","inputs":[{"name":"","type":"address","internalType":"address"},{"name":"","type":"uint256","internalType":"uint256"}],"outputs":[{"name":"","type":"bytes32","internalType":"bytes32"}],"stateMutability":"view"},{"type":"function","name":"playerActiveTournaments","inputs":[{"name":"","type":"address","internalType":"address"},{"name":"","type":"uint256","internalType":"uint256"}],"outputs":[{"name":"tierId","type":"uint8","internalType":"uint8"},{"name":"instanceId","type":"uint8","internalType":"uint8"}],"stateMutability":"view"},{"type":"function","name":"playerEarnings","inputs":[{"name":"","type":"address","internalType":"address"}],"outputs":[{"name":"","type":"int256","internalType":"int256"}],"stateMutability":"view"},{"type":"function","name":"playerEnrollingTournaments","inputs":[{"name":"","type":"address","internalType":"address"},{"name":"","type":"uint256","internalType":"uint256"}],"outputs":[{"name":"tierId","type":"uint8","internalType":"uint8"},{"name":"instanceId","type":"uint8","internalType":"uint8"}],"stateMutability":"view"},{"type":"function","name":"playerMatchIndex","inputs":[{"name":"","type":"address","internalType":"address"},{"name":"","type":"bytes32","internalType":"bytes32"}],"outputs":[{"name":"","type":"uint256","internalType":"uint256"}],"stateMutability":"view"},{"type":"function","name":"playerPrizes","inputs":[{"name":"","type":"uint8","internalType":"uint8"},{"name":"","type":"uint8","internalType":"uint8"},{"name":"","type":"address","internalType":"address"}],"outputs":[{"name":"","type":"uint256","internalType":"uint256"}],"stateMutability":"view"},{"type":"function","name":"playerRanking","inputs":[{"name":"","type":"uint8","internalType":"uint8"},{"name":"","type":"uint8","internalType":"uint8"},{"name":"","type":"address","internalType":"address"}],"outputs":[{"name":"","type":"uint8","internalType":"uint8"}],"stateMutability":"view"},{"type":"function","name":"raffleResults","inputs":[{"name":"","type":"uint256","internalType":"uint256"}],"outputs":[{"name":"executor","type":"address","internalType":"address"},{"name":"timestamp","type":"uint256","internalType":"uint256"},{"name":"rafflePot","type":"uint256","internalType":"uint256"},{"name":"winner","type":"address","internalType":"address"},{"name":"winnerPrize","type":"uint256","internalType":"uint256"},{"name":"protocolReserve","type":"uint256","internalType":"uint256"},{"name":"ownerShare","type":"uint256","internalType":"uint256"}],"stateMutability":"view"},{"type":"function","name":"rounds","inputs":[{"name":"","type":"uint8","internalType":"uint8"},{"name":"","type":"uint8","internalType":"uint8"},{"name":"","type":"uint8","internalType":"uint8"}],"outputs":[{"name":"totalMatches","type":"uint8","internalType":"uint8"},{"name":"completedMatches","type":"uint8","internalType":"uint8"},{"name":"initialized","type":"bool","internalType":"bool"},{"name":"drawCount","type":"uint8","internalType":"uint8"}],"stateMutability":"view"},{"type":"function","name":"selectWeightedWinner","inputs":[{"name":"players","type":"address[]","internalType":"address[]"},{"name":"weights","type":"uint256[]","internalType":"uint256[]"},{"name":"totalWeight","type":"uint256","internalType":"uint256"},{"name":"randomness","type":"uint256","internalType":"uint256"}],"outputs":[{"name":"winner","type":"address","internalType":"address"}],"stateMutability":"pure"},{"type":"function","name":"tierCount","inputs":[],"outputs":[{"name":"","type":"uint8","internalType":"uint8"}],"stateMutability":"view"},{"type":"function","name":"tournaments","inputs":[{"name":"","type":"uint8","internalType":"uint8"},{"name":"","type":"uint8","internalType":"uint8"}],"outputs":[{"name":"tierId","type":"uint8","internalType":"uint8"},{"name":"instanceId","type":"uint8","internalType":"uint8"},{"name":"status","type":"uint8","internalType":"enum ETour_Storage.TournamentStatus"},{"name":"currentRound","type":"uint8","internalType":"uint8"},{"name":"enrolledCount","type":"uint8","internalType":"uint8"},{"name":"prizePool","type":"uint256","internalType":"uint256"},{"name":"startTime","type":"uint256","internalType":"uint256"},{"name":"winner","type":"address","internalType":"address"},{"name":"finalsWasDraw","type":"bool","internalType":"bool"},{"name":"allDrawResolution","type":"bool","internalType":"bool"},{"name":"allDrawRound","type":"uint8","internalType":"uint8"},{"name":"completionReason","type":"uint8","internalType":"enum ETour_Storage.CompletionReason"},{"name":"enrollmentTimeout","type":"tuple","internalType":"struct ETour_Storage.EnrollmentTimeoutState","components":[{"name":"escalation1Start","type":"uint256","internalType":"uint256"},{"name":"escalation2Start","type":"uint256","internalType":"uint256"},{"name":"activeEscalation","type":"uint8","internalType":"enum ETour_Storage.EscalationLevel"},{"name":"forfeitPool","type":"uint256","internalType":"uint256"}]}],"stateMutability":"view"},{"type":"event","name":"MatchCompleted","inputs":[{"name":"matchId","type":"bytes32","indexed":true,"internalType":"bytes32"},{"name":"player1","type":"address","indexed":true,"internalType":"address"},{"name":"player2","type":"address","indexed":true,"internalType":"address"},{"name":"winner","type":"address","indexed":false,"internalType":"address"},{"name":"isDraw","type":"bool","indexed":false,"internalType":"bool"},{"name":"reason","type":"uint8","indexed":false,"internalType":"enum ETour_Storage.CompletionReason"},{"name":"board","type":"uint256","indexed":false,"internalType":"uint256"}],"anonymous":false},{"type":"event","name":"ProtocolRaffleExecuted","inputs":[{"name":"raffleIndex","type":"uint256","indexed":true,"internalType":"uint256"},{"name":"winner","type":"address","indexed":true,"internalType":"address"},{"name":"caller","type":"address","indexed":true,"internalType":"address"},{"name":"raffleAmount","type":"uint256","indexed":false,"internalType":"uint256"},{"name":"ownerShare","type":"uint256","indexed":false,"internalType":"uint256"},{"name":"winnerShare","type":"uint256","indexed":false,"internalType":"uint256"},{"name":"remainingReserve","type":"uint256","indexed":false,"internalType":"uint256"},{"name":"winnerEnrollmentCount","type":"uint256","indexed":false,"internalType":"uint256"}],"anonymous":false},{"type":"event","name":"TournamentCompleted","inputs":[{"name":"tierId","type":"uint8","indexed":true,"internalType":"uint8"},{"name":"instanceId","type":"uint8","indexed":true,"internalType":"uint8"},{"name":"winner","type":"address","indexed":false,"internalType":"address"},{"name":"prizeAmount","type":"uint256","indexed":false,"internalType":"uint256"},{"name":"reason","type":"uint8","indexed":false,"internalType":"enum ETour_Storage.CompletionReason"},{"name":"enrolledPlayers","type":"address[]","indexed":false,"internalType":"address[]"}],"anonymous":false},{"type":"event","name":"Transfer","inputs":[{"name":"from","type":"address","indexed":true,"internalType":"address"},{"name":"to","type":"address","indexed":true,"internalType":"address"},{"name":"value","type":"uint256","indexed":false,"internalType":"uint256"}],"anonymous":false},{"type":"error","name":"ReentrancyGuardReentrantCall","inputs":[]}],"bytecode":{"object":"0x61014060405234610083576100126100cb565b61001a610088565b617d226101c08239608051818181611f52015281816157640152615979015260a05181612ad2015260c05181818161140d0152615a6e015260e051816114950152610100518181816126a301526140b6015261012051818181611fab01526168a90152617d2290f35b61008e565b60405190565b5f80fd5b90565b60018060a01b031690565b90565b6100b76100b26100bc92610092565b6100a0565b610095565b90565b6100c8906100a3565b90565b6101026100d75f6100bf565b6100e05f6100bf565b6100e95f6100bf565b6100f25f6100bf565b916100fc5f6100bf565b93610104565b565b61010c6101ac565b336101205260805260a05260c05260e05261010052565b90565b90565b61013d61013861014292610123565b6100a0565b610126565b90565b61014f6001610129565b90565b5f1b90565b906101635f1991610152565b9181191691161790565b61018161017c61018692610126565b6100a0565b610126565b90565b90565b906101a161019c6101a89261016d565b610189565b8254610157565b9055565b6101bd6101b7610145565b5f61018c565b56fe60806040526004361015610013575b6130a7565b61001d5f356103fc565b80630300e0b9146103f7578063066b74a4146103f25780631235cb18146103ed57806319602c21146103e85780631ec3b8ad146103e35780631f916aca146103de578063273e3475146103d95780632ad7e3bf146103d45780632f26185d146103cf57806331449074146103ca57806332e7c6aa146103c55780633475bd53146103c05780633751d19f146103bb5780633845753f146103b657806340861c1d146103b1578063414a488a146103ac57806343bd18a2146103a757806358f975f3146103a25780635a3db19f1461039d5780635d657cb114610398578063631039c71461039357806365e12b141461038e578063685f1b121461038957806369f92773146103845780636b9be2c91461037f5780636d763a6e1461037a57806375da743d14610375578063766d1fca14610370578063786d8ef51461036b5780637f515802146103665780638166f6b214610361578063823835351461035c578063847a5e991461035757806387d41608146103525780638da5cb5b1461034d5780639282204714610348578063940f0a911461034357806395dd91761461033e57806396b55f7d1461033957806397556f67146103345780639fe9ada31461032f578063a401a2231461032a578063a5cd19da14610325578063a61804ec14610320578063bb0d10b51461031b578063c6c2d69c14610316578063c718d0e514610311578063c743c0a81461030c578063cb42276514610307578063cd47b9a914610302578063d3f525dc146102fd578063d893088d146102f8578063e1f1c4a7146102f3578063e545f486146102ee578063e6c455f5146102e9578063ea2b1d73146102e4578063ed96ffdf146102df578063eed9a268146102da578063f4df7cf0146102d5578063f4ed1743146102d0578063f878ebf0146102cb5763fee6605e0361000e57613072565b61303a565b612fd3565b612f80565b612ee9565b612dc0565b612d8c565b612d62565b612d29565b612b7b565b612b29565b612af4565b612a9b565b612a2f565b6129fa565b6129c5565b6128cc565b612829565b612777565b612709565b6126c5565b612659565b612316565b6122ad565b61226a565b6121f1565b612039565b611fcd565b611f74565b611f1b565b611ee6565b611e6f565b611dcf565b611d96565b611bb1565b611aae565b6119d1565b6118cc565b611862565b611791565b611658565b6115ed565b6115b7565b6114b7565b611479565b611444565b6113d2565b6112d7565b611182565b611123565b6110c0565b610fb8565b610e35565b610db6565b610d4f565b610c8f565b610c17565b610601565b6105a0565b610500565b6104cb565b61047c565b60e01c90565b60405190565b5f80fd5b5f80fd5b5f80fd5b60ff1690565b61042381610414565b0361042a57565b5f80fd5b9050359061043b8261041a565b565b90916060828403126104725761046f610458845f850161042e565b93610466816020860161042e565b9360400161042e565b90565b61040c565b5f0190565b346104925761048c36600461043d565b91613104565b610408565b5f9103126104a157565b61040c565b90565b6104b2906104a6565b9052565b91906104c9905f602085019401906104a9565b565b346104fb576104db366004610497565b6104f76104e661319d565b6104ee610402565b918291826104b6565b0390f35b610408565b3461053057610510366004610497565b61052c61051b6132f0565b610523610402565b918291826104b6565b0390f35b610408565b90565b61054181610535565b0361054857565b5f80fd5b9050359061055982610538565b565b9060208282031261057457610571915f0161054c565b90565b61040c565b151590565b61058790610579565b9052565b919061059e905f6020850194019061057e565b565b346105b5576105b036600461055b565b61332e565b610408565b60018060a01b031690565b6105ce906105ba565b90565b6105da906105c5565b9052565b9160206105ff9294936105f860408201965f8301906105d1565b01906105d1565b565b346106325761061961061436600461055b565b613360565b9061062e610625610402565b928392836105de565b0390f35b610408565b919060408382031261065f578061065361065c925f860161042e565b9360200161042e565b90565b61040c565b90565b61067b61067661068092610414565b610664565b610414565b90565b9061068d90610667565b5f5260205260405f2090565b906106a390610667565b5f5260205260405f2090565b5f1c90565b60ff1690565b6106c66106cb916106af565b6106b4565b90565b6106d890546106ba565b90565b60081c90565b6106ed6106f2916106db565b6106b4565b90565b6106ff90546106e1565b90565b60101c90565b60ff1690565b61071a61071f91610702565b610708565b90565b61072c905461070e565b90565b60181c90565b6107416107469161072f565b6106b4565b90565b6107539054610735565b90565b60201c90565b61076861076d91610756565b6106b4565b90565b61077a905461075c565b90565b90565b61078c610791916106af565b61077d565b90565b61079e9054610780565b90565b60018060a01b031690565b6107b86107bd916106af565b6107a1565b90565b6107ca90546107ac565b90565b60a01c90565b60ff1690565b6107e56107ea916107cd565b6107d3565b90565b6107f790546107d9565b90565b60a81c90565b61080c610811916107fa565b6107d3565b90565b61081e9054610800565b90565b60b01c90565b61083361083891610821565b6106b4565b90565b6108459054610827565b90565b60b81c90565b60ff1690565b61086061086591610848565b61084e565b90565b6108729054610854565b90565b9061087f906104a6565b9052565b60ff1690565b61089561089a916106af565b610883565b90565b6108a79054610889565b90565b634e487b7160e01b5f52602160045260245ffd5b600411156108c857565b6108aa565b906108d7826108be565b565b906108e3906108cd565b9052565b601f801991011690565b634e487b7160e01b5f52604160045260245ffd5b9061090f906108e7565b810190811067ffffffffffffffff82111761092957604052565b6108f1565b9061094161093a610402565b9283610905565b565b61094d608061092e565b90565b906109b76109ae6003610961610943565b946109786109705f8301610794565b5f8801610875565b61099061098760018301610794565b60208801610875565b6109a861099f6002830161089d565b604088016108d9565b01610794565b60608401610875565b565b906109c86109cd926008610683565b610699565b6109d85f82016106ce565b916109e45f83016106f5565b916109f05f8201610722565b916109fc5f8301610749565b91610a085f8201610770565b91610a1560018301610794565b91610a2260028201610794565b91610a2f600383016107c0565b91610a3c600382016107ed565b91610a4960038301610814565b91610a566003820161083b565b91610a6f6004610a6860038501610868565b9301610950565b90565b610a7b90610414565b9052565b60031115610a8957565b6108aa565b90610a9882610a7f565b565b610aa390610a8e565b90565b610aaf90610a9a565b9052565b60061115610abd57565b6108aa565b90610acc82610ab3565b565b610ad790610ac2565b90565b610ae390610ace565b9052565b610af0906104a6565b9052565b610afd906108cd565b90565b610b0990610af4565b9052565b90606080610b5393610b255f8201515f860190610ae7565b610b3760208201516020860190610ae7565b610b4960408201516040860190610b00565b0151910190610ae7565b565b9a98969492909d9c9b99979593916102008c019e5f8d01610b7591610a72565b60208c01610b8291610a72565b60408b01610b8f91610aa6565b60608a01610b9c91610a72565b60808901610ba991610a72565b60a08801610bb6916104a9565b60c08701610bc3916104a9565b60e08601610bd0916105d1565b6101008501610bde9161057e565b6101208401610bec9161057e565b6101408301610bfa91610a72565b6101608201610c0891610ada565b61018001610c1591610b0d565b565b34610c5857610c54610c33610c2d366004610637565b906109b9565b99610c4b9d9b9d999199989298979397969496610402565b9d8e9d8e610b55565b0390f35b610408565b604090610c86610c8d9496959396610c7c60608401985f850190610a72565b6020830190610a72565b019061057e565b565b34610cc357610cbf610cab610ca536600461043d565b916133a7565b610cb6939193610402565b93849384610c5d565b0390f35b610408565b610cd1816105c5565b03610cd857565b5f80fd5b90503590610ce982610cc8565b565b909160c082840312610d4a57610d03835f840161042e565b92610d11816020850161042e565b92610d1f826040830161042e565b92610d47610d30846060850161042e565b93610d3e8160808601610cdc565b9360a001610cdc565b90565b61040c565b34610d6b57610d5f366004610ceb565b94939093929192613410565b610408565b608081830312610db157610d86825f830161042e565b92610dae610d97846020850161042e565b93610da5816040860161042e565b9360600161042e565b90565b61040c565b34610dea57610de6610dd5610dcc366004610d70565b929190916134c3565b610ddd610402565b9182918261058b565b0390f35b610408565b608081830312610e3057610e05825f830161042e565b92610e2d610e16846020850161042e565b93610e24816040860161042e565b93606001610cdc565b90565b61040c565b34610e6957610e65610e54610e4b366004610def565b92919091613867565b610e5c610402565b9182918261058b565b0390f35b610408565b610e77816104a6565b03610e7e57565b5f80fd5b90503590610e8f82610e6e565b565b9190604083820312610eb95780610ead610eb6925f8601610cdc565b93602001610e82565b90565b61040c565b610ed2610ecd610ed7926105ba565b610664565b6105ba565b90565b610ee390610ebe565b90565b610eef90610eda565b90565b90610efc90610ee6565b5f5260205260405f2090565b634e487b7160e01b5f52603260045260245ffd5b5490565b5f5260205f2090565b610f3281610f1c565b821015610f4c57610f44600191610f20565b910201905f90565b610f08565b610f5c906018610ef2565b90610f6682610f1c565b811015610f9157610f7691610f29565b5090610f8e5f610f878185016106ce565b93016106f5565b90565b5f80fd5b916020610fb6929493610faf60408201965f830190610a72565b0190610a72565b565b34610fea57610fd1610fcb366004610e91565b90610f51565b90610fe6610fdd610402565b92839283610f95565b0390f35b610408565b90916060828403126110245761102161100a845f850161042e565b93611018816020860161042e565b93604001610cdc565b90565b61040c565b9061103390610667565b5f5260205260405f2090565b9061104990610667565b5f5260205260405f2090565b9061105f90610ee6565b5f5260205260405f2090565b1c90565b61107f906008611084930261106b565b6107d3565b90565b90611092915461106f565b90565b906110bd926110b36110b8926110ae600a955f96611029565b61103f565b611055565b611087565b90565b346110f1576110ed6110dc6110d6366004610fef565b91611095565b6110e4610402565b9182918261058b565b0390f35b610408565b919060408382031261111e578061111261111b925f860161054c565b9360200161042e565b90565b61040c565b34611139576111333660046110f6565b90613c20565b610408565b611149906016610ef2565b9061115382610f1c565b81101561117e5761116391610f29565b509061117b5f6111748185016106ce565b93016106f5565b90565b5f80fd5b346111b45761119b611195366004610e91565b9061113e565b906111b06111a7610402565b92839283610f95565b0390f35b610408565b906020828203126111d2576111cf915f01610e82565b90565b61040c565b6111eb6111e66111f0926104a6565b610664565b6104a6565b90565b906111fd906111d7565b5f5260205260405f2090565b6112149060076111f3565b61121f5f82016107c0565b9161122c60018301610794565b9161123960028201610794565b91611246600583016107c0565b9161125360068201610794565b9161126c600861126560078501610794565b9301610794565b90565b949290979695939160e08601985f8701611288916105d1565b60208601611295916104a9565b604085016112a2916104a9565b606084016112af916105d1565b608083016112bc916104a9565b60a082016112c9916104a9565b60c0016112d5916104a9565b565b3461130e5761130a6112f26112ed3660046111b9565b611209565b93611301979597939193610402565b9788978861126f565b0390f35b610408565b919060a0838203126113645761132b815f850161042e565b92611339826020830161042e565b9261136161134a846040850161042e565b93611358816060860161042e565b93608001610cdc565b90565b61040c565b9061137390610667565b5f5260205260405f2090565b9061138990610667565b5f5260205260405f2090565b926113c5906113c06113ca946113bb6113cf98956113b66010995f9a611369565b61137f565b611029565b61103f565b611055565b611087565b90565b34611406576114026113f16113e8366004611313565b93929092611395565b6113f9610402565b9182918261058b565b0390f35b610408565b7f000000000000000000000000000000000000000000000000000000000000000090565b9190611442905f602085019401906105d1565b565b3461147457611454366004610497565b61147061145f61140b565b611467610402565b9182918261142f565b0390f35b610408565b3461148e57611489366004610497565b613c42565b610408565b7f000000000000000000000000000000000000000000000000000000000000000090565b346114e7576114c7366004610497565b6114e36114d2611493565b6114da610402565b9182918261142f565b0390f35b610408565b906114f690610ee6565b5f5260205260405f2090565b5490565b5f5260205f2090565b61151881611502565b8210156115325761152a600191611506565b910201905f90565b610f08565b90565b61154a90600861154f930261106b565b611537565b90565b9061155d915461153a565b90565b61156b90600c6114ec565b61157481611502565b8210156115915761158e916115889161150f565b90611552565b90565b5f80fd5b61159e90610535565b9052565b91906115b5905f60208501940190611595565b565b346115e8576115e46115d36115cd366004610e91565b90611560565b6115db610402565b918291826115a2565b0390f35b610408565b34611606576115fd366004610d70565b92919091614170565b610408565b909594926116569461164561164f9261163b60809661163160a088019c5f890190610aa6565b6020870190610a72565b6040850190610a72565b60608301906104a9565b01906105d1565b565b3461168d5761168961167461166e366004610637565b90614179565b91611680959395610402565b9586958661160b565b0390f35b610408565b90916060828403126116c7576116c46116ad845f850161042e565b936116bb816020860161042e565b93604001610e82565b90565b61040c565b906116d690610667565b5f5260205260405f2090565b906116ec90610667565b5f5260205260405f2090565b5490565b5f5260205f2090565b61170e816116f8565b821015611728576117206001916116fc565b910201905f90565b610f08565b61173d906008611742930261106b565b6107a1565b90565b90611750915461172d565b90565b906117626117679260096116cc565b6116e2565b611770816116f8565b82101561178d5761178a9161178491611705565b90611745565b90565b5f80fd5b346117c2576117be6117ad6117a7366004611692565b91611753565b6117b5610402565b9182918261142f565b0390f35b610408565b906020828203126117e0576117dd915f01610cdc565b90565b61040c565b906117ef90610ee6565b5f5260205260405f2090565b90565b61180e906008611813930261106b565b6117fb565b90565b9061182191546117fe565b90565b61183a906118356011915f926117e5565b611816565b90565b90565b6118499061183d565b9052565b9190611860905f60208501940190611840565b565b346118925761188e61187d6118783660046117c7565b611824565b611885610402565b9182918261184d565b0390f35b610408565b6118a79060086118ac930261106b565b61077d565b90565b906118ba9154611897565b90565b6118c960035f906118af565b90565b346118fc576118dc366004610497565b6118f86118e76118bd565b6118ef610402565b918291826104b6565b0390f35b610408565b5190565b60209181520190565b60200190565b61191d906105c5565b9052565b61192a9061183d565b9052565b90602080611950936119465f8201515f860190611914565b0151910190611921565b565b9061195f8160409361192e565b0190565b60200190565b9061198661198061197984611901565b8093611905565b9261190e565b905f5b8181106119965750505090565b9091926119af6119a96001928651611952565b94611963565b9101919091611989565b6119ce9160208201915f818403910152611969565b90565b34611a01576119e1366004610497565b6119fd6119ec614349565b6119f4610402565b918291826119b9565b0390f35b610408565b90611a1090610667565b5f5260205260405f2090565b90611a2690610667565b5f5260205260405f2090565b90611a3c90610ee6565b5f5260205260405f2090565b611a58906008611a5d930261106b565b6106b4565b90565b90611a6b9154611a48565b90565b90611a9692611a8c611a9192611a87600e955f96611a06565b611a1c565b611a32565b611a60565b90565b9190611aac905f60208501940190610a72565b565b34611adf57611adb611aca611ac4366004610fef565b91611a6e565b611ad2610402565b91829182611a99565b0390f35b610408565b611aed90610535565b90565b90611afa90611ae4565b5f5260205260405f2090565b611b12611b17916106db565b6107d3565b90565b611b249054611b06565b90565b611b32906014611af0565b90611b3e5f8301610794565b91611b4b60018201610794565b91611b636002611b5c81850161089d565b9301611b1a565b90565b611b6f90610af4565b9052565b611ba8611baf94611b9e606094989795611b94608086019a5f8701906104a9565b60208501906104a9565b6040830190611b66565b019061057e565b565b34611be557611be1611bcc611bc736600461055b565b611b27565b90611bd8949294610402565b94859485611b73565b0390f35b610408565b5f80fd5b67ffffffffffffffff8111611c065760208091020190565b6108f1565b5f80fd5b90929192611c24611c1f82611bee565b61092e565b9381855260208086019202830192818411611c6157915b838310611c485750505050565b60208091611c568486610cdc565b815201920191611c3b565b611c0b565b9080601f83011215611c8457816020611c8193359101611c0f565b90565b611bea565b67ffffffffffffffff8111611ca15760208091020190565b6108f1565b90929192611cbb611cb682611c89565b61092e565b9381855260208086019202830192818411611cf857915b838310611cdf5750505050565b60208091611ced8486610e82565b815201920191611cd2565b611c0b565b9080601f83011215611d1b57816020611d1893359101611ca6565b90565b611bea565b608081830312611d91575f81013567ffffffffffffffff8111611d8c5782611d49918301611c66565b92602082013567ffffffffffffffff8111611d8757611d6d84611d84928501611cfd565b93611d7b8160408601610e82565b93606001610e82565b90565b610410565b610410565b61040c565b34611dca57611dc6611db5611dac366004611d20565b929190916145b3565b611dbd610402565b9182918261142f565b0390f35b610408565b34611de457611ddf36600461055b565b6146e0565b610408565b9694929099989795939161012088019a5f8901611e05916104a9565b60208801611e129161057e565b60408701611e1f916104a9565b60608601611e2c916104a9565b60808501611e39916104a9565b60a08401611e46916104a9565b60c08301611e53916104a9565b60e08201611e60916104a9565b61010001611e6d916104a9565b565b34611ea957611e7f366004610497565b611ea5611e8a614737565b95611e9c999799959195949294610402565b998a998a611de9565b0390f35b610408565b90565b611ec5611ec0611eca92611eae565b610664565b6104a6565b90565b611ed8612328611eb1565b90565b611ee3611ecd565b90565b34611f1657611ef6366004610497565b611f12611f01611edb565b611f09610402565b918291826104b6565b0390f35b610408565b34611f4b57611f2b366004610497565b611f47611f3661484d565b611f3e610402565b9182918261184d565b0390f35b610408565b7f000000000000000000000000000000000000000000000000000000000000000090565b34611fa457611f84366004610497565b611fa0611f8f611f50565b611f97610402565b9182918261142f565b0390f35b610408565b7f000000000000000000000000000000000000000000000000000000000000000090565b34611ffd57611fdd366004610497565b611ff9611fe8611fa9565b611ff0610402565b9182918261142f565b0390f35b610408565b90565b61201961201461201e92612002565b610664565b6104a6565b90565b61202b60fa612005565b90565b612036612021565b90565b3461206957612049366004610497565b61206561205461202e565b61205c610402565b918291826104b6565b0390f35b610408565b5190565b60209181520190565b60200190565b9061208e81602093611914565b0190565b60200190565b906120b56120af6120a88461206e565b8093612072565b9261207b565b905f5b8181106120c55750505090565b9091926120de6120d86001928651612081565b94612092565b91019190916120b8565b5190565b60209181520190565b60200190565b9061210881602093610ae7565b0190565b60200190565b9061212f612129612122846120e8565b80936120ec565b926120f5565b905f5b81811061213f5750505090565b90919261215861215260019286516120fb565b9461210c565b9101919091612132565b946121c96121d4916121bb610100999d9c9a946121e8986121ae6121ef9e996121a46121de9a60208f61219d6101208201985f8301906105d1565b01906104a9565b60408d01906104a9565b8a820360608c0152612098565b9088820360808a0152612112565b9a60a08701906105d1565b60c08501906104a9565b60e08301906104a9565b01906104a9565b565b3461222b5761222761220c6122073660046111b9565b6149d6565b9561221e999799959195949294610402565b998a998a612162565b0390f35b610408565b90916060828403126122655761226261224b845f850161054c565b93612259816020860161042e565b93604001610cdc565b90565b61040c565b346122995761228361227d366004612230565b91614afc565b61228b610402565b8061229581610477565b0390f35b610408565b6122aa60015f90611a60565b90565b346122dd576122bd366004610497565b6122d96122c861229e565b6122d0610402565b91829182611a99565b0390f35b610408565b600311156122ec57565b6108aa565b906122fb826122e2565b565b612306906122f1565b90565b612312906122fd565b9052565b3461232b5761232636600461055b565b614b4e565b610408565b9061233a90611ae4565b5f5260205260405f2090565b60ff1690565b61235861235d916107cd565b612346565b90565b61236a905461234c565b90565b634e487b7160e01b5f52602260045260245ffd5b90600160028304921680156123a1575b602083101461239c57565b61236d565b91607f1691612391565b60209181520190565b5f5260205f2090565b905f92918054906123d76123d083612381565b80946123ab565b916001811690815f1461242e57506001146123f2575b505050565b6123ff91929394506123b4565b915f925b81841061241657505001905f80806123ed565b60018160209295939554848601520191019290612403565b92949550505060ff19168252151560200201905f80806123ed565b90612453916123bd565b90565b9061247661246f92612466610402565b93848092612449565b0383610905565b565b612483906015612330565b9061248f5f83016107c0565b9161249c600182016107c0565b916124a9600283016107c0565b916124b6600382016107c0565b916124c3600483016107c0565b916124d060048201612360565b916124dd60048301610814565b916124ea60058201610794565b916124f760068301610794565b9161250460078201610794565b9161251160088301610794565b9161251e60098201610794565b91612537600b612530600a8501610794565b9301612456565b90565b5190565b60209181520190565b90825f9392825e0152565b61257161257a60209361257f936125688161253a565b9384809361253e565b95869101612547565b6108e7565b0190565b9c9a9896949290918d9c9a989694926101c08e019e5f016125a3916105d1565b60208d016125b0916105d1565b60408c016125bd916105d1565b60608b016125ca916105d1565b60808a016125d7916105d1565b60a089016125e491612309565b60c088016125f19161057e565b60e087016125fe916104a9565b610100860161260c916104a9565b610120850161261a916104a9565b6101408401612628916104a9565b6101608301612636916104a9565b6101808201612644916104a9565b808203906101a0015261265691612552565b90565b3461269c5761269861267461266f36600461055b565b612478565b9a61268f9e9c9e9a919a999299989398979497969596610402565b9e8f9e8f612583565b0390f35b610408565b7f000000000000000000000000000000000000000000000000000000000000000090565b346126f5576126d5366004610497565b6126f16126e06126a1565b6126e8610402565b9182918261142f565b0390f35b610408565b61270660045f906118af565b90565b3461273957612719366004610497565b6127356127246126fa565b61272c610402565b918291826104b6565b0390f35b610408565b93929061276d6127759361275f60409360608901908982035f8b0152612098565b908782036020890152612112565b9401906104a9565b565b346127aa57612787366004610497565b6127a6612792614c84565b61279d939193610402565b9384938461273e565b0390f35b610408565b91906040838203126127d757806127cb6127d4925f8601610cdc565b9360200161054c565b90565b61040c565b906127e690610ee6565b5f5260205260405f2090565b906127fc90611ae4565b5f5260205260405f2090565b6128216128269261281c600d935f946127dc565b6127f2565b6118af565b90565b3461285a5761285661284561283f3660046127af565b90612808565b61284d610402565b918291826104b6565b0390f35b610408565b9061286990610667565b5f5260205260405f2090565b9061287f90610667565b5f5260205260405f2090565b9061289590610ee6565b5f5260205260405f2090565b906128c9926128bf6128c4926128ba600f955f9661285f565b612875565b61288b565b6118af565b90565b346128fd576128f96128e86128e2366004610fef565b916128a1565b6128f0610402565b918291826104b6565b0390f35b610408565b5190565b60209181520190565b60200190565b61291e90610414565b9052565b906020806129449361293a5f8201515f860190612915565b0151910190612915565b565b9061295381604093612922565b0190565b60200190565b9061297a61297461296d84612902565b8093612906565b9261290f565b905f5b81811061298a5750505090565b9091926129a361299d6001928651612946565b94612957565b910191909161297d565b6129c29160208201915f81840391015261295d565b90565b346129f5576129f16129e06129db3660046117c7565b615219565b6129e8610402565b918291826129ad565b0390f35b610408565b34612a2a57612a26612a15612a103660046117c7565b615238565b612a1d610402565b918291826129ad565b0390f35b610408565b34612a5f57612a5b612a4a612a453660046117c7565b615257565b612a52610402565b9182918261058b565b0390f35b610408565b90565b612a7b612a76612a8092612a64565b610664565b610414565b90565b612a8d60ff612a67565b90565b612a98612a83565b90565b34612acb57612aab366004610497565b612ac7612ab6612a90565b612abe610402565b91829182611a99565b0390f35b610408565b7f000000000000000000000000000000000000000000000000000000000000000090565b34612b2457612b04366004610497565b612b20612b0f612ad0565b612b17610402565b9182918261142f565b0390f35b610408565b34612b3e57612b3936600461055b565b61539b565b610408565b90565b612b5a612b55612b5f92612b43565b610664565b6104a6565b90565b612b6d612710612b46565b90565b612b78612b62565b90565b34612bab57612b8b366004610497565b612ba7612b96612b70565b612b9e610402565b918291826104b6565b0390f35b610408565b919060a083820312612c0157612bc8815f850161054c565b92612bd6826020830161042e565b92612bfe612be7846040850161042e565b93612bf5816060860161042e565b9360800161042e565b90565b61040c565b612c0f906122fd565b9052565b612c1c90610579565b9052565b9061018080612d1193612c395f8201515f860190611914565b612c4b60208201516020860190611914565b612c5d60408201516040860190611914565b612c6f60608201516060860190611914565b612c8160808201516080860190612c06565b612c9360a082015160a0860190612c13565b612ca560c082015160c0860190610ae7565b612cb760e082015160e0860190610ae7565b612ccb610100820151610100860190612915565b612cdf610120820151610120860190612915565b612cf3610140820151610140860190612915565b612d07610160820151610160860190612915565b0151910190612c13565b565b9190612d27905f6101a08501940190612c20565b565b34612d5d57612d59612d48612d3f366004612bb0565b939290926154bb565b612d50610402565b91829182612d13565b0390f35b610408565b612d76612d70366004610637565b90615734565b612d7e610402565b80612d8881610477565b0390f35b34612dbb57612da5612d9f366004610637565b90615947565b612dad610402565b80612db781610477565b0390f35b610408565b34612df457612df0612ddf612dd6366004610d70565b92919091615b53565b612de7610402565b9182918261058b565b0390f35b610408565b90612e0390610667565b5f5260205260405f2090565b90612e1990610667565b5f5260205260405f2090565b90612e2f90610667565b5f5260205260405f2090565b612e47612e4c91610702565b6107d3565b90565b612e599054612e3b565b90565b612e799291612e6f612e7492600b612df9565b612e0f565b612e25565b90612e855f83016106ce565b91612e915f82016106f5565b91612ea85f612ea1818501612e4f565b9301610749565b90565b612ee0612ee794612ed6606094989795612ecc608086019a5f870190610a72565b6020850190610a72565b604083019061057e565b0190610a72565b565b34612f1e57612f1a612f05612eff36600461043d565b91612e5c565b90612f11949294610402565b94859485612eab565b0390f35b610408565b612f2c81610579565b03612f3357565b5f80fd5b90503590612f4482612f23565b565b9091606082840312612f7b57612f78612f61845f850161054c565b93612f6f8160208601610cdc565b93604001612f37565b90565b61040c565b34612f9657612f90366004612f46565b91615d63565b610408565b90565b612fb2612fad612fb792612f9b565b610664565b6104a6565b90565b612fc56102ee612f9e565b90565b612fd0612fba565b90565b3461300357612fe3366004610497565b612fff612fee612fc8565b612ff6610402565b918291826104b6565b0390f35b610408565b604090613031613038949695939661302760608401985f8501906105d1565b60208301906104a9565b01906104a9565b565b3461306d5761304a366004610497565b613069613055616555565b613060939193610402565b93849384613008565b0390f35b610408565b346130a257613082366004610497565b61309e61308d616962565b613095610402565b918291826104b6565b0390f35b610408565b5f80fd5b5f7f4d6f64756c653a20557365204945546f757247616d6500000000000000000000910152565b6130df601660209261253e565b6130e8816130ab565b0190565b6131019060208101905f8183039101526130d2565b90565b61310c610402565b62461bcd60e51b815280613122600482016130ec565b0390fd5b5f90565b5490565b90565b61314561314061314a9261312e565b610664565b6104a6565b90565b90565b61316461315f6131699261314d565b610664565b6104a6565b90565b5f5260205f2090565b61317e8161312a565b8210156131985761319060019161316c565b910201905f90565b610f08565b6131a5613126565b506131b0600561312a565b6131c26131bc5f613131565b916104a6565b1461321f576131d16004610794565b6131ec6131e66131e1600561312a565b6104a6565b916104a6565b106131fe576131fb6006610794565b90565b61321c61321660056132106004610794565b90613175565b906118af565b90565b6132306729a2241af62c0000613150565b90565b90565b61324a61324561324f92613233565b610664565b6104a6565b90565b634e487b7160e01b5f52601160045260245ffd5b61327561327b919392936104a6565b926104a6565b916132878382026104a6565b92818404149015171561329657565b613252565b90565b6132b26132ad6132b79261329b565b610664565b6104a6565b90565b634e487b7160e01b5f52601260045260245ffd5b6132da6132e0916104a6565b916104a6565b9081156132eb570490565b6132ba565b6132f8613126565b50613327613317613307616980565b6133116005613236565b90613266565b613321606461329e565b906132ce565b90565b5f90565b61333661332a565b5061333f610402565b62461bcd60e51b815280613355600482016130ec565b0390fd5b5f90565b90565b6133806133859161336f613359565b50613378613359565b506015612330565b61335d565b9061339d60016133965f85016107c0565b93016107c0565b90565b5f90565b90565b916133dd6133e2926133d86133e7956133be6133a0565b506133c76133a0565b506133d061332a565b50600b612df9565b612e0f565b612e25565b6133a4565b906133f35f83016106ce565b9061340a5f6134038186016106f5565b9401612e4f565b91929190565b613418610402565b62461bcd60e51b81528061342e600482016130ec565b0390fd5b90565b61344961344461344e9261312e565b610664565b6105ba565b90565b61345a90613435565b90565b61346c613472919392936104a6565b926104a6565b820391821161347d57565b613252565b90565b9061348f90610667565b5f5260205260405f2090565b90565b6134ad6134b3919392936104a6565b926104a6565b82018092116134be57565b613252565b926134cc61332a565b506134f55f6134ef6134ea6134e360088990610683565b8690610699565b613432565b01610722565b6135086135026001610a8e565b91610a8e565b036136cd5761351b928492909192616a79565b61352f61352a60158390612330565b61335d565b9061353b5f83016107c0565b61355561354f61354a5f613451565b6105c5565b916105c5565b1480156136a6575b61369f576135774261357160088501610794565b9061345d565b613583600384016107c0565b61359f6135996135945f87016107c0565b6105c5565b916105c5565b145f14613688576135c46135be6135b860098601610794565b5b6104a6565b916104a6565b10613681576135d76135dc916014611af0565b613482565b916135f26135ec60028501611b1a565b15610579565b61361b57505061361661361061360b6001429401610794565b6104a6565b916104a6565b101590565b61366992506003600261365b613648600861364161363c6136639786613485565b61349b565b9601610794565b6136555f84880101610794565b9061349e565b930101610794565b9061349e565b61367c61367642926104a6565b916104a6565b101590565b5050505f90565b6135c46135be61369a600a8601610794565b6135b9565b5050505f90565b506136b360048301612360565b6136c66136c060016122f1565b916122f1565b141561355d565b505050505f90565b6136e16136e6916106af565b6107d3565b90565b6136f390546136d5565b90565b6136ff90610eda565b90565b61370b90610ebe565b90565b61371790613702565b90565b61372e6137296137339261312e565b610664565b610414565b90565b61373f90610414565b60ff811461374d5760010190565b613252565b600161375e9101610414565b90565b61376a90610eda565b90565b60e01b90565b9050519061378082610cc8565b565b9050519061378f82612f23565b565b6003111561379b57565b5f80fd5b905051906137ac82613791565b565b90916060828403126137e3576137e06137c9845f8501613773565b936137d78160208601613782565b9360400161379f565b90565b61040c565b6137f0610402565b3d5f823e3d90fd5b90565b61380f61380a613814926137f8565b610664565b610414565b90565b61382361382991610414565b91610414565b019060ff821161383557565b613252565b9190604083820312613862578061385661385f925f8601613773565b93602001613773565b90565b61040c565b92919061387261332a565b506138a461389e61389961389261388b600a8990611029565b859061103f565b8690611055565b6136e9565b15610579565b613c18576138bc6138b7949294306136f6565b61370e565b916138c65f61371a565b905b816138db6138d588610414565b91610414565b11613a4b576139086139036138fc6138f5600b8590612df9565b8690612e0f565b8490612e25565b6133a4565b956139125f61371a565b5b8061393061392a6139255f8c016106ce565b610414565b91610414565b1015613a37576139796060613949858888908692616a79565b61395289613761565b61396e6397556f67613962610402565b9586948593849361376d565b8352600483016115a2565b03915afa8015613a32575f8080939092613a00575b5090916139a461399e60026122f1565b916122f1565b1490816139e5575b5090816139d4575b506139c7576139c290613752565b613913565b5050505050505050600190565b6139df915015610579565b5f6139b4565b90506139f96139f38a6105c5565b916105c5565b145f6139ac565b915050613a24915060603d8111613a2b575b613a1c8183610905565b8101906137ae565b915f61398e565b503d613a12565b6137e8565b5091613a44919650613736565b90946138c8565b9050613a75613a64613a5f60028490613485565b61349b565b95613a6f60016137fb565b90613817565b905b81613a95613a8f613a8a60088a016106ce565b610414565b91610414565b1015613c0e57613ac3613abe613ab7613ab0600b8590612df9565b8690612e0f565b8490612e25565b6133a4565b95613ad8613ad25f8901612e4f565b15610579565b613c0257613ae55f61371a565b5b80613b03613afd613af85f8c016106ce565b610414565b91610414565b1015613bed57613b4c6040613b1c858888908692616a79565b613b2589613761565b613b41631ec3b8ad613b35610402565b9586948593849361376d565b8352600483016115a2565b03915afa8015613be8575f80929091613bb7575b50613b73613b6d8a6105c5565b916105c5565b14908115613b9c575b50613b8f57613b8a90613752565b613ae6565b5050505050505050600190565b9050613bb0613baa896105c5565b916105c5565b145f613b7c565b9050613bda915060403d8111613be1575b613bd28183610905565b81019061383a565b905f613b60565b503d613bc8565b6137e8565b5091613bfb9196505b613752565b9094613a77565b91613bfb919650613bf6565b5050505050505f90565b505050505f90565b613c28610402565b62461bcd60e51b815280613c3e600482016130ec565b0390fd5b613c4a613126565b50613c53610402565b62461bcd60e51b815280613c69600482016130ec565b0390fd5b613c75616af2565b613f9e565b5f7f4d41000000000000000000000000000000000000000000000000000000000000910152565b613cae600260209261253e565b613cb781613c7a565b0190565b613cd09060208101905f818303910152613ca1565b90565b15613cda57565b613ce2610402565b62461bcd60e51b815280613cf860048201613cbb565b0390fd5b5f7f4e50000000000000000000000000000000000000000000000000000000000000910152565b613d30600260209261253e565b613d3981613cfc565b0190565b613d529060208101905f818303910152613d23565b90565b15613d5c57565b613d64610402565b62461bcd60e51b815280613d7a60048201613d3d565b0390fd5b5f7f4f54000000000000000000000000000000000000000000000000000000000000910152565b613db2600260209261253e565b613dbb81613d7e565b0190565b613dd49060208101905f818303910152613da5565b90565b15613dde57565b613de6610402565b62461bcd60e51b815280613dfc60048201613dbf565b0390fd5b5f7f544f000000000000000000000000000000000000000000000000000000000000910152565b613e34600260209261253e565b613e3d81613e00565b0190565b613e569060208101905f818303910152613e27565b90565b15613e6057565b613e68610402565b62461bcd60e51b815280613e7e60048201613e41565b0390fd5b604090613eab613eb29496959396613ea160608401985f850190611595565b6020830190610a72565b01906104a9565b565b67ffffffffffffffff8111613ed257613ece6020916108e7565b0190565b6108f1565b90613ee9613ee483613eb4565b61092e565b918252565b606090565b3d5f14613f0e57613f033d613ed7565b903d5f602084013e5b565b613f16613eee565b90613f0c565b5f7f4d53000000000000000000000000000000000000000000000000000000000000910152565b613f50600260209261253e565b613f5981613f1c565b0190565b613f729060208101905f818303910152613f43565b90565b15613f7c57565b613f84610402565b62461bcd60e51b815280613f9a60048201613f5d565b0390fd5b9290926141265f80613fb4848888908892616a79565b6140b4613fcb613fc660158490612330565b61335d565b613ff3613fda60048301612360565b613fed613fe760016122f1565b916122f1565b14613cd3565b3361401061400a6140058785016107c0565b6105c5565b916105c5565b148015614146575b61402190613d55565b6140493361404261403c614037600386016107c0565b6105c5565b916105c5565b1415613dd7565b6140ad6140a76140654261405f60088601610794565b9061345d565b92614072600382016107c0565b61408e6140886140838a85016107c0565b6105c5565b916105c5565b1487146141355760096140a19101610794565b5b6104a6565b916104a6565b1015613e59565b7f00000000000000000000000000000000000000000000000000000000000000009061410f8691614100426140e7610402565b94859360046020860163501fd27160e11b815201613e82565b60208201810382520382610905565b602081019051915af4614120613ef3565b50613f75565b92919033915f93600195616b7b565b600a6141419101610794565b6140a2565b506140213361416861416261415d600186016107c0565b6105c5565b916105c5565b149050614018565b613c6d565b5f90565b6141c2916141b86141bd9261418c614175565b506141956133a0565b5061419e6133a0565b506141a7613126565b506141b0613359565b506008610683565b610699565b613432565b906141ce5f8301610722565b916141da5f8201610749565b926141e65f8301610770565b926141ff60036141f860018601610794565b94016107c0565b919493929190565b606090565b67ffffffffffffffff81116142245760208091020190565b6108f1565b9061423b6142368361420c565b61092e565b918252565b61424a604061092e565b90565b5f90565b5f90565b61425d614240565b906020808361426a61424d565b815201614275614251565b81525050565b614283614255565b90565b5f5b82811061429457505050565b60209061429f61427b565b8184015201614288565b906142ce6142b683614229565b926020806142c4869361420c565b9201910390614286565b565b60016142dc91016104a6565b90565b6142eb6142f0916106af565b6117fb565b90565b6142fd90546142df565b90565b61430a604061092e565b90565b90614317906105c5565b9052565b906143259061183d565b9052565b9061433382611901565b811015614344576020809102010190565b610f08565b614351614207565b5061436461435f60126116f8565b6142a9565b61436d5f613131565b5b8061438a61438461437f60126116f8565b6104a6565b916104a6565b10156144135761440e906144076143ac6143a660128490611705565b90611745565b6143f46143d76143d260116143cc6143c660128990611705565b90611745565b906117e5565b6142f3565b6143eb6143e2614300565b935f850161430d565b6020830161431b565b8483916144018383614329565b52614329565b51506142d0565b61436e565b5090565b5f7f4e6f20706c617965727320617661696c61626c65000000000000000000000000910152565b61444b601460209261253e565b61445481614417565b0190565b61446d9060208101905f81830391015261443e565b90565b1561447757565b61447f610402565b62461bcd60e51b81528061449560048201614458565b0390fd5b5f7f4172726179206c656e677468206d69736d617463680000000000000000000000910152565b6144cd601560209261253e565b6144d681614499565b0190565b6144ef9060208101905f8183039101526144c0565b90565b156144f957565b614501610402565b62461bcd60e51b815280614517600482016144da565b0390fd5b61452761452d916104a6565b916104a6565b908115614538570690565b6132ba565b90614547826120e8565b811015614558576020809102010190565b610f08565b61456790516104a6565b90565b906145748261206e565b811015614585576020809102010190565b610f08565b61459490516105c5565b90565b6145ab6145a66145b0926137f8565b610664565b6104a6565b90565b9161461791936145c1613359565b506145e66145ce8561206e565b6145e06145da5f613131565b916104a6565b11614470565b6146126145f28561206e565b61460c614606614601896120e8565b6104a6565b916104a6565b146144f2565b61451b565b6146205f613131565b6146295f613131565b905b8161464661464061463b8761206e565b6104a6565b916104a6565b10156146aa576146699061466361465e87859061453d565b61455d565b9061349e565b908261467d614677846104a6565b916104a6565b106146915761468b906142d0565b9061462b565b9150506146a792506146a29161456a565b61458a565b90565b5050506146dd91506146d8906146d26146c28261206e565b6146cc6001614597565b9061345d565b9061456a565b61458a565b90565b6146e861332a565b506146f281613360565b5050614b4e565b90565b61471061470b614715926146f9565b610664565b6104a6565b90565b90565b61472f61472a61473492614718565b610664565b6104a6565b90565b61473f613126565b5061474861332a565b50614751613126565b5061475a613126565b50614763613126565b5061476c613126565b50614775613126565b5061477e613126565b50614787613126565b506147926004610794565b9061479d6003610794565b6147a5616980565b6147cc6147bc826147b66005613236565b90613266565b6147c6606461329e565b906132ce565b826147df6147d9846104a6565b916104a6565b1015936147ed83839061345d565b90614815614805836147ff6005613236565b90613266565b61480f605f6146fc565b906132ce565b9061483d61482d84614827605a61471b565b90613266565b614837605f6146fc565b906132ce565b90614846616b98565b90565b5f90565b614855614849565b5061486a614865601133906117e5565b6142f3565b90565b606090565b606090565b90565b60209181520190565b61488d90546107ac565b90565b60010190565b906148b36148ad6148a6846116f8565b809361487a565b926116fc565b905f5b8181106148c35750505090565b9091926148e36148dd6001926148d887614883565b612081565b94614890565b91019190916148b6565b906148f791614896565b90565b9061491a6149139261490a610402565b938480926148ed565b0383610905565b565b614925906148fa565b90565b60209181520190565b61493b9054610780565b90565b60010190565b9061496161495b6149548461312a565b8093614928565b9261316c565b905f5b8181106149715750505090565b90919261499161498b60019261498687614931565b6120fb565b9461493e565b9101919091614964565b906149a591614944565b90565b906149c86149c1926149b8610402565b9384809261499b565b0383610905565b565b6149d3906149a8565b90565b614a35614a3a916149e5613359565b506149ee613126565b506149f7613126565b50614a0061486d565b50614a09614872565b50614a12613359565b50614a1b613126565b50614a24613126565b50614a2d613126565b5060076111f3565b614877565b90614a465f83016107c0565b90614a5360018401610794565b92614a6060028201610794565b9260038201926004830192614a77600582016107c0565b92614a8460068301610794565b92614ab2614aac614aa36008614a9c60078801610794565b9601610794565b939a999861491c565b966149ca565b9493929190565b5f1b90565b90614acf60018060a01b0391614ab9565b9181191691161790565b90565b90614af1614aec614af892610ee6565b614ad9565b8254614abe565b9055565b614b0a614b0f916015612330565b61335d565b90614b22614b1c5f61371a565b91610414565b145f14614b38575f614b35929101614adc565b5b565b6001614b45929101614adc565b614b36565b5f90565b614b56613359565b50614b5f61332a565b50614b68614b4a565b50614b71610402565b62461bcd60e51b815280614b87600482016130ec565b0390fd5b90565b614ba2614b9d614ba792614b8b565b610664565b6104a6565b90565b90614bbc614bb783611bee565b61092e565b918252565b369037565b90614beb614bd383614baa565b92602080614be18693611bee565b9201910390614bc1565b565b90565b5490565b5f5260205f2090565b614c0681614bf0565b821015614c2057614c18600191614bf4565b910201905f90565b610f08565b614c2e906104a6565b5f198114614c3c5760010190565b613252565b90614c53614c4e83611c89565b61092e565b918252565b369037565b90614c82614c6a83614c41565b92602080614c788693611c89565b9201910390614c58565b565b614c8c61486d565b50614c95614872565b50614c9e613126565b50614cb2614cad6103e8614b8e565b614bc6565b90614cbc5f613131565b614cc55f613131565b614cce5f61371a565b5b80614ceb614ce5614ce060016106ce565b610414565b91610414565b1015614f0c57614d05614d0060028390613485565b61349b565b93614d0f5f61371a565b5b80614d2d614d27614d225f8a016106f5565b610414565b91610414565b1015614efb57614d51614d4c614d4560088690610683565b8390610699565b613432565b614d5c5f8201610722565b614d6e614d685f610a8e565b91610a8e565b14908115614ed5575b50614d8b575b614d8690613752565b614d10565b614db0614dab614da46009999599989794988a906116cc565b83906116e2565b614bed565b90614dba5f613131565b955b86614dd7614dd1614dcc86614bf0565b6104a6565b916104a6565b1015614ec257614df1614deb848990614bfd565b90611745565b985f98614dfd5f613131565b5b80614e11614e0b896104a6565b916104a6565b1015614eb2578b614e3d614e37614e31614e2c8c869061456a565b61458a565b926105c5565b916105c5565b14614e5057614e4b906142d0565b614dfe565b5097969199909850614e6460015b15610579565b614e84575b50614e76614e7c91614c25565b956142d0565b959697614dbc565b614eaa614e7c9295614ea5614e7693614ea08a9184909261456a565b61430d565b614c25565b949150614e69565b50979691999098614e6490614e5e565b96929550614d8691509692969050614d7d565b614ee191505f01610722565b614ef4614eee6001610a8e565b91610a8e565b145f614d77565b509350614f0790613752565b614ccf565b509091614f1883614bc6565b614f2184614c5d565b93614f2b5f613131565b955b86614f40614f3a846104a6565b916104a6565b10156151195794909293614f72614f60614f5b888a9061456a565b61458a565b614f6d85918a909261456a565b61430d565b614f7b5f613131565b94614f855f61371a565b945b85614fa3614f9d614f9860016106ce565b610414565b91610414565b10156150e657614fbd614fb860028890613485565b61349b565b97614fc75f61371a565b5b89614fe6614fe0614fdb5f8594016106f5565b610414565b91610414565b10156150cc57878b61500c61500761500060088590610683565b8590610699565b613432565b6150175f8201610722565b6150296150235f610a8e565b91610a8e565b149081156150a6575b509182615064575b505061504f575b61504a90613752565b614fc8565b9761505c61504a91614c25565b989050615041565b61509f92509061509461508f61508861508161509a95600a611029565b879061103f565b928c61456a565b61458a565b90611055565b6136e9565b8b8961503a565b6150b291505f01610722565b6150c56150bf6001610a8e565b91610a8e565b145f615032565b509291956150dc91949850613752565b9490919692614f87565b9790929561510d929497955061510890615103889184909261453d565b610875565b6142d0565b95909294919394614f2d565b505090919350919291929190565b606090565b67ffffffffffffffff81116151445760208091020190565b6108f1565b9061515b6151568361512c565b61092e565b918252565b9061516a90610414565b9052565b615178604061092e565b90565b906151b16151a85f61518b61516e565b946151a261519a8383016106ce565b838801615160565b016106f5565b60208401615160565b565b6151bc9061517b565b90565b906151c982610f1c565b6151d281615149565b926151e06020850191610f20565b5f915b8383106151f05750505050565b6001602081926151ff856151b3565b8152019201920191906151e3565b615216906151bf565b90565b61523061523591615228615127565b506016610ef2565b61520d565b90565b61524f61525491615247615127565b506018610ef2565b61520d565b90565b61525f61332a565b506152695f61371a565b905b8161528761528161527c60016106ce565b610414565b91610414565b1015615395576152a161529c60028490613485565b61349b565b916152ab5f61371a565b5b806152c96152c36152be5f88016106f5565b610414565b91610414565b1015615383576152ed6152e86152e160088590610683565b8390610699565b613432565b6152f85f8201610722565b61530a6153045f610a8e565b91610a8e565b1490811561535d575b50615327575b61532290613752565b6152ac565b61534f61534a61534361533c600a8690611029565b849061103f565b8590611055565b6136e9565b156153195750505050600190565b61536991505f01610722565b61537c6153766001610a8e565b91610a8e565b145f615313565b5061538f919250613752565b9061526b565b50505f90565b6153a3610402565b62461bcd60e51b8152806153b9600482016130ec565b0390fd5b6153c86101a061092e565b90565b5f90565b5f90565b5f90565b5f90565b6020908180808080808080808080806153f26153bd565b9d8e6153fc61424d565b81520161540761424d565b81520161541261424d565b81520161541d61424d565b8152016154286153cb565b8152016154336153cf565b81520161543e6153d3565b8152016154496153d3565b8152016154546153d7565b81520161545f6153d7565b81520161546a6153d7565b8152016154756153d7565b8152016154806153cf565b81525050565b61548e6153db565b90565b61549c6101a061092e565b90565b906154a9906122f1565b9052565b906154b790610579565b9052565b6154d56154da919592956154cd615486565b506015612330565b61335d565b926154e45f613451565b926154fa6154f460048701610814565b15610579565b80615684575b615630575b845f01615511906107c0565b958560010161551f906107c0565b958060020161552d906107c0565b958160040161553b90612360565b8260040161554890610814565b918360070161555690610794565b9360080161556390610794565b94959697985f9a615572615491565b9c5f8e01906155809161430d565b60208d019061558e9161430d565b60408c019061559c9161430d565b60608b01906155aa9161430d565b60808a01906155b89161549f565b60a08901906155c6916154ad565b60c08801906155d491610875565b60e08701906155e291610875565b6101008601906155f191615160565b61012085019061560091615160565b61014084019061560f91615160565b61016083019061561e91615160565b61018082019061562d916154ad565b90565b925061563e600285016107c0565b61565a61565461564f5f88016107c0565b6105c5565b916105c5565b145f146156745761566d600185016107c0565b5b92615505565b61567f5f85016107c0565b61566e565b50615691600286016107c0565b6156ab6156a56156a05f613451565b6105c5565b916105c5565b1415615500565b5f7f4500000000000000000000000000000000000000000000000000000000000000910152565b6156e6600160209261253e565b6156ef816156b2565b0190565b6157089060208101905f8183039101526156d9565b90565b1561571257565b61571a610402565b62461bcd60e51b815280615730600482016156f3565b0390fd5b61575261574d61574660088490610683565b8490610699565b613432565b61575d5f8201610722565b6157d35f807f0000000000000000000000000000000000000000000000000000000000000000866157bc89916157ad615794610402565b93849260046020850163e6c455f560e01b815201610f95565b60208201810382520382610905565b602081019051915af46157cd613ef3565b5061570b565b6157df83853391616df6565b6157f16157eb5f610a8e565b91610a8e565b14908161581d575b50615802575050565b61580d818390616e05565b906158175f61371a565b91613104565b61582991505f01610722565b61583c6158366001610a8e565b91610a8e565b145f6157f9565b5f7f4653000000000000000000000000000000000000000000000000000000000000910152565b615877600260209261253e565b61588081615843565b0190565b6158999060208101905f81830391015261586a565b90565b156158a357565b6158ab610402565b62461bcd60e51b8152806158c160048201615884565b0390fd5b5f7f5254000000000000000000000000000000000000000000000000000000000000910152565b6158f9600260209261253e565b615902816158c5565b0190565b61591b9060208101905f8183039101526158ec565b90565b1561592557565b61592d610402565b62461bcd60e51b81528061594360048201615906565b0390fd5b9061596661596161595a60088590610683565b8390610699565b613432565b916159725f8401610722565b6159e85f807f0000000000000000000000000000000000000000000000000000000000000000856159d188916159c26159a9610402565b93849260046020850163ea2b1d7360e01b815201610f95565b60208201810382520382610905565b602081019051915af46159e2613ef3565b5061589c565b806159fb6159f55f610a8e565b91610a8e565b1480615b2e575b615b1257615a18615a125f610a8e565b91610a8e565b1480615aed575b615a29575b505050565b615a386003615ae594016107c0565b90615a67615a4e615a496001614597565b614bc6565b92615a6284615a5c5f613131565b9061456a565b61430d565b615add5f807f000000000000000000000000000000000000000000000000000000000000000084615ac68891615ab7615a9e610402565b9384926004602085016357f7cf7160e01b815201610f95565b60208201810382520382610905565b602081019051915af4615ad7613ef3565b5061591e565b919091616e90565b5f8080615a24565b50615af95f8401610722565b615b0c615b066002610a8e565b91610a8e565b14615a1f565b50615b1e818390616e05565b90615b285f61371a565b91613104565b50615b3a5f8501610722565b615b4d615b476001610a8e565b91610a8e565b14615a02565b92615b5c61332a565b50615b855f615b7f615b7a615b7360088990610683565b8690610699565b613432565b01610722565b615b98615b926001610a8e565b91610a8e565b03615d5b57615bab928492909192616a79565b615bbf615bba60158390612330565b61335d565b90615bcb5f83016107c0565b615be5615bdf615bda5f613451565b6105c5565b916105c5565b148015615d34575b615d2d57615c0742615c0160088501610794565b9061345d565b615c13600384016107c0565b615c2f615c29615c245f87016107c0565b6105c5565b916105c5565b145f14615d1657615c54615c4e615c4860098601610794565b5b6104a6565b916104a6565b10615d0f57615c67615c6c916014611af0565b613482565b91615c82615c7c60028501611b1a565b15610579565b615caa575050615ca5615c9f615c9a5f429401610794565b6104a6565b916104a6565b101590565b615cf79250600280615ce9615cd66008615ccf615cca615cf19786613485565b61349b565b9601610794565b615ce35f84880101610794565b9061349e565b930101610794565b9061349e565b615d0a615d0442926104a6565b916104a6565b101590565b5050505f90565b615c54615c4e615d28600a8601610794565b615c49565b5050505f90565b50615d4160048301612360565b615d54615d4e60016122f1565b916122f1565b1415615bed565b505050505f90565b615d6b610402565b62461bcd60e51b815280615d81600482016130ec565b0390fd5b5f7f526166666c65207468726573686f6c64206e6f74206d65740000000000000000910152565b615db9601860209261253e565b615dc281615d85565b0190565b615ddb9060208101905f818303910152615dac565b90565b15615de557565b615ded610402565b62461bcd60e51b815280615e0360048201615dc6565b0390fd5b60207f7220726166666c65000000000000000000000000000000000000000000000000917f4f6e6c7920656e726f6c6c656420706c61796572732063616e207472696767655f8201520152565b615e61602860409261253e565b615e6a81615e07565b0190565b615e839060208101905f818303910152615e54565b90565b15615e8d57565b615e95610402565b62461bcd60e51b815280615eab60048201615e6e565b0390fd5b90615ebb5f1991614ab9565b9181191691161790565b90565b90615edd615ed8615ee4926111d7565b615ec5565b8254615eaf565b9055565b5f7f4e6f20656c696769626c6520706c617965727320666f7220726166666c650000910152565b615f1c601e60209261253e565b615f2581615ee8565b0190565b615f3e9060208101905f818303910152615f0f565b90565b15615f4857565b615f50610402565b62461bcd60e51b815280615f6660048201615f29565b0390fd5b90565b615f79615f7e916104a6565b615f6a565b9052565b60601b90565b615f9190615f82565b90565b615f9d90615f88565b90565b615fac615fb1916105c5565b615f94565b9052565b6020615ff794615fe782601496615fdf8287615fd7615fef99839f9e9b615f6d565b018092615f6d565b018092615f6d565b018092615fa0565b018092615f6d565b0190565b60200190565b5190565b616011616016916106af565b6111d7565b90565b909594926160649461605361605d9261604960809661603f60a088019c5f8901906104a9565b60208701906104a9565b60408501906104a9565b60608301906104a9565b01906104a9565b565b61607161012061092e565b90565b52565b52565b634e487b7160e01b5f525f60045260245ffd5b5190565b600190818003010490565b1b90565b919060086160bb9102916160b55f198461609c565b9261609c565b9181191691161790565b91906160db6160d66160e3936111d7565b615ec5565b9083546160a0565b9055565b6160f9916160f3613126565b916160c5565b565b5b818110616107575050565b806161145f6001936160e7565b016160fc565b9091828110616129575b505050565b61614761614161613b61615295616091565b92616091565b926116fc565b9182019101906160fb565b5f8080616124565b906801000000000000000081116161835781616178616181936116f8565b9082815561611a565b565b6108f1565b6161918261206e565b9167ffffffffffffffff83116161f4576161bf6161b96001926161b4868661615a565b61207b565b926116fc565b9204915f5b8381106161d15750505050565b60019060206161e76161e28661458a565b614ad9565b94019381840155016161c4565b6108f1565b9061620391616188565b565b5190565b600190818003010490565b5b818110616220575050565b8061622d5f6001936160e7565b01616215565b9091828110616242575b505050565b61626061625a61625461626b95616209565b92616209565b9261316c565b918201910190616214565b5f808061623d565b9068010000000000000000811161629c578161629161629a9361312a565b90828155616233565b565b6108f1565b6162aa826120e8565b9167ffffffffffffffff831161630d576162d86162d26001926162cd8686616273565b6120f5565b9261316c565b9204915f5b8381106162ea5750505050565b60019060206163006162fb8661455d565b615ec5565b94019381840155016162dd565b6108f1565b9061631c916162a1565b565b906163f961010060086163ff946163425f820161633c5f880161458a565b90614adc565b61635b600182016163556020880161455d565b90615ec8565b6163746002820161636e6040880161455d565b90615ec8565b61638d600382016163876060880161608d565b906161f9565b6163a6600482016163a060808801616205565b90616312565b6163bf600582016163b960a0880161458a565b90614adc565b6163d8600682016163d260c0880161455d565b90615ec8565b6163f1600782016163eb60e0880161455d565b90615ec8565b01920161455d565b90615ec8565b565b9061640b9161631e565b565b61641690610ebe565b90565b6164229061640d565b90565b61642e90610eda565b90565b905090565b6164415f8092616431565b0190565b61644e90616436565b90565b5f7f4661696c656420746f2073656e64206f776e6572207368617265000000000000910152565b616485601a60209261253e565b61648e81616451565b0190565b6164a79060208101905f818303910152616478565b90565b156164b157565b6164b9610402565b62461bcd60e51b8152806164cf60048201616492565b0390fd5b5f7f4661696c656420746f2073656e642077696e6e65722073686172650000000000910152565b616507601b60209261253e565b616510816164d3565b0190565b6165299060208101905f8183039101526164fa565b90565b1561653357565b61653b610402565b62461bcd60e51b81528061655160048201616514565b0390fd5b61655d613359565b50616566613126565b5061656f613126565b506165d56165c561657e616980565b6165a461658b6003610794565b61659d616597846104a6565b916104a6565b1015615dde565b6165b56165b033616f0e565b615e86565b6165bf6005613236565b90613266565b6165cf606461329e565b906132ce565b6165e96165e26003610794565b829061345d565b916166066165ff6165fa6004610794565b614c25565b6004615ec8565b61662d61661d846166176005613236565b90613266565b616627605f6146fc565b906132ce565b906166ec61665861664886616642605a61471b565b90613266565b616652605f6146fc565b906132ce565b94616664856003615ec8565b61666c617052565b929193909261668d816166876166815f613131565b916104a6565b11615f41565b6166e1446166c942916166ba43336166a56003610794565b916166ae610402565b96879560208701615fb5565b60208201810382520382610905565b6166db6166d582616001565b91615ffb565b20616005565b8591859091926174f5565b926166f65f613131565b966167005f613131565b5b8061671c6167166167118661206e565b6104a6565b916104a6565b10156169555761673561673084839061456a565b61458a565b616747616741886105c5565b916105c5565b1461675a57616755906142d0565b616701565b849596979850616770906167759293949561453d565b61455d565b5b6167806004610794565b863391868b8d916167916003610794565b967f708a7ed1276a8aaed61afe80b136a50502b1463afbb24878396bde780d772629946167bd906111d7565b956167c790610ee6565b966167d190610ee6565b976167da610402565b9485946167e79486616019565b0390a433934293826167f89161349e565b929086918a93948a96616809616066565b985f8a01906168179161430d565b602089019061682591610875565b604088019061683391610875565b606087019061684191616074565b608086019061684f91616077565b60a085019061685d9161430d565b60c084019061686b91610875565b60e083019061687991610875565b61010082019061688891610875565b60076168946004610794565b61689d916111f3565b906168a791616401565b7f00000000000000000000000000000000000000000000000000000000000000006168d190616419565b6168da90616425565b83906168e4610402565b806168ee81616445565b03905a935f94938594f1616900613ef3565b5061690a906164aa565b8061691490616419565b61691d90616425565b8490616927610402565b8061693181616445565b03905a935f94938594f1616943613ef3565b5061694d9061652c565b919291929190565b5090919293949596616776565b61696a613126565b5061697d616976617052565b505061206e565b90565b616988613126565b50616993600561312a565b6169a561699f5f613131565b916104a6565b14616a02576169b46004610794565b6169cf6169c96169c4600561312a565b6104a6565b916104a6565b106169e1576169de6006610794565b90565b6169ff6169f960056169f36004610794565b90613175565b906118af565b90565b616a136729a2241af62c0000613150565b90565b5f90565b60f81b90565b616a2990616a1a565b90565b616a38616a3d91610414565b616a20565b9052565b92616a6d6001616a7594616a658288616a5d829b9a8399616a2c565b018092616a2c565b018092616a2c565b018092616a2c565b0190565b616ab09293616aa191616a8a616a16565b509294616a95610402565b95869460208601616a41565b60208201810382520382610905565b616ac2616abc82616001565b91615ffb565b2090565b90565b616add616ad8616ae292616ac6565b610664565b6104a6565b90565b616aef6002616ac9565b90565b616afb5f610794565b616b14616b0e616b09616ae5565b6104a6565b916104a6565b14616b2c57616b2a616b24616ae5565b5f615ec8565b565b5f633ee5aeb560e01b815280616b4460048201610477565b0390fd5b60081b90565b90616b5b61ff0091616b48565b9181191691161790565b90616b7160ff91614ab9565b9181191691161790565b909550616b8c818784908692616a79565b509490919293946176c7565b616ba0613126565b50616bb4616baf6103e8614b8e565b614bc6565b90616bbe5f613131565b91616bc85f61371a565b5b80616be5616bdf616bda60016106ce565b610414565b91610414565b1015616df257616bff616bfa60028390613485565b61349b565b92616c095f61371a565b5b80616c27616c21616c1c5f89016106f5565b610414565b91610414565b1015616de157616c4b616c46616c3f60088690610683565b8390610699565b613432565b616c565f8201610722565b616c68616c625f610a8e565b91610a8e565b14908115616dbb575b50616c85575b616c8090613752565b616c0a565b616ca7616ca2616c9b60099895949885906116cc565b83906116e2565b614bed565b90616cb15f613131565b955b86616cce616cc8616cc386614bf0565b6104a6565b916104a6565b1015616da957616ce8616ce2848990614bfd565b90611745565b935f98616cf45f613131565b5b80616d08616d028a6104a6565b916104a6565b1015616d9a57616d21616d1c8a839061456a565b61458a565b616d33616d2d896105c5565b916105c5565b14616d4657616d41906142d0565b616cf5565b50979194909850616d5960015b15610579565b616d70575b50616d68906142d0565b959692616cb3565b616d689195616d8e616d9392616d898a9184909261456a565b61430d565b614c25565b9490616d5e565b509791949098616d5990616d53565b9550616c809150959192959050616c77565b616dc791505f01610722565b616dda616dd46001610a8e565b91610a8e565b145f616c71565b509250616ded90613752565b616bc9565b5050565b90616e039291909161783d565b565b9190616e25616e20616e19600986906116cc565b83906116e2565b614bed565b616e2e5f613131565b5b80616e4a616e44616e3f85614bf0565b6104a6565b916104a6565b1015616e8957616e8490616e7f616e6b616e65858490614bfd565b90611745565b616e778189889161795d565b878691617ac5565b6142d0565b616e2f565b5050509050565b9291616e9b5f613131565b5b80616eb7616eb1616eac8561206e565b6104a6565b916104a6565b1015616f0757616f0290616edf616ed7616ed285849061456a565b61458a565b87869161795d565b616efd616ef5616ef085849061456a565b61458a565b878691617b84565b6142d0565b616e9c565b5050509050565b616f1661332a565b50616f205f61371a565b905b81616f3e616f38616f3360016106ce565b610414565b91610414565b101561704c57616f58616f5360028490613485565b61349b565b91616f625f61371a565b5b80616f80616f7a616f755f88016106f5565b610414565b91610414565b101561703a57616fa4616f9f616f9860088590610683565b8390610699565b613432565b616faf5f8201610722565b616fc1616fbb5f610a8e565b91610a8e565b14908115617014575b50616fde575b616fd990613752565b616f63565b617006617001616ffa616ff3600a8690611029565b849061103f565b8590611055565b6136e9565b15616fd05750505050600190565b61702091505f01610722565b61703361702d6001610a8e565b91610a8e565b145f616fca565b50617046919250613752565b90616f22565b50505f90565b61705a61486d565b50617063614872565b5061706c613126565b5061708061707b6103e8614b8e565b614bc6565b9061708a5f613131565b6170935f613131565b61709c5f61371a565b5b806170b96170b36170ae60016106ce565b610414565b91610414565b10156172da576170d36170ce60028390613485565b61349b565b936170dd5f61371a565b5b806170fb6170f56170f05f8a016106f5565b610414565b91610414565b10156172c95761711f61711a61711360088690610683565b8390610699565b613432565b61712a5f8201610722565b61713c6171365f610a8e565b91610a8e565b149081156172a3575b50617159575b61715490613752565b6170de565b61717e6171796171726009999599989794988a906116cc565b83906116e2565b614bed565b906171885f613131565b955b866171a561719f61719a86614bf0565b6104a6565b916104a6565b1015617290576171bf6171b9848990614bfd565b90611745565b985f986171cb5f613131565b5b806171df6171d9896104a6565b916104a6565b1015617280578b61720b6172056171ff6171fa8c869061456a565b61458a565b926105c5565b916105c5565b1461721e57617219906142d0565b6171cc565b509796919990985061723260015b15610579565b617252575b5061724461724a91614c25565b956142d0565b95969761718a565b61727861724a92956172736172449361726e8a9184909261456a565b61430d565b614c25565b949150617237565b509796919990986172329061722c565b969295506171549150969296905061714b565b6172af91505f01610722565b6172c26172bc6001610a8e565b91610a8e565b145f617145565b5093506172d590613752565b61709d565b5090916172e683614bc6565b6172ef84614c5d565b936172f95f613131565b955b8661730e617308846104a6565b916104a6565b10156174e7579490929361734061732e617329888a9061456a565b61458a565b61733b85918a909261456a565b61430d565b6173495f613131565b946173535f61371a565b945b8561737161736b61736660016106ce565b610414565b91610414565b10156174b45761738b61738660028890613485565b61349b565b976173955f61371a565b5b896173b46173ae6173a95f8594016106f5565b610414565b91610414565b101561749a57878b6173da6173d56173ce60088590610683565b8590610699565b613432565b6173e55f8201610722565b6173f76173f15f610a8e565b91610a8e565b14908115617474575b509182617432575b505061741d575b61741890613752565b617396565b9761742a61741891614c25565b98905061740f565b61746d92509061746261745d61745661744f61746895600a611029565b879061103f565b928c61456a565b61458a565b90611055565b6136e9565b8b89617408565b61748091505f01610722565b61749361748d6001610a8e565b91610a8e565b145f617400565b509291956174aa91949850613752565b9490919692617355565b979092956174db92949795506174d6906174d1889184909261453d565b610875565b6142d0565b959092949193946172fb565b505090919350919291929190565b916175599193617503613359565b506175286175108561206e565b61752261751c5f613131565b916104a6565b11614470565b6175546175348561206e565b61754e617548617543896120e8565b6104a6565b916104a6565b146144f2565b61451b565b6175625f613131565b61756b5f613131565b905b8161758861758261757d8761206e565b6104a6565b916104a6565b10156175ec576175ab906175a56175a087859061453d565b61455d565b9061349e565b90826175bf6175b9846104a6565b916104a6565b106175d3576175cd906142d0565b9061756d565b9150506175e992506175e49161456a565b61458a565b90565b50505061761f915061761a906176146176048261206e565b61760e6001614597565b9061345d565b9061456a565b61458a565b90565b60407f2067616d6520636f6e7472616374000000000000000000000000000000000000917f45546f75725f53746f726167653a205f636f6d706c6574654d6174636847616d5f8201527f655370656369666963206d75737420626520696d706c656d656e74656420627960208201520152565b6176a2604e60609261253e565b6176ab81617622565b0190565b6176c49060208101905f818303910152617695565b90565b6176cf610402565b62461bcd60e51b8152806176e5600482016176af565b0390fd5b906176f390610ee6565b5f5260205260405f2090565b9061770990610667565b5f5260205260405f2090565b9061771f90610667565b5f5260205260405f2090565b90565b617738604061092e565b90565b5f5260205f2090565b5490565b61775181617744565b82101561776b5761776360019161773b565b910201905f90565b610f08565b61777a9051610414565b90565b90565b9061779561779061779c92610667565b61777d565b8254616b65565b9055565b906177b56177b06177bc92610667565b61777d565b8254616b4e565b9055565b906177ea60205f6177f0946177e28282016177dc848801617770565b90617780565b019201617770565b906177a0565b565b919061780357617801916177c0565b565b61607a565b9081549168010000000000000000831015617838578261783091600161783695018155617748565b906177f2565b565b6108f1565b9061786661786161785a617853601786906176e9565b84906176ff565b8590617715565b610794565b6178786178725f613131565b916104a6565b036178f7576178f5926178eb6178f0926178c761789f61789a60168890610ef2565b61772b565b82906178c2866178b96178b061772e565b945f8601615160565b60208401615160565b617808565b6178e66178de6178d960168890610ef2565b610f1c565b9560176176e9565b6176ff565b617715565b615ec8565b565b505050565b634e487b7160e01b5f52603160045260245ffd5b5f80910155565b905f036179295761792790617910565b565b61607a565b61793781617744565b801561795857600190039061795561794f8383617748565b90617917565b55565b6178fc565b9161798661798161797a617973601787906176e9565b85906176ff565b8390617715565b610794565b908161799a6179945f613131565b916104a6565b14617abf57617a2e5f93617a29617a3896856179c3617a33976179bd6001614597565b9061345d565b6179ea6179da6179d560168690610ef2565b610f1c565b6179e46001614597565b9061345d565b816179fd6179f7836104a6565b916104a6565b03617a3a575b505050617a22617a1d617a1860168490610ef2565b61772b565b61792e565b60176176e9565b6176ff565b617715565b6160e7565b565b617ab792617a7f617a62617a5c617ab294617a5760168a90610ef2565b610f29565b506151b3565b93617a798591617a7460168a90610ef2565b610f29565b906177f2565b91617aac6020617aa5617a94601789906176e9565b617a9f8f8601617770565b906176ff565b9201617770565b90617715565b615ec8565b5f8080617a03565b50505050565b90617aee617ae9617ae2617adb601986906176e9565b84906176ff565b8590617715565b610794565b617b00617afa5f613131565b916104a6565b03617b7f57617b7d92617b73617b7892617b4f617b27617b2260188890610ef2565b61772b565b8290617b4a86617b41617b3861772e565b945f8601615160565b60208401615160565b617808565b617b6e617b66617b6160188890610ef2565b610f1c565b9560196176e9565b6176ff565b617715565b615ec8565b565b505050565b91617bad617ba8617ba1617b9a601987906176e9565b85906176ff565b8390617715565b610794565b9081617bc1617bbb5f613131565b916104a6565b14617ce657617c555f93617c50617c5f9685617bea617c5a97617be46001614597565b9061345d565b617c11617c01617bfc60188690610ef2565b610f1c565b617c0b6001614597565b9061345d565b81617c24617c1e836104a6565b916104a6565b03617c61575b505050617c49617c44617c3f60188490610ef2565b61772b565b61792e565b60196176e9565b6176ff565b617715565b6160e7565b565b617cde92617ca6617c89617c83617cd994617c7e60188a90610ef2565b610f29565b506151b3565b93617ca08591617c9b60188a90610ef2565b610f29565b906177f2565b91617cd36020617ccc617cbb601989906176e9565b617cc68f8601617770565b906176ff565b9201617770565b90617715565b615ec8565b5f8080617c2a565b5050505056fea26469706673582212204ce27b7dd8ac579dee153dbc68835bfccf086969fcb4c70e36d38eea301c6acb64736f6c634300081e0033","linkReferences":{}},"methodIdentifiers":{"BASIS_POINTS()":"e1f1c4a7","MODULE_CORE()":"87d41608","MODULE_ESCALATION()":"a401a223","MODULE_MATCHES()":"d3f525dc","MODULE_PRIZES()":"43bd18a2","MODULE_RAFFLE()":"5a3db19f","NO_ROUND()":"cd47b9a9","OWNER_SHARE_BPS()":"f4ed1743","PARTICIPANTS_SHARE_BPS()":"82383535","PROTOCOL_SHARE_BPS()":"92822047","_completeMatchWithResult(bytes32,address,bool)":"f4df7cf0","_createMatchGame(uint8,uint8,uint8,uint8,address,address)":"2ad7e3bf","_getActiveMatchData(bytes32,uint8,uint8,uint8,uint8)":"e545f486","_getMatchPlayers(bytes32)":"1ec3b8ad","_getMatchResult(bytes32)":"97556f67","_getTimeIncrement()":"58f975f3","_hasCurrentPlayerTimedOut(bytes32)":"19602c21","_initializeMatchForPlay(bytes32,uint8)":"3751d19f","_isMatchActive(bytes32)":"7f515802","_resetMatchGame(bytes32)":"d893088d","_setMatchPlayer(bytes32,uint8,address)":"95dd9176","accumulatedProtocolShare()":"6b9be2c9","claimTimeoutWin(uint8,uint8,uint8,uint8)":"631039c7","currentRaffleIndex()":"a5cd19da","drawParticipants(uint8,uint8,uint8,uint8,address)":"414a488a","enrollInTournament(uint8,uint8)":"e6c455f5","enrolledPlayers(uint8,uint8,uint256)":"685f1b12","executeProtocolRaffle()":"f878ebf0","forceStartTournament(uint8,uint8)":"ea2b1d73","getAllEnrolledPlayersWithWeights()":"a61804ec","getEligiblePlayerCount()":"fee6605e","getLeaderboard()":"6d763a6e","getPlayerActiveTournaments(address)":"c743c0a8","getPlayerEnrollingTournaments(address)":"c718d0e5","getPlayerStats()":"847a5e99","getRaffleInfo()":"8166f6b2","getRaffleReserve()":"1235cb18","getRaffleResult(uint256)":"940f0a91","getRaffleThreshold()":"066b74a4","getRoundInfo(uint8,uint8,uint8)":"273e3475","getTournamentInfo(uint8,uint8)":"65e12b14","initializeRound(uint8,uint8,uint8)":"0300e0b9","isCallerEnrolledInActiveTournament(address)":"cb422765","isEnrolled(uint8,uint8,address)":"3475bd53","isMatchEscL2Available(uint8,uint8,uint8,uint8)":"ed96ffdf","isMatchEscL3Available(uint8,uint8,uint8,uint8)":"2f26185d","isPlayerInAdvancedRound(uint8,uint8,uint8,address)":"31449074","matchTimeouts(bytes32)":"766d1fca","matches(bytes32)":"9fe9ada3","owner()":"8da5cb5b","playerActiveMatches(address,uint256)":"5d657cb1","playerActiveTournaments(address,uint256)":"32e7c6aa","playerEarnings(address)":"69f92773","playerEnrollingTournaments(address,uint256)":"3845753f","playerMatchIndex(address,bytes32)":"bb0d10b5","playerPrizes(uint8,uint8,address)":"c6c2d69c","playerRanking(uint8,uint8,address)":"75da743d","raffleResults(uint256)":"40861c1d","rounds(uint8,uint8,uint8)":"eed9a268","selectWeightedWinner(address[],uint256[],uint256,uint256)":"786d8ef5","tierCount()":"96b55f7d","tournaments(uint8,uint8)":"1f916aca"},"id":10}