{"abi":[{"type":"constructor","inputs":[],"stateMutability":"nonpayable"},{"type":"function","name":"BASIS_POINTS","inputs":[],"outputs":[{"name":"","type":"uint256","internalType":"uint256"}],"stateMutability":"view"},{"type":"function","name":"MODULE_CORE","inputs":[],"outputs":[{"name":"","type":"address","internalType":"address"}],"stateMutability":"view"},{"type":"function","name":"MODULE_ESCALATION","inputs":[],"outputs":[{"name":"","type":"address","internalType":"address"}],"stateMutability":"view"},{"type":"function","name":"MODULE_MATCHES","inputs":[],"outputs":[{"name":"","type":"address","internalType":"address"}],"stateMutability":"view"},{"type":"function","name":"MODULE_PRIZES","inputs":[],"outputs":[{"name":"","type":"address","internalType":"address"}],"stateMutability":"view"},{"type":"function","name":"MODULE_RAFFLE","inputs":[],"outputs":[{"name":"","type":"address","internalType":"address"}],"stateMutability":"view"},{"type":"function","name":"NO_ROUND","inputs":[],"outputs":[{"name":"","type":"uint8","internalType":"uint8"}],"stateMutability":"view"},{"type":"function","name":"OWNER_SHARE_BPS","inputs":[],"outputs":[{"name":"","type":"uint256","internalType":"uint256"}],"stateMutability":"view"},{"type":"function","name":"PARTICIPANTS_SHARE_BPS","inputs":[],"outputs":[{"name":"","type":"uint256","internalType":"uint256"}],"stateMutability":"view"},{"type":"function","name":"PROTOCOL_SHARE_BPS","inputs":[],"outputs":[{"name":"","type":"uint256","internalType":"uint256"}],"stateMutability":"view"},{"type":"function","name":"_completeMatchWithResult","inputs":[{"name":"","type":"bytes32","internalType":"bytes32"},{"name":"","type":"address","internalType":"address"},{"name":"","type":"bool","internalType":"bool"}],"outputs":[],"stateMutability":"nonpayable"},{"type":"function","name":"_createMatchGame","inputs":[{"name":"","type":"uint8","internalType":"uint8"},{"name":"","type":"uint8","internalType":"uint8"},{"name":"","type":"uint8","internalType":"uint8"},{"name":"","type":"uint8","internalType":"uint8"},{"name":"","type":"address","internalType":"address"},{"name":"","type":"address","internalType":"address"}],"outputs":[],"stateMutability":"nonpayable"},{"type":"function","name":"_getActiveMatchData","inputs":[{"name":"","type":"bytes32","internalType":"bytes32"},{"name":"","type":"uint8","internalType":"uint8"},{"name":"","type":"uint8","internalType":"uint8"},{"name":"","type":"uint8","internalType":"uint8"},{"name":"","type":"uint8","internalType":"uint8"}],"outputs":[{"name":"","type":"tuple","internalType":"struct ETour_Storage.CommonMatchData","components":[{"name":"player1","type":"address","internalType":"address"},{"name":"player2","type":"address","internalType":"address"},{"name":"winner","type":"address","internalType":"address"},{"name":"loser","type":"address","internalType":"address"},{"name":"status","type":"uint8","internalType":"enum ETour_Storage.MatchStatus"},{"name":"isDraw","type":"bool","internalType":"bool"},{"name":"startTime","type":"uint256","internalType":"uint256"},{"name":"lastMoveTime","type":"uint256","internalType":"uint256"},{"name":"tierId","type":"uint8","internalType":"uint8"},{"name":"instanceId","type":"uint8","internalType":"uint8"},{"name":"roundNumber","type":"uint8","internalType":"uint8"},{"name":"matchNumber","type":"uint8","internalType":"uint8"},{"name":"isCached","type":"bool","internalType":"bool"}]}],"stateMutability":"view"},{"type":"function","name":"_getMatchPlayers","inputs":[{"name":"","type":"bytes32","internalType":"bytes32"}],"outputs":[{"name":"","type":"address","internalType":"address"},{"name":"","type":"address","internalType":"address"}],"stateMutability":"view"},{"type":"function","name":"_getMatchResult","inputs":[{"name":"","type":"bytes32","internalType":"bytes32"}],"outputs":[{"name":"","type":"address","internalType":"address"},{"name":"","type":"bool","internalType":"bool"},{"name":"","type":"uint8","internalType":"enum ETour_Storage.MatchStatus"}],"stateMutability":"view"},{"type":"function","name":"_getTimeIncrement","inputs":[],"outputs":[{"name":"","type":"uint256","internalType":"uint256"}],"stateMutability":"view"},{"type":"function","name":"_hasCurrentPlayerTimedOut","inputs":[{"name":"","type":"bytes32","internalType":"bytes32"}],"outputs":[{"name":"","type":"bool","internalType":"bool"}],"stateMutability":"view"},{"type":"function","name":"_initializeMatchForPlay","inputs":[{"name":"","type":"bytes32","internalType":"bytes32"},{"name":"","type":"uint8","internalType":"uint8"}],"outputs":[],"stateMutability":"nonpayable"},{"type":"function","name":"_isMatchActive","inputs":[{"name":"","type":"bytes32","internalType":"bytes32"}],"outputs":[{"name":"","type":"bool","internalType":"bool"}],"stateMutability":"view"},{"type":"function","name":"_resetMatchGame","inputs":[{"name":"","type":"bytes32","internalType":"bytes32"}],"outputs":[],"stateMutability":"nonpayable"},{"type":"function","name":"_setMatchPlayer","inputs":[{"name":"","type":"bytes32","internalType":"bytes32"},{"name":"","type":"uint8","internalType":"uint8"},{"name":"","type":"address","internalType":"address"}],"outputs":[],"stateMutability":"nonpayable"},{"type":"function","name":"accumulatedProtocolShare","inputs":[],"outputs":[{"name":"","type":"uint256","internalType":"uint256"}],"stateMutability":"view"},{"type":"function","name":"addPlayerActiveMatch","inputs":[{"name":"player","type":"address","internalType":"address"},{"name":"matchId","type":"bytes32","internalType":"bytes32"}],"outputs":[],"stateMutability":"nonpayable"},{"type":"function","name":"advanceWinner","inputs":[{"name":"tierId","type":"uint8","internalType":"uint8"},{"name":"instanceId","type":"uint8","internalType":"uint8"},{"name":"roundNumber","type":"uint8","internalType":"uint8"},{"name":"matchNumber","type":"uint8","internalType":"uint8"},{"name":"winner","type":"address","internalType":"address"}],"outputs":[],"stateMutability":"nonpayable"},{"type":"function","name":"checkForSoleWinnerCompletion","inputs":[{"name":"tierId","type":"uint8","internalType":"uint8"},{"name":"instanceId","type":"uint8","internalType":"uint8"},{"name":"roundNumber","type":"uint8","internalType":"uint8"}],"outputs":[],"stateMutability":"nonpayable"},{"type":"function","name":"claimTimeoutWin","inputs":[{"name":"tierId","type":"uint8","internalType":"uint8"},{"name":"instanceId","type":"uint8","internalType":"uint8"},{"name":"roundNumber","type":"uint8","internalType":"uint8"},{"name":"matchNumber","type":"uint8","internalType":"uint8"}],"outputs":[],"stateMutability":"nonpayable"},{"type":"function","name":"completeMatch","inputs":[{"name":"tierId","type":"uint8","internalType":"uint8"},{"name":"instanceId","type":"uint8","internalType":"uint8"},{"name":"roundNumber","type":"uint8","internalType":"uint8"},{"name":"matchNumber","type":"uint8","internalType":"uint8"},{"name":"winner","type":"address","internalType":"address"},{"name":"isDraw","type":"bool","internalType":"bool"}],"outputs":[],"stateMutability":"nonpayable"},{"type":"function","name":"completeRound","inputs":[{"name":"tierId","type":"uint8","internalType":"uint8"},{"name":"instanceId","type":"uint8","internalType":"uint8"},{"name":"roundNumber","type":"uint8","internalType":"uint8"}],"outputs":[],"stateMutability":"nonpayable"},{"type":"function","name":"completeTournament","inputs":[{"name":"tierId","type":"uint8","internalType":"uint8"},{"name":"instanceId","type":"uint8","internalType":"uint8"},{"name":"winner","type":"address","internalType":"address"}],"outputs":[],"stateMutability":"nonpayable"},{"type":"function","name":"completeTournamentAllDraw","inputs":[{"name":"tierId","type":"uint8","internalType":"uint8"},{"name":"instanceId","type":"uint8","internalType":"uint8"},{"name":"roundNumber","type":"uint8","internalType":"uint8"},{"name":"remainingPlayers","type":"address[]","internalType":"address[]"}],"outputs":[],"stateMutability":"nonpayable"},{"type":"function","name":"consolidateAndStartOddRound","inputs":[{"name":"tierId","type":"uint8","internalType":"uint8"},{"name":"instanceId","type":"uint8","internalType":"uint8"},{"name":"completedRound","type":"uint8","internalType":"uint8"}],"outputs":[],"stateMutability":"nonpayable"},{"type":"function","name":"consolidateScatteredPlayers","inputs":[{"name":"tierId","type":"uint8","internalType":"uint8"},{"name":"instanceId","type":"uint8","internalType":"uint8"},{"name":"roundNumber","type":"uint8","internalType":"uint8"}],"outputs":[],"stateMutability":"nonpayable"},{"type":"function","name":"currentRaffleIndex","inputs":[],"outputs":[{"name":"","type":"uint256","internalType":"uint256"}],"stateMutability":"view"},{"type":"function","name":"drawParticipants","inputs":[{"name":"","type":"uint8","internalType":"uint8"},{"name":"","type":"uint8","internalType":"uint8"},{"name":"","type":"uint8","internalType":"uint8"},{"name":"","type":"uint8","internalType":"uint8"},{"name":"","type":"address","internalType":"address"}],"outputs":[{"name":"","type":"bool","internalType":"bool"}],"stateMutability":"view"},{"type":"function","name":"enrollInTournament","inputs":[{"name":"tierId","type":"uint8","internalType":"uint8"},{"name":"instanceId","type":"uint8","internalType":"uint8"}],"outputs":[],"stateMutability":"payable"},{"type":"function","name":"enrolledPlayers","inputs":[{"name":"","type":"uint8","internalType":"uint8"},{"name":"","type":"uint8","internalType":"uint8"},{"name":"","type":"uint256","internalType":"uint256"}],"outputs":[{"name":"","type":"address","internalType":"address"}],"stateMutability":"view"},{"type":"function","name":"forceStartTournament","inputs":[{"name":"tierId","type":"uint8","internalType":"uint8"},{"name":"instanceId","type":"uint8","internalType":"uint8"}],"outputs":[],"stateMutability":"nonpayable"},{"type":"function","name":"getLeaderboard","inputs":[],"outputs":[{"name":"","type":"tuple[]","internalType":"struct ETour_Storage.LeaderboardEntry[]","components":[{"name":"player","type":"address","internalType":"address"},{"name":"earnings","type":"int256","internalType":"int256"}]}],"stateMutability":"view"},{"type":"function","name":"getMatchCountForRound","inputs":[{"name":"tierId","type":"uint8","internalType":"uint8"},{"name":"instanceId","type":"uint8","internalType":"uint8"},{"name":"roundNumber","type":"uint8","internalType":"uint8"}],"outputs":[{"name":"","type":"uint8","internalType":"uint8"}],"stateMutability":"view"},{"type":"function","name":"getPlayerActiveTournaments","inputs":[{"name":"player","type":"address","internalType":"address"}],"outputs":[{"name":"","type":"tuple[]","internalType":"struct ETour_Storage.TournamentRef[]","components":[{"name":"tierId","type":"uint8","internalType":"uint8"},{"name":"instanceId","type":"uint8","internalType":"uint8"}]}],"stateMutability":"view"},{"type":"function","name":"getPlayerEnrollingTournaments","inputs":[{"name":"player","type":"address","internalType":"address"}],"outputs":[{"name":"","type":"tuple[]","internalType":"struct ETour_Storage.TournamentRef[]","components":[{"name":"tierId","type":"uint8","internalType":"uint8"},{"name":"instanceId","type":"uint8","internalType":"uint8"}]}],"stateMutability":"view"},{"type":"function","name":"getPlayerStats","inputs":[],"outputs":[{"name":"totalEarnings","type":"int256","internalType":"int256"}],"stateMutability":"view"},{"type":"function","name":"getRaffleInfo","inputs":[],"outputs":[{"name":"raffleIndex","type":"uint256","internalType":"uint256"},{"name":"isReady","type":"bool","internalType":"bool"},{"name":"currentAccumulated","type":"uint256","internalType":"uint256"},{"name":"threshold","type":"uint256","internalType":"uint256"},{"name":"reserve","type":"uint256","internalType":"uint256"},{"name":"raffleAmount","type":"uint256","internalType":"uint256"},{"name":"ownerShare","type":"uint256","internalType":"uint256"},{"name":"winnerShare","type":"uint256","internalType":"uint256"},{"name":"eligiblePlayerCount","type":"uint256","internalType":"uint256"}],"stateMutability":"view"},{"type":"function","name":"getRemainingPlayers","inputs":[{"name":"tierId","type":"uint8","internalType":"uint8"},{"name":"instanceId","type":"uint8","internalType":"uint8"},{"name":"roundNumber","type":"uint8","internalType":"uint8"}],"outputs":[{"name":"","type":"address[]","internalType":"address[]"}],"stateMutability":"view"},{"type":"function","name":"getRoundInfo","inputs":[{"name":"tierId","type":"uint8","internalType":"uint8"},{"name":"instanceId","type":"uint8","internalType":"uint8"},{"name":"roundNumber","type":"uint8","internalType":"uint8"}],"outputs":[{"name":"totalMatches","type":"uint8","internalType":"uint8"},{"name":"completedMatches","type":"uint8","internalType":"uint8"},{"name":"initialized","type":"bool","internalType":"bool"}],"stateMutability":"view"},{"type":"function","name":"getTournamentInfo","inputs":[{"name":"tierId","type":"uint8","internalType":"uint8"},{"name":"instanceId","type":"uint8","internalType":"uint8"}],"outputs":[{"name":"status","type":"uint8","internalType":"enum ETour_Storage.TournamentStatus"},{"name":"currentRound","type":"uint8","internalType":"uint8"},{"name":"enrolledCount","type":"uint8","internalType":"uint8"},{"name":"prizePool","type":"uint256","internalType":"uint256"},{"name":"winner","type":"address","internalType":"address"}],"stateMutability":"view"},{"type":"function","name":"hasOrphanedWinners","inputs":[{"name":"tierId","type":"uint8","internalType":"uint8"},{"name":"instanceId","type":"uint8","internalType":"uint8"},{"name":"roundNumber","type":"uint8","internalType":"uint8"}],"outputs":[{"name":"","type":"bool","internalType":"bool"}],"stateMutability":"view"},{"type":"function","name":"initializeRound","inputs":[{"name":"tierId","type":"uint8","internalType":"uint8"},{"name":"instanceId","type":"uint8","internalType":"uint8"},{"name":"roundNumber","type":"uint8","internalType":"uint8"}],"outputs":[],"stateMutability":"nonpayable"},{"type":"function","name":"isEnrolled","inputs":[{"name":"","type":"uint8","internalType":"uint8"},{"name":"","type":"uint8","internalType":"uint8"},{"name":"","type":"address","internalType":"address"}],"outputs":[{"name":"","type":"bool","internalType":"bool"}],"stateMutability":"view"},{"type":"function","name":"isMatchEscL2Available","inputs":[{"name":"tierId","type":"uint8","internalType":"uint8"},{"name":"instanceId","type":"uint8","internalType":"uint8"},{"name":"roundNumber","type":"uint8","internalType":"uint8"},{"name":"matchNumber","type":"uint8","internalType":"uint8"}],"outputs":[{"name":"","type":"bool","internalType":"bool"}],"stateMutability":"view"},{"type":"function","name":"isMatchEscL3Available","inputs":[{"name":"tierId","type":"uint8","internalType":"uint8"},{"name":"instanceId","type":"uint8","internalType":"uint8"},{"name":"roundNumber","type":"uint8","internalType":"uint8"},{"name":"matchNumber","type":"uint8","internalType":"uint8"}],"outputs":[{"name":"","type":"bool","internalType":"bool"}],"stateMutability":"view"},{"type":"function","name":"isPlayerInAdvancedRound","inputs":[{"name":"tierId","type":"uint8","internalType":"uint8"},{"name":"instanceId","type":"uint8","internalType":"uint8"},{"name":"stalledRoundNumber","type":"uint8","internalType":"uint8"},{"name":"player","type":"address","internalType":"address"}],"outputs":[{"name":"hasAdvanced","type":"bool","internalType":"bool"}],"stateMutability":"view"},{"type":"function","name":"matchTimeouts","inputs":[{"name":"","type":"bytes32","internalType":"bytes32"}],"outputs":[{"name":"escalation1Start","type":"uint256","internalType":"uint256"},{"name":"escalation2Start","type":"uint256","internalType":"uint256"},{"name":"activeEscalation","type":"uint8","internalType":"enum ETour_Storage.EscalationLevel"},{"name":"isStalled","type":"bool","internalType":"bool"}],"stateMutability":"view"},{"type":"function","name":"matches","inputs":[{"name":"","type":"bytes32","internalType":"bytes32"}],"outputs":[{"name":"player1","type":"address","internalType":"address"},{"name":"player2","type":"address","internalType":"address"},{"name":"winner","type":"address","internalType":"address"},{"name":"currentTurn","type":"address","internalType":"address"},{"name":"firstPlayer","type":"address","internalType":"address"},{"name":"status","type":"uint8","internalType":"enum ETour_Storage.MatchStatus"},{"name":"isDraw","type":"bool","internalType":"bool"},{"name":"packedBoard","type":"uint256","internalType":"uint256"},{"name":"packedState","type":"uint256","internalType":"uint256"},{"name":"startTime","type":"uint256","internalType":"uint256"},{"name":"lastMoveTime","type":"uint256","internalType":"uint256"},{"name":"player1TimeRemaining","type":"uint256","internalType":"uint256"},{"name":"player2TimeRemaining","type":"uint256","internalType":"uint256"},{"name":"moves","type":"string","internalType":"string"}],"stateMutability":"view"},{"type":"function","name":"owner","inputs":[],"outputs":[{"name":"","type":"address","internalType":"address"}],"stateMutability":"view"},{"type":"function","name":"playerActiveMatches","inputs":[{"name":"","type":"address","internalType":"address"},{"name":"","type":"uint256","internalType":"uint256"}],"outputs":[{"name":"","type":"bytes32","internalType":"bytes32"}],"stateMutability":"view"},{"type":"function","name":"playerActiveTournaments","inputs":[{"name":"","type":"address","internalType":"address"},{"name":"","type":"uint256","internalType":"uint256"}],"outputs":[{"name":"tierId","type":"uint8","internalType":"uint8"},{"name":"instanceId","type":"uint8","internalType":"uint8"}],"stateMutability":"view"},{"type":"function","name":"playerEarnings","inputs":[{"name":"","type":"address","internalType":"address"}],"outputs":[{"name":"","type":"int256","internalType":"int256"}],"stateMutability":"view"},{"type":"function","name":"playerEnrollingTournaments","inputs":[{"name":"","type":"address","internalType":"address"},{"name":"","type":"uint256","internalType":"uint256"}],"outputs":[{"name":"tierId","type":"uint8","internalType":"uint8"},{"name":"instanceId","type":"uint8","internalType":"uint8"}],"stateMutability":"view"},{"type":"function","name":"playerMatchIndex","inputs":[{"name":"","type":"address","internalType":"address"},{"name":"","type":"bytes32","internalType":"bytes32"}],"outputs":[{"name":"","type":"uint256","internalType":"uint256"}],"stateMutability":"view"},{"type":"function","name":"playerPrizes","inputs":[{"name":"","type":"uint8","internalType":"uint8"},{"name":"","type":"uint8","internalType":"uint8"},{"name":"","type":"address","internalType":"address"}],"outputs":[{"name":"","type":"uint256","internalType":"uint256"}],"stateMutability":"view"},{"type":"function","name":"playerRanking","inputs":[{"name":"","type":"uint8","internalType":"uint8"},{"name":"","type":"uint8","internalType":"uint8"},{"name":"","type":"address","internalType":"address"}],"outputs":[{"name":"","type":"uint8","internalType":"uint8"}],"stateMutability":"view"},{"type":"function","name":"processOrphanedWinners","inputs":[{"name":"tierId","type":"uint8","internalType":"uint8"},{"name":"instanceId","type":"uint8","internalType":"uint8"},{"name":"roundNumber","type":"uint8","internalType":"uint8"}],"outputs":[],"stateMutability":"nonpayable"},{"type":"function","name":"raffleResults","inputs":[{"name":"","type":"uint256","internalType":"uint256"}],"outputs":[{"name":"executor","type":"address","internalType":"address"},{"name":"timestamp","type":"uint256","internalType":"uint256"},{"name":"rafflePot","type":"uint256","internalType":"uint256"},{"name":"winner","type":"address","internalType":"address"},{"name":"winnerPrize","type":"uint256","internalType":"uint256"},{"name":"protocolReserve","type":"uint256","internalType":"uint256"},{"name":"ownerShare","type":"uint256","internalType":"uint256"}],"stateMutability":"view"},{"type":"function","name":"removePlayerActiveMatch","inputs":[{"name":"player","type":"address","internalType":"address"},{"name":"matchId","type":"bytes32","internalType":"bytes32"}],"outputs":[],"stateMutability":"nonpayable"},{"type":"function","name":"rounds","inputs":[{"name":"","type":"uint8","internalType":"uint8"},{"name":"","type":"uint8","internalType":"uint8"},{"name":"","type":"uint8","internalType":"uint8"}],"outputs":[{"name":"totalMatches","type":"uint8","internalType":"uint8"},{"name":"completedMatches","type":"uint8","internalType":"uint8"},{"name":"initialized","type":"bool","internalType":"bool"},{"name":"drawCount","type":"uint8","internalType":"uint8"}],"stateMutability":"view"},{"type":"function","name":"tierCount","inputs":[],"outputs":[{"name":"","type":"uint8","internalType":"uint8"}],"stateMutability":"view"},{"type":"function","name":"tournaments","inputs":[{"name":"","type":"uint8","internalType":"uint8"},{"name":"","type":"uint8","internalType":"uint8"}],"outputs":[{"name":"tierId","type":"uint8","internalType":"uint8"},{"name":"instanceId","type":"uint8","internalType":"uint8"},{"name":"status","type":"uint8","internalType":"enum ETour_Storage.TournamentStatus"},{"name":"currentRound","type":"uint8","internalType":"uint8"},{"name":"enrolledCount","type":"uint8","internalType":"uint8"},{"name":"prizePool","type":"uint256","internalType":"uint256"},{"name":"startTime","type":"uint256","internalType":"uint256"},{"name":"winner","type":"address","internalType":"address"},{"name":"finalsWasDraw","type":"bool","internalType":"bool"},{"name":"allDrawResolution","type":"bool","internalType":"bool"},{"name":"allDrawRound","type":"uint8","internalType":"uint8"},{"name":"completionReason","type":"uint8","internalType":"enum ETour_Storage.CompletionReason"},{"name":"enrollmentTimeout","type":"tuple","internalType":"struct ETour_Storage.EnrollmentTimeoutState","components":[{"name":"escalation1Start","type":"uint256","internalType":"uint256"},{"name":"escalation2Start","type":"uint256","internalType":"uint256"},{"name":"activeEscalation","type":"uint8","internalType":"enum ETour_Storage.EscalationLevel"},{"name":"forfeitPool","type":"uint256","internalType":"uint256"}]}],"stateMutability":"view"},{"type":"event","name":"MatchCompleted","inputs":[{"name":"matchId","type":"bytes32","indexed":true,"internalType":"bytes32"},{"name":"player1","type":"address","indexed":true,"internalType":"address"},{"name":"player2","type":"address","indexed":true,"internalType":"address"},{"name":"winner","type":"address","indexed":false,"internalType":"address"},{"name":"isDraw","type":"bool","indexed":false,"internalType":"bool"},{"name":"reason","type":"uint8","indexed":false,"internalType":"enum ETour_Storage.CompletionReason"},{"name":"board","type":"uint256","indexed":false,"internalType":"uint256"}],"anonymous":false},{"type":"event","name":"ProtocolRaffleExecuted","inputs":[{"name":"raffleIndex","type":"uint256","indexed":true,"internalType":"uint256"},{"name":"winner","type":"address","indexed":true,"internalType":"address"},{"name":"caller","type":"address","indexed":true,"internalType":"address"},{"name":"raffleAmount","type":"uint256","indexed":false,"internalType":"uint256"},{"name":"ownerShare","type":"uint256","indexed":false,"internalType":"uint256"},{"name":"winnerShare","type":"uint256","indexed":false,"internalType":"uint256"},{"name":"remainingReserve","type":"uint256","indexed":false,"internalType":"uint256"},{"name":"winnerEnrollmentCount","type":"uint256","indexed":false,"internalType":"uint256"}],"anonymous":false},{"type":"event","name":"TournamentCompleted","inputs":[{"name":"tierId","type":"uint8","indexed":true,"internalType":"uint8"},{"name":"instanceId","type":"uint8","indexed":true,"internalType":"uint8"},{"name":"winner","type":"address","indexed":false,"internalType":"address"},{"name":"prizeAmount","type":"uint256","indexed":false,"internalType":"uint256"},{"name":"reason","type":"uint8","indexed":false,"internalType":"enum ETour_Storage.CompletionReason"},{"name":"enrolledPlayers","type":"address[]","indexed":false,"internalType":"address[]"}],"anonymous":false},{"type":"event","name":"Transfer","inputs":[{"name":"from","type":"address","indexed":true,"internalType":"address"},{"name":"to","type":"address","indexed":true,"internalType":"address"},{"name":"value","type":"uint256","indexed":false,"internalType":"uint256"}],"anonymous":false},{"type":"error","name":"ReentrancyGuardReentrantCall","inputs":[]}],"bytecode":{"object":"0x6101406040523461007c576100126100c4565b61001a610081565b619bc86101b98239608051818181611fe1015281816185dd01526187fe015260a05181612be8015260c0518181816115ce01526188f4015260e051816116ba0152610100518181816125f001526160280152610120518161203a0152619bc890f35b610087565b60405190565b5f80fd5b90565b60018060a01b031690565b90565b6100b06100ab6100b59261008b565b610099565b61008e565b90565b6100c19061009c565b90565b6100fb6100d05f6100b8565b6100d95f6100b8565b6100e25f6100b8565b6100eb5f6100b8565b916100f55f6100b8565b936100fd565b565b6101056101a5565b336101205260805260a05260c05260e05261010052565b90565b90565b61013661013161013b9261011c565b610099565b61011f565b90565b6101486001610122565b90565b5f1b90565b9061015c5f199161014b565b9181191691161790565b61017a61017561017f9261011f565b610099565b61011f565b90565b90565b9061019a6101956101a192610166565b610182565b8254610150565b9055565b6101b66101b061013e565b5f610185565b56fe60806040526004361015610013575b61318a565b61001d5f3561045c565b80630300e0b9146104575780630995bb4d1461045257806319602c211461044d5780631ec3b8ad146104485780631f916aca14610443578063273e34751461043e5780632ad7e3bf146104395780632bc74985146104345780632f26185d1461042f578063314490741461042a57806332e7c6aa146104255780633475bd53146104205780633751d19f1461041b5780633845753f146104165780633df1d831146104115780633fbd716b1461040c57806340861c1d14610407578063414a488a1461040257806343bd18a2146103fd57806352ea458a146103f857806358f975f3146103f35780635a3db19f146103ee5780635d657cb1146103e9578063631039c7146103e457806365e12b14146103df578063685f1b12146103da57806369f92773146103d55780636b9be2c9146103d05780636d763a6e146103cb57806375da743d146103c6578063766d1fca146103c157806377139798146103bc5780637f515802146103b75780638166f6b2146103b257806382383535146103ad578063847a5e99146103a857806387d41608146103a35780638da5cb5b1461039e5780639266795114610399578063928220471461039457806395dd91761461038f57806396b55f7d1461038a57806397556f67146103855780639fe9ada314610380578063a401a2231461037b578063a5cd19da14610376578063b8083ee014610371578063b902ec471461036c578063bb0d10b514610367578063c139721a14610362578063c1cf478e1461035d578063c6c2d69c14610358578063c718d0e514610353578063c743c0a81461034e578063cb9e72ce14610349578063cd47b9a914610344578063d3f525dc1461033f578063d520b3f51461033a578063d893088d14610335578063e1f1c4a714610330578063e545f4861461032b578063e6c455f514610326578063ea2b1d7314610321578063ed96ffdf1461031c578063eed9a26814610317578063f4df7cf014610312578063f4ed17431461030d5763fe727a1f0361000e57613154565b61311f565b6130b9565b613045565b612f1c565b612ee8565b612ebe565b612e85565b612cd7565b612c73565b612c3f565b612c0a565b612bb1565b612b46565b612b11565b612adc565b6129e3565b61293f565b61280b565b612743565b6126bf565b61268b565b612656565b612612565b6125a6565b612245565b6121aa565b61216d565b6120fe565b612091565b61205c565b612003565b611faa565b611f75565b611efe565b611e43565b611e0f565b611dd6565b611cd3565b611bf6565b611af1565b611a87565b6119b6565b61187d565b611812565b6117dc565b6116dc565b611683565b61163a565b611605565b611584565b611489565b611337565b6112fd565b61123f565b6111ce565b61116b565b61109d565b610f1a565b610e9b565b610e21565b610dc3565b610d26565b610cae565b610688565b610623565b610584565b6104dc565b60e01c90565b60405190565b5f80fd5b5f80fd5b5f80fd5b60ff1690565b61048381610474565b0361048a57565b5f80fd5b9050359061049b8261047a565b565b90916060828403126104d2576104cf6104b8845f850161048e565b936104c6816020860161048e565b9360400161048e565b90565b61046c565b5f0190565b3461050b576104f56104ef36600461049d565b91613604565b6104fd610462565b80610507816104d7565b0390f35b610468565b60018060a01b031690565b61052490610510565b90565b6105308161051b565b0361053757565b5f80fd5b9050359061054882610527565b565b909160608284031261057f5761057c610565845f850161048e565b93610573816020860161048e565b9360400161053b565b90565b61046c565b346105b35761059d61059736600461054a565b91613a51565b6105a5610462565b806105af816104d7565b0390f35b610468565b90565b6105c4816105b8565b036105cb57565b5f80fd5b905035906105dc826105bb565b565b906020828203126105f7576105f4915f016105cf565b90565b61046c565b151590565b61060a906105fc565b9052565b9190610621905f60208501940190610601565b565b346106535761064f61063e6106393660046105de565b613c7b565b610646610462565b9182918261060e565b0390f35b610468565b6106619061051b565b9052565b91602061068692949361067f60408201965f830190610658565b0190610658565b565b346106b9576106a061069b3660046105de565b613c8d565b906106b56106ac610462565b92839283610665565b0390f35b610468565b91906040838203126106e657806106da6106e3925f860161048e565b9360200161048e565b90565b61046c565b90565b6107026106fd61070792610474565b6106eb565b610474565b90565b90610714906106ee565b5f5260205260405f2090565b9061072a906106ee565b5f5260205260405f2090565b5f1c90565b60ff1690565b61074d61075291610736565b61073b565b90565b61075f9054610741565b90565b60081c90565b61077461077991610762565b61073b565b90565b6107869054610768565b90565b60101c90565b60ff1690565b6107a16107a691610789565b61078f565b90565b6107b39054610795565b90565b60181c90565b6107c86107cd916107b6565b61073b565b90565b6107da90546107bc565b90565b60201c90565b6107ef6107f4916107dd565b61073b565b90565b61080190546107e3565b90565b90565b61081361081891610736565b610804565b90565b6108259054610807565b90565b60018060a01b031690565b61083f61084491610736565b610828565b90565b6108519054610833565b90565b60a01c90565b60ff1690565b61086c61087191610854565b61085a565b90565b61087e9054610860565b90565b60a81c90565b61089361089891610881565b61085a565b90565b6108a59054610887565b90565b60b01c90565b6108ba6108bf916108a8565b61073b565b90565b6108cc90546108ae565b90565b60b81c90565b60ff1690565b6108e76108ec916108cf565b6108d5565b90565b6108f990546108db565b90565b90565b90610909906108fc565b9052565b60ff1690565b61091f61092491610736565b61090d565b90565b6109319054610913565b90565b634e487b7160e01b5f52602160045260245ffd5b6004111561095257565b610934565b9061096182610948565b565b9061096d90610957565b9052565b601f801991011690565b634e487b7160e01b5f52604160045260245ffd5b9061099990610971565b810190811067ffffffffffffffff8211176109b357604052565b61097b565b906109cb6109c4610462565b928361098f565b565b6109d760806109b8565b90565b90610a41610a3860036109eb6109cd565b94610a026109fa5f830161081b565b5f88016108ff565b610a1a610a116001830161081b565b602088016108ff565b610a32610a2960028301610927565b60408801610963565b0161081b565b606084016108ff565b565b90610a52610a5792600861070a565b610720565b610a625f8201610755565b91610a6e5f830161077c565b91610a7a5f82016107a9565b91610a865f83016107d0565b91610a925f82016107f7565b91610a9f6001830161081b565b91610aac6002820161081b565b91610ab960038301610847565b91610ac660038201610874565b91610ad36003830161089b565b91610ae0600382016108c2565b91610af96004610af2600385016108ef565b93016109da565b90565b610b0590610474565b9052565b60031115610b1357565b610934565b90610b2282610b09565b565b610b2d90610b18565b90565b610b3990610b24565b9052565b610b46906108fc565b9052565b60061115610b5457565b610934565b90610b6382610b4a565b565b610b6e90610b59565b90565b610b7a90610b65565b9052565b610b87906108fc565b9052565b610b9490610957565b90565b610ba090610b8b565b9052565b90606080610bea93610bbc5f8201515f860190610b7e565b610bce60208201516020860190610b7e565b610be060408201516040860190610b97565b0151910190610b7e565b565b9a98969492909d9c9b99979593916102008c019e5f8d01610c0c91610afc565b60208c01610c1991610afc565b60408b01610c2691610b30565b60608a01610c3391610afc565b60808901610c4091610afc565b60a08801610c4d91610b3d565b60c08701610c5a91610b3d565b60e08601610c6791610658565b6101008501610c7591610601565b6101208401610c8391610601565b6101408301610c9191610afc565b6101608201610c9f91610b71565b61018001610cac91610ba4565b565b34610cef57610ceb610cca610cc43660046106be565b90610a43565b99610ce29d9b9d999199989298979397969496610462565b9d8e9d8e610bec565b0390f35b610468565b604090610d1d610d249496959396610d1360608401985f850190610afc565b6020830190610afc565b0190610601565b565b34610d5a57610d56610d42610d3c36600461049d565b91613cba565b610d4d939193610462565b93849384610cf4565b0390f35b610468565b909160c082840312610dbe57610d77835f840161048e565b92610d85816020850161048e565b92610d93826040830161048e565b92610dbb610da4846060850161048e565b93610db2816080860161053b565b9360a00161053b565b90565b61046c565b34610def57610dd3366004610d5f565b505050505050610de1610462565b80610deb816104d7565b0390f35b610468565b9190604083820312610e1c5780610e10610e19925f860161053b565b936020016105cf565b90565b61046c565b34610e5057610e3a610e34366004610df4565b90613ed9565b610e42610462565b80610e4c816104d7565b0390f35b610468565b608081830312610e9657610e6b825f830161048e565b92610e93610e7c846020850161048e565b93610e8a816040860161048e565b9360600161048e565b90565b61046c565b34610ecf57610ecb610eba610eb1366004610e55565b92919091614033565b610ec2610462565b9182918261060e565b0390f35b610468565b608081830312610f1557610eea825f830161048e565b92610f12610efb846020850161048e565b93610f09816040860161048e565b9360600161053b565b90565b61046c565b34610f4e57610f4a610f39610f30366004610ed4565b92919091614318565b610f41610462565b9182918261060e565b0390f35b610468565b610f5c816108fc565b03610f6357565b5f80fd5b90503590610f7482610f53565b565b9190604083820312610f9e5780610f92610f9b925f860161053b565b93602001610f67565b90565b61046c565b610fb7610fb2610fbc92610510565b6106eb565b610510565b90565b610fc890610fa3565b90565b610fd490610fbf565b90565b90610fe190610fcb565b5f5260205260405f2090565b634e487b7160e01b5f52603260045260245ffd5b5490565b5f5260205f2090565b61101781611001565b82101561103157611029600191611005565b910201905f90565b610fed565b611041906018610fd7565b9061104b82611001565b8110156110765761105b9161100e565b50906110735f61106c818501610755565b930161077c565b90565b5f80fd5b91602061109b92949361109460408201965f830190610afc565b0190610afc565b565b346110cf576110b66110b0366004610f76565b90611036565b906110cb6110c2610462565b9283928361107a565b0390f35b610468565b906110de906106ee565b5f5260205260405f2090565b906110f4906106ee565b5f5260205260405f2090565b9061110a90610fcb565b5f5260205260405f2090565b1c90565b61112a90600861112f9302611116565b61085a565b90565b9061113d915461111a565b90565b906111689261115e61116392611159600a955f966110d4565b6110ea565b611100565b611132565b90565b3461119c5761119861118761118136600461054a565b91611140565b61118f610462565b9182918261060e565b0390f35b610468565b91906040838203126111c957806111bd6111c6925f86016105cf565b9360200161048e565b90565b61046c565b346111f6576111de3660046111a1565b50506111e8610462565b806111f2816104d7565b0390f35b610468565b611206906016610fd7565b9061121082611001565b81101561123b576112209161100e565b50906112385f611231818501610755565b930161077c565b90565b5f80fd5b3461127157611258611252366004610f76565b906111fb565b9061126d611264610462565b9283928361107a565b0390f35b610468565b61127f816105fc565b0361128657565b5f80fd5b9050359061129782611276565b565b909160c0828403126112f8576112b1835f840161048e565b926112bf816020850161048e565b926112cd826040830161048e565b926112f56112de846060850161048e565b936112ec816080860161053b565b9360a00161128a565b90565b61046c565b346113325761131c611310366004611299565b949390939291926146d1565b611324610462565b8061132e816104d7565b0390f35b610468565b346113665761135061134a36600461049d565b916149ab565b611358610462565b80611362816104d7565b0390f35b610468565b9060208282031261138457611381915f01610f67565b90565b61046c565b61139d6113986113a2926108fc565b6106eb565b6108fc565b90565b906113af90611389565b5f5260205260405f2090565b6113c69060076113a5565b6113d15f8201610847565b916113de6001830161081b565b916113eb6002820161081b565b916113f860058301610847565b916114056006820161081b565b9161141e60086114176007850161081b565b930161081b565b90565b949290979695939160e08601985f870161143a91610658565b6020860161144791610b3d565b6040850161145491610b3d565b6060840161146191610658565b6080830161146e91610b3d565b60a0820161147b91610b3d565b60c00161148791610b3d565b565b346114c0576114bc6114a461149f36600461136b565b6113bb565b936114b3979597939193610462565b97889788611421565b0390f35b610468565b919060a083820312611516576114dd815f850161048e565b926114eb826020830161048e565b926115136114fc846040850161048e565b9361150a816060860161048e565b9360800161053b565b90565b61046c565b90611525906106ee565b5f5260205260405f2090565b9061153b906106ee565b5f5260205260405f2090565b926115779061157261157c9461156d61158198956115686010995f9a61151b565b611531565b6110d4565b6110ea565b611100565b611132565b90565b346115b8576115b46115a361159a3660046114c5565b93929092611547565b6115ab610462565b9182918261060e565b0390f35b610468565b5f9103126115c757565b61046c565b7f000000000000000000000000000000000000000000000000000000000000000090565b9190611603905f60208501940190610658565b565b34611635576116153660046115bd565b6116316116206115cc565b611628610462565b918291826115f0565b0390f35b610468565b346116695761165361164d36600461049d565b91615800565b61165b610462565b80611665816104d7565b0390f35b610468565b9190611681905f60208501940190610b3d565b565b346116b3576116933660046115bd565b6116af61169e615bca565b6116a6610462565b9182918261166e565b0390f35b610468565b7f000000000000000000000000000000000000000000000000000000000000000090565b3461170c576116ec3660046115bd565b6117086116f76116b8565b6116ff610462565b918291826115f0565b0390f35b610468565b9061171b90610fcb565b5f5260205260405f2090565b5490565b5f5260205f2090565b61173d81611727565b8210156117575761174f60019161172b565b910201905f90565b610fed565b90565b61176f9060086117749302611116565b61175c565b90565b90611782915461175f565b90565b61179090600c611711565b61179981611727565b8210156117b6576117b3916117ad91611734565b90611777565b90565b5f80fd5b6117c3906105b8565b9052565b91906117da905f602085019401906117ba565b565b3461180d576118096117f86117f2366004610f76565b90611785565b611800610462565b918291826117c7565b0390f35b610468565b3461182b57611822366004610e55565b929190916160e2565b610468565b9095949261187b9461186a6118749261186060809661185660a088019c5f890190610b30565b6020870190610afc565b6040850190610afc565b6060830190610b3d565b0190610658565b565b346118b2576118ae6118996118933660046106be565b906160eb565b916118a5959395610462565b95869586611830565b0390f35b610468565b90916060828403126118ec576118e96118d2845f850161048e565b936118e0816020860161048e565b93604001610f67565b90565b61046c565b906118fb906106ee565b5f5260205260405f2090565b90611911906106ee565b5f5260205260405f2090565b5490565b5f5260205f2090565b6119338161191d565b82101561194d57611945600191611921565b910201905f90565b610fed565b6119629060086119679302611116565b610828565b90565b906119759154611952565b90565b9061198761198c9260096118f1565b611907565b6119958161191d565b8210156119b2576119af916119a99161192a565b9061196a565b90565b5f80fd5b346119e7576119e36119d26119cc3660046118b7565b91611978565b6119da610462565b918291826115f0565b0390f35b610468565b90602082820312611a0557611a02915f0161053b565b90565b61046c565b90611a1490610fcb565b5f5260205260405f2090565b90565b611a33906008611a389302611116565b611a20565b90565b90611a469154611a23565b90565b611a5f90611a5a6011915f92611a0a565b611a3b565b90565b90565b611a6e90611a62565b9052565b9190611a85905f60208501940190611a65565b565b34611ab757611ab3611aa2611a9d3660046119ec565b611a49565b611aaa610462565b91829182611a72565b0390f35b610468565b611acc906008611ad19302611116565b610804565b90565b90611adf9154611abc565b90565b611aee60035f90611ad4565b90565b34611b2157611b013660046115bd565b611b1d611b0c611ae2565b611b14610462565b9182918261166e565b0390f35b610468565b5190565b60209181520190565b60200190565b611b429061051b565b9052565b611b4f90611a62565b9052565b90602080611b7593611b6b5f8201515f860190611b39565b0151910190611b46565b565b90611b8481604093611b53565b0190565b60200190565b90611bab611ba5611b9e84611b26565b8093611b2a565b92611b33565b905f5b818110611bbb5750505090565b909192611bd4611bce6001928651611b77565b94611b88565b9101919091611bae565b611bf39160208201915f818403910152611b8e565b90565b34611c2657611c063660046115bd565b611c22611c116162bb565b611c19610462565b91829182611bde565b0390f35b610468565b90611c35906106ee565b5f5260205260405f2090565b90611c4b906106ee565b5f5260205260405f2090565b90611c6190610fcb565b5f5260205260405f2090565b611c7d906008611c829302611116565b61073b565b90565b90611c909154611c6d565b90565b90611cbb92611cb1611cb692611cac600e955f96611c2b565b611c41565b611c57565b611c85565b90565b9190611cd1905f60208501940190610afc565b565b34611d0457611d00611cef611ce936600461054a565b91611c93565b611cf7610462565b91829182611cbe565b0390f35b610468565b611d12906105b8565b90565b90611d1f90611d09565b5f5260205260405f2090565b611d37611d3c91610762565b61085a565b90565b611d499054611d2b565b90565b611d57906014611d15565b90611d635f830161081b565b91611d706001820161081b565b91611d886002611d81818501610927565b9301611d3f565b90565b611d9490610b8b565b9052565b611dcd611dd494611dc3606094989795611db9608086019a5f870190610b3d565b6020850190610b3d565b6040830190611d8b565b0190610601565b565b34611e0a57611e06611df1611dec3660046105de565b611d4c565b90611dfd949294610462565b94859485611d98565b0390f35b610468565b34611e3e57611e28611e2236600461049d565b9161648b565b611e30610462565b80611e3a816104d7565b0390f35b610468565b34611e7357611e6f611e5e611e593660046105de565b616a15565b611e66610462565b9182918261060e565b0390f35b610468565b9694929099989795939161012088019a5f8901611e9491610b3d565b60208801611ea191610601565b60408701611eae91610b3d565b60608601611ebb91610b3d565b60808501611ec891610b3d565b60a08401611ed591610b3d565b60c08301611ee291610b3d565b60e08201611eef91610b3d565b61010001611efc91610b3d565b565b34611f3857611f0e3660046115bd565b611f34611f19616af6565b95611f2b999799959195949294610462565b998a998a611e78565b0390f35b610468565b90565b611f54611f4f611f5992611f3d565b6106eb565b6108fc565b90565b611f67612328611f40565b90565b611f72611f5c565b90565b34611fa557611f853660046115bd565b611fa1611f90611f6a565b611f98610462565b9182918261166e565b0390f35b610468565b34611fda57611fba3660046115bd565b611fd6611fc5616c0c565b611fcd610462565b91829182611a72565b0390f35b610468565b7f000000000000000000000000000000000000000000000000000000000000000090565b34612033576120133660046115bd565b61202f61201e611fdf565b612026610462565b918291826115f0565b0390f35b610468565b7f000000000000000000000000000000000000000000000000000000000000000090565b3461208c5761206c3660046115bd565b612088612077612038565b61207f610462565b918291826115f0565b0390f35b610468565b346120c2576120be6120ad6120a736600461049d565b91616c2c565b6120b5610462565b91829182611cbe565b0390f35b610468565b90565b6120de6120d96120e3926120c7565b6106eb565b6108fc565b90565b6120f060fa6120ca565b90565b6120fb6120e6565b90565b3461212e5761210e3660046115bd565b61212a6121196120f3565b612121610462565b9182918261166e565b0390f35b610468565b90916060828403126121685761216561214e845f85016105cf565b9361215c816020860161048e565b9360400161053b565b90565b61046c565b346121965761217d366004612133565b505050612188610462565b80612192816104d7565b0390f35b610468565b6121a760015f90611c85565b90565b346121da576121ba3660046115bd565b6121d66121c561219b565b6121cd610462565b91829182611cbe565b0390f35b610468565b600311156121e957565b610934565b906121f8826121df565b565b612203906121ee565b90565b61220f906121fa565b9052565b60409061223c612243949695939661223260608401985f850190610658565b6020830190610601565b0190612206565b565b346122785761227461226061225b3660046105de565b616d04565b61226b939193610462565b93849384612213565b0390f35b610468565b9061228790611d09565b5f5260205260405f2090565b60ff1690565b6122a56122aa91610854565b612293565b90565b6122b79054612299565b90565b634e487b7160e01b5f52602260045260245ffd5b90600160028304921680156122ee575b60208310146122e957565b6122ba565b91607f16916122de565b60209181520190565b5f5260205f2090565b905f929180549061232461231d836122ce565b80946122f8565b916001811690815f1461237b575060011461233f575b505050565b61234c9192939450612301565b915f925b81841061236357505001905f808061233a565b60018160209295939554848601520191019290612350565b92949550505060ff19168252151560200201905f808061233a565b906123a09161230a565b90565b906123c36123bc926123b3610462565b93848092612396565b038361098f565b565b6123d090601561227d565b906123dc5f8301610847565b916123e960018201610847565b916123f660028301610847565b9161240360038201610847565b9161241060048301610847565b9161241d600482016122ad565b9161242a6004830161089b565b916124376005820161081b565b916124446006830161081b565b916124516007820161081b565b9161245e6008830161081b565b9161246b6009820161081b565b91612484600b61247d600a850161081b565b93016123a3565b90565b5190565b60209181520190565b90825f9392825e0152565b6124be6124c76020936124cc936124b581612487565b9384809361248b565b95869101612494565b610971565b0190565b9c9a9896949290918d9c9a989694926101c08e019e5f016124f091610658565b60208d016124fd91610658565b60408c0161250a91610658565b60608b0161251791610658565b60808a0161252491610658565b60a0890161253191612206565b60c0880161253e91610601565b60e0870161254b91610b3d565b610100860161255991610b3d565b610120850161256791610b3d565b610140840161257591610b3d565b610160830161258391610b3d565b610180820161259191610b3d565b808203906101a001526125a39161249f565b90565b346125e9576125e56125c16125bc3660046105de565b6123c5565b9a6125dc9e9c9e9a919a999299989398979497969596610462565b9e8f9e8f6124d0565b0390f35b610468565b7f000000000000000000000000000000000000000000000000000000000000000090565b34612642576126223660046115bd565b61263e61262d6125ee565b612635610462565b918291826115f0565b0390f35b610468565b61265360045f90611ad4565b90565b34612686576126663660046115bd565b612682612671612647565b612679610462565b9182918261166e565b0390f35b610468565b346126ba576126a461269e36600461049d565b91616d32565b6126ac610462565b806126b6816104d7565b0390f35b610468565b346126f1576126db6126d23660046114c5565b939290926170f3565b6126e3610462565b806126ed816104d7565b0390f35b610468565b9061270090610fcb565b5f5260205260405f2090565b9061271690611d09565b5f5260205260405f2090565b61273b61274092612736600d935f946126f6565b61270c565b611ad4565b90565b346127745761277061275f612759366004610df4565b90612722565b612767610462565b9182918261166e565b0390f35b610468565b5190565b60209181520190565b60200190565b9061279981602093611b39565b0190565b60200190565b906127c06127ba6127b384612779565b809361277d565b92612786565b905f5b8181106127d05750505090565b9091926127e96127e3600192865161278c565b9461279d565b91019190916127c3565b6128089160208201915f8184039101526127a3565b90565b3461283c5761283861282761282136600461049d565b9161750d565b61282f610462565b918291826127f3565b0390f35b610468565b5f80fd5b67ffffffffffffffff811161285d5760208091020190565b61097b565b5f80fd5b9092919261287b61287682612845565b6109b8565b93818552602080860192028301928184116128b857915b83831061289f5750505050565b602080916128ad848661053b565b815201920191612892565b612862565b9080601f830112156128db578160206128d893359101612866565b90565b612841565b9060808282031261293a576128f7815f840161048e565b92612905826020850161048e565b92612913836040830161048e565b92606082013567ffffffffffffffff81116129355761293292016128bd565b90565b610470565b61046c565b346129715761295b6129523660046128e0565b92919091617899565b612963610462565b8061296d816104d7565b0390f35b610468565b90612980906106ee565b5f5260205260405f2090565b90612996906106ee565b5f5260205260405f2090565b906129ac90610fcb565b5f5260205260405f2090565b906129e0926129d66129db926129d1600f955f96612976565b61298c565b6129a2565b611ad4565b90565b34612a1457612a106129ff6129f936600461054a565b916129b8565b612a07610462565b9182918261166e565b0390f35b610468565b5190565b60209181520190565b60200190565b612a3590610474565b9052565b90602080612a5b93612a515f8201515f860190612a2c565b0151910190612a2c565b565b90612a6a81604093612a39565b0190565b60200190565b90612a91612a8b612a8484612a19565b8093612a1d565b92612a26565b905f5b818110612aa15750505090565b909192612aba612ab46001928651612a5d565b94612a6e565b9101919091612a94565b612ad99160208201915f818403910152612a74565b90565b34612b0c57612b08612af7612af23660046119ec565b617a90565b612aff610462565b91829182612ac4565b0390f35b610468565b34612b4157612b3d612b2c612b273660046119ec565b617aaf565b612b34610462565b91829182612ac4565b0390f35b610468565b34612b7557612b5f612b5936600461049d565b91617ace565b612b67610462565b80612b71816104d7565b0390f35b610468565b90565b612b91612b8c612b9692612b7a565b6106eb565b610474565b90565b612ba360ff612b7d565b90565b612bae612b99565b90565b34612be157612bc13660046115bd565b612bdd612bcc612ba6565b612bd4610462565b91829182611cbe565b0390f35b610468565b7f000000000000000000000000000000000000000000000000000000000000000090565b34612c3a57612c1a3660046115bd565b612c36612c25612be6565b612c2d610462565b918291826115f0565b0390f35b610468565b34612c6e57612c58612c52366004610df4565b90618288565b612c60610462565b80612c6a816104d7565b0390f35b610468565b34612c9a57612c833660046105de565b50612c8c610462565b80612c96816104d7565b0390f35b610468565b90565b612cb6612cb1612cbb92612c9f565b6106eb565b6108fc565b90565b612cc9612710612ca2565b90565b612cd4612cbe565b90565b34612d0757612ce73660046115bd565b612d03612cf2612ccc565b612cfa610462565b9182918261166e565b0390f35b610468565b919060a083820312612d5d57612d24815f85016105cf565b92612d32826020830161048e565b92612d5a612d43846040850161048e565b93612d51816060860161048e565b9360800161048e565b90565b61046c565b612d6b906121fa565b9052565b612d78906105fc565b9052565b9061018080612e6d93612d955f8201515f860190611b39565b612da760208201516020860190611b39565b612db960408201516040860190611b39565b612dcb60608201516060860190611b39565b612ddd60808201516080860190612d62565b612def60a082015160a0860190612d6f565b612e0160c082015160c0860190610b7e565b612e1360e082015160e0860190610b7e565b612e27610100820151610100860190612a2c565b612e3b610120820151610120860190612a2c565b612e4f610140820151610140860190612a2c565b612e63610160820151610160860190612a2c565b0151910190612d6f565b565b9190612e83905f6101a08501940190612d7c565b565b34612eb957612eb5612ea4612e9b366004612d0c565b939290926183e9565b612eac610462565b91829182612e6f565b0390f35b610468565b612ed2612ecc3660046106be565b906185ac565b612eda610462565b80612ee4816104d7565b0390f35b34612f1757612f01612efb3660046106be565b906187cc565b612f09610462565b80612f13816104d7565b0390f35b610468565b34612f5057612f4c612f3b612f32366004610e55565b929190916189e1565b612f43610462565b9182918261060e565b0390f35b610468565b90612f5f906106ee565b5f5260205260405f2090565b90612f75906106ee565b5f5260205260405f2090565b90612f8b906106ee565b5f5260205260405f2090565b612fa3612fa891610789565b61085a565b90565b612fb59054612f97565b90565b612fd59291612fcb612fd092600b612f55565b612f6b565b612f81565b90612fe15f8301610755565b91612fed5f820161077c565b916130045f612ffd818501612fab565b93016107d0565b90565b61303c61304394613032606094989795613028608086019a5f870190610afc565b6020850190610afc565b6040830190610601565b0190610afc565b565b3461307a5761307661306161305b36600461049d565b91612fb8565b9061306d949294610462565b94859485613007565b0390f35b610468565b90916060828403126130b4576130b161309a845f85016105cf565b936130a8816020860161053b565b9360400161128a565b90565b61046c565b346130e2576130c936600461307f565b5050506130d4610462565b806130de816104d7565b0390f35b610468565b90565b6130fe6130f9613103926130e7565b6106eb565b6108fc565b90565b6131116102ee6130ea565b90565b61311c613106565b90565b3461314f5761312f3660046115bd565b61314b61313a613114565b613142610462565b9182918261166e565b0390f35b610468565b346131855761318161317061316a36600461049d565b91618bf1565b613178610462565b9182918261060e565b0390f35b610468565b5f80fd5b90565b5f1b90565b906131a260ff91613191565b9181191691161790565b90565b906131c46131bf6131cb926106ee565b6131ac565b8254613196565b9055565b90565b6131e66131e16131eb926131cf565b6106eb565b610474565b90565b60081b90565b9061320161ff00916131ee565b9181191691161790565b9061322061321b613227926106ee565b6131ac565b82546131f4565b9055565b60101b90565b9061323f62ff00009161322b565b9181191691161790565b613252906105fc565b90565b90565b9061326d61326861327492613249565b613255565b8254613231565b9055565b60181b90565b9061328d63ff00000091613278565b9181191691161790565b906132ac6132a76132b3926106ee565b6131ac565b825461327e565b9055565b90565b90565b6132d16132cc6132d6926131cf565b6106eb565b610510565b90565b6132e2906132bd565b90565b90565b6132fc6132f7613301926132e5565b6106eb565b610474565b90565b634e487b7160e01b5f52601260045260245ffd5b61332461332a91610474565b91610474565b908115613335570690565b613304565b90565b61335161334c6133569261333a565b6106eb565b610474565b90565b90565b61336861336d916108fc565b613359565b9052565b60f81b90565b61338090613371565b90565b61338f61339491610474565b613377565b9052565b60016133db946133cb602083999895966133c382876133bb6133d399899c61335c565b01809261335c565b018092613383565b018092613383565b018092613383565b0190565b60200190565b5190565b6133f56133fa91610736565b611389565b90565b61341161340c61341692610474565b6106eb565b6108fc565b90565b61342561342b916108fc565b916108fc565b908115613436570690565b613304565b61344f61344a613454926108fc565b6106eb565b610474565b90565b5490565b5f5260205f2090565b61346d81613457565b8210156134875761347f60019161345b565b910201905f90565b610fed565b634e487b7160e01b5f52601160045260245ffd5b6134ac6134b291610474565b91610474565b90039060ff82116134bf57565b61348c565b1b90565b919060086134e89102916134e260018060a01b03846134c4565b926134c4565b9181191691161790565b90565b919061350b61350661351393610fcb565b6134f2565b9083546134c8565b9055565b60016135239101610474565b90565b61352f90610fbf565b90565b61353e61354491610474565b91610474565b029061354f82610474565b91820361355857565b61348c565b61356961356f91610474565b91610474565b019060ff821161357b57565b61348c565b5f80fd5b60e01b90565b5f91031261359457565b61046c565b91946135e16135eb929897956135d760a0966135cd6135f29a6135c360c08a019e5f8b0190610afc565b6020890190610afc565b6040870190610afc565b6060850190610afc565b6080830190610658565b0190610658565b565b6135fc610462565b3d5f823e3d90fd5b61361081838591616c2c565b9161367a61363c613637613630613629600b8790612f55565b8590612f6b565b8790612f81565b61318e565b613648855f83016131af565b61365c6136545f6131d2565b5f830161320b565b61366960015f8301613258565b5f613673816131d2565b9101613297565b8361368d6136875f6131d2565b91610474565b14613699575b50505050565b909192936136bb6136b66136af600986906118f1565b8490611907565b6132b7565b906136da6136d56136ce6008879061070a565b8590610720565b6132ba565b6136e35f6132d9565b906137026136f25f83016107f7565b6136fc60026132e8565b90613318565b61371561370f600161333d565b91610474565b14613884575b506137255f6131d2565b5b8061373961373389610474565b91610474565b101561383e5761374830613526565b90632ad7e3bf8787938b928461377b6137758b61376f8961376960026132e8565b90613532565b90613464565b9061196a565b916137b66137b08c6137aa61379a8b61379460026132e8565b90613532565b6137a4600161333d565b9061355d565b90613464565b9061196a565b95843b15613839575f966137de9488946137e9936137d2610462565b9c8d9a8b998a98613584565b885260048801613599565b03925af19182156138345761380392613808575b50613517565b613726565b613827905f3d811161382d575b61381f818361098f565b81019061358a565b5f6137fd565b503d613815565b6135f4565b613580565b509293949150948261386061385a6138555f6132d9565b61051b565b9161051b565b0361386c575b50613693565b61387a9493909192936170f3565b5f80808080613866565b905061398c6139026138fd6138e4446138cc42916138bd8c8c6138a85f8c016107f7565b916138b1610462565b96879560208701613398565b6020820181038252038261098f565b6138de6138d8826133e5565b916133df565b206133e9565b6138f76138f25f87016107f7565b6133fd565b90613419565b61343b565b9161395c61391a613914878690613464565b9061196a565b9361395661394f613949896139436139335f89016107f7565b61393d600161333d565b906134a0565b90613464565b9061196a565b9188613464565b906134f5565b61398683916139806139705f8993016107f7565b61397a600161333d565b906134a0565b90613464565b906134f5565b5f61371b565b9061399c906106ee565b5f5260205260405f2090565b90565b6139b490610b18565b90565b90565b906139cf6139ca6139d6926139ab565b6139b7565b8254613231565b9055565b906139eb60018060a01b0391613191565b9181191691161790565b90613a0a613a05613a1192610fcb565b6134f2565b82546139da565b9055565b90505190613a2282610527565b565b9190604083820312613a4c5780613a40613a49925f8601613a15565b93602001613a15565b90565b61046c565b91613a70613a6b613a646008869061070a565b8490610720565b6132ba565b613a84613a7f60028690613992565b6139a8565b90613a9260025f83016139ba565b613a9e60038201610847565b613ab8613ab2613aad5f6132d9565b61051b565b9161051b565b14613ad7575b505050613acf613ad49260096118f1565b611907565b50565b613b246003613b2a92613aec868383016139f5565b613b1e613af9600161333d565b613b19613b12613b0b600e8d90611c2b565b8b90611c41565b8990611c57565b6131af565b01610874565b156105fc565b613b35575b80613abe565b926040613b6f613b5d613b4d6008613b9f9801610755565b613b57600161333d565b906134a0565b839086613b695f6131d2565b92618f88565b613b7830613526565b613b94631ec3b8ad613b88610462565b98899485938493613584565b8352600483016117c7565b03915afa918215613c7257613ad494613acf935f80929091613c41575b509091613bd1613bcb8361051b565b9161051b565b145f14613c3a57505b80613bf5613bef613bea5f6132d9565b61051b565b9161051b565b03613c02575b5092613b2f565b613c3490613c2f613c1360026132e8565b91613c2a613c23600e8790611c2b565b8890611c41565b611c57565b6131af565b5f613bfb565b9050613bda565b9050613c64915060403d8111613c6b575b613c5c818361098f565b810190613a24565b905f613bbc565b503d613c52565b6135f4565b5f90565b50613c84613c77565b505f90565b5f90565b50613c96613c89565b50613c9f613c89565b50613ca95f6132d9565b90613cb35f6132d9565b90565b5f90565b91613cf0613cf592613ceb613cfa95613cd1613cb6565b50613cda613cb6565b50613ce3613c77565b50600b612f55565b612f6b565b612f81565b61318e565b90613d065f8301610755565b90613d1d5f613d1681860161077c565b9401612fab565b91929190565b613d37613d32613d3c926131cf565b6106eb565b6108fc565b90565b613d53613d4e613d589261333a565b6106eb565b6108fc565b90565b613d6a613d70919392936108fc565b926108fc565b8203918211613d7b57565b61348c565b91906008613d9b910291613d955f19846134c4565b926134c4565b9181191691161790565b613dae90610736565b90565b9190613dc7613dc2613dcf93611d09565b613da5565b908354613d80565b9055565b90613ddf5f1991613191565b9181191691161790565b90565b90613e01613dfc613e0892611389565b613de9565b8254613dd3565b9055565b90565b634e487b7160e01b5f52603160045260245ffd5b5490565b5f5260205f2090565b613e3981613e23565b821015613e5357613e4b600191613e27565b910201905f90565b610fed565b5f90565b613e6e91613e68613e58565b91613db1565b565b613e7981613e23565b8015613e9a576001900390613e97613e918383613e30565b90613e5c565b55565b613e0f565b9190613eb5613eb0613ebd93611389565b613de9565b908354613d80565b9055565b5f90565b613ed791613ed1613ec1565b91613e9f565b565b90613eee613ee9600c8490611711565b611727565b613f00613efa5f613d23565b916108fc565b1461400457613f9a5f91613f95613f9f94613f2f613f2a613f23600d84906126f6565b859061270c565b61081b565b613f56613f46613f41600c8590611711565b611727565b613f506001613d3f565b90613d5b565b9080613f6a613f64846108fc565b916108fc565b03613fa1575b5050613f8e613f89613f84600c8490611711565b613e0c565b613e70565b600d6126f6565b61270c565b613ec5565b565b613ff8613fc5613fbf613ffd94613fba600c8890611711565b611734565b90611777565b91613fe683613fe0613fd9600c8990611711565b8490611734565b90613db1565b91613ff3600d86906126f6565b61270c565b613dec565b5f80613f70565b5050565b90565b90565b61401d614023919392936108fc565b926108fc565b820180921161402e57565b61348c565b9261403c613c77565b506140655f61405f61405a6140536008899061070a565b8690610720565b6132ba565b016107a9565b6140786140726001610b18565b91610b18565b0361423d5761408b928492909192618f88565b61409f61409a6015839061227d565b614008565b906140ab5f8301610847565b6140c56140bf6140ba5f6132d9565b61051b565b9161051b565b148015614216575b61420f576140e7426140e16008850161081b565b90613d5b565b6140f360038401610847565b61410f6141096141045f8701610847565b61051b565b9161051b565b145f146141f85761413461412e6141286009860161081b565b5b6108fc565b916108fc565b106141f15761414761414c916014611d15565b61400b565b9161416261415c60028501611d3f565b156105fc565b61418b57505061418661418061417b600142940161081b565b6108fc565b916108fc565b101590565b6141d99250600360026141cb6141b860086141b16141ac6141d39786613992565b6139a8565b960161081b565b6141c55f8488010161081b565b9061400e565b93010161081b565b9061400e565b6141ec6141e642926108fc565b916108fc565b101590565b5050505f90565b61413461412e61420a600a860161081b565b614129565b5050505f90565b50614223600483016122ad565b61423661423060016121ee565b916121ee565b14156140cd565b505050505f90565b61425161425691610736565b61085a565b90565b6142639054614245565b90565b61426f90610fbf565b90565b61427b90610fa3565b90565b61428790614272565b90565b61429390610474565b60ff81146142a15760010190565b61348c565b6142af90610fbf565b90565b905051906142bf82611276565b565b600311156142cb57565b5f80fd5b905051906142dc826142c1565b565b9091606082840312614313576143106142f9845f8501613a15565b9361430781602086016142b2565b936040016142cf565b90565b61046c565b929190614323613c77565b5061435561434f61434a61434361433c600a89906110d4565b85906110ea565b8690611100565b614259565b156105fc565b6146c95761436d61436894929430614266565b61427e565b916143775f6131d2565b905b8161438c61438688610474565b91610474565b116144fc576143b96143b46143ad6143a6600b8590612f55565b8690612f6b565b8490612f81565b61318e565b956143c35f6131d2565b5b806143e16143db6143d65f8c01610755565b610474565b91610474565b10156144e85761442a60606143fa858888908692618f88565b614403896142a6565b61441f6397556f67614413610462565b95869485938493613584565b8352600483016117c7565b03915afa80156144e3575f80809390926144b1575b50909161445561444f60026121ee565b916121ee565b149081614496575b509081614485575b506144785761447390613517565b6143c4565b5050505050505050600190565b6144909150156105fc565b5f614465565b90506144aa6144a48a61051b565b9161051b565b145f61445d565b9150506144d5915060603d81116144dc575b6144cd818361098f565b8101906142de565b915f61443f565b503d6144c3565b6135f4565b50916144f591965061428a565b9094614379565b905061452661451561451060028490613992565b6139a8565b95614520600161333d565b9061355d565b905b8161454661454061453b60088a01610755565b610474565b91610474565b10156146bf5761457461456f614568614561600b8590612f55565b8690612f6b565b8490612f81565b61318e565b956145896145835f8901612fab565b156105fc565b6146b3576145965f6131d2565b5b806145b46145ae6145a95f8c01610755565b610474565b91610474565b101561469e576145fd60406145cd858888908692618f88565b6145d6896142a6565b6145f2631ec3b8ad6145e6610462565b95869485938493613584565b8352600483016117c7565b03915afa8015614699575f80929091614668575b5061462461461e8a61051b565b9161051b565b1490811561464d575b506146405761463b90613517565b614597565b5050505050505050600190565b905061466161465b8961051b565b9161051b565b145f61462d565b905061468b915060403d8111614692575b614683818361098f565b810190613a24565b905f614611565b503d614679565b6135f4565b50916146ac9196505b613517565b9094614528565b916146ac9196506146a7565b5050505050505f90565b505050505f90565b94919293909361471d6146e8878787908592618f88565b60406146f330613526565b631ec3b8ad906147128492614706610462565b96879485938493613584565b8352600483016117c7565b03915afa9182156148d357614747925f809290916148a0575b50614742908390613ed9565b613ed9565b61475183156105fc565b614839575b505061478061477b61477461476d600b8890612f55565b8690612f6b565b8490612f81565b61318e565b9061479e5f83016147986147938261077c565b61428a565b9061320b565b614817575b6147ca6147c46147bf5f6147b881860161077c565b9401610755565b610474565b91610474565b146147d5575b505050565b826147e56147f294848491618bf1565b6147fa575b9190916149ab565b5f80806147d0565b61480681848491615800565b61481281848491616d32565b6147ea565b6148345f820161482e614829826107d0565b61428a565b90613297565b6147a3565b61484d61484860028890613992565b6139a8565b61487e6148786148736148636008899501610755565b61486d600161333d565b906134a0565b610474565b91610474565b10614889575b614756565b61489991869186869192936170f3565b5f80614884565b61474292506148c6915060403d81116148cc575b6148be818361098f565b810190613a24565b91614736565b503d6148b4565b6135f4565b90565b6148ef6148ea6148f4926148d8565b6106eb565b610474565b90565b6149169061491061490a61491b94610474565b916108fc565b906134c4565b6108fc565b90565b60b81b90565b9061493360ff60b81b9161491e565b9181191691161790565b61494690610b59565b90565b90565b9061496161495c6149689261493d565b614949565b8254614924565b9055565b60a01b90565b9061498160ff60a01b9161496c565b9181191691161790565b906149a061499b6149a792613249565b613255565b8254614972565b9055565b6149d36149ce6149c76149c0600b8590612f55565b8590612f6b565b8590612f81565b61318e565b926149f26149ed6149e66008859061070a565b8590610720565b6132ba565b93614a07614a0260028590613992565b6139a8565b9082614a39614a33614a2e614a1e60088701610755565b614a28600161333d565b906134a0565b610474565b91610474565b148015615790575b5f14614c3357505090614a63614a9892829085614a5d5f6131d2565b92618f88565b6060614a6e30613526565b6397556f6790614a8d8492614a81610462565b97889485938493613584565b8352600483016117c7565b03915afa928315614c2e57614ae7935f80929091614bfb575b506040909192614ac030613526565b614adc631ec3b8ad614ad0610462565b98899485938493613584565b8352600483016117c7565b03915afa8015614bf6575f80959091614bc3575b5093915f14614ba25750614b9690614b36614b9e96614b1e60016003830161498b565b614b2c60026003830161494c565b60038691016139f5565b614b68614b43600161333d565b614b63614b5c614b55600e8890611c2b565b8990611c41565b8790611c57565b6131af565b614b91614b75600161333d565b91614b8c614b85600e8790611c2b565b8890611c41565b611c57565b6131af565b919091613a51565b5b5b565b925050614bb6614bbe9460035f910161494c565b919091613a51565b614b9f565b9050614be791945060403d8111614bef575b614bdf818361098f565b810190613a24565b93905f614afb565b503d614bd5565b6135f4565b60409250614c20915060603d8111614c27575b614c18818361098f565b8101906142de565b5091614ab1565b503d614c0e565b6135f4565b909194614c415f83016107d0565b614c5d614c57614c525f8601610755565b610474565b91610474565b148061576c575b5f14614c8d57505050614c8792614c7d8284839161750d565b9192909192617899565b5b614ba0565b614cb6614ca6614c9f60088601610755565b88906134a0565b614cb0600161333d565b906134a0565b80614cc9614cc35f6131d2565b91610474565b1180615750575b61548b575b505f614d1f91614cfa614cf289614cec600161333d565b9061355d565b838301613297565b614d198688614d138b614d0d600161333d565b9061355d565b91617ace565b016107a9565b614d32614d2c6002610b18565b91610b18565b1461548457614d72614d6d614d53614d4c600b8790612f55565b8790612f6b565b614d6788614d61600161333d565b9061355d565b90612f81565b61318e565b614d7d5f8201612fab565b908161545f575b506152d0575b50614d9f84614d99600161333d565b9061355d565b90614dd1614dcb614dc6614db66008869501610755565b614dc0600161333d565b906134a0565b610474565b91610474565b14614de0575b50505050614c88565b6040614dfb614e2b92849086614df55f6131d2565b92618f88565b614e0430613526565b614e20631ec3b8ad614e14610462565b95869485938493613584565b8352600483016117c7565b03915afa80156152cb575f8092909161529a575b509081614e5c614e56614e515f6132d9565b61051b565b9161051b565b141580615278575b81614e7f614e79614e745f6132d9565b61051b565b9161051b565b141580615256575b8190811561524e575b50614e9d575b5050614dd7565b5f1461524757505b90614ed3614ebf82858790614eb95f6131d2565b92618f88565b94829085614ecd600161333d565b92618f88565b614f0b6060614ee130613526565b6397556f6790614f008992614ef4610462565b95869485938493613584565b8352600483016117c7565b03915afa95861561524257614f5c965f8093909161520e575b5091906060614f3230613526565b6397556f6790614f518792614f45610462565b9c8d9485938493613584565b8352600483016117c7565b03915afa8015615209575f809990916151ca575b50906040614fac9493929991614f8530613526565b614fa1631ec3b8ad614f95610462565b98899485938493613584565b8352600483016117c7565b03915afa80156151c5575f8095909161518c575b50906040614ffa929596614fd330613526565b614fef631ec3b8ad614fe3610462565b96879485938493613584565b8352600483016117c7565b03915afa998a156151875761508d9a5f80949091615154575b50929361501f5f6132d9565b9561503261502c8c61051b565b9161051b565b149081615143575b505f146150d7575050505050806150596150538661051b565b9161051b565b145f146150d057505b5b8061507e6150786150735f6132d9565b61051b565b9161051b565b03615098575b50919091613a51565b5f8080808080614e96565b6150ca906150c56150a960026132e8565b916150c06150b9600e8790611c2b565b8890611c41565b611c57565b6131af565b5f615084565b9050615062565b919395509193506150f06150ea8861051b565b9161051b565b149081615132575b50615105575b5050615063565b8091925061511b6151158661051b565b9161051b565b145f1461512b57505b5f806150fe565b9050615124565b61513d9150156105fc565b5f6150f8565b61514e9150156105fc565b5f61503a565b905061517891935060403d8111615180575b615170818361098f565b810190613a24565b92905f615013565b503d615166565b6135f4565b60409550614ffa9291506151b590863d81116151be575b6151ad818361098f565b810190613a24565b95509091614fc0565b503d6151a3565b6135f4565b60409950614fac94939291506151f69060603d8111615202575b6151ee818361098f565b8101906142de565b50995090919293614f70565b503d6151e4565b6135f4565b905061523291925060603d811161523b575b61522a818361098f565b8101906142de565b92919092614f24565b503d615220565b6135f4565b9050614ea5565b90505f614e90565b508261527261526c6152675f6132d9565b61051b565b9161051b565b14614e87565b508061529461528e6152895f6132d9565b61051b565b9161051b565b14614e64565b90506152bd915060403d81116152c4575b6152b5818361098f565b810190613a24565b905f614e3f565b503d6152ab565b6135f4565b93946152df5f949392946132d9565b936152e95f6131d2565b946152f35f6131d2565b5b8061531161530b6153065f8c01610755565b610474565b91610474565b101561542d5761535a606061532a87898d908692618f88565b61533330613526565b61534f6397556f67615343610462565b95869485938493613584565b8352600483016117c7565b03915afa908115615428575f80809290936153f5575b50919061538661538060026121ee565b916121ee565b14806153d2575b90816153c1575b506153a9575b506153a490613517565b6152f4565b6153a4919792506153ba909261428a565b969061539a565b6153cc9150156105fc565b5f615394565b50816153ee6153e86153e35f6132d9565b61051b565b9161051b565b141561538d565b915050615419915060603d8111615421575b615411818361098f565b8101906142de565b90915f615370565b503d615407565b6135f4565b5091969550919293615448615442600161333d565b91610474565b03614d8a5791905061545d9350919091613a51565b565b61546b91505f01610755565b61547d6154775f6131d2565b91610474565b145f614d84565b5050505050565b6154bd6154c2916154b86154b260019b96999b9a97959a926154ad6001613d3f565b6148f7565b91613d3f565b61400e565b61343b565b946154cc5f6131d2565b5b806154ea6154e46154df5f8601610755565b610474565b91610474565b101561574357615536615501878b88908592618f88565b606061550c30613526565b6397556f679061552b849261551f610462565b96879485938493613584565b8352600483016117c7565b03915afa91821561573e575f8080929094615709575b50929061556261555c60026121ee565b916121ee565b1490816156f8575b50806156d5575b615586575b505061558190613517565b6154cd565b60406155bc9161559530613526565b6155b1631ec3b8ad6155a5610462565b95869485938493613584565b8352600483016117c7565b03915afa80156156d0575f8092909161569f575b5090916155e56155df8361051b565b9161051b565b145f1461569857505b898161560a6156046155ff5f6132d9565b61051b565b9161051b565b141580615657575b61561c575b615576565b6156509061564b61558194936156466156348d61428a565b9c936156418d600e611c2b565b611c41565b611c57565b6131af565b9089615617565b5061568061567b61567461566d600e8c90611c2b565b8490611c41565b8490611c57565b610755565b61569261568c5f6131d2565b91610474565b14615612565b90506155ee565b90506156c2915060403d81116156c9575b6156ba818361098f565b810190613a24565b905f6155d0565b503d6156b0565b6135f4565b50816156f16156eb6156e65f6132d9565b61051b565b9161051b565b1415615571565b6157039150156105fc565b5f61556a565b91505061572e91925060603d8111615737575b615726818361098f565b8101906142de565b9092915f61554c565b503d61571c565b6135f4565b509196945091945f614cd5565b508061576561575f60036148db565b91610474565b1115614cd0565b506157785f8301610755565b61578a6157845f6131d2565b91610474565b11614c64565b50826157a461579e5f6131d2565b91610474565b11806157db575b806157b6575b614a41565b506157c25f820161077c565b6157d56157cf600161333d565b91610474565b146157b1565b506157e75f8201610755565b6157fa6157f4600161333d565b91610474565b146157ab565b9061581561581060028490613992565b6139a8565b61584661584061583b61582b6008889501610755565b615835600161333d565b906134a0565b610474565b91610474565b1015615bc55761585882828591616c2c565b926158625f6131d2565b5b8061587661587087610474565b91610474565b1015615bbb576158908161588a600161333d565b9061355d565b6158a261589c87610474565b91610474565b1015615bb35761590e906158ba858585908492618f88565b60606158dd878787906158d7876158d1600161333d565b9061355d565b92618f88565b916158e730613526565b6159036397556f676158f7610462565b97889485938493613584565b8352600483016117c7565b03915afa928315615bae5761595f935f8080939092615b78575b5060609091929361593830613526565b6159546397556f67615948610462565b998a9485938493613584565b8352600483016117c7565b03915afa928315615b73576159f7955f8080929096615b3e575b5094908261599061598a60026121ee565b916121ee565b1480615b1b575b80615b0b575b80615af0575b80615ac0575b615aac575b6159c16159bb60026121ee565b916121ee565b1480615a89575b9081615a78575b509081615a5c575b509182615a26575b50506159fc575b506159f160026132e8565b9061355d565b615863565b615a20908690868690615a1986615a13600161333d565b9061355d565b92936170f3565b5f6159e6565b909150908115615a39575b505f806159df565b9050615a55615a4f615a4a5f6132d9565b61051b565b9161051b565b145f615a31565b9050615a71615a6b60026121ee565b916121ee565b145f6159d7565b615a839150156105fc565b5f6159cf565b5084615aa5615a9f615a9a5f6132d9565b61051b565b9161051b565b14156159c8565b615abb8b8b8b8a9188936170f3565b6159ae565b50818015615ace575b6159a9565b5085615aea615ae4615adf5f6132d9565b61051b565b9161051b565b14615ac9565b5080615b05615aff60026121ee565b916121ee565b146159a3565b50615b1685156105fc565b61599d565b5083615b37615b31615b2c5f6132d9565b61051b565b9161051b565b1415615997565b915050615b6391945060603d8111615b6c575b615b5b818361098f565b8101906142de565b9094915f615979565b503d615b51565b6135f4565b90506060809350615b9e92503d8111615ba7575b615b96818361098f565b8101906142de565b92919091615928565b503d615b8c565b6135f4565b50505050505b565b5050505050615bb9565b505050565b615bd2613ec1565b50615bdc5f613d23565b90565b615be7618ffe565b615f10565b5f7f4d41000000000000000000000000000000000000000000000000000000000000910152565b615c20600260209261248b565b615c2981615bec565b0190565b615c429060208101905f818303910152615c13565b90565b15615c4c57565b615c54610462565b62461bcd60e51b815280615c6a60048201615c2d565b0390fd5b5f7f4e50000000000000000000000000000000000000000000000000000000000000910152565b615ca2600260209261248b565b615cab81615c6e565b0190565b615cc49060208101905f818303910152615c95565b90565b15615cce57565b615cd6610462565b62461bcd60e51b815280615cec60048201615caf565b0390fd5b5f7f4f54000000000000000000000000000000000000000000000000000000000000910152565b615d24600260209261248b565b615d2d81615cf0565b0190565b615d469060208101905f818303910152615d17565b90565b15615d5057565b615d58610462565b62461bcd60e51b815280615d6e60048201615d31565b0390fd5b5f7f544f000000000000000000000000000000000000000000000000000000000000910152565b615da6600260209261248b565b615daf81615d72565b0190565b615dc89060208101905f818303910152615d99565b90565b15615dd257565b615dda610462565b62461bcd60e51b815280615df060048201615db3565b0390fd5b604090615e1d615e249496959396615e1360608401985f8501906117ba565b6020830190610afc565b0190610b3d565b565b67ffffffffffffffff8111615e4457615e40602091610971565b0190565b61097b565b90615e5b615e5683615e26565b6109b8565b918252565b606090565b3d5f14615e8057615e753d615e49565b903d5f602084013e5b565b615e88615e60565b90615e7e565b5f7f4d53000000000000000000000000000000000000000000000000000000000000910152565b615ec2600260209261248b565b615ecb81615e8e565b0190565b615ee49060208101905f818303910152615eb5565b90565b15615eee57565b615ef6610462565b62461bcd60e51b815280615f0c60048201615ecf565b0390fd5b9290926160985f80615f26848888908892618f88565b616026615f3d615f386015849061227d565b614008565b615f65615f4c600483016122ad565b615f5f615f5960016121ee565b916121ee565b14615c45565b33615f82615f7c615f77878501610847565b61051b565b9161051b565b1480156160b8575b615f9390615cc7565b615fbb33615fb4615fae615fa960038601610847565b61051b565b9161051b565b1415615d49565b61601f616019615fd742615fd16008860161081b565b90613d5b565b92615fe460038201610847565b616000615ffa615ff58a8501610847565b61051b565b9161051b565b1487146160a7576009616013910161081b565b5b6108fc565b916108fc565b1015615dcb565b7f000000000000000000000000000000000000000000000000000000000000000090616081869161607242616059610462565b94859360046020860163501fd27160e11b815201615df4565b6020820181038252038261098f565b602081019051915af4616092615e65565b50615ee7565b92919033915f93600195619054565b600a6160b3910161081b565b616014565b50615f93336160da6160d46160cf60018601610847565b61051b565b9161051b565b149050615f8a565b615bdf565b5f90565b6161349161612a61612f926160fe6160e7565b50616107613cb6565b50616110613cb6565b50616119613ec1565b50616122613c89565b50600861070a565b610720565b6132ba565b906161405f83016107a9565b9161614c5f82016107d0565b926161585f83016107f7565b92616171600361616a6001860161081b565b9401610847565b919493929190565b606090565b67ffffffffffffffff81116161965760208091020190565b61097b565b906161ad6161a88361617e565b6109b8565b918252565b6161bc60406109b8565b90565b5f90565b5f90565b6161cf6161b2565b90602080836161dc6161bf565b8152016161e76161c3565b81525050565b6161f56161c7565b90565b5f5b82811061620657505050565b6020906162116161ed565b81840152016161fa565b906162406162288361619b565b92602080616236869361617e565b92019103906161f8565b565b600161624e91016108fc565b90565b61625d61626291610736565b611a20565b90565b61626f9054616251565b90565b61627c60406109b8565b90565b906162899061051b565b9052565b9061629790611a62565b9052565b906162a582611b26565b8110156162b6576020809102010190565b610fed565b6162c3616179565b506162d66162d1601261191d565b61621b565b6162df5f613d23565b5b806162fc6162f66162f1601261191d565b6108fc565b916108fc565b1015616385576163809061637961631e6163186012849061192a565b9061196a565b616366616349616344601161633e6163386012899061192a565b9061196a565b90611a0a565b616265565b61635d616354616272565b935f850161627f565b6020830161628d565b848391616373838361629b565b5261629b565b5150616242565b6162e0565b5090565b9061639b61639683612845565b6109b8565b918252565b369037565b906163ca6163b283616389565b926020806163c08693612845565b92019103906163a0565b565b906163d682612779565b8110156163e7576020809102010190565b610fed565b6163f86163fe91610474565b91610474565b908115616409570490565b613304565b61645e9461644e600180999895966164466020839961643e8289616436889b6164569d61335c565b01809261335c565b018092613383565b018092613383565b018092613383565b018092613383565b0190565b61646c905161051b565b90565b61647890610474565b5f8114616486576001900390565b61348c565b9192906164b66164b16164aa6164a3600b8790612f55565b8490612f6b565b8690612f81565b61318e565b936164cb6164c55f8701612fab565b156105fc565b616a0e576164d85f6131d2565b936165076165026164fd6164ed5f8a01610755565b6164f760026132e8565b90613532565b6133fd565b6163a5565b936165115f6131d2565b5b8061652f6165296165245f8c01610755565b610474565b91610474565b101561665e57616579906060616549858888908592618f88565b61655230613526565b61656e6397556f67616562610462565b96879485938493613584565b8352600483016117c7565b03915afa8015616659576165c2925f8080929093616626575b5091906165a86165a260026121ee565b916121ee565b149081616615575b50806165f2575b6165c7575b50613517565b616512565b6165ec906165e7896165e16165db8d61428a565b9c6133fd565b906163cc565b61627f565b5f6165bc565b508061660e6166086166035f6132d9565b61051b565b9161051b565b14156165b7565b6166209150156105fc565b5f6165b0565b91505061664a915060603d8111616652575b616642818361098f565b8101906142de565b90915f616592565b503d616638565b6135f4565b5095509290846166766166705f6131d2565b91610474565b1480156169e1575b6169da5761669690616690600161333d565b9061355d565b946166bf6166ba6166b36166ac600b8890612f55565b8690612f6b565b8890612f81565b61318e565b946166e76166d7826166d1600161333d565b906134a0565b6166e160026132e8565b906163ec565b956166fc6166f65f8301612fab565b156105fc565b5f146169c1576167449061671360015f8301613258565b61671f885f83016131af565b61673361672b5f6131d2565b5f830161320b565b5f61673d816131d2565b9101613297565b61681a6167ae6167a961679a8a6167824461677342938d908d8b92616767610462565b9788966020880161640e565b6020820181038252038261098f565b61679461678e826133e5565b916133df565b206133e9565b6167a3856133fd565b90613419565b61343b565b916168156167cd6167c8876167c2876133fd565b906163cc565b616462565b936168106167ff6167fa896167f46167ef886167e9600161333d565b906134a0565b6133fd565b906163cc565b616462565b9161680a89916133fd565b906163cc565b61627f565b61646f565b506168245f6131d2565b5b8061683861683289610474565b91610474565b101561694f5761686c6168678561686161685c8561685660026132e8565b90613532565b6133fd565b906163cc565b616462565b906168ae6168a9866168a361689e61688e8661688860026132e8565b90613532565b616898600161333d565b9061355d565b6133fd565b906163cc565b616462565b6168b730613526565b90632ad7e3bf91899189958d9486919295843b1561694a575f966168ef9488946168fa936168e3610462565b9c8d9a8b998a98613584565b885260048801613599565b03925af19182156169455761691492616919575b50613517565b616825565b616938905f3d811161693e575b616930818361098f565b81019061358a565b5f61690e565b503d616926565b6135f4565b613580565b5092939491509461696a61696560028790613992565b6139a8565b61699b6169956169906169806008869501610755565b61698a600161333d565b906134a0565b610474565b91610474565b106169a9575b50505050505b565b6169b79493909192936170f3565b5f808080806169a1565b505094919290506169d59350919091617ace565b6169a7565b5050505050565b506169f6856169f060026132e8565b90613318565b616a08616a025f6131d2565b91610474565b1461667e565b5050915050565b50616a1e613c77565b505f90565b90565b616a3a616a35616a3f92616a23565b6106eb565b6108fc565b90565b616a51616a57919392936108fc565b926108fc565b91616a638382026108fc565b928184041490151715616a7257565b61348c565b90565b616a8e616a89616a9392616a77565b6106eb565b6108fc565b90565b616aa2616aa8916108fc565b916108fc565b908115616ab3570490565b613304565b90565b616acf616aca616ad492616ab8565b6106eb565b6108fc565b90565b90565b616aee616ae9616af392616ad7565b6106eb565b6108fc565b90565b616afe613ec1565b50616b07613c77565b50616b10613ec1565b50616b19613ec1565b50616b22613ec1565b50616b2b613ec1565b50616b34613ec1565b50616b3d613ec1565b50616b46613ec1565b50616b51600461081b565b90616b5c600361081b565b616b646190c5565b616b8b616b7b82616b756005616a26565b90616a42565b616b856064616a7a565b90616a96565b82616b9e616b98846108fc565b916108fc565b101593616bac838390613d5b565b90616bd4616bc483616bbe6005616a26565b90616a42565b616bce605f616abb565b90616a96565b90616bfc616bec84616be6605a616ada565b90616a42565b616bf6605f616abb565b90616a96565b90616c05619196565b90565b5f90565b616c14616c08565b50616c29616c2460113390611a0a565b616265565b90565b616c34613cb6565b50616c5d5f616c57616c52616c4b6008869061070a565b8690610720565b6132ba565b016107f7565b83616c70616c6a5f6131d2565b91610474565b14616ce55750616cb1616ce293616cab616c9a616cd295616c95616cb696600b612f55565b612f6b565b91616ca5600161333d565b906134a0565b90612f81565b61318e565b616ccc5f616cc5818401610755565b92016107d0565b906134a0565b616cdc60026132e8565b906163ec565b90565b915050616cfd9150616cf760026132e8565b906163ec565b90565b5f90565b50616d0d613c89565b50616d16613c77565b50616d1f616d00565b50616d295f6132d9565b5f915f91929190565b91616d47616d4260028590613992565b6139a8565b616d6f5f616d69616d64616d5d6008899061070a565b8790610720565b6132ba565b016107a9565b616d82616d7c6002610b18565b91610b18565b14616fa457616db8616db2616dad616d9d6008869501610755565b616da7600161333d565b906134a0565b610474565b91610474565b1015616f9f57616dd290616dcc600161333d565b9061355d565b616dfa616df5616dee616de7600b8790612f55565b8590612f6b565b8390612f81565b61318e565b92616e0f616e095f8601612fab565b156105fc565b616f9957616e1c5f6132d9565b94616e265f6131d2565b95616e305f6131d2565b5b80616e4e616e48616e435f8b01610755565b610474565b91610474565b1015616f6057616e976040616e67868989908692618f88565b616e7030613526565b616e8c631ec3b8ad616e80610462565b95869485938493613584565b8352600483016117c7565b03915afa8015616f5b575f80929091616f2a575b5080616ec7616ec1616ebc5f6132d9565b61051b565b9161051b565b03616f16575b5080616ee9616ee3616ede5f6132d9565b61051b565b9161051b565b03616efe575b50616ef990613517565b616e31565b616ef991989250616f0f909261428a565b9790616eef565b616f23919993509261428a565b975f616ecd565b9050616f4d915060403d8111616f54575b616f45818361098f565b810190613a24565b905f616eab565b503d616f3b565b6135f4565b50925094909350616f7a616f74600161333d565b91610474565b14616f85575b505050565b616f9192919091613a51565b5f8080616f80565b50505050565b505050565b50505050565b616fb39061333d565b9052565b604090616fe0616fe79496959396616fd660608401985f8501906117ba565b6020830190616faa565b0190610658565b565b616ff2906131d2565b9052565b60409061701f617026949695939661701560608401985f8501906117ba565b6020830190616fe9565b0190610658565b565b60207f73656c7665730000000000000000000000000000000000000000000000000000917f43616e6e6f74206d6174636820706c6179657220616761696e7374207468656d5f8201520152565b617082602660409261248b565b61708b81617028565b0190565b6170a49060208101905f818303910152617075565b90565b156170ae57565b6170b6610462565b62461bcd60e51b8152806170cc6004820161708f565b0390fd5b9160206170f19294936170ea60408201965f8301906117ba565b0190610afc565b565b939161710990617103600161333d565b9061355d565b9061711e8461711860026132e8565b906163ec565b9161715a6171545f61714e61714961714261713b600b8d90612f55565b8890612f6b565b8690612f81565b61318e565b01612fab565b156105fc565b6174f5575b9061718392617172928792909192618f88565b9261717d60026132e8565b90613318565b61719561718f5f6131d2565b91610474565b145f14617465576171a530613526565b6395dd91769083905f9392813b15617460575f6171d5916171e082966171c9610462565b98899788968795613584565b855260048501616ff6565b03925af1801561745b5761742f575b505b61722960406171ff30613526565b631ec3b8ad9061721e8592617212610462565b95869485938493613584565b8352600483016117c7565b03915afa801561742a575f809290916173f9575b50617276606061724c30613526565b6397556f679061726b879261725f610462565b95869485938493613584565b8352600483016117c7565b03915afa9081156173f4575f8080939150506173c5575b50816172a96172a361729e5f6132d9565b61051b565b9161051b565b1415806173a2575b9081617387575b506172c4575b50505050565b6172e1816172da6172d48561051b565b9161051b565b14156170a7565b6172ea30613526565b93633751d19f90849095803b15617382576173185f809461732361730c610462565b9a8b9687958694613584565b8452600484016170d0565b03925af190811561737d576173489461734392617351575b508390618288565b618288565b5f8080806172be565b617370905f3d8111617376575b617368818361098f565b81019061358a565b5f61733b565b503d61735e565b6135f4565b613580565b905061739b6173955f6121ee565b916121ee565b145f6172b8565b50826173be6173b86173b35f6132d9565b61051b565b9161051b565b14156172b1565b6173e6915060603d81116173ed575b6173de818361098f565b8101906142de565b915061728d565b503d6173d4565b6135f4565b905061741c915060403d8111617423575b617414818361098f565b810190613a24565b905f61723d565b503d61740a565b6135f4565b61744e905f3d8111617454575b617446818361098f565b81019061358a565b5f6171ef565b503d61743c565b6135f4565b613580565b61746e30613526565b6395dd917690839060019392813b156174f0575f61749f916174aa8296617493610462565b98899788968795613584565b855260048501616fb7565b03925af180156174eb576174bf575b506171f1565b6174de905f3d81116174e4575b6174d6818361098f565b81019061358a565b5f6174b9565b503d6174cc565b6135f4565b613580565b9061750286828491613604565b9061715f565b606090565b90617516617508565b5061753f61753a61753361752c600b8690612f55565b8490612f6b565b8590612f81565b61318e565b9261756e6175696175646175545f8801610755565b61755e60026132e8565b90613532565b6133fd565b6163a5565b926175785f6131d2565b956175825f6131d2565b5b806175a061759a6175955f8b01610755565b610474565b91610474565b10156176e8576175e960406175b9858888908692618f88565b6175c230613526565b6175de631ec3b8ad6175d2610462565b95869485938493613584565b8352600483016117c7565b03915afa80156176e3575f809290916176b2575b508061761961761361760e5f6132d9565b61051b565b9161051b565b03617683575b508061763b6176356176305f6132d9565b61051b565b9161051b565b03617650575b5061764b90613517565b617583565b9061767d61766c9961767861764b94916176728b919d8e61428a565b9d6133fd565b906163cc565b61627f565b90617641565b61769b996176a76176ac92916176a18b919d8e61428a565b9d6133fd565b906163cc565b61627f565b5f61761f565b90506176d5915060403d81116176dc575b6176cd818361098f565b810190613a24565b905f6175fd565b503d6176c3565b6135f4565b5094505050506176ff6176fa846133fd565b6163a5565b916177095f6131d2565b5b8061771d61771787610474565b91610474565b1015617767576177629061775d6177456177408661773a856133fd565b906163cc565b616462565b61775887617752856133fd565b906163cc565b61627f565b613517565b61770a565b5092505090565b60a81b90565b9061778360ff60a81b9161776e565b9181191691161790565b906177a261779d6177a992613249565b613255565b8254617774565b9055565b60b01b90565b906177c260ff60b01b916177ad565b9181191691161790565b906177e16177dc6177e8926106ee565b6131ac565b82546177b3565b9055565b6177f69054610833565b90565b60010190565b9061781c61781661780f84613457565b809361277d565b9261345b565b905f5b81811061782c5750505090565b90919261784c617846600192617841876177ec565b61278c565b946177f9565b910191909161781f565b90926178899061787f617896969461787560808601975f870190610658565b6020850190610b3d565b6040830190610b71565b60608184039101526177ff565b90565b92916179126001617923926178e96178c56178c06178b960088b9061070a565b8890610720565b6132ba565b916178d360025f85016139ba565b6178e0846003850161778d565b600383016177cc565b6178fe6178f55f6132d9565b600383016139f5565b61790c60056003830161494c565b0161081b565b9261791d8491612779565b90616a96565b5061794261793d617936600986906118f1565b8390611907565b6132b7565b92909161794e5f6132d9565b6179996005956179876179817f3d4eb684a5f3e9917f4c91b1791efa1b0b8a8c95d62aac47b64fbabbfe57fae9966106ee565b966106ee565b96617990610462565b94859485617856565b0390a3565b606090565b67ffffffffffffffff81116179bb5760208091020190565b61097b565b906179d26179cd836179a3565b6109b8565b918252565b906179e190610474565b9052565b6179ef60406109b8565b90565b90617a28617a1f5f617a026179e5565b94617a19617a11838301610755565b8388016179d7565b0161077c565b602084016179d7565b565b617a33906179f2565b90565b90617a4082611001565b617a49816179c0565b92617a576020850191611005565b5f915b838310617a675750505050565b600160208192617a7685617a2a565b815201920192019190617a5a565b617a8d90617a36565b90565b617aa7617aac91617a9f61799e565b506016610fd7565b617a84565b90565b617ac6617acb91617abe61799e565b506018610fd7565b617a84565b90565b929190617af9617af4617aed617ae6600b8890612f55565b8490612f6b565b8490612f81565b61318e565b91617b0e617b085f8501612fab565b156105fc565b61824c57617b40617b3b617b36617b265f8701610755565b617b3060026132e8565b90613532565b6133fd565b6163a5565b94617b4a5f6131d2565b93617b545f6131d2565b5b80617b72617b6c617b675f8601610755565b610474565b91610474565b1015617cb057617bbc906040617b8c858888908592618f88565b617b9530613526565b617bb1631ec3b8ad617ba5610462565b96879485938493613584565b8352600483016117c7565b03915afa918215617cab57617c1f925f80929091617c7a575b5080617bf1617beb617be65f6132d9565b61051b565b9161051b565b03617c4f575b5080617c13617c0d617c085f6132d9565b61051b565b9161051b565b03617c24575b50613517565b617b55565b617c4990617c448b617c3e617c388c61428a565b9b6133fd565b906163cc565b61627f565b5f617c19565b617c7490617c6f8c617c69617c638d61428a565b9c6133fd565b906163cc565b61627f565b5f617bf7565b9050617c9d915060403d8111617ca4575b617c95818361098f565b810190613a24565b905f617bd5565b503d617c8b565b6135f4565b50909192939485617cc9617cc35f6131d2565b91610474565b14618243575f95617cd95f6131d2565b97617ce35f6131d2565b5b80617d01617cfb617cf65f8901610755565b610474565b91610474565b1015617e1557617d4a6040617d1a888b8b908692618f88565b617d2330613526565b617d3f631ec3b8ad617d33610462565b95869485938493613584565b8352600483016117c7565b03915afa8015617e10575f80929091617dd7575b50617da4617daa91617d80617d7a617d755f6132d9565b61051b565b9161051b565b141592617d9d617d97617d925f6132d9565b61051b565b9161051b565b14156105fc565b916105fc565b03617dbe575b617db990613517565b617ce4565b989750617db9617dcf60019961428a565b999050617db0565b617da49250617daa9150617e019060403d8111617e09575b617df9818361098f565b810190613a24565b925090617d5e565b503d617def565b6135f4565b509196617e2591939850156105fc565b61823a57617e3f617e386008859061070a565b8690610720565b5081617e54617e4e600161333d565b91610474565b1461820c57617e625f6131d2565b5b80617e80617e7a617e755f8c01610755565b610474565b91610474565b1015617f2a57617e94848787908492618f88565b90617e9e30613526565b9163d893088d90833b15617f2557617ed593617eca5f8094617ebe610462565b97889586948593613584565b8352600483016117c7565b03925af1918215617f2057617eef92617ef4575b50613517565b617e63565b617f13905f3d8111617f19575b617f0b818361098f565b81019061358a565b5f617ee9565b503d617f01565b6135f4565b613580565b5091939295949094617f4686617f4060026132e8565b906163ec565b95617f90617f5e82617f5860026132e8565b90613318565b92617f6b895f83016131af565b617f7f617f775f6131d2565b5f830161320b565b5f617f89816131d2565b9101613297565b617f995f6132d9565b91617fad617fa7600161333d565b91610474565b1461812f575b50617fbd5f6131d2565b5b80617fd1617fcb89610474565b91610474565b10156180e85761800561800085617ffa617ff585617fef60026132e8565b90613532565b6133fd565b906163cc565b616462565b906180476180428661803c6180376180278661802160026132e8565b90613532565b618031600161333d565b9061355d565b6133fd565b906163cc565b616462565b61805030613526565b90632ad7e3bf91899189958d9486919295843b156180e3575f966180889488946180939361807c610462565b9c8d9a8b998a98613584565b885260048801613599565b03925af19182156180de576180ad926180b2575b50613517565b617fbe565b6180d1905f3d81116180d7575b6180c9818361098f565b81019061358a565b5f6180a7565b503d6180bf565b6135f4565b613580565b509293949150948261810a6181046180ff5f6132d9565b61051b565b9161051b565b03618117575b5050505050565b6181259493909192936170f3565b5f80808080618110565b905061820761819b6181966181878a61816f4461816042938d908d8b92618154610462565b9788966020880161640e565b6020820181038252038261098f565b61818161817b826133e5565b916133df565b206133e9565b618190856133fd565b90613419565b61343b565b916182026181ba6181b5876181af876133fd565b906163cc565b616462565b936181fd6181ec6181e7896181e16181dc886181d6600161333d565b906134a0565b6133fd565b906163cc565b616462565b916181f789916133fd565b906163cc565b61627f565b61646f565b617fb3565b92505061823893945061822d6182329193926182275f613d23565b906163cc565b616462565b91613a51565b565b50505050509050565b95505050505050565b5050509050565b9081549168010000000000000000831015618283578261827b91600161828195018155613e30565b90613db1565b565b61097b565b6182e46182e9926182ad6182a66182a1600c8690611711565b613e0c565b8290618253565b6182df6182d76182c76182c2600c8790611711565b611727565b6182d16001613d3f565b90613d5b565b93600d6126f6565b61270c565b613dec565b565b6182f66101a06109b8565b90565b5f90565b5f90565b5f90565b5f90565b6020908180808080808080808080806183206182eb565b9d8e61832a6161bf565b8152016183356161bf565b8152016183406161bf565b81520161834b6161bf565b8152016183566182f9565b8152016183616182fd565b81520161836c618301565b815201618377618301565b815201618382618305565b81520161838d618305565b815201618398618305565b8152016183a3618305565b8152016183ae6182fd565b81525050565b6183bc618309565b90565b6183ca6101a06109b8565b90565b906183d7906121ee565b9052565b906183e5906105fc565b9052565b50505050506183f66183b4565b505f618401906132d9565b5f61840b906132d9565b5f618415906132d9565b5f61841f906132d9565b5f5f5f5f905f925f945f965f985f9a6184366183bf565b9c5f8e01906184449161627f565b60208d01906184529161627f565b60408c01906184609161627f565b60608b019061846e9161627f565b60808a019061847c916183cd565b60a089019061848a916183db565b61849390613d23565b60c08801906184a1916108ff565b6184aa90613d23565b60e08701906184b8916108ff565b6184c1906131d2565b6101008601906184d0916179d7565b6184d9906131d2565b6101208501906184e8916179d7565b6184f1906131d2565b610140840190618500916179d7565b618509906131d2565b610160830190618518916179d7565b610180820190618527916183db565b90565b5f7f4500000000000000000000000000000000000000000000000000000000000000910152565b61855e600160209261248b565b6185678161852a565b0190565b6185809060208101905f818303910152618551565b90565b1561858a57565b618592610462565b62461bcd60e51b8152806185a86004820161856b565b0390fd5b906185cb6185c66185bf6008859061070a565b8390610720565b6132ba565b6185d65f82016107a9565b61864c5f807f000000000000000000000000000000000000000000000000000000000000000087618635889161862661860d610462565b93849260046020850163e6c455f560e01b81520161107a565b6020820181038252038261098f565b602081019051915af4618646615e65565b50618583565b618658848433916193f4565b61866a6186645f610b18565b91610b18565b1490816186a2575b5061867c575b5050565b8161868b61869b938390619403565b906186955f6131d2565b91613604565b5f80618678565b6186ae91505f016107a9565b6186c16186bb6001610b18565b91610b18565b145f618672565b5f7f4653000000000000000000000000000000000000000000000000000000000000910152565b6186fc600260209261248b565b618705816186c8565b0190565b61871e9060208101905f8183039101526186ef565b90565b1561872857565b618730610462565b62461bcd60e51b81528061874660048201618709565b0390fd5b5f7f5254000000000000000000000000000000000000000000000000000000000000910152565b61877e600260209261248b565b6187878161874a565b0190565b6187a09060208101905f818303910152618771565b90565b156187aa57565b6187b2610462565b62461bcd60e51b8152806187c86004820161878b565b0390fd5b906187eb6187e66187df6008859061070a565b8390610720565b6132ba565b916187f75f84016107a9565b61886d5f807f000000000000000000000000000000000000000000000000000000000000000085618856889161884761882e610462565b93849260046020850163ea2b1d7360e01b81520161107a565b6020820181038252038261098f565b602081019051915af4618867615e65565b50618721565b8061888061887a5f610b18565b91610b18565b14806189bc575b618998575b61889e6188985f610b18565b91610b18565b1480618973575b6188af575b505050565b6188be600361896b9401610847565b906188ed6188d46188cf6001613d3f565b6163a5565b926188e8846188e25f613d23565b906163cc565b61627f565b6189635f807f00000000000000000000000000000000000000000000000000000000000000008461894c889161893d618924610462565b9384926004602085016357f7cf7160e01b81520161107a565b6020820181038252038261098f565b602081019051915af461895d615e65565b506187a3565b91909161948e565b5f80806188aa565b5061897f5f84016107a9565b61899261898c6002610b18565b91610b18565b146188a5565b6189a3828490619403565b6189b782846189b15f6131d2565b91613604565b61888c565b506189c85f85016107a9565b6189db6189d56001610b18565b91610b18565b14618887565b926189ea613c77565b50618a135f618a0d618a08618a016008899061070a565b8690610720565b6132ba565b016107a9565b618a26618a206001610b18565b91610b18565b03618be957618a39928492909192618f88565b618a4d618a486015839061227d565b614008565b90618a595f8301610847565b618a73618a6d618a685f6132d9565b61051b565b9161051b565b148015618bc2575b618bbb57618a9542618a8f6008850161081b565b90613d5b565b618aa160038401610847565b618abd618ab7618ab25f8701610847565b61051b565b9161051b565b145f14618ba457618ae2618adc618ad66009860161081b565b5b6108fc565b916108fc565b10618b9d57618af5618afa916014611d15565b61400b565b91618b10618b0a60028501611d3f565b156105fc565b618b38575050618b33618b2d618b285f42940161081b565b6108fc565b916108fc565b101590565b618b859250600280618b77618b646008618b5d618b58618b7f9786613992565b6139a8565b960161081b565b618b715f8488010161081b565b9061400e565b93010161081b565b9061400e565b618b98618b9242926108fc565b916108fc565b101590565b5050505f90565b618ae2618adc618bb6600a860161081b565b618ad7565b5050505f90565b50618bcf600483016122ad565b618be2618bdc60016121ee565b916121ee565b1415618a7b565b505050505f90565b919091618bfc613c77565b50618c0981848491616c2c565b92618c135f6131d2565b5b80618c27618c2187610474565b91610474565b1015618f4657618c4181618c3b600161333d565b9061355d565b618c53618c4d87610474565b91610474565b1015618f3c57618cbe618c6a848487908592618f88565b6060618c8d86868990618c8788618c81600161333d565b9061355d565b92618f88565b91618c9730613526565b618cb36397556f67618ca7610462565b96879485938493613584565b8352600483016117c7565b03915afa908115618f37575f8080949093618eff575b506060618d0e91939492618ce730613526565b618d036397556f67618cf7610462565b95869485938493613584565b8352600483016117c7565b03915afa8015618efa575f8080939092618ec8575b50909183618d3a618d3460026121ee565b916121ee565b1480618ea5575b80618e95575b80618e7a575b80618e4a575b618e3a57618d6a618d6460026121ee565b916121ee565b149081618e16575b509081618e05575b509081618de9575b509182618db3575b5050618da957618da490618d9e60026132e8565b9061355d565b618c14565b5050505050600190565b909150908115618dc6575b505f80618d8a565b9050618de2618ddc618dd75f6132d9565b61051b565b9161051b565b145f618dbe565b9050618dfe618df860026121ee565b916121ee565b145f618d82565b618e109150156105fc565b5f618d7a565b9050618e32618e2c618e275f6132d9565b61051b565b9161051b565b14155f618d72565b5050505050505050505050600190565b50828015618e58575b618d53565b5081618e74618e6e618e695f6132d9565b61051b565b9161051b565b14618e53565b5080618e8f618e8960026121ee565b916121ee565b14618d4d565b50618ea086156105fc565b618d47565b5084618ec1618ebb618eb65f6132d9565b61051b565b9161051b565b1415618d41565b915050618eec915060603d8111618ef3575b618ee4818361098f565b8101906142de565b915f618d23565b503d618eda565b6135f4565b618d0e94506060809450618f2892503d8111618f30575b618f20818361098f565b8101906142de565b945092618cd4565b503d618f16565b6135f4565b50505050505b5f90565b5050505050618f42565b92618f7c6001618f8494618f748288618f6c829b9a8399613383565b018092613383565b018092613383565b018092613383565b0190565b618fbf9293618fb091618f99613e58565b509294618fa4610462565b95869460208601618f50565b6020820181038252038261098f565b618fd1618fcb826133e5565b916133df565b2090565b618fe9618fe4618fee926132e5565b6106eb565b6108fc565b90565b618ffb6002618fd5565b90565b6190075f61081b565b61902061901a619015618ff1565b6108fc565b916108fc565b1461903857619036619030618ff1565b5f613dec565b565b5f633ee5aeb560e01b815280619050600482016104d7565b0390fd5b909550619065818784908692618f88565b509490919293946195b1565b5490565b90565b61908c61908761909192619075565b6106eb565b6108fc565b90565b5f5260205f2090565b6190a681619071565b8210156190c0576190b8600191619094565b910201905f90565b610fed565b6190cd613ec1565b506190d86005619071565b6190ea6190e45f613d23565b916108fc565b14619147576190f9600461081b565b61911461910e6191096005619071565b6108fc565b916108fc565b1061912657619123600661081b565b90565b61914461913e6005619138600461081b565b9061909d565b90611ad4565b90565b6191586729a2241af62c0000619078565b90565b90565b61917261916d6191779261915b565b6106eb565b6108fc565b90565b619183906108fc565b5f1981146191915760010190565b61348c565b61919e613ec1565b506191b26191ad6103e861915e565b6163a5565b906191bc5f613d23565b916191c65f6131d2565b5b806191e36191dd6191d86001610755565b610474565b91610474565b10156193f0576191fd6191f860028390613992565b6139a8565b926192075f6131d2565b5b8061922561921f61921a5f890161077c565b610474565b91610474565b10156193df5761924961924461923d6008869061070a565b8390610720565b6132ba565b6192545f82016107a9565b6192666192605f610b18565b91610b18565b149081156193b9575b50619283575b61927e90613517565b619208565b6192a56192a061929960099895949885906118f1565b8390611907565b6132b7565b906192af5f613d23565b955b866192cc6192c66192c186613457565b6108fc565b916108fc565b10156193a7576192e66192e0848990613464565b9061196a565b935f986192f25f613d23565b5b806193066193008a6108fc565b916108fc565b10156193985761931f61931a8a83906163cc565b616462565b61933161932b8961051b565b9161051b565b146193445761933f90616242565b6192f3565b5097919490985061935760015b156105fc565b61936e575b5061936690616242565b9596926192b1565b619366919561938c619391926193878a918490926163cc565b61627f565b61917a565b949061935c565b50979194909861935790619351565b955061927e9150959192959050619275565b6193c591505f016107a9565b6193d86193d26001610b18565b91610b18565b145f61926f565b5092506193eb90613517565b6191c7565b5050565b90619401929190916196f7565b565b919061942361941e619417600986906118f1565b8390611907565b6132b7565b61942c5f613d23565b5b8061944861944261943d85613457565b6108fc565b916108fc565b1015619487576194829061947d619469619463858490613464565b9061196a565b61947581898891619803565b87869161996b565b616242565b61942d565b5050509050565b92916194995f613d23565b5b806194b56194af6194aa85612779565b6108fc565b916108fc565b101561950557619500906194dd6194d56194d08584906163cc565b616462565b878691619803565b6194fb6194f36194ee8584906163cc565b616462565b878691619a2a565b616242565b61949a565b5050509050565b60407f2067616d6520636f6e7472616374000000000000000000000000000000000000917f45546f75725f53746f726167653a205f636f6d706c6574654d6174636847616d5f8201527f655370656369666963206d75737420626520696d706c656d656e74656420627960208201520152565b61958c604e60609261248b565b6195958161950c565b0190565b6195ae9060208101905f81830391015261957f565b90565b6195b9610462565b62461bcd60e51b8152806195cf60048201619599565b0390fd5b906195dd90610fcb565b5f5260205260405f2090565b906195f3906106ee565b5f5260205260405f2090565b90619609906106ee565b5f5260205260405f2090565b90565b61962260406109b8565b90565b5f5260205f2090565b5490565b61963b8161962e565b8210156196555761964d600191619625565b910201905f90565b610fed565b634e487b7160e01b5f525f60045260245ffd5b6196779051610474565b90565b906196a460205f6196aa9461969c82820161969684880161966d565b906131af565b01920161966d565b9061320b565b565b91906196bd576196bb9161967a565b565b61965a565b90815491680100000000000000008310156196f257826196ea9160016196f095018155619632565b906196ac565b565b61097b565b9061972061971b61971461970d601786906195d3565b84906195e9565b85906195ff565b61081b565b61973261972c5f613d23565b916108fc565b036197b1576197af926197a56197aa9261978161975961975460168890610fd7565b619615565b829061977c8661977361976a619618565b945f86016179d7565b602084016179d7565b6196c2565b6197a061979861979360168890610fd7565b611001565b9560176195d3565b6195e9565b6195ff565b613dec565b565b505050565b5f80910155565b905f036197cf576197cd906197b6565b565b61965a565b6197dd8161962e565b80156197fe5760019003906197fb6197f58383619632565b906197bd565b55565b613e0f565b9161982c619827619820619819601787906195d3565b85906195e9565b83906195ff565b61081b565b908161984061983a5f613d23565b916108fc565b14619965576198d45f936198cf6198de96856198696198d9976198636001613d3f565b90613d5b565b61989061988061987b60168690610fd7565b611001565b61988a6001613d3f565b90613d5b565b816198a361989d836108fc565b916108fc565b036198e0575b5050506198c86198c36198be60168490610fd7565b619615565b6197d4565b60176195d3565b6195e9565b6195ff565b613ec5565b565b61995d92619925619908619902619958946198fd60168a90610fd7565b61100e565b50617a2a565b9361991f859161991a60168a90610fd7565b61100e565b906196ac565b91619952602061994b61993a601789906195d3565b6199458f860161966d565b906195e9565b920161966d565b906195ff565b613dec565b5f80806198a9565b50505050565b9061999461998f619988619981601986906195d3565b84906195e9565b85906195ff565b61081b565b6199a66199a05f613d23565b916108fc565b03619a2557619a2392619a19619a1e926199f56199cd6199c860188890610fd7565b619615565b82906199f0866199e76199de619618565b945f86016179d7565b602084016179d7565b6196c2565b619a14619a0c619a0760188890610fd7565b611001565b9560196195d3565b6195e9565b6195ff565b613dec565b565b505050565b91619a53619a4e619a47619a40601987906195d3565b85906195e9565b83906195ff565b61081b565b9081619a67619a615f613d23565b916108fc565b14619b8c57619afb5f93619af6619b059685619a90619b0097619a8a6001613d3f565b90613d5b565b619ab7619aa7619aa260188690610fd7565b611001565b619ab16001613d3f565b90613d5b565b81619aca619ac4836108fc565b916108fc565b03619b07575b505050619aef619aea619ae560188490610fd7565b619615565b6197d4565b60196195d3565b6195e9565b6195ff565b613ec5565b565b619b8492619b4c619b2f619b29619b7f94619b2460188a90610fd7565b61100e565b50617a2a565b93619b468591619b4160188a90610fd7565b61100e565b906196ac565b91619b796020619b72619b61601989906195d3565b619b6c8f860161966d565b906195e9565b920161966d565b906195ff565b613dec565b5f8080619ad0565b5050505056fea264697066735822122040f0b70e7ea232681b5543067477c8975e9165d528363a566d0129b74e06284964736f6c634300081e0033","linkReferences":{}},"methodIdentifiers":{"BASIS_POINTS()":"e1f1c4a7","MODULE_CORE()":"87d41608","MODULE_ESCALATION()":"a401a223","MODULE_MATCHES()":"d3f525dc","MODULE_PRIZES()":"43bd18a2","MODULE_RAFFLE()":"5a3db19f","NO_ROUND()":"cd47b9a9","OWNER_SHARE_BPS()":"f4ed1743","PARTICIPANTS_SHARE_BPS()":"82383535","PROTOCOL_SHARE_BPS()":"92822047","_completeMatchWithResult(bytes32,address,bool)":"f4df7cf0","_createMatchGame(uint8,uint8,uint8,uint8,address,address)":"2ad7e3bf","_getActiveMatchData(bytes32,uint8,uint8,uint8,uint8)":"e545f486","_getMatchPlayers(bytes32)":"1ec3b8ad","_getMatchResult(bytes32)":"97556f67","_getTimeIncrement()":"58f975f3","_hasCurrentPlayerTimedOut(bytes32)":"19602c21","_initializeMatchForPlay(bytes32,uint8)":"3751d19f","_isMatchActive(bytes32)":"7f515802","_resetMatchGame(bytes32)":"d893088d","_setMatchPlayer(bytes32,uint8,address)":"95dd9176","accumulatedProtocolShare()":"6b9be2c9","addPlayerActiveMatch(address,bytes32)":"d520b3f5","advanceWinner(uint8,uint8,uint8,uint8,address)":"b902ec47","checkForSoleWinnerCompletion(uint8,uint8,uint8)":"b8083ee0","claimTimeoutWin(uint8,uint8,uint8,uint8)":"631039c7","completeMatch(uint8,uint8,uint8,uint8,address,bool)":"3df1d831","completeRound(uint8,uint8,uint8)":"3fbd716b","completeTournament(uint8,uint8,address)":"0995bb4d","completeTournamentAllDraw(uint8,uint8,uint8,address[])":"c1cf478e","consolidateAndStartOddRound(uint8,uint8,uint8)":"77139798","consolidateScatteredPlayers(uint8,uint8,uint8)":"cb9e72ce","currentRaffleIndex()":"a5cd19da","drawParticipants(uint8,uint8,uint8,uint8,address)":"414a488a","enrollInTournament(uint8,uint8)":"e6c455f5","enrolledPlayers(uint8,uint8,uint256)":"685f1b12","forceStartTournament(uint8,uint8)":"ea2b1d73","getLeaderboard()":"6d763a6e","getMatchCountForRound(uint8,uint8,uint8)":"92667951","getPlayerActiveTournaments(address)":"c743c0a8","getPlayerEnrollingTournaments(address)":"c718d0e5","getPlayerStats()":"847a5e99","getRaffleInfo()":"8166f6b2","getRemainingPlayers(uint8,uint8,uint8)":"c139721a","getRoundInfo(uint8,uint8,uint8)":"273e3475","getTournamentInfo(uint8,uint8)":"65e12b14","hasOrphanedWinners(uint8,uint8,uint8)":"fe727a1f","initializeRound(uint8,uint8,uint8)":"0300e0b9","isEnrolled(uint8,uint8,address)":"3475bd53","isMatchEscL2Available(uint8,uint8,uint8,uint8)":"ed96ffdf","isMatchEscL3Available(uint8,uint8,uint8,uint8)":"2f26185d","isPlayerInAdvancedRound(uint8,uint8,uint8,address)":"31449074","matchTimeouts(bytes32)":"766d1fca","matches(bytes32)":"9fe9ada3","owner()":"8da5cb5b","playerActiveMatches(address,uint256)":"5d657cb1","playerActiveTournaments(address,uint256)":"32e7c6aa","playerEarnings(address)":"69f92773","playerEnrollingTournaments(address,uint256)":"3845753f","playerMatchIndex(address,bytes32)":"bb0d10b5","playerPrizes(uint8,uint8,address)":"c6c2d69c","playerRanking(uint8,uint8,address)":"75da743d","processOrphanedWinners(uint8,uint8,uint8)":"52ea458a","raffleResults(uint256)":"40861c1d","removePlayerActiveMatch(address,bytes32)":"2bc74985","rounds(uint8,uint8,uint8)":"eed9a268","tierCount()":"96b55f7d","tournaments(uint8,uint8)":"1f916aca"},"id":8}