{"abi":[{"type":"function","name":"BLACK_BISHOP","inputs":[],"outputs":[{"name":"","type":"uint8","internalType":"uint8"}],"stateMutability":"view"},{"type":"function","name":"BLACK_IN_CHECK","inputs":[],"outputs":[{"name":"","type":"uint256","internalType":"uint256"}],"stateMutability":"view"},{"type":"function","name":"BLACK_KING","inputs":[],"outputs":[{"name":"","type":"uint8","internalType":"uint8"}],"stateMutability":"view"},{"type":"function","name":"BLACK_KING_MOVED","inputs":[],"outputs":[{"name":"","type":"uint256","internalType":"uint256"}],"stateMutability":"view"},{"type":"function","name":"BLACK_KNIGHT","inputs":[],"outputs":[{"name":"","type":"uint8","internalType":"uint8"}],"stateMutability":"view"},{"type":"function","name":"BLACK_OFFSET","inputs":[],"outputs":[{"name":"","type":"uint8","internalType":"uint8"}],"stateMutability":"view"},{"type":"function","name":"BLACK_PAWN","inputs":[],"outputs":[{"name":"","type":"uint8","internalType":"uint8"}],"stateMutability":"view"},{"type":"function","name":"BLACK_QUEEN","inputs":[],"outputs":[{"name":"","type":"uint8","internalType":"uint8"}],"stateMutability":"view"},{"type":"function","name":"BLACK_ROOK","inputs":[],"outputs":[{"name":"","type":"uint8","internalType":"uint8"}],"stateMutability":"view"},{"type":"function","name":"BLACK_ROOK_A_MOVED","inputs":[],"outputs":[{"name":"","type":"uint256","internalType":"uint256"}],"stateMutability":"view"},{"type":"function","name":"BLACK_ROOK_H_MOVED","inputs":[],"outputs":[{"name":"","type":"uint256","internalType":"uint256"}],"stateMutability":"view"},{"type":"function","name":"EP_MASK","inputs":[],"outputs":[{"name":"","type":"uint256","internalType":"uint256"}],"stateMutability":"view"},{"type":"function","name":"FULL_MOVE_MASK","inputs":[],"outputs":[{"name":"","type":"uint256","internalType":"uint256"}],"stateMutability":"view"},{"type":"function","name":"FULL_MOVE_SHIFT","inputs":[],"outputs":[{"name":"","type":"uint256","internalType":"uint256"}],"stateMutability":"view"},{"type":"function","name":"HALF_MOVE_MASK","inputs":[],"outputs":[{"name":"","type":"uint256","internalType":"uint256"}],"stateMutability":"view"},{"type":"function","name":"HALF_MOVE_SHIFT","inputs":[],"outputs":[{"name":"","type":"uint256","internalType":"uint256"}],"stateMutability":"view"},{"type":"function","name":"INITIAL_BOARD","inputs":[],"outputs":[{"name":"","type":"uint256","internalType":"uint256"}],"stateMutability":"view"},{"type":"function","name":"INITIAL_STATE","inputs":[],"outputs":[{"name":"","type":"uint256","internalType":"uint256"}],"stateMutability":"view"},{"type":"function","name":"NO_EN_PASSANT","inputs":[],"outputs":[{"name":"","type":"uint8","internalType":"uint8"}],"stateMutability":"view"},{"type":"function","name":"PIECE_BISHOP","inputs":[],"outputs":[{"name":"","type":"uint8","internalType":"uint8"}],"stateMutability":"view"},{"type":"function","name":"PIECE_KING","inputs":[],"outputs":[{"name":"","type":"uint8","internalType":"uint8"}],"stateMutability":"view"},{"type":"function","name":"PIECE_KNIGHT","inputs":[],"outputs":[{"name":"","type":"uint8","internalType":"uint8"}],"stateMutability":"view"},{"type":"function","name":"PIECE_NONE","inputs":[],"outputs":[{"name":"","type":"uint8","internalType":"uint8"}],"stateMutability":"view"},{"type":"function","name":"PIECE_PAWN","inputs":[],"outputs":[{"name":"","type":"uint8","internalType":"uint8"}],"stateMutability":"view"},{"type":"function","name":"PIECE_QUEEN","inputs":[],"outputs":[{"name":"","type":"uint8","internalType":"uint8"}],"stateMutability":"view"},{"type":"function","name":"PIECE_ROOK","inputs":[],"outputs":[{"name":"","type":"uint8","internalType":"uint8"}],"stateMutability":"view"},{"type":"function","name":"WHITE_BISHOP","inputs":[],"outputs":[{"name":"","type":"uint8","internalType":"uint8"}],"stateMutability":"view"},{"type":"function","name":"WHITE_IN_CHECK","inputs":[],"outputs":[{"name":"","type":"uint256","internalType":"uint256"}],"stateMutability":"view"},{"type":"function","name":"WHITE_KING","inputs":[],"outputs":[{"name":"","type":"uint8","internalType":"uint8"}],"stateMutability":"view"},{"type":"function","name":"WHITE_KING_MOVED","inputs":[],"outputs":[{"name":"","type":"uint256","internalType":"uint256"}],"stateMutability":"view"},{"type":"function","name":"WHITE_KNIGHT","inputs":[],"outputs":[{"name":"","type":"uint8","internalType":"uint8"}],"stateMutability":"view"},{"type":"function","name":"WHITE_PAWN","inputs":[],"outputs":[{"name":"","type":"uint8","internalType":"uint8"}],"stateMutability":"view"},{"type":"function","name":"WHITE_QUEEN","inputs":[],"outputs":[{"name":"","type":"uint8","internalType":"uint8"}],"stateMutability":"view"},{"type":"function","name":"WHITE_ROOK","inputs":[],"outputs":[{"name":"","type":"uint8","internalType":"uint8"}],"stateMutability":"view"},{"type":"function","name":"WHITE_ROOK_A_MOVED","inputs":[],"outputs":[{"name":"","type":"uint256","internalType":"uint256"}],"stateMutability":"view"},{"type":"function","name":"WHITE_ROOK_H_MOVED","inputs":[],"outputs":[{"name":"","type":"uint256","internalType":"uint256"}],"stateMutability":"view"},{"type":"function","name":"clearFlag","inputs":[{"name":"state","type":"uint256","internalType":"uint256"},{"name":"flag","type":"uint256","internalType":"uint256"}],"outputs":[{"name":"","type":"uint256","internalType":"uint256"}],"stateMutability":"pure"},{"type":"function","name":"executeMove","inputs":[{"name":"board","type":"uint256","internalType":"uint256"},{"name":"state","type":"uint256","internalType":"uint256"},{"name":"from","type":"uint8","internalType":"uint8"},{"name":"to","type":"uint8","internalType":"uint8"},{"name":"promotion","type":"uint8","internalType":"uint8"},{"name":"isWhite","type":"bool","internalType":"bool"}],"outputs":[{"name":"newBoard","type":"uint256","internalType":"uint256"},{"name":"newState","type":"uint256","internalType":"uint256"},{"name":"isCapture","type":"bool","internalType":"bool"},{"name":"isPawnMove","type":"bool","internalType":"bool"},{"name":"capturedEnPassantSquare","type":"uint8","internalType":"uint8"}],"stateMutability":"pure"},{"type":"function","name":"getEnPassantSquare","inputs":[{"name":"state","type":"uint256","internalType":"uint256"}],"outputs":[{"name":"","type":"uint8","internalType":"uint8"}],"stateMutability":"pure"},{"type":"function","name":"getFullMoveNumber","inputs":[{"name":"state","type":"uint256","internalType":"uint256"}],"outputs":[{"name":"","type":"uint16","internalType":"uint16"}],"stateMutability":"pure"},{"type":"function","name":"getHalfMoveClock","inputs":[{"name":"state","type":"uint256","internalType":"uint256"}],"outputs":[{"name":"","type":"uint8","internalType":"uint8"}],"stateMutability":"pure"},{"type":"function","name":"getPiece","inputs":[{"name":"board","type":"uint256","internalType":"uint256"},{"name":"square","type":"uint8","internalType":"uint8"}],"outputs":[{"name":"","type":"uint8","internalType":"uint8"}],"stateMutability":"pure"},{"type":"function","name":"getPieceType","inputs":[{"name":"piece","type":"uint8","internalType":"uint8"}],"outputs":[{"name":"","type":"uint8","internalType":"uint8"}],"stateMutability":"pure"},{"type":"function","name":"hasFlag","inputs":[{"name":"state","type":"uint256","internalType":"uint256"},{"name":"flag","type":"uint256","internalType":"uint256"}],"outputs":[{"name":"","type":"bool","internalType":"bool"}],"stateMutability":"pure"},{"type":"function","name":"hasLegalMoves","inputs":[{"name":"board","type":"uint256","internalType":"uint256"},{"name":"state","type":"uint256","internalType":"uint256"},{"name":"isWhite","type":"bool","internalType":"bool"}],"outputs":[{"name":"","type":"bool","internalType":"bool"}],"stateMutability":"pure"},{"type":"function","name":"isBlackPiece","inputs":[{"name":"piece","type":"uint8","internalType":"uint8"}],"outputs":[{"name":"","type":"bool","internalType":"bool"}],"stateMutability":"pure"},{"type":"function","name":"isEnemyPiece","inputs":[{"name":"piece","type":"uint8","internalType":"uint8"},{"name":"isWhite","type":"bool","internalType":"bool"}],"outputs":[{"name":"","type":"bool","internalType":"bool"}],"stateMutability":"pure"},{"type":"function","name":"isInsufficientMaterial","inputs":[{"name":"board","type":"uint256","internalType":"uint256"}],"outputs":[{"name":"","type":"bool","internalType":"bool"}],"stateMutability":"pure"},{"type":"function","name":"isKingInCheck","inputs":[{"name":"board","type":"uint256","internalType":"uint256"},{"name":"isWhite","type":"bool","internalType":"bool"}],"outputs":[{"name":"","type":"bool","internalType":"bool"}],"stateMutability":"pure"},{"type":"function","name":"isOwnPiece","inputs":[{"name":"piece","type":"uint8","internalType":"uint8"},{"name":"isWhite","type":"bool","internalType":"bool"}],"outputs":[{"name":"","type":"bool","internalType":"bool"}],"stateMutability":"pure"},{"type":"function","name":"isValidMove","inputs":[{"name":"board","type":"uint256","internalType":"uint256"},{"name":"state","type":"uint256","internalType":"uint256"},{"name":"from","type":"uint8","internalType":"uint8"},{"name":"to","type":"uint8","internalType":"uint8"},{"name":"isWhite","type":"bool","internalType":"bool"},{"name":"promotion","type":"uint8","internalType":"uint8"}],"outputs":[{"name":"","type":"bool","internalType":"bool"}],"stateMutability":"pure"},{"type":"function","name":"isWhitePiece","inputs":[{"name":"piece","type":"uint8","internalType":"uint8"}],"outputs":[{"name":"","type":"bool","internalType":"bool"}],"stateMutability":"pure"},{"type":"function","name":"processMove","inputs":[{"name":"board","type":"uint256","internalType":"uint256"},{"name":"state","type":"uint256","internalType":"uint256"},{"name":"from","type":"uint8","internalType":"uint8"},{"name":"to","type":"uint8","internalType":"uint8"},{"name":"promotion","type":"uint8","internalType":"uint8"},{"name":"isWhite","type":"bool","internalType":"bool"}],"outputs":[{"name":"valid","type":"bool","internalType":"bool"},{"name":"newBoard","type":"uint256","internalType":"uint256"},{"name":"newState","type":"uint256","internalType":"uint256"},{"name":"gameEnd","type":"uint8","internalType":"uint8"}],"stateMutability":"pure"},{"type":"function","name":"setEnPassantSquare","inputs":[{"name":"state","type":"uint256","internalType":"uint256"},{"name":"square","type":"uint8","internalType":"uint8"}],"outputs":[{"name":"","type":"uint256","internalType":"uint256"}],"stateMutability":"pure"},{"type":"function","name":"setFlag","inputs":[{"name":"state","type":"uint256","internalType":"uint256"},{"name":"flag","type":"uint256","internalType":"uint256"}],"outputs":[{"name":"","type":"uint256","internalType":"uint256"}],"stateMutability":"pure"},{"type":"function","name":"setFullMoveNumber","inputs":[{"name":"state","type":"uint256","internalType":"uint256"},{"name":"value","type":"uint16","internalType":"uint16"}],"outputs":[{"name":"","type":"uint256","internalType":"uint256"}],"stateMutability":"pure"},{"type":"function","name":"setHalfMoveClock","inputs":[{"name":"state","type":"uint256","internalType":"uint256"},{"name":"value","type":"uint8","internalType":"uint8"}],"outputs":[{"name":"","type":"uint256","internalType":"uint256"}],"stateMutability":"pure"},{"type":"function","name":"setPiece","inputs":[{"name":"board","type":"uint256","internalType":"uint256"},{"name":"square","type":"uint8","internalType":"uint8"},{"name":"piece","type":"uint8","internalType":"uint8"}],"outputs":[{"name":"","type":"uint256","internalType":"uint256"}],"stateMutability":"pure"}],"bytecode":{"object":"0x608060405234601c57600e6020565b6149ff61002b82396149ff90f35b6026565b60405190565b5f80fdfe60806040526004361015610013575b611ba7565b61001d5f356103bb565b8062789771146103b657806304adf46b146103b157806304e85234146103ac578063087e4c90146103a75780630dee0ffa146103a25780630f1557961461039d5780631d2107811461039857806323f062d514610393578063295e65fb1461038e5780632aa41614146103895780632c1bf25e146103845780633041853e1461037f57806332a676f51461037a5780634170b290146103755780634a72f353146103705780634bc908aa1461036b5780634c63ed621461036657806352fbc42c1461036157806357014dbe1461035c578063592053a31461035757806359c9e65a146103525780635e9bbc951461034d57806361f1d88914610348578063625d78ca14610343578063635ba9ac1461033e578063673dfee514610339578063678c591a14610334578063680ecd5e1461032f57806369c883871461032a5780636b0944861461032557806370979f12146103205780637394e19c1461031b57806375f1b02f1461031657806382f3322c146103115780638cc25d5c1461030c5780638f192c5a146103075780638f1fb7c61461030257806390396a79146102fd578063947bb359146102f857806394e089c2146102f357806395f7eec7146102ee578063a297449a146102e9578063a3f3bdfc146102e4578063a761e186146102df578063a9c479c2146102da578063afa02980146102d5578063b5ac90a1146102d0578063bbf809ab146102cb578063c3aec9d7146102c6578063c74bd5f6146102c1578063c79df6b0146102bc578063d0ddba51146102b7578063d175b817146102b2578063d2e1d46e146102ad578063dc565cfc146102a8578063e40fef00146102a3578063ed19d9081461029e5763fe8d774f0361000e57611b72565b611b24565b611aef565b611ab9565b611a4a565b6119fd565b6119c8565b61195c565b611908565b61186f565b611803565b611795565b611760565b61172b565b6116de565b611672565b611607565b6115c7565b611579565b61150a565b6114b2565b61143f565b6113d2565b61137b565b61130e565b6112d9565b61126c565b61120a565b6111b7565b61114a565b6110fd565b61108f565b61105a565b611019565b610f8d565b610ee3565b610eae565b610e41565b610ddf565b610d73565b610d07565b610c7b565b610c46565b610bda565b610b6e565b610b05565b610a86565b610a24565b6109b8565b61094e565b6108ec565b61087f565b610813565b6107ab565b61073f565b6106b3565b610545565b61043d565b60e01c90565b60405190565b5f80fd5b5f80fd5b5f9103126103d957565b6103cb565b90565b90565b90565b6103fb6103f6610400926103de565b6103e4565b6103e1565b90565b61040d60166103e7565b90565b610418610403565b90565b610424906103e1565b9052565b919061043b905f6020850194019061041b565b565b3461046d5761044d3660046103cf565b610469610458610410565b6104606103c1565b91829182610428565b0390f35b6103c7565b90565b60ff1690565b61048f61048a61049492610472565b6103e4565b610475565b90565b6104a1603f61047b565b90565b90565b6104bb6104b66104c0926104a4565b6103e4565b6103e1565b90565b1b90565b6104e6906104e06104da6104eb946103e1565b916103e1565b906104c3565b6103e1565b90565b6105026104fd61050792610475565b6103e4565b6103e1565b90565b610512610497565b610536610530600161052b610525610403565b916104a7565b6104c7565b916104ee565b1790565b61054261050a565b90565b34610575576105553660046103cf565b61057161056061053a565b6105686103c1565b91829182610428565b0390f35b6103c7565b610583816103e1565b0361058a57565b5f80fd5b9050359061059b8261057a565b565b6105a681610475565b036105ad57565b5f80fd5b905035906105be8261059d565b565b151590565b6105ce816105c0565b036105d557565b5f80fd5b905035906105e6826105c5565b565b909160c08284031261064757610600835f840161058e565b9261060e816020850161058e565b9261061c82604083016105b1565b9261064461062d84606085016105b1565b9361063b81608086016105b1565b9360a0016105d9565b90565b6103cb565b610655906105c0565b9052565b61066290610475565b9052565b909594926106b1946106a06106aa9261069660809661068c60a088019c5f89019061041b565b602087019061041b565b604085019061064c565b606083019061064c565b0190610659565b565b346106ee576106ea6106d56106c93660046105e8565b94939093929192611da9565b916106e19593956103c1565b95869586610666565b0390f35b6103c7565b90565b61070a61070561070f926106f3565b6103e4565b610475565b90565b61071c60056106f6565b90565b610727610712565b90565b919061073d905f60208501940190610659565b565b3461076f5761074f3660046103cf565b61076b61075a61071f565b6107626103c1565b9182918261072a565b0390f35b6103c7565b90565b61078b61078661079092610774565b6103e4565b610475565b90565b61079d6003610777565b90565b6107a8610793565b90565b346107db576107bb3660046103cf565b6107d76107c66107a0565b6107ce6103c1565b9182918261072a565b0390f35b6103c7565b906020828203126107f9576107f6915f016105b1565b90565b6103cb565b9190610811905f6020850194019061064c565b565b346108435761083f61082e6108293660046107e0565b61261a565b6108366103c1565b918291826107fe565b0390f35b6103c7565b90565b61085f61085a61086492610848565b6103e4565b610475565b90565b610871600c61084b565b90565b61087c610867565b90565b346108af5761088f3660046103cf565b6108ab61089a610874565b6108a26103c1565b9182918261072a565b0390f35b6103c7565b90565b6108cb6108c66108d0926108b4565b6103e4565b6103e1565b90565b6108de6110006108b7565b90565b6108e96108d3565b90565b3461091c576108fc3660046103cf565b6109186109076108e1565b61090f6103c1565b91829182610428565b0390f35b6103c7565b9190604083820312610949578061093d610946925f860161058e565b9360200161058e565b90565b6103cb565b3461097f5761097b61096a610964366004610921565b9061267d565b6109726103c1565b918291826107fe565b0390f35b6103c7565b61099861099361099d926104a4565b6103e4565b610475565b90565b6109aa6001610984565b90565b6109b56109a0565b90565b346109e8576109c83660046103cf565b6109e46109d36109ad565b6109db6103c1565b9182918261072a565b0390f35b6103c7565b90565b610a046109ff610a09926109ed565b6103e4565b610475565b90565b610a1660046109f0565b90565b610a21610a0c565b90565b34610a5457610a343660046103cf565b610a50610a3f610a19565b610a476103c1565b9182918261072a565b0390f35b6103c7565b9190604083820312610a815780610a75610a7e925f860161058e565b936020016105d9565b90565b6103cb565b34610ab757610ab3610aa2610a9c366004610a59565b9061269e565b610aaa6103c1565b918291826107fe565b0390f35b6103c7565b90565b610ad3610ace610ad892610abc565b6103e4565b6103e1565b90565b610af76103ff610af2610aec610403565b91610abf565b6104c7565b90565b610b02610adb565b90565b34610b3557610b153660046103cf565b610b31610b20610afa565b610b286103c1565b91829182610428565b0390f35b6103c7565b610b4e610b49610b5392610472565b6103e4565b6103e1565b90565b610b60603f610b3a565b90565b610b6b610b56565b90565b34610b9e57610b7e3660046103cf565b610b9a610b89610b63565b610b916103c1565b91829182610428565b0390f35b6103c7565b90565b610bba610bb5610bbf92610ba3565b6103e4565b610475565b90565b610bcc600a610ba6565b90565b610bd7610bc2565b90565b34610c0a57610bea3660046103cf565b610c06610bf5610bcf565b610bfd6103c1565b9182918261072a565b0390f35b6103c7565b90565b610c26610c21610c2b92610c0f565b6103e4565b610475565b90565b610c386007610c12565b90565b610c43610c2e565b90565b34610c7657610c563660046103cf565b610c72610c61610c3b565b610c696103c1565b9182918261072a565b0390f35b6103c7565b34610cac57610ca8610c97610c91366004610921565b906126c0565b610c9f6103c1565b91829182610428565b0390f35b6103c7565b90565b610cc8610cc3610ccd92610cb1565b6103e4565b6103e1565b90565b610cf97fa89cb98a77777777000000000000000000000000000000001111111142365324610cb4565b90565b610d04610cd0565b90565b34610d3757610d173660046103cf565b610d33610d22610cfc565b610d2a6103c1565b91829182610428565b0390f35b6103c7565b90565b610d53610d4e610d5892610d3c565b6103e4565b6103e1565b90565b610d656040610d3f565b90565b610d70610d5b565b90565b34610da357610d833660046103cf565b610d9f610d8e610d68565b610d966103c1565b91829182610428565b0390f35b6103c7565b90565b610dbf610dba610dc492610da8565b6103e4565b610475565b90565b610dd16002610dab565b90565b610ddc610dc7565b90565b34610e0f57610def3660046103cf565b610e0b610dfa610dd4565b610e026103c1565b9182918261072a565b0390f35b6103c7565b9190604083820312610e3c5780610e30610e39925f86016105b1565b936020016105d9565b90565b6103cb565b34610e7257610e6e610e5d610e57366004610e14565b906126d8565b610e656103c1565b918291826107fe565b0390f35b6103c7565b90565b610e8e610e89610e9392610e77565b6103e4565b6103e1565b90565b610ea06080610e7a565b90565b610eab610e96565b90565b34610ede57610ebe3660046103cf565b610eda610ec9610ea3565b610ed16103c1565b91829182610428565b0390f35b6103c7565b34610f1457610f10610eff610ef9366004610921565b9061271c565b610f076103c1565b91829182610428565b0390f35b6103c7565b90565b610f30610f2b610f3592610f19565b6103e4565b6103e1565b90565b610f42600e610f1c565b90565b90565b610f5c610f57610f6192610f45565b6103e4565b6103e1565b90565b610f7f60ff610f7a610f74610f38565b91610f48565b6104c7565b90565b610f8a610f64565b90565b34610fbd57610f9d3660046103cf565b610fb9610fa8610f82565b610fb06103c1565b91829182610428565b0390f35b6103c7565b61ffff1690565b610fd281610fc2565b03610fd957565b5f80fd5b90503590610fea82610fc9565b565b91906040838203126110145780611008611011925f860161058e565b93602001610fdd565b90565b6103cb565b3461104a5761104661103561102f366004610fec565b90612745565b61103d6103c1565b91829182610428565b0390f35b6103c7565b611057610f38565b90565b3461108a5761106a3660046103cf565b61108661107561104f565b61107d6103c1565b91829182610428565b0390f35b6103c7565b346110c0576110bc6110ab6110a5366004610e14565b9061277f565b6110b36103c1565b918291826107fe565b0390f35b6103c7565b90565b6110dc6110d76110e1926110c5565b6103e4565b6103e1565b90565b6110ef6102006110c8565b90565b6110fa6110e4565b90565b3461112d5761110d3660046103cf565b6111296111186110f2565b6111206103c1565b91829182610428565b0390f35b6103c7565b61113c6001610984565b90565b611147611132565b90565b3461117a5761115a3660046103cf565b61117661116561113f565b61116d6103c1565b9182918261072a565b0390f35b6103c7565b90565b61119661119161119b9261117f565b6103e4565b6103e1565b90565b6111a9610800611182565b90565b6111b461119e565b90565b346111e7576111c73660046103cf565b6111e36111d26111ac565b6111da6103c1565b91829182610428565b0390f35b6103c7565b9060208282031261120557611202915f0161058e565b90565b6103cb565b3461123a576112366112256112203660046111ec565b6127c1565b61122d6103c1565b9182918261072a565b0390f35b6103c7565b9190604083820312611267578061125b611264925f860161058e565b936020016105b1565b90565b6103cb565b3461129d5761129961128861128236600461123f565b90612854565b6112906103c1565b9182918261072a565b0390f35b6103c7565b90565b6112b96112b46112be926112a2565b6103e4565b610475565b90565b6112cb60066112a5565b90565b6112d66112c1565b90565b34611309576112e93660046103cf565b6113056112f46112ce565b6112fc6103c1565b9182918261072a565b0390f35b6103c7565b3461133e5761133a6113296113243660046111ec565b6128d9565b6113316103c1565b918291826107fe565b0390f35b6103c7565b90565b61135a61135561135f92611343565b6103e4565b6103e1565b90565b61136d610100611346565b90565b611378611362565b90565b346113ab5761138b3660046103cf565b6113a7611396611370565b61139e6103c1565b91829182610428565b0390f35b6103c7565b6113b990610fc2565b9052565b91906113d0905f602085019401906113b0565b565b34611402576113fe6113ed6113e83660046111ec565b612ccf565b6113f56103c1565b918291826113bd565b0390f35b6103c7565b90565b61141e61141961142392611407565b6103e4565b6103e1565b90565b61143161040061140a565b90565b61143c611426565b90565b3461146f5761144f3660046103cf565b61146b61145a611434565b6114626103c1565b91829182610428565b0390f35b6103c7565b6114a96114b09461149f606094989795611495608086019a5f87019061064c565b602085019061041b565b604083019061041b565b0190610659565b565b346114ed576114e96114d46114c83660046105e8565b94939093929192612d1d565b906114e09492946103c1565b94859485611474565b0390f35b6103c7565b6114fc60056106f6565b90565b6115076114f2565b90565b3461153a5761151a3660046103cf565b6115366115256114ff565b61152d6103c1565b9182918261072a565b0390f35b6103c7565b90916060828403126115745761157161155a845f850161058e565b9361156881602086016105b1565b936040016105b1565b90565b6103cb565b346115aa576115a661159561158f36600461153f565b91612ec7565b61159d6103c1565b91829182610428565b0390f35b6103c7565b6115b960046109f0565b90565b6115c46115af565b90565b346115f7576115d73660046103cf565b6115f36115e26115bc565b6115ea6103c1565b9182918261072a565b0390f35b6103c7565b611604610497565b90565b34611637576116173660046103cf565b6116336116226115fc565b61162a6103c1565b9182918261072a565b0390f35b6103c7565b90565b61165361164e6116589261163c565b6103e4565b610475565b90565b6116645f61163f565b90565b61166f61165b565b90565b346116a2576116823660046103cf565b61169e61168d611667565b6116956103c1565b9182918261072a565b0390f35b6103c7565b90565b6116be6116b96116c3926116a7565b6103e4565b610475565b90565b6116d060086116aa565b90565b6116db6116c6565b90565b3461170e576116ee3660046103cf565b61170a6116f96116d3565b6117016103c1565b9182918261072a565b0390f35b6103c7565b61171d60066112a5565b90565b611728611713565b90565b3461175b5761173b3660046103cf565b611757611746611720565b61174e6103c1565b9182918261072a565b0390f35b6103c7565b346117905761178c61177b6117763660046111ec565b612f2d565b6117836103c1565b9182918261072a565b0390f35b6103c7565b346117c6576117c26117b16117ab36600461123f565b90612f5c565b6117b96103c1565b91829182610428565b0390f35b6103c7565b90565b6117e26117dd6117e7926117cb565b6103e4565b6103e1565b90565b6117f56120006117ce565b90565b6118006117ea565b90565b34611833576118133660046103cf565b61182f61181e6117f8565b6118266103c1565b91829182610428565b0390f35b6103c7565b90565b61184f61184a61185492611838565b6103e4565b610475565b90565b611861600961183b565b90565b61186c611857565b90565b3461189f5761187f3660046103cf565b61189b61188a611864565b6118926103c1565b9182918261072a565b0390f35b6103c7565b909160c082840312611903576118bc835f840161058e565b926118ca816020850161058e565b926118d882604083016105b1565b926119006118e984606085016105b1565b936118f781608086016105d9565b9360a0016105b1565b90565b6103cb565b3461193f5761193b61192a61191e3660046118a4565b94939093929192612f85565b6119326103c1565b918291826107fe565b0390f35b6103c7565b61194e6002610dab565b90565b611959611944565b90565b3461198c5761196c3660046103cf565b611988611977611951565b61197f6103c1565b9182918261072a565b0390f35b6103c7565b90565b6119a86119a36119ad92611991565b6103e4565b610475565b90565b6119ba600b611994565b90565b6119c56119b0565b90565b346119f8576119d83660046103cf565b6119f46119e36119bd565b6119eb6103c1565b9182918261072a565b0390f35b6103c7565b34611a2d57611a29611a18611a133660046107e0565b613140565b611a206103c1565b9182918261072a565b0390f35b6103c7565b611a3c6003610777565b90565b611a47611a32565b90565b34611a7a57611a5a3660046103cf565b611a76611a65611a3f565b611a6d6103c1565b9182918261072a565b0390f35b6103c7565b9091606082840312611ab457611ab1611a9a845f850161058e565b93611aa8816020860161058e565b936040016105d9565b90565b6103cb565b34611aea57611ae6611ad5611acf366004611a7f565b9161319f565b611add6103c1565b918291826107fe565b0390f35b6103c7565b34611b1f57611b1b611b0a611b053660046107e0565b613387565b611b126103c1565b918291826107fe565b0390f35b6103c7565b34611b5557611b51611b40611b3a36600461123f565b906133ce565b611b486103c1565b91829182610428565b0390f35b6103c7565b611b6460066112a5565b90565b611b6f611b5a565b90565b34611ba257611b823660046103cf565b611b9e611b8d611b67565b611b956103c1565b9182918261072a565b0390f35b6103c7565b5f80fd5b5f90565b5f90565b5f90565b634e487b7160e01b5f52601160045260245ffd5b611bd7611bdd91610475565b91610475565b019060ff8211611be957565b611bb7565b611bfa611c0091610475565b91610475565b90039060ff8211611c0d57565b611bb7565b634e487b7160e01b5f52601260045260245ffd5b611c32611c3891610475565b91610475565b908115611c43570490565b611c12565b5f0b90565b611c61611c5c611c6692610475565b6103e4565b611c48565b90565b611c75611c7b91611c48565b91611c48565b900390607f8213607f19831217611c8e57565b611bb7565b611ca7611ca2611cac92610da8565b6103e4565b611c48565b90565b90565b611cc6611cc1611ccb92611caf565b6103e4565b611c48565b90565b611cda611ce091610475565b91610475565b908115611ceb570690565b611c12565b611d04611cff611d099261163c565b6103e4565b611c48565b90565b90565b611d23611d1e611d2892611d0c565b6103e4565b610475565b90565b90565b611d42611d3d611d4792611d2b565b6103e4565b610475565b90565b90565b611d61611d5c611d6692611d4a565b6103e4565b610475565b90565b611d7d611d78611d82926104a4565b6103e4565b610fc2565b90565b611d91611d9791610fc2565b91610fc2565b019061ffff8211611da457565b611bb7565b919395949092611db7611bab565b50611dc0611bab565b50611dc9611baf565b50611dd2611baf565b50611ddb611bb3565b5082908495611de95f61163f565b94611df5818390612854565b90611e0a611e0283613140565b918590612854565b80611e1d611e175f61163f565b91610475565b141599611e4483611e3d611e37611e32611132565b610475565b91610475565b149a6127c1565b8a80612600575b90816125dd575b5061257e575b611e6a90611e64610497565b90612f5c565b91896124c9575b80611e8b611e85611e80611713565b610475565b91610475565b1461232d575b611eaa611ea4611e9f6115af565b610475565b91610475565b14612258575b84611ec3611ebd5f61163f565b91610475565b1480612237575b5f146120f45750611f069291611eeb611ef692611ee5611362565b9061271c565b955b90859091612ec7565b90611f005f61163f565b91612ec7565b978561203c575b5050611f5a90858015612035575b5f1461200957611f3490611f2e5f61163f565b906133ce565b5b611f3f83156105c0565b611fdd575b825f14611fcf57611f536108d3565b905b6126c0565b90611f6f87611f6983156105c0565b9061269e565b5f14611fa157611f8f91905f14611f9357611f886117ea565b905b61271c565b935b565b611f9b6108d3565b90611f8a565b611fbb91905f14611fc157611fb46117ea565b905b6126c0565b93611f91565b611fc96108d3565b90611fb6565b611fd76117ea565b90611f55565b80611ffe611fee6120049392612ccf565b611ff86001611d69565b90611d85565b90612745565b611f44565b8061202a61201a6120309392612f2d565b6120246001610984565b90611bcb565b906133ce565b611f35565b5084611f1b565b6120508261204a60086116aa565b90611c26565b84806120d9575b9081156120a4575b5061206a575b611f0d565b90611f5a929861208592855f1461208d575b90919091612ec7565b96905f612065565b61209f90612099611b5a565b90611bcb565b61207c565b90506120b085156105c0565b90816120be575b505f61205f565b90506120d26120cc5f61163f565b91610475565b145f6120b7565b50806120ee6120e86007610c12565b91610475565b14612057565b846121086121026007610c12565b91610475565b1480612216575b5f146121375750611f069291612130611ef69261212a6110e4565b9061271c565b955b611eed565b8461214b6121456038611d0f565b91610475565b14806121f5575b5f1461217a5750611f069291612173611ef69261216d611426565b9061271c565b955b612132565b8495919561219161218b603f61047b565b91610475565b1490816121d3575b506121ad575b611f069291611ef691612175565b93611f0692916121c8611ef6926121c261119e565b9061271c565b95915091925061219f565b90506121ee6121e86121e3610bc2565b610475565b91610475565b145f612199565b508061221061220a612205610bc2565b610475565b91610475565b14612152565b508061223161222b612226610a0c565b610475565b91610475565b1461210f565b508061225261224c612247610a0c565b610475565b91610475565b14611eca565b908361226c6122665f61163f565b91610475565b145f1461228c576122859061227f611362565b9061271c565b905b611eb0565b836122a061229a6007610c12565b91610475565b145f146122c0576122b9906122b36110e4565b9061271c565b905b612287565b836122d46122ce6038611d0f565b91610475565b145f146122f4576122ed906122e7611426565b9061271c565b905b6122bb565b9083612309612303603f61047b565b91610475565b14612314575b6122ef565b906123279061232161119e565b9061271c565b9061230f565b9161236f61234d6123488861234260086116aa565b90611cce565b611c4d565b6123696123648861235e60086116aa565b90611cce565b611c4d565b90611c69565b8061238361237d6002611c93565b91611c48565b1480156124ad575b6123bf575b506123ab90885f146123b1576123a4610d5b565b905b61271c565b91611e91565b6123b9610e96565b906123a6565b6123ab9197612431612441926123dd6123d75f611cf0565b91611c48565b13916123e7611bb3565b506123f0611bb3565b508b5f1461246557825f14612457576124096007610c12565b5b925f146124485761241b60056106f6565b5b905b61242b8192918590612854565b91612ec7565b9061243b5f61163f565b91612ec7565b9690612390565b6124526003610777565b61241c565b6124605f61163f565b61240a565b825f1461249e57612476603f61047b565b5b925f1461248f57612488603d611d4d565b5b9061241e565b612499603b611d2e565b612489565b6124a86038611d0f565b612477565b50806124c36124bd600119611cb2565b91611c48565b1461238b565b61250a6124e86124e3886124dd60086116aa565b90611c26565b611c4d565b6125046124ff886124f960086116aa565b90611c26565b611c4d565b90611c69565b8061251e6125186002611c93565b91611c48565b14908115612561575b50612532575b611e71565b9161255b90612555612545878990611bcb565b61254f6002610dab565b90611c26565b90612f5c565b9161252d565b9050612577612571600119611cb2565b91611c48565b145f612527565b9950949650855f146125c1576125b36125a18561259b60086116aa565b90611bee565b5b97886125ad5f61163f565b91612ec7565b94611e6a60019a9050611e58565b6125b36125d8856125d260086116aa565b90611bcb565b6125a2565b90506125f86125f26125ed610497565b610475565b91610475565b14155f611e52565b508661261461260e83610475565b91610475565b14611e4b565b612622611baf565b50806126376126316007610c12565b91610475565b10159081612644575b5090565b9050612659612653600c61084b565b91610475565b11155f612640565b61267561267061267a9261163c565b6103e4565b6103e1565b90565b612685611baf565b50166126996126935f612661565b916103e1565b141590565b6126bd916126aa611baf565b506126b682829061346a565b909161350c565b90565b6126d4906126cc611bab565b5091196103e1565b1690565b906126e1611baf565b50816126f56126ef5f61163f565b91610475565b146127165761270a5761270790613387565b90565b6127139061261a565b90565b50505f90565b612724611bab565b501790565b61273d61273861274292610fc2565b6103e4565b6103e1565b90565b61276d61277b91612754611bab565b50612766612760610adb565b196103e1565b1692612729565b612775610403565b906104c7565b1790565b90612788611baf565b50612799576127969061261a565b90565b6127a290613387565b90565b6127b96127b46127be926103e1565b6103e4565b610475565b90565b6127dc906127cd611bb3565b506127d6610b56565b166127a5565b90565b6127eb6127f191610475565b91610475565b02906127fc82610475565b91820361280557565b611bb7565b1c90565b61282d9061282761282161283294610475565b916103e1565b9061280a565b6103e1565b90565b90565b61284c61284761285192612835565b6103e4565b6103e1565b90565b61288f9161287961287f92612867611bb3565b509161287360046109f0565b906127df565b9061280e565b612889600f612838565b166127a5565b90565b600161289e9101610475565b90565b6128b56128b06128ba92610d3c565b6103e4565b610475565b90565b6128c690610475565b60ff81146128d45760010190565b611bb7565b6128e1611baf565b506128eb5f61163f565b916128f55f61163f565b925f925f5f945f956129065f61163f565b5b8061291b61291560406128a1565b91610475565b1015612b0e5761292c858290612854565b8061293f6129395f61163f565b91610475565b14612b045761294d81613140565b908161296861296261295d611132565b610475565b91610475565b148015612ae3575b8015612ac2575b612ab35761298490613387565b5f14612a2257806129a461299e612999611713565b610475565b91610475565b03612a12575b806129c46129be6129b9610793565b610475565b91610475565b14612a08575b6129e36129dd6129d8610dc7565b610475565b91610475565b146129f9575b6129f4905b5b612892565b612907565b90506129f460019190506129e9565b92506001926129ca565b95612a1c906128bd565b956129aa565b80612a3c612a36612a31611713565b610475565b91610475565b03612aa3575b80612a5c612a56612a51610793565b610475565b91610475565b14612a99575b612a7b612a75612a70610dc7565b610475565b91610475565b14612a8a575b6129f4906129ee565b96506129f46001979050612a81565b9350600193612a62565b98612aad906128bd565b98612a42565b50505050505050509150505f90565b5081612add612ad7612ad2610712565b610475565b91610475565b14612977565b5081612afe612af8612af36115af565b610475565b91610475565b14612970565b506129f4906129ef565b50919590949693925082612b2a612b245f61163f565b91610475565b1480612c6e575b612c635782612b48612b425f61163f565b91610475565b1480612c48575b9081612c2e575b50612c245782612b6e612b685f61163f565b91610475565b1480612c09575b9081612bef575b50612be657612b94612b8e6001610984565b91610475565b149081612bca575b509081612bc2575b509081612bba575b50612bb5575f90565b600190565b90505f612bac565b90505f612ba4565b9050612bdf612bd96001610984565b91610475565b145f612b9c565b50505050600190565b905083908115612c01575b505f612b7c565b90505f612bfa565b5081612c1e612c186001610984565b91610475565b14612b75565b5050505050600190565b905085908115612c40575b505f612b56565b90505f612c39565b5083612c5d612c576001610984565b91610475565b14612b4f565b505050505050600190565b5083612c82612c7c5f61163f565b91610475565b14612b31565b5f90565b612cab90612ca5612c9f612cb0946103e1565b916103e1565b9061280a565b6103e1565b90565b612cc7612cc2612ccc926103e1565b6103e4565b610fc2565b90565b612cf6612cfb91612cde612c88565b50612ce7610adb565b16612cf0610403565b90612c8c565b612cb3565b90565b90565b612d15612d10612d1a92612cfe565b6103e4565b610475565b90565b959293919091612d2b611baf565b50612d34611bab565b50612d3d611bab565b50612d46611bb3565b94612d61612d5b89868685908c928894612f85565b156105c0565b612e7257612d789495969793929091928894611da9565b505050919092600194612dac612d9886612d9284156105c0565b9061269e565b918690612da68791156105c0565b9161319f565b908080612e62575b5f14612dcb57505050612dc76001610984565b905b565b612dd590156105c0565b9081612e51575b505f14612df55750612dee6002610dab565b905b612dc9565b612dfe83612f2d565b612e11612e0b6064612d01565b91610475565b10155f14612e2b5750612e246003610777565b905b612df0565b90612e35846128d9565b612e3f575b612e26565b9050612e4b60046109f0565b90612e3a565b612e5c9150156105c0565b5f612ddc565b50612e6d82156105c0565b612db4565b50505050925050505f905f915f91612e9d612e97612e915f9496612661565b94612661565b9261163f565b90565b612ebf90612eb9612eb3612ec494610475565b916103e1565b906104c3565b6103e1565b90565b90612f23612f12612f2993612eda611bab565b50612f0b612f05612eeb600f612838565b612eff87612ef960046109f0565b906127df565b90612ea0565b196103e1565b16946104ee565b91612f1d60046109f0565b906127df565b90612ea0565b1790565b612f54612f5991612f3c611bb3565b50612f45610f64565b16612f4e610f38565b90612c8c565b6127a5565b90565b612f8190612f68611bab565b50612f7a612f74610b56565b196103e1565b16916104ee565b1790565b90612f8e611baf565b50612fa2612f9d838590612854565b613140565b92612fb8612fb1848790612854565b879061277f565b61313557612fd6612fd0848484899089928c946135b3565b156105c0565b61312a57612fe992919085918793613794565b61312257613006613000612ffb611132565b610475565b91610475565b14613014575b505050600190565b6130289061302260086116aa565b90611c26565b8180613107575b9182156130d1575b50508080613088575b6130825761304e90156105c0565b9081613066575b50613062575f808061300c565b5f90565b905061307a6130745f61163f565b91610475565b14155f613055565b50505f90565b50816130a361309d613098610dc7565b610475565b91610475565b1080156130b0575b613040565b50816130cb6130c56130c0610712565b610475565b91610475565b116130ab565b6130dd919250156105c0565b90816130ec575b505f80613037565b90506131006130fa5f61163f565b91610475565b145f6130e4565b508061311c6131166007610c12565b91610475565b1461302f565b505050505f90565b505050505050505f90565b505050505050505f90565b613148611bb3565b508061315c6131565f61163f565b91610475565b14613193578061317561316f60066112a5565b91610475565b11156131905761318d90613187611b5a565b90611bee565b90565b90565b5061319c61165b565b90565b92906131a9611baf565b506131b35f61163f565b5b806131c86131c260406128a1565b91610475565b101561337e576131d9858290612854565b93846131ed6131e75f61163f565b91610475565b146133735761320661320086839061277f565b156105c0565b613368576132135f61163f565b5b8061322861322260406128a1565b91610475565b1015613356578261324161323b83610475565b91610475565b1461334d5761325f878585849086926132595f61163f565b94612f85565b6133415761326c86613140565b61328561327f61327a611132565b610475565b91610475565b1461329a575b613295905b612892565b613214565b6132ae816132a860086116aa565b90611c26565b8280613326575b9081156132f1575b506132c8575b61328b565b6132e0878585849086926132da610712565b94612f85565b156132c35750505050915050600190565b90506132fd83156105c0565b908161330b575b505f6132bd565b905061331f6133195f61163f565b91610475565b145f613304565b508061333b6133356007610c12565b91610475565b146132b5565b50505050915050600190565b61329590613290565b509350613363905b612892565b6131b4565b93506133639061335e565b93506133639061335e565b50509150505f90565b61338f611baf565b50806133a461339e6001610984565b91610475565b101590816133b1575b5090565b90506133c66133c060066112a5565b91610475565b11155f6133ad565b6133f6613404916133dd611bab565b506133ef6133e9610f64565b196103e1565b16926104ee565b6133fe610f38565b906104c7565b1790565b60209181520190565b5f7f4b4e460000000000000000000000000000000000000000000000000000000000910152565b6134456003602092613408565b61344e81613411565b0190565b6134679060208101905f818303910152613438565b90565b90613473611bb3565b505f146134ff576134826112c1565b5b61348c5f61163f565b5b806134a161349b60406128a1565b91610475565b10156134dd576134b2838290612854565b6134c46134be84610475565b91610475565b146134d7576134d290612892565b61348d565b91505090565b6134e56103c1565b62461bcd60e51b8152806134fb60048201613452565b0390fd5b613507610867565b613483565b91613515611baf565b5061351f5f61163f565b5b8061353461352e60406128a1565b91610475565b10156135ab57613545848290612854565b806135586135525f61163f565b91610475565b146135a15761356881849061277f565b6135975761357b908590838691926138fb565b61358e57613589905b612892565b613520565b50505050600190565b5061358990613584565b5061358990613584565b505050505f90565b949093926135bf611baf565b506135dc6135d7846135d160086116aa565b90611cce565b611c4d565b926136446135fc6135f7836135f160086116aa565b90611c26565b611c4d565b61363e61361b6136168661361060086116aa565b90611cce565b611c4d565b966136386136338761362d60086116aa565b90611c26565b611c4d565b97611c69565b95611c69565b948061365f613659613654611132565b610475565b91610475565b145f1461367a575061367796959091929394956141b3565b90565b809692939194959661369b613695613690610dc7565b610475565b91610475565b145f146136b45750505050506136b19250614046565b90565b80969594966136d26136cc6136c7610793565b610475565b91610475565b145f146136ed575050506136ea949390919293613fae565b90565b806137076137016136fc6115af565b610475565b91610475565b145f146137225750505061371f949390919293613f4c565b90565b8061373c613736613731610712565b610475565b91610475565b145f1461375757505050613754949390919293613e56565b90565b919550915061377561376f61376a611713565b610475565b91610475565b146137835750505050505f90565b613791949390919293613d47565b90565b906137e16137db6137d56138159796946137ac611baf565b50956137c56137bc888390612854565b97878991612ec7565b906137cf5f61163f565b91612ec7565b94613140565b916127c1565b906137fb6137f56137f0611132565b610475565b91610475565b148061388a575b9081613867575b50613818575b5061269e565b90565b9061384891835f1461384e576138389061383260086116aa565b90611bee565b5b6138425f61163f565b91612ec7565b5f61380f565b6138629061385c60086116aa565b90611bcb565b613839565b905061388261387c613877610497565b610475565b91610475565b14155f613809565b508161389e61389883610475565b91610475565b14613802565b6138ad90611c48565b607f1981146138bb575f0390565b611bb7565b6138d46138cf6138d9926104a4565b6103e4565b611c48565b90565b90565b6138f36138ee6138f8926138dc565b6103e4565b611c48565b90565b91929092613907611baf565b5061391a61391483613140565b92613387565b916139376139328661392c60086116aa565b90611cce565b611c4d565b9361399f6139576139528861394c60086116aa565b90611c26565b611c4d565b6139996139766139718761396b60086116aa565b90611cce565b611c4d565b9761399361398e8861398860086116aa565b90611c26565b611c4d565b98611c69565b96611c69565b95856139b36139ad5f611cf0565b91611c48565b125f14613d41576139c3866138a4565b5b93876139d86139d25f611cf0565b91611c48565b125f14613d3b576139e8886138a4565b5b9380613a046139fe6139f9611132565b610475565b91610475565b145f14613a96575050505050505f14613a8757613a2160016138c0565b5b9080613a37613a3160016138c0565b91611c48565b14908115613a6b575b509182613a4d575b505090565b613a63919250613a5d9092611c48565b91611c48565b145f80613a48565b9050613a80613a7a5f196138df565b91611c48565b145f613a40565b613a915f196138df565b613a22565b80919295989497939650613ab9613ab3613aae610dc7565b610475565b91610475565b145f14613b4b5750505050505081613ada613ad46002611c93565b91611c48565b1480613b30575b918215613aee575b505090565b909150613b04613afe60016138c0565b91611c48565b149081613b14575b505f80613ae9565b9050613b29613b236002611c93565b91611c48565b145f613b0c565b5080613b45613b3f60016138c0565b91611c48565b14613ae1565b80979193959796929496613b6e613b68613b63610793565b610475565b91610475565b145f14613ba85750613b83613b899192611c48565b91611c48565b03613b9f57613b9c949390919293614437565b90565b50505050505f90565b80613bc2613bbc613bb76115af565b610475565b91610475565b145f14613c205750505081613bdf613bd95f611cf0565b91611c48565b141580613c05575b613bfc57613bf9949390919293614437565b90565b50505050505f90565b5082613c19613c135f611cf0565b91611c48565b1415613be7565b80613c3a613c34613c2f610712565b610475565b91610475565b145f14613cd25750613c4f613c559192611c48565b91611c48565b1482613c69613c635f611cf0565b91611c48565b148015613cb3575b613c7c9091156105c0565b9081613ca2575b50613c9957613c96949390919293614437565b90565b50505050505f90565b613cad9150156105c0565b5f613c83565b50613c7c84613cca613cc45f611cf0565b91611c48565b149050613c71565b9450945094505050613cf3613ced613ce8611713565b610475565b91610475565b14613cfe5750505f90565b613d11613d0b60016138c0565b91611c48565b13159081613d1e575b5090565b9050613d33613d2d60016138c0565b91611c48565b13155f613d1a565b876139e9565b856139c4565b9392919092613d54611baf565b5082613d68613d625f611cf0565b91611c48565b125f14613e5057613d78836138a4565b5b9080613d8d613d875f611cf0565b91611c48565b125f14613e4b57613d9d906138a4565b5b81613db2613dac60016138c0565b91611c48565b131580613e2f575b613e2457613dd0613dca5f611cf0565b91611c48565b149081613e08575b50613de557505050505f90565b613e0593929091613dfe613df85f611cf0565b91611c48565b1392614660565b90565b9050613e1d613e176002611c93565b91611c48565b145f613dd8565b505050505050600190565b5080613e44613e3e60016138c0565b91611c48565b1315613dba565b613d9e565b82613d79565b9391929092613e63611baf565b5081613e77613e715f611cf0565b91611c48565b125f14613f4657613e87826138a4565b5b83613e9b613e955f611cf0565b91611c48565b125f14613f3a57613ebd613eb7613eb1866138a4565b5b611c48565b91611c48565b1482613ed1613ecb5f611cf0565b91611c48565b148015613f1b575b613ee49091156105c0565b9081613f0a575b50613f0157613efe949390919293614437565b90565b50505050505f90565b613f159150156105c0565b5f613eeb565b50613ee484613f32613f2c5f611cf0565b91611c48565b149050613ed9565b613ebd613eb785613eb2565b81613e88565b9391929092613f59611baf565b5081613f6d613f675f611cf0565b91611c48565b141580613f93575b613f8a57613f87949390919293614437565b90565b50505050505f90565b5082613fa7613fa15f611cf0565b91611c48565b1415613f75565b9391929092613fbb611baf565b5081613fcf613fc95f611cf0565b91611c48565b125f1461404057613fdf826138a4565b5b83613ff3613fed5f611cf0565b91611c48565b125f146140345761401561400f614009866138a4565b5b611c48565b91611c48565b0361402b57614028949390919293614437565b90565b50505050505f90565b61401561400f8561400a565b81613fe0565b61404e611baf565b508061406261405c5f611cf0565b91611c48565b125f1461412257614072906138a4565b5b90806140876140815f611cf0565b91611c48565b125f1461411d57614097906138a4565b5b816140ac6140a66002611c93565b91611c48565b1480614102575b9182156140c0575b505090565b9091506140d66140d060016138c0565b91611c48565b1490816140e6575b505f806140bb565b90506140fb6140f56002611c93565b91611c48565b145f6140de565b508061411761411160016138c0565b91611c48565b146140b3565b614098565b614073565b61413361413991611c48565b91611c48565b029061414482611c48565b91820361414d57565b611bb7565b61416661416161416b926116a7565b6103e4565b611c48565b90565b61417a61418091611c48565b91611c48565b0190607f198212607f83131761419257565b611bb7565b6141ab6141a66141b092611c48565b6103e4565b610475565b90565b9294959190956141c1611baf565b50845f14614428576141d360016138c0565b5b91855f14614419576141e66001610984565b5b826141fa6141f45f611cf0565b91611c48565b146142ef575b50508061421661421060016138c0565b91611c48565b149081156142d3575b5091826142b5575b5050614236575b505050505f90565b614241908390612854565b908161425561424f5f61163f565b91610475565b14159182614299575b50506142925761427961427461427f92936127c1565b610475565b91610475565b1461428d575f80808061422e565b600190565b5050600190565b6142ae9250906142a89161277f565b156105c0565b5f8061425e565b6142cb9192506142c59092611c48565b91611c48565b145f80614227565b90506142e86142e25f196138df565b91611c48565b145f61421f565b846143026142fc86611c48565b91611c48565b146143f2578461432d614327614322600261431d8991611c93565b614127565b611c48565b91611c48565b1490816143c3575b506143405780614200565b6143799497506143809550614374935061436e915061435e90611c4d565b916143696008614152565b614127565b9061416e565b614197565b9183612854565b61439261438c5f61163f565b91610475565b14918261439f575b505090565b6143a99250612854565b6143bb6143b55f61163f565b91610475565b145f8061439a565b90506143eb6143e56143df846143d960086116aa565b90611c26565b92610475565b91610475565b145f614335565b505050505090506144039250612854565b61441561440f5f61163f565b91610475565b1490565b61442360066112a5565b6141e7565b6144325f196138df565b6141d4565b92949094939193614446611baf565b508061445a6144545f611cf0565b91611c48565b145f14614609575061446b5f611cf0565b5b918061448061447a5f611cf0565b91611c48565b145f146145d157506144915f611cf0565b5b926144df6144d86144d36144c26144bb6144b68b6144b060086116aa565b90611cce565b611c4d565b879061416e565b986144cd60086116aa565b90611c26565b611c4d565b859061416e565b956145186145136145026144fd896144f760086116aa565b90611cce565b611c4d565b9761450d60086116aa565b90611c26565b611c4d565b905b8061452d61452789611c48565b91611c48565b141580156145b6575b156145a95761456a61456461455f6145588b6145526008614152565b90614127565b849061416e565b614197565b84612854565b61457c6145765f61163f565b91610475565b0361459d5761458f61459791869061416e565b97869061416e565b9661451a565b50505093505050505f90565b5050509350505050600190565b50876145ca6145c484611c48565b91611c48565b1415614536565b6145e36145dd5f611cf0565b91611c48565b135f146145fa576145f460016138c0565b5b614492565b6146045f196138df565b6145f5565b61461b6146155f611cf0565b91611c48565b135f146146325761462c60016138c0565b5b61446c565b61463c5f196138df565b61462d565b90565b61465861465361465d92614641565b6103e4565b610475565b90565b92919061466b611baf565b5081806149b1575b6149a95761468182156105c0565b80614991575b61498957815f1461490c5782806148f4575b6148ec576146a783156105c0565b806148d4575b6148cc576146c3906146bd6108d3565b9061267d565b6148c5575b805f146148b6576146d960046109f0565b5b915f146147b0576146ff836146f9846146f36001610984565b90611bcb565b90612854565b61471161470b5f61163f565b91610475565b036147a9576147348361472e846147286002610dab565b90611bcb565b90612854565b6147466147405f61163f565b91610475565b036147a25761476a836147638461475d6001610984565b90611bcb565b839161350c565b61479b5761478661478d93926147806002610dab565b90611bcb565b909161350c565b614797575b600190565b5f90565b5050505f90565b5050505f90565b5050505f90565b6147ce836147c8846147c26001610984565b90611bee565b90612854565b6147e06147da5f61163f565b91610475565b036148af57614803836147fd846147f76002610dab565b90611bee565b90612854565b61481561480f5f61163f565b91610475565b036148a857614838836148328461482c6003610777565b90611bee565b90612854565b61484a6148445f61163f565b91610475565b036148a15761486e83614867846148616001610984565b90611bee565b839161350c565b61489a5761488a61489193926148846002610dab565b90611bee565b909161350c565b15614792575f90565b5050505f90565b5050505f90565b5050505f90565b5050505f90565b6148c0603c614644565b6146da565b5050505f90565b505050505f90565b506148e7816148e1611362565b9061267d565b6146ad565b505050505f90565b50614907816149016110e4565b9061267d565b614699565b8280614971575b6149695761492183156105c0565b80614951575b6149495761493d906149376117ea565b9061267d565b156146c8575050505f90565b505050505f90565b506149648161495e611426565b9061267d565b614927565b505050505f90565b506149848161497e61119e565b9061267d565b614913565b505050505f90565b506149a48161499e610e96565b9061267d565b614687565b505050505f90565b506149c4816149be610d5b565b9061267d565b61467356fea26469706673582212206c58a25cf0376d2f563e379efb012f2625fb9b55eae6b13d1a50d301cc2fb42664736f6c634300081e0033","linkReferences":{}},"methodIdentifiers":{"BLACK_BISHOP()":"c3aec9d7","BLACK_IN_CHECK()":"bbf809ab","BLACK_KING()":"1d210781","BLACK_KING_MOVED()":"5e9bbc95","BLACK_KNIGHT()":"a761e186","BLACK_OFFSET()":"fe8d774f","BLACK_PAWN()":"4bc908aa","BLACK_QUEEN()":"d0ddba51","BLACK_ROOK()":"4a72f353","BLACK_ROOK_A_MOVED()":"8f1fb7c6","BLACK_ROOK_H_MOVED()":"6b094486","EP_MASK()":"4170b290","FULL_MOVE_MASK()":"32a676f5","FULL_MOVE_SHIFT()":"00789771","HALF_MOVE_MASK()":"625d78ca","HALF_MOVE_SHIFT()":"673dfee5","INITIAL_BOARD()":"52fbc42c","INITIAL_STATE()":"04adf46b","NO_EN_PASSANT()":"a297449a","PIECE_BISHOP()":"0dee0ffa","PIECE_KING()":"a9c479c2","PIECE_KNIGHT()":"592053a3","PIECE_NONE()":"a3f3bdfc","PIECE_PAWN()":"69c88387","PIECE_QUEEN()":"087e4c90","PIECE_ROOK()":"95f7eec7","WHITE_BISHOP()":"d2e1d46e","WHITE_IN_CHECK()":"23f062d5","WHITE_KING()":"75f1b02f","WHITE_KING_MOVED()":"57014dbe","WHITE_KNIGHT()":"c79df6b0","WHITE_PAWN()":"2aa41614","WHITE_QUEEN()":"947bb359","WHITE_ROOK()":"2c1bf25e","WHITE_ROOK_A_MOVED()":"8cc25d5c","WHITE_ROOK_H_MOVED()":"680ecd5e","clearFlag(uint256,uint256)":"4c63ed62","executeMove(uint256,uint256,uint8,uint8,uint8,bool)":"04e85234","getEnPassantSquare(uint256)":"70979f12","getFullMoveNumber(uint256)":"8f192c5a","getHalfMoveClock(uint256)":"afa02980","getPiece(uint256,uint8)":"7394e19c","getPieceType(uint8)":"d175b817","hasFlag(uint256,uint256)":"295e65fb","hasLegalMoves(uint256,uint256,bool)":"dc565cfc","isBlackPiece(uint8)":"0f155796","isEnemyPiece(uint8,bool)":"59c9e65a","isInsufficientMaterial(uint256)":"82f3322c","isKingInCheck(uint256,bool)":"3041853e","isOwnPiece(uint8,bool)":"678c591a","isValidMove(uint256,uint256,uint8,uint8,bool,uint8)":"c74bd5f6","isWhitePiece(uint8)":"e40fef00","processMove(uint256,uint256,uint8,uint8,uint8,bool)":"90396a79","setEnPassantSquare(uint256,uint8)":"b5ac90a1","setFlag(uint256,uint256)":"61f1d889","setFullMoveNumber(uint256,uint16)":"635ba9ac","setHalfMoveClock(uint256,uint8)":"ed19d908","setPiece(uint256,uint8,uint8)":"94e089c2"},"id":5}