{"abi":[{"type":"constructor","inputs":[{"name":"_moduleCoreAddress","type":"address","internalType":"address"},{"name":"_moduleMatchesAddress","type":"address","internalType":"address"},{"name":"_modulePrizesAddress","type":"address","internalType":"address"},{"name":"_moduleRaffleAddress","type":"address","internalType":"address"},{"name":"_moduleEscalationAddress","type":"address","internalType":"address"},{"name":"_moduleChessRulesAddress","type":"address","internalType":"address"}],"stateMutability":"nonpayable"},{"type":"function","name":"BASIS_POINTS","inputs":[],"outputs":[{"name":"","type":"uint256","internalType":"uint256"}],"stateMutability":"view"},{"type":"function","name":"CHESS_RULES","inputs":[],"outputs":[{"name":"","type":"address","internalType":"contract IChessRules"}],"stateMutability":"view"},{"type":"function","name":"MODULE_CORE","inputs":[],"outputs":[{"name":"","type":"address","internalType":"address"}],"stateMutability":"view"},{"type":"function","name":"MODULE_ESCALATION","inputs":[],"outputs":[{"name":"","type":"address","internalType":"address"}],"stateMutability":"view"},{"type":"function","name":"MODULE_MATCHES","inputs":[],"outputs":[{"name":"","type":"address","internalType":"address"}],"stateMutability":"view"},{"type":"function","name":"MODULE_PRIZES","inputs":[],"outputs":[{"name":"","type":"address","internalType":"address"}],"stateMutability":"view"},{"type":"function","name":"MODULE_RAFFLE","inputs":[],"outputs":[{"name":"","type":"address","internalType":"address"}],"stateMutability":"view"},{"type":"function","name":"NO_ROUND","inputs":[],"outputs":[{"name":"","type":"uint8","internalType":"uint8"}],"stateMutability":"view"},{"type":"function","name":"OWNER_SHARE_BPS","inputs":[],"outputs":[{"name":"","type":"uint256","internalType":"uint256"}],"stateMutability":"view"},{"type":"function","name":"PARTICIPANTS_SHARE_BPS","inputs":[],"outputs":[{"name":"","type":"uint256","internalType":"uint256"}],"stateMutability":"view"},{"type":"function","name":"PROTOCOL_SHARE_BPS","inputs":[],"outputs":[{"name":"","type":"uint256","internalType":"uint256"}],"stateMutability":"view"},{"type":"function","name":"_completeMatchWithResult","inputs":[{"name":"matchId","type":"bytes32","internalType":"bytes32"},{"name":"winner","type":"address","internalType":"address"},{"name":"isDraw","type":"bool","internalType":"bool"}],"outputs":[],"stateMutability":"nonpayable"},{"type":"function","name":"_createMatchGame","inputs":[{"name":"tierId","type":"uint8","internalType":"uint8"},{"name":"instanceId","type":"uint8","internalType":"uint8"},{"name":"roundNumber","type":"uint8","internalType":"uint8"},{"name":"matchNumber","type":"uint8","internalType":"uint8"},{"name":"player1","type":"address","internalType":"address"},{"name":"player2","type":"address","internalType":"address"}],"outputs":[],"stateMutability":"nonpayable"},{"type":"function","name":"_getActiveMatchData","inputs":[{"name":"matchId","type":"bytes32","internalType":"bytes32"},{"name":"tierId","type":"uint8","internalType":"uint8"},{"name":"instanceId","type":"uint8","internalType":"uint8"},{"name":"roundNumber","type":"uint8","internalType":"uint8"},{"name":"matchNumber","type":"uint8","internalType":"uint8"}],"outputs":[{"name":"","type":"tuple","internalType":"struct ETour_Storage.CommonMatchData","components":[{"name":"player1","type":"address","internalType":"address"},{"name":"player2","type":"address","internalType":"address"},{"name":"winner","type":"address","internalType":"address"},{"name":"loser","type":"address","internalType":"address"},{"name":"status","type":"uint8","internalType":"enum ETour_Storage.MatchStatus"},{"name":"isDraw","type":"bool","internalType":"bool"},{"name":"startTime","type":"uint256","internalType":"uint256"},{"name":"lastMoveTime","type":"uint256","internalType":"uint256"},{"name":"tierId","type":"uint8","internalType":"uint8"},{"name":"instanceId","type":"uint8","internalType":"uint8"},{"name":"roundNumber","type":"uint8","internalType":"uint8"},{"name":"matchNumber","type":"uint8","internalType":"uint8"},{"name":"isCached","type":"bool","internalType":"bool"}]}],"stateMutability":"view"},{"type":"function","name":"_getMatchPlayers","inputs":[{"name":"matchId","type":"bytes32","internalType":"bytes32"}],"outputs":[{"name":"player1","type":"address","internalType":"address"},{"name":"player2","type":"address","internalType":"address"}],"stateMutability":"view"},{"type":"function","name":"_getMatchResult","inputs":[{"name":"matchId","type":"bytes32","internalType":"bytes32"}],"outputs":[{"name":"","type":"address","internalType":"address"},{"name":"","type":"bool","internalType":"bool"},{"name":"","type":"uint8","internalType":"enum ETour_Storage.MatchStatus"}],"stateMutability":"view"},{"type":"function","name":"_getTimeIncrement","inputs":[],"outputs":[{"name":"","type":"uint256","internalType":"uint256"}],"stateMutability":"pure"},{"type":"function","name":"_hasCurrentPlayerTimedOut","inputs":[{"name":"matchId","type":"bytes32","internalType":"bytes32"}],"outputs":[{"name":"","type":"bool","internalType":"bool"}],"stateMutability":"view"},{"type":"function","name":"_initializeMatchForPlay","inputs":[{"name":"matchId","type":"bytes32","internalType":"bytes32"},{"name":"tierId","type":"uint8","internalType":"uint8"}],"outputs":[],"stateMutability":"nonpayable"},{"type":"function","name":"_isMatchActive","inputs":[{"name":"matchId","type":"bytes32","internalType":"bytes32"}],"outputs":[{"name":"","type":"bool","internalType":"bool"}],"stateMutability":"view"},{"type":"function","name":"_resetMatchGame","inputs":[{"name":"matchId","type":"bytes32","internalType":"bytes32"}],"outputs":[],"stateMutability":"nonpayable"},{"type":"function","name":"_setMatchPlayer","inputs":[{"name":"matchId","type":"bytes32","internalType":"bytes32"},{"name":"slot","type":"uint8","internalType":"uint8"},{"name":"player","type":"address","internalType":"address"}],"outputs":[],"stateMutability":"nonpayable"},{"type":"function","name":"accumulatedProtocolShare","inputs":[],"outputs":[{"name":"","type":"uint256","internalType":"uint256"}],"stateMutability":"view"},{"type":"function","name":"canResetEnrollmentWindow","inputs":[{"name":"tierId","type":"uint8","internalType":"uint8"},{"name":"instanceId","type":"uint8","internalType":"uint8"}],"outputs":[{"name":"","type":"bool","internalType":"bool"}],"stateMutability":"view"},{"type":"function","name":"claimAbandonedEnrollmentPool","inputs":[{"name":"tierId","type":"uint8","internalType":"uint8"},{"name":"instanceId","type":"uint8","internalType":"uint8"}],"outputs":[],"stateMutability":"nonpayable"},{"type":"function","name":"claimMatchSlotByReplacement","inputs":[{"name":"tierId","type":"uint8","internalType":"uint8"},{"name":"instanceId","type":"uint8","internalType":"uint8"},{"name":"roundNumber","type":"uint8","internalType":"uint8"},{"name":"matchNumber","type":"uint8","internalType":"uint8"}],"outputs":[],"stateMutability":"nonpayable"},{"type":"function","name":"claimTimeoutWin","inputs":[{"name":"tierId","type":"uint8","internalType":"uint8"},{"name":"instanceId","type":"uint8","internalType":"uint8"},{"name":"roundNumber","type":"uint8","internalType":"uint8"},{"name":"matchNumber","type":"uint8","internalType":"uint8"}],"outputs":[],"stateMutability":"nonpayable"},{"type":"function","name":"currentRaffleIndex","inputs":[],"outputs":[{"name":"","type":"uint256","internalType":"uint256"}],"stateMutability":"view"},{"type":"function","name":"drawParticipants","inputs":[{"name":"","type":"uint8","internalType":"uint8"},{"name":"","type":"uint8","internalType":"uint8"},{"name":"","type":"uint8","internalType":"uint8"},{"name":"","type":"uint8","internalType":"uint8"},{"name":"","type":"address","internalType":"address"}],"outputs":[{"name":"","type":"bool","internalType":"bool"}],"stateMutability":"view"},{"type":"function","name":"eliteMatches","inputs":[{"name":"","type":"uint256","internalType":"uint256"}],"outputs":[{"name":"player1","type":"address","internalType":"address"},{"name":"player2","type":"address","internalType":"address"},{"name":"winner","type":"address","internalType":"address"},{"name":"currentTurn","type":"address","internalType":"address"},{"name":"firstPlayer","type":"address","internalType":"address"},{"name":"status","type":"uint8","internalType":"enum ETour_Storage.MatchStatus"},{"name":"isDraw","type":"bool","internalType":"bool"},{"name":"packedBoard","type":"uint256","internalType":"uint256"},{"name":"packedState","type":"uint256","internalType":"uint256"},{"name":"startTime","type":"uint256","internalType":"uint256"},{"name":"lastMoveTime","type":"uint256","internalType":"uint256"},{"name":"player1TimeRemaining","type":"uint256","internalType":"uint256"},{"name":"player2TimeRemaining","type":"uint256","internalType":"uint256"},{"name":"moves","type":"string","internalType":"string"}],"stateMutability":"view"},{"type":"function","name":"enrollInTournament","inputs":[{"name":"tierId","type":"uint8","internalType":"uint8"},{"name":"instanceId","type":"uint8","internalType":"uint8"}],"outputs":[],"stateMutability":"payable"},{"type":"function","name":"enrolledPlayers","inputs":[{"name":"","type":"uint8","internalType":"uint8"},{"name":"","type":"uint8","internalType":"uint8"},{"name":"","type":"uint256","internalType":"uint256"}],"outputs":[{"name":"","type":"address","internalType":"address"}],"stateMutability":"view"},{"type":"function","name":"executeProtocolRaffle","inputs":[],"outputs":[],"stateMutability":"nonpayable"},{"type":"function","name":"forceEliminateStalledMatch","inputs":[{"name":"tierId","type":"uint8","internalType":"uint8"},{"name":"instanceId","type":"uint8","internalType":"uint8"},{"name":"roundNumber","type":"uint8","internalType":"uint8"},{"name":"matchNumber","type":"uint8","internalType":"uint8"}],"outputs":[],"stateMutability":"nonpayable"},{"type":"function","name":"forceStartTournament","inputs":[{"name":"tierId","type":"uint8","internalType":"uint8"},{"name":"instanceId","type":"uint8","internalType":"uint8"}],"outputs":[],"stateMutability":"nonpayable"},{"type":"function","name":"getBoard","inputs":[{"name":"tierId","type":"uint8","internalType":"uint8"},{"name":"instanceId","type":"uint8","internalType":"uint8"},{"name":"roundNumber","type":"uint8","internalType":"uint8"},{"name":"matchNumber","type":"uint8","internalType":"uint8"}],"outputs":[{"name":"board","type":"uint8[64]","internalType":"uint8[64]"}],"stateMutability":"view"},{"type":"function","name":"getLeaderboard","inputs":[],"outputs":[{"name":"","type":"tuple[]","internalType":"struct ETour_Storage.LeaderboardEntry[]","components":[{"name":"player","type":"address","internalType":"address"},{"name":"earnings","type":"int256","internalType":"int256"}]}],"stateMutability":"view"},{"type":"function","name":"getMatch","inputs":[{"name":"tierId","type":"uint8","internalType":"uint8"},{"name":"instanceId","type":"uint8","internalType":"uint8"},{"name":"roundNumber","type":"uint8","internalType":"uint8"},{"name":"matchNumber","type":"uint8","internalType":"uint8"}],"outputs":[{"name":"","type":"tuple","internalType":"struct ChessOnChain.ChessMatchData","components":[{"name":"common","type":"tuple","internalType":"struct ETour_Storage.CommonMatchData","components":[{"name":"player1","type":"address","internalType":"address"},{"name":"player2","type":"address","internalType":"address"},{"name":"winner","type":"address","internalType":"address"},{"name":"loser","type":"address","internalType":"address"},{"name":"status","type":"uint8","internalType":"enum ETour_Storage.MatchStatus"},{"name":"isDraw","type":"bool","internalType":"bool"},{"name":"startTime","type":"uint256","internalType":"uint256"},{"name":"lastMoveTime","type":"uint256","internalType":"uint256"},{"name":"tierId","type":"uint8","internalType":"uint8"},{"name":"instanceId","type":"uint8","internalType":"uint8"},{"name":"roundNumber","type":"uint8","internalType":"uint8"},{"name":"matchNumber","type":"uint8","internalType":"uint8"},{"name":"isCached","type":"bool","internalType":"bool"}]},{"name":"packedBoard","type":"uint256","internalType":"uint256"},{"name":"packedState","type":"uint256","internalType":"uint256"},{"name":"currentTurn","type":"address","internalType":"address"},{"name":"firstPlayer","type":"address","internalType":"address"},{"name":"player1TimeRemaining","type":"uint256","internalType":"uint256"},{"name":"player2TimeRemaining","type":"uint256","internalType":"uint256"}]}],"stateMutability":"view"},{"type":"function","name":"getMatchCountForRound","inputs":[{"name":"tierId","type":"uint8","internalType":"uint8"},{"name":"instanceId","type":"uint8","internalType":"uint8"}],"outputs":[{"name":"","type":"uint8","internalType":"uint8"}],"stateMutability":"view"},{"type":"function","name":"getPlayerActiveTournaments","inputs":[{"name":"player","type":"address","internalType":"address"}],"outputs":[{"name":"","type":"tuple[]","internalType":"struct ETour_Storage.TournamentRef[]","components":[{"name":"tierId","type":"uint8","internalType":"uint8"},{"name":"instanceId","type":"uint8","internalType":"uint8"}]}],"stateMutability":"view"},{"type":"function","name":"getPlayerEnrollingTournaments","inputs":[{"name":"player","type":"address","internalType":"address"}],"outputs":[{"name":"","type":"tuple[]","internalType":"struct ETour_Storage.TournamentRef[]","components":[{"name":"tierId","type":"uint8","internalType":"uint8"},{"name":"instanceId","type":"uint8","internalType":"uint8"}]}],"stateMutability":"view"},{"type":"function","name":"getPlayerStats","inputs":[],"outputs":[{"name":"totalEarnings","type":"int256","internalType":"int256"}],"stateMutability":"view"},{"type":"function","name":"getRaffleHistory","inputs":[],"outputs":[{"name":"","type":"tuple[]","internalType":"struct ETour_Storage.RaffleResult[]","components":[{"name":"executor","type":"address","internalType":"address"},{"name":"timestamp","type":"uint256","internalType":"uint256"},{"name":"rafflePot","type":"uint256","internalType":"uint256"},{"name":"participants","type":"address[]","internalType":"address[]"},{"name":"weights","type":"uint256[]","internalType":"uint256[]"},{"name":"winner","type":"address","internalType":"address"},{"name":"winnerPrize","type":"uint256","internalType":"uint256"},{"name":"protocolReserve","type":"uint256","internalType":"uint256"},{"name":"ownerShare","type":"uint256","internalType":"uint256"}]}],"stateMutability":"view"},{"type":"function","name":"getRaffleInfo","inputs":[],"outputs":[{"name":"raffleIndex","type":"uint256","internalType":"uint256"},{"name":"isReady","type":"bool","internalType":"bool"},{"name":"currentAccumulated","type":"uint256","internalType":"uint256"},{"name":"threshold","type":"uint256","internalType":"uint256"},{"name":"reserve","type":"uint256","internalType":"uint256"},{"name":"raffleAmount","type":"uint256","internalType":"uint256"},{"name":"ownerShare","type":"uint256","internalType":"uint256"},{"name":"winnerShare","type":"uint256","internalType":"uint256"},{"name":"eligiblePlayerCount","type":"uint256","internalType":"uint256"}],"stateMutability":"view"},{"type":"function","name":"getRoundInfo","inputs":[{"name":"tierId","type":"uint8","internalType":"uint8"},{"name":"instanceId","type":"uint8","internalType":"uint8"},{"name":"roundNumber","type":"uint8","internalType":"uint8"}],"outputs":[{"name":"totalMatches","type":"uint8","internalType":"uint8"},{"name":"completedMatches","type":"uint8","internalType":"uint8"},{"name":"initialized","type":"bool","internalType":"bool"}],"stateMutability":"view"},{"type":"function","name":"getTournamentInfo","inputs":[{"name":"tierId","type":"uint8","internalType":"uint8"},{"name":"instanceId","type":"uint8","internalType":"uint8"}],"outputs":[{"name":"status","type":"uint8","internalType":"enum ETour_Storage.TournamentStatus"},{"name":"currentRound","type":"uint8","internalType":"uint8"},{"name":"enrolledCount","type":"uint8","internalType":"uint8"},{"name":"prizePool","type":"uint256","internalType":"uint256"},{"name":"winner","type":"address","internalType":"address"}],"stateMutability":"view"},{"type":"function","name":"initializeRound","inputs":[{"name":"tierId","type":"uint8","internalType":"uint8"},{"name":"instanceId","type":"uint8","internalType":"uint8"},{"name":"roundNumber","type":"uint8","internalType":"uint8"}],"outputs":[],"stateMutability":"nonpayable"},{"type":"function","name":"isEnrolled","inputs":[{"name":"","type":"uint8","internalType":"uint8"},{"name":"","type":"uint8","internalType":"uint8"},{"name":"","type":"address","internalType":"address"}],"outputs":[{"name":"","type":"bool","internalType":"bool"}],"stateMutability":"view"},{"type":"function","name":"isMatchEscL2Available","inputs":[{"name":"tierId","type":"uint8","internalType":"uint8"},{"name":"instanceId","type":"uint8","internalType":"uint8"},{"name":"roundNumber","type":"uint8","internalType":"uint8"},{"name":"matchNumber","type":"uint8","internalType":"uint8"}],"outputs":[{"name":"","type":"bool","internalType":"bool"}],"stateMutability":"view"},{"type":"function","name":"isMatchEscL3Available","inputs":[{"name":"tierId","type":"uint8","internalType":"uint8"},{"name":"instanceId","type":"uint8","internalType":"uint8"},{"name":"roundNumber","type":"uint8","internalType":"uint8"},{"name":"matchNumber","type":"uint8","internalType":"uint8"}],"outputs":[{"name":"","type":"bool","internalType":"bool"}],"stateMutability":"view"},{"type":"function","name":"isPlayerInAdvancedRound","inputs":[{"name":"tierId","type":"uint8","internalType":"uint8"},{"name":"instanceId","type":"uint8","internalType":"uint8"},{"name":"stalledRoundNumber","type":"uint8","internalType":"uint8"},{"name":"player","type":"address","internalType":"address"}],"outputs":[{"name":"hasAdvanced","type":"bool","internalType":"bool"}],"stateMutability":"view"},{"type":"function","name":"makeMove","inputs":[{"name":"tierId","type":"uint8","internalType":"uint8"},{"name":"instanceId","type":"uint8","internalType":"uint8"},{"name":"roundNumber","type":"uint8","internalType":"uint8"},{"name":"matchNumber","type":"uint8","internalType":"uint8"},{"name":"from","type":"uint8","internalType":"uint8"},{"name":"to","type":"uint8","internalType":"uint8"},{"name":"promotion","type":"uint8","internalType":"uint8"}],"outputs":[],"stateMutability":"nonpayable"},{"type":"function","name":"matchTimeouts","inputs":[{"name":"","type":"bytes32","internalType":"bytes32"}],"outputs":[{"name":"escalation1Start","type":"uint256","internalType":"uint256"},{"name":"escalation2Start","type":"uint256","internalType":"uint256"},{"name":"activeEscalation","type":"uint8","internalType":"enum ETour_Storage.EscalationLevel"},{"name":"isStalled","type":"bool","internalType":"bool"}],"stateMutability":"view"},{"type":"function","name":"matches","inputs":[{"name":"","type":"bytes32","internalType":"bytes32"}],"outputs":[{"name":"player1","type":"address","internalType":"address"},{"name":"player2","type":"address","internalType":"address"},{"name":"winner","type":"address","internalType":"address"},{"name":"currentTurn","type":"address","internalType":"address"},{"name":"firstPlayer","type":"address","internalType":"address"},{"name":"status","type":"uint8","internalType":"enum ETour_Storage.MatchStatus"},{"name":"isDraw","type":"bool","internalType":"bool"},{"name":"packedBoard","type":"uint256","internalType":"uint256"},{"name":"packedState","type":"uint256","internalType":"uint256"},{"name":"startTime","type":"uint256","internalType":"uint256"},{"name":"lastMoveTime","type":"uint256","internalType":"uint256"},{"name":"player1TimeRemaining","type":"uint256","internalType":"uint256"},{"name":"player2TimeRemaining","type":"uint256","internalType":"uint256"},{"name":"moves","type":"string","internalType":"string"}],"stateMutability":"view"},{"type":"function","name":"owner","inputs":[],"outputs":[{"name":"","type":"address","internalType":"address"}],"stateMutability":"view"},{"type":"function","name":"playerActiveMatches","inputs":[{"name":"","type":"address","internalType":"address"},{"name":"","type":"uint256","internalType":"uint256"}],"outputs":[{"name":"","type":"bytes32","internalType":"bytes32"}],"stateMutability":"view"},{"type":"function","name":"playerActiveTournaments","inputs":[{"name":"","type":"address","internalType":"address"},{"name":"","type":"uint256","internalType":"uint256"}],"outputs":[{"name":"tierId","type":"uint8","internalType":"uint8"},{"name":"instanceId","type":"uint8","internalType":"uint8"}],"stateMutability":"view"},{"type":"function","name":"playerEarnings","inputs":[{"name":"","type":"address","internalType":"address"}],"outputs":[{"name":"","type":"int256","internalType":"int256"}],"stateMutability":"view"},{"type":"function","name":"playerEnrollingTournaments","inputs":[{"name":"","type":"address","internalType":"address"},{"name":"","type":"uint256","internalType":"uint256"}],"outputs":[{"name":"tierId","type":"uint8","internalType":"uint8"},{"name":"instanceId","type":"uint8","internalType":"uint8"}],"stateMutability":"view"},{"type":"function","name":"playerMatchIndex","inputs":[{"name":"","type":"address","internalType":"address"},{"name":"","type":"bytes32","internalType":"bytes32"}],"outputs":[{"name":"","type":"uint256","internalType":"uint256"}],"stateMutability":"view"},{"type":"function","name":"playerPrizes","inputs":[{"name":"","type":"uint8","internalType":"uint8"},{"name":"","type":"uint8","internalType":"uint8"},{"name":"","type":"address","internalType":"address"}],"outputs":[{"name":"","type":"uint256","internalType":"uint256"}],"stateMutability":"view"},{"type":"function","name":"playerRanking","inputs":[{"name":"","type":"uint8","internalType":"uint8"},{"name":"","type":"uint8","internalType":"uint8"},{"name":"","type":"address","internalType":"address"}],"outputs":[{"name":"","type":"uint8","internalType":"uint8"}],"stateMutability":"view"},{"type":"function","name":"raffleResults","inputs":[{"name":"","type":"uint256","internalType":"uint256"}],"outputs":[{"name":"executor","type":"address","internalType":"address"},{"name":"timestamp","type":"uint256","internalType":"uint256"},{"name":"rafflePot","type":"uint256","internalType":"uint256"},{"name":"winner","type":"address","internalType":"address"},{"name":"winnerPrize","type":"uint256","internalType":"uint256"},{"name":"protocolReserve","type":"uint256","internalType":"uint256"},{"name":"ownerShare","type":"uint256","internalType":"uint256"}],"stateMutability":"view"},{"type":"function","name":"resetEnrollmentWindow","inputs":[{"name":"tierId","type":"uint8","internalType":"uint8"},{"name":"instanceId","type":"uint8","internalType":"uint8"}],"outputs":[],"stateMutability":"nonpayable"},{"type":"function","name":"rounds","inputs":[{"name":"","type":"uint8","internalType":"uint8"},{"name":"","type":"uint8","internalType":"uint8"},{"name":"","type":"uint8","internalType":"uint8"}],"outputs":[{"name":"totalMatches","type":"uint8","internalType":"uint8"},{"name":"completedMatches","type":"uint8","internalType":"uint8"},{"name":"initialized","type":"bool","internalType":"bool"},{"name":"drawCount","type":"uint8","internalType":"uint8"}],"stateMutability":"view"},{"type":"function","name":"tierCount","inputs":[],"outputs":[{"name":"","type":"uint8","internalType":"uint8"}],"stateMutability":"view"},{"type":"function","name":"tournaments","inputs":[{"name":"","type":"uint8","internalType":"uint8"},{"name":"","type":"uint8","internalType":"uint8"}],"outputs":[{"name":"tierId","type":"uint8","internalType":"uint8"},{"name":"instanceId","type":"uint8","internalType":"uint8"},{"name":"status","type":"uint8","internalType":"enum ETour_Storage.TournamentStatus"},{"name":"currentRound","type":"uint8","internalType":"uint8"},{"name":"enrolledCount","type":"uint8","internalType":"uint8"},{"name":"prizePool","type":"uint256","internalType":"uint256"},{"name":"startTime","type":"uint256","internalType":"uint256"},{"name":"winner","type":"address","internalType":"address"},{"name":"finalsWasDraw","type":"bool","internalType":"bool"},{"name":"allDrawResolution","type":"bool","internalType":"bool"},{"name":"allDrawRound","type":"uint8","internalType":"uint8"},{"name":"completionReason","type":"uint8","internalType":"enum ETour_Storage.CompletionReason"},{"name":"enrollmentTimeout","type":"tuple","internalType":"struct ETour_Storage.EnrollmentTimeoutState","components":[{"name":"escalation1Start","type":"uint256","internalType":"uint256"},{"name":"escalation2Start","type":"uint256","internalType":"uint256"},{"name":"activeEscalation","type":"uint8","internalType":"enum ETour_Storage.EscalationLevel"},{"name":"forfeitPool","type":"uint256","internalType":"uint256"}]}],"stateMutability":"view"},{"type":"event","name":"MatchCompleted","inputs":[{"name":"matchId","type":"bytes32","indexed":true,"internalType":"bytes32"},{"name":"player1","type":"address","indexed":true,"internalType":"address"},{"name":"player2","type":"address","indexed":true,"internalType":"address"},{"name":"winner","type":"address","indexed":false,"internalType":"address"},{"name":"isDraw","type":"bool","indexed":false,"internalType":"bool"},{"name":"reason","type":"uint8","indexed":false,"internalType":"enum ETour_Storage.CompletionReason"},{"name":"board","type":"uint256","indexed":false,"internalType":"uint256"}],"anonymous":false},{"type":"event","name":"MoveMade","inputs":[{"name":"matchId","type":"bytes32","indexed":true,"internalType":"bytes32"},{"name":"player","type":"address","indexed":true,"internalType":"address"},{"name":"from","type":"uint8","indexed":false,"internalType":"uint8"},{"name":"to","type":"uint8","indexed":false,"internalType":"uint8"}],"anonymous":false},{"type":"event","name":"ProtocolRaffleExecuted","inputs":[{"name":"raffleIndex","type":"uint256","indexed":true,"internalType":"uint256"},{"name":"winner","type":"address","indexed":true,"internalType":"address"},{"name":"caller","type":"address","indexed":true,"internalType":"address"},{"name":"raffleAmount","type":"uint256","indexed":false,"internalType":"uint256"},{"name":"ownerShare","type":"uint256","indexed":false,"internalType":"uint256"},{"name":"winnerShare","type":"uint256","indexed":false,"internalType":"uint256"},{"name":"remainingReserve","type":"uint256","indexed":false,"internalType":"uint256"},{"name":"winnerEnrollmentCount","type":"uint256","indexed":false,"internalType":"uint256"}],"anonymous":false},{"type":"event","name":"TournamentCompleted","inputs":[{"name":"tierId","type":"uint8","indexed":true,"internalType":"uint8"},{"name":"instanceId","type":"uint8","indexed":true,"internalType":"uint8"},{"name":"winner","type":"address","indexed":false,"internalType":"address"},{"name":"prizeAmount","type":"uint256","indexed":false,"internalType":"uint256"},{"name":"reason","type":"uint8","indexed":false,"internalType":"enum ETour_Storage.CompletionReason"},{"name":"enrolledPlayers","type":"address[]","indexed":false,"internalType":"address[]"}],"anonymous":false},{"type":"event","name":"Transfer","inputs":[{"name":"from","type":"address","indexed":true,"internalType":"address"},{"name":"to","type":"address","indexed":true,"internalType":"address"},{"name":"value","type":"uint256","indexed":false,"internalType":"uint256"}],"anonymous":false},{"type":"error","name":"ReentrancyGuardReentrantCall","inputs":[]}],"bytecode":{"object":"0x610160604052346100fe57610021610015610209565b949390939291926109a0565b610029610103565b61a800610f06823960805181818161287401528181615d43015281816172100152818161838a0152618529015260a05181818161305e015281816143ae015281816159b00152818161616e0152619764015260c0518181816117e301528181615db70152818161861f01528181619176015281816192ca015281816193d30152619454015260e051818181611d0c01526189fb015261010051818181612c380152818161578101528181615ff7015261661e015261012051816129030152610140518181816118510152617933015261a80090f35b610109565b60405190565b5f80fd5b601f801991011690565b634e487b7160e01b5f52604160045260245ffd5b906101359061010d565b810190811060018060401b0382111761014d57604052565b610117565b9061016561015e610103565b928361012b565b565b5f80fd5b60018060a01b031690565b61017f9061016b565b90565b61018b81610176565b0361019257565b5f80fd5b905051906101a382610182565b565b909160c082840312610204576101bd835f8401610196565b926101cb8160208501610196565b926101d98260408301610196565b926102016101ea8460608501610196565b936101f88160808601610196565b9360a001610196565b90565b610167565b61022761b7068038038061021c81610152565b9283398101906101a5565b909192939495565b90565b61024661024161024b9261016b565b61022f565b61016b565b90565b61025790610232565b90565b6102639061024e565b90565b61027060c0610152565b90565b90565b90565b61028d61028861029292610273565b61022f565b610276565b90565b9061029f90610276565b9052565b90565b6102ba6102b56102bf926102a3565b61022f565b610276565b90565b90565b6102d96102d46102de926102c2565b61022f565b610276565b90565b90565b6102f86102f36102fd926102e1565b61022f565b610276565b90565b90565b61031761031261031c92610300565b61022f565b610276565b90565b90565b61033661033161033b9261031f565b61022f565b610276565b90565b60ff1690565b61035861035361035d92610300565b61022f565b61033e565b90565b600161036c910161033e565b90565b90565b61038661038161038b9261036f565b61022f565b61033e565b90565b90565b6103a56103a06103aa9261038e565b61022f565b61033e565b90565b90565b61ffff1690565b6103cb6103c66103d0926103ad565b61022f565b6103b0565b90565b6103e76103e26103ec92610273565b61022f565b6103b0565b90565b6104036103fe610408926103b0565b61022f565b610276565b90565b90565b61042261041d6104279261040b565b61022f565b61033e565b90565b90565b61044161043c6104469261042a565b61022f565b61033e565b90565b90565b61046061045b61046592610449565b61022f565b6103b0565b90565b61047c610477610481926102a3565b61022f565b61033e565b90565b90565b61049b6104966104a092610484565b61022f565b61033e565b90565b6104b76104b26104bc9261033e565b61022f565b610276565b90565b6104c99051610176565b90565b90565b6104e36104de6104e8926104cc565b61022f565b61033e565b90565b90565b6105026104fd610507926104eb565b61022f565b61033e565b90565b90565b61052161051c6105269261050a565b61022f565b61033e565b90565b90565b61054061053b61054592610529565b61022f565b61033e565b90565b90565b61055f61055a61056492610548565b61022f565b61033e565b90565b90565b61057e61057961058392610567565b61022f565b61033e565b90565b90565b60018060401b031690565b6105a86105a36105ad92610586565b61022f565b610589565b90565b90565b6105c76105c26105cc926105b0565b61022f565b610589565b90565b90565b6105e66105e16105eb926105cf565b61022f565b610589565b90565b90565b61060561060061060a926105ee565b61022f565b610589565b90565b90565b61062461061f6106299261060d565b61022f565b610589565b90565b90565b61064361063e6106489261062c565b61022f565b610589565b90565b90565b61066261065d6106679261064b565b61022f565b610589565b90565b90565b61068161067c6106869261066a565b61022f565b610589565b90565b6106929061033e565b9052565b61069f90610589565b9052565b6106ac90610276565b9052565b9060a08061071a936106c85f8201515f8601906106a3565b6106da602082015160208601906106a3565b6106ec604082015160408601906106a3565b6106fe606082015160608601906106a3565b610710608082015160808601906106a3565b01519101906106a3565b565b90959492610768946107576107619261074d60809661074361014088019c5f890190610689565b6020870190610689565b6040850190610689565b6060830190610696565b01906106b0565b565b60018060401b0381116107865761078260209161010d565b0190565b610117565b9061079d6107988361076a565b610152565b918252565b606090565b3d5f146107c2576107b73d61078b565b903d5f602084013e5b565b6107ca6107a2565b906107c0565b60209181520190565b5f7f5254000000000000000000000000000000000000000000000000000000000000910152565b61080d60026020926107d0565b610816816107d9565b0190565b61082f9060208101905f818303910152610800565b90565b1561083957565b610841610103565b62461bcd60e51b8152806108576004820161081a565b0390fd5b90565b90565b61087561087061087a9261085e565b61022f565b610276565b90565b5f5260205f2090565b634e487b7160e01b5f52603260045260245ffd5b5490565b6108a78161089a565b8210156108c1576108b960019161087d565b910201905f90565b610886565b1b90565b919060086108e59102916108df5f19846108c6565b926108c6565b9181191691161790565b6109036108fe61090892610276565b61022f565b610276565b90565b90565b919061092461091f61092c936108ef565b61090b565b9083546108ca565b9055565b9081549168010000000000000000831015610960578261095891600161095e9501815561089e565b9061090e565b565b610117565b61097961097461097e926105b0565b61022f565b610276565b90565b90565b61099861099361099d92610981565b61022f565b610276565b90565b93919290929091926109b194610e6f565b6109ba9061025a565b61014052610258600f60b46101685f9161012c936109d6610266565b956109e090610279565b5f8701906109ed91610295565b6109f6906102a6565b6020860190610a0491610295565b610a0d906102c5565b6040850190610a1b91610295565b610a24906102e4565b6060840190610a3291610295565b610a3b90610303565b6080830190610a4991610295565b610a5290610322565b60a0820190610a6091610295565b905f610a6b90610344565b5b80610a80610a7a6008610372565b9161033e565b1015610e015780610c2391610a9e610a986004610391565b9161033e565b105f14610deb57610ac5610abc610ab66102586103d3565b5b6103ef565b60808601610295565b80610ad9610ad3600361040e565b9161033e565b148015610dd0575b5f14610dba57610b06610afe610af86104b061044c565b5b6103ef565b5f8601610295565b80610b1a610b14600361040e565b9161033e565b148015610d9f575b5f14610d8a57610b47610b3e610b38601e610487565b5b6104a3565b60208601610295565b610c1e5f80610b5660806104bf565b8485610b6b610b656004610391565b9161033e565b108314610d7757610c07610b7f60026104cf565b915b87610b95610b8f6004610391565b9161033e565b108514610d6557610bf8610ba9606461050d565b5b89610bbd610bb789610344565b9161033e565b148714610c2857610bd4660aa87bee53800061066d565b5b8d91610bdf610103565b9687956004602088016358be2c1d60e01b81520161071c565b6020820181038252038261012b565b602081019051915af4610c186107a7565b50610832565b610360565b610a6c565b89610c3c610c36600161052c565b9161033e565b148714610c5957610c53661c6bf52634000061064e565b5b610bd5565b89610c6d610c6760026104cf565b9161033e565b148714610c8a57610c8466354a6ba7a1800061062f565b5b610c54565b89610c9e610c98600361040e565b9161033e565b148714610cbc57610cb667016345785d8a0000610610565b5b610c85565b89610cd0610cca6004610391565b9161033e565b148714610ced57610ce7660e35fa931a00006105f1565b5b610cb7565b89610d01610cfb600561054b565b9161033e565b148714610d1e57610d18661ff973cafa80006105d2565b5b610ce8565b89610d32610d2c600661056a565b9161033e565b148714610d4f57610d4966470de4df8200006105b3565b5b610d19565b610d60670214e8348c4f0000610594565b610d4a565b610bf8610d7260326104ee565b610baa565b610c07610d846004610391565b91610b81565b610b47610b3e610d9a600f610468565b610b39565b5080610db4610dae600761042d565b9161033e565b14610b22565b610b06610afe610dcb6102586103d3565b610af9565b5080610de5610ddf600761042d565b9161033e565b14610ae1565b610ac5610abc610dfc6107086103b7565b610ab7565b509050610e27610e11600561085b565b610e216611c37937e08000610861565b90610930565b610e4a610e34600561085b565b610e4466470de4df820000610965565b90610930565b610e6d610e57600561085b565b610e6766b1a2bc2ec50000610984565b90610930565b565b610e77610ef2565b336101205260805260a05260c05260e05261010052565b610ea2610e9d610ea792610529565b61022f565b610276565b90565b610eb46001610e8e565b90565b5f1b90565b90610ec85f1991610eb7565b9181191691161790565b90610ee7610ee2610eee926108ef565b61090b565b8254610ebc565b9055565b610f03610efd610eaa565b5f610ed2565b56fe60806040526004361015610013575b6135df565b61001d5f3561044b565b80625b0057146104465780630300e0b91461044157806319602c211461043c5780631ec3b8ad146104375780631f916aca14610432578063273e34751461042d5780632ad7e3bf146104285780632f26185d14610423578063314490741461041e57806332e7c6aa146104195780633324e909146104145780633475bd531461040f578063367639e21461040a5780633751d19f146104055780633845753f146104005780633864cd6b146103fb57806340861c1d146103f6578063414a488a146103f157806342baab49146103ec57806343bd18a2146103e757806346a56a26146103e25780634b159b98146103dd5780634d9d1611146103d857806358f975f3146103d35780635a3db19f146103ce5780635d657cb1146103c9578063631039c7146103c457806365e12b14146103bf578063666d9687146103ba578063685f1b12146103b557806369f92773146103b05780636b9be2c9146103ab5780636d763a6e146103a657806375da743d146103a1578063766d1fca1461039c5780637f515802146103975780638166f6b214610392578063823835351461038d578063847a5e991461038857806387d41608146103835780638c930e961461037e5780638da5cb5b14610379578063928220471461037457806395dd91761461036f57806396b55f7d1461036a57806397556f6714610365578063998c84b4146103605780639fe9ada31461035b578063a401a22314610356578063a5cd19da14610351578063af4614471461034c578063bb0d10b514610347578063c6c2d69c14610342578063c718d0e51461033d578063c743c0a814610338578063cd47b9a914610333578063d3f525dc1461032e578063d893088d14610329578063e1f1c4a714610324578063e545f4861461031f578063e6c455f51461031a578063ea2b1d7314610315578063ed96ffdf14610310578063eed9a2681461030b578063f4df7cf014610306578063f4ed1743146103015763f878ebf00361000e576135ac565b613577565b61350b565b613474565b61334b565b613317565b6132ed565b6132b4565b613120565b6130b5565b613080565b613027565b612fbb565b612f86565b612e9a565b612df7565b612d43565b612c9e565b612c5a565b612bee565b612ae2565b612aaa565b612a43565b612a00565b612991565b612925565b6128cb565b612896565b61283d565b612808565b612791565b6126d6565b61269d565b61259a565b6124d2565b6123da565b612370565b61229f565b61216b565b611ee8565b611e64565b611e2e565b611d2e565b611cd5565b611c89565b611c41565b6118a1565b61181a565b61179c565b61174e565b611653565b611501565b6114ca565b611452565b6113ee565b6113b8565b6112ae565b6111f1565b611065565b610fe6565b610fac565b610eec565b610e74565b610872565b61080d565b610773565b6106fb565b60e01c90565b60405190565b5f80fd5b5f80fd5b5f80fd5b60ff1690565b61047281610463565b0361047957565b5f80fd5b9050359061048a82610469565b565b6080818303126104cd576104a2825f830161047d565b926104ca6104b3846020850161047d565b936104c1816040860161047d565b9360600161047d565b90565b61045b565b60018060a01b031690565b6104e6906104d2565b90565b6104f2906104dd565b9052565b634e487b7160e01b5f52602160045260245ffd5b6003111561051457565b6104f6565b906105238261050a565b565b61052e90610519565b90565b61053a90610525565b9052565b151590565b61054c9061053e565b9052565b90565b61055c90610550565b9052565b61056990610463565b9052565b906101808061065e936105865f8201515f8601906104e9565b610598602082015160208601906104e9565b6105aa604082015160408601906104e9565b6105bc606082015160608601906104e9565b6105ce60808201516080860190610531565b6105e060a082015160a0860190610543565b6105f260c082015160c0860190610553565b61060460e082015160e0860190610553565b610618610100820151610100860190610560565b61062c610120820151610120860190610560565b610640610140820151610140860190610560565b610654610160820151610160860190610560565b0151910190610543565b565b9061024060c06106e39361067a5f8201515f86019061056d565b61068d60208201516101a0860190610553565b6106a060408201516101c0860190610553565b6106b360608201516101e08601906104e9565b6106c660808201516102008601906104e9565b6106d960a0820151610220860190610553565b0151910190610553565b565b91906106f9905f6102608501940190610660565b565b3461072f5761072b61071a61071136600461048c565b929190916137b9565b610722610451565b918291826106e5565b0390f35b610457565b90916060828403126107695761076661074f845f850161047d565b9361075d816020860161047d565b9360400161047d565b90565b61045b565b5f0190565b346107a25761078c610786366004610734565b916140de565b610794610451565b8061079e8161076e565b0390f35b610457565b90565b6107b3816107a7565b036107ba57565b5f80fd5b905035906107cb826107aa565b565b906020828203126107e6576107e3915f016107be565b90565b61045b565b6107f49061053e565b9052565b919061080b905f602085019401906107eb565b565b3461083d576108396108286108233660046107cd565b614539565b610830610451565b918291826107f8565b0390f35b610457565b61084b906104dd565b9052565b91602061087092949361086960408201965f830190610842565b0190610842565b565b346108a35761088a6108853660046107cd565b6145fc565b9061089f610896610451565b9283928361084f565b0390f35b610457565b91906040838203126108d057806108c46108cd925f860161047d565b9360200161047d565b90565b61045b565b90565b6108ec6108e76108f192610463565b6108d5565b610463565b90565b906108fe906108d8565b5f5260205260405f2090565b90610914906108d8565b5f5260205260405f2090565b5f1c90565b60ff1690565b61093761093c91610920565b610925565b90565b610949905461092b565b90565b60081c90565b61095e6109639161094c565b610925565b90565b6109709054610952565b90565b60101c90565b60ff1690565b61098b61099091610973565b610979565b90565b61099d905461097f565b90565b60181c90565b6109b26109b7916109a0565b610925565b90565b6109c490546109a6565b90565b60201c90565b6109d96109de916109c7565b610925565b90565b6109eb90546109cd565b90565b90565b6109fd610a0291610920565b6109ee565b90565b610a0f90546109f1565b90565b60018060a01b031690565b610a29610a2e91610920565b610a12565b90565b610a3b9054610a1d565b90565b60a01c90565b60ff1690565b610a56610a5b91610a3e565b610a44565b90565b610a689054610a4a565b90565b60a81c90565b610a7d610a8291610a6b565b610a44565b90565b610a8f9054610a71565b90565b60b01c90565b610aa4610aa991610a92565b610925565b90565b610ab69054610a98565b90565b60b81c90565b60ff1690565b610ad1610ad691610ab9565b610abf565b90565b610ae39054610ac5565b90565b90610af090610550565b9052565b60ff1690565b610b06610b0b91610920565b610af4565b90565b610b189054610afa565b90565b60041115610b2557565b6104f6565b90610b3482610b1b565b565b90610b4090610b2a565b9052565b601f801991011690565b634e487b7160e01b5f52604160045260245ffd5b90610b6c90610b44565b810190811067ffffffffffffffff821117610b8657604052565b610b4e565b90610b9e610b97610451565b9283610b62565b565b610baa6080610b8b565b90565b90610c14610c0b6003610bbe610ba0565b94610bd5610bcd5f8301610a05565b5f8801610ae6565b610bed610be460018301610a05565b60208801610ae6565b610c05610bfc60028301610b0e565b60408801610b36565b01610a05565b60608401610ae6565b565b90610c25610c2a9260086108f4565b61090a565b610c355f820161093f565b91610c415f8301610966565b91610c4d5f8201610993565b91610c595f83016109ba565b91610c655f82016109e1565b91610c7260018301610a05565b91610c7f60028201610a05565b91610c8c60038301610a31565b91610c9960038201610a5e565b91610ca660038301610a85565b91610cb360038201610aac565b91610ccc6004610cc560038501610ad9565b9301610bad565b90565b610cd890610463565b9052565b60031115610ce657565b6104f6565b90610cf582610cdc565b565b610d0090610ceb565b90565b610d0c90610cf7565b9052565b610d1990610550565b9052565b60061115610d2757565b6104f6565b90610d3682610d1d565b565b610d4190610d2c565b90565b610d4d90610d38565b9052565b610d5a90610b2a565b90565b610d6690610d51565b9052565b90606080610db093610d825f8201515f860190610553565b610d9460208201516020860190610553565b610da660408201516040860190610d5d565b0151910190610553565b565b9a98969492909d9c9b99979593916102008c019e5f8d01610dd291610ccf565b60208c01610ddf91610ccf565b60408b01610dec91610d03565b60608a01610df991610ccf565b60808901610e0691610ccf565b60a08801610e1391610d10565b60c08701610e2091610d10565b60e08601610e2d91610842565b6101008501610e3b916107eb565b6101208401610e49916107eb565b6101408301610e5791610ccf565b6101608201610e6591610d44565b61018001610e7291610d6a565b565b34610eb557610eb1610e90610e8a3660046108a8565b90610c16565b99610ea89d9b9d999199989298979397969496610451565b9d8e9d8e610db2565b0390f35b610457565b604090610ee3610eea9496959396610ed960608401985f850190610ccf565b6020830190610ccf565b01906107eb565b565b34610f2057610f1c610f08610f02366004610734565b91614640565b610f13939193610451565b93849384610eba565b0390f35b610457565b610f2e816104dd565b03610f3557565b5f80fd5b90503590610f4682610f25565b565b909160c082840312610fa757610f60835f840161047d565b92610f6e816020850161047d565b92610f7c826040830161047d565b92610fa4610f8d846060850161047d565b93610f9b8160808601610f39565b9360a001610f39565b90565b61045b565b34610fe157610fcb610fbf366004610f48565b949390939291926149d9565b610fd3610451565b80610fdd8161076e565b0390f35b610457565b3461101a57611016611005610ffc36600461048c565b92919091614c39565b61100d610451565b918291826107f8565b0390f35b610457565b60808183031261106057611035825f830161047d565b9261105d611046846020850161047d565b93611054816040860161047d565b93606001610f39565b90565b61045b565b346110995761109561108461107b36600461101f565b92919091614f70565b61108c610451565b918291826107f8565b0390f35b610457565b6110a781610550565b036110ae57565b5f80fd5b905035906110bf8261109e565b565b91906040838203126110e957806110dd6110e6925f8601610f39565b936020016110b2565b90565b61045b565b6111026110fd611107926104d2565b6108d5565b6104d2565b90565b611113906110ee565b90565b61111f9061110a565b90565b9061112c90611116565b5f5260205260405f2090565b634e487b7160e01b5f52603260045260245ffd5b5490565b5f5260205f2090565b5f5260205f2090565b61116b8161114c565b8210156111855761117d600191611150565b910201905f90565b611138565b611195906018611122565b9061119f8261114c565b8110156111ca576111af91611162565b50906111c75f6111c081850161093f565b9301610966565b90565b5f80fd5b9160206111ef9294936111e860408201965f830190610ccf565b0190610ccf565b565b346112235761120a6112043660046110c1565b9061118a565b9061121f611216610451565b928392836111ce565b0390f35b610457565b50604090565b905090565b90565b9061124381602093610560565b0190565b60200190565b61126961126361125c83611228565b809461122e565b91611233565b5f915b8383106112795750505050565b61128f6112896001928451611236565b92611247565b9201919061126c565b91906112ac905f610800850194019061124d565b565b346112e2576112de6112cd6112c436600461048c565b929190916153c5565b6112d5610451565b91829182611298565b0390f35b610457565b909160608284031261131c57611319611302845f850161047d565b93611310816020860161047d565b93604001610f39565b90565b61045b565b9061132b906108d8565b5f5260205260405f2090565b90611341906108d8565b5f5260205260405f2090565b9061135790611116565b5f5260205260405f2090565b1c90565b61137790600861137c9302611363565b610a44565b90565b9061138a9154611367565b90565b906113b5926113ab6113b0926113a6600a955f96611321565b611337565b61134d565b61137f565b90565b346113e9576113e56113d46113ce3660046112e7565b9161138d565b6113dc610451565b918291826107f8565b0390f35b610457565b346114205761140a61140136600461048c565b92919091615a26565b611412610451565b8061141c8161076e565b0390f35b610457565b919060408382031261144d578061144161144a925f86016107be565b9360200161047d565b90565b61045b565b346114815761146b611465366004611425565b90615a50565b611473610451565b8061147d8161076e565b0390f35b610457565b611491906016611122565b9061149b8261114c565b8110156114c6576114ab91611162565b50906114c35f6114bc81850161093f565b9301610966565b90565b5f80fd5b346114fc576114e36114dd3660046110c1565b90611486565b906114f86114ef610451565b928392836111ce565b0390f35b610457565b346115305761151a6115143660046108a8565b90615e23565b611522610451565b8061152c8161076e565b0390f35b610457565b9060208282031261154e5761154b915f016110b2565b90565b61045b565b61156761156261156c92610550565b6108d5565b610550565b90565b9061157990611553565b5f5260205260405f2090565b61159090600761156f565b61159b5f8201610a31565b916115a860018301610a05565b916115b560028201610a05565b916115c260058301610a31565b916115cf60068201610a05565b916115e860086115e160078501610a05565b9301610a05565b90565b949290979695939160e08601985f870161160491610842565b6020860161161191610d10565b6040850161161e91610d10565b6060840161162b91610842565b6080830161163891610d10565b60a0820161164591610d10565b60c00161165191610d10565b565b3461168a5761168661166e611669366004611535565b611585565b9361167d979597939193610451565b978897886115eb565b0390f35b610457565b919060a0838203126116e0576116a7815f850161047d565b926116b5826020830161047d565b926116dd6116c6846040850161047d565b936116d4816060860161047d565b93608001610f39565b90565b61045b565b906116ef906108d8565b5f5260205260405f2090565b90611705906108d8565b5f5260205260405f2090565b926117419061173c6117469461173761174b98956117326010995f9a6116e5565b6116fb565b611321565b611337565b61134d565b61137f565b90565b346117825761177e61176d61176436600461168f565b93929092611711565b611775610451565b918291826107f8565b0390f35b610457565b919061179a905f60208501940190610ccf565b565b346117cd576117c96117b86117b23660046108a8565b90615e51565b6117c0610451565b91829182611787565b0390f35b610457565b5f9103126117dc57565b61045b565b7f000000000000000000000000000000000000000000000000000000000000000090565b9190611818905f60208501940190610842565b565b3461184a5761182a3660046117d2565b6118466118356117e1565b61183d610451565b91829182611805565b0390f35b610457565b7f000000000000000000000000000000000000000000000000000000000000000090565b61187c9061110a565b90565b61188890611873565b9052565b919061189f905f6020850194019061187f565b565b346118d1576118b13660046117d2565b6118cd6118bc61184f565b6118c4610451565b9182918261188c565b0390f35b610457565b5490565b5f5260205f2090565b6118ec816118d6565b821015611906576118fe600c916118da565b910201905f90565b611138565b60ff1690565b61191d61192291610a3e565b61190b565b90565b61192f9054611911565b90565b634e487b7160e01b5f52602260045260245ffd5b9060016002830492168015611966575b602083101461196157565b611932565b91607f1691611956565b60209181520190565b5f5260205f2090565b905f929180549061199c61199583611946565b8094611970565b916001811690815f146119f357506001146119b7575b505050565b6119c49192939450611979565b915f925b8184106119db57505001905f80806119b2565b600181602092959395548486015201910192906119c8565b92949550505060ff19168252151560200201905f80806119b2565b90611a1891611982565b90565b90611a3b611a3492611a2b610451565b93848092611a0e565b0383610b62565b565b601c90611a49826118d6565b811015611b1157611a59916118e3565b5090611a665f8301610a31565b91611a7360018201610a31565b91611a8060028301610a31565b91611a8d60038201610a31565b91611a9a60048301610a31565b91611aa760048201611925565b91611ab460048301610a85565b91611ac160058201610a05565b91611ace60068301610a05565b91611adb60078201610a05565b91611ae860088301610a05565b91611af560098201610a05565b91611b0e600b611b07600a8501610a05565b9301611a1b565b90565b5f80fd5b611b1e90610525565b9052565b5190565b60209181520190565b90825f9392825e0152565b611b59611b62602093611b6793611b5081611b22565b93848093611b26565b95869101611b2f565b610b44565b0190565b9c9a9896949290918d9c9a989694926101c08e019e5f01611b8b91610842565b60208d01611b9891610842565b60408c01611ba591610842565b60608b01611bb291610842565b60808a01611bbf91610842565b60a08901611bcc91611b15565b60c08801611bd9916107eb565b60e08701611be691610d10565b6101008601611bf491610d10565b6101208501611c0291610d10565b6101408401611c1091610d10565b6101608301611c1e91610d10565b6101808201611c2c91610d10565b808203906101a00152611c3e91611b3a565b90565b34611c8457611c80611c5c611c57366004611535565b611a3d565b9a611c779e9c9e9a919a999299989398979497969596610451565b9e8f9e8f611b6b565b0390f35b610457565b34611cbb57611ca5611c9c36600461048c565b929190916161e4565b611cad610451565b80611cb78161076e565b0390f35b610457565b9190611cd3905f60208501940190610d10565b565b34611d0557611ce53660046117d2565b611d01611cf0616211565b611cf8610451565b91829182611cc0565b0390f35b610457565b7f000000000000000000000000000000000000000000000000000000000000000090565b34611d5e57611d3e3660046117d2565b611d5a611d49611d0a565b611d51610451565b91829182611805565b0390f35b610457565b90611d6d90611116565b5f5260205260405f2090565b5490565b5f5260205f2090565b611d8f81611d79565b821015611da957611da1600191611d7d565b910201905f90565b611138565b90565b611dc1906008611dc69302611363565b611dae565b90565b90611dd49154611db1565b90565b611de290600c611d63565b611deb81611d79565b821015611e0857611e0591611dff91611d86565b90611dc9565b90565b5f80fd5b611e15906107a7565b9052565b9190611e2c905f60208501940190611e0c565b565b34611e5f57611e5b611e4a611e443660046110c1565b90611dd7565b611e52610451565b91829182611e19565b0390f35b610457565b34611e9657611e80611e7736600461048c565b929190916166da565b611e88610451565b80611e928161076e565b0390f35b610457565b90959492611ee694611ed5611edf92611ecb608096611ec160a088019c5f890190610d03565b6020870190610ccf565b6040850190610ccf565b6060830190610d10565b0190610842565b565b34611f1d57611f19611f04611efe3660046108a8565b906166ec565b91611f10959395610451565b95869586611e9b565b0390f35b610457565b5190565b60209181520190565b60200190565b5190565b60209181520190565b60200190565b90611f55816020936104e9565b0190565b60200190565b90611f7c611f76611f6f84611f35565b8093611f39565b92611f42565b905f5b818110611f8c5750505090565b909192611fa5611f9f6001928651611f48565b94611f59565b9101919091611f7f565b5190565b60209181520190565b60200190565b90611fcf81602093610553565b0190565b60200190565b90611ff6611ff0611fe984611faf565b8093611fb3565b92611fbc565b905f5b8181106120065750505090565b90919261201f6120196001928651611fc2565b94611fd3565b9101919091611ff9565b906120d69061010080612095612083610120850161204d5f8901515f8801906104e9565b61205f60208901516020880190610553565b61207160408901516040880190610553565b60608801518682036060880152611f5f565b60808701518582036080870152611fd9565b946120a860a082015160a08601906104e9565b6120ba60c082015160c0860190610553565b6120cc60e082015160e0860190610553565b0151910190610553565b90565b906120e391612029565b90565b60200190565b906121006120f983611f22565b8092611f26565b908161211160208302840194611f2f565b925f915b83831061212457505050505090565b90919293946020612146612140838560019503875289516120d9565b976120e6565b9301930191939290612115565b6121689160208201915f8184039101526120ec565b90565b3461219b5761217b3660046117d2565b612197612186616aed565b61218e610451565b91829182612153565b0390f35b610457565b90916060828403126121d5576121d26121bb845f850161047d565b936121c9816020860161047d565b936040016110b2565b90565b61045b565b906121e4906108d8565b5f5260205260405f2090565b906121fa906108d8565b5f5260205260405f2090565b5490565b5f5260205f2090565b61221c81612206565b8210156122365761222e60019161220a565b910201905f90565b611138565b61224b9060086122509302611363565b610a12565b90565b9061225e915461223b565b90565b906122706122759260096121da565b6121f0565b61227e81612206565b82101561229b576122989161229291612213565b90612253565b90565b5f80fd5b346122d0576122cc6122bb6122b53660046121a0565b91612261565b6122c3610451565b91829182611805565b0390f35b610457565b906020828203126122ee576122eb915f01610f39565b90565b61045b565b906122fd90611116565b5f5260205260405f2090565b90565b61231c9060086123219302611363565b612309565b90565b9061232f915461230c565b90565b612348906123436011915f926122f3565b612324565b90565b90565b6123579061234b565b9052565b919061236e905f6020850194019061234e565b565b346123a05761239c61238b6123863660046122d5565b612332565b612393610451565b9182918261235b565b0390f35b610457565b6123b59060086123ba9302611363565b6109ee565b90565b906123c891546123a5565b90565b6123d760035f906123bd565b90565b3461240a576123ea3660046117d2565b6124066123f56123cb565b6123fd610451565b91829182611cc0565b0390f35b610457565b5190565b60209181520190565b60200190565b61242b9061234b565b9052565b90602080612451936124475f8201515f8601906104e9565b0151910190612422565b565b906124608160409361242f565b0190565b60200190565b9061248761248161247a8461240f565b8093612413565b9261241c565b905f5b8181106124975750505090565b9091926124b06124aa6001928651612453565b94612464565b910191909161248a565b6124cf9160208201915f81840391015261246a565b90565b34612502576124e23660046117d2565b6124fe6124ed616ca2565b6124f5610451565b918291826124ba565b0390f35b610457565b90612511906108d8565b5f5260205260405f2090565b90612527906108d8565b5f5260205260405f2090565b9061253d90611116565b5f5260205260405f2090565b61255990600861255e9302611363565b610925565b90565b9061256c9154612549565b90565b906125979261258d61259292612588600e955f96612507565b61251d565b612533565b612561565b90565b346125cb576125c76125b66125b03660046112e7565b9161256f565b6125be610451565b91829182611787565b0390f35b610457565b6125d9906107a7565b90565b906125e6906125d0565b5f5260205260405f2090565b6125fe6126039161094c565b610a44565b90565b61261090546125f2565b90565b61261e9060146125dc565b9061262a5f8301610a05565b9161263760018201610a05565b9161264f6002612648818501610b0e565b9301612606565b90565b61265b90610d51565b9052565b61269461269b9461268a606094989795612680608086019a5f870190610d10565b6020850190610d10565b6040830190612652565b01906107eb565b565b346126d1576126cd6126b86126b33660046107cd565b612613565b906126c4949294610451565b9485948561265f565b0390f35b610457565b34612706576127026126f16126ec3660046107cd565b616d70565b6126f9610451565b918291826107f8565b0390f35b610457565b9694929099989795939161012088019a5f890161272791610d10565b60208801612734916107eb565b6040870161274191610d10565b6060860161274e91610d10565b6080850161275b91610d10565b60a0840161276891610d10565b60c0830161277591610d10565b60e0820161278291610d10565b6101000161278f91610d10565b565b346127cb576127a13660046117d2565b6127c76127ac616ea7565b956127be999799959195949294610451565b998a998a61270b565b0390f35b610457565b90565b6127e76127e26127ec926127d0565b6108d5565b610550565b90565b6127fa6123286127d3565b90565b6128056127ef565b90565b34612838576128183660046117d2565b6128346128236127fd565b61282b610451565b91829182611cc0565b0390f35b610457565b3461286d5761284d3660046117d2565b612869612858616fbd565b612860610451565b9182918261235b565b0390f35b610457565b7f000000000000000000000000000000000000000000000000000000000000000090565b346128c6576128a63660046117d2565b6128c26128b1612872565b6128b9610451565b91829182611805565b0390f35b610457565b346128fc576128f86128e76128e13660046108a8565b90616fdd565b6128ef610451565b918291826107f8565b0390f35b610457565b7f000000000000000000000000000000000000000000000000000000000000000090565b34612955576129353660046117d2565b612951612940612901565b612948610451565b91829182611805565b0390f35b610457565b90565b61297161296c6129769261295a565b6108d5565b610550565b90565b61298360fa61295d565b90565b61298e612979565b90565b346129c1576129a13660046117d2565b6129bd6129ac612986565b6129b4610451565b91829182611cc0565b0390f35b610457565b90916060828403126129fb576129f86129e1845f85016107be565b936129ef816020860161047d565b93604001610f39565b90565b61045b565b34612a2f57612a19612a133660046129c6565b916170bb565b612a21610451565b80612a2b8161076e565b0390f35b610457565b612a4060015f90612561565b90565b34612a7357612a533660046117d2565b612a6f612a5e612a34565b612a66610451565b91829182611787565b0390f35b610457565b604090612aa1612aa89496959396612a9760608401985f850190610842565b60208301906107eb565b0190611b15565b565b34612add57612ad9612ac5612ac03660046107cd565b61710d565b612ad0939193610451565b93849384612a78565b0390f35b610457565b34612b1157612afb612af53660046108a8565b9061727c565b612b03610451565b80612b0d8161076e565b0390f35b610457565b90612b20906125d0565b5f5260205260405f2090565b612b37906015612b16565b90612b435f8301610a31565b91612b5060018201610a31565b91612b5d60028301610a31565b91612b6a60038201610a31565b91612b7760048301610a31565b91612b8460048201611925565b91612b9160048301610a85565b91612b9e60058201610a05565b91612bab60068301610a05565b91612bb860078201610a05565b91612bc560088301610a05565b91612bd260098201610a05565b91612beb600b612be4600a8501610a05565b9301611a1b565b90565b34612c3157612c2d612c09612c043660046107cd565b612b2c565b9a612c249e9c9e9a919a999299989398979497969596610451565b9e8f9e8f611b6b565b0390f35b610457565b7f000000000000000000000000000000000000000000000000000000000000000090565b34612c8a57612c6a3660046117d2565b612c86612c75612c36565b612c7d610451565b91829182611805565b0390f35b610457565b612c9b60045f906123bd565b90565b34612cce57612cae3660046117d2565b612cca612cb9612c8f565b612cc1610451565b91829182611cc0565b0390f35b610457565b60e081830312612d3e57612ce9825f830161047d565b92612cf7836020840161047d565b92612d05816040850161047d565b92612d13826060830161047d565b92612d3b612d24846080850161047d565b93612d328160a0860161047d565b9360c00161047d565b90565b61045b565b34612d7857612d62612d56366004612cd3565b95949094939193617e67565b612d6a610451565b80612d748161076e565b0390f35b610457565b9190604083820312612da55780612d99612da2925f8601610f39565b936020016107be565b90565b61045b565b90612db490611116565b5f5260205260405f2090565b90612dca906125d0565b5f5260205260405f2090565b612def612df492612dea600d935f94612daa565b612dc0565b6123bd565b90565b34612e2857612e24612e13612e0d366004612d7d565b90612dd6565b612e1b610451565b91829182611cc0565b0390f35b610457565b90612e37906108d8565b5f5260205260405f2090565b90612e4d906108d8565b5f5260205260405f2090565b90612e6390611116565b5f5260205260405f2090565b90612e9792612e8d612e9292612e88600f955f96612e2d565b612e43565b612e59565b6123bd565b90565b34612ecb57612ec7612eb6612eb03660046112e7565b91612e6f565b612ebe610451565b91829182611cc0565b0390f35b610457565b5190565b60209181520190565b60200190565b90602080612f0593612efb5f8201515f860190610560565b0151910190610560565b565b90612f1481604093612ee3565b0190565b60200190565b90612f3b612f35612f2e84612ed0565b8093612ed4565b92612edd565b905f5b818110612f4b5750505090565b909192612f64612f5e6001928651612f07565b94612f18565b9101919091612f3e565b612f839160208201915f818403910152612f1e565b90565b34612fb657612fb2612fa1612f9c3660046122d5565b617f5c565b612fa9610451565b91829182612f6e565b0390f35b610457565b34612feb57612fe7612fd6612fd13660046122d5565b617f7b565b612fde610451565b91829182612f6e565b0390f35b610457565b90565b61300761300261300c92612ff0565b6108d5565b610463565b90565b61301960ff612ff3565b90565b61302461300f565b90565b34613057576130373660046117d2565b61305361304261301c565b61304a610451565b91829182611787565b0390f35b610457565b7f000000000000000000000000000000000000000000000000000000000000000090565b346130b0576130903660046117d2565b6130ac61309b61305c565b6130a3610451565b91829182611805565b0390f35b610457565b346130e3576130cd6130c83660046107cd565b617f9a565b6130d5610451565b806130df8161076e565b0390f35b610457565b90565b6130ff6130fa613104926130e8565b6108d5565b610550565b90565b6131126127106130eb565b90565b61311d613107565b90565b34613150576131303660046117d2565b61314c61313b613115565b613143610451565b91829182611cc0565b0390f35b610457565b919060a0838203126131a65761316d815f85016107be565b9261317b826020830161047d565b926131a361318c846040850161047d565b9361319a816060860161047d565b9360800161047d565b90565b61045b565b906101808061329c936131c45f8201515f8601906104e9565b6131d6602082015160208601906104e9565b6131e8604082015160408601906104e9565b6131fa606082015160608601906104e9565b61320c60808201516080860190610531565b61321e60a082015160a0860190610543565b61323060c082015160c0860190610553565b61324260e082015160e0860190610553565b613256610100820151610100860190610560565b61326a610120820151610120860190610560565b61327e610140820151610140860190610560565b613292610160820151610160860190610560565b0151910190610543565b565b91906132b2905f6101a085019401906131ab565b565b346132e8576132e46132d36132ca366004613155565b939290926180e0565b6132db610451565b9182918261329e565b0390f35b610457565b6133016132fb3660046108a8565b90618359565b613309610451565b806133138161076e565b0390f35b346133465761333061332a3660046108a8565b906184f7565b613338610451565b806133428161076e565b0390f35b610457565b3461337f5761337b61336a61336136600461048c565b9291909161870c565b613372610451565b918291826107f8565b0390f35b610457565b9061338e906108d8565b5f5260205260405f2090565b906133a4906108d8565b5f5260205260405f2090565b906133ba906108d8565b5f5260205260405f2090565b6133d26133d791610973565b610a44565b90565b6133e490546133c6565b90565b61340492916133fa6133ff92600b613384565b61339a565b6133b0565b906134105f830161093f565b9161341c5f8201610966565b916134335f61342c8185016133da565b93016109ba565b90565b61346b61347294613461606094989795613457608086019a5f870190610ccf565b6020850190610ccf565b60408301906107eb565b0190610ccf565b565b346134a9576134a561349061348a366004610734565b916133e7565b9061349c949294610451565b94859485613436565b0390f35b610457565b6134b78161053e565b036134be57565b5f80fd5b905035906134cf826134ae565b565b9091606082840312613506576135036134ec845f85016107be565b936134fa8160208601610f39565b936040016134c2565b90565b61045b565b3461353a5761352461351e3660046134d1565b9161891c565b61352c610451565b806135368161076e565b0390f35b610457565b90565b61355661355161355b9261353f565b6108d5565b610550565b90565b6135696102ee613542565b90565b61357461355e565b90565b346135a7576135873660046117d2565b6135a361359261356c565b61359a610451565b91829182611cc0565b0390f35b610457565b346135da576135bc3660046117d2565b6135c4618a67565b6135cc610451565b806135d68161076e565b0390f35b610457565b5f80fd5b6135ed60e0610b8b565b90565b6135fb6101a0610b8b565b90565b5f90565b5f90565b5f90565b5f90565b5f90565b6020908180808080808080808080806136296135f0565b9d8e6136336135fe565b81520161363e6135fe565b8152016136496135fe565b8152016136546135fe565b81520161365f613602565b81520161366a613606565b81520161367561360a565b81520161368061360a565b81520161368b61360e565b81520161369661360e565b8152016136a161360e565b8152016136ac61360e565b8152016136b7613606565b81525050565b6136c5613612565b90565b6136d06135e3565b906020808080808080886136e26136bd565b8152016136ed61360a565b8152016136f861360a565b8152016137036135fe565b81520161370e6135fe565b81520161371961360a565b81520161372461360a565b81525050565b6137326136c8565b90565b90565b90565b61374f61374a61375492613738565b6108d5565b6104d2565b90565b6137609061373b565b90565b61376e6101a0610b8b565b90565b9061377b906104dd565b9052565b9061378990610519565b9052565b906137979061053e565b9052565b906137a590610463565b9052565b6137b360e0610b8b565b90565b52565b9092916137c461372a565b506137e56137e06137d9848785908892618aad565b6015612b16565b613735565b926137f15f8501610a31565b61380b6138056138005f613757565b6104dd565b916104dd565b0361382057505050505061381d61372a565b90565b61383561382f60048601610a85565b1561053e565b80613a84575b5f14613a765761384d60028501610a31565b61386961386361385e5f8801610a31565b6104dd565b916104dd565b145f14613a665761387c60018501610a31565b5b5b91845f0161388b90610a31565b958560010161389990610a31565b94866002016138a790610a31565b94876004016138b590611925565b886004016138c290610a85565b90896007016138d090610a05565b928a6008016138de90610a05565b94959697985f9a6138ed613763565b809e5f8201906138fc91613771565b6020019061390991613771565b60408d019061391791613771565b60608c019061392591613771565b60808b01906139339161377f565b60a08a01906139419161378d565b60c089019061394f91610ae6565b60e088019061395d91610ae6565b61010087019061396c9161379b565b61012086019061397b9161379b565b61014085019061398a9161379b565b6101608401906139999161379b565b6101808301906139a89161378d565b806005016139b590610a05565b90806006016139c390610a05565b816003016139d090610a31565b826004016139dd90610a31565b91836009016139eb90610a05565b93600a016139f890610a05565b94613a016137a9565b965f880190613a0f916137b6565b6020870190613a1d91610ae6565b6040860190613a2b91610ae6565b6060850190613a3991613771565b6080840190613a4791613771565b60a0830190613a5591610ae6565b60c0820190613a6391610ae6565b90565b613a715f8501610a31565b61387d565b613a7f5f613757565b61387e565b50613a9160028501610a31565b613aab613aa5613aa05f613757565b6104dd565b916104dd565b141561383b565b90565b5f1b90565b90613ac660ff91613ab5565b9181191691161790565b90565b90613ae8613ae3613aef926108d8565b613ad0565b8254613aba565b9055565b613b07613b02613b0c92613738565b6108d5565b610463565b90565b60081b90565b90613b2261ff0091613b0f565b9181191691161790565b90613b41613b3c613b48926108d8565b613ad0565b8254613b15565b9055565b60101b90565b90613b6062ff000091613b4c565b9181191691161790565b613b739061053e565b90565b90565b90613b8e613b89613b9592613b6a565b613b76565b8254613b52565b9055565b60181b90565b90613bae63ff00000091613b99565b9181191691161790565b90613bcd613bc8613bd4926108d8565b613ad0565b8254613b9f565b9055565b90565b90565b90565b613bf5613bf0613bfa92613bde565b6108d5565b610463565b90565b634e487b7160e01b5f52601260045260245ffd5b613c1d613c2391610463565b91610463565b908115613c2e570690565b613bfd565b90565b613c4a613c45613c4f92613c33565b6108d5565b610463565b90565b90565b613c61613c6691610550565b613c52565b9052565b60f81b90565b613c7990613c6a565b90565b613c88613c8d91610463565b613c70565b9052565b6001613cd494613cc460208399989596613cbc8287613cb4613ccc99899c613c55565b018092613c55565b018092613c7c565b018092613c7c565b018092613c7c565b0190565b60200190565b5190565b613cee613cf391610920565b611553565b90565b613d0a613d05613d0f92610463565b6108d5565b610550565b90565b613d1e613d2491610550565b91610550565b908115613d2f570690565b613bfd565b613d48613d43613d4d92610550565b6108d5565b610463565b90565b5490565b5f5260205f2090565b613d6681613d50565b821015613d8057613d78600191613d54565b910201905f90565b611138565b634e487b7160e01b5f52601160045260245ffd5b613da5613dab91610463565b91610463565b90039060ff8211613db857565b613d85565b1b90565b91906008613de1910291613ddb60018060a01b0384613dbd565b92613dbd565b9181191691161790565b90565b9190613e04613dff613e0c93611116565b613deb565b908354613dc1565b9055565b6001613e1c9101610463565b90565b613e2b613e3191610463565b91610463565b0290613e3c82610463565b918203613e4557565b613d85565b613e56613e5c91610463565b91610463565b019060ff8211613e6857565b613d85565b90565b5f5260205f2090565b5490565b613e8681613e79565b821015613ea057613e98600191613e70565b910201905f90565b611138565b91906008613ec0910291613eba5f1984613dbd565b92613dbd565b9181191691161790565b613ed390610920565b90565b9190613eec613ee7613ef4936125d0565b613eca565b908354613ea5565b9055565b9081549168010000000000000000831015613f285782613f20916001613f2695018155613e7d565b90613ed6565b565b610b4e565b613f41613f3c613f4692613c33565b6108d5565b610550565b90565b613f58613f5e91939293610550565b92610550565b8203918211613f6957565b613d85565b90613f7a5f1991613ab5565b9181191691161790565b90565b90613f9c613f97613fa392611553565b613f84565b8254613f6e565b9055565b90959492613ff294613fe1613feb92613fd7608096613fcd60a088019c5f890190610ccf565b6020870190610ccf565b6040850190610ccf565b6060830190610ccf565b0190610842565b565b67ffffffffffffffff81116140125761400e602091610b44565b0190565b610b4e565b9061402961402483613ff4565b610b8b565b918252565b606090565b3d5f1461404e576140433d614017565b903d5f602084013e5b565b61405661402e565b9061404c565b5f7f4157000000000000000000000000000000000000000000000000000000000000910152565b6140906002602092611b26565b6140998161405c565b0190565b6140b29060208101905f818303910152614083565b90565b156140bc57565b6140c4610451565b62461bcd60e51b8152806140da6004820161409d565b0390fd5b91906140eb838290615e51565b9161415561411761411261410b614104600b8990613384565b869061339a565b84906133b0565b613ab2565b614123855f8301613ad3565b61413761412f5f613af3565b5f8301613b2c565b61414460015f8301613b79565b5f61414e81613af3565b9101613bb8565b806141686141625f613af3565b91610463565b14614174575b50505050565b61419661419161418a60099795969788906121da565b84906121f0565b613bd8565b926141b56141b06141a9600889906108f4565b859061090a565b613bdb565b946141bf5f613757565b956141de6141ce5f83016109e1565b6141d86002613be1565b90613c11565b6141f16141eb6001613c36565b91610463565b14614424575b506142015f613af3565b5b8061421561420f84610463565b91610463565b10156143705761436b90614366896143618961430c6142ac61428e61428861425a6142548661424e8c6142486002613be1565b90613e1f565b90613d5d565b90612253565b946142826142728b61426c6002613be1565b90613e1f565b61427c6001613c36565b90613e4a565b90613d5d565b90612253565b946142a28d8d8391908b9088928b946149d9565b8c8c908992618aad565b916142cb6142c46142bf600c8490611d63565b613e6d565b8490613ef8565b6143076143006142f86142e86142e3600c8690611d63565b611d79565b6142f26001613f2d565b90613f49565b92600d612daa565b8490612dc0565b613f87565b61432a61432361431e600c8690611d63565b613e6d565b8290613ef8565b61435c61435461434461433f600c8790611d63565b611d79565b61434e6001613f2d565b90613f49565b93600d612daa565b612dc0565b613f87565b613e10565b614202565b509492935094908261439261438c6143875f613757565b6104dd565b916104dd565b0361439e575b5061416e565b6144035f946143f461441a9787967f00000000000000000000000000000000000000000000000000000000000000009693959190916143db610451565b96879560046020880163b902ec4760e01b815201613fa7565b60208201810382520382610b62565b602081019051915af4614414614033565b506140b5565b5f80808080614398565b955061452f6144a56144a06144878a61446f8b6144608b449261444b5f42979392016109e1565b91614454610451565b96879560208701613c91565b60208201810382520382610b62565b61448161447b82613cde565b91613cd8565b20613ce2565b61449a6144955f8c016109e1565b613cf6565b90613d12565b613d34565b966144ff6144bd6144b7898b90613d5d565b90612253565b986144f96144f26144ec8b6144e66144d65f89016109e1565b6144e06001613c36565b90613d99565b90613d5d565b90612253565b918a613d5d565b90613dee565b61452988916145236145135f8b93016109e1565b61451d6001613c36565b90613d99565b90613d5d565b90613dee565b5f6141f7565b5f90565b61455061455591614548614535565b506015612b16565b613735565b61456160048201611925565b61457461456e6001610519565b91610519565b036145f3576145dd6145d76145954261458f60088601610a05565b90613f49565b926145a260038201610a31565b6145be6145b86145b35f8501610a31565b6104dd565b916104dd565b145f146145e25760096145d19101610a05565b5b610550565b91610550565b101590565b600a6145ee9101610a05565b6145d2565b505f90565b5f90565b61461c6146219161460b6145f8565b506146146145f8565b506015612b16565b613735565b9061463960016146325f8501610a31565b9301610a31565b90565b5f90565b9161467661467b926146716146809561465761463c565b5061466061463c565b50614669614535565b50600b613384565b61339a565b6133b0565b613ab2565b9061468c5f830161093f565b906146a35f61469c818601610966565b94016133da565b91929190565b5f7f4950000000000000000000000000000000000000000000000000000000000000910152565b6146dd6002602092611b26565b6146e6816146a9565b0190565b6146ff9060208101905f8183039101526146d0565b90565b1561470957565b614711610451565b62461bcd60e51b815280614727600482016146ea565b0390fd5b9061473c60018060a01b0391613ab5565b9181191691161790565b9061475b61475661476292611116565b613deb565b825461472b565b9055565b61477a61477561477f92613bde565b6108d5565b610550565b90565b61479661479161479b92613738565b6108d5565b610550565b90565b60a01b90565b906147b360ff60a01b9161479e565b9181191691161790565b6147c690610519565b90565b90565b906147e16147dc6147e8926147bd565b6147c9565b82546147a4565b9055565b60a81b90565b9061480160ff60a81b916147ec565b9181191691161790565b9061482061481b61482792613b6a565b613b76565b82546147f2565b9055565b90565b61484261483d6148479261482b565b6108d5565b610550565b90565b6148737fa89cb98a7777777700000000000000000000000000000000111111114236532461482e565b90565b90565b61488d61488861489292614876565b6108d5565b610550565b90565b6148a16240003f614879565b90565b634e487b7160e01b5f525f60045260245ffd5b601f602091010490565b91906148d76148d26148df93611553565b613f84565b908354613ea5565b9055565b5f90565b6148f9916148f36148e3565b916148c1565b565b5b818110614907575050565b806149145f6001936148e7565b016148fc565b9190601f811161492a575b505050565b61493661495b93611159565b906020614942846148b7565b83019310614963575b614954906148b7565b01906148fb565b5f8080614925565b91506149548192905061494b565b6149855f61497f8354611946565b8361491a565b5f80019055565b61499590614971565b565b906149a1906108d8565b5f5260205260405f2090565b906149b7906125d0565b5f5260205260405f2090565b906149cd906125d0565b5f5260205260405f2090565b5f6002614b42614b4993614a26600a96614b5099614ba29c998c614a056149ff8d6104dd565b916104dd565b141580614beb575b80614bc3575b614a1c90614702565b8492909192618aad565b98614a3b614a3660158c90612b16565b613735565b97614a4881878b01614746565b614a558260018b01614746565b614a6844614a6287614766565b90613d12565b614a7a614a7488614782565b91610550565b14614ba4575b5050614a99614a90858901610a31565b60038901614746565b614ab0614aa7858901610a31565b60048901614746565b614abe6001600489016147cc565b614acb4260078901613f87565b614ad84260088901613f87565b614ae5846004890161480b565b614af9614af061484a565b60058901613f87565b614b0d614b04614895565b60068901613f87565b614b19600b880161498c565b614b3c614b338585614b2c818690614997565b0101610a05565b60098901613f87565b82614997565b0101610a05565b9101613f87565b614b9d614b83614b5e61484a565b614b66614895565b600190614b7d614b78601b8890612dc0565b610a05565b92618b73565b614b98614b906001613c36565b93601a6149ad565b6149c3565b613ad3565b565b614bb3614bbc92878b01614746565b60018901614746565b5f80614a80565b50614a1c8b614be2614bdc614bd78c613757565b6104dd565b916104dd565b14159050614a13565b508c614c07614c01614bfc8b613757565b6104dd565b916104dd565b1415614a0d565b90565b90565b614c23614c2991939293610550565b92610550565b8201809211614c3457565b613d85565b92614c42614535565b50614c6b5f614c65614c60614c59600889906108f4565b869061090a565b613bdb565b01610993565b614c7e614c786001610ceb565b91610ceb565b03614e4357614c91928492909192618aad565b614ca5614ca060158390612b16565b613735565b90614cb15f8301610a31565b614ccb614cc5614cc05f613757565b6104dd565b916104dd565b148015614e1c575b614e1557614ced42614ce760088501610a05565b90613f49565b614cf960038401610a31565b614d15614d0f614d0a5f8701610a31565b6104dd565b916104dd565b145f14614dfe57614d3a614d34614d2e60098601610a05565b5b610550565b91610550565b10614df757614d4d614d529160146125dc565b614c0e565b91614d68614d6260028501612606565b1561053e565b614d91575050614d8c614d86614d816001429401610a05565b610550565b91610550565b101590565b614ddf925060036002614dd1614dbe6008614db7614db2614dd99786614997565b614c11565b9601610a05565b614dcb5f84880101610a05565b90614c14565b930101610a05565b90614c14565b614df2614dec4292610550565b91610550565b101590565b5050505f90565b614d3a614d34614e10600a8601610a05565b614d2f565b5050505f90565b50614e2960048301611925565b614e3c614e366001610519565b91610519565b1415614cd3565b505050505f90565b614e57614e5c91610920565b610a44565b90565b614e699054614e4b565b90565b614e759061110a565b90565b614e81906110ee565b90565b614e8d90614e78565b90565b614e9990610463565b60ff8114614ea75760010190565b613d85565b614eb59061110a565b90565b60e01b90565b90505190614ecb82610f25565b565b90505190614eda826134ae565b565b60031115614ee657565b5f80fd5b90505190614ef782614edc565b565b9091606082840312614f2e57614f2b614f14845f8501614ebe565b93614f228160208601614ecd565b93604001614eea565b90565b61045b565b614f3b610451565b3d5f823e3d90fd5b9190604083820312614f6b5780614f5f614f68925f8601614ebe565b93602001614ebe565b90565b61045b565b929190614f7b614535565b50614fad614fa7614fa2614f9b614f94600a8990611321565b8590611337565b869061134d565b614e5f565b1561053e565b61532157614fc5614fc094929430614e6c565b614e84565b91614fcf5f613af3565b905b81614fe4614fde88610463565b91610463565b116151545761501161500c615005614ffe600b8590613384565b869061339a565b84906133b0565b613ab2565b9561501b5f613af3565b5b8061503961503361502e5f8c0161093f565b610463565b91610463565b1015615140576150826060615052858888908692618aad565b61505b89614eac565b6150776397556f6761506b610451565b95869485938493614eb8565b835260048301611e19565b03915afa801561513b575f8080939092615109575b5090916150ad6150a76002610519565b91610519565b1490816150ee575b5090816150dd575b506150d0576150cb90613e10565b61501c565b5050505050505050600190565b6150e891501561053e565b5f6150bd565b90506151026150fc8a6104dd565b916104dd565b145f6150b5565b91505061512d915060603d8111615134575b6151258183610b62565b810190614ef9565b915f615097565b503d61511b565b614f33565b509161514d919650614e90565b9094614fd1565b905061517e61516d61516860028490614997565b614c11565b956151786001613c36565b90613e4a565b905b8161519e61519861519360088a0161093f565b610463565b91610463565b1015615317576151cc6151c76151c06151b9600b8590613384565b869061339a565b84906133b0565b613ab2565b956151e16151db5f89016133da565b1561053e565b61530b576151ee5f613af3565b5b8061520c6152066152015f8c0161093f565b610463565b91610463565b10156152f6576152556040615225858888908692618aad565b61522e89614eac565b61524a631ec3b8ad61523e610451565b95869485938493614eb8565b835260048301611e19565b03915afa80156152f1575f809290916152c0575b5061527c6152768a6104dd565b916104dd565b149081156152a5575b506152985761529390613e10565b6151ef565b5050505050505050600190565b90506152b96152b3896104dd565b916104dd565b145f615285565b90506152e3915060403d81116152ea575b6152db8183610b62565b810190614f43565b905f615269565b503d6152d1565b614f33565b50916153049196505b613e10565b9094615180565b916153049196506152ff565b5050505050505f90565b505050505f90565b67ffffffffffffffff811161533e5760200290565b610b4e565b61534f61535491615329565b610b8b565b90565b369037565b9061537a61536983615343565b926153748491615329565b90615357565b565b615386604061535c565b90565b90565b6153a061539b6153a592615389565b6108d5565b610463565b90565b906153b282611228565b8110156153c0576020020190565b611138565b93926153e76005926153ee926153f4956153dd61537c565b9892909192618aad565b6015612b16565b01610a05565b6153fd5f613af3565b5b8061541261540c604061538c565b91610463565b101561544c576154479061544261542a848390618bf3565b61543d8761543785613cf6565b906153a8565b61379b565b613e10565b6153fe565b5050565b9061546493929161545f618c3e565b6156bc565b61546c618ca1565b565b67ffffffffffffffff81116154865760208091020190565b610b4e565b9061549d6154988361546e565b610b8b565b918252565b369037565b906154cc6154b48361548b565b926020806154c2869361546e565b92019103906154a2565b565b60016154da9101610550565b90565b906154e782611f35565b8110156154f8576020809102010190565b611138565b6155326155399461552860609498979561551e608086019a5f870190610ccf565b6020850190610ccf565b6040830190610ccf565b0190610ccf565b565b5f7f4352000000000000000000000000000000000000000000000000000000000000910152565b61556f6002602092611b26565b6155788161553b565b0190565b6155919060208101905f818303910152615562565b90565b1561559b57565b6155a3610451565b62461bcd60e51b8152806155b96004820161557c565b0390fd5b6155f26155f9946155e86060949897956155de608086019a5f870190610842565b60208501906107eb565b6040830190610d44565b0190610d10565b565b60409061562461562b949695939661561a60608401985f850190610ccf565b6020830190610ccf565b0190610ccf565b565b5f7f434f000000000000000000000000000000000000000000000000000000000000910152565b6156616002602092611b26565b61566a8161562d565b0190565b6156839060208101905f818303910152615654565b90565b1561568d57565b615695610451565b62461bcd60e51b8152806156ab6004820161566e565b0390fd5b6156b990516104dd565b90565b9091936156e56156e06156db6156d4600986906121da565b86906121f0565b612206565b6154a7565b946156ef5f614782565b5b8061572061571a61571561571061570960098a906121da565b8a906121f0565b612206565b610550565b91610550565b10156157725761576d9061576861575661575061574961574260098a906121da565b8a906121f0565b8490612213565b90612253565b6157638a918490926154dd565b613771565b6154ce565b6156f0565b509091936157fe906157f35f807f0000000000000000000000000000000000000000000000000000000000000000896157dc8a916157cd8a89906157b4610451565b958694600460208701631b3b1cf160e11b8152016154fd565b60208201810382520382610b62565b602081019051915af46157ed614033565b50615594565b859085849192618aad565b61581261580d60158390612b16565b613735565b9061581e5f8301610a31565b61582a60018401610a31565b91335f9061588d61583f600560049801610a05565b61587b61587561586f7f9df5b4d746303d3796646c5fa6da5d7e660bde8b83369dadd626bb5fc1fcab1f976125d0565b97611116565b97611116565b97615884610451565b948594856155bd565b0390a461589c84843391618cb4565b6158c46158bf6158b86158b1600b8890613384565b869061339a565b83906133b0565b613ab2565b6158eb6158e56158e05f6158d9818601610966565b940161093f565b610463565b91610463565b146159a8575b5061591661591161590186611f35565b61590b6001613f2d565b90614c14565b6154a7565b916159205f614782565b5b8061593c61593661593189611f35565b610550565b91610550565b1015615978576159739061596e61595c6159578984906154dd565b6156af565b61596987918490926154dd565b613771565b6154ce565b615921565b509190939261599e6159a694615999336159928693611f35565b90926154dd565b613771565b9190916190e7565b565b5f80615a20927f000000000000000000000000000000000000000000000000000000000000000090615a09886159fa89936159e1610451565b948593600460208601630ee272f360e31b8152016155fb565b60208201810382520382610b62565b602081019051915af4615a1a614033565b50615686565b5f6158f1565b90615a32939291615450565b565b615a3d90610550565b5f198114615a4b5760010190565b613d85565b615b79615bdf92600a615b725f6002615b6b615a76615a7160158a90612b16565b613735565b95615a856001600489016147cc565b615a924260078901613f87565b615a9f4260088901613f87565b615ab3615aaa61484a565b60058901613f87565b615ac7615abe614895565b60068901613f87565b615ad4846004890161480b565b615ae8615ae085613757565b848901614746565b615afb44615af585614766565b90613d12565b615b0e615b086001613f2d565b91610550565b14615be1575b615b2b615b22858901610a31565b60038901614746565b615b42615b39858901610a31565b60048901614746565b615b65615b5c8585615b55818690614997565b0101610a05565b60098901613f87565b82614997565b0101610a05565b9101613f87565b615bda615bc0615b8b601b8490612dc0565b615ba6615b9f615b9a83610a05565b615a34565b8092613f87565b615bae61484a565b90615bb7614895565b60019192618b73565b615bd5615bcd6001613c36565b93601a6149ad565b6149c3565b613ad3565b565b615c10615bf060018901610a31565b615bfb868a01610a31565b615c0b878b019160018c01614746565b614746565b615b14565b90615c2791615c22618c3e565b615d35565b615c2f618ca1565b565b5f7f4341450000000000000000000000000000000000000000000000000000000000910152565b615c656003602092611b26565b615c6e81615c31565b0190565b615c879060208101905f818303910152615c58565b90565b15615c9157565b615c99610451565b62461bcd60e51b815280615caf60048201615c72565b0390fd5b5f7f5254000000000000000000000000000000000000000000000000000000000000910152565b615ce76002602092611b26565b615cf081615cb3565b0190565b615d099060208101905f818303910152615cda565b90565b15615d1357565b615d1b610451565b62461bcd60e51b815280615d3160048201615cf4565b0390fd5b5f8091615e2193615db283807f000000000000000000000000000000000000000000000000000000000000000085615d9b8691615d8c615d73610451565b938492600460208501633864cd6b60e01b8152016111ce565b60208201810382520382610b62565b602081019051915af4615dac614033565b50615c8a565b615e0a7f000000000000000000000000000000000000000000000000000000000000000092615dfb615de2610451565b9384926004602085016357f7cf7160e01b8152016111ce565b60208201810382520382610b62565b602081019051915af4615e1b614033565b50615d0c565b565b90615e2d91615c15565b565b615e3b615e4191610463565b91610463565b908115615e4c570490565b613bfd565b5f615e75615e8b93615e70615e7b94615e6861463c565b5060086108f4565b61090a565b016109e1565b615e856002613be1565b90615e2f565b90565b90615ea2939291615e9d618c3e565b615f2e565b615eaa618ca1565b565b5f7f4645000000000000000000000000000000000000000000000000000000000000910152565b615ee06002602092611b26565b615ee981615eac565b0190565b615f029060208101905f818303910152615ed3565b90565b15615f0c57565b615f14610451565b62461bcd60e51b815280615f2a60048201615eed565b0390fd5b90919293615f58615f53615f4e615f47600986906121da565b86906121f0565b612206565b6154a7565b93615f625f614782565b5b80615f93615f8d615f88615f83615f7c60098a906121da565b8a906121f0565b612206565b610550565b91610550565b1015615fe557615fe090615fdb615fc9615fc3615fbc615fb560098a906121da565b8a906121f0565b8490612213565b90612253565b615fd689918490926154dd565b613771565b6154ce565b615f63565b50616074616164959392966160695f807f0000000000000000000000000000000000000000000000000000000000000000876160528b916160438a899061602a610451565b958694600460208701634d9d161160e01b8152016154fd565b60208201810382520382610b62565b602081019051915af4616063614033565b50615f05565b839086849192618aad565b61608861608360158390612b16565b613735565b906160945f8301610a31565b6160a060018401610a31565b91335f906161036160b5600560039801610a05565b6160f16160eb6160e57f9df5b4d746303d3796646c5fa6da5d7e660bde8b83369dadd626bb5fc1fcab1f976125d0565b97611116565b97611116565b976160fa610451565b948594856155bd565b0390a461612e61612961612261611b600b8690613384565b879061339a565b83906133b0565b613ab2565b61615561614f61614a5f616143818601610966565b940161093f565b610463565b91610463565b14616166575b509190916190e7565b565b5f806161de927f0000000000000000000000000000000000000000000000000000000000000000906161c7866161b88a9361619f610451565b948593600460208601630ee272f360e31b8152016155fb565b60208201810382520382610b62565b602081019051915af46161d8614033565b50615686565b5f61615b565b906161f0939291615e8e565b565b90565b61620961620461620e926161f2565b6108d5565b610550565b90565b6162196148e3565b50616224600f6161f5565b90565b9061623b939291616236618c3e565b616501565b616243618ca1565b565b5f7f4d41000000000000000000000000000000000000000000000000000000000000910152565b6162796002602092611b26565b61628281616245565b0190565b61629b9060208101905f81830391015261626c565b90565b156162a557565b6162ad610451565b62461bcd60e51b8152806162c360048201616286565b0390fd5b5f7f4e50000000000000000000000000000000000000000000000000000000000000910152565b6162fb6002602092611b26565b616304816162c7565b0190565b61631d9060208101905f8183039101526162ee565b90565b1561632757565b61632f610451565b62461bcd60e51b81528061634560048201616308565b0390fd5b5f7f4f54000000000000000000000000000000000000000000000000000000000000910152565b61637d6002602092611b26565b61638681616349565b0190565b61639f9060208101905f818303910152616370565b90565b156163a957565b6163b1610451565b62461bcd60e51b8152806163c76004820161638a565b0390fd5b5f7f544f000000000000000000000000000000000000000000000000000000000000910152565b6163ff6002602092611b26565b616408816163cb565b0190565b6164219060208101905f8183039101526163f2565b90565b1561642b57565b616433610451565b62461bcd60e51b8152806164496004820161640c565b0390fd5b60409061647661647d949695939661646c60608401985f850190611e0c565b6020830190610ccf565b0190610d10565b565b5f7f4d53000000000000000000000000000000000000000000000000000000000000910152565b6164b36002602092611b26565b6164bc8161647f565b0190565b6164d59060208101905f8183039101526164a6565b90565b156164df57565b6164e7610451565b62461bcd60e51b8152806164fd600482016164c0565b0390fd5b9261669d9392919261668e5f8061651c848888908892618aad565b61661c61653361652e60158490612b16565b613735565b61655b61654260048301611925565b61655561654f6001610519565b91610519565b1461629e565b3361657861657261656d878501610a31565b6104dd565b916104dd565b1480156166b0575b61658990616320565b6165b1336165aa6165a461659f60038601610a31565b6104dd565b916104dd565b14156163a2565b61661561660f6165cd426165c760088601610a05565b90613f49565b926165da60038201610a31565b6165f66165f06165eb8a8501610a31565b6104dd565b916104dd565b14871461669f5760096166099101610a05565b5b610550565b91610550565b1015616424565b7f00000000000000000000000000000000000000000000000000000000000000009061667786916166684261664f610451565b94859360046020860163501fd27160e11b81520161644d565b60208201810382520382610b62565b602081019051915af4616688614033565b506164d8565b92919033915f936001956195ea565b565b600a6166ab9101610a05565b61660a565b50616589336166d26166cc6166c760018601610a31565b6104dd565b916104dd565b149050616580565b906166e6939291616227565b565b5f90565b6167359161672b616730926166ff6166e8565b5061670861463c565b5061671161463c565b5061671a6148e3565b506167236145f8565b5060086108f4565b61090a565b613bdb565b906167415f8301610993565b9161674d5f82016109ba565b926167595f83016109e1565b92616772600361676b60018601610a05565b9401610a31565b919493929190565b606090565b67ffffffffffffffff81116167975760208091020190565b610b4e565b906167ae6167a98361677f565b610b8b565b918252565b6167be610120610b8b565b90565b606090565b606090565b6167d36167b3565b90602080808080808080808a6167e76135fe565b8152016167f261360a565b8152016167fd61360a565b8152016168086167c1565b8152016168136167c6565b81520161681e6135fe565b81520161682961360a565b81520161683461360a565b81520161683f61360a565b81525050565b61684d6167cb565b90565b5f5b82811061685e57505050565b602090616869616845565b8184015201616852565b906168986168808361679c565b9260208061688e869361677f565b9201910390616850565b565b906168a482611f22565b8110156168b5576020809102010190565b611138565b6168c49054610a1d565b90565b60010190565b906168ea6168e46168dd84612206565b8093611f39565b9261220a565b905f5b8181106168fa5750505090565b90919261691a61691460019261690f876168ba565b611f48565b946168c7565b91019190916168ed565b9061692e916168cd565b90565b9061695161694a92616941610451565b93848092616924565b0383610b62565b565b52565b5490565b5f5260205f2090565b61696d90546109f1565b90565b60010190565b9061699361698d61698684616956565b8093611fb3565b9261695a565b905f5b8181106169a35750505090565b9091926169c36169bd6001926169b887616963565b611fc2565b94616970565b9101919091616996565b906169d791616976565b90565b906169fa6169f3926169ea610451565b938480926169cd565b0383610b62565b565b52565b90616adf616ad56008616a106167b3565b94616a27616a1f5f8301610a31565b5f8801613771565b616a3f616a3660018301610a05565b60208801610ae6565b616a57616a4e60028301610a05565b60408801610ae6565b616a6f616a6660038301616931565b60608801616953565b616a87616a7e600483016169da565b608088016169fc565b616a9f616a9660058301610a31565b60a08801613771565b616ab7616aae60068301610a05565b60c08801610ae6565b616acf616ac660078301610a05565b60e08801610ae6565b01610a05565b6101008401610ae6565b565b616aea906169ff565b90565b616af561677a565b50616b006004610a05565b90616b0a82616873565b90616b156001613f2d565b5b80616b29616b2386610550565b91610550565b11616b7b57616b7690616b6f616b416007839061156f565b85616b5f616b5985616b536001613f2d565b90613f49565b92616ae1565b616b69838361689a565b5261689a565b5150615a34565b616b16565b50915090565b606090565b67ffffffffffffffff8111616b9e5760208091020190565b610b4e565b90616bb5616bb083616b86565b610b8b565b918252565b616bc46040610b8b565b90565b5f90565b616bd3616bba565b9060208083616be06135fe565b815201616beb616bc7565b81525050565b616bf9616bcb565b90565b5f5b828110616c0a57505050565b602090616c15616bf1565b8184015201616bfe565b90616c44616c2c83616ba3565b92602080616c3a8693616b86565b9201910390616bfc565b565b616c52616c5791610920565b612309565b90565b616c649054616c46565b90565b616c716040610b8b565b90565b90616c7e9061234b565b9052565b90616c8c8261240f565b811015616c9d576020809102010190565b611138565b616caa616b81565b50616cbd616cb86012612206565b616c1f565b616cc65f614782565b5b80616ce3616cdd616cd86012612206565b610550565b91610550565b1015616d6c57616d6790616d60616d05616cff60128490612213565b90612253565b616d4d616d30616d2b6011616d25616d1f60128990612213565b90612253565b906122f3565b616c5a565b616d44616d3b616c67565b935f8501613771565b60208301616c74565b848391616d5a8383616c82565b52616c82565b51506154ce565b616cc7565b5090565b616d78614535565b50616d8c616d85826145fc565b509161710d565b91505090616daa616da4616d9f5f613757565b6104dd565b916104dd565b14159081616db7575b5090565b9050616dcc616dc66002610519565b91610519565b14155f616db3565b90565b616deb616de6616df092616dd4565b6108d5565b610550565b90565b616e02616e0891939293610550565b92610550565b91616e14838202610550565b928184041490151715616e2357565b613d85565b90565b616e3f616e3a616e4492616e28565b6108d5565b610550565b90565b616e53616e5991610550565b91610550565b908115616e64570490565b613bfd565b90565b616e80616e7b616e8592616e69565b6108d5565b610550565b90565b90565b616e9f616e9a616ea492616e88565b6108d5565b610550565b90565b616eaf6148e3565b50616eb8614535565b50616ec16148e3565b50616eca6148e3565b50616ed36148e3565b50616edc6148e3565b50616ee56148e3565b50616eee6148e3565b50616ef76148e3565b50616f026004610a05565b90616f0d6003610a05565b616f1561987b565b616f3c616f2c82616f266005616dd7565b90616df3565b616f366064616e2b565b90616e47565b82616f4f616f4984610550565b91610550565b101593616f5d838390613f49565b90616f85616f7583616f6f6005616dd7565b90616df3565b616f7f605f616e6c565b90616e47565b90616fad616f9d84616f97605a616e8b565b90616df3565b616fa7605f616e6c565b90616e47565b90616fb6619930565b90565b5f90565b616fc5616fb9565b50616fda616fd5601133906122f3565b616c5a565b90565b616fe5614535565b50617004616fff616ff8600884906108f4565b849061090a565b613bdb565b916170105f8401610993565b61702261701c5f610ceb565b91610ceb565b1480617096575b9182617067575b5050908161703d575b5090565b905061705f6170596170545f600442950101610a05565b610550565b91610550565b10155f617039565b61708f925061708a9161707e61708392600a611321565b611337565b339061134d565b614e5f565b5f80617030565b506170a25f84016109e1565b6170b56170af6001613c36565b91610463565b14617029565b6170c96170ce916015612b16565b613735565b906170e16170db5f613af3565b91610463565b145f146170f7575f6170f4929101614746565b5b565b6001617104929101614746565b6170f5565b5f90565b61713661713b9161711c6145f8565b50617125614535565b5061712e617109565b506015612b16565b613735565b9061714860028301610a31565b906171606004617159818601610a85565b9401611925565b91929190565b9061717891617173618c3e565b617204565b617180618ca1565b565b5f7f5257000000000000000000000000000000000000000000000000000000000000910152565b6171b66002602092611b26565b6171bf81617182565b0190565b6171d89060208101905f8183039101526171a9565b90565b156171e257565b6171ea610451565b62461bcd60e51b815280617200600482016171c3565b0390fd5b5f809161727a936172637f00000000000000000000000000000000000000000000000000000000000000009261725461723b610451565b938492600460208501632663212d60e21b8152016111ce565b60208201810382520382610b62565b602081019051915af4617274614033565b506171db565b565b9061728691617166565b565b9061729f96959493929161729a618c3e565b61780c565b6172a7618ca1565b565b5f7f4953000000000000000000000000000000000000000000000000000000000000910152565b6172dd6002602092611b26565b6172e6816172a9565b0190565b6172ff9060208101905f8183039101526172d0565b90565b1561730957565b617311610451565b62461bcd60e51b815280617327600482016172ea565b0390fd5b5f7f4e54000000000000000000000000000000000000000000000000000000000000910152565b61735f6002602092611b26565b6173688161732b565b0190565b6173819060208101905f818303910152617352565b90565b1561738b57565b617393610451565b62461bcd60e51b8152806173a96004820161736c565b0390fd5b5f7f4e59500000000000000000000000000000000000000000000000000000000000910152565b6173e16003602092611b26565b6173ea816173ad565b0190565b6174039060208101905f8183039101526173d4565b90565b1561740d57565b617415610451565b62461bcd60e51b81528061742b600482016173ee565b0390fd5b9050519061743c8261109e565b565b9050519061744b82610469565b565b60808183031261748e57617463825f8301614ecd565b9261748b617474846020850161742f565b93617482816040860161742f565b9360600161743e565b90565b61045b565b91946174db6174e5929897956174d160a0966174c76174ec9a6174bd60c08a019e5f8b0190610d10565b6020890190610d10565b6040870190610ccf565b6060850190610ccf565b6080830190610ccf565b01906107eb565b565b5f7f494d000000000000000000000000000000000000000000000000000000000000910152565b6175226002602092611b26565b61752b816174ee565b0190565b6175449060208101905f818303910152617515565b90565b1561754e57565b617556610451565b62461bcd60e51b81528061756c6004820161752f565b0390fd5b905090565b905f929180549061758f61758883611946565b8094617570565b916001811690815f146175e157506001146175aa575b505050565b6175b79192939450611979565b5f905b8382106175cd57505001905f80806175a5565b6001816020925484860152019101906175ba565b92949550505060ff191682528015150201905f80806175a5565b60019392617617617610869361761f95617575565b8092613c7c565b018092613c7c565b0190565b90565b9190601f8111617636575b505050565b61764261766793611979565b90602061764e846148b7565b8301931061766f575b617660906148b7565b01906148fb565b5f8080617631565b915061766081929050617657565b9061768d905f1990600802611363565b191690565b8161769c9161767d565b906002021790565b906176ae81611b22565b9067ffffffffffffffff821161776e576176d2826176cc8554611946565b85617626565b602090601f8311600114617706579180916176f5935f926176fa575b5050617692565b90555b565b90915001515f806176ee565b601f1983169161771585611979565b925f5b8181106177565750916002939185600196941061773c575b505050020190556176f8565b61774c910151601f84169061767d565b90555f8080617730565b91936020600181928787015181550195019201617718565b610b4e565b9061777d916176a4565b565b9061779461778f61779b92613b6a565b613b76565b8254613b15565b9055565b6177a890610b2a565b90565b90565b906177c36177be6177ca9261779f565b6177ab565b8254613aba565b9055565b90565b6177e56177e06177ea926177ce565b6108d5565b610463565b90565b90565b6178046177ff617809926177ed565b6108d5565b610463565b90565b9193909460809682617827617821604061538c565b91610463565b1080617e4c575b80617e2c575b61783d90617302565b61784b848888908892618aad565b9161786061785b60158590612b16565b613735565b9361788961787060048701611925565b61788361787d6001610519565b91610519565b1461629e565b336178a66178a061789b5f8901610a31565b6104dd565b916104dd565b148015617e02575b6178b790616320565b6178de336178d86178d26178cd60038a01610a31565b6104dd565b916104dd565b14617384565b336178fb6178f56178f05f8901610a31565b6104dd565b916104dd565b14998a9361792e61791861791160058a01610a05565b8590618bf3565b865f14617df45761792890619c32565b5b617406565b6179577f0000000000000000000000000000000000000000000000000000000000000000611873565b6179966390396a796179a161796e60058c01610a05565b9461797b60068d01610a05565b9988918a90919261798a610451565b9c8d998a988998614eb8565b885260048801617493565b03915afa928315617def578a5f8080809490929197617da6575b5091617ac1617aed94926179d5617adc9599919499617547565b8a6179ec426179e660088401610a05565b90613f49565b845f14617d33576179ff60098301610a05565b617a11617a0b83610550565b91610550565b115f14617d1f57617a33617a4391617a2e6009617a4d9501610a05565b613f49565b617a3d600f6161f5565b90614c14565b5b60098d01613f87565b5b617a5b4260088d01613f87565b617a688160058d01613f87565b617a758460068d01613f87565b617ab9617ab0600b8d01617aab8a91617a9c8d617a90610451565b948593602085016175fb565b60208201810382520382610b62565b617623565b600b8d01617773565b92911561053e565b90617ad6617ad1601b8b90612dc0565b610a05565b92618b73565b617ae8601a87906149ad565b6149c3565b617b08617b01617afc8361093f565b614e90565b8092613ad3565b93617b60617b20617b1b601484906125dc565b614c0e565b617b2d5f6002830161777f565b617b41617b395f614782565b5f8301613f87565b617b56617b4d5f614782565b60018301613f87565b60025f91016177ae565b339192617b96617b907f3daa317d6fe1ae5dd08bf2b6d8399a85c9c625c19b11903ba67e6b7856fdb71c936125d0565b93611116565b93617bab617ba2610451565b928392836111ce565b0390a380617bc2617bbc6001613c36565b91610463565b145f14617be257505050617bdf945092919033915f935f956195ea565b5b565b80617bf6617bf06002613be1565b91610463565b145f14617c2357505050617c1d9450929190617c115f613757565b916001936002956195ea565b5b617be0565b80617c37617c3160036177d1565b91610463565b145f14617c6457505050617c5e9450929190617c525f613757565b916001936002956195ea565b5b617c1e565b617c77617c7160046177f0565b91610463565b145f14617ca3575050617c9d9450929190617c915f613757565b916001936002956195ea565b5b617c5f565b617cb6617cb060036177d1565b91610463565b10155f14617ce25750617cdc9450929190617cd05f613757565b916001936002956195ea565b5b617c9e565b9350505050617d07915f14617d0c576003617cff60018301610a31565b915b01614746565b617cdd565b6003617d195f8301610a31565b91617d01565b5050617a4d617d2e600f6161f5565b617a44565b617d3f600a8301610a05565b617d51617d4b83610550565b91610550565b115f14617d9257617d73617d8391617d6e600a617d8d9501610a05565b613f49565b617d7d600f6161f5565b90614c14565b5b600a8d01613f87565b617a4e565b5050617d8d617da1600f6161f5565b617d84565b6179d59750617aed9450617ac19250617adc939150617ddb9060803d8111617de8575b617dd38183610b62565b81019061744d565b96509350975090926179bb565b503d617dc9565b614f33565b617dfd90619bcc565b617929565b506178b733617e24617e1e617e1960018a01610a31565b6104dd565b916104dd565b1490506178ae565b5061783d83617e43617e3d85610463565b91610463565b14159050617834565b5081617e61617e5b604061538c565b91610463565b1061782e565b90617e76969594939291617288565b565b606090565b67ffffffffffffffff8111617e955760208091020190565b610b4e565b90617eac617ea783617e7d565b610b8b565b918252565b617ebb6040610b8b565b90565b90617ef4617eeb5f617ece617eb1565b94617ee5617edd83830161093f565b83880161379b565b01610966565b6020840161379b565b565b617eff90617ebe565b90565b90617f0c8261114c565b617f1581617e9a565b92617f236020850191611150565b5f915b838310617f335750505050565b600160208192617f4285617ef6565b815201920192019190617f26565b617f5990617f02565b90565b617f73617f7891617f6b617e78565b506016611122565b617f50565b90565b617f92617f9791617f8a617e78565b506018611122565b617f50565b90565b6180bc6180d3916180b5617fb8617fb360158490612b16565b613735565b617fcc617fc45f613757565b5f8301614746565b617fe1617fd85f613757565b60018301614746565b617ff6617fed5f613757565b60028301614746565b61800b6180025f613757565b60038301614746565b6180206180175f613757565b60048301614746565b61802d5f600483016147cc565b61803a5f6004830161480b565b61804f6180465f614782565b60058301613f87565b61806461805b5f614782565b60068301613f87565b6180796180705f614782565b60078301613f87565b61808e6180855f614782565b60088301613f87565b6180a361809a5f614782565b60098301613f87565b600a6180ae5f614782565b9101613f87565b601b612dc0565b6180cd6180c882610a05565b615a34565b90613f87565b565b6180dd613612565b90565b6180fa6180ff919592956180f26180d5565b506015612b16565b613735565b926181095f613757565b9261811f61811960048701610a85565b1561053e565b806182a9575b618255575b845f0161813690610a31565b958560010161814490610a31565b958060020161815290610a31565b958160040161816090611925565b8260040161816d90610a85565b918360070161817b90610a05565b9360080161818890610a05565b94959697985f9a618197613763565b9c5f8e01906181a591613771565b60208d01906181b391613771565b60408c01906181c191613771565b60608b01906181cf91613771565b60808a01906181dd9161377f565b60a08901906181eb9161378d565b60c08801906181f991610ae6565b60e087019061820791610ae6565b6101008601906182169161379b565b6101208501906182259161379b565b6101408401906182349161379b565b6101608301906182439161379b565b6101808201906182529161378d565b90565b925061826360028501610a31565b61827f6182796182745f8801610a31565b6104dd565b916104dd565b145f146182995761829260018501610a31565b5b9261812a565b6182a45f8501610a31565b618293565b506182b660028601610a31565b6182d06182ca6182c55f613757565b6104dd565b916104dd565b1415618125565b5f7f4500000000000000000000000000000000000000000000000000000000000000910152565b61830b6001602092611b26565b618314816182d7565b0190565b61832d9060208101905f8183039101526182fe565b90565b1561833757565b61833f610451565b62461bcd60e51b81528061835560048201618318565b0390fd5b9061837861837361836c600885906108f4565b839061090a565b613bdb565b6183835f8201610993565b6183f95f807f0000000000000000000000000000000000000000000000000000000000000000876183e288916183d36183ba610451565b93849260046020850163e6c455f560e01b8152016111ce565b60208201810382520382610b62565b602081019051915af46183f3614033565b50618330565b61840584843391619c79565b6184176184115f610ceb565b91610ceb565b14908161844f575b50618429575b5050565b81618438618448938390619c88565b906184425f613af3565b916140de565b5f80618425565b61845b91505f01610993565b61846e6184686001610ceb565b91610ceb565b145f61841f565b5f7f4653000000000000000000000000000000000000000000000000000000000000910152565b6184a96002602092611b26565b6184b281618475565b0190565b6184cb9060208101905f81830391015261849c565b90565b156184d557565b6184dd610451565b62461bcd60e51b8152806184f3600482016184b6565b0390fd5b9061851661851161850a600885906108f4565b839061090a565b613bdb565b916185225f8401610993565b6185985f807f0000000000000000000000000000000000000000000000000000000000000000856185818891618572618559610451565b93849260046020850163ea2b1d7360e01b8152016111ce565b60208201810382520382610b62565b602081019051915af4618592614033565b506184ce565b806185ab6185a55f610ceb565b91610ceb565b14806186e7575b6186c3575b6185c96185c35f610ceb565b91610ceb565b148061869e575b6185da575b505050565b6185e960036186969401610a31565b906186186185ff6185fa6001613f2d565b6154a7565b926186138461860d5f614782565b906154dd565b613771565b61868e5f807f000000000000000000000000000000000000000000000000000000000000000084618677889161866861864f610451565b9384926004602085016357f7cf7160e01b8152016111ce565b60208201810382520382610b62565b602081019051915af4618688614033565b50615d0c565b919091619d13565b5f80806185d5565b506186aa5f8401610993565b6186bd6186b76002610ceb565b91610ceb565b146185d0565b6186ce828490619c88565b6186e282846186dc5f613af3565b916140de565b6185b7565b506186f35f8501610993565b6187066187006001610ceb565b91610ceb565b146185b2565b92618715614535565b5061873e5f61873861873361872c600889906108f4565b869061090a565b613bdb565b01610993565b61875161874b6001610ceb565b91610ceb565b0361891457618764928492909192618aad565b61877861877360158390612b16565b613735565b906187845f8301610a31565b61879e6187986187935f613757565b6104dd565b916104dd565b1480156188ed575b6188e6576187c0426187ba60088501610a05565b90613f49565b6187cc60038401610a31565b6187e86187e26187dd5f8701610a31565b6104dd565b916104dd565b145f146188cf5761880d61880761880160098601610a05565b5b610550565b91610550565b106188c8576188206188259160146125dc565b614c0e565b9161883b61883560028501612606565b1561053e565b61886357505061885e6188586188535f429401610a05565b610550565b91610550565b101590565b6188b092506002806188a261888f60086188886188836188aa9786614997565b614c11565b9601610a05565b61889c5f84880101610a05565b90614c14565b930101610a05565b90614c14565b6188c36188bd4292610550565b91610550565b101590565b5050505f90565b61880d6188076188e1600a8601610a05565b618802565b5050505f90565b506188fa60048301611925565b61890d6189076001610519565b91610519565b14156187a6565b505050505f90565b6189569261894f6189386189336004946015612b16565b613735565b9361894660028587016147cc565b60028501614746565b910161480b565b565b618960618c3e565b6189686189f4565b618970618ca1565b565b5f7f4552000000000000000000000000000000000000000000000000000000000000910152565b6189a66002602092611b26565b6189af81618972565b0190565b6189c89060208101905f818303910152618999565b90565b156189d257565b6189da610451565b62461bcd60e51b8152806189f0600482016189b3565b0390fd5b618a655f807f0000000000000000000000000000000000000000000000000000000000000000618a22610451565b618a4e81618a3f600460208301630f878ebf60e41b81520161076e565b60208201810382520382610b62565b602081019051915af4618a5f614033565b506189cb565b565b618a6f618958565b565b5f90565b92618aa16001618aa994618a998288618a91829b9a8399613c7c565b018092613c7c565b018092613c7c565b018092613c7c565b0190565b618ae49293618ad591618abe618a71565b509294618ac9610451565b95869460208601618a75565b60208201810382520382610b62565b618af6618af082613cde565b91613cd8565b2090565b90565b618b11618b0c618b1692618afa565b6108d5565b610550565b90565b618b2290613c70565b90565b618b31618b369161053e565b618b19565b9052565b92618b676020618b6f94618b5f8288618b57829b9a600199613c55565b018092613c55565b018092618b25565b018092613c55565b0190565b90618bb69293618ba791618b85618a71565b50618b91610fff618afd565b1694618b9b610451565b95869460208601618b3a565b60208201810382520382610b62565b618bc8618bc282613cde565b91613cd8565b2090565b618beb90618be5618bdf618bf094610463565b91610550565b90611363565b610550565b90565b618c2e91618c18618c1e92618c0661463c565b5091618c1260046177f0565b90613e1f565b90618bcc565b618c28600f6161f5565b16613d34565b90565b618c3b6002614766565b90565b618c475f610a05565b618c60618c5a618c55618c31565b610550565b91610550565b14618c7857618c76618c70618c31565b5f613f87565b565b5f633ee5aeb560e01b815280618c906004820161076e565b0390fd5b618c9e6001613f2d565b90565b618cb2618cac618c94565b5f613f87565b565b90618cc192919091619ea2565b565b606090565b606090565b618cd85f8092611b26565b0190565b9091618d1b93618d04618d0e92618cfa60808601965f870190610ccf565b6020850190610ccf565b6040830190610d10565b6060818303910152618ccd565b90565b5f7f4450000000000000000000000000000000000000000000000000000000000000910152565b618d526002602092611b26565b618d5b81618d1e565b0190565b618d749060208101905f818303910152618d45565b90565b15618d7e57565b618d86610451565b62461bcd60e51b815280618d9c60048201618d5f565b0390fd5b5f80fd5b5f80fd5b90929192618dbd618db88261546e565b610b8b565b9381855260208086019202830192818411618dfa57915b838310618de15750505050565b60208091618def8486614ebe565b815201920191618dd4565b618da4565b9080601f83011215618e1d57816020618e1a93519101618da8565b90565b618da0565b67ffffffffffffffff8111618e3a5760208091020190565b610b4e565b90929192618e54618e4f82618e22565b610b8b565b9381855260208086019202830192818411618e9157915b838310618e785750505050565b60208091618e86848661742f565b815201920191618e6b565b618da4565b9080601f83011215618eb457816020618eb193519101618e3f565b90565b618da0565b919091604081840312618f11575f81015167ffffffffffffffff8111618f0c5783618ee5918301618dff565b92602082015167ffffffffffffffff8111618f0757618f049201618e96565b90565b61045f565b61045f565b61045b565b60209181520190565b90618f3c618f36618f2f84611f35565b8093618f16565b92611f42565b905f5b818110618f4c5750505090565b909192618f65618f5f6001928651611f48565b94611f59565b9101919091618f3f565b91618fb391618fc09594618f9b618fa893618f9160a08801945f890190610ccf565b6020870190610ccf565b8482036040860152618f1f565b926060830190610d10565b6080818303910152618ccd565b90565b90618fcd82611faf565b811015618fde576020809102010190565b611138565b618fed9051610550565b90565b604090619019619020949695939661900f60608401985f850190610ccf565b6020830190610ccf565b0190610842565b565b5f7f5545000000000000000000000000000000000000000000000000000000000000910152565b6190566002602092611b26565b61905f81619022565b0190565b6190789060208101905f818303910152619049565b90565b1561908257565b61908a610451565b62461bcd60e51b8152806190a060048201619063565b0390fd5b90926190d7906190cd6190e496946190c360808601975f870190610842565b6020850190610d10565b6040830190610d44565b6060818403910152618f1f565b90565b6191056191006190f9600884906108f4565b849061090a565b613bdb565b916191115f8401610993565b61912461911e6002610ceb565b91610ceb565b141580156194eb575b6194e55761913d60038401610a31565b9361914a60018501610a05565b619152618cc3565b5061915b618cc8565b5061916860038601610a85565b5f1461944c575f80619200927f0000000000000000000000000000000000000000000000000000000000000000906191d0886191c18993896191a8610451565b958694600460208701631f16ed5760e31b815201618f6f565b60208201810382520382610b62565b602081019051915af46191ea6191e4614033565b91618d77565b60206191f582613cde565b818301019101618eb9565b9390945b61920d5f614782565b5b8061922961922361921e8a611f35565b610550565b91610550565b10156192b8576192b39061923c30614e6c565b61924f61924a8a84906154dd565b6156af565b61926261925d8a8590618fc3565b618fe3565b916192ab6192996192937fddf252ad1be2c89b69c2b068fc378daa952ba7f163c4a11628f55a4df523b3ef93611116565b93611116565b936192a2610451565b91829182611cc0565b0390a36154ce565b61920e565b5091935091935061944a9461933a5f807f0000000000000000000000000000000000000000000000000000000000000000866193238a91619314886192fb610451565b94859360046020860163344dfa1b60e11b815201618ff0565b60208201810382520382610b62565b602081019051915af4619334614033565b5061907b565b61936261935d61935661934f600f8790612e2d565b8890612e43565b8390612e59565b610a05565b91839061937460038894959201610ad9565b936193be876193ac6193a67f3d4eb684a5f3e9917f4c91b1791efa1b0b8a8c95d62aac47b64fbabbfe57fae9966108d8565b966108d8565b966193b5610451565b948594856190a4565b0390a36193cc81849061a247565b6194425f807f00000000000000000000000000000000000000000000000000000000000000008461942b889161941c619403610451565b9384926004602085016357f7cf7160e01b8152016111ce565b60208201810382520382610b62565b602081019051915af461943c614033565b50615d0c565b919091619d13565b565b5f806194dd927f0000000000000000000000000000000000000000000000000000000000000000906194ad8861949e8993619485610451565b948593600460208601638421af8560e01b815201618cdc565b60208201810382520382610b62565b602081019051915af46194c76194c1614033565b91618d77565b60206194d282613cde565b818301019101618eb9565b939094619204565b50505050565b506194f584611f35565b6195076195015f614782565b91610550565b1461912d565b919461955561955f9298979561954b60a0966195416195669a61953760c08a019e5f8b0190610ccf565b6020890190610ccf565b6040870190610ccf565b6060850190610ccf565b6080830190610842565b01906107eb565b565b5f7f434d000000000000000000000000000000000000000000000000000000000000910152565b61959c6002602092611b26565b6195a581619568565b0190565b6195be9060208101905f81830391015261958f565b90565b156195c857565b6195d0610451565b62461bcd60e51b8152806195e6600482016195a9565b0390fd5b93819793969291958587848a9161960093618aad565b938688858b869186936196129561a2ec565b60148561961e916125dc565b61962790614c0e565b5f81600201906196369161777f565b5f61964090614782565b815f019061964d91613f87565b5f61965790614782565b816001019061966591613f87565b5f9060020190619674916177ae565b600987619680916121da565b8861968a916121f0565b61969390612206565b61969c906154a7565b98875f6196a890614782565b9b6196d36196ce6196c98f936196c46196d9955b9660096121da565b6121f0565b612206565b610550565b91610550565b101561974257878a9b6197208b9c61971b61971361970d8f6197069061970160098a906121da565b6121f0565b8690612213565b90612253565b8490926154dd565b613771565b619729906154ce565b9b9a6196d36196ce6196c98f936196c46196d9956196bc565b87969a506197e192916197d05f806197f19d9b896197b98f6197aa6197db998d7f0000000000000000000000000000000000000000000000000000000000000000969395918d92619791610451565b978896600460208901633df1d83160e01b81520161950d565b60208201810382520382610b62565b602081019051915af46197ca614033565b506195c1565b86908584919261a337565b1561053e565b6197f3575b5050509190916190e7565b565b6197ff619825936145fc565b9161981261980c836104dd565b916104dd565b145f1461982d57505b908386919261a3ce565b5f80806197e6565b905061981b565b90565b61984b61984661985092619834565b6108d5565b610550565b90565b61985c81616956565b8210156198765761986e60019161695a565b910201905f90565b611138565b6198836148e3565b5061988e6005616956565b6198a061989a5f614782565b91610550565b146198fd576198af6004610a05565b6198ca6198c46198bf6005616956565b610550565b91610550565b106198dc576198d96006610a05565b90565b6198fa6198f460056198ee6004610a05565b90619853565b906123bd565b90565b61990e6729a2241af62c0000619837565b90565b90565b61992861992361992d92619911565b6108d5565b610550565b90565b6199386148e3565b5061994c6199476103e8619914565b6154a7565b906199565f614782565b916199605f613af3565b5b8061997d619977619972600161093f565b610463565b91610463565b1015619b8a5761999761999260028390614997565b614c11565b926199a15f613af3565b5b806199bf6199b96199b45f8901610966565b610463565b91610463565b1015619b79576199e36199de6199d7600886906108f4565b839061090a565b613bdb565b6199ee5f8201610993565b619a006199fa5f610ceb565b91610ceb565b14908115619b53575b50619a1d575b619a1890613e10565b6199a2565b619a3f619a3a619a3360099895949885906121da565b83906121f0565b613bd8565b90619a495f614782565b955b86619a66619a60619a5b86613d50565b610550565b91610550565b1015619b4157619a80619a7a848990613d5d565b90612253565b935f98619a8c5f614782565b5b80619aa0619a9a8a610550565b91610550565b1015619b3257619ab9619ab48a83906154dd565b6156af565b619acb619ac5896104dd565b916104dd565b14619ade57619ad9906154ce565b619a8d565b50979194909850619af160015b1561053e565b619b08575b50619b00906154ce565b959692619a4b565b619b009195619b26619b2b92619b218a918490926154dd565b613771565b615a34565b9490619af6565b509791949098619af190619aeb565b9550619a189150959192959050619a0f565b619b5f91505f01610993565b619b72619b6c6001610ceb565b91610ceb565b145f619a09565b509250619b8590613e10565b619961565b5050565b90565b619ba5619ba0619baa92619b8e565b6108d5565b610463565b90565b90565b619bc4619bbf619bc992619bad565b6108d5565b610463565b90565b619bd4614535565b5080619be9619be36007619b91565b91610463565b10159081619bf6575b5090565b9050619c0b619c05600c619bb0565b91610463565b11155f619bf2565b90565b619c2a619c25619c2f92619c13565b6108d5565b610463565b90565b619c3a614535565b5080619c4f619c496001613c36565b91610463565b10159081619c5c575b5090565b9050619c71619c6b6006619c16565b91610463565b11155f619c58565b90619c869291909161a3da565b565b9190619ca8619ca3619c9c600986906121da565b83906121f0565b613bd8565b619cb15f614782565b5b80619ccd619cc7619cc285613d50565b610550565b91610550565b1015619d0c57619d0790619d02619cee619ce8858490613d5d565b90612253565b619cfa8189889161a4fa565b878691619ea2565b6154ce565b619cb2565b5050509050565b9291619d1e5f614782565b5b80619d3a619d34619d2f85611f35565b610550565b91610550565b1015619d8a57619d8590619d62619d5a619d558584906154dd565b6156af565b87869161a4fa565b619d80619d78619d738584906154dd565b6156af565b87869161a662565b6154ce565b619d1f565b5050509050565b90619d9b90611116565b5f5260205260405f2090565b90619db1906108d8565b5f5260205260405f2090565b90619dc7906108d8565b5f5260205260405f2090565b90565b619de06040610b8b565b90565b5f5260205f2090565b5490565b619df981619dec565b821015619e1357619e0b600191619de3565b910201905f90565b611138565b619e229051610463565b90565b90619e4f60205f619e5594619e47828201619e41848801619e18565b90613ad3565b019201619e18565b90613b2c565b565b9190619e6857619e6691619e25565b565b6148a4565b9081549168010000000000000000831015619e9d5782619e95916001619e9b95018155619df0565b90619e57565b565b610b4e565b90619ecb619ec6619ebf619eb860198690619d91565b8490619da7565b8590619dbd565b610a05565b619edd619ed75f614782565b91610550565b03619f5c57619f5a92619f50619f5592619f2c619f04619eff60188890611122565b619dd3565b8290619f2786619f1e619f15619dd6565b945f860161379b565b6020840161379b565b619e6d565b619f4b619f43619f3e60188890611122565b61114c565b956019619d91565b619da7565b619dbd565b613f87565b565b505050565b90565b5f5260205f2090565b5490565b619f7a81619f6d565b821015619f9457619f8c600c91619f64565b910201905f90565b611138565b619fa39054611946565b90565b9080821461a08557619fb781619f99565b9067ffffffffffffffff821161a08057619fdb82619fd58554611946565b85617626565b5f90601f831160011461a00e57918091619ffd935f9261a002575b5050617692565b90555b565b90915001545f80619ff6565b9061a01d601f19841692611979565b9061a02785611979565b925f5b81811061a0685750916002939185600196941061a04e575b5050500201905561a000565b61a05e910154601f84169061767d565b90555f808061a042565b9193600180602092878701548155019501920161a02a565b610b4e565b5050565b9061a09391619fa6565b565b9080820361a0a2575b5050565b600b808361a0c05f61a1f5960161a0ba5f8701610a31565b90614746565b61a0d96001820161a0d360018701610a31565b90614746565b61a0f26002820161a0ec60028701610a31565b90614746565b61a10b6003820161a10560038701610a31565b90614746565b61a1246004820161a11e60048701610a31565b90614746565b61a13d6004820161a13760048701611925565b906147cc565b61a1566004820161a15060048701610a85565b9061480b565b61a16f6005820161a16960058701610a05565b90613f87565b61a1886006820161a18260068701610a05565b90613f87565b61a1a16007820161a19b60078701610a05565b90613f87565b61a1ba6008820161a1b460088701610a05565b90613f87565b61a1d36009820161a1cd60098701610a05565b90613f87565b61a1ec600a820161a1e6600a8701610a05565b90613f87565b0191019061a089565b5f8061a09e565b919061a20d5761a20b9161a095565b565b6148a4565b908154916801000000000000000083101561a242578261a23a91600161a24095018155619f71565b9061a1fc565b565b610b4e565b8061a25b61a25560036177d1565b91610463565b14801561a2d1575b61a26c575b5050565b61a2ca9161a2af9161a29f5f61a29661a29161a28a600886906108f4565b869061090a565b613bdb565b929392016109ba565b9061a2a95f613af3565b92618aad565b61a2c461a2bc601c619f61565b916015612b16565b9061a212565b5f8061a268565b508061a2e661a2e06007619b91565b91610463565b1461a263565b61a31261a30b61a32e9360049661a335999661a3179592909192618aad565b6015612b16565b613735565b9361a32560028587016147cc565b60028501614746565b910161480b565b565b9291909161a34f61a34a60158690612b16565b613735565b939061a35c5f8601610a31565b9261a3c961a37b600561a37160018a01610a31565b9793949801610a05565b61a3b761a3b161a3ab7f9df5b4d746303d3796646c5fa6da5d7e660bde8b83369dadd626bb5fc1fcab1f976125d0565b97611116565b97611116565b9761a3c0610451565b948594856155bd565b0390a4565b61a3d8935061a662565b565b9061a40361a3fe61a3f761a3f060178690619d91565b8490619da7565b8590619dbd565b610a05565b61a41561a40f5f614782565b91610550565b0361a4945761a4929261a48861a48d9261a46461a43c61a43760168890611122565b619dd3565b829061a45f8661a45661a44d619dd6565b945f860161379b565b6020840161379b565b619e6d565b61a48361a47b61a47660168890611122565b61114c565b956017619d91565b619da7565b619dbd565b613f87565b565b505050565b634e487b7160e01b5f52603160045260245ffd5b5f80910155565b905f0361a4c65761a4c49061a4ad565b565b6148a4565b61a4d481619dec565b801561a4f557600190039061a4f261a4ec8383619df0565b9061a4b4565b55565b61a499565b9161a52361a51e61a51761a51060178790619d91565b8590619da7565b8390619dbd565b610a05565b908161a53761a5315f614782565b91610550565b1461a65c5761a5cb5f9361a5c661a5d5968561a56061a5d09761a55a6001613f2d565b90613f49565b61a58761a57761a57260168690611122565b61114c565b61a5816001613f2d565b90613f49565b8161a59a61a59483610550565b91610550565b0361a5d7575b50505061a5bf61a5ba61a5b560168490611122565b619dd3565b61a4cb565b6017619d91565b619da7565b619dbd565b6148e7565b565b61a6549261a61c61a5ff61a5f961a64f9461a5f460168a90611122565b611162565b50617ef6565b9361a616859161a61160168a90611122565b611162565b90619e57565b9161a649602061a64261a63160178990619d91565b61a63c8f8601619e18565b90619da7565b9201619e18565b90619dbd565b613f87565b5f808061a5a0565b50505050565b9161a68b61a68661a67f61a67860198790619d91565b8590619da7565b8390619dbd565b610a05565b908161a69f61a6995f614782565b91610550565b1461a7c45761a7335f9361a72e61a73d968561a6c861a7389761a6c26001613f2d565b90613f49565b61a6ef61a6df61a6da60188690611122565b61114c565b61a6e96001613f2d565b90613f49565b8161a70261a6fc83610550565b91610550565b0361a73f575b50505061a72761a72261a71d60188490611122565b619dd3565b61a4cb565b6019619d91565b619da7565b619dbd565b6148e7565b565b61a7bc9261a78461a76761a76161a7b79461a75c60188a90611122565b611162565b50617ef6565b9361a77e859161a77960188a90611122565b611162565b90619e57565b9161a7b1602061a7aa61a79960198990619d91565b61a7a48f8601619e18565b90619da7565b9201619e18565b90619dbd565b613f87565b5f808061a708565b5050505056fea26469706673582212204643fa941886f16d43b76e46910cadd9c190cb83ee0cf41d8418abae6b3ec96764736f6c634300081e0033","linkReferences":{}},"methodIdentifiers":{"BASIS_POINTS()":"e1f1c4a7","CHESS_RULES()":"46a56a26","MODULE_CORE()":"87d41608","MODULE_ESCALATION()":"a401a223","MODULE_MATCHES()":"d3f525dc","MODULE_PRIZES()":"43bd18a2","MODULE_RAFFLE()":"5a3db19f","NO_ROUND()":"cd47b9a9","OWNER_SHARE_BPS()":"f4ed1743","PARTICIPANTS_SHARE_BPS()":"82383535","PROTOCOL_SHARE_BPS()":"92822047","_completeMatchWithResult(bytes32,address,bool)":"f4df7cf0","_createMatchGame(uint8,uint8,uint8,uint8,address,address)":"2ad7e3bf","_getActiveMatchData(bytes32,uint8,uint8,uint8,uint8)":"e545f486","_getMatchPlayers(bytes32)":"1ec3b8ad","_getMatchResult(bytes32)":"97556f67","_getTimeIncrement()":"58f975f3","_hasCurrentPlayerTimedOut(bytes32)":"19602c21","_initializeMatchForPlay(bytes32,uint8)":"3751d19f","_isMatchActive(bytes32)":"7f515802","_resetMatchGame(bytes32)":"d893088d","_setMatchPlayer(bytes32,uint8,address)":"95dd9176","accumulatedProtocolShare()":"6b9be2c9","canResetEnrollmentWindow(uint8,uint8)":"8c930e96","claimAbandonedEnrollmentPool(uint8,uint8)":"3864cd6b","claimMatchSlotByReplacement(uint8,uint8,uint8,uint8)":"367639e2","claimTimeoutWin(uint8,uint8,uint8,uint8)":"631039c7","currentRaffleIndex()":"a5cd19da","drawParticipants(uint8,uint8,uint8,uint8,address)":"414a488a","eliteMatches(uint256)":"4b159b98","enrollInTournament(uint8,uint8)":"e6c455f5","enrolledPlayers(uint8,uint8,uint256)":"685f1b12","executeProtocolRaffle()":"f878ebf0","forceEliminateStalledMatch(uint8,uint8,uint8,uint8)":"4d9d1611","forceStartTournament(uint8,uint8)":"ea2b1d73","getBoard(uint8,uint8,uint8,uint8)":"3324e909","getLeaderboard()":"6d763a6e","getMatch(uint8,uint8,uint8,uint8)":"005b0057","getMatchCountForRound(uint8,uint8)":"42baab49","getPlayerActiveTournaments(address)":"c743c0a8","getPlayerEnrollingTournaments(address)":"c718d0e5","getPlayerStats()":"847a5e99","getRaffleHistory()":"666d9687","getRaffleInfo()":"8166f6b2","getRoundInfo(uint8,uint8,uint8)":"273e3475","getTournamentInfo(uint8,uint8)":"65e12b14","initializeRound(uint8,uint8,uint8)":"0300e0b9","isEnrolled(uint8,uint8,address)":"3475bd53","isMatchEscL2Available(uint8,uint8,uint8,uint8)":"ed96ffdf","isMatchEscL3Available(uint8,uint8,uint8,uint8)":"2f26185d","isPlayerInAdvancedRound(uint8,uint8,uint8,address)":"31449074","makeMove(uint8,uint8,uint8,uint8,uint8,uint8,uint8)":"af461447","matchTimeouts(bytes32)":"766d1fca","matches(bytes32)":"9fe9ada3","owner()":"8da5cb5b","playerActiveMatches(address,uint256)":"5d657cb1","playerActiveTournaments(address,uint256)":"32e7c6aa","playerEarnings(address)":"69f92773","playerEnrollingTournaments(address,uint256)":"3845753f","playerMatchIndex(address,bytes32)":"bb0d10b5","playerPrizes(uint8,uint8,address)":"c6c2d69c","playerRanking(uint8,uint8,address)":"75da743d","raffleResults(uint256)":"40861c1d","resetEnrollmentWindow(uint8,uint8)":"998c84b4","rounds(uint8,uint8,uint8)":"eed9a268","tierCount()":"96b55f7d","tournaments(uint8,uint8)":"1f916aca"},"id":0}