{"abi":[{"type":"constructor","inputs":[],"stateMutability":"nonpayable"},{"type":"function","name":"BASIS_POINTS","inputs":[],"outputs":[{"name":"","type":"uint256","internalType":"uint256"}],"stateMutability":"view"},{"type":"function","name":"MODULE_CORE","inputs":[],"outputs":[{"name":"","type":"address","internalType":"address"}],"stateMutability":"view"},{"type":"function","name":"MODULE_ESCALATION","inputs":[],"outputs":[{"name":"","type":"address","internalType":"address"}],"stateMutability":"view"},{"type":"function","name":"MODULE_MATCHES","inputs":[],"outputs":[{"name":"","type":"address","internalType":"address"}],"stateMutability":"view"},{"type":"function","name":"MODULE_PRIZES","inputs":[],"outputs":[{"name":"","type":"address","internalType":"address"}],"stateMutability":"view"},{"type":"function","name":"MODULE_RAFFLE","inputs":[],"outputs":[{"name":"","type":"address","internalType":"address"}],"stateMutability":"view"},{"type":"function","name":"NO_ROUND","inputs":[],"outputs":[{"name":"","type":"uint8","internalType":"uint8"}],"stateMutability":"view"},{"type":"function","name":"OWNER_SHARE_BPS","inputs":[],"outputs":[{"name":"","type":"uint256","internalType":"uint256"}],"stateMutability":"view"},{"type":"function","name":"PARTICIPANTS_SHARE_BPS","inputs":[],"outputs":[{"name":"","type":"uint256","internalType":"uint256"}],"stateMutability":"view"},{"type":"function","name":"PROTOCOL_SHARE_BPS","inputs":[],"outputs":[{"name":"","type":"uint256","internalType":"uint256"}],"stateMutability":"view"},{"type":"function","name":"_completeMatchWithResult","inputs":[{"name":"","type":"bytes32","internalType":"bytes32"},{"name":"","type":"address","internalType":"address"},{"name":"","type":"bool","internalType":"bool"}],"outputs":[],"stateMutability":"nonpayable"},{"type":"function","name":"_createMatchGame","inputs":[{"name":"","type":"uint8","internalType":"uint8"},{"name":"","type":"uint8","internalType":"uint8"},{"name":"","type":"uint8","internalType":"uint8"},{"name":"","type":"uint8","internalType":"uint8"},{"name":"","type":"address","internalType":"address"},{"name":"","type":"address","internalType":"address"}],"outputs":[],"stateMutability":"nonpayable"},{"type":"function","name":"_getActiveMatchData","inputs":[{"name":"matchId","type":"bytes32","internalType":"bytes32"},{"name":"tierId","type":"uint8","internalType":"uint8"},{"name":"instanceId","type":"uint8","internalType":"uint8"},{"name":"roundNumber","type":"uint8","internalType":"uint8"},{"name":"matchNumber","type":"uint8","internalType":"uint8"}],"outputs":[{"name":"","type":"tuple","internalType":"struct ETour_Storage.CommonMatchData","components":[{"name":"player1","type":"address","internalType":"address"},{"name":"player2","type":"address","internalType":"address"},{"name":"winner","type":"address","internalType":"address"},{"name":"loser","type":"address","internalType":"address"},{"name":"status","type":"uint8","internalType":"enum ETour_Storage.MatchStatus"},{"name":"isDraw","type":"bool","internalType":"bool"},{"name":"startTime","type":"uint256","internalType":"uint256"},{"name":"lastMoveTime","type":"uint256","internalType":"uint256"},{"name":"tierId","type":"uint8","internalType":"uint8"},{"name":"instanceId","type":"uint8","internalType":"uint8"},{"name":"roundNumber","type":"uint8","internalType":"uint8"},{"name":"matchNumber","type":"uint8","internalType":"uint8"},{"name":"isCached","type":"bool","internalType":"bool"}]}],"stateMutability":"view"},{"type":"function","name":"_getMatchPlayers","inputs":[{"name":"matchId","type":"bytes32","internalType":"bytes32"}],"outputs":[{"name":"player1","type":"address","internalType":"address"},{"name":"player2","type":"address","internalType":"address"}],"stateMutability":"view"},{"type":"function","name":"_getMatchResult","inputs":[{"name":"","type":"bytes32","internalType":"bytes32"}],"outputs":[{"name":"","type":"address","internalType":"address"},{"name":"","type":"bool","internalType":"bool"},{"name":"","type":"uint8","internalType":"enum ETour_Storage.MatchStatus"}],"stateMutability":"view"},{"type":"function","name":"_getTimeIncrement","inputs":[],"outputs":[{"name":"","type":"uint256","internalType":"uint256"}],"stateMutability":"view"},{"type":"function","name":"_hasCurrentPlayerTimedOut","inputs":[{"name":"","type":"bytes32","internalType":"bytes32"}],"outputs":[{"name":"","type":"bool","internalType":"bool"}],"stateMutability":"view"},{"type":"function","name":"_initializeMatchForPlay","inputs":[{"name":"","type":"bytes32","internalType":"bytes32"},{"name":"","type":"uint8","internalType":"uint8"}],"outputs":[],"stateMutability":"nonpayable"},{"type":"function","name":"_isMatchActive","inputs":[{"name":"matchId","type":"bytes32","internalType":"bytes32"}],"outputs":[{"name":"","type":"bool","internalType":"bool"}],"stateMutability":"view"},{"type":"function","name":"_resetMatchGame","inputs":[{"name":"","type":"bytes32","internalType":"bytes32"}],"outputs":[],"stateMutability":"nonpayable"},{"type":"function","name":"_setMatchPlayer","inputs":[{"name":"matchId","type":"bytes32","internalType":"bytes32"},{"name":"slot","type":"uint8","internalType":"uint8"},{"name":"player","type":"address","internalType":"address"}],"outputs":[],"stateMutability":"nonpayable"},{"type":"function","name":"accumulatedProtocolShare","inputs":[],"outputs":[{"name":"","type":"uint256","internalType":"uint256"}],"stateMutability":"view"},{"type":"function","name":"assignRankingOnElimination","inputs":[{"name":"tierId","type":"uint8","internalType":"uint8"},{"name":"instanceId","type":"uint8","internalType":"uint8"},{"name":"roundNumber","type":"uint8","internalType":"uint8"},{"name":"player","type":"address","internalType":"address"}],"outputs":[],"stateMutability":"nonpayable"},{"type":"function","name":"checkAndMarkStalled","inputs":[{"name":"matchId","type":"bytes32","internalType":"bytes32"},{"name":"tierId","type":"uint8","internalType":"uint8"},{"name":"instanceId","type":"uint8","internalType":"uint8"},{"name":"roundNumber","type":"uint8","internalType":"uint8"},{"name":"matchNumber","type":"uint8","internalType":"uint8"}],"outputs":[{"name":"","type":"bool","internalType":"bool"}],"stateMutability":"nonpayable"},{"type":"function","name":"claimMatchSlotByReplacement","inputs":[{"name":"tierId","type":"uint8","internalType":"uint8"},{"name":"instanceId","type":"uint8","internalType":"uint8"},{"name":"roundNumber","type":"uint8","internalType":"uint8"},{"name":"matchNumber","type":"uint8","internalType":"uint8"}],"outputs":[],"stateMutability":"nonpayable"},{"type":"function","name":"claimTimeoutWin","inputs":[{"name":"tierId","type":"uint8","internalType":"uint8"},{"name":"instanceId","type":"uint8","internalType":"uint8"},{"name":"roundNumber","type":"uint8","internalType":"uint8"},{"name":"matchNumber","type":"uint8","internalType":"uint8"}],"outputs":[],"stateMutability":"nonpayable"},{"type":"function","name":"clearEscalationState","inputs":[{"name":"matchId","type":"bytes32","internalType":"bytes32"}],"outputs":[],"stateMutability":"nonpayable"},{"type":"function","name":"currentRaffleIndex","inputs":[],"outputs":[{"name":"","type":"uint256","internalType":"uint256"}],"stateMutability":"view"},{"type":"function","name":"drawParticipants","inputs":[{"name":"","type":"uint8","internalType":"uint8"},{"name":"","type":"uint8","internalType":"uint8"},{"name":"","type":"uint8","internalType":"uint8"},{"name":"","type":"uint8","internalType":"uint8"},{"name":"","type":"address","internalType":"address"}],"outputs":[{"name":"","type":"bool","internalType":"bool"}],"stateMutability":"view"},{"type":"function","name":"enrollInTournament","inputs":[{"name":"tierId","type":"uint8","internalType":"uint8"},{"name":"instanceId","type":"uint8","internalType":"uint8"}],"outputs":[],"stateMutability":"payable"},{"type":"function","name":"enrolledPlayers","inputs":[{"name":"","type":"uint8","internalType":"uint8"},{"name":"","type":"uint8","internalType":"uint8"},{"name":"","type":"uint256","internalType":"uint256"}],"outputs":[{"name":"","type":"address","internalType":"address"}],"stateMutability":"view"},{"type":"function","name":"forceEliminateStalledMatch","inputs":[{"name":"tierId","type":"uint8","internalType":"uint8"},{"name":"instanceId","type":"uint8","internalType":"uint8"},{"name":"roundNumber","type":"uint8","internalType":"uint8"},{"name":"matchNumber","type":"uint8","internalType":"uint8"}],"outputs":[],"stateMutability":"nonpayable"},{"type":"function","name":"forceStartTournament","inputs":[{"name":"tierId","type":"uint8","internalType":"uint8"},{"name":"instanceId","type":"uint8","internalType":"uint8"}],"outputs":[],"stateMutability":"nonpayable"},{"type":"function","name":"getLeaderboard","inputs":[],"outputs":[{"name":"","type":"tuple[]","internalType":"struct ETour_Storage.LeaderboardEntry[]","components":[{"name":"player","type":"address","internalType":"address"},{"name":"earnings","type":"int256","internalType":"int256"}]}],"stateMutability":"view"},{"type":"function","name":"getPlayerActiveTournaments","inputs":[{"name":"player","type":"address","internalType":"address"}],"outputs":[{"name":"","type":"tuple[]","internalType":"struct ETour_Storage.TournamentRef[]","components":[{"name":"tierId","type":"uint8","internalType":"uint8"},{"name":"instanceId","type":"uint8","internalType":"uint8"}]}],"stateMutability":"view"},{"type":"function","name":"getPlayerEnrollingTournaments","inputs":[{"name":"player","type":"address","internalType":"address"}],"outputs":[{"name":"","type":"tuple[]","internalType":"struct ETour_Storage.TournamentRef[]","components":[{"name":"tierId","type":"uint8","internalType":"uint8"},{"name":"instanceId","type":"uint8","internalType":"uint8"}]}],"stateMutability":"view"},{"type":"function","name":"getPlayerStats","inputs":[],"outputs":[{"name":"totalEarnings","type":"int256","internalType":"int256"}],"stateMutability":"view"},{"type":"function","name":"getRaffleInfo","inputs":[],"outputs":[{"name":"raffleIndex","type":"uint256","internalType":"uint256"},{"name":"isReady","type":"bool","internalType":"bool"},{"name":"currentAccumulated","type":"uint256","internalType":"uint256"},{"name":"threshold","type":"uint256","internalType":"uint256"},{"name":"reserve","type":"uint256","internalType":"uint256"},{"name":"raffleAmount","type":"uint256","internalType":"uint256"},{"name":"ownerShare","type":"uint256","internalType":"uint256"},{"name":"winnerShare","type":"uint256","internalType":"uint256"},{"name":"eligiblePlayerCount","type":"uint256","internalType":"uint256"}],"stateMutability":"view"},{"type":"function","name":"getRoundInfo","inputs":[{"name":"tierId","type":"uint8","internalType":"uint8"},{"name":"instanceId","type":"uint8","internalType":"uint8"},{"name":"roundNumber","type":"uint8","internalType":"uint8"}],"outputs":[{"name":"totalMatches","type":"uint8","internalType":"uint8"},{"name":"completedMatches","type":"uint8","internalType":"uint8"},{"name":"initialized","type":"bool","internalType":"bool"}],"stateMutability":"view"},{"type":"function","name":"getTournamentInfo","inputs":[{"name":"tierId","type":"uint8","internalType":"uint8"},{"name":"instanceId","type":"uint8","internalType":"uint8"}],"outputs":[{"name":"status","type":"uint8","internalType":"enum ETour_Storage.TournamentStatus"},{"name":"currentRound","type":"uint8","internalType":"uint8"},{"name":"enrolledCount","type":"uint8","internalType":"uint8"},{"name":"prizePool","type":"uint256","internalType":"uint256"},{"name":"winner","type":"address","internalType":"address"}],"stateMutability":"view"},{"type":"function","name":"initializeRound","inputs":[{"name":"","type":"uint8","internalType":"uint8"},{"name":"","type":"uint8","internalType":"uint8"},{"name":"","type":"uint8","internalType":"uint8"}],"outputs":[],"stateMutability":"nonpayable"},{"type":"function","name":"isEnrolled","inputs":[{"name":"","type":"uint8","internalType":"uint8"},{"name":"","type":"uint8","internalType":"uint8"},{"name":"","type":"address","internalType":"address"}],"outputs":[{"name":"","type":"bool","internalType":"bool"}],"stateMutability":"view"},{"type":"function","name":"isMatchEscL2Available","inputs":[{"name":"tierId","type":"uint8","internalType":"uint8"},{"name":"instanceId","type":"uint8","internalType":"uint8"},{"name":"roundNumber","type":"uint8","internalType":"uint8"},{"name":"matchNumber","type":"uint8","internalType":"uint8"}],"outputs":[{"name":"","type":"bool","internalType":"bool"}],"stateMutability":"view"},{"type":"function","name":"isMatchEscL3Available","inputs":[{"name":"tierId","type":"uint8","internalType":"uint8"},{"name":"instanceId","type":"uint8","internalType":"uint8"},{"name":"roundNumber","type":"uint8","internalType":"uint8"},{"name":"matchNumber","type":"uint8","internalType":"uint8"}],"outputs":[{"name":"","type":"bool","internalType":"bool"}],"stateMutability":"view"},{"type":"function","name":"isPlayerInAdvancedRound","inputs":[{"name":"tierId","type":"uint8","internalType":"uint8"},{"name":"instanceId","type":"uint8","internalType":"uint8"},{"name":"stalledRoundNumber","type":"uint8","internalType":"uint8"},{"name":"player","type":"address","internalType":"address"}],"outputs":[{"name":"hasAdvanced","type":"bool","internalType":"bool"}],"stateMutability":"view"},{"type":"function","name":"markMatchStalled","inputs":[{"name":"matchId","type":"bytes32","internalType":"bytes32"},{"name":"tierId","type":"uint8","internalType":"uint8"},{"name":"timeoutOccurredAt","type":"uint256","internalType":"uint256"}],"outputs":[],"stateMutability":"nonpayable"},{"type":"function","name":"matchTimeouts","inputs":[{"name":"","type":"bytes32","internalType":"bytes32"}],"outputs":[{"name":"escalation1Start","type":"uint256","internalType":"uint256"},{"name":"escalation2Start","type":"uint256","internalType":"uint256"},{"name":"activeEscalation","type":"uint8","internalType":"enum ETour_Storage.EscalationLevel"},{"name":"isStalled","type":"bool","internalType":"bool"}],"stateMutability":"view"},{"type":"function","name":"matches","inputs":[{"name":"","type":"bytes32","internalType":"bytes32"}],"outputs":[{"name":"player1","type":"address","internalType":"address"},{"name":"player2","type":"address","internalType":"address"},{"name":"winner","type":"address","internalType":"address"},{"name":"currentTurn","type":"address","internalType":"address"},{"name":"firstPlayer","type":"address","internalType":"address"},{"name":"status","type":"uint8","internalType":"enum ETour_Storage.MatchStatus"},{"name":"isDraw","type":"bool","internalType":"bool"},{"name":"packedBoard","type":"uint256","internalType":"uint256"},{"name":"packedState","type":"uint256","internalType":"uint256"},{"name":"startTime","type":"uint256","internalType":"uint256"},{"name":"lastMoveTime","type":"uint256","internalType":"uint256"},{"name":"player1TimeRemaining","type":"uint256","internalType":"uint256"},{"name":"player2TimeRemaining","type":"uint256","internalType":"uint256"},{"name":"moves","type":"string","internalType":"string"}],"stateMutability":"view"},{"type":"function","name":"owner","inputs":[],"outputs":[{"name":"","type":"address","internalType":"address"}],"stateMutability":"view"},{"type":"function","name":"playerActiveMatches","inputs":[{"name":"","type":"address","internalType":"address"},{"name":"","type":"uint256","internalType":"uint256"}],"outputs":[{"name":"","type":"bytes32","internalType":"bytes32"}],"stateMutability":"view"},{"type":"function","name":"playerActiveTournaments","inputs":[{"name":"","type":"address","internalType":"address"},{"name":"","type":"uint256","internalType":"uint256"}],"outputs":[{"name":"tierId","type":"uint8","internalType":"uint8"},{"name":"instanceId","type":"uint8","internalType":"uint8"}],"stateMutability":"view"},{"type":"function","name":"playerEarnings","inputs":[{"name":"","type":"address","internalType":"address"}],"outputs":[{"name":"","type":"int256","internalType":"int256"}],"stateMutability":"view"},{"type":"function","name":"playerEnrollingTournaments","inputs":[{"name":"","type":"address","internalType":"address"},{"name":"","type":"uint256","internalType":"uint256"}],"outputs":[{"name":"tierId","type":"uint8","internalType":"uint8"},{"name":"instanceId","type":"uint8","internalType":"uint8"}],"stateMutability":"view"},{"type":"function","name":"playerMatchIndex","inputs":[{"name":"","type":"address","internalType":"address"},{"name":"","type":"bytes32","internalType":"bytes32"}],"outputs":[{"name":"","type":"uint256","internalType":"uint256"}],"stateMutability":"view"},{"type":"function","name":"playerPrizes","inputs":[{"name":"","type":"uint8","internalType":"uint8"},{"name":"","type":"uint8","internalType":"uint8"},{"name":"","type":"address","internalType":"address"}],"outputs":[{"name":"","type":"uint256","internalType":"uint256"}],"stateMutability":"view"},{"type":"function","name":"playerRanking","inputs":[{"name":"","type":"uint8","internalType":"uint8"},{"name":"","type":"uint8","internalType":"uint8"},{"name":"","type":"address","internalType":"address"}],"outputs":[{"name":"","type":"uint8","internalType":"uint8"}],"stateMutability":"view"},{"type":"function","name":"raffleResults","inputs":[{"name":"","type":"uint256","internalType":"uint256"}],"outputs":[{"name":"executor","type":"address","internalType":"address"},{"name":"timestamp","type":"uint256","internalType":"uint256"},{"name":"rafflePot","type":"uint256","internalType":"uint256"},{"name":"winner","type":"address","internalType":"address"},{"name":"winnerPrize","type":"uint256","internalType":"uint256"},{"name":"protocolReserve","type":"uint256","internalType":"uint256"},{"name":"ownerShare","type":"uint256","internalType":"uint256"}],"stateMutability":"view"},{"type":"function","name":"rounds","inputs":[{"name":"","type":"uint8","internalType":"uint8"},{"name":"","type":"uint8","internalType":"uint8"},{"name":"","type":"uint8","internalType":"uint8"}],"outputs":[{"name":"totalMatches","type":"uint8","internalType":"uint8"},{"name":"completedMatches","type":"uint8","internalType":"uint8"},{"name":"initialized","type":"bool","internalType":"bool"},{"name":"drawCount","type":"uint8","internalType":"uint8"}],"stateMutability":"view"},{"type":"function","name":"tierCount","inputs":[],"outputs":[{"name":"","type":"uint8","internalType":"uint8"}],"stateMutability":"view"},{"type":"function","name":"tournaments","inputs":[{"name":"","type":"uint8","internalType":"uint8"},{"name":"","type":"uint8","internalType":"uint8"}],"outputs":[{"name":"tierId","type":"uint8","internalType":"uint8"},{"name":"instanceId","type":"uint8","internalType":"uint8"},{"name":"status","type":"uint8","internalType":"enum ETour_Storage.TournamentStatus"},{"name":"currentRound","type":"uint8","internalType":"uint8"},{"name":"enrolledCount","type":"uint8","internalType":"uint8"},{"name":"prizePool","type":"uint256","internalType":"uint256"},{"name":"startTime","type":"uint256","internalType":"uint256"},{"name":"winner","type":"address","internalType":"address"},{"name":"finalsWasDraw","type":"bool","internalType":"bool"},{"name":"allDrawResolution","type":"bool","internalType":"bool"},{"name":"allDrawRound","type":"uint8","internalType":"uint8"},{"name":"completionReason","type":"uint8","internalType":"enum ETour_Storage.CompletionReason"},{"name":"enrollmentTimeout","type":"tuple","internalType":"struct ETour_Storage.EnrollmentTimeoutState","components":[{"name":"escalation1Start","type":"uint256","internalType":"uint256"},{"name":"escalation2Start","type":"uint256","internalType":"uint256"},{"name":"activeEscalation","type":"uint8","internalType":"enum ETour_Storage.EscalationLevel"},{"name":"forfeitPool","type":"uint256","internalType":"uint256"}]}],"stateMutability":"view"},{"type":"event","name":"MatchCompleted","inputs":[{"name":"matchId","type":"bytes32","indexed":true,"internalType":"bytes32"},{"name":"player1","type":"address","indexed":true,"internalType":"address"},{"name":"player2","type":"address","indexed":true,"internalType":"address"},{"name":"winner","type":"address","indexed":false,"internalType":"address"},{"name":"isDraw","type":"bool","indexed":false,"internalType":"bool"},{"name":"reason","type":"uint8","indexed":false,"internalType":"enum ETour_Storage.CompletionReason"},{"name":"board","type":"uint256","indexed":false,"internalType":"uint256"}],"anonymous":false},{"type":"event","name":"ProtocolRaffleExecuted","inputs":[{"name":"raffleIndex","type":"uint256","indexed":true,"internalType":"uint256"},{"name":"winner","type":"address","indexed":true,"internalType":"address"},{"name":"caller","type":"address","indexed":true,"internalType":"address"},{"name":"raffleAmount","type":"uint256","indexed":false,"internalType":"uint256"},{"name":"ownerShare","type":"uint256","indexed":false,"internalType":"uint256"},{"name":"winnerShare","type":"uint256","indexed":false,"internalType":"uint256"},{"name":"remainingReserve","type":"uint256","indexed":false,"internalType":"uint256"},{"name":"winnerEnrollmentCount","type":"uint256","indexed":false,"internalType":"uint256"}],"anonymous":false},{"type":"event","name":"TournamentCompleted","inputs":[{"name":"tierId","type":"uint8","indexed":true,"internalType":"uint8"},{"name":"instanceId","type":"uint8","indexed":true,"internalType":"uint8"},{"name":"winner","type":"address","indexed":false,"internalType":"address"},{"name":"prizeAmount","type":"uint256","indexed":false,"internalType":"uint256"},{"name":"reason","type":"uint8","indexed":false,"internalType":"enum ETour_Storage.CompletionReason"},{"name":"enrolledPlayers","type":"address[]","indexed":false,"internalType":"address[]"}],"anonymous":false},{"type":"event","name":"Transfer","inputs":[{"name":"from","type":"address","indexed":true,"internalType":"address"},{"name":"to","type":"address","indexed":true,"internalType":"address"},{"name":"value","type":"uint256","indexed":false,"internalType":"uint256"}],"anonymous":false},{"type":"error","name":"ReentrancyGuardReentrantCall","inputs":[]}],"bytecode":{"object":"0x6101406040523461007c576100126100c4565b61001a610081565b6183006101b98239608051818181611db701528181615359015261560e015260a051816127cc015260c0518181816113d80152615703015260e051816114ac0152610100518181816123b401526141f101526101205181611e10015261830090f35b610087565b60405190565b5f80fd5b90565b60018060a01b031690565b90565b6100b06100ab6100b59261008b565b610099565b61008e565b90565b6100c19061009c565b90565b6100fb6100d05f6100b8565b6100d95f6100b8565b6100e25f6100b8565b6100eb5f6100b8565b916100f55f6100b8565b936100fd565b565b6101056101a5565b336101205260805260a05260c05260e05261010052565b90565b90565b61013661013161013b9261011c565b610099565b61011f565b90565b6101486001610122565b90565b5f1b90565b9061015c5f199161014b565b9181191691161790565b61017a61017561017f9261011f565b610099565b61011f565b90565b90565b9061019a6101956101a192610166565b610182565b8254610150565b9055565b6101b66101b061013e565b5f610185565b56fe60806040526004361015610013575b612cac565b61001d5f356103dc565b80630300e0b9146103d757806319602c21146103d25780631ec3b8ad146103cd5780631f916aca146103c857806323a3757b146103c3578063273e3475146103be5780632ad7e3bf146103b95780632f26185d146103b457806331449074146103af57806332e7c6aa146103aa5780633475bd53146103a5578063367639e2146103a05780633751d19f1461039b5780633845753f1461039657806340861c1d14610391578063414a488a1461038c57806343bd18a2146103875780634d9d16111461038257806358f975f31461037d5780635a3db19f146103785780635d657cb114610373578063631039c71461036e57806365e12b1414610369578063685f1b121461036457806369f927731461035f5780636b9be2c91461035a5780636d763a6e1461035557806375da743d14610350578063766d1fca1461034b5780637ba49c7e146103465780637f515802146103415780638166f6b21461033c5780638238353514610337578063847a5e991461033257806387d416081461032d5780638da5cb5b14610328578063928220471461032357806395dd91761461031e57806396b55f7d1461031957806397556f67146103145780639fe9ada31461030f578063a03fa4e21461030a578063a401a22314610305578063a5cd19da14610300578063b3c28459146102fb578063bb0d10b5146102f6578063c6c2d69c146102f1578063c718d0e5146102ec578063c743c0a8146102e7578063cd47b9a9146102e2578063d3f525dc146102dd578063d893088d146102d8578063e1f1c4a7146102d3578063e545f486146102ce578063e6c455f5146102c9578063ea2b1d73146102c4578063ed96ffdf146102bf578063eed9a268146102ba578063f4df7cf0146102b55763f4ed17430361000e57612c77565b612c24565b612b8d565b612a64565b612a30565b612a06565b6129cd565b612875565b612823565b6127ee565b612795565b612729565b6126f4565b6125fb565b612558565b6124a5565b61241a565b6123d6565b61237e565b6122fc565b611fb9565b611f50565b611f0d565b611e9e565b611e32565b611dd9565b611d80565b611d4b565b611cd4565b611c34565b611c01565b611bc8565b611ac5565b6119e8565b6118e3565b611879565b6117a8565b61166f565b611604565b6115ce565b6114ce565b611490565b611444565b61140f565b61138e565b611293565b61113e565b6110df565b61107b565b611045565b610f3d565b610dba565b610d81565b610d1a565b610c7d565b610c14565b610b65565b61053f565b6104de565b610458565b60e01c90565b60405190565b5f80fd5b5f80fd5b60ff1690565b6103ff816103f0565b0361040657565b5f80fd5b90503590610417826103f6565b565b909160608284031261044e5761044b610434845f850161040a565b93610442816020860161040a565b9360400161040a565b90565b6103ec565b5f0190565b3461046e57610468366004610419565b91612d09565b6103e8565b90565b61047f81610473565b0361048657565b5f80fd5b9050359061049782610476565b565b906020828203126104b2576104af915f0161048a565b90565b6103ec565b151590565b6104c5906104b7565b9052565b91906104dc905f602085019401906104bc565b565b346104f3576104ee366004610499565b612d2f565b6103e8565b60018060a01b031690565b61050c906104f8565b90565b61051890610503565b9052565b91602061053d92949361053660408201965f83019061050f565b019061050f565b565b3461057057610557610552366004610499565b612d61565b9061056c6105636103e2565b9283928361051c565b0390f35b6103e8565b919060408382031261059d578061059161059a925f860161040a565b9360200161040a565b90565b6103ec565b90565b6105b96105b46105be926103f0565b6105a2565b6103f0565b90565b906105cb906105a5565b5f5260205260405f2090565b906105e1906105a5565b5f5260205260405f2090565b5f1c90565b60ff1690565b610604610609916105ed565b6105f2565b90565b61061690546105f8565b90565b60081c90565b61062b61063091610619565b6105f2565b90565b61063d905461061f565b90565b60101c90565b60ff1690565b61065861065d91610640565b610646565b90565b61066a905461064c565b90565b60181c90565b61067f6106849161066d565b6105f2565b90565b6106919054610673565b90565b60201c90565b6106a66106ab91610694565b6105f2565b90565b6106b8905461069a565b90565b90565b6106ca6106cf916105ed565b6106bb565b90565b6106dc90546106be565b90565b60018060a01b031690565b6106f66106fb916105ed565b6106df565b90565b61070890546106ea565b90565b60a01c90565b60ff1690565b6107236107289161070b565b610711565b90565b6107359054610717565b90565b60a81c90565b61074a61074f91610738565b610711565b90565b61075c905461073e565b90565b60b01c90565b6107716107769161075f565b6105f2565b90565b6107839054610765565b90565b60b81c90565b60ff1690565b61079e6107a391610786565b61078c565b90565b6107b09054610792565b90565b90565b906107c0906107b3565b9052565b60ff1690565b6107d66107db916105ed565b6107c4565b90565b6107e890546107ca565b90565b634e487b7160e01b5f52602160045260245ffd5b6004111561080957565b6107eb565b90610818826107ff565b565b906108249061080e565b9052565b601f801991011690565b634e487b7160e01b5f52604160045260245ffd5b9061085090610828565b810190811067ffffffffffffffff82111761086a57604052565b610832565b9061088261087b6103e2565b9283610846565b565b61088e608061086f565b90565b906108f86108ef60036108a2610884565b946108b96108b15f83016106d2565b5f88016107b6565b6108d16108c8600183016106d2565b602088016107b6565b6108e96108e0600283016107de565b6040880161081a565b016106d2565b606084016107b6565b565b9061090961090e9260086105c1565b6105d7565b6109195f820161060c565b916109255f8301610633565b916109315f8201610660565b9161093d5f8301610687565b916109495f82016106ae565b91610956600183016106d2565b91610963600282016106d2565b91610970600383016106fe565b9161097d6003820161072b565b9161098a60038301610752565b9161099760038201610779565b916109b060046109a9600385016107a6565b9301610891565b90565b6109bc906103f0565b9052565b600311156109ca57565b6107eb565b906109d9826109c0565b565b6109e4906109cf565b90565b6109f0906109db565b9052565b6109fd906107b3565b9052565b60061115610a0b57565b6107eb565b90610a1a82610a01565b565b610a2590610a10565b90565b610a3190610a1c565b9052565b610a3e906107b3565b9052565b610a4b9061080e565b90565b610a5790610a42565b9052565b90606080610aa193610a735f8201515f860190610a35565b610a8560208201516020860190610a35565b610a9760408201516040860190610a4e565b0151910190610a35565b565b9a98969492909d9c9b99979593916102008c019e5f8d01610ac3916109b3565b60208c01610ad0916109b3565b60408b01610add916109e7565b60608a01610aea916109b3565b60808901610af7916109b3565b60a08801610b04916109f4565b60c08701610b11916109f4565b60e08601610b1e9161050f565b6101008501610b2c916104bc565b6101208401610b3a916104bc565b6101408301610b48916109b3565b6101608201610b5691610a28565b61018001610b6391610a5b565b565b34610ba657610ba2610b81610b7b366004610575565b906108fa565b99610b999d9b9d9991999892989793979694966103e2565b9d8e9d8e610aa3565b0390f35b6103e8565b610bb481610503565b03610bbb57565b5f80fd5b90503590610bcc82610bab565b565b608081830312610c0f57610be4825f830161040a565b92610c0c610bf5846020850161040a565b93610c03816040860161040a565b93606001610bbf565b90565b6103ec565b34610c4657610c30610c27366004610bce565b92919091612f22565b610c386103e2565b80610c4281610453565b0390f35b6103e8565b604090610c74610c7b9496959396610c6a60608401985f8501906109b3565b60208301906109b3565b01906104bc565b565b34610cb157610cad610c99610c93366004610419565b91613025565b610ca49391936103e2565b93849384610c4b565b0390f35b6103e8565b909160c082840312610d1557610cce835f840161040a565b92610cdc816020850161040a565b92610cea826040830161040a565b92610d12610cfb846060850161040a565b93610d098160808601610bbf565b9360a001610bbf565b90565b6103ec565b34610d3657610d2a366004610cb6565b9493909392919261308e565b6103e8565b608081830312610d7c57610d51825f830161040a565b92610d79610d62846020850161040a565b93610d70816040860161040a565b9360600161040a565b90565b6103ec565b34610db557610db1610da0610d97366004610d3b565b92919091613128565b610da86103e2565b918291826104c9565b0390f35b6103e8565b34610dee57610dea610dd9610dd0366004610bce565b9291909161348e565b610de16103e2565b918291826104c9565b0390f35b6103e8565b610dfc816107b3565b03610e0357565b5f80fd5b90503590610e1482610df3565b565b9190604083820312610e3e5780610e32610e3b925f8601610bbf565b93602001610e07565b90565b6103ec565b610e57610e52610e5c926104f8565b6105a2565b6104f8565b90565b610e6890610e43565b90565b610e7490610e5f565b90565b90610e8190610e6b565b5f5260205260405f2090565b634e487b7160e01b5f52603260045260245ffd5b5490565b5f5260205f2090565b610eb781610ea1565b821015610ed157610ec9600191610ea5565b910201905f90565b610e8d565b610ee1906018610e77565b90610eeb82610ea1565b811015610f1657610efb91610eae565b5090610f135f610f0c81850161060c565b9301610633565b90565b5f80fd5b916020610f3b929493610f3460408201965f8301906109b3565b01906109b3565b565b34610f6f57610f56610f50366004610e16565b90610ed6565b90610f6b610f626103e2565b92839283610f1a565b0390f35b6103e8565b9091606082840312610fa957610fa6610f8f845f850161040a565b93610f9d816020860161040a565b93604001610bbf565b90565b6103ec565b90610fb8906105a5565b5f5260205260405f2090565b90610fce906105a5565b5f5260205260405f2090565b90610fe490610e6b565b5f5260205260405f2090565b1c90565b6110049060086110099302610ff0565b610711565b90565b906110179154610ff4565b90565b906110429261103861103d92611033600a955f96610fae565b610fc4565b610fda565b61100c565b90565b346110765761107261106161105b366004610f74565b9161101a565b6110696103e2565b918291826104c9565b0390f35b6103e8565b346110ad5761109761108e366004610d3b565b92919091613a7d565b61109f6103e2565b806110a981610453565b0390f35b6103e8565b91906040838203126110da57806110ce6110d7925f860161048a565b9360200161040a565b90565b6103ec565b346110f5576110ef3660046110b2565b90613b6f565b6103e8565b611105906016610e77565b9061110f82610ea1565b81101561113a5761111f91610eae565b50906111375f61113081850161060c565b9301610633565b90565b5f80fd5b3461117057611157611151366004610e16565b906110fa565b9061116c6111636103e2565b92839283610f1a565b0390f35b6103e8565b9060208282031261118e5761118b915f01610e07565b90565b6103ec565b6111a76111a26111ac926107b3565b6105a2565b6107b3565b90565b906111b990611193565b5f5260205260405f2090565b6111d09060076111af565b6111db5f82016106fe565b916111e8600183016106d2565b916111f5600282016106d2565b91611202600583016106fe565b9161120f600682016106d2565b916112286008611221600785016106d2565b93016106d2565b90565b949290979695939160e08601985f87016112449161050f565b60208601611251916109f4565b6040850161125e916109f4565b6060840161126b9161050f565b60808301611278916109f4565b60a08201611285916109f4565b60c001611291916109f4565b565b346112ca576112c66112ae6112a9366004611175565b6111c5565b936112bd9795979391936103e2565b9788978861122b565b0390f35b6103e8565b919060a083820312611320576112e7815f850161040a565b926112f5826020830161040a565b9261131d611306846040850161040a565b93611314816060860161040a565b93608001610bbf565b90565b6103ec565b9061132f906105a5565b5f5260205260405f2090565b90611345906105a5565b5f5260205260405f2090565b926113819061137c6113869461137761138b98956113726010995f9a611325565b61133b565b610fae565b610fc4565b610fda565b61100c565b90565b346113c2576113be6113ad6113a43660046112cf565b93929092611351565b6113b56103e2565b918291826104c9565b0390f35b6103e8565b5f9103126113d157565b6103ec565b7f000000000000000000000000000000000000000000000000000000000000000090565b919061140d905f6020850194019061050f565b565b3461143f5761141f3660046113c7565b61143b61142a6113d6565b6114326103e2565b918291826113fa565b0390f35b6103e8565b3461147657611460611457366004610d3b565b92919091613c95565b6114686103e2565b8061147281610453565b0390f35b6103e8565b919061148e905f602085019401906109f4565b565b346114a5576114a03660046113c7565b613d7d565b6103e8565b7f000000000000000000000000000000000000000000000000000000000000000090565b346114fe576114de3660046113c7565b6114fa6114e96114aa565b6114f16103e2565b918291826113fa565b0390f35b6103e8565b9061150d90610e6b565b5f5260205260405f2090565b5490565b5f5260205f2090565b61152f81611519565b8210156115495761154160019161151d565b910201905f90565b610e8d565b90565b6115619060086115669302610ff0565b61154e565b90565b906115749154611551565b90565b61158290600c611503565b61158b81611519565b8210156115a8576115a59161159f91611526565b90611569565b90565b5f80fd5b6115b590610473565b9052565b91906115cc905f602085019401906115ac565b565b346115ff576115fb6115ea6115e4366004610e16565b90611577565b6115f26103e2565b918291826115b9565b0390f35b6103e8565b3461161d57611614366004610d3b565b929190916142ab565b6103e8565b9095949261166d9461165c6116669261165260809661164860a088019c5f8901906109e7565b60208701906109b3565b60408501906109b3565b60608301906109f4565b019061050f565b565b346116a4576116a061168b611685366004610575565b906142b4565b916116979593956103e2565b95869586611622565b0390f35b6103e8565b90916060828403126116de576116db6116c4845f850161040a565b936116d2816020860161040a565b93604001610e07565b90565b6103ec565b906116ed906105a5565b5f5260205260405f2090565b90611703906105a5565b5f5260205260405f2090565b5490565b5f5260205f2090565b6117258161170f565b82101561173f57611737600191611713565b910201905f90565b610e8d565b6117549060086117599302610ff0565b6106df565b90565b906117679154611744565b90565b9061177961177e9260096116e3565b6116f9565b6117878161170f565b8210156117a4576117a19161179b9161171c565b9061175c565b90565b5f80fd5b346117d9576117d56117c46117be3660046116a9565b9161176a565b6117cc6103e2565b918291826113fa565b0390f35b6103e8565b906020828203126117f7576117f4915f01610bbf565b90565b6103ec565b9061180690610e6b565b5f5260205260405f2090565b90565b61182590600861182a9302610ff0565b611812565b90565b906118389154611815565b90565b6118519061184c6011915f926117fc565b61182d565b90565b90565b61186090611854565b9052565b9190611877905f60208501940190611857565b565b346118a9576118a561189461188f3660046117de565b61183b565b61189c6103e2565b91829182611864565b0390f35b6103e8565b6118be9060086118c39302610ff0565b6106bb565b90565b906118d191546118ae565b90565b6118e060035f906118c6565b90565b34611913576118f33660046113c7565b61190f6118fe6118d4565b6119066103e2565b9182918261147b565b0390f35b6103e8565b5190565b60209181520190565b60200190565b61193490610503565b9052565b61194190611854565b9052565b906020806119679361195d5f8201515f86019061192b565b0151910190611938565b565b9061197681604093611945565b0190565b60200190565b9061199d61199761199084611918565b809361191c565b92611925565b905f5b8181106119ad5750505090565b9091926119c66119c06001928651611969565b9461197a565b91019190916119a0565b6119e59160208201915f818403910152611980565b90565b34611a18576119f83660046113c7565b611a14611a036144a0565b611a0b6103e2565b918291826119d0565b0390f35b6103e8565b90611a27906105a5565b5f5260205260405f2090565b90611a3d906105a5565b5f5260205260405f2090565b90611a5390610e6b565b5f5260205260405f2090565b611a6f906008611a749302610ff0565b6105f2565b90565b90611a829154611a5f565b90565b90611aad92611aa3611aa892611a9e600e955f96611a1d565b611a33565b611a49565b611a77565b90565b9190611ac3905f602085019401906109b3565b565b34611af657611af2611ae1611adb366004610f74565b91611a85565b611ae96103e2565b91829182611ab0565b0390f35b6103e8565b611b0490610473565b90565b90611b1190611afb565b5f5260205260405f2090565b611b29611b2e91610619565b610711565b90565b611b3b9054611b1d565b90565b611b49906014611b07565b90611b555f83016106d2565b91611b62600182016106d2565b91611b7a6002611b738185016107de565b9301611b31565b90565b611b8690610a42565b9052565b611bbf611bc694611bb5606094989795611bab608086019a5f8701906109f4565b60208501906109f4565b6040830190611b7d565b01906104bc565b565b34611bfc57611bf8611be3611bde366004610499565b611b3e565b90611bef9492946103e2565b94859485611b8a565b0390f35b6103e8565b34611c2f57611c19611c14366004610499565b6145f3565b611c216103e2565b80611c2b81610453565b0390f35b6103e8565b34611c4957611c44366004610499565b61464b565b6103e8565b9694929099989795939161012088019a5f8901611c6a916109f4565b60208801611c77916104bc565b60408701611c84916109f4565b60608601611c91916109f4565b60808501611c9e916109f4565b60a08401611cab916109f4565b60c08301611cb8916109f4565b60e08201611cc5916109f4565b61010001611cd2916109f4565b565b34611d0e57611ce43660046113c7565b611d0a611cef614737565b95611d019997999591959492946103e2565b998a998a611c4e565b0390f35b6103e8565b90565b611d2a611d25611d2f92611d13565b6105a2565b6107b3565b90565b611d3d612328611d16565b90565b611d48611d32565b90565b34611d7b57611d5b3660046113c7565b611d77611d66611d40565b611d6e6103e2565b9182918261147b565b0390f35b6103e8565b34611db057611d903660046113c7565b611dac611d9b61484d565b611da36103e2565b91829182611864565b0390f35b6103e8565b7f000000000000000000000000000000000000000000000000000000000000000090565b34611e0957611de93660046113c7565b611e05611df4611db5565b611dfc6103e2565b918291826113fa565b0390f35b6103e8565b7f000000000000000000000000000000000000000000000000000000000000000090565b34611e6257611e423660046113c7565b611e5e611e4d611e0e565b611e556103e2565b918291826113fa565b0390f35b6103e8565b90565b611e7e611e79611e8392611e67565b6105a2565b6107b3565b90565b611e9060fa611e6a565b90565b611e9b611e86565b90565b34611ece57611eae3660046113c7565b611eca611eb9611e93565b611ec16103e2565b9182918261147b565b0390f35b6103e8565b9091606082840312611f0857611f05611eee845f850161048a565b93611efc816020860161040a565b93604001610bbf565b90565b6103ec565b34611f3c57611f26611f20366004611ed3565b916148ab565b611f2e6103e2565b80611f3881610453565b0390f35b6103e8565b611f4d60015f90611a77565b90565b34611f8057611f603660046113c7565b611f7c611f6b611f41565b611f736103e2565b91829182611ab0565b0390f35b6103e8565b60031115611f8f57565b6107eb565b90611f9e82611f85565b565b611fa990611f94565b90565b611fb590611fa0565b9052565b34611fce57611fc9366004610499565b6148fd565b6103e8565b90611fdd90611afb565b5f5260205260405f2090565b60ff1690565b611ffb6120009161070b565b611fe9565b90565b61200d9054611fef565b90565b634e487b7160e01b5f52602260045260245ffd5b9060016002830492168015612044575b602083101461203f57565b612010565b91607f1691612034565b60209181520190565b5f5260205f2090565b905f929180549061207a61207383612024565b809461204e565b916001811690815f146120d15750600114612095575b505050565b6120a29192939450612057565b915f925b8184106120b957505001905f8080612090565b600181602092959395548486015201910192906120a6565b92949550505060ff19168252151560200201905f8080612090565b906120f691612060565b90565b90612119612112926121096103e2565b938480926120ec565b0383610846565b565b612126906015611fd3565b906121325f83016106fe565b9161213f600182016106fe565b9161214c600283016106fe565b91612159600382016106fe565b91612166600483016106fe565b9161217360048201612003565b9161218060048301610752565b9161218d600582016106d2565b9161219a600683016106d2565b916121a7600782016106d2565b916121b4600883016106d2565b916121c1600982016106d2565b916121da600b6121d3600a85016106d2565b93016120f9565b90565b5190565b60209181520190565b90825f9392825e0152565b61221461221d6020936122229361220b816121dd565b938480936121e1565b958691016121ea565b610828565b0190565b9c9a9896949290918d9c9a989694926101c08e019e5f016122469161050f565b60208d016122539161050f565b60408c016122609161050f565b60608b0161226d9161050f565b60808a0161227a9161050f565b60a0890161228791611fac565b60c08801612294916104bc565b60e087016122a1916109f4565b61010086016122af916109f4565b61012085016122bd916109f4565b61014084016122cb916109f4565b61016083016122d9916109f4565b61018082016122e7916109f4565b808203906101a001526122f9916121f5565b90565b3461233f5761233b612317612312366004610499565b61211b565b9a6123329e9c9e9a919a9992999893989794979695966103e2565b9e8f9e8f612226565b0390f35b6103e8565b90916060828403126123795761237661235f845f850161048a565b9361236d816020860161040a565b93604001610e07565b90565b6103ec565b346123ad57612397612391366004612344565b9161493a565b61239f6103e2565b806123a981610453565b0390f35b6103e8565b7f000000000000000000000000000000000000000000000000000000000000000090565b34612406576123e63660046113c7565b6124026123f16123b2565b6123f96103e2565b918291826113fa565b0390f35b6103e8565b61241760045f906118c6565b90565b3461244a5761242a3660046113c7565b61244661243561240b565b61243d6103e2565b9182918261147b565b0390f35b6103e8565b919060a0838203126124a057612467815f850161048a565b92612475826020830161040a565b9261249d612486846040850161040a565b93612494816060860161040a565b9360800161040a565b90565b6103ec565b346124d9576124d56124c46124bb36600461244f565b93929092614bfb565b6124cc6103e2565b918291826104c9565b0390f35b6103e8565b919060408382031261250657806124fa612503925f8601610bbf565b9360200161048a565b90565b6103ec565b9061251590610e6b565b5f5260205260405f2090565b9061252b90611afb565b5f5260205260405f2090565b6125506125559261254b600d935f9461250b565b612521565b6118c6565b90565b346125895761258561257461256e3660046124de565b90612537565b61257c6103e2565b9182918261147b565b0390f35b6103e8565b90612598906105a5565b5f5260205260405f2090565b906125ae906105a5565b5f5260205260405f2090565b906125c490610e6b565b5f5260205260405f2090565b906125f8926125ee6125f3926125e9600f955f9661258e565b6125a4565b6125ba565b6118c6565b90565b3461262c57612628612617612611366004610f74565b916125d0565b61261f6103e2565b9182918261147b565b0390f35b6103e8565b5190565b60209181520190565b60200190565b61264d906103f0565b9052565b90602080612673936126695f8201515f860190612644565b0151910190612644565b565b9061268281604093612651565b0190565b60200190565b906126a96126a361269c84612631565b8093612635565b9261263e565b905f5b8181106126b95750505090565b9091926126d26126cc6001928651612675565b94612686565b91019190916126ac565b6126f19160208201915f81840391015261268c565b90565b346127245761272061270f61270a3660046117de565b614f52565b6127176103e2565b918291826126dc565b0390f35b6103e8565b346127595761275561274461273f3660046117de565b614f71565b61274c6103e2565b918291826126dc565b0390f35b6103e8565b90565b61277561277061277a9261275e565b6105a2565b6103f0565b90565b61278760ff612761565b90565b61279261277d565b90565b346127c5576127a53660046113c7565b6127c16127b061278a565b6127b86103e2565b91829182611ab0565b0390f35b6103e8565b7f000000000000000000000000000000000000000000000000000000000000000090565b3461281e576127fe3660046113c7565b61281a6128096127ca565b6128116103e2565b918291826113fa565b0390f35b6103e8565b3461283857612833366004610499565b614f90565b6103e8565b90565b61285461284f6128599261283d565b6105a2565b6107b3565b90565b612867612710612840565b90565b61287261285c565b90565b346128a5576128853660046113c7565b6128a161289061286a565b6128986103e2565b9182918261147b565b0390f35b6103e8565b6128b390611fa0565b9052565b6128c0906104b7565b9052565b90610180806129b5936128dd5f8201515f86019061192b565b6128ef6020820151602086019061192b565b6129016040820151604086019061192b565b6129136060820151606086019061192b565b612925608082015160808601906128aa565b61293760a082015160a08601906128b7565b61294960c082015160c0860190610a35565b61295b60e082015160e0860190610a35565b61296f610100820151610100860190612644565b612983610120820151610120860190612644565b612997610140820151610140860190612644565b6129ab610160820151610160860190612644565b01519101906128b7565b565b91906129cb905f6101a085019401906128c4565b565b34612a01576129fd6129ec6129e336600461244f565b939290926150b0565b6129f46103e2565b918291826129b7565b0390f35b6103e8565b612a1a612a14366004610575565b90615329565b612a226103e2565b80612a2c81610453565b0390f35b34612a5f57612a49612a43366004610575565b906155dc565b612a516103e2565b80612a5b81610453565b0390f35b6103e8565b34612a9857612a94612a83612a7a366004610d3b565b929190916157e8565b612a8b6103e2565b918291826104c9565b0390f35b6103e8565b90612aa7906105a5565b5f5260205260405f2090565b90612abd906105a5565b5f5260205260405f2090565b90612ad3906105a5565b5f5260205260405f2090565b612aeb612af091610640565b610711565b90565b612afd9054612adf565b90565b612b1d9291612b13612b1892600b612a9d565b612ab3565b612ac9565b90612b295f830161060c565b91612b355f8201610633565b91612b4c5f612b45818501612af3565b9301610687565b90565b612b84612b8b94612b7a606094989795612b70608086019a5f8701906109b3565b60208501906109b3565b60408301906104bc565b01906109b3565b565b34612bc257612bbe612ba9612ba3366004610419565b91612b00565b90612bb59492946103e2565b94859485612b4f565b0390f35b6103e8565b612bd0816104b7565b03612bd757565b5f80fd5b90503590612be882612bc7565b565b9091606082840312612c1f57612c1c612c05845f850161048a565b93612c138160208601610bbf565b93604001612bdb565b90565b6103ec565b34612c3a57612c34366004612bea565b916159f8565b6103e8565b90565b612c56612c51612c5b92612c3f565b6105a2565b6107b3565b90565b612c696102ee612c42565b90565b612c74612c5e565b90565b34612ca757612c873660046113c7565b612ca3612c92612c6c565b612c9a6103e2565b9182918261147b565b0390f35b6103e8565b5f80fd5b5f7f4d6f64756c653a20557365204945546f757247616d6500000000000000000000910152565b612ce460166020926121e1565b612ced81612cb0565b0190565b612d069060208101905f818303910152612cd7565b90565b612d116103e2565b62461bcd60e51b815280612d2760048201612cf1565b0390fd5b5f90565b612d37612d2b565b50612d406103e2565b62461bcd60e51b815280612d5660048201612cf1565b0390fd5b5f90565b90565b612d81612d8691612d70612d5a565b50612d79612d5a565b506015611fd3565b612d5e565b90612d9e6001612d975f85016106fe565b93016106fe565b90565b90565b90612dae906105a5565b5f5260205260405f2090565b90565b5f90565b90565b612dd8612dd3612ddd92612dc1565b6105a2565b6103f0565b90565b634e487b7160e01b5f52601160045260245ffd5b612e00612e06916103f0565b916103f0565b90039060ff8211612e1357565b612de0565b612e24612e2a916103f0565b916103f0565b019060ff8211612e3657565b612de0565b90565b612e52612e4d612e5792612e3b565b6105a2565b6107b3565b90565b612e63906103f0565b60ff8111612e715760020a90565b612de0565b612e8a612e85612e8f926107b3565b6105a2565b6103f0565b90565b634e487b7160e01b5f52601260045260245ffd5b612eb2612eb8916103f0565b916103f0565b908115612ec3570490565b612e92565b612edc612ed7612ee192612e3b565b6105a2565b6103f0565b90565b5f1b90565b90612ef560ff91612ee4565b9181191691161790565b90565b90612f17612f12612f1e926105a5565b612eff565b8254612ee9565b9055565b9192612fcc612fd192612fd695612f4d612f48612f41600889906105c1565b84906105d7565b612da1565b90612f6d5f612f66612f6160028b90612da4565b612dba565b93016106ae565b91612f76612dbd565b50612fa8612fa2612f9d612f8d600886950161060c565b612f976001612dc4565b90612df4565b6103f0565b916103f0565b145f14612fd8575050612fc7612fbe6002612ec8565b5b95600e611a1d565b611a33565b611a49565b612f02565b565b61300d61301d91613007613002612ffd612fc79693612ff76001612dc4565b90612e18565b612e5a565b612e76565b90612ea6565b6130176001612dc4565b90612e18565b612fbf565b90565b9161305b613060926130566130659561303c612dbd565b50613045612dbd565b5061304e612d2b565b50600b612a9d565b612ab3565b612ac9565b613022565b906130715f830161060c565b906130885f613081818601610633565b9401612af3565b91929190565b6130966103e2565b62461bcd60e51b8152806130ac60048201612cf1565b0390fd5b90565b6130c76130c26130cc926130b0565b6105a2565b6104f8565b90565b6130d8906130b3565b90565b6130ea6130f0919392936107b3565b926107b3565b82039182116130fb57565b612de0565b90565b613112613118919392936107b3565b926107b3565b820180921161312357565b612de0565b92613131612d2b565b5061315a5f61315461314f613148600889906105c1565b86906105d7565b612da1565b01610660565b61316d61316760016109cf565b916109cf565b0361333257613180928492909192615a87565b61319461318f60158390611fd3565b612d5e565b906131a05f83016106fe565b6131ba6131b46131af5f6130cf565b610503565b91610503565b14801561330b575b613304576131dc426131d6600885016106d2565b906130db565b6131e8600384016106fe565b6132046131fe6131f95f87016106fe565b610503565b91610503565b145f146132ed5761322961322361321d600986016106d2565b5b6107b3565b916107b3565b106132e65761323c613241916014611b07565b613100565b9161325761325160028501611b31565b156104b7565b61328057505061327b61327561327060014294016106d2565b6107b3565b916107b3565b101590565b6132ce9250600360026132c06132ad60086132a66132a16132c89786612da4565b612dba565b96016106d2565b6132ba5f848801016106d2565b90613103565b9301016106d2565b90613103565b6132e16132db42926107b3565b916107b3565b101590565b5050505f90565b6132296132236132ff600a86016106d2565b61321e565b5050505f90565b5061331860048301612003565b61332b6133256001611f94565b91611f94565b14156131c2565b505050505f90565b61334661334b916105ed565b610711565b90565b613358905461333a565b90565b61336490610e5f565b90565b61337090610e43565b90565b61337c90613367565b90565b61339361338e613398926130b0565b6105a2565b6103f0565b90565b6133a4906103f0565b60ff81146133b25760010190565b612de0565b60016133c391016103f0565b90565b6133cf90610e5f565b90565b5f80fd5b60e01b90565b905051906133e982610bab565b565b905051906133f882612bc7565b565b6003111561340457565b5f80fd5b90505190613415826133fa565b565b909160608284031261344c57613449613432845f85016133dc565b9361344081602086016133eb565b93604001613408565b90565b6103ec565b6134596103e2565b3d5f823e3d90fd5b9190604083820312613489578061347d613486925f86016133dc565b936020016133dc565b90565b6103ec565b929190613499612d2b565b506134cb6134c56134c06134b96134b2600a8990610fae565b8590610fc4565b8690610fda565b61334e565b156104b7565b61383f576134e36134de9492943061335b565b613373565b916134ed5f61337f565b905b816135026134fc886103f0565b916103f0565b116136725761352f61352a61352361351c600b8590612a9d565b8690612ab3565b8490612ac9565b613022565b956135395f61337f565b5b8061355761355161354c5f8c0161060c565b6103f0565b916103f0565b101561365e576135a06060613570858888908692615a87565b613579896133c6565b6135956397556f676135896103e2565b958694859384936133d6565b8352600483016115b9565b03915afa8015613659575f8080939092613627575b5090916135cb6135c56002611f94565b91611f94565b14908161360c575b5090816135fb575b506135ee576135e9906133b7565b61353a565b5050505050505050600190565b6136069150156104b7565b5f6135db565b905061362061361a8a610503565b91610503565b145f6135d3565b91505061364b915060603d8111613652575b6136438183610846565b810190613417565b915f6135b5565b503d613639565b613451565b509161366b91965061339b565b90946134ef565b905061369c61368b61368660028490612da4565b612dba565b956136966001612dc4565b90612e18565b905b816136bc6136b66136b160088a0161060c565b6103f0565b916103f0565b1015613835576136ea6136e56136de6136d7600b8590612a9d565b8690612ab3565b8490612ac9565b613022565b956136ff6136f95f8901612af3565b156104b7565b6138295761370c5f61337f565b5b8061372a61372461371f5f8c0161060c565b6103f0565b916103f0565b1015613814576137736040613743858888908692615a87565b61374c896133c6565b613768631ec3b8ad61375c6103e2565b958694859384936133d6565b8352600483016115b9565b03915afa801561380f575f809290916137de575b5061379a6137948a610503565b91610503565b149081156137c3575b506137b6576137b1906133b7565b61370d565b5050505050505050600190565b90506137d76137d189610503565b91610503565b145f6137a3565b9050613801915060403d8111613808575b6137f98183610846565b810190613461565b905f613787565b503d6137ef565b613451565b50916138229196505b6133b7565b909461369e565b9161382291965061381d565b5050505050505f90565b505050505f90565b5f7f546f75726e616d656e74206e6f7420696e2070726f6772657373000000000000910152565b61387b601a6020926121e1565b61388481613847565b0190565b61389d9060208101905f81830391015261386e565b90565b156138a757565b6138af6103e2565b62461bcd60e51b8152806138c560048201613888565b0390fd5b5f7f4d61746368206e6f74207374616c6c6564000000000000000000000000000000910152565b6138fd60116020926121e1565b613906816138c9565b0190565b61391f9060208101905f8183039101526138f0565b90565b1561392957565b6139316103e2565b62461bcd60e51b8152806139476004820161390a565b0390fd5b5f7f4c6576656c2033206e6f74206163746976652079657400000000000000000000910152565b61397f60166020926121e1565b6139888161394b565b0190565b6139a19060208101905f818303910152613972565b90565b156139ab57565b6139b36103e2565b62461bcd60e51b8152806139c96004820161398c565b0390fd5b5f7f416476616e63656420706c61796572732063616e6e6f7420636c61696d204c33910152565b613a00602080926121e1565b613a09816139cd565b0190565b613a229060208101905f8183039101526139f4565b90565b15613a2c57565b613a346103e2565b62461bcd60e51b815280613a4a60048201613a0d565b0390fd5b613a579061080e565b90565b90565b90613a72613a6d613a7992613a4e565b613a5a565b8254612ee9565b9055565b92613b6d93929192613ac9613ab05f613aaa613aa5613a9e600887906105c1565b89906105d7565b612da1565b01610660565b613ac3613abd60016109cf565b916109cf565b146138a0565b613b62613afc613af7613ae0848888908892615a87565b613aef81868a8a918a93615ad4565b506014611b07565b613100565b613b10613b0b60028301611b31565b613922565b613b3842613b31613b2b613b26600186016106d2565b6107b3565b916107b3565b10156139a4565b613b57613b52613b4c858989903392615d39565b156104b7565b613a25565b600260039101613a5d565b929190913393616270565b565b613b776103e2565b62461bcd60e51b815280613b8d60048201612cf1565b0390fd5b5f7f4c6576656c2032206e6f74206163746976652079657400000000000000000000910152565b613bc560166020926121e1565b613bce81613b91565b0190565b613be79060208101905f818303910152613bb8565b90565b15613bf157565b613bf96103e2565b62461bcd60e51b815280613c0f60048201613bd2565b0390fd5b5f7f4e6f7420616e20616476616e63656420706c6179657200000000000000000000910152565b613c4760166020926121e1565b613c5081613c13565b0190565b613c699060208101905f818303910152613c3a565b90565b15613c7357565b613c7b6103e2565b62461bcd60e51b815280613c9160048201613c54565b0390fd5b91613d77939192613ce0613cc75f613cc1613cbc613cb5600887906105c1565b89906105d7565b612da1565b01610660565b613cda613cd460016109cf565b916109cf565b146138a0565b613d6e613d13613d0e613cf7848887908992615a87565b613d0681868a89918b93615ad4565b506014611b07565b613100565b613d27613d2260028301611b31565b613922565b613d4e42613d47613d41613d3c5f86016106d2565b6107b3565b916107b3565b1015613bea565b613d64613d5f848887903392615d39565b613c6c565b6002809101613a5d565b929091926165bc565b565b5f90565b613d85613d79565b50613d8e6103e2565b62461bcd60e51b815280613da460048201612cf1565b0390fd5b613db06167e6565b6140d9565b5f7f4d41000000000000000000000000000000000000000000000000000000000000910152565b613de960026020926121e1565b613df281613db5565b0190565b613e0b9060208101905f818303910152613ddc565b90565b15613e1557565b613e1d6103e2565b62461bcd60e51b815280613e3360048201613df6565b0390fd5b5f7f4e50000000000000000000000000000000000000000000000000000000000000910152565b613e6b60026020926121e1565b613e7481613e37565b0190565b613e8d9060208101905f818303910152613e5e565b90565b15613e9757565b613e9f6103e2565b62461bcd60e51b815280613eb560048201613e78565b0390fd5b5f7f4f54000000000000000000000000000000000000000000000000000000000000910152565b613eed60026020926121e1565b613ef681613eb9565b0190565b613f0f9060208101905f818303910152613ee0565b90565b15613f1957565b613f216103e2565b62461bcd60e51b815280613f3760048201613efa565b0390fd5b5f7f544f000000000000000000000000000000000000000000000000000000000000910152565b613f6f60026020926121e1565b613f7881613f3b565b0190565b613f919060208101905f818303910152613f62565b90565b15613f9b57565b613fa36103e2565b62461bcd60e51b815280613fb960048201613f7c565b0390fd5b604090613fe6613fed9496959396613fdc60608401985f8501906115ac565b60208301906109b3565b01906109f4565b565b67ffffffffffffffff811161400d57614009602091610828565b0190565b610832565b9061402461401f83613fef565b61086f565b918252565b606090565b3d5f146140495761403e3d614012565b903d5f602084013e5b565b614051614029565b90614047565b5f7f4d53000000000000000000000000000000000000000000000000000000000000910152565b61408b60026020926121e1565b61409481614057565b0190565b6140ad9060208101905f81830391015261407e565b90565b156140b757565b6140bf6103e2565b62461bcd60e51b8152806140d560048201614098565b0390fd5b9290926142615f806140ef848888908892615a87565b6141ef61410661410160158490611fd3565b612d5e565b61412e61411560048301612003565b6141286141226001611f94565b91611f94565b14613e0e565b3361414b6141456141408785016106fe565b610503565b91610503565b148015614281575b61415c90613e90565b6141843361417d614177614172600386016106fe565b610503565b91610503565b1415613f12565b6141e86141e26141a04261419a600886016106d2565b906130db565b926141ad600382016106fe565b6141c96141c36141be8a85016106fe565b610503565b91610503565b1487146142705760096141dc91016106d2565b5b6107b3565b916107b3565b1015613f94565b7f00000000000000000000000000000000000000000000000000000000000000009061424a869161423b426142226103e2565b94859360046020860163501fd27160e11b815201613fbd565b60208201810382520382610846565b602081019051915af461425b61402e565b506140b0565b92919033915f9360019561683c565b600a61427c91016106d2565b6141dd565b5061415c336142a361429d614298600186016106fe565b610503565b91610503565b149050614153565b613da8565b5f90565b6142fd916142f36142f8926142c76142b0565b506142d0612dbd565b506142d9612dbd565b506142e2613d79565b506142eb612d5a565b5060086105c1565b6105d7565b612da1565b906143095f8301610660565b916143155f8201610687565b926143215f83016106ae565b9261433a6003614333600186016106d2565b94016106fe565b919493929190565b606090565b67ffffffffffffffff811161435f5760208091020190565b610832565b9061437661437183614347565b61086f565b918252565b614385604061086f565b90565b5f90565b5f90565b61439861437b565b90602080836143a5614388565b8152016143b061438c565b81525050565b6143be614390565b90565b5f5b8281106143cf57505050565b6020906143da6143b6565b81840152016143c3565b906144096143f183614364565b926020806143ff8693614347565b92019103906143c1565b565b61441f61441a614424926130b0565b6105a2565b6107b3565b90565b600161443391016107b3565b90565b614442614447916105ed565b611812565b90565b6144549054614436565b90565b614461604061086f565b90565b9061446e90610503565b9052565b9061447c90611854565b9052565b9061448a82611918565b81101561449b576020809102010190565b610e8d565b6144a8614342565b506144bb6144b6601261170f565b6143e4565b6144c45f61440b565b5b806144e16144db6144d6601261170f565b6107b3565b916107b3565b101561456a576145659061455e6145036144fd6012849061171c565b9061175c565b61454b61452e614529601161452361451d6012899061171c565b9061175c565b906117fc565b61444a565b614542614539614457565b935f8501614464565b60208301614472565b8483916145588383614480565b52614480565b5150614427565b6144c5565b5090565b60081b90565b9061458161ff009161456e565b9181191691161790565b614594906104b7565b90565b90565b906145af6145aa6145b69261458b565b614597565b8254614574565b9055565b906145c65f1991612ee4565b9181191691161790565b90565b906145e86145e36145ef92611193565b6145d0565b82546145ba565b9055565b614609614604614649926014611b07565b613100565b6146165f6002830161459a565b61462a6146225f61440b565b5f83016145d3565b61463f6146365f61440b565b600183016145d3565b60025f9101613a5d565b565b614653612d2b565b5061465d81612d61565b50506148fd565b90565b61467b61467661468092614664565b6105a2565b6107b3565b90565b614692614698919392936107b3565b926107b3565b916146a48382026107b3565b9281840414901517156146b357565b612de0565b90565b6146cf6146ca6146d4926146b8565b6105a2565b6107b3565b90565b6146e36146e9916107b3565b916107b3565b9081156146f4570490565b612e92565b90565b61471061470b614715926146f9565b6105a2565b6107b3565b90565b90565b61472f61472a61473492614718565b6105a2565b6107b3565b90565b61473f613d79565b50614748612d2b565b50614751613d79565b5061475a613d79565b50614763613d79565b5061476c613d79565b50614775613d79565b5061477e613d79565b50614787613d79565b5061479260046106d2565b9061479d60036106d2565b6147a56168ad565b6147cc6147bc826147b66005614667565b90614683565b6147c660646146bb565b906146d7565b826147df6147d9846107b3565b916107b3565b1015936147ed8383906130db565b90614815614805836147ff6005614667565b90614683565b61480f605f6146fc565b906146d7565b9061483d61482d84614827605a61471b565b90614683565b614837605f6146fc565b906146d7565b9061484661698b565b90565b5f90565b614855614849565b5061486a614865601133906117fc565b61444a565b90565b9061487e60018060a01b0391612ee4565b9181191691161790565b90565b906148a061489b6148a792610e6b565b614888565b825461486d565b9055565b6148b96148be916015611fd3565b612d5e565b906148d16148cb5f61337f565b916103f0565b145f146148e7575f6148e492910161488b565b5b565b60016148f492910161488b565b6148e5565b5f90565b614905612d5a565b5061490e612d2b565b506149176148f9565b506149206103e2565b62461bcd60e51b81528061493660048201612cf1565b0390fd5b61494b614950919392936014611b07565b613100565b9061496661496060028401611b31565b156104b7565b614970575b505050565b6149f06149f99161499b614996614a039661498f60016002890161459a565b6002612da4565b612dba565b90806149af6149a95f61440b565b916107b3565b145f14614a0b57506149ea60036002425b6149e26149da826149d485808a01016106d2565b90613103565b5f8a016145d3565b9301016106d2565b90613103565b600183016145d3565b60025f9101613a5d565b5f808061496b565b600360026149ea926149c0565b614a2190610e5f565b90565b90602082820312614a3d57614a3a915f016133eb565b90565b6103ec565b5f80fd5b90505190614a5382610df3565b565b90505190614a62826103f6565b565b91906101a083820312614b7057614b6890614a806101a061086f565b93614a8d825f83016133dc565b5f860152614a9e82602083016133dc565b6020860152614ab082604083016133dc565b6040860152614ac282606083016133dc565b6060860152614ad48260808301613408565b6080860152614ae68260a083016133eb565b60a0860152614af88260c08301614a46565b60c0860152614b0a8260e08301614a46565b60e0860152614b1d826101008301614a55565b610100860152614b31826101208301614a55565b610120860152614b45826101408301614a55565b610140860152614b59826101608301614a55565b610160860152610180016133eb565b610180830152565b614a42565b906101a082820312614b8f57614b8c915f01614a64565b90565b6103ec565b90959492614bdf94614bce614bd892614bc4608096614bba60a088019c5f8901906115ac565b60208701906109b3565b60408501906109b3565b60608301906109b3565b01906109b3565b565b614beb9051611f94565b90565b614bf890516107b3565b90565b919092614c06612d2b565b50614c266002614c20614c1b60148790611b07565b613100565b01611b31565b614e5657614c3b614c3630614a18565b613373565b94614c746020614c4a886133c6565b637f51580290614c698892614c5d6103e2565b958694859384936133d6565b8352600483016115b9565b03915afa8015614e5157614c90915f91614e23575b50156104b7565b614e19576101a091614cc9614ca4886133c6565b91614cd463e545f4869188958a98919091614cbd6103e2565b998a98899788976133d6565b875260048701614b94565b03915afa908115614e14575f91614de5575b5092614cf460808501614be1565b614d07614d016001611f94565b91611f94565b03614ddd576020614d1a614d44926133c6565b6319602c2190614d398592614d2d6103e2565b958694859384936133d6565b8352600483016115b9565b03915afa908115614dd8575f91614daa575b50614d62575050505f90565b614d9c614da593614d965f6002614d8e60e0614d87614d82848b90612da4565b612dba565b9501614bee565b9301016106d2565b90613103565b90919091616be9565b600190565b614dcb915060203d8111614dd1575b614dc38183610846565b810190614a24565b5f614d56565b503d614db9565b613451565b505050505f90565b614e0791506101a03d8111614e0d575b614dff8183610846565b810190614b75565b5f614ce6565b503d614df5565b613451565b5050505050505f90565b614e44915060203d8111614e4a575b614e3c8183610846565b810190614a24565b5f614c89565b503d614e32565b613451565b5050505050600190565b606090565b67ffffffffffffffff8111614e7d5760208091020190565b610832565b90614e94614e8f83614e65565b61086f565b918252565b90614ea3906103f0565b9052565b614eb1604061086f565b90565b90614eea614ee15f614ec4614ea7565b94614edb614ed383830161060c565b838801614e99565b01610633565b60208401614e99565b565b614ef590614eb4565b90565b90614f0282610ea1565b614f0b81614e82565b92614f196020850191610ea5565b5f915b838310614f295750505050565b600160208192614f3885614eec565b815201920192019190614f1c565b614f4f90614ef8565b90565b614f69614f6e91614f61614e60565b506016610e77565b614f46565b90565b614f88614f8d91614f80614e60565b506018610e77565b614f46565b90565b614f986103e2565b62461bcd60e51b815280614fae60048201612cf1565b0390fd5b614fbd6101a061086f565b90565b5f90565b5f90565b5f90565b5f90565b602090818080808080808080808080614fe7614fb2565b9d8e614ff1614388565b815201614ffc614388565b815201615007614388565b815201615012614388565b81520161501d614fc0565b815201615028614fc4565b815201615033614fc8565b81520161503e614fc8565b815201615049614fcc565b815201615054614fcc565b81520161505f614fcc565b81520161506a614fcc565b815201615075614fc4565b81525050565b615083614fd0565b90565b6150916101a061086f565b90565b9061509e90611f94565b9052565b906150ac906104b7565b9052565b6150ca6150cf919592956150c261507b565b506015611fd3565b612d5e565b926150d95f6130cf565b926150ef6150e960048701610752565b156104b7565b80615279575b615225575b845f01615106906106fe565b9585600101615114906106fe565b9580600201615122906106fe565b958160040161513090612003565b8260040161513d90610752565b918360070161514b906106d2565b93600801615158906106d2565b94959697985f9a615167615086565b9c5f8e019061517591614464565b60208d019061518391614464565b60408c019061519191614464565b60608b019061519f91614464565b60808a01906151ad91615094565b60a08901906151bb916150a2565b60c08801906151c9916107b6565b60e08701906151d7916107b6565b6101008601906151e691614e99565b6101208501906151f591614e99565b61014084019061520491614e99565b61016083019061521391614e99565b610180820190615222916150a2565b90565b9250615233600285016106fe565b61524f6152496152445f88016106fe565b610503565b91610503565b145f1461526957615262600185016106fe565b5b926150fa565b6152745f85016106fe565b615263565b50615286600286016106fe565b6152a061529a6152955f6130cf565b610503565b91610503565b14156150f5565b5f7f4500000000000000000000000000000000000000000000000000000000000000910152565b6152db60016020926121e1565b6152e4816152a7565b0190565b6152fd9060208101905f8183039101526152ce565b90565b1561530757565b61530f6103e2565b62461bcd60e51b815280615325600482016152e8565b0390fd5b61534761534261533b600884906105c1565b84906105d7565b612da1565b6153525f8201610660565b6153c85f807f0000000000000000000000000000000000000000000000000000000000000000866153b189916153a26153896103e2565b93849260046020850163e6c455f560e01b815201610f1a565b60208201810382520382610846565b602081019051915af46153c261402e565b50615300565b6153d483853391616cc7565b6153e66153e05f6109cf565b916109cf565b149081615412575b506153f7575050565b615402818390616cd6565b9061540c5f61337f565b91612d09565b61541e91505f01610660565b61543161542b60016109cf565b916109cf565b145f6153ee565b5f7f4653000000000000000000000000000000000000000000000000000000000000910152565b61546c60026020926121e1565b61547581615438565b0190565b61548e9060208101905f81830391015261545f565b90565b1561549857565b6154a06103e2565b62461bcd60e51b8152806154b660048201615479565b0390fd5b6154ce6154c96154d392612dc1565b6105a2565b6107b3565b90565b67ffffffffffffffff81116154ee5760208091020190565b610832565b90615505615500836154d6565b61086f565b918252565b369037565b9061553461551c836154f3565b9260208061552a86936154d6565b920191039061550a565b565b5190565b9061554482615536565b811015615555576020809102010190565b610e8d565b5f7f5254000000000000000000000000000000000000000000000000000000000000910152565b61558e60026020926121e1565b6155978161555a565b0190565b6155b09060208101905f818303910152615581565b90565b156155ba57565b6155c26103e2565b62461bcd60e51b8152806155d86004820161559b565b0390fd5b906155fb6155f66155ef600885906105c1565b83906105d7565b612da1565b916156075f8401610660565b61567d5f807f000000000000000000000000000000000000000000000000000000000000000085615666889161565761563e6103e2565b93849260046020850163ea2b1d7360e01b815201610f1a565b60208201810382520382610846565b602081019051915af461567761402e565b50615491565b8061569061568a5f6109cf565b916109cf565b14806157c3575b6157a7576156ad6156a75f6109cf565b916109cf565b1480615782575b6156be575b505050565b6156cd600361577a94016106fe565b906156fc6156e36156de60016154ba565b61550f565b926156f7846156f15f61440b565b9061553a565b614464565b6157725f807f00000000000000000000000000000000000000000000000000000000000000008461575b889161574c6157336103e2565b9384926004602085016357f7cf7160e01b815201610f1a565b60208201810382520382610846565b602081019051915af461576c61402e565b506155b3565b919091616d61565b5f80806156b9565b5061578e5f8401610660565b6157a161579b60026109cf565b916109cf565b146156b4565b506157b3818390616cd6565b906157bd5f61337f565b91612d09565b506157cf5f8501610660565b6157e26157dc60016109cf565b916109cf565b14615697565b926157f1612d2b565b5061581a5f61581461580f615808600889906105c1565b86906105d7565b612da1565b01610660565b61582d61582760016109cf565b916109cf565b036159f057615840928492909192615a87565b61585461584f60158390611fd3565b612d5e565b906158605f83016106fe565b61587a61587461586f5f6130cf565b610503565b91610503565b1480156159c9575b6159c25761589c42615896600885016106d2565b906130db565b6158a8600384016106fe565b6158c46158be6158b95f87016106fe565b610503565b91610503565b145f146159ab576158e96158e36158dd600986016106d2565b5b6107b3565b916107b3565b106159a4576158fc615901916014611b07565b613100565b9161591761591160028501611b31565b156104b7565b61593f57505061593a61593461592f5f4294016106d2565b6107b3565b916107b3565b101590565b61598c925060028061597e61596b600861596461595f6159869786612da4565b612dba565b96016106d2565b6159785f848801016106d2565b90613103565b9301016106d2565b90613103565b61599f61599942926107b3565b916107b3565b101590565b5050505f90565b6158e96158e36159bd600a86016106d2565b6158de565b5050505f90565b506159d660048301612003565b6159e96159e36001611f94565b91611f94565b1415615882565b505050505f90565b615a006103e2565b62461bcd60e51b815280615a1660048201612cf1565b0390fd5b5f90565b60f81b90565b615a2d90615a1e565b90565b615a3c615a41916103f0565b615a24565b9052565b92615a716001615a7994615a698288615a61829b9a8399615a30565b018092615a30565b018092615a30565b018092615a30565b0190565b60200190565b5190565b615abe9293615aaf91615a98615a1a565b509294615aa36103e2565b95869460208601615a45565b60208201810382520382610846565b615ad0615aca82615a83565b91615a7d565b2090565b919092615adf612d2b565b50615aff6002615af9615af460148790611b07565b613100565b01611b31565b615d2f57615b14615b0f30614a18565b613373565b94615b4d6020615b23886133c6565b637f51580290615b428892615b366103e2565b958694859384936133d6565b8352600483016115b9565b03915afa8015615d2a57615b69915f91615cfc575b50156104b7565b615cf2576101a091615ba2615b7d886133c6565b91615bad63e545f4869188958a98919091615b966103e2565b998a98899788976133d6565b875260048701614b94565b03915afa908115615ced575f91615cbe575b5092615bcd60808501614be1565b615be0615bda6001611f94565b91611f94565b03615cb6576020615bf3615c1d926133c6565b6319602c2190615c128592615c066103e2565b958694859384936133d6565b8352600483016115b9565b03915afa908115615cb1575f91615c83575b50615c3b575050505f90565b615c75615c7e93615c6f5f6002615c6760e0615c60615c5b848b90612da4565b612dba565b9501614bee565b9301016106d2565b90613103565b90919091616be9565b600190565b615ca4915060203d8111615caa575b615c9c8183610846565b810190614a24565b5f615c2f565b503d615c92565b613451565b505050505f90565b615ce091506101a03d8111615ce6575b615cd88183610846565b810190614b75565b5f615bbf565b503d615cce565b613451565b5050505050505f90565b615d1d915060203d8111615d23575b615d158183610846565b810190614a24565b5f615b62565b503d615d0b565b613451565b5050505050600190565b929190615d44612d2b565b50615d76615d70615d6b615d64615d5d600a8990610fae565b8590610fc4565b8690610fda565b61334e565b156104b7565b6160ea57615d8e615d8994929430614a18565b613373565b91615d985f61337f565b905b81615dad615da7886103f0565b916103f0565b11615f1d57615dda615dd5615dce615dc7600b8590612a9d565b8690612ab3565b8490612ac9565b613022565b95615de45f61337f565b5b80615e02615dfc615df75f8c0161060c565b6103f0565b916103f0565b1015615f0957615e4b6060615e1b858888908692615a87565b615e24896133c6565b615e406397556f67615e346103e2565b958694859384936133d6565b8352600483016115b9565b03915afa8015615f04575f8080939092615ed2575b509091615e76615e706002611f94565b91611f94565b149081615eb7575b509081615ea6575b50615e9957615e94906133b7565b615de5565b5050505050505050600190565b615eb19150156104b7565b5f615e86565b9050615ecb615ec58a610503565b91610503565b145f615e7e565b915050615ef6915060603d8111615efd575b615eee8183610846565b810190613417565b915f615e60565b503d615ee4565b613451565b5091615f1691965061339b565b9094615d9a565b9050615f47615f36615f3160028490612da4565b612dba565b95615f416001612dc4565b90612e18565b905b81615f67615f61615f5c60088a0161060c565b6103f0565b916103f0565b10156160e057615f95615f90615f89615f82600b8590612a9d565b8690612ab3565b8490612ac9565b613022565b95615faa615fa45f8901612af3565b156104b7565b6160d457615fb75f61337f565b5b80615fd5615fcf615fca5f8c0161060c565b6103f0565b916103f0565b10156160bf5761601e6040615fee858888908692615a87565b615ff7896133c6565b616013631ec3b8ad6160076103e2565b958694859384936133d6565b8352600483016115b9565b03915afa80156160ba575f80929091616089575b5061604561603f8a610503565b91610503565b1490811561606e575b506160615761605c906133b7565b615fb8565b5050505050505050600190565b905061608261607c89610503565b91610503565b145f61604e565b90506160ac915060403d81116160b3575b6160a48183610846565b810190613461565b905f616032565b503d61609a565b613451565b50916160cd9196505b6133b7565b9094615f49565b916160cd9196506160c8565b5050505050505f90565b505050505f90565b5f9103126160fc57565b6103ec565b60409061612a616131949695939661612060608401985f8501906115ac565b602083019061050f565b01906104bc565b565b90565b5f5260205f2090565b5490565b61614c8161613f565b8210156161665761615e600191616136565b910201905f90565b610e8d565b1b90565b9190600861618f91029161618960018060a01b038461616b565b9261616b565b9181191691161790565b91906161af6161aa6161b793610e6b565b614888565b90835461616f565b9055565b90815491680100000000000000008310156161eb57826161e39160016161e995018155616143565b90616199565b565b610832565b9061620561620061620c9261458b565b614597565b8254612ee9565b9055565b60201b90565b9061622664ff0000000091616210565b9181191691161790565b9061624561624061624c926105a5565b612eff565b8254616216565b9055565b9061626561626061626c926105a5565b612eff565b8254614574565b9055565b916162ca94616283848484908892615a87565b9461629561629030614a18565b613373565b60406162a0826133c6565b631ec3b8ad906162bf8a926162b36103e2565b9c8d94859384936133d6565b8352600483016115b9565b03915afa80156165b7575f80999091616584575b506162ea9098916133c6565b9063f4df7cf08885935f92813b1561657f575f61631a91616325829661630e6103e2565b998a97889687956133d6565b855260048501616101565b03925af1801561657a57616484996163879361637d9261654e575b5061634f898989908492616ddf565b61635d898989908692616ddf565b616368818b90616fc1565b616373838b90616fc1565b888890889261708a565b868690869261708a565b6163b86163b26163ad6163a661639f600a8a90610fae565b8890610fc4565b8590610fda565b61334e565b156104b7565b6164b1575b6163d16163cc60028790612da4565b612dba565b6164026163fc6163f76163e7600888950161060c565b6163f16001612dc4565b90612df4565b6103f0565b916103f0565b1061649a575b505061643261642d61642661641f600b8790612a9d565b8590612ab3565b8390612ac9565b613022565b61644f5f820161644961644482610633565b61339b565b90616250565b61647661647061646b5f616464818601610633565b940161060c565b6103f0565b916103f0565b14616486575b505050617bb6565b565b6164929291909161759f565b5f808061647c565b6164aa918591858591929361715a565b5f80616408565b6164d96164d26164cd6164c6600989906116e3565b87906116f9565b616133565b83906161bb565b61650360016164fe6164f76164f0600a8a90610fae565b8890610fc4565b8590610fda565b6161f0565b61653d5f61652561652061651960088a906105c1565b88906105d7565b612da1565b01616537616532826106ae565b61339b565b90616230565b61654985858491617096565b6163bd565b61656d905f3d8111616573575b6165658183610846565b8101906160f2565b5f616340565b503d61655b565b613451565b6133d2565b6162ea99506165aa915060403d81116165b0575b6165a28183610846565b810190613461565b986162de565b503d616598565b613451565b906165cf61661694839083869192615a87565b926165e16165dc30614a18565b613373565b60406165ec826133c6565b631ec3b8ad9061660b88926165ff6103e2565b9a8b94859384936133d6565b8352600483016115b9565b03915afa80156167d4575f809790916167a1575b506166369096916133c6565b9063f4df7cf0866166465f6130cf565b935f92813b1561679c575f61666e9161667982966166626103e2565b998a97889687956133d6565b855260048501616101565b03925af1801561679757616755976166db936166d19261676b575b506166a3878787908492616ddf565b6166b1878787908692616ddf565b6166bc818990616fc1565b6166c7838990616fc1565b868690869261708a565b848490849261708a565b6167036166fe6166f76166f0600b8790612a9d565b8590612ab3565b8390612ac9565b613022565b6167205f820161671a61671582610633565b61339b565b90616250565b61674761674161673c5f616735818601610633565b940161060c565b6103f0565b916103f0565b14616757575b505050617bb6565b565b6167639291909161759f565b5f808061674d565b61678a905f3d8111616790575b6167828183610846565b8101906160f2565b5f616694565b503d616778565b613451565b6133d2565b61663697506167c7915060403d81116167cd575b6167bf8183610846565b810190613461565b9661662a565b503d6167b5565b613451565b6167e36002612e3e565b90565b6167ef5f6106d2565b6168086168026167fd6167d9565b6107b3565b916107b3565b146168205761681e6168186167d9565b5f6145d3565b565b5f633ee5aeb560e01b81528061683860048201610453565b0390fd5b90955061684d818784908692615a87565b50949091929394617cb3565b5490565b90565b61687461686f6168799261685d565b6105a2565b6107b3565b90565b5f5260205f2090565b61688e81616859565b8210156168a8576168a060019161687c565b910201905f90565b610e8d565b6168b5613d79565b506168c06005616859565b6168d26168cc5f61440b565b916107b3565b1461692f576168e160046106d2565b6168fc6168f66168f16005616859565b6107b3565b916107b3565b1061690e5761690b60066106d2565b90565b61692c616926600561692060046106d2565b90616885565b906118c6565b90565b6169406729a2241af62c0000616860565b90565b90565b61695a61695561695f92616943565b6105a2565b6107b3565b90565b61696c9051610503565b90565b616978906107b3565b5f1981146169865760010190565b612de0565b616993613d79565b506169a76169a26103e8616946565b61550f565b906169b15f61440b565b916169bb5f61337f565b5b806169d86169d26169cd600161060c565b6103f0565b916103f0565b1015616be5576169f26169ed60028390612da4565b612dba565b926169fc5f61337f565b5b80616a1a616a14616a0f5f8901610633565b6103f0565b916103f0565b1015616bd457616a3e616a39616a32600886906105c1565b83906105d7565b612da1565b616a495f8201610660565b616a5b616a555f6109cf565b916109cf565b14908115616bae575b50616a78575b616a73906133b7565b6169fd565b616a9a616a95616a8e60099895949885906116e3565b83906116f9565b616133565b90616aa45f61440b565b955b86616ac1616abb616ab68661613f565b6107b3565b916107b3565b1015616b9c57616adb616ad5848990616143565b9061175c565b935f98616ae75f61440b565b5b80616afb616af58a6107b3565b916107b3565b1015616b8d57616b14616b0f8a839061553a565b616962565b616b26616b2089610503565b91610503565b14616b3957616b3490614427565b616ae8565b50979194909850616b4c60015b156104b7565b616b63575b50616b5b90614427565b959692616aa6565b616b5b9195616b81616b8692616b7c8a9184909261553a565b614464565b61696f565b9490616b51565b509791949098616b4c90616b46565b9550616a739150959192959050616a6a565b616bba91505f01610660565b616bcd616bc760016109cf565b916109cf565b145f616a64565b509250616be0906133b7565b6169bc565b5050565b616bfa616bff919392936014611b07565b613100565b90616c15616c0f60028401611b31565b156104b7565b616c1f575b505050565b616c9f616ca891616c4a616c45616cb296616c3e60016002890161459a565b6002612da4565b612dba565b9080616c5e616c585f61440b565b916107b3565b145f14616cba5750616c9960036002425b616c91616c8982616c8385808a01016106d2565b90613103565b5f8a016145d3565b9301016106d2565b90613103565b600183016145d3565b60025f9101613a5d565b5f8080616c1a565b60036002616c9992616c6f565b90616cd492919091617df9565b565b9190616cf6616cf1616cea600986906116e3565b83906116f9565b616133565b616cff5f61440b565b5b80616d1b616d15616d108561613f565b6107b3565b916107b3565b1015616d5a57616d5590616d50616d3c616d36858490616143565b9061175c565b616d4881898891617f3b565b8786916180a3565b614427565b616d00565b5050509050565b9291616d6c5f61440b565b5b80616d88616d82616d7d85615536565b6107b3565b916107b3565b1015616dd857616dd390616db0616da8616da385849061553a565b616962565b878691617f3b565b616dce616dc6616dc185849061553a565b616962565b878691618162565b614427565b616d6d565b5050509050565b9192616e89616e8e92616e9395616e0a616e05616dfe600889906105c1565b84906105d7565b612da1565b90616e2a5f616e23616e1e60028b90612da4565b612dba565b93016106ae565b91616e33612dbd565b50616e65616e5f616e5a616e4a600886950161060c565b616e546001612dc4565b90612df4565b6103f0565b916103f0565b145f14616e95575050616e84616e7b6002612ec8565b5b95600e611a1d565b611a33565b611a49565b612f02565b565b616eca616eda91616ec4616ebf616eba616e849693616eb46001612dc4565b90612e18565b612e5a565b612e76565b90612ea6565b616ed46001612dc4565b90612e18565b616e7c565b90565b5490565b5f5260205f2090565b616ef881616ee2565b821015616f1257616f0a600191616ee6565b910201905f90565b610e8d565b91906008616f32910291616f2c5f198461616b565b9261616b565b9181191691161790565b616f45906105ed565b90565b9190616f5e616f59616f6693611afb565b616f3c565b908354616f17565b9055565b634e487b7160e01b5f52603160045260245ffd5b616f9091616f8a615a1a565b91616f48565b565b616f9b81616ee2565b8015616fbc576001900390616fb9616fb38383616eef565b90616f7e565b55565b616f6a565b616fcf616fd491600c611503565b616edf565b616fdd81616ee2565b616fe65f61440b565b5b80616ffa616ff4846107b3565b916107b3565b10156170815761701461700e848390616eef565b90611569565b61702661702086610473565b91610473565b146170395761703490614427565b616fe7565b61707e935061707361706c61706661707994617060879161705a60016154ba565b906130db565b90616eef565b90611569565b9184616eef565b90616f48565b616f92565b5b565b5050505061707f565b6170949350618162565b565b906170a3929190916180a3565b565b60101b90565b906170b962ff0000916170a5565b9181191691161790565b906170d86170d36170df9261458b565b614597565b82546170ab565b9055565b6170ef6170f5916103f0565b916103f0565b908115617100570690565b612e92565b60409061712e617135949695939661712460608401985f8501906115ac565b60208301906109b3565b019061050f565b565b91602061715892949361715160408201965f8301906115ac565b01906109b3565b565b939291906171756171d69261716f6001612dc4565b90612e18565b617189846171836002612ec8565b90612ea6565b90866171b36171ae6171a76171a0600b8590612a9d565b8790612ab3565b8490612ac9565b613022565b6171c76171c15f8301612af3565b156104b7565b6173e8575b5092909192615a87565b916171fc6171eb6171e630614a18565b613373565b926171f66002612ec8565b906170e3565b617205836133c6565b906395dd91769185919392813b156173e3575f6172359161724082966172296103e2565b988997889687956133d6565b855260048501617105565b03925af180156173de576173b2575b50617288604061725e836133c6565b631ec3b8ad9061727d86926172716103e2565b958694859384936133d6565b8352600483016115b9565b03915afa80156173ad575f8092909161737c575b506172b76172b16172ac5f6130cf565b610503565b91610503565b14159081617358575b506172cb575b505050565b6172d4906133c6565b91633751d19f919092803b15617353576173015f809461730c6172f56103e2565b978896879586946133d6565b845260048401617137565b03925af1801561734e57617322575b80806172c6565b617341905f3d8111617347575b6173398183610846565b8101906160f2565b5f61731b565b503d61732f565b613451565b6133d2565b905061737461736e6173695f6130cf565b610503565b91610503565b14155f6172c0565b905061739f915060403d81116173a6575b6173978183610846565b810190613461565b905f61729c565b503d61738d565b613451565b6173d1905f3d81116173d7575b6173c98183610846565b8101906160f2565b5f61724f565b503d6173bf565b613451565b6133d2565b61744d61743861740e5f61740861740361745e976002612da4565b612dba565b0161060c565b61743261742d617428886174226001612dc4565b90612e18565b612e5a565b612e76565b90612ea6565b61744560015f85016170c3565b5f8301612f02565b5f6174578161337f565b9101616250565b865f6171cc565b61746e906109cf565b90565b90565b9061748961748461749092617465565b617471565b82546170ab565b9055565b60b81b90565b906174a960ff60b81b91617494565b9181191691161790565b6174bc90610a10565b90565b90565b906174d76174d26174de926174b3565b6174bf565b825461749a565b9055565b60a81b90565b906174f760ff60a81b916174e2565b9181191691161790565b9061751661751161751d9261458b565b614597565b82546174e8565b9055565b60b01b90565b9061753660ff60b01b91617521565b9181191691161790565b9061755561755061755c926105a5565b612eff565b8254617527565b9055565b60a01b90565b9061757560ff60a01b91617560565b9181191691161790565b9061759461758f61759b9261458b565b614597565b8254617566565b9055565b906175b46175af60028490612da4565b612dba565b926175dd6175d86175d16175ca600b8790612a9d565b8590612ab3565b8390612ac9565b613022565b6175ee6175e930614a18565b613373565b9461762061761a617615617605600887950161060c565b61760f6001612dc4565b90612df4565b6103f0565b916103f0565b145f1461798f575090617679916176438483839061763d5f61337f565b92615a87565b94606061764f826133c6565b6397556f679061766e89926176626103e2565b988994859384936133d6565b8352600483016115b9565b03915afa801561798a575f80959091617956575b5093916176ae6176a96176a2600889906105c1565b86906105d7565b612da1565b926176b981156104b7565b80617933575b5f1461776f57505050617754929161773561774f926176f560026176ef6176ea6177599b6014611b07565b613100565b016107de565b617708617702600361080e565b9161080e565b145f1461775d5761771d6004600383016174c2565b5b61772b856003830161488b565b5f60029101617474565b61774a6177426001612dc4565b95600e611a1d565b611a33565b611a49565b612f02565b5b5b565b61776a5f600383016174c2565b61771e565b8095919294955f1461789957505050936177b76040926177b26177de9761779a60016003830161757f565b6177a86002600383016174c2565b5f60029101617474565b6133c6565b6177d3631ec3b8ad6177c76103e2565b978894859384936133d6565b8352600483016115b9565b03915afa80156178945761785593617850925f8092909361785b575b5061783161784b929361782c6178106001612dc4565b91617827617820600e8b90611a1d565b8690611a33565b611a49565b612f02565b61784661783e6001612dc4565b95600e611a1d565b611a33565b611a49565b612f02565b5b61775a565b617831935061784b92506178859060403d811161788d575b61787d8183610846565b810190613461565b9250926177fa565b503d617873565b613451565b929550935094506178ab9150156104b7565b9081617910575b506178bf575b5050617856565b6178ea617909926178d360025f8501617474565b6178e1600160038501617501565b60038301617540565b6178ff6178f65f6130cf565b6003830161488b565b60038091016174c2565b5f806178b8565b905061792c6179266179215f6130cf565b610503565b91610503565b145f6178b2565b508561794f6179496179445f6130cf565b610503565b91610503565b14156176bf565b905061797a91945060603d8111617983575b6179728183610846565b810190613417565b9491909461768d565b503d617968565b613451565b93949261799b5f61337f565b936179a55f6130cf565b6179ae5f61337f565b5b806179cc6179c66179c15f8c0161060c565b6103f0565b916103f0565b1015617ae857617a1560606179e5868989908692615a87565b6179ee8c6133c6565b617a0a6397556f676179fe6103e2565b958694859384936133d6565b8352600483016115b9565b03915afa908115617ae3575f8080929093617ab0575b509190617a41617a3b6002611f94565b91611f94565b149081617a9f575b5080617a7c575b617a64575b50617a5f906133b7565b6179af565b96617a5f919250617a749061339b565b969190617a55565b5080617a98617a92617a8d5f6130cf565b610503565b91610503565b1415617a50565b617aaa9150156104b7565b5f617a49565b915050617ad4915060603d8111617adc575b617acc8183610846565b810190613417565b90915f617a2b565b503d617ac2565b613451565b5095509550929050617b03617afd6001612dc4565b916103f0565b1480617b93575b617b17575b50505061775b565b617b8b92617b81617b8692617b67617b43617b3e617b37600889906105c1565b84906105d7565b612da1565b617b50856003830161488b565b617b5d60025f8301617474565b60035f91016174c2565b617b7c617b746001612dc4565b95600e611a1d565b611a33565b611a49565b612f02565b5f8080617b0f565b5082617baf617ba9617ba45f6130cf565b610503565b91610503565b1415617b0a565b617bcc617bc7617c0c926014611b07565b613100565b617bd95f6002830161459a565b617bed617be55f61440b565b5f83016145d3565b617c02617bf95f61440b565b600183016145d3565b60025f9101613a5d565b565b60407f2067616d6520636f6e7472616374000000000000000000000000000000000000917f45546f75725f53746f726167653a205f636f6d706c6574654d6174636847616d5f8201527f655370656369666963206d75737420626520696d706c656d656e74656420627960208201520152565b617c8e604e6060926121e1565b617c9781617c0e565b0190565b617cb09060208101905f818303910152617c81565b90565b617cbb6103e2565b62461bcd60e51b815280617cd160048201617c9b565b0390fd5b90617cdf90610e6b565b5f5260205260405f2090565b90617cf5906105a5565b5f5260205260405f2090565b90617d0b906105a5565b5f5260205260405f2090565b90565b617d24604061086f565b90565b5f5260205f2090565b5490565b617d3d81617d30565b821015617d5757617d4f600191617d27565b910201905f90565b610e8d565b634e487b7160e01b5f525f60045260245ffd5b617d7990516103f0565b90565b90617da660205f617dac94617d9e828201617d98848801617d6f565b90612f02565b019201617d6f565b90616250565b565b9190617dbf57617dbd91617d7c565b565b617d5c565b9081549168010000000000000000831015617df45782617dec916001617df295018155617d34565b90617dae565b565b610832565b90617e22617e1d617e16617e0f60178690617cd5565b8490617ceb565b8590617d01565b6106d2565b617e34617e2e5f61440b565b916107b3565b03617eb357617eb192617ea7617eac92617e83617e5b617e5660168890610e77565b617d17565b8290617e7e86617e75617e6c617d1a565b945f8601614e99565b60208401614e99565b617dc4565b617ea2617e9a617e9560168890610e77565b610ea1565b956017617cd5565b617ceb565b617d01565b6145d3565b565b505050565b5f80910155565b905f03617ed157617ecf90617eb8565b565b617d5c565b617edf81617d30565b8015617f00576001900390617efd617ef78383617d34565b90617ebf565b55565b616f6a565b9190617f1b617f16617f2393611193565b6145d0565b908354616f17565b9055565b617f3991617f33613d79565b91617f05565b565b91617f64617f5f617f58617f5160178790617cd5565b8590617ceb565b8390617d01565b6106d2565b9081617f78617f725f61440b565b916107b3565b1461809d5761800c5f936180076180169685617fa161801197617f9b60016154ba565b906130db565b617fc8617fb8617fb360168690610e77565b610ea1565b617fc260016154ba565b906130db565b81617fdb617fd5836107b3565b916107b3565b03618018575b505050618000617ffb617ff660168490610e77565b617d17565b617ed6565b6017617cd5565b617ceb565b617d01565b617f27565b565b6180959261805d61804061803a6180909461803560168a90610e77565b610eae565b50614eec565b93618057859161805260168a90610e77565b610eae565b90617dae565b9161808a602061808361807260178990617cd5565b61807d8f8601617d6f565b90617ceb565b9201617d6f565b90617d01565b6145d3565b5f8080617fe1565b50505050565b906180cc6180c76180c06180b960198690617cd5565b8490617ceb565b8590617d01565b6106d2565b6180de6180d85f61440b565b916107b3565b0361815d5761815b926181516181569261812d61810561810060188890610e77565b617d17565b82906181288661811f618116617d1a565b945f8601614e99565b60208401614e99565b617dc4565b61814c61814461813f60188890610e77565b610ea1565b956019617cd5565b617ceb565b617d01565b6145d3565b565b505050565b9161818b61818661817f61817860198790617cd5565b8590617ceb565b8390617d01565b6106d2565b908161819f6181995f61440b565b916107b3565b146182c4576182335f9361822e61823d96856181c8618238976181c260016154ba565b906130db565b6181ef6181df6181da60188690610e77565b610ea1565b6181e960016154ba565b906130db565b816182026181fc836107b3565b916107b3565b0361823f575b50505061822761822261821d60188490610e77565b617d17565b617ed6565b6019617cd5565b617ceb565b617d01565b617f27565b565b6182bc926182846182676182616182b79461825c60188a90610e77565b610eae565b50614eec565b9361827e859161827960188a90610e77565b610eae565b90617dae565b916182b160206182aa61829960198990617cd5565b6182a48f8601617d6f565b90617ceb565b9201617d6f565b90617d01565b6145d3565b5f8080618208565b5050505056fea26469706673582212206544bce5b55d4405b1538d365e4a04bbb21e233ae681e35ee0117591d7394d9964736f6c634300081e0033","linkReferences":{}},"methodIdentifiers":{"BASIS_POINTS()":"e1f1c4a7","MODULE_CORE()":"87d41608","MODULE_ESCALATION()":"a401a223","MODULE_MATCHES()":"d3f525dc","MODULE_PRIZES()":"43bd18a2","MODULE_RAFFLE()":"5a3db19f","NO_ROUND()":"cd47b9a9","OWNER_SHARE_BPS()":"f4ed1743","PARTICIPANTS_SHARE_BPS()":"82383535","PROTOCOL_SHARE_BPS()":"92822047","_completeMatchWithResult(bytes32,address,bool)":"f4df7cf0","_createMatchGame(uint8,uint8,uint8,uint8,address,address)":"2ad7e3bf","_getActiveMatchData(bytes32,uint8,uint8,uint8,uint8)":"e545f486","_getMatchPlayers(bytes32)":"1ec3b8ad","_getMatchResult(bytes32)":"97556f67","_getTimeIncrement()":"58f975f3","_hasCurrentPlayerTimedOut(bytes32)":"19602c21","_initializeMatchForPlay(bytes32,uint8)":"3751d19f","_isMatchActive(bytes32)":"7f515802","_resetMatchGame(bytes32)":"d893088d","_setMatchPlayer(bytes32,uint8,address)":"95dd9176","accumulatedProtocolShare()":"6b9be2c9","assignRankingOnElimination(uint8,uint8,uint8,address)":"23a3757b","checkAndMarkStalled(bytes32,uint8,uint8,uint8,uint8)":"b3c28459","claimMatchSlotByReplacement(uint8,uint8,uint8,uint8)":"367639e2","claimTimeoutWin(uint8,uint8,uint8,uint8)":"631039c7","clearEscalationState(bytes32)":"7ba49c7e","currentRaffleIndex()":"a5cd19da","drawParticipants(uint8,uint8,uint8,uint8,address)":"414a488a","enrollInTournament(uint8,uint8)":"e6c455f5","enrolledPlayers(uint8,uint8,uint256)":"685f1b12","forceEliminateStalledMatch(uint8,uint8,uint8,uint8)":"4d9d1611","forceStartTournament(uint8,uint8)":"ea2b1d73","getLeaderboard()":"6d763a6e","getPlayerActiveTournaments(address)":"c743c0a8","getPlayerEnrollingTournaments(address)":"c718d0e5","getPlayerStats()":"847a5e99","getRaffleInfo()":"8166f6b2","getRoundInfo(uint8,uint8,uint8)":"273e3475","getTournamentInfo(uint8,uint8)":"65e12b14","initializeRound(uint8,uint8,uint8)":"0300e0b9","isEnrolled(uint8,uint8,address)":"3475bd53","isMatchEscL2Available(uint8,uint8,uint8,uint8)":"ed96ffdf","isMatchEscL3Available(uint8,uint8,uint8,uint8)":"2f26185d","isPlayerInAdvancedRound(uint8,uint8,uint8,address)":"31449074","markMatchStalled(bytes32,uint8,uint256)":"a03fa4e2","matchTimeouts(bytes32)":"766d1fca","matches(bytes32)":"9fe9ada3","owner()":"8da5cb5b","playerActiveMatches(address,uint256)":"5d657cb1","playerActiveTournaments(address,uint256)":"32e7c6aa","playerEarnings(address)":"69f92773","playerEnrollingTournaments(address,uint256)":"3845753f","playerMatchIndex(address,bytes32)":"bb0d10b5","playerPrizes(uint8,uint8,address)":"c6c2d69c","playerRanking(uint8,uint8,address)":"75da743d","raffleResults(uint256)":"40861c1d","rounds(uint8,uint8,uint8)":"eed9a268","tierCount()":"96b55f7d","tournaments(uint8,uint8)":"1f916aca"},"id":7}