{"abi":[{"type":"constructor","inputs":[],"stateMutability":"nonpayable"},{"type":"function","name":"BASIS_POINTS","inputs":[],"outputs":[{"name":"","type":"uint256","internalType":"uint256"}],"stateMutability":"view"},{"type":"function","name":"MODULE_CORE","inputs":[],"outputs":[{"name":"","type":"address","internalType":"address"}],"stateMutability":"view"},{"type":"function","name":"MODULE_ESCALATION","inputs":[],"outputs":[{"name":"","type":"address","internalType":"address"}],"stateMutability":"view"},{"type":"function","name":"MODULE_MATCHES","inputs":[],"outputs":[{"name":"","type":"address","internalType":"address"}],"stateMutability":"view"},{"type":"function","name":"MODULE_PRIZES","inputs":[],"outputs":[{"name":"","type":"address","internalType":"address"}],"stateMutability":"view"},{"type":"function","name":"MODULE_RAFFLE","inputs":[],"outputs":[{"name":"","type":"address","internalType":"address"}],"stateMutability":"view"},{"type":"function","name":"NO_ROUND","inputs":[],"outputs":[{"name":"","type":"uint8","internalType":"uint8"}],"stateMutability":"view"},{"type":"function","name":"OWNER_SHARE_BPS","inputs":[],"outputs":[{"name":"","type":"uint256","internalType":"uint256"}],"stateMutability":"view"},{"type":"function","name":"PARTICIPANTS_SHARE_BPS","inputs":[],"outputs":[{"name":"","type":"uint256","internalType":"uint256"}],"stateMutability":"view"},{"type":"function","name":"PROTOCOL_SHARE_BPS","inputs":[],"outputs":[{"name":"","type":"uint256","internalType":"uint256"}],"stateMutability":"view"},{"type":"function","name":"_completeMatchWithResult","inputs":[{"name":"","type":"bytes32","internalType":"bytes32"},{"name":"","type":"address","internalType":"address"},{"name":"","type":"bool","internalType":"bool"}],"outputs":[],"stateMutability":"nonpayable"},{"type":"function","name":"_createMatchGame","inputs":[{"name":"","type":"uint8","internalType":"uint8"},{"name":"","type":"uint8","internalType":"uint8"},{"name":"","type":"uint8","internalType":"uint8"},{"name":"","type":"uint8","internalType":"uint8"},{"name":"","type":"address","internalType":"address"},{"name":"","type":"address","internalType":"address"}],"outputs":[],"stateMutability":"nonpayable"},{"type":"function","name":"_getActiveMatchData","inputs":[{"name":"matchId","type":"bytes32","internalType":"bytes32"},{"name":"tierId","type":"uint8","internalType":"uint8"},{"name":"instanceId","type":"uint8","internalType":"uint8"},{"name":"roundNumber","type":"uint8","internalType":"uint8"},{"name":"matchNumber","type":"uint8","internalType":"uint8"}],"outputs":[{"name":"","type":"tuple","internalType":"struct ETour_Storage.CommonMatchData","components":[{"name":"player1","type":"address","internalType":"address"},{"name":"player2","type":"address","internalType":"address"},{"name":"winner","type":"address","internalType":"address"},{"name":"loser","type":"address","internalType":"address"},{"name":"status","type":"uint8","internalType":"enum ETour_Storage.MatchStatus"},{"name":"isDraw","type":"bool","internalType":"bool"},{"name":"startTime","type":"uint256","internalType":"uint256"},{"name":"lastMoveTime","type":"uint256","internalType":"uint256"},{"name":"tierId","type":"uint8","internalType":"uint8"},{"name":"instanceId","type":"uint8","internalType":"uint8"},{"name":"roundNumber","type":"uint8","internalType":"uint8"},{"name":"matchNumber","type":"uint8","internalType":"uint8"},{"name":"isCached","type":"bool","internalType":"bool"}]}],"stateMutability":"view"},{"type":"function","name":"_getMatchPlayers","inputs":[{"name":"matchId","type":"bytes32","internalType":"bytes32"}],"outputs":[{"name":"player1","type":"address","internalType":"address"},{"name":"player2","type":"address","internalType":"address"}],"stateMutability":"view"},{"type":"function","name":"_getMatchResult","inputs":[{"name":"","type":"bytes32","internalType":"bytes32"}],"outputs":[{"name":"","type":"address","internalType":"address"},{"name":"","type":"bool","internalType":"bool"},{"name":"","type":"uint8","internalType":"enum ETour_Storage.MatchStatus"}],"stateMutability":"view"},{"type":"function","name":"_getTimeIncrement","inputs":[],"outputs":[{"name":"","type":"uint256","internalType":"uint256"}],"stateMutability":"view"},{"type":"function","name":"_hasCurrentPlayerTimedOut","inputs":[{"name":"","type":"bytes32","internalType":"bytes32"}],"outputs":[{"name":"","type":"bool","internalType":"bool"}],"stateMutability":"view"},{"type":"function","name":"_initializeMatchForPlay","inputs":[{"name":"","type":"bytes32","internalType":"bytes32"},{"name":"","type":"uint8","internalType":"uint8"}],"outputs":[],"stateMutability":"nonpayable"},{"type":"function","name":"_isMatchActive","inputs":[{"name":"matchId","type":"bytes32","internalType":"bytes32"}],"outputs":[{"name":"","type":"bool","internalType":"bool"}],"stateMutability":"view"},{"type":"function","name":"_resetMatchGame","inputs":[{"name":"","type":"bytes32","internalType":"bytes32"}],"outputs":[],"stateMutability":"nonpayable"},{"type":"function","name":"_setMatchPlayer","inputs":[{"name":"matchId","type":"bytes32","internalType":"bytes32"},{"name":"slot","type":"uint8","internalType":"uint8"},{"name":"player","type":"address","internalType":"address"}],"outputs":[],"stateMutability":"nonpayable"},{"type":"function","name":"accumulatedProtocolShare","inputs":[],"outputs":[{"name":"","type":"uint256","internalType":"uint256"}],"stateMutability":"view"},{"type":"function","name":"calculatePrizeForRank","inputs":[{"name":"tierId","type":"uint8","internalType":"uint8"},{"name":"ranking","type":"uint8","internalType":"uint8"},{"name":"playersAtRank","type":"uint8","internalType":"uint8"},{"name":"winnersPot","type":"uint256","internalType":"uint256"}],"outputs":[{"name":"","type":"uint256","internalType":"uint256"}],"stateMutability":"pure"},{"type":"function","name":"claimTimeoutWin","inputs":[{"name":"tierId","type":"uint8","internalType":"uint8"},{"name":"instanceId","type":"uint8","internalType":"uint8"},{"name":"roundNumber","type":"uint8","internalType":"uint8"},{"name":"matchNumber","type":"uint8","internalType":"uint8"}],"outputs":[],"stateMutability":"nonpayable"},{"type":"function","name":"currentRaffleIndex","inputs":[],"outputs":[{"name":"","type":"uint256","internalType":"uint256"}],"stateMutability":"view"},{"type":"function","name":"distributeEqualPrizes","inputs":[{"name":"tierId","type":"uint8","internalType":"uint8"},{"name":"instanceId","type":"uint8","internalType":"uint8"},{"name":"remainingPlayers","type":"address[]","internalType":"address[]"},{"name":"winnersPot","type":"uint256","internalType":"uint256"},{"name":"gameName","type":"string","internalType":"string"}],"outputs":[{"name":"winners","type":"address[]","internalType":"address[]"},{"name":"prizes","type":"uint256[]","internalType":"uint256[]"}],"stateMutability":"nonpayable"},{"type":"function","name":"distributePrizes","inputs":[{"name":"tierId","type":"uint8","internalType":"uint8"},{"name":"instanceId","type":"uint8","internalType":"uint8"},{"name":"winnersPot","type":"uint256","internalType":"uint256"},{"name":"gameName","type":"string","internalType":"string"}],"outputs":[{"name":"winners","type":"address[]","internalType":"address[]"},{"name":"prizes","type":"uint256[]","internalType":"uint256[]"}],"stateMutability":"nonpayable"},{"type":"function","name":"drawParticipants","inputs":[{"name":"","type":"uint8","internalType":"uint8"},{"name":"","type":"uint8","internalType":"uint8"},{"name":"","type":"uint8","internalType":"uint8"},{"name":"","type":"uint8","internalType":"uint8"},{"name":"","type":"address","internalType":"address"}],"outputs":[{"name":"","type":"bool","internalType":"bool"}],"stateMutability":"view"},{"type":"function","name":"enrollInTournament","inputs":[{"name":"tierId","type":"uint8","internalType":"uint8"},{"name":"instanceId","type":"uint8","internalType":"uint8"}],"outputs":[],"stateMutability":"payable"},{"type":"function","name":"enrolledPlayers","inputs":[{"name":"","type":"uint8","internalType":"uint8"},{"name":"","type":"uint8","internalType":"uint8"},{"name":"","type":"uint256","internalType":"uint256"}],"outputs":[{"name":"","type":"address","internalType":"address"}],"stateMutability":"view"},{"type":"function","name":"forceStartTournament","inputs":[{"name":"tierId","type":"uint8","internalType":"uint8"},{"name":"instanceId","type":"uint8","internalType":"uint8"}],"outputs":[],"stateMutability":"nonpayable"},{"type":"function","name":"getLeaderboard","inputs":[],"outputs":[{"name":"","type":"tuple[]","internalType":"struct ETour_Storage.LeaderboardEntry[]","components":[{"name":"player","type":"address","internalType":"address"},{"name":"earnings","type":"int256","internalType":"int256"}]}],"stateMutability":"view"},{"type":"function","name":"getLeaderboardCount","inputs":[],"outputs":[{"name":"","type":"uint256","internalType":"uint256"}],"stateMutability":"view"},{"type":"function","name":"getPlayerActiveTournaments","inputs":[{"name":"player","type":"address","internalType":"address"}],"outputs":[{"name":"","type":"tuple[]","internalType":"struct ETour_Storage.TournamentRef[]","components":[{"name":"tierId","type":"uint8","internalType":"uint8"},{"name":"instanceId","type":"uint8","internalType":"uint8"}]}],"stateMutability":"view"},{"type":"function","name":"getPlayerEnrollingTournaments","inputs":[{"name":"player","type":"address","internalType":"address"}],"outputs":[{"name":"","type":"tuple[]","internalType":"struct ETour_Storage.TournamentRef[]","components":[{"name":"tierId","type":"uint8","internalType":"uint8"},{"name":"instanceId","type":"uint8","internalType":"uint8"}]}],"stateMutability":"view"},{"type":"function","name":"getPlayerStats","inputs":[],"outputs":[{"name":"totalEarnings","type":"int256","internalType":"int256"}],"stateMutability":"view"},{"type":"function","name":"getRaffleInfo","inputs":[],"outputs":[{"name":"raffleIndex","type":"uint256","internalType":"uint256"},{"name":"isReady","type":"bool","internalType":"bool"},{"name":"currentAccumulated","type":"uint256","internalType":"uint256"},{"name":"threshold","type":"uint256","internalType":"uint256"},{"name":"reserve","type":"uint256","internalType":"uint256"},{"name":"raffleAmount","type":"uint256","internalType":"uint256"},{"name":"ownerShare","type":"uint256","internalType":"uint256"},{"name":"winnerShare","type":"uint256","internalType":"uint256"},{"name":"eligiblePlayerCount","type":"uint256","internalType":"uint256"}],"stateMutability":"view"},{"type":"function","name":"getRoundInfo","inputs":[{"name":"tierId","type":"uint8","internalType":"uint8"},{"name":"instanceId","type":"uint8","internalType":"uint8"},{"name":"roundNumber","type":"uint8","internalType":"uint8"}],"outputs":[{"name":"totalMatches","type":"uint8","internalType":"uint8"},{"name":"completedMatches","type":"uint8","internalType":"uint8"},{"name":"initialized","type":"bool","internalType":"bool"}],"stateMutability":"view"},{"type":"function","name":"getTournamentInfo","inputs":[{"name":"tierId","type":"uint8","internalType":"uint8"},{"name":"instanceId","type":"uint8","internalType":"uint8"}],"outputs":[{"name":"status","type":"uint8","internalType":"enum ETour_Storage.TournamentStatus"},{"name":"currentRound","type":"uint8","internalType":"uint8"},{"name":"enrolledCount","type":"uint8","internalType":"uint8"},{"name":"prizePool","type":"uint256","internalType":"uint256"},{"name":"winner","type":"address","internalType":"address"}],"stateMutability":"view"},{"type":"function","name":"initializeRound","inputs":[{"name":"","type":"uint8","internalType":"uint8"},{"name":"","type":"uint8","internalType":"uint8"},{"name":"","type":"uint8","internalType":"uint8"}],"outputs":[],"stateMutability":"nonpayable"},{"type":"function","name":"isEnrolled","inputs":[{"name":"","type":"uint8","internalType":"uint8"},{"name":"","type":"uint8","internalType":"uint8"},{"name":"","type":"address","internalType":"address"}],"outputs":[{"name":"","type":"bool","internalType":"bool"}],"stateMutability":"view"},{"type":"function","name":"isMatchEscL2Available","inputs":[{"name":"tierId","type":"uint8","internalType":"uint8"},{"name":"instanceId","type":"uint8","internalType":"uint8"},{"name":"roundNumber","type":"uint8","internalType":"uint8"},{"name":"matchNumber","type":"uint8","internalType":"uint8"}],"outputs":[{"name":"","type":"bool","internalType":"bool"}],"stateMutability":"view"},{"type":"function","name":"isMatchEscL3Available","inputs":[{"name":"tierId","type":"uint8","internalType":"uint8"},{"name":"instanceId","type":"uint8","internalType":"uint8"},{"name":"roundNumber","type":"uint8","internalType":"uint8"},{"name":"matchNumber","type":"uint8","internalType":"uint8"}],"outputs":[{"name":"","type":"bool","internalType":"bool"}],"stateMutability":"view"},{"type":"function","name":"isPlayerInAdvancedRound","inputs":[{"name":"tierId","type":"uint8","internalType":"uint8"},{"name":"instanceId","type":"uint8","internalType":"uint8"},{"name":"stalledRoundNumber","type":"uint8","internalType":"uint8"},{"name":"player","type":"address","internalType":"address"}],"outputs":[{"name":"hasAdvanced","type":"bool","internalType":"bool"}],"stateMutability":"view"},{"type":"function","name":"matchTimeouts","inputs":[{"name":"","type":"bytes32","internalType":"bytes32"}],"outputs":[{"name":"escalation1Start","type":"uint256","internalType":"uint256"},{"name":"escalation2Start","type":"uint256","internalType":"uint256"},{"name":"activeEscalation","type":"uint8","internalType":"enum ETour_Storage.EscalationLevel"},{"name":"isStalled","type":"bool","internalType":"bool"}],"stateMutability":"view"},{"type":"function","name":"matches","inputs":[{"name":"","type":"bytes32","internalType":"bytes32"}],"outputs":[{"name":"player1","type":"address","internalType":"address"},{"name":"player2","type":"address","internalType":"address"},{"name":"winner","type":"address","internalType":"address"},{"name":"currentTurn","type":"address","internalType":"address"},{"name":"firstPlayer","type":"address","internalType":"address"},{"name":"status","type":"uint8","internalType":"enum ETour_Storage.MatchStatus"},{"name":"isDraw","type":"bool","internalType":"bool"},{"name":"packedBoard","type":"uint256","internalType":"uint256"},{"name":"packedState","type":"uint256","internalType":"uint256"},{"name":"startTime","type":"uint256","internalType":"uint256"},{"name":"lastMoveTime","type":"uint256","internalType":"uint256"},{"name":"player1TimeRemaining","type":"uint256","internalType":"uint256"},{"name":"player2TimeRemaining","type":"uint256","internalType":"uint256"},{"name":"moves","type":"string","internalType":"string"}],"stateMutability":"view"},{"type":"function","name":"owner","inputs":[],"outputs":[{"name":"","type":"address","internalType":"address"}],"stateMutability":"view"},{"type":"function","name":"playerActiveMatches","inputs":[{"name":"","type":"address","internalType":"address"},{"name":"","type":"uint256","internalType":"uint256"}],"outputs":[{"name":"","type":"bytes32","internalType":"bytes32"}],"stateMutability":"view"},{"type":"function","name":"playerActiveTournaments","inputs":[{"name":"","type":"address","internalType":"address"},{"name":"","type":"uint256","internalType":"uint256"}],"outputs":[{"name":"tierId","type":"uint8","internalType":"uint8"},{"name":"instanceId","type":"uint8","internalType":"uint8"}],"stateMutability":"view"},{"type":"function","name":"playerEarnings","inputs":[{"name":"","type":"address","internalType":"address"}],"outputs":[{"name":"","type":"int256","internalType":"int256"}],"stateMutability":"view"},{"type":"function","name":"playerEnrollingTournaments","inputs":[{"name":"","type":"address","internalType":"address"},{"name":"","type":"uint256","internalType":"uint256"}],"outputs":[{"name":"tierId","type":"uint8","internalType":"uint8"},{"name":"instanceId","type":"uint8","internalType":"uint8"}],"stateMutability":"view"},{"type":"function","name":"playerMatchIndex","inputs":[{"name":"","type":"address","internalType":"address"},{"name":"","type":"bytes32","internalType":"bytes32"}],"outputs":[{"name":"","type":"uint256","internalType":"uint256"}],"stateMutability":"view"},{"type":"function","name":"playerPrizes","inputs":[{"name":"","type":"uint8","internalType":"uint8"},{"name":"","type":"uint8","internalType":"uint8"},{"name":"","type":"address","internalType":"address"}],"outputs":[{"name":"","type":"uint256","internalType":"uint256"}],"stateMutability":"view"},{"type":"function","name":"playerRanking","inputs":[{"name":"","type":"uint8","internalType":"uint8"},{"name":"","type":"uint8","internalType":"uint8"},{"name":"","type":"address","internalType":"address"}],"outputs":[{"name":"","type":"uint8","internalType":"uint8"}],"stateMutability":"view"},{"type":"function","name":"raffleResults","inputs":[{"name":"","type":"uint256","internalType":"uint256"}],"outputs":[{"name":"executor","type":"address","internalType":"address"},{"name":"timestamp","type":"uint256","internalType":"uint256"},{"name":"rafflePot","type":"uint256","internalType":"uint256"},{"name":"winner","type":"address","internalType":"address"},{"name":"winnerPrize","type":"uint256","internalType":"uint256"},{"name":"protocolReserve","type":"uint256","internalType":"uint256"},{"name":"ownerShare","type":"uint256","internalType":"uint256"}],"stateMutability":"view"},{"type":"function","name":"resetTournamentAfterCompletion","inputs":[{"name":"tierId","type":"uint8","internalType":"uint8"},{"name":"instanceId","type":"uint8","internalType":"uint8"}],"outputs":[],"stateMutability":"nonpayable"},{"type":"function","name":"rounds","inputs":[{"name":"","type":"uint8","internalType":"uint8"},{"name":"","type":"uint8","internalType":"uint8"},{"name":"","type":"uint8","internalType":"uint8"}],"outputs":[{"name":"totalMatches","type":"uint8","internalType":"uint8"},{"name":"completedMatches","type":"uint8","internalType":"uint8"},{"name":"initialized","type":"bool","internalType":"bool"},{"name":"drawCount","type":"uint8","internalType":"uint8"}],"stateMutability":"view"},{"type":"function","name":"sendPrizeWithFallback","inputs":[{"name":"recipient","type":"address","internalType":"address"},{"name":"amount","type":"uint256","internalType":"uint256"},{"name":"tierId","type":"uint8","internalType":"uint8"},{"name":"instanceId","type":"uint8","internalType":"uint8"},{"name":"gameName","type":"string","internalType":"string"}],"outputs":[{"name":"success","type":"bool","internalType":"bool"}],"stateMutability":"nonpayable"},{"type":"function","name":"tierCount","inputs":[],"outputs":[{"name":"","type":"uint8","internalType":"uint8"}],"stateMutability":"view"},{"type":"function","name":"tournaments","inputs":[{"name":"","type":"uint8","internalType":"uint8"},{"name":"","type":"uint8","internalType":"uint8"}],"outputs":[{"name":"tierId","type":"uint8","internalType":"uint8"},{"name":"instanceId","type":"uint8","internalType":"uint8"},{"name":"status","type":"uint8","internalType":"enum ETour_Storage.TournamentStatus"},{"name":"currentRound","type":"uint8","internalType":"uint8"},{"name":"enrolledCount","type":"uint8","internalType":"uint8"},{"name":"prizePool","type":"uint256","internalType":"uint256"},{"name":"startTime","type":"uint256","internalType":"uint256"},{"name":"winner","type":"address","internalType":"address"},{"name":"finalsWasDraw","type":"bool","internalType":"bool"},{"name":"allDrawResolution","type":"bool","internalType":"bool"},{"name":"allDrawRound","type":"uint8","internalType":"uint8"},{"name":"completionReason","type":"uint8","internalType":"enum ETour_Storage.CompletionReason"},{"name":"enrollmentTimeout","type":"tuple","internalType":"struct ETour_Storage.EnrollmentTimeoutState","components":[{"name":"escalation1Start","type":"uint256","internalType":"uint256"},{"name":"escalation2Start","type":"uint256","internalType":"uint256"},{"name":"activeEscalation","type":"uint8","internalType":"enum ETour_Storage.EscalationLevel"},{"name":"forfeitPool","type":"uint256","internalType":"uint256"}]}],"stateMutability":"view"},{"type":"function","name":"trackOnLeaderboard","inputs":[{"name":"player","type":"address","internalType":"address"}],"outputs":[],"stateMutability":"nonpayable"},{"type":"function","name":"updatePlayerEarnings","inputs":[{"name":"tierId","type":"uint8","internalType":"uint8"},{"name":"instanceId","type":"uint8","internalType":"uint8"},{"name":"winner","type":"address","internalType":"address"}],"outputs":[],"stateMutability":"nonpayable"},{"type":"event","name":"MatchCompleted","inputs":[{"name":"matchId","type":"bytes32","indexed":true,"internalType":"bytes32"},{"name":"player1","type":"address","indexed":true,"internalType":"address"},{"name":"player2","type":"address","indexed":true,"internalType":"address"},{"name":"winner","type":"address","indexed":false,"internalType":"address"},{"name":"isDraw","type":"bool","indexed":false,"internalType":"bool"},{"name":"reason","type":"uint8","indexed":false,"internalType":"enum ETour_Storage.CompletionReason"},{"name":"board","type":"uint256","indexed":false,"internalType":"uint256"}],"anonymous":false},{"type":"event","name":"ProtocolRaffleExecuted","inputs":[{"name":"raffleIndex","type":"uint256","indexed":true,"internalType":"uint256"},{"name":"winner","type":"address","indexed":true,"internalType":"address"},{"name":"caller","type":"address","indexed":true,"internalType":"address"},{"name":"raffleAmount","type":"uint256","indexed":false,"internalType":"uint256"},{"name":"ownerShare","type":"uint256","indexed":false,"internalType":"uint256"},{"name":"winnerShare","type":"uint256","indexed":false,"internalType":"uint256"},{"name":"remainingReserve","type":"uint256","indexed":false,"internalType":"uint256"},{"name":"winnerEnrollmentCount","type":"uint256","indexed":false,"internalType":"uint256"}],"anonymous":false},{"type":"event","name":"TournamentCompleted","inputs":[{"name":"tierId","type":"uint8","indexed":true,"internalType":"uint8"},{"name":"instanceId","type":"uint8","indexed":true,"internalType":"uint8"},{"name":"winner","type":"address","indexed":false,"internalType":"address"},{"name":"prizeAmount","type":"uint256","indexed":false,"internalType":"uint256"},{"name":"reason","type":"uint8","indexed":false,"internalType":"enum ETour_Storage.CompletionReason"},{"name":"enrolledPlayers","type":"address[]","indexed":false,"internalType":"address[]"}],"anonymous":false},{"type":"event","name":"Transfer","inputs":[{"name":"from","type":"address","indexed":true,"internalType":"address"},{"name":"to","type":"address","indexed":true,"internalType":"address"},{"name":"value","type":"uint256","indexed":false,"internalType":"uint256"}],"anonymous":false},{"type":"error","name":"ReentrancyGuardReentrantCall","inputs":[]}],"bytecode":{"object":"0x6101406040523461007c576100126100c4565b61001a610081565b6175826101b9823960805181818161210c0152818161607e01526162af015260a05181612a59015260c0518181816115aa01526163a4015260e0518161166601526101005181818161269b0152614ecb01526101205181612165015261758290f35b610087565b60405190565b5f80fd5b90565b60018060a01b031690565b90565b6100b06100ab6100b59261008b565b610099565b61008e565b90565b6100c19061009c565b90565b6100fb6100d05f6100b8565b6100d95f6100b8565b6100e25f6100b8565b6100eb5f6100b8565b916100f55f6100b8565b936100fd565b565b6101056101a5565b336101205260805260a05260c05260e05261010052565b90565b90565b61013661013161013b9261011c565b610099565b61011f565b90565b6101486001610122565b90565b5f1b90565b9061015c5f199161014b565b9181191691161790565b61017a61017561017f9261011f565b610099565b61011f565b90565b90565b9061019a6101956101a192610166565b610182565b8254610150565b9055565b6101b66101b061013e565b5f610185565b56fe60806040526004361015610013575b6130eb565b61001d5f356103fc565b80630300e0b9146103f757806319602c21146103f25780631ec3b8ad146103ed5780631f916aca146103e8578063273e3475146103e35780632a731dc2146103de5780632ad7e3bf146103d95780632ba37d98146103d45780632f26185d146103cf57806330c4403d146103ca57806331449074146103c557806332e7c6aa146103c05780633475bd53146103bb5780633751d19f146103b65780633845753f146103b157806340861c1d146103ac578063414a488a146103a757806343bd18a2146103a257806357f7cf711461039d57806358f975f3146103985780635a3db19f146103935780635d657cb11461038e578063631039c71461038957806365e12b1414610384578063685f1b121461037f578063689bf4361461037a57806369f92773146103755780636b9be2c9146103705780636d763a6e1461036b57806375da743d14610366578063766d1fca146103615780637f5158021461035c5780638166f6b21461035757806382383535146103525780638421af851461034d578063847a5e991461034857806387d41608146103435780638da5cb5b1461033e578063928220471461033957806395dd91761461033457806396b55f7d1461032f57806397556f671461032a5780639fe9ada314610325578063a401a22314610320578063a5cd19da1461031b578063bb0d10b514610316578063c086bf2914610311578063c6c2d69c1461030c578063c718d0e514610307578063c743c0a814610302578063cd47b9a9146102fd578063d3f525dc146102f8578063d893088d146102f3578063e1f1c4a7146102ee578063e545f486146102e9578063e6c455f5146102e4578063ea2b1d73146102df578063ed96ffdf146102da578063eed9a268146102d5578063f4df7cf0146102d0578063f4ed1743146102cb5763f8b76ab80361000e576130b1565b612f5a565b612f07565b612e70565b612d47565b612d13565b612ce9565b612cb0565b612b02565b612ab0565b612a7b565b612a22565b6129b6565b612981565b612888565b6127e6565b6127b0565b612701565b6126bd565b612651565b61230e565b6122a5565b612262565b6121f3565b612187565b61212e565b6120d5565b61209b565b611ee8565b611e71565b611dd1565b611d98565b611c95565b611bb8565b611ab3565b611a49565b611998565b611962565b611829565b6117be565b611788565b611688565b61164a565b611616565b6115e1565b611560565b611465565b611310565b6112b1565b61124e565b611146565b610fe6565b610f6d565b610f16565b610e97565b610d78565b610cb8565b610c01565b610b89565b610563565b610502565b61047c565b60e01c90565b60405190565b5f80fd5b5f80fd5b5f80fd5b60ff1690565b61042381610414565b0361042a57565b5f80fd5b9050359061043b8261041a565b565b90916060828403126104725761046f610458845f850161042e565b93610466816020860161042e565b9360400161042e565b90565b61040c565b5f0190565b346104925761048c36600461043d565b91613148565b610408565b90565b6104a381610497565b036104aa57565b5f80fd5b905035906104bb8261049a565b565b906020828203126104d6576104d3915f016104ae565b90565b61040c565b151590565b6104e9906104db565b9052565b9190610500905f602085019401906104e0565b565b34610517576105123660046104bd565b61316e565b610408565b60018060a01b031690565b6105309061051c565b90565b61053c90610527565b9052565b91602061056192949361055a60408201965f830190610533565b0190610533565b565b346105945761057b6105763660046104bd565b6131a0565b90610590610587610402565b92839283610540565b0390f35b610408565b91906040838203126105c157806105b56105be925f860161042e565b9360200161042e565b90565b61040c565b90565b6105dd6105d86105e292610414565b6105c6565b610414565b90565b906105ef906105c9565b5f5260205260405f2090565b90610605906105c9565b5f5260205260405f2090565b5f1c90565b60ff1690565b61062861062d91610611565b610616565b90565b61063a905461061c565b90565b60081c90565b61064f6106549161063d565b610616565b90565b6106619054610643565b90565b60101c90565b60ff1690565b61067c61068191610664565b61066a565b90565b61068e9054610670565b90565b60181c90565b6106a36106a891610691565b610616565b90565b6106b59054610697565b90565b60201c90565b6106ca6106cf916106b8565b610616565b90565b6106dc90546106be565b90565b90565b6106ee6106f391610611565b6106df565b90565b61070090546106e2565b90565b60018060a01b031690565b61071a61071f91610611565b610703565b90565b61072c905461070e565b90565b60a01c90565b60ff1690565b61074761074c9161072f565b610735565b90565b610759905461073b565b90565b60a81c90565b61076e6107739161075c565b610735565b90565b6107809054610762565b90565b60b01c90565b61079561079a91610783565b610616565b90565b6107a79054610789565b90565b60b81c90565b60ff1690565b6107c26107c7916107aa565b6107b0565b90565b6107d490546107b6565b90565b90565b906107e4906107d7565b9052565b60ff1690565b6107fa6107ff91610611565b6107e8565b90565b61080c90546107ee565b90565b634e487b7160e01b5f52602160045260245ffd5b6004111561082d57565b61080f565b9061083c82610823565b565b9061084890610832565b9052565b601f801991011690565b634e487b7160e01b5f52604160045260245ffd5b906108749061084c565b810190811067ffffffffffffffff82111761088e57604052565b610856565b906108a661089f610402565b928361086a565b565b6108b26080610893565b90565b9061091c61091360036108c66108a8565b946108dd6108d55f83016106f6565b5f88016107da565b6108f56108ec600183016106f6565b602088016107da565b61090d61090460028301610802565b6040880161083e565b016106f6565b606084016107da565b565b9061092d6109329260086105e5565b6105fb565b61093d5f8201610630565b916109495f8301610657565b916109555f8201610684565b916109615f83016106ab565b9161096d5f82016106d2565b9161097a600183016106f6565b91610987600282016106f6565b9161099460038301610722565b916109a16003820161074f565b916109ae60038301610776565b916109bb6003820161079d565b916109d460046109cd600385016107ca565b93016108b5565b90565b6109e090610414565b9052565b600311156109ee57565b61080f565b906109fd826109e4565b565b610a08906109f3565b90565b610a14906109ff565b9052565b610a21906107d7565b9052565b60061115610a2f57565b61080f565b90610a3e82610a25565b565b610a4990610a34565b90565b610a5590610a40565b9052565b610a62906107d7565b9052565b610a6f90610832565b90565b610a7b90610a66565b9052565b90606080610ac593610a975f8201515f860190610a59565b610aa960208201516020860190610a59565b610abb60408201516040860190610a72565b0151910190610a59565b565b9a98969492909d9c9b99979593916102008c019e5f8d01610ae7916109d7565b60208c01610af4916109d7565b60408b01610b0191610a0b565b60608a01610b0e916109d7565b60808901610b1b916109d7565b60a08801610b2891610a18565b60c08701610b3591610a18565b60e08601610b4291610533565b6101008501610b50916104e0565b6101208401610b5e916104e0565b6101408301610b6c916109d7565b6101608201610b7a91610a4c565b61018001610b8791610a7f565b565b34610bca57610bc6610ba5610b9f366004610599565b9061091e565b99610bbd9d9b9d999199989298979397969496610402565b9d8e9d8e610ac7565b0390f35b610408565b604090610bf8610bff9496959396610bee60608401985f8501906109d7565b60208301906109d7565b01906104e0565b565b34610c3557610c31610c1d610c1736600461043d565b916131e7565b610c28939193610402565b93849384610bcf565b0390f35b610408565b610c43816107d7565b03610c4a57565b5f80fd5b90503590610c5b82610c3a565b565b608081830312610c9e57610c73825f830161042e565b92610c9b610c84846020850161042e565b93610c92816040860161042e565b93606001610c4e565b90565b61040c565b9190610cb6905f60208501940190610a18565b565b34610cec57610ce8610cd7610cce366004610c5d565b929190916132f8565b610cdf610402565b91829182610ca3565b0390f35b610408565b610cfa81610527565b03610d0157565b5f80fd5b90503590610d1282610cf1565b565b909160c082840312610d7357610d2c835f840161042e565b92610d3a816020850161042e565b92610d48826040830161042e565b92610d70610d59846060850161042e565b93610d678160808601610d05565b9360a001610d05565b90565b61040c565b34610d9457610d88366004610d14565b9493909392919261333e565b610408565b5f80fd5b5f80fd5b67ffffffffffffffff8111610dbf57610dbb60209161084c565b0190565b610856565b90825f939282370152565b90929192610de4610ddf82610da1565b610893565b93818552602085019082840111610e0057610dfe92610dc4565b565b610d9d565b9080601f83011215610e2357816020610e2093359101610dcf565b90565b610d99565b91909160a081840312610e9257610e41835f8301610d05565b92610e4f8160208401610c4e565b92610e5d826040850161042e565b92610e6b836060830161042e565b92608082013567ffffffffffffffff8111610e8d57610e8a9201610e05565b90565b610410565b61040c565b34610ecb57610ec7610eb6610ead366004610e28565b939290926134f1565b610ebe610402565b918291826104ed565b0390f35b610408565b608081830312610f1157610ee6825f830161042e565b92610f0e610ef7846020850161042e565b93610f05816040860161042e565b9360600161042e565b90565b61040c565b34610f4a57610f46610f35610f2c366004610ed0565b929190916135e8565b610f3d610402565b918291826104ed565b0390f35b610408565b90602082820312610f6857610f65915f01610d05565b90565b61040c565b34610f9b57610f85610f80366004610f4f565b613920565b610f8d610402565b80610f9781610477565b0390f35b610408565b608081830312610fe157610fb6825f830161042e565b92610fde610fc7846020850161042e565b93610fd5816040860161042e565b93606001610d05565b90565b61040c565b3461101a57611016611005610ffc366004610fa0565b92919091613aca565b61100d610402565b918291826104ed565b0390f35b610408565b9190604083820312611047578061103b611044925f8601610d05565b93602001610c4e565b90565b61040c565b61106061105b6110659261051c565b6105c6565b61051c565b90565b6110719061104c565b90565b61107d90611068565b90565b9061108a90611074565b5f5260205260405f2090565b634e487b7160e01b5f52603260045260245ffd5b5490565b5f5260205f2090565b6110c0816110aa565b8210156110da576110d26001916110ae565b910201905f90565b611096565b6110ea906018611080565b906110f4826110aa565b81101561111f57611104916110b7565b509061111c5f611115818501610630565b9301610657565b90565b5f80fd5b91602061114492949361113d60408201965f8301906109d7565b01906109d7565b565b346111785761115f61115936600461101f565b906110df565b9061117461116b610402565b92839283611123565b0390f35b610408565b90916060828403126111b2576111af611198845f850161042e565b936111a6816020860161042e565b93604001610d05565b90565b61040c565b906111c1906105c9565b5f5260205260405f2090565b906111d7906105c9565b5f5260205260405f2090565b906111ed90611074565b5f5260205260405f2090565b1c90565b61120d90600861121293026111f9565b610735565b90565b9061122091546111fd565b90565b9061124b926112416112469261123c600a955f966111b7565b6111cd565b6111e3565b611215565b90565b3461127f5761127b61126a61126436600461117d565b91611223565b611272610402565b918291826104ed565b0390f35b610408565b91906040838203126112ac57806112a06112a9925f86016104ae565b9360200161042e565b90565b61040c565b346112c7576112c1366004611284565b90613e83565b610408565b6112d7906016611080565b906112e1826110aa565b81101561130c576112f1916110b7565b50906113095f611302818501610630565b9301610657565b90565b5f80fd5b346113425761132961132336600461101f565b906112cc565b9061133e611335610402565b92839283611123565b0390f35b610408565b906020828203126113605761135d915f01610c4e565b90565b61040c565b61137961137461137e926107d7565b6105c6565b6107d7565b90565b9061138b90611365565b5f5260205260405f2090565b6113a2906007611381565b6113ad5f8201610722565b916113ba600183016106f6565b916113c7600282016106f6565b916113d460058301610722565b916113e1600682016106f6565b916113fa60086113f3600785016106f6565b93016106f6565b90565b949290979695939160e08601985f870161141691610533565b6020860161142391610a18565b6040850161143091610a18565b6060840161143d91610533565b6080830161144a91610a18565b60a0820161145791610a18565b60c00161146391610a18565b565b3461149c5761149861148061147b366004611347565b611397565b9361148f979597939193610402565b978897886113fd565b0390f35b610408565b919060a0838203126114f2576114b9815f850161042e565b926114c7826020830161042e565b926114ef6114d8846040850161042e565b936114e6816060860161042e565b93608001610d05565b90565b61040c565b90611501906105c9565b5f5260205260405f2090565b90611517906105c9565b5f5260205260405f2090565b926115539061154e6115589461154961155d98956115446010995f9a6114f7565b61150d565b6111b7565b6111cd565b6111e3565b611215565b90565b346115945761159061157f6115763660046114a1565b93929092611523565b611587610402565b918291826104ed565b0390f35b610408565b5f9103126115a357565b61040c565b7f000000000000000000000000000000000000000000000000000000000000000090565b91906115df905f60208501940190610533565b565b34611611576115f1366004611599565b61160d6115fc6115a8565b611604610402565b918291826115cc565b0390f35b610408565b346116455761162f611629366004610599565b90614455565b611637610402565b8061164181610477565b0390f35b610408565b3461165f5761165a366004611599565b614abf565b610408565b7f000000000000000000000000000000000000000000000000000000000000000090565b346116b857611698366004611599565b6116b46116a3611664565b6116ab610402565b918291826115cc565b0390f35b610408565b906116c790611074565b5f5260205260405f2090565b5490565b5f5260205f2090565b6116e9816116d3565b821015611703576116fb6001916116d7565b910201905f90565b611096565b90565b61171b90600861172093026111f9565b611708565b90565b9061172e915461170b565b90565b61173c90600c6116bd565b611745816116d3565b8210156117625761175f91611759916116e0565b90611723565b90565b5f80fd5b61176f90610497565b9052565b9190611786905f60208501940190611766565b565b346117b9576117b56117a461179e36600461101f565b90611731565b6117ac610402565b91829182611773565b0390f35b610408565b346117d7576117ce366004610ed0565b92919091614f85565b610408565b90959492611827946118166118209261180c60809661180260a088019c5f890190610a0b565b60208701906109d7565b60408501906109d7565b6060830190610a18565b0190610533565b565b3461185e5761185a61184561183f366004610599565b90614f8e565b91611851959395610402565b958695866117dc565b0390f35b610408565b90916060828403126118985761189561187e845f850161042e565b9361188c816020860161042e565b93604001610c4e565b90565b61040c565b906118a7906105c9565b5f5260205260405f2090565b906118bd906105c9565b5f5260205260405f2090565b5490565b5f5260205f2090565b6118df816118c9565b8210156118f9576118f16001916118cd565b910201905f90565b611096565b61190e90600861191393026111f9565b610703565b90565b9061192191546118fe565b90565b9061193361193892600961189d565b6118b3565b611941816118c9565b82101561195e5761195b91611955916118d6565b90611916565b90565b5f80fd5b346119935761198f61197e611978366004611863565b91611924565b611986610402565b918291826115cc565b0390f35b610408565b346119c7576119b16119ab36600461117d565b916150cd565b6119b9610402565b806119c381610477565b0390f35b610408565b906119d690611074565b5f5260205260405f2090565b90565b6119f59060086119fa93026111f9565b6119e2565b90565b90611a0891546119e5565b90565b611a2190611a1c6011915f926119cc565b6119fd565b90565b90565b611a3090611a24565b9052565b9190611a47905f60208501940190611a27565b565b34611a7957611a75611a64611a5f366004610f4f565b611a0b565b611a6c610402565b91829182611a34565b0390f35b610408565b611a8e906008611a9393026111f9565b6106df565b90565b90611aa19154611a7e565b90565b611ab060035f90611a96565b90565b34611ae357611ac3366004611599565b611adf611ace611aa4565b611ad6610402565b91829182610ca3565b0390f35b610408565b5190565b60209181520190565b60200190565b611b0490610527565b9052565b611b1190611a24565b9052565b90602080611b3793611b2d5f8201515f860190611afb565b0151910190611b08565b565b90611b4681604093611b15565b0190565b60200190565b90611b6d611b67611b6084611ae8565b8093611aec565b92611af5565b905f5b818110611b7d5750505090565b909192611b96611b906001928651611b39565b94611b4a565b9101919091611b70565b611bb59160208201915f818403910152611b50565b90565b34611be857611bc8366004611599565b611be4611bd36152ca565b611bdb610402565b91829182611ba0565b0390f35b610408565b90611bf7906105c9565b5f5260205260405f2090565b90611c0d906105c9565b5f5260205260405f2090565b90611c2390611074565b5f5260205260405f2090565b611c3f906008611c4493026111f9565b610616565b90565b90611c529154611c2f565b90565b90611c7d92611c73611c7892611c6e600e955f96611bed565b611c03565b611c19565b611c47565b90565b9190611c93905f602085019401906109d7565b565b34611cc657611cc2611cb1611cab36600461117d565b91611c55565b611cb9610402565b91829182611c80565b0390f35b610408565b611cd490610497565b90565b90611ce190611ccb565b5f5260205260405f2090565b611cf9611cfe9161063d565b610735565b90565b611d0b9054611ced565b90565b611d19906014611cd7565b90611d255f83016106f6565b91611d32600182016106f6565b91611d4a6002611d43818501610802565b9301611d01565b90565b611d5690610a66565b9052565b611d8f611d9694611d85606094989795611d7b608086019a5f870190610a18565b6020850190610a18565b6040830190611d4d565b01906104e0565b565b34611dcc57611dc8611db3611dae3660046104bd565b611d0e565b90611dbf949294610402565b94859485611d5a565b0390f35b610408565b34611de657611de13660046104bd565b615398565b610408565b9694929099989795939161012088019a5f8901611e0791610a18565b60208801611e14916104e0565b60408701611e2191610a18565b60608601611e2e91610a18565b60808501611e3b91610a18565b60a08401611e4891610a18565b60c08301611e5591610a18565b60e08201611e6291610a18565b61010001611e6f91610a18565b565b34611eab57611e81366004611599565b611ea7611e8c61542d565b95611e9e999799959195949294610402565b998a998a611deb565b0390f35b610408565b90565b611ec7611ec2611ecc92611eb0565b6105c6565b6107d7565b90565b611eda612328611eb3565b90565b611ee5611ecf565b90565b34611f1857611ef8366004611599565b611f14611f03611edd565b611f0b610402565b91829182610ca3565b0390f35b610408565b90608082820312611f7757611f34815f840161042e565b92611f42826020850161042e565b92611f508360408301610c4e565b92606082013567ffffffffffffffff8111611f7257611f6f9201610e05565b90565b610410565b61040c565b5190565b60209181520190565b60200190565b90611f9c81602093611afb565b0190565b60200190565b90611fc3611fbd611fb684611f7c565b8093611f80565b92611f89565b905f5b818110611fd35750505090565b909192611fec611fe66001928651611f8f565b94611fa0565b9101919091611fc6565b5190565b60209181520190565b60200190565b9061201681602093610a59565b0190565b60200190565b9061203d61203761203084611ff6565b8093611ffa565b92612003565b905f5b81811061204d5750505090565b9091926120666120606001928651612009565b9461201a565b9101919091612040565b909161208a6120989360408401908482035f860152611fa6565b916020818403910152612020565b90565b346120d0576120b76120ae366004611f1d565b9291909161569e565b906120cc6120c3610402565b92839283612070565b0390f35b610408565b34612105576120e5366004611599565b6121016120f0615ace565b6120f8610402565b91829182611a34565b0390f35b610408565b7f000000000000000000000000000000000000000000000000000000000000000090565b3461215e5761213e366004611599565b61215a61214961210a565b612151610402565b918291826115cc565b0390f35b610408565b7f000000000000000000000000000000000000000000000000000000000000000090565b346121b757612197366004611599565b6121b36121a2612163565b6121aa610402565b918291826115cc565b0390f35b610408565b90565b6121d36121ce6121d8926121bc565b6105c6565b6107d7565b90565b6121e560fa6121bf565b90565b6121f06121db565b90565b3461222357612203366004611599565b61221f61220e6121e8565b612216610402565b91829182610ca3565b0390f35b610408565b909160608284031261225d5761225a612243845f85016104ae565b93612251816020860161042e565b93604001610d05565b90565b61040c565b346122915761227b612275366004612228565b91615aee565b612283610402565b8061228d81610477565b0390f35b610408565b6122a260015f90611c47565b90565b346122d5576122b5366004611599565b6122d16122c0612296565b6122c8610402565b91829182611c80565b0390f35b610408565b600311156122e457565b61080f565b906122f3826122da565b565b6122fe906122e9565b90565b61230a906122f5565b9052565b346123235761231e3660046104bd565b615b40565b610408565b9061233290611ccb565b5f5260205260405f2090565b60ff1690565b6123506123559161072f565b61233e565b90565b6123629054612344565b90565b634e487b7160e01b5f52602260045260245ffd5b9060016002830492168015612399575b602083101461239457565b612365565b91607f1691612389565b60209181520190565b5f5260205f2090565b905f92918054906123cf6123c883612379565b80946123a3565b916001811690815f1461242657506001146123ea575b505050565b6123f791929394506123ac565b915f925b81841061240e57505001905f80806123e5565b600181602092959395548486015201910192906123fb565b92949550505060ff19168252151560200201905f80806123e5565b9061244b916123b5565b90565b9061246e6124679261245e610402565b93848092612441565b038361086a565b565b61247b906015612328565b906124875f8301610722565b9161249460018201610722565b916124a160028301610722565b916124ae60038201610722565b916124bb60048301610722565b916124c860048201612358565b916124d560048301610776565b916124e2600582016106f6565b916124ef600683016106f6565b916124fc600782016106f6565b91612509600883016106f6565b91612516600982016106f6565b9161252f600b612528600a85016106f6565b930161244e565b90565b5190565b60209181520190565b90825f9392825e0152565b6125696125726020936125779361256081612532565b93848093612536565b9586910161253f565b61084c565b0190565b9c9a9896949290918d9c9a989694926101c08e019e5f0161259b91610533565b60208d016125a891610533565b60408c016125b591610533565b60608b016125c291610533565b60808a016125cf91610533565b60a089016125dc91612301565b60c088016125e9916104e0565b60e087016125f691610a18565b610100860161260491610a18565b610120850161261291610a18565b610140840161262091610a18565b610160830161262e91610a18565b610180820161263c91610a18565b808203906101a0015261264e9161254a565b90565b346126945761269061266c6126673660046104bd565b612470565b9a6126879e9c9e9a919a999299989398979497969596610402565b9e8f9e8f61257b565b0390f35b610408565b7f000000000000000000000000000000000000000000000000000000000000000090565b346126ed576126cd366004611599565b6126e96126d8612699565b6126e0610402565b918291826115cc565b0390f35b610408565b6126fe60045f90611a96565b90565b3461273157612711366004611599565b61272d61271c6126f2565b612724610402565b91829182610ca3565b0390f35b610408565b919060408382031261275e578061275261275b925f8601610d05565b936020016104ae565b90565b61040c565b9061276d90611074565b5f5260205260405f2090565b9061278390611ccb565b5f5260205260405f2090565b6127a86127ad926127a3600d935f94612763565b612779565b611a96565b90565b346127e1576127dd6127cc6127c6366004612736565b9061278f565b6127d4610402565b91829182610ca3565b0390f35b610408565b34612816576127f6366004611599565b612812612801615b7d565b612809610402565b91829182610ca3565b0390f35b610408565b90612825906105c9565b5f5260205260405f2090565b9061283b906105c9565b5f5260205260405f2090565b9061285190611074565b5f5260205260405f2090565b906128859261287b61288092612876600f955f9661281b565b612831565b612847565b611a96565b90565b346128b9576128b56128a461289e36600461117d565b9161285d565b6128ac610402565b91829182610ca3565b0390f35b610408565b5190565b60209181520190565b60200190565b6128da90610414565b9052565b90602080612900936128f65f8201515f8601906128d1565b01519101906128d1565b565b9061290f816040936128de565b0190565b60200190565b90612936612930612929846128be565b80936128c2565b926128cb565b905f5b8181106129465750505090565b90919261295f6129596001928651612902565b94612913565b9101919091612939565b61297e9160208201915f818403910152612919565b90565b346129b1576129ad61299c612997366004610f4f565b615c77565b6129a4610402565b91829182612969565b0390f35b610408565b346129e6576129e26129d16129cc366004610f4f565b615c96565b6129d9610402565b91829182612969565b0390f35b610408565b90565b612a026129fd612a07926129eb565b6105c6565b610414565b90565b612a1460ff6129ee565b90565b612a1f612a0a565b90565b34612a5257612a32366004611599565b612a4e612a3d612a17565b612a45610402565b91829182611c80565b0390f35b610408565b7f000000000000000000000000000000000000000000000000000000000000000090565b34612aab57612a8b366004611599565b612aa7612a96612a57565b612a9e610402565b918291826115cc565b0390f35b610408565b34612ac557612ac03660046104bd565b615cb5565b610408565b90565b612ae1612adc612ae692612aca565b6105c6565b6107d7565b90565b612af4612710612acd565b90565b612aff612ae9565b90565b34612b3257612b12366004611599565b612b2e612b1d612af7565b612b25610402565b91829182610ca3565b0390f35b610408565b919060a083820312612b8857612b4f815f85016104ae565b92612b5d826020830161042e565b92612b85612b6e846040850161042e565b93612b7c816060860161042e565b9360800161042e565b90565b61040c565b612b96906122f5565b9052565b612ba3906104db565b9052565b9061018080612c9893612bc05f8201515f860190611afb565b612bd260208201516020860190611afb565b612be460408201516040860190611afb565b612bf660608201516060860190611afb565b612c0860808201516080860190612b8d565b612c1a60a082015160a0860190612b9a565b612c2c60c082015160c0860190610a59565b612c3e60e082015160e0860190610a59565b612c526101008201516101008601906128d1565b612c666101208201516101208601906128d1565b612c7a6101408201516101408601906128d1565b612c8e6101608201516101608601906128d1565b0151910190612b9a565b565b9190612cae905f6101a08501940190612ba7565b565b34612ce457612ce0612ccf612cc6366004612b37565b93929092615dd5565b612cd7610402565b91829182612c9a565b0390f35b610408565b612cfd612cf7366004610599565b9061604e565b612d05610402565b80612d0f81610477565b0390f35b34612d4257612d2c612d26366004610599565b9061627d565b612d34610402565b80612d3e81610477565b0390f35b610408565b34612d7b57612d77612d66612d5d366004610ed0565b92919091616489565b612d6e610402565b918291826104ed565b0390f35b610408565b90612d8a906105c9565b5f5260205260405f2090565b90612da0906105c9565b5f5260205260405f2090565b90612db6906105c9565b5f5260205260405f2090565b612dce612dd391610664565b610735565b90565b612de09054612dc2565b90565b612e009291612df6612dfb92600b612d80565b612d96565b612dac565b90612e0c5f8301610630565b91612e185f8201610657565b91612e2f5f612e28818501612dd6565b93016106ab565b90565b612e67612e6e94612e5d606094989795612e53608086019a5f8701906109d7565b60208501906109d7565b60408301906104e0565b01906109d7565b565b34612ea557612ea1612e8c612e8636600461043d565b91612de3565b90612e98949294610402565b94859485612e32565b0390f35b610408565b612eb3816104db565b03612eba57565b5f80fd5b90503590612ecb82612eaa565b565b9091606082840312612f0257612eff612ee8845f85016104ae565b93612ef68160208601610d05565b93604001612ebe565b90565b61040c565b34612f1d57612f17366004612ecd565b91616699565b610408565b90565b612f39612f34612f3e92612f22565b6105c6565b6107d7565b90565b612f4c6102ee612f25565b90565b612f57612f41565b90565b34612f8a57612f6a366004611599565b612f86612f75612f4f565b612f7d610402565b91829182610ca3565b0390f35b610408565b67ffffffffffffffff8111612fa75760208091020190565b610856565b5f80fd5b90929192612fc5612fc082612f8f565b610893565b938185526020808601920283019281841161300257915b838310612fe95750505050565b60208091612ff78486610d05565b815201920191612fdc565b612fac565b9080601f830112156130255781602061302293359101612fb0565b90565b610d99565b91909160a0818403126130ac57613043835f830161042e565b92613051816020840161042e565b92604083013567ffffffffffffffff81116130a75782613072918501613007565b926130808360608301610c4e565b92608082013567ffffffffffffffff81116130a25761309f9201610e05565b90565b610410565b610410565b61040c565b346130e6576130cd6130c436600461302a565b939290926166bb565b906130e26130d9610402565b92839283612070565b0390f35b610408565b5f80fd5b5f7f4d6f64756c653a20557365204945546f757247616d6500000000000000000000910152565b6131236016602092612536565b61312c816130ef565b0190565b6131459060208101905f818303910152613116565b90565b613150610402565b62461bcd60e51b81528061316660048201613130565b0390fd5b5f90565b61317661316a565b5061317f610402565b62461bcd60e51b81528061319560048201613130565b0390fd5b5f90565b90565b6131c06131c5916131af613199565b506131b8613199565b506015612328565b61319d565b906131dd60016131d65f8501610722565b9301610722565b90565b5f90565b90565b9161321d61322292613218613227956131fe6131e0565b506132076131e0565b5061321061316a565b50600b612d80565b612d96565b612dac565b6131e4565b906132335f8301610630565b9061324a5f613243818601610657565b9401612dd6565b91929190565b5f90565b90565b61326b61326661327092613254565b6105c6565b610414565b90565b61328761328261328c92610414565b6105c6565b6107d7565b90565b634e487b7160e01b5f52601260045260245ffd5b634e487b7160e01b5f52601160045260245ffd5b6132c36132c9916107d7565b916107d7565b9081156132d4570490565b61328f565b90565b6132f06132eb6132f5926132d9565b6105c6565b6107d7565b90565b50613301613250565b5061331561330f6001613257565b91610414565b146133285750506133255f6132dc565b90565b61333561333b9291613273565b906132b7565b90565b613346610402565b62461bcd60e51b81528061335c60048201613130565b0390fd5b5f7f416d6f756e74206d7573742062652067726561746572207468616e2030000000910152565b613394601d602092612536565b61339d81613360565b0190565b6133b69060208101905f818303910152613387565b90565b156133c057565b6133c8610402565b62461bcd60e51b8152806133de600482016133a1565b0390fd5b6133eb9061104c565b90565b6133f7906133e2565b90565b61340390611068565b90565b905090565b6134165f8092613406565b0190565b6134239061340b565b90565b67ffffffffffffffff81116134445761344060209161084c565b0190565b610856565b9061345b61345683613426565b610893565b918252565b606090565b3d5f14613480576134753d613449565b903d5f602084013e5b565b613488613460565b9061347e565b61349d6134a3919392936107d7565b926107d7565b82018092116134ae57565b6132a3565b5f1b90565b906134c45f19916134b3565b9181191691161790565b90565b906134e66134e16134ed92611365565b6134ce565b82546134b8565b9055565b6135309194505f935083925061352b9061350961316a565b506135268661352061351a876132dc565b916107d7565b116133b9565b6133ee565b6133fa565b83613539610402565b90816135448161341a565b03925af1613550613465565b506135765761356b6135729161356660036106f6565b61348e565b60036134d1565b5f90565b50600190565b90565b61359361358e613598926132d9565b6105c6565b61051c565b90565b6135a49061357f565b90565b6135b66135bc919392936107d7565b926107d7565b82039182116135c757565b6132a3565b90565b906135d9906105c9565b5f5260205260405f2090565b90565b926135f161316a565b5061361a5f61361461360f613608600889906105e5565b86906105fb565b61357c565b01610684565b61362d61362760016109f3565b916109f3565b036137f257613640928492909192616924565b61365461364f60158390612328565b61319d565b906136605f8301610722565b61367a61367461366f5f61359b565b610527565b91610527565b1480156137cb575b6137c45761369c42613696600885016106f6565b906135a7565b6136a860038401610722565b6136c46136be6136b95f8701610722565b610527565b91610527565b145f146137ad576136e96136e36136dd600986016106f6565b5b6107d7565b916107d7565b106137a6576136fc613701916014611cd7565b6135cc565b9161371761371160028501611d01565b156104db565b61374057505061373b61373561373060014294016106f6565b6107d7565b916107d7565b101590565b61378e92506003600261378061376d600861376661376161378897866135cf565b6135e5565b96016106f6565b61377a5f848801016106f6565b9061348e565b9301016106f6565b9061348e565b6137a161379b42926107d7565b916107d7565b101590565b5050505f90565b6136e96136e36137bf600a86016106f6565b6136de565b5050505f90565b506137d860048301612358565b6137eb6137e560016122e9565b916122e9565b1415613682565b505050505f90565b61380661380b91610611565b610735565b90565b61381890546137fa565b90565b9061382760ff916134b3565b9181191691161790565b61383a906104db565b90565b90565b9061385561385061385c92613831565b61383d565b825461381b565b9055565b90565b5f5260205f2090565b5490565b6138798161386c565b8210156138935761388b600191613863565b910201905f90565b611096565b1b90565b919060086138bc9102916138b660018060a01b0384613898565b92613898565b9181191691161790565b90565b91906138df6138da6138e793611074565b6138c6565b90835461389c565b9055565b908154916801000000000000000083101561391b578261391391600161391995018155613870565b906138c9565b565b610856565b61393d613937613932601384906111e3565b61380e565b156104db565b613945575b50565b61396e9061395f600161395a601384906111e3565b613840565b6139696012613860565b6138eb565b5f613942565b61397d90611068565b90565b6139899061104c565b90565b61399590613980565b90565b6139ac6139a76139b1926132d9565b6105c6565b610414565b90565b6139bd90610414565b60ff81146139cb5760010190565b6132a3565b60016139dc9101610414565b90565b6139e890611068565b90565b5f80fd5b60e01b90565b90505190613a0282610cf1565b565b90505190613a1182612eaa565b565b60031115613a1d57565b5f80fd5b90505190613a2e82613a13565b565b9091606082840312613a6557613a62613a4b845f85016139f5565b93613a598160208601613a04565b93604001613a21565b90565b61040c565b613a72610402565b3d5f823e3d90fd5b613a86613a8c91610414565b91610414565b019060ff8211613a9857565b6132a3565b9190604083820312613ac55780613ab9613ac2925f86016139f5565b936020016139f5565b90565b61040c565b929190613ad561316a565b50613b07613b01613afc613af5613aee600a89906111b7565b85906111cd565b86906111e3565b61380e565b156104db565b613e7b57613b1f613b1a94929430613974565b61398c565b91613b295f613998565b905b81613b3e613b3888610414565b91610414565b11613cae57613b6b613b66613b5f613b58600b8590612d80565b8690612d96565b8490612dac565b6131e4565b95613b755f613998565b5b80613b93613b8d613b885f8c01610630565b610414565b91610414565b1015613c9a57613bdc6060613bac858888908692616924565b613bb5896139df565b613bd16397556f67613bc5610402565b958694859384936139ef565b835260048301611773565b03915afa8015613c95575f8080939092613c63575b509091613c07613c0160026122e9565b916122e9565b149081613c48575b509081613c37575b50613c2a57613c25906139d0565b613b76565b5050505050505050600190565b613c429150156104db565b5f613c17565b9050613c5c613c568a610527565b91610527565b145f613c0f565b915050613c87915060603d8111613c8e575b613c7f818361086a565b810190613a30565b915f613bf1565b503d613c75565b613a6a565b5091613ca79196506139b4565b9094613b2b565b9050613cd8613cc7613cc2600284906135cf565b6135e5565b95613cd26001613257565b90613a7a565b905b81613cf8613cf2613ced60088a01610630565b610414565b91610414565b1015613e7157613d26613d21613d1a613d13600b8590612d80565b8690612d96565b8490612dac565b6131e4565b95613d3b613d355f8901612dd6565b156104db565b613e6557613d485f613998565b5b80613d66613d60613d5b5f8c01610630565b610414565b91610414565b1015613e5057613daf6040613d7f858888908692616924565b613d88896139df565b613da4631ec3b8ad613d98610402565b958694859384936139ef565b835260048301611773565b03915afa8015613e4b575f80929091613e1a575b50613dd6613dd08a610527565b91610527565b14908115613dff575b50613df257613ded906139d0565b613d49565b5050505050505050600190565b9050613e13613e0d89610527565b91610527565b145f613ddf565b9050613e3d915060403d8111613e44575b613e35818361086a565b810190613a9d565b905f613dc3565b503d613e2b565b613a6a565b5091613e5e9196505b6139d0565b9094613cda565b91613e5e919650613e59565b5050505050505f90565b505050505f90565b613e8b610402565b62461bcd60e51b815280613ea160048201613130565b0390fd5b60101b90565b90613eb962ff000091613ea5565b9181191691161790565b613ecc906109f3565b90565b90565b90613ee7613ee2613eee92613ec3565b613ecf565b8254613eab565b9055565b60181b90565b90613f0763ff00000091613ef2565b9181191691161790565b90565b90613f29613f24613f30926105c9565b613f11565b8254613ef8565b9055565b60201b90565b90613f4a64ff0000000091613f34565b9181191691161790565b90613f69613f64613f70926105c9565b613f11565b8254613f3a565b9055565b90613f8560018060a01b03916134b3565b9181191691161790565b90613fa4613f9f613fab92611074565b6138c6565b8254613f74565b9055565b60a01b90565b90613fc460ff60a01b91613faf565b9181191691161790565b90613fe3613fde613fea92613831565b61383d565b8254613fb5565b9055565b60a81b90565b9061400360ff60a81b91613fee565b9181191691161790565b9061402261401d61402992613831565b61383d565b8254613ff4565b9055565b60b01b90565b9061404260ff60b01b9161402d565b9181191691161790565b9061406161405c614068926105c9565b613f11565b8254614033565b9055565b60b81b90565b9061408160ff60b81b9161406c565b9181191691161790565b61409490610a34565b90565b90565b906140af6140aa6140b69261408b565b614097565b8254614072565b9055565b6140c390610832565b90565b90565b906140de6140d96140e5926140ba565b6140c6565b825461381b565b9055565b906140fb6140f683612f8f565b610893565b918252565b369037565b9061412a614112836140e9565b926020806141208693612f8f565b9201910390614100565b565b600161413891016107d7565b90565b9061414582611f7c565b811015614156576020809102010190565b611096565b9061416590610527565b9052565b9190600861418491029161417e60ff84613898565b92613898565b9181191691161790565b91906141a461419f6141ac936105c9565b613f11565b908354614169565b9055565b6141c2916141bc6131e0565b9161418e565b565b6141d36141d9919392936107d7565b926107d7565b916141e58382026107d7565b9281840414901517156141f457565b6132a3565b600190818003010490565b9190600861421f9102916142195f1984613898565b92613898565b9181191691161790565b919061423f61423a61424793611365565b6134ce565b908354614204565b9055565b61425d91614257613250565b91614229565b565b5b81811061426b575050565b806142785f60019361424b565b01614260565b909182811061428d575b505050565b6142ab6142a561429f6142b6956141f9565b926141f9565b926118cd565b91820191019061425f565b5f8080614288565b906801000000000000000081116142e757816142dc6142e5936118c9565b9082815561427e565b565b610856565b5f6142f6916142be565b565b634e487b7160e01b5f525f60045260245ffd5b905f0361431d5761431b906142ec565b565b6142f8565b61432e61433491610414565b91610414565b90039060ff821161434157565b6132a3565b90565b61435d61435861436292614346565b6105c6565b610414565b90565b61437161437791610414565b91610414565b908115614382570490565b61328f565b9061439c6143976143a3926105c9565b613f11565b825461381b565b9055565b60081b90565b906143ba61ff00916143a7565b9181191691161790565b906143d96143d46143e0926105c9565b613f11565b82546143ad565b9055565b906143f96143f461440092613831565b61383d565b8254613eab565b9055565b61440d90611068565b90565b919061442661442161442e93613831565b61383d565b908354614169565b9055565b6144449161443e61316a565b91614410565b565b5f91031261445057565b61040c565b91909161447661447161446a600884906105e5565b85906105fb565b61357c565b9061448b614486600283906135cf565b6135e5565b936144985f5f8501613ed2565b6144ac6144a45f613998565b5f8501613f14565b6144c06144b85f613998565b5f8501613f54565b6144d56144cc5f6132dc565b600185016134d1565b6144ea6144e15f6132dc565b600285016134d1565b6144ff6144f65f61359b565b60038501613f8f565b61450c5f60038501613fce565b6145195f6003850161400d565b61452d614524612a0a565b6003850161404c565b61453a5f6003850161409a565b6145516145465f6132dc565b5f60048601016134d1565b61456961455d5f6132dc565b600160048601016134d1565b6145795f600260048601016140c9565b6145916145855f6132dc565b600360048601016134d1565b6145af6145aa6145a36009859061189d565b83906118b3565b613860565b946145c16145bc8761386c565b614105565b936145cb5f6132dc565b5b806145e76145e16145dc8b61386c565b6107d7565b916107d7565b10156146245761461f9061461a6146086146028b8490613870565b90611916565b614615899184909261413b565b61415b565b61412c565b6145cc565b5090919293946146335f6132dc565b5b8061464f6146496146448b61386c565b6107d7565b916107d7565b10156146c6576146c1906146bc5f6146b761467461466e8d8690613870565b90611916565b61469c8b6146976146908d61468b8894600a6111b7565b6111cd565b84906111e3565b613840565b6146b26146ab600e8d90611bed565b8b90611c03565b611c19565b6141b0565b61412c565b614634565b50919550936146f8906146ee5f6146e96146e26009899061189d565b87906118b3565b61430b565b8490849091616971565b6147015f613998565b945b8561472161471b61471660088501610630565b610414565b91610414565b1015614ab75761474f61474a61474361473c600b8890612d80565b8690612d96565b8890612dac565b6131e4565b946147586131e0565b506147645f8701610630565b6147766147705f613998565b91610414565b115f146149ff576147d261478b5f8801610630565b965b6147a16147995f613998565b5f8301614387565b6147b56147ad5f613998565b5f83016143c4565b6147c15f5f83016143e4565b5f6147cb81613998565b9101613f14565b6147db5f613998565b5b806147ef6147e989610414565b91610414565b10156149ec5761480386868a908492616924565b9061483c604061481230614404565b631ec3b8ad906148318692614825610402565b958694859384936139ef565b835260048301611773565b03915afa9081156149e7578a88918a935f809290916149b6575b508061487261486c6148675f61359b565b610527565b91610527565b03614974575b508061489461488e6148895f61359b565b610527565b91610527565b03614933575b505050506148a730614404565b9163d893088d90833b1561492e576148de936148d35f80946148c7610402565b978895869485936139ef565b835260048301611773565b03925af1918215614929576148f8926148fd575b506139d0565b6147dc565b61491c905f3d8111614922575b614914818361086a565b810190614446565b5f6148f2565b503d61490a565b613a6a565b6139eb565b61496161495a614966936149555f9661495061496b9960106114f7565b61150d565b6111b7565b86906111cd565b6111e3565b614432565b86868a5f61489a565b5f6149ab6149b0926149a661499f61499861499160108c906114f7565b8a9061150d565b88906111b7565b8a906111cd565b6111e3565b614432565b5f614878565b90506149d9915060403d81116149e0575b6149d1818361086a565b810190613a9d565b905f614856565b503d6149c7565b613a6a565b509450946149f9906139d0565b94614703565b86614a12614a0c5f613998565b91610414565b145f14614a41576147d2614a3a614a2a5f84016106d2565b614a346002614349565b90614365565b965b61478d565b6147d2614ab1614aa1614a85614a80614a66614a5f600b8c90612d80565b8a90612d96565b614a7a8d614a746001613257565b90614322565b90612dac565b6131e4565b614a9b5f614a94818401610630565b92016106ab565b90614322565b614aab6002614349565b90614365565b96614a3c565b509350505050565b614ac7613250565b50614ad0610402565b62461bcd60e51b815280614ae660048201613130565b0390fd5b614af2616a18565b614db3565b5f7f4d41000000000000000000000000000000000000000000000000000000000000910152565b614b2b6002602092612536565b614b3481614af7565b0190565b614b4d9060208101905f818303910152614b1e565b90565b15614b5757565b614b5f610402565b62461bcd60e51b815280614b7560048201614b38565b0390fd5b5f7f4e50000000000000000000000000000000000000000000000000000000000000910152565b614bad6002602092612536565b614bb681614b79565b0190565b614bcf9060208101905f818303910152614ba0565b90565b15614bd957565b614be1610402565b62461bcd60e51b815280614bf760048201614bba565b0390fd5b5f7f4f54000000000000000000000000000000000000000000000000000000000000910152565b614c2f6002602092612536565b614c3881614bfb565b0190565b614c519060208101905f818303910152614c22565b90565b15614c5b57565b614c63610402565b62461bcd60e51b815280614c7960048201614c3c565b0390fd5b5f7f544f000000000000000000000000000000000000000000000000000000000000910152565b614cb16002602092612536565b614cba81614c7d565b0190565b614cd39060208101905f818303910152614ca4565b90565b15614cdd57565b614ce5610402565b62461bcd60e51b815280614cfb60048201614cbe565b0390fd5b604090614d28614d2f9496959396614d1e60608401985f850190611766565b60208301906109d7565b0190610a18565b565b5f7f4d53000000000000000000000000000000000000000000000000000000000000910152565b614d656002602092612536565b614d6e81614d31565b0190565b614d879060208101905f818303910152614d58565b90565b15614d9157565b614d99610402565b62461bcd60e51b815280614daf60048201614d72565b0390fd5b929092614f3b5f80614dc9848888908892616924565b614ec9614de0614ddb60158490612328565b61319d565b614e08614def60048301612358565b614e02614dfc60016122e9565b916122e9565b14614b50565b33614e25614e1f614e1a878501610722565b610527565b91610527565b148015614f5b575b614e3690614bd2565b614e5e33614e57614e51614e4c60038601610722565b610527565b91610527565b1415614c54565b614ec2614ebc614e7a42614e74600886016106f6565b906135a7565b92614e8760038201610722565b614ea3614e9d614e988a8501610722565b610527565b91610527565b148714614f4a576009614eb691016106f6565b5b6107d7565b916107d7565b1015614cd6565b7f000000000000000000000000000000000000000000000000000000000000000090614f248691614f1542614efc610402565b94859360046020860163501fd27160e11b815201614cff565b6020820181038252038261086a565b602081019051915af4614f35613465565b50614d8a565b92919033915f93600195616a6e565b600a614f5691016106f6565b614eb7565b50614e3633614f7d614f77614f7260018601610722565b610527565b91610527565b149050614e2d565b614aea565b5f90565b614fd791614fcd614fd292614fa1614f8a565b50614faa6131e0565b50614fb36131e0565b50614fbc613250565b50614fc5613199565b5060086105e5565b6105fb565b61357c565b90614fe35f8301610684565b91614fef5f82016106ab565b92614ffb5f83016106d2565b92615014600361500d600186016106f6565b9401610722565b919493929190565b61503061502b615035926107d7565b6105c6565b611a24565b90565b61504461504991610611565b6119e2565b90565b6150569054615038565b90565b61506861506e91939293611a24565b92611a24565b808301925f8285121581831216928512911215161761508957565b6132a3565b6150a261509d6150a792611a24565b6105c6565b611a24565b90565b90565b906150c26150bd6150c99261508e565b6150aa565b82546134b8565b9055565b909291506150ef6150ea6150e36009849061189d565b85906118b3565b613860565b6150f85f613998565b5b8061511461510e6151098561386c565b6107d7565b91613273565b10156151bf5761517b9061513261512c848390613870565b90611916565b61515a61515561514e615147600f899061281b565b8a90612831565b8390612847565b6106f6565b908161516e6151685f6132dc565b916107d7565b11615180575b50506139b4565b6150f9565b6151b26151a361519b6151b89461519685613920565b61501c565b9260116119cc565b916151ad8361504c565b615059565b906150ad565b5f80615174565b5050509050565b606090565b67ffffffffffffffff81116151e35760208091020190565b610856565b906151fa6151f5836151cb565b610893565b918252565b6152096040610893565b90565b5f90565b5f90565b61521c6151ff565b906020808361522961520c565b815201615234615210565b81525050565b615242615214565b90565b5f5b82811061525357505050565b60209061525e61523a565b8184015201615247565b9061528d615275836151e8565b9260208061528386936151cb565b9201910390615245565b565b6152996040610893565b90565b906152a690611a24565b9052565b906152b482611ae8565b8110156152c5576020809102010190565b611096565b6152d26151c6565b506152e56152e060126118c9565b615268565b6152ee5f6132dc565b5b8061530b61530561530060126118c9565b6107d7565b916107d7565b10156153945761538f9061538861532d615327601284906118d6565b90611916565b615375615358615353601161534d615347601289906118d6565b90611916565b906119cc565b61504c565b61536c61536361528f565b935f850161415b565b6020830161529c565b84839161538283836152aa565b526152aa565b515061412c565b6152ef565b5090565b6153a061316a565b506153aa816131a0565b5050615b40565b90565b6153c86153c36153cd926153b1565b6105c6565b6107d7565b90565b90565b6153e76153e26153ec926153d0565b6105c6565b6107d7565b90565b90565b61540661540161540b926153ef565b6105c6565b6107d7565b90565b90565b61542561542061542a9261540e565b6105c6565b6107d7565b90565b615435613250565b5061543e61316a565b50615447613250565b50615450613250565b50615459613250565b50615462613250565b5061546b613250565b50615474613250565b5061547d613250565b5061548860046106f6565b9061549360036106f6565b61549b616adf565b6154c26154b2826154ac60056153b4565b906141c4565b6154bc60646153d3565b906132b7565b826154d56154cf846107d7565b916107d7565b1015936154e38383906135a7565b9061550b6154fb836154f560056153b4565b906141c4565b615505605f6153f2565b906132b7565b906155336155238461551d605a615411565b906141c4565b61552d605f6153f2565b906132b7565b9061553c616b94565b90565b606090565b606090565b67ffffffffffffffff81116155615760208091020190565b610856565b9061557861557383615549565b610893565b918252565b369037565b906155a761558f83615566565b9260208061559d8693615549565b920191039061557d565b565b5190565b906155b7826155a9565b8110156155c8576020809102010190565b611096565b6155d79051610414565b90565b906155e490610414565b9052565b67ffffffffffffffff81116156005760208091020190565b610856565b90615617615612836155e8565b610893565b918252565b369037565b9061564661562e83615605565b9260208061563c86936155e8565b920191039061561c565b565b9061565282611ff6565b811015615663576020809102010190565b611096565b615671906107d7565b5f19811461567f5760010190565b6132a3565b61568e9051610527565b90565b61569b90516107d7565b90565b939192906156aa61553f565b506156b3615544565b506156d26156cd6156c66009889061189d565b83906118b3565b613860565b946156fb5f6156f56156f06156e9600886906105e5565b86906105fb565b61357c565b016106d2565b8061570e6157085f613998565b91610414565b115f14615aae575b9261573b6157366157318661572b6001613257565b90613a7a565b613273565b615582565b946157455f6132dc565b5b8061576161575b6157568c61386c565b6107d7565b916107d7565b1015615830576157cc906157a76157a28b61579c61579661578e615787600e8c90611bed565b8c90611c03565b928690613870565b90611916565b90611c19565b610630565b806157ba6157b45f613998565b91610414565b1180615815575b6157d1575b5061412c565b615746565b61580f9061580a8a6158046157fe6157f96157f46157ee87613273565b856155ad565b6155cd565b6139b4565b93613273565b906155ad565b6155da565b5f6157c6565b50806158296158238a610414565b91610414565b11156157c1565b5093919261588497969395919561584e6158498961386c565b614105565b9261586061585b8a61386c565b615621565b9461586a5f6132dc565b978a61588f61588961587b5f6132dc565b9e8f5b9361386c565b6107d7565b916107d7565b1015615a05578a809c6158af6158a96158849e8390613870565b90611916565b6158d76158d26158cb6158c4600e8b90611bed565b8b90611c03565b8390611c19565b610630565b806158ea6158e45f613998565b91610414565b11806159ea575b61590f575b505061588961590761588f9261412c565b9e9d8f61587e565b615939908c899161593261592d826159278d91613273565b906155ad565b6155cd565b9192616df2565b908d888a8461595061594a5f6132dc565b916107d7565b1161595e575b5050506158f6565b615997929161598561597e61598a936159798994600f61281b565b612831565b8690612847565b6134d1565b8290848b908d92936134f1565b6159a4575b8d888a615956565b6159e261588f939d6159dd8d6159d8615889968f6159d0906159cb6159079988909261413b565b61415b565b849092615648565b6107da565b615668565b9c925061599c565b50806159fe6159f888610414565b91610414565b11156158f1565b985050505050955091935050615a1a83614105565b93615a2484615621565b92615a2e5f6132dc565b5b80615a42615a3c886107d7565b916107d7565b1015615aa657615aa190615a74615a62615a5d86849061413b565b615684565b615a6f8a9184909261413b565b61415b565b615a9c615a8a615a85878490615648565b615691565b615a978891849092615648565b6107da565b61412c565b615a2f565b509293505050565b50615ac55f615abf600284906135cf565b01610630565b615716565b5f90565b615ad6615aca565b50615aeb615ae6601133906119cc565b61504c565b90565b615afc615b01916015612328565b61319d565b90615b14615b0e5f613998565b91610414565b145f14615b2a575f615b27929101613f8f565b5b565b6001615b37929101613f8f565b615b28565b5f90565b615b48613199565b50615b5161316a565b50615b5a615b3c565b50615b63610402565b62461bcd60e51b815280615b7960048201613130565b0390fd5b615b85613250565b50615b9060126118c9565b90565b606090565b67ffffffffffffffff8111615bb05760208091020190565b610856565b90615bc7615bc283615b98565b610893565b918252565b615bd66040610893565b90565b90615c0f615c065f615be9615bcc565b94615c00615bf8838301610630565b8388016155da565b01610657565b602084016155da565b565b615c1a90615bd9565b90565b90615c27826110aa565b615c3081615bb5565b92615c3e60208501916110ae565b5f915b838310615c4e5750505050565b600160208192615c5d85615c11565b815201920192019190615c41565b615c7490615c1d565b90565b615c8e615c9391615c86615b93565b506016611080565b615c6b565b90565b615cad615cb291615ca5615b93565b506018611080565b615c6b565b90565b615cbd610402565b62461bcd60e51b815280615cd360048201613130565b0390fd5b615ce26101a0610893565b90565b5f90565b5f90565b5f90565b5f90565b602090818080808080808080808080615d0c615cd7565b9d8e615d1661520c565b815201615d2161520c565b815201615d2c61520c565b815201615d3761520c565b815201615d42615ce5565b815201615d4d615ce9565b815201615d58615ced565b815201615d63615ced565b815201615d6e615cf1565b815201615d79615cf1565b815201615d84615cf1565b815201615d8f615cf1565b815201615d9a615ce9565b81525050565b615da8615cf5565b90565b615db66101a0610893565b90565b90615dc3906122e9565b9052565b90615dd1906104db565b9052565b615def615df491959295615de7615da0565b506015612328565b61319d565b92615dfe5f61359b565b92615e14615e0e60048701610776565b156104db565b80615f9e575b615f4a575b845f01615e2b90610722565b9585600101615e3990610722565b9580600201615e4790610722565b9581600401615e5590612358565b82600401615e6290610776565b9183600701615e70906106f6565b93600801615e7d906106f6565b94959697985f9a615e8c615dab565b9c5f8e0190615e9a9161415b565b60208d0190615ea89161415b565b60408c0190615eb69161415b565b60608b0190615ec49161415b565b60808a0190615ed291615db9565b60a0890190615ee091615dc7565b60c0880190615eee916107da565b60e0870190615efc916107da565b610100860190615f0b916155da565b610120850190615f1a916155da565b610140840190615f29916155da565b610160830190615f38916155da565b610180820190615f4791615dc7565b90565b9250615f5860028501610722565b615f74615f6e615f695f8801610722565b610527565b91610527565b145f14615f8e57615f8760018501610722565b5b92615e1f565b615f995f8501610722565b615f88565b50615fab60028601610722565b615fc5615fbf615fba5f61359b565b610527565b91610527565b1415615e1a565b5f7f4500000000000000000000000000000000000000000000000000000000000000910152565b6160006001602092612536565b61600981615fcc565b0190565b6160229060208101905f818303910152615ff3565b90565b1561602c57565b616034610402565b62461bcd60e51b81528061604a6004820161600d565b0390fd5b61606c616067616060600884906105e5565b84906105fb565b61357c565b6160775f8201610684565b6160ed5f807f0000000000000000000000000000000000000000000000000000000000000000866160d689916160c76160ae610402565b93849260046020850163e6c455f560e01b815201611123565b6020820181038252038261086a565b602081019051915af46160e7613465565b50616025565b6160f983853391616e38565b61610b6161055f6109f3565b916109f3565b149081616137575b5061611c575050565b616127818390616e47565b906161315f613998565b91613148565b61614391505f01610684565b61615661615060016109f3565b916109f3565b145f616113565b5f7f4653000000000000000000000000000000000000000000000000000000000000910152565b6161916002602092612536565b61619a8161615d565b0190565b6161b39060208101905f818303910152616184565b90565b156161bd57565b6161c5610402565b62461bcd60e51b8152806161db6004820161619e565b0390fd5b6161f36161ee6161f892613254565b6105c6565b6107d7565b90565b5f7f5254000000000000000000000000000000000000000000000000000000000000910152565b61622f6002602092612536565b616238816161fb565b0190565b6162519060208101905f818303910152616222565b90565b1561625b57565b616263610402565b62461bcd60e51b8152806162796004820161623c565b0390fd5b9061629c616297616290600885906105e5565b83906105fb565b61357c565b916162a85f8401610684565b61631e5f807f00000000000000000000000000000000000000000000000000000000000000008561630788916162f86162df610402565b93849260046020850163ea2b1d7360e01b815201611123565b6020820181038252038261086a565b602081019051915af4616318613465565b506161b6565b8061633161632b5f6109f3565b916109f3565b1480616464575b6164485761634e6163485f6109f3565b916109f3565b1480616423575b61635f575b505050565b61636e600361641b9401610722565b9061639d61638461637f60016161df565b614105565b92616398846163925f6132dc565b9061413b565b61415b565b6164135f807f0000000000000000000000000000000000000000000000000000000000000000846163fc88916163ed6163d4610402565b9384926004602085016357f7cf7160e01b815201611123565b6020820181038252038261086a565b602081019051915af461640d613465565b50616254565b919091616971565b5f808061635a565b5061642f5f8401610684565b61644261643c60026109f3565b916109f3565b14616355565b50616454818390616e47565b9061645e5f613998565b91613148565b506164705f8501610684565b61648361647d60016109f3565b916109f3565b14616338565b9261649261316a565b506164bb5f6164b56164b06164a9600889906105e5565b86906105fb565b61357c565b01610684565b6164ce6164c860016109f3565b916109f3565b03616691576164e1928492909192616924565b6164f56164f060158390612328565b61319d565b906165015f8301610722565b61651b6165156165105f61359b565b610527565b91610527565b14801561666a575b6166635761653d42616537600885016106f6565b906135a7565b61654960038401610722565b61656561655f61655a5f8701610722565b610527565b91610527565b145f1461664c5761658a61658461657e600986016106f6565b5b6107d7565b916107d7565b106166455761659d6165a2916014611cd7565b6135cc565b916165b86165b260028501611d01565b156104db565b6165e05750506165db6165d56165d05f4294016106f6565b6107d7565b916107d7565b101590565b61662d925060028061661f61660c600861660561660061662797866135cf565b6135e5565b96016106f6565b6166195f848801016106f6565b9061348e565b9301016106f6565b9061348e565b61664061663a42926107d7565b916107d7565b101590565b5050505f90565b61658a61658461665e600a86016106f6565b61657f565b5050505f90565b5061667760048301612358565b61668a61668460016122e9565b916122e9565b1415616523565b505050505f90565b6166a1610402565b62461bcd60e51b8152806166b760048201613130565b0390fd5b9493926166e3906166ca61553f565b506166d3615544565b506166dd84611f7c565b906132b7565b926166f56166f084611f7c565b614105565b9561670761670285611f7c565b615621565b916167115f6132dc565b9461671b5f6132dc565b5b8061673761673161672c85611f7c565b6107d7565b916107d7565b1015616811578961675161674c84849061413b565b615684565b61678261675d5f613998565b61677d61677661676f600e8b90611bed565b8c90611c03565b8490611c19565b614387565b6167ab8a6167a661679f616798600f8b9061281b565b8c90612831565b8490612847565b6134d1565b6167ba818b888b9189936134f1565b6167cf575b50506167ca9061412c565b61671c565b976167ec616807926167e76167ca959b84909261413b565b61415b565b6168028a6167fd8991849092615648565b6107da565b615668565b969050895f6167bf565b50505050919392505061682383614105565b9361682d84615621565b926168375f6132dc565b5b8061684b616845886107d7565b916107d7565b10156168af576168aa9061687d61686b61686686849061413b565b615684565b6168788a9184909261413b565b61415b565b6168a561689361688e878490615648565b615691565b6168a08891849092615648565b6107da565b61412c565b616838565b509293505050565b5f90565b60f81b90565b6168ca906168bb565b90565b6168d96168de91610414565b6168c1565b9052565b9261690e60016169169461690682886168fe829b9a83996168cd565b0180926168cd565b0180926168cd565b0180926168cd565b0190565b60200190565b5190565b61695b929361694c916169356168b7565b509294616940610402565b958694602086016168e2565b6020820181038252038261086a565b61696d61696782616920565b9161691a565b2090565b929161697c5f6132dc565b5b8061699861699261698d85611f7c565b6107d7565b916107d7565b10156169e8576169e3906169c06169b86169b385849061413b565b615684565b878691616ff5565b6169de6169d66169d185849061413b565b615684565b87869161715d565b61412c565b61697d565b5050509050565b616a036169fe616a0892614346565b6105c6565b6107d7565b90565b616a1560026169ef565b90565b616a215f6106f6565b616a3a616a34616a2f616a0b565b6107d7565b916107d7565b14616a5257616a50616a4a616a0b565b5f6134d1565b565b5f633ee5aeb560e01b815280616a6a60048201610477565b0390fd5b909550616a7f818784908692616924565b5094909192939461736a565b5490565b90565b616aa6616aa1616aab92616a8f565b6105c6565b6107d7565b90565b5f5260205f2090565b616ac081616a8b565b821015616ada57616ad2600191616aae565b910201905f90565b611096565b616ae7613250565b50616af26005616a8b565b616b04616afe5f6132dc565b916107d7565b14616b6157616b1360046106f6565b616b2e616b28616b236005616a8b565b6107d7565b916107d7565b10616b4057616b3d60066106f6565b90565b616b5e616b586005616b5260046106f6565b90616ab7565b90611a96565b90565b616b726729a2241af62c0000616a92565b90565b90565b616b8c616b87616b9192616b75565b6105c6565b6107d7565b90565b616b9c613250565b50616bb0616bab6103e8616b78565b614105565b90616bba5f6132dc565b91616bc45f613998565b5b80616be1616bdb616bd66001610630565b610414565b91610414565b1015616dee57616bfb616bf6600283906135cf565b6135e5565b92616c055f613998565b5b80616c23616c1d616c185f8901610657565b610414565b91610414565b1015616ddd57616c47616c42616c3b600886906105e5565b83906105fb565b61357c565b616c525f8201610684565b616c64616c5e5f6109f3565b916109f3565b14908115616db7575b50616c81575b616c7c906139d0565b616c06565b616ca3616c9e616c97600998959498859061189d565b83906118b3565b613860565b90616cad5f6132dc565b955b86616cca616cc4616cbf8661386c565b6107d7565b916107d7565b1015616da557616ce4616cde848990613870565b90611916565b935f98616cf05f6132dc565b5b80616d04616cfe8a6107d7565b916107d7565b1015616d9657616d1d616d188a839061413b565b615684565b616d2f616d2989610527565b91610527565b14616d4257616d3d9061412c565b616cf1565b50979194909850616d5560015b156104db565b616d6c575b50616d649061412c565b959692616caf565b616d649195616d8a616d8f92616d858a9184909261413b565b61415b565b615668565b9490616d5a565b509791949098616d5590616d4f565b9550616c7c9150959192959050616c73565b616dc391505f01610684565b616dd6616dd060016109f3565b916109f3565b145f616c6d565b509250616de9906139d0565b616bc5565b5050565b50616dfb613250565b50616e0f616e096001613257565b91610414565b14616e22575050616e1f5f6132dc565b90565b616e2f616e359291613273565b906132b7565b90565b90616e45929190916173ce565b565b9190616e67616e62616e5b6009869061189d565b83906118b3565b613860565b616e705f6132dc565b5b80616e8c616e86616e818561386c565b6107d7565b916107d7565b1015616ecb57616ec690616ec1616ead616ea7858490613870565b90611916565b616eb981898891616ff5565b87869161748d565b61412c565b616e71565b5050509050565b90616edc90611074565b5f5260205260405f2090565b90616ef2906105c9565b5f5260205260405f2090565b90616f08906105c9565b5f5260205260405f2090565b90616f3e60205f616f4494616f36828201616f308488016155cd565b90614387565b0192016155cd565b906143c4565b565b9190616f5757616f5591616f14565b565b6142f8565b90565b634e487b7160e01b5f52603160045260245ffd5b5490565b5f5260205f2090565b616f8981616f73565b821015616fa357616f9b600191616f77565b910201905f90565b611096565b5f80910155565b905f03616fc157616fbf90616fa8565b565b6142f8565b616fcf81616f73565b8015616ff0576001900390616fed616fe78383616f80565b90616faf565b55565b616f5f565b9161701e61701961701261700b60178790616ed2565b8590616ee8565b8390616efe565b6106f6565b908161703261702c5f6132dc565b916107d7565b14617157576170c65f936170c16170d0968561705b6170cb9761705560016161df565b906135a7565b61708261707261706d60168690611080565b6110aa565b61707c60016161df565b906135a7565b8161709561708f836107d7565b916107d7565b036170d2575b5050506170ba6170b56170b060168490611080565b616f5c565b616fc6565b6017616ed2565b616ee8565b616efe565b61424b565b565b61714f926171176170fa6170f461714a946170ef60168a90611080565b6110b7565b50615c11565b93617111859161710c60168a90611080565b6110b7565b90616f46565b91617144602061713d61712c60178990616ed2565b6171378f86016155cd565b90616ee8565b92016155cd565b90616efe565b6134d1565b5f808061709b565b50505050565b9161718661718161717a61717360198790616ed2565b8590616ee8565b8390616efe565b6106f6565b908161719a6171945f6132dc565b916107d7565b146172bf5761722e5f9361722961723896856171c3617233976171bd60016161df565b906135a7565b6171ea6171da6171d560188690611080565b6110aa565b6171e460016161df565b906135a7565b816171fd6171f7836107d7565b916107d7565b0361723a575b50505061722261721d61721860188490611080565b616f5c565b616fc6565b6019616ed2565b616ee8565b616efe565b61424b565b565b6172b79261727f61726261725c6172b29461725760188a90611080565b6110b7565b50615c11565b93617279859161727460188a90611080565b6110b7565b90616f46565b916172ac60206172a561729460198990616ed2565b61729f8f86016155cd565b90616ee8565b92016155cd565b90616efe565b6134d1565b5f8080617203565b50505050565b60407f2067616d6520636f6e7472616374000000000000000000000000000000000000917f45546f75725f53746f726167653a205f636f6d706c6574654d6174636847616d5f8201527f655370656369666963206d75737420626520696d706c656d656e74656420627960208201520152565b617345604e606092612536565b61734e816172c5565b0190565b6173679060208101905f818303910152617338565b90565b617372610402565b62461bcd60e51b81528061738860048201617352565b0390fd5b6173966040610893565b90565b90815491680100000000000000008310156173c957826173c19160016173c795018155616f80565b90616f46565b565b610856565b906173f76173f26173eb6173e460178690616ed2565b8490616ee8565b8590616efe565b6106f6565b6174096174035f6132dc565b916107d7565b03617488576174869261747c6174819261745861743061742b60168890611080565b616f5c565b82906174538661744a61744161738c565b945f86016155da565b602084016155da565b617399565b61747761746f61746a60168890611080565b6110aa565b956017616ed2565b616ee8565b616efe565b6134d1565b565b505050565b906174b66174b16174aa6174a360198690616ed2565b8490616ee8565b8590616efe565b6106f6565b6174c86174c25f6132dc565b916107d7565b03617547576175459261753b617540926175176174ef6174ea60188890611080565b616f5c565b82906175128661750961750061738c565b945f86016155da565b602084016155da565b617399565b61753661752e61752960188890611080565b6110aa565b956019616ed2565b616ee8565b616efe565b6134d1565b565b50505056fea26469706673582212205c96bff20724bb97c93f622a9647982e84304a26035043e655431d04a58dfc6864736f6c634300081e0033","linkReferences":{}},"methodIdentifiers":{"BASIS_POINTS()":"e1f1c4a7","MODULE_CORE()":"87d41608","MODULE_ESCALATION()":"a401a223","MODULE_MATCHES()":"d3f525dc","MODULE_PRIZES()":"43bd18a2","MODULE_RAFFLE()":"5a3db19f","NO_ROUND()":"cd47b9a9","OWNER_SHARE_BPS()":"f4ed1743","PARTICIPANTS_SHARE_BPS()":"82383535","PROTOCOL_SHARE_BPS()":"92822047","_completeMatchWithResult(bytes32,address,bool)":"f4df7cf0","_createMatchGame(uint8,uint8,uint8,uint8,address,address)":"2ad7e3bf","_getActiveMatchData(bytes32,uint8,uint8,uint8,uint8)":"e545f486","_getMatchPlayers(bytes32)":"1ec3b8ad","_getMatchResult(bytes32)":"97556f67","_getTimeIncrement()":"58f975f3","_hasCurrentPlayerTimedOut(bytes32)":"19602c21","_initializeMatchForPlay(bytes32,uint8)":"3751d19f","_isMatchActive(bytes32)":"7f515802","_resetMatchGame(bytes32)":"d893088d","_setMatchPlayer(bytes32,uint8,address)":"95dd9176","accumulatedProtocolShare()":"6b9be2c9","calculatePrizeForRank(uint8,uint8,uint8,uint256)":"2a731dc2","claimTimeoutWin(uint8,uint8,uint8,uint8)":"631039c7","currentRaffleIndex()":"a5cd19da","distributeEqualPrizes(uint8,uint8,address[],uint256,string)":"f8b76ab8","distributePrizes(uint8,uint8,uint256,string)":"8421af85","drawParticipants(uint8,uint8,uint8,uint8,address)":"414a488a","enrollInTournament(uint8,uint8)":"e6c455f5","enrolledPlayers(uint8,uint8,uint256)":"685f1b12","forceStartTournament(uint8,uint8)":"ea2b1d73","getLeaderboard()":"6d763a6e","getLeaderboardCount()":"c086bf29","getPlayerActiveTournaments(address)":"c743c0a8","getPlayerEnrollingTournaments(address)":"c718d0e5","getPlayerStats()":"847a5e99","getRaffleInfo()":"8166f6b2","getRoundInfo(uint8,uint8,uint8)":"273e3475","getTournamentInfo(uint8,uint8)":"65e12b14","initializeRound(uint8,uint8,uint8)":"0300e0b9","isEnrolled(uint8,uint8,address)":"3475bd53","isMatchEscL2Available(uint8,uint8,uint8,uint8)":"ed96ffdf","isMatchEscL3Available(uint8,uint8,uint8,uint8)":"2f26185d","isPlayerInAdvancedRound(uint8,uint8,uint8,address)":"31449074","matchTimeouts(bytes32)":"766d1fca","matches(bytes32)":"9fe9ada3","owner()":"8da5cb5b","playerActiveMatches(address,uint256)":"5d657cb1","playerActiveTournaments(address,uint256)":"32e7c6aa","playerEarnings(address)":"69f92773","playerEnrollingTournaments(address,uint256)":"3845753f","playerMatchIndex(address,bytes32)":"bb0d10b5","playerPrizes(uint8,uint8,address)":"c6c2d69c","playerRanking(uint8,uint8,address)":"75da743d","raffleResults(uint256)":"40861c1d","resetTournamentAfterCompletion(uint8,uint8)":"57f7cf71","rounds(uint8,uint8,uint8)":"eed9a268","sendPrizeWithFallback(address,uint256,uint8,uint8,string)":"2ba37d98","tierCount()":"96b55f7d","tournaments(uint8,uint8)":"1f916aca","trackOnLeaderboard(address)":"30c4403d","updatePlayerEarnings(uint8,uint8,address)":"689bf436"},"id":9}