{"abi":[{"type":"constructor","inputs":[{"name":"_moduleCoreAddress","type":"address","internalType":"address"},{"name":"_moduleMatchesAddress","type":"address","internalType":"address"},{"name":"_modulePrizesAddress","type":"address","internalType":"address"},{"name":"_moduleRaffleAddress","type":"address","internalType":"address"},{"name":"_moduleEscalationAddress","type":"address","internalType":"address"}],"stateMutability":"nonpayable"},{"type":"function","name":"BASIS_POINTS","inputs":[],"outputs":[{"name":"","type":"uint256","internalType":"uint256"}],"stateMutability":"view"},{"type":"function","name":"MODULE_CORE","inputs":[],"outputs":[{"name":"","type":"address","internalType":"address"}],"stateMutability":"view"},{"type":"function","name":"MODULE_ESCALATION","inputs":[],"outputs":[{"name":"","type":"address","internalType":"address"}],"stateMutability":"view"},{"type":"function","name":"MODULE_MATCHES","inputs":[],"outputs":[{"name":"","type":"address","internalType":"address"}],"stateMutability":"view"},{"type":"function","name":"MODULE_PRIZES","inputs":[],"outputs":[{"name":"","type":"address","internalType":"address"}],"stateMutability":"view"},{"type":"function","name":"MODULE_RAFFLE","inputs":[],"outputs":[{"name":"","type":"address","internalType":"address"}],"stateMutability":"view"},{"type":"function","name":"NO_ROUND","inputs":[],"outputs":[{"name":"","type":"uint8","internalType":"uint8"}],"stateMutability":"view"},{"type":"function","name":"OWNER_SHARE_BPS","inputs":[],"outputs":[{"name":"","type":"uint256","internalType":"uint256"}],"stateMutability":"view"},{"type":"function","name":"PARTICIPANTS_SHARE_BPS","inputs":[],"outputs":[{"name":"","type":"uint256","internalType":"uint256"}],"stateMutability":"view"},{"type":"function","name":"PROTOCOL_SHARE_BPS","inputs":[],"outputs":[{"name":"","type":"uint256","internalType":"uint256"}],"stateMutability":"view"},{"type":"function","name":"_completeMatchWithResult","inputs":[{"name":"matchId","type":"bytes32","internalType":"bytes32"},{"name":"winner","type":"address","internalType":"address"},{"name":"isDraw","type":"bool","internalType":"bool"}],"outputs":[],"stateMutability":"nonpayable"},{"type":"function","name":"_createMatchGame","inputs":[{"name":"tierId","type":"uint8","internalType":"uint8"},{"name":"instanceId","type":"uint8","internalType":"uint8"},{"name":"roundNumber","type":"uint8","internalType":"uint8"},{"name":"matchNumber","type":"uint8","internalType":"uint8"},{"name":"player1","type":"address","internalType":"address"},{"name":"player2","type":"address","internalType":"address"}],"outputs":[],"stateMutability":"nonpayable"},{"type":"function","name":"_getActiveMatchData","inputs":[{"name":"matchId","type":"bytes32","internalType":"bytes32"},{"name":"tierId","type":"uint8","internalType":"uint8"},{"name":"instanceId","type":"uint8","internalType":"uint8"},{"name":"roundNumber","type":"uint8","internalType":"uint8"},{"name":"matchNumber","type":"uint8","internalType":"uint8"}],"outputs":[{"name":"","type":"tuple","internalType":"struct ETour_Storage.CommonMatchData","components":[{"name":"player1","type":"address","internalType":"address"},{"name":"player2","type":"address","internalType":"address"},{"name":"winner","type":"address","internalType":"address"},{"name":"loser","type":"address","internalType":"address"},{"name":"status","type":"uint8","internalType":"enum ETour_Storage.MatchStatus"},{"name":"isDraw","type":"bool","internalType":"bool"},{"name":"startTime","type":"uint256","internalType":"uint256"},{"name":"lastMoveTime","type":"uint256","internalType":"uint256"},{"name":"tierId","type":"uint8","internalType":"uint8"},{"name":"instanceId","type":"uint8","internalType":"uint8"},{"name":"roundNumber","type":"uint8","internalType":"uint8"},{"name":"matchNumber","type":"uint8","internalType":"uint8"},{"name":"isCached","type":"bool","internalType":"bool"}]}],"stateMutability":"view"},{"type":"function","name":"_getMatchPlayers","inputs":[{"name":"matchId","type":"bytes32","internalType":"bytes32"}],"outputs":[{"name":"player1","type":"address","internalType":"address"},{"name":"player2","type":"address","internalType":"address"}],"stateMutability":"view"},{"type":"function","name":"_getMatchResult","inputs":[{"name":"matchId","type":"bytes32","internalType":"bytes32"}],"outputs":[{"name":"winner","type":"address","internalType":"address"},{"name":"isDraw","type":"bool","internalType":"bool"},{"name":"status","type":"uint8","internalType":"enum ETour_Storage.MatchStatus"}],"stateMutability":"view"},{"type":"function","name":"_getTimeIncrement","inputs":[],"outputs":[{"name":"","type":"uint256","internalType":"uint256"}],"stateMutability":"view"},{"type":"function","name":"_hasCurrentPlayerTimedOut","inputs":[{"name":"matchId","type":"bytes32","internalType":"bytes32"}],"outputs":[{"name":"","type":"bool","internalType":"bool"}],"stateMutability":"view"},{"type":"function","name":"_initializeMatchForPlay","inputs":[{"name":"matchId","type":"bytes32","internalType":"bytes32"},{"name":"tierId","type":"uint8","internalType":"uint8"}],"outputs":[],"stateMutability":"nonpayable"},{"type":"function","name":"_isMatchActive","inputs":[{"name":"matchId","type":"bytes32","internalType":"bytes32"}],"outputs":[{"name":"","type":"bool","internalType":"bool"}],"stateMutability":"view"},{"type":"function","name":"_resetMatchGame","inputs":[{"name":"matchId","type":"bytes32","internalType":"bytes32"}],"outputs":[],"stateMutability":"nonpayable"},{"type":"function","name":"_setMatchPlayer","inputs":[{"name":"matchId","type":"bytes32","internalType":"bytes32"},{"name":"slot","type":"uint8","internalType":"uint8"},{"name":"player","type":"address","internalType":"address"}],"outputs":[],"stateMutability":"nonpayable"},{"type":"function","name":"accumulatedProtocolShare","inputs":[],"outputs":[{"name":"","type":"uint256","internalType":"uint256"}],"stateMutability":"view"},{"type":"function","name":"canResetEnrollmentWindow","inputs":[{"name":"tierId","type":"uint8","internalType":"uint8"},{"name":"instanceId","type":"uint8","internalType":"uint8"}],"outputs":[{"name":"","type":"bool","internalType":"bool"}],"stateMutability":"view"},{"type":"function","name":"claimAbandonedEnrollmentPool","inputs":[{"name":"tierId","type":"uint8","internalType":"uint8"},{"name":"instanceId","type":"uint8","internalType":"uint8"}],"outputs":[],"stateMutability":"nonpayable"},{"type":"function","name":"claimMatchSlotByReplacement","inputs":[{"name":"tierId","type":"uint8","internalType":"uint8"},{"name":"instanceId","type":"uint8","internalType":"uint8"},{"name":"roundNumber","type":"uint8","internalType":"uint8"},{"name":"matchNumber","type":"uint8","internalType":"uint8"}],"outputs":[],"stateMutability":"nonpayable"},{"type":"function","name":"claimTimeoutWin","inputs":[{"name":"tierId","type":"uint8","internalType":"uint8"},{"name":"instanceId","type":"uint8","internalType":"uint8"},{"name":"roundNumber","type":"uint8","internalType":"uint8"},{"name":"matchNumber","type":"uint8","internalType":"uint8"}],"outputs":[],"stateMutability":"nonpayable"},{"type":"function","name":"currentRaffleIndex","inputs":[],"outputs":[{"name":"","type":"uint256","internalType":"uint256"}],"stateMutability":"view"},{"type":"function","name":"drawParticipants","inputs":[{"name":"","type":"uint8","internalType":"uint8"},{"name":"","type":"uint8","internalType":"uint8"},{"name":"","type":"uint8","internalType":"uint8"},{"name":"","type":"uint8","internalType":"uint8"},{"name":"","type":"address","internalType":"address"}],"outputs":[{"name":"","type":"bool","internalType":"bool"}],"stateMutability":"view"},{"type":"function","name":"enrollInTournament","inputs":[{"name":"tierId","type":"uint8","internalType":"uint8"},{"name":"instanceId","type":"uint8","internalType":"uint8"}],"outputs":[],"stateMutability":"payable"},{"type":"function","name":"enrolledPlayers","inputs":[{"name":"","type":"uint8","internalType":"uint8"},{"name":"","type":"uint8","internalType":"uint8"},{"name":"","type":"uint256","internalType":"uint256"}],"outputs":[{"name":"","type":"address","internalType":"address"}],"stateMutability":"view"},{"type":"function","name":"executeProtocolRaffle","inputs":[],"outputs":[],"stateMutability":"nonpayable"},{"type":"function","name":"forceEliminateStalledMatch","inputs":[{"name":"tierId","type":"uint8","internalType":"uint8"},{"name":"instanceId","type":"uint8","internalType":"uint8"},{"name":"roundNumber","type":"uint8","internalType":"uint8"},{"name":"matchNumber","type":"uint8","internalType":"uint8"}],"outputs":[],"stateMutability":"nonpayable"},{"type":"function","name":"forceStartTournament","inputs":[{"name":"tierId","type":"uint8","internalType":"uint8"},{"name":"instanceId","type":"uint8","internalType":"uint8"}],"outputs":[],"stateMutability":"nonpayable"},{"type":"function","name":"getLeaderboard","inputs":[],"outputs":[{"name":"","type":"tuple[]","internalType":"struct ETour_Storage.LeaderboardEntry[]","components":[{"name":"player","type":"address","internalType":"address"},{"name":"earnings","type":"int256","internalType":"int256"}]}],"stateMutability":"view"},{"type":"function","name":"getMatch","inputs":[{"name":"tierId","type":"uint8","internalType":"uint8"},{"name":"instanceId","type":"uint8","internalType":"uint8"},{"name":"roundNumber","type":"uint8","internalType":"uint8"},{"name":"matchNumber","type":"uint8","internalType":"uint8"}],"outputs":[{"name":"","type":"tuple","internalType":"struct TicTacChain.TicTacToeMatchData","components":[{"name":"common","type":"tuple","internalType":"struct ETour_Storage.CommonMatchData","components":[{"name":"player1","type":"address","internalType":"address"},{"name":"player2","type":"address","internalType":"address"},{"name":"winner","type":"address","internalType":"address"},{"name":"loser","type":"address","internalType":"address"},{"name":"status","type":"uint8","internalType":"enum ETour_Storage.MatchStatus"},{"name":"isDraw","type":"bool","internalType":"bool"},{"name":"startTime","type":"uint256","internalType":"uint256"},{"name":"lastMoveTime","type":"uint256","internalType":"uint256"},{"name":"tierId","type":"uint8","internalType":"uint8"},{"name":"instanceId","type":"uint8","internalType":"uint8"},{"name":"roundNumber","type":"uint8","internalType":"uint8"},{"name":"matchNumber","type":"uint8","internalType":"uint8"},{"name":"isCached","type":"bool","internalType":"bool"}]},{"name":"packedBoard","type":"uint256","internalType":"uint256"},{"name":"currentTurn","type":"address","internalType":"address"},{"name":"firstPlayer","type":"address","internalType":"address"},{"name":"player1TimeRemaining","type":"uint256","internalType":"uint256"},{"name":"player2TimeRemaining","type":"uint256","internalType":"uint256"},{"name":"lastMoveTimestamp","type":"uint256","internalType":"uint256"}]}],"stateMutability":"view"},{"type":"function","name":"getMatchCountForRound","inputs":[{"name":"tierId","type":"uint8","internalType":"uint8"},{"name":"instanceId","type":"uint8","internalType":"uint8"}],"outputs":[{"name":"","type":"uint8","internalType":"uint8"}],"stateMutability":"view"},{"type":"function","name":"getPlayerActiveTournaments","inputs":[{"name":"player","type":"address","internalType":"address"}],"outputs":[{"name":"","type":"tuple[]","internalType":"struct ETour_Storage.TournamentRef[]","components":[{"name":"tierId","type":"uint8","internalType":"uint8"},{"name":"instanceId","type":"uint8","internalType":"uint8"}]}],"stateMutability":"view"},{"type":"function","name":"getPlayerEnrollingTournaments","inputs":[{"name":"player","type":"address","internalType":"address"}],"outputs":[{"name":"","type":"tuple[]","internalType":"struct ETour_Storage.TournamentRef[]","components":[{"name":"tierId","type":"uint8","internalType":"uint8"},{"name":"instanceId","type":"uint8","internalType":"uint8"}]}],"stateMutability":"view"},{"type":"function","name":"getPlayerStats","inputs":[],"outputs":[{"name":"totalEarnings","type":"int256","internalType":"int256"}],"stateMutability":"view"},{"type":"function","name":"getRaffleHistory","inputs":[],"outputs":[{"name":"","type":"tuple[]","internalType":"struct ETour_Storage.RaffleResult[]","components":[{"name":"executor","type":"address","internalType":"address"},{"name":"timestamp","type":"uint256","internalType":"uint256"},{"name":"rafflePot","type":"uint256","internalType":"uint256"},{"name":"participants","type":"address[]","internalType":"address[]"},{"name":"weights","type":"uint256[]","internalType":"uint256[]"},{"name":"winner","type":"address","internalType":"address"},{"name":"winnerPrize","type":"uint256","internalType":"uint256"},{"name":"protocolReserve","type":"uint256","internalType":"uint256"},{"name":"ownerShare","type":"uint256","internalType":"uint256"}]}],"stateMutability":"view"},{"type":"function","name":"getRaffleInfo","inputs":[],"outputs":[{"name":"raffleIndex","type":"uint256","internalType":"uint256"},{"name":"isReady","type":"bool","internalType":"bool"},{"name":"currentAccumulated","type":"uint256","internalType":"uint256"},{"name":"threshold","type":"uint256","internalType":"uint256"},{"name":"reserve","type":"uint256","internalType":"uint256"},{"name":"raffleAmount","type":"uint256","internalType":"uint256"},{"name":"ownerShare","type":"uint256","internalType":"uint256"},{"name":"winnerShare","type":"uint256","internalType":"uint256"},{"name":"eligiblePlayerCount","type":"uint256","internalType":"uint256"}],"stateMutability":"view"},{"type":"function","name":"getRoundInfo","inputs":[{"name":"tierId","type":"uint8","internalType":"uint8"},{"name":"instanceId","type":"uint8","internalType":"uint8"},{"name":"roundNumber","type":"uint8","internalType":"uint8"}],"outputs":[{"name":"totalMatches","type":"uint8","internalType":"uint8"},{"name":"completedMatches","type":"uint8","internalType":"uint8"},{"name":"initialized","type":"bool","internalType":"bool"}],"stateMutability":"view"},{"type":"function","name":"getTournamentInfo","inputs":[{"name":"tierId","type":"uint8","internalType":"uint8"},{"name":"instanceId","type":"uint8","internalType":"uint8"}],"outputs":[{"name":"status","type":"uint8","internalType":"enum ETour_Storage.TournamentStatus"},{"name":"currentRound","type":"uint8","internalType":"uint8"},{"name":"enrolledCount","type":"uint8","internalType":"uint8"},{"name":"prizePool","type":"uint256","internalType":"uint256"},{"name":"winner","type":"address","internalType":"address"}],"stateMutability":"view"},{"type":"function","name":"initializeRound","inputs":[{"name":"tierId","type":"uint8","internalType":"uint8"},{"name":"instanceId","type":"uint8","internalType":"uint8"},{"name":"roundNumber","type":"uint8","internalType":"uint8"}],"outputs":[],"stateMutability":"nonpayable"},{"type":"function","name":"isEnrolled","inputs":[{"name":"","type":"uint8","internalType":"uint8"},{"name":"","type":"uint8","internalType":"uint8"},{"name":"","type":"address","internalType":"address"}],"outputs":[{"name":"","type":"bool","internalType":"bool"}],"stateMutability":"view"},{"type":"function","name":"isMatchEscL2Available","inputs":[{"name":"tierId","type":"uint8","internalType":"uint8"},{"name":"instanceId","type":"uint8","internalType":"uint8"},{"name":"roundNumber","type":"uint8","internalType":"uint8"},{"name":"matchNumber","type":"uint8","internalType":"uint8"}],"outputs":[{"name":"","type":"bool","internalType":"bool"}],"stateMutability":"view"},{"type":"function","name":"isMatchEscL3Available","inputs":[{"name":"tierId","type":"uint8","internalType":"uint8"},{"name":"instanceId","type":"uint8","internalType":"uint8"},{"name":"roundNumber","type":"uint8","internalType":"uint8"},{"name":"matchNumber","type":"uint8","internalType":"uint8"}],"outputs":[{"name":"","type":"bool","internalType":"bool"}],"stateMutability":"view"},{"type":"function","name":"isPlayerInAdvancedRound","inputs":[{"name":"tierId","type":"uint8","internalType":"uint8"},{"name":"instanceId","type":"uint8","internalType":"uint8"},{"name":"stalledRoundNumber","type":"uint8","internalType":"uint8"},{"name":"player","type":"address","internalType":"address"}],"outputs":[{"name":"hasAdvanced","type":"bool","internalType":"bool"}],"stateMutability":"view"},{"type":"function","name":"makeMove","inputs":[{"name":"tierId","type":"uint8","internalType":"uint8"},{"name":"instanceId","type":"uint8","internalType":"uint8"},{"name":"roundNumber","type":"uint8","internalType":"uint8"},{"name":"matchNumber","type":"uint8","internalType":"uint8"},{"name":"cellIndex","type":"uint8","internalType":"uint8"}],"outputs":[],"stateMutability":"nonpayable"},{"type":"function","name":"matchTimeouts","inputs":[{"name":"","type":"bytes32","internalType":"bytes32"}],"outputs":[{"name":"escalation1Start","type":"uint256","internalType":"uint256"},{"name":"escalation2Start","type":"uint256","internalType":"uint256"},{"name":"activeEscalation","type":"uint8","internalType":"enum ETour_Storage.EscalationLevel"},{"name":"isStalled","type":"bool","internalType":"bool"}],"stateMutability":"view"},{"type":"function","name":"matches","inputs":[{"name":"","type":"bytes32","internalType":"bytes32"}],"outputs":[{"name":"player1","type":"address","internalType":"address"},{"name":"player2","type":"address","internalType":"address"},{"name":"winner","type":"address","internalType":"address"},{"name":"currentTurn","type":"address","internalType":"address"},{"name":"firstPlayer","type":"address","internalType":"address"},{"name":"status","type":"uint8","internalType":"enum ETour_Storage.MatchStatus"},{"name":"isDraw","type":"bool","internalType":"bool"},{"name":"packedBoard","type":"uint256","internalType":"uint256"},{"name":"packedState","type":"uint256","internalType":"uint256"},{"name":"startTime","type":"uint256","internalType":"uint256"},{"name":"lastMoveTime","type":"uint256","internalType":"uint256"},{"name":"player1TimeRemaining","type":"uint256","internalType":"uint256"},{"name":"player2TimeRemaining","type":"uint256","internalType":"uint256"},{"name":"moves","type":"string","internalType":"string"}],"stateMutability":"view"},{"type":"function","name":"owner","inputs":[],"outputs":[{"name":"","type":"address","internalType":"address"}],"stateMutability":"view"},{"type":"function","name":"playerActiveMatches","inputs":[{"name":"","type":"address","internalType":"address"},{"name":"","type":"uint256","internalType":"uint256"}],"outputs":[{"name":"","type":"bytes32","internalType":"bytes32"}],"stateMutability":"view"},{"type":"function","name":"playerActiveTournaments","inputs":[{"name":"","type":"address","internalType":"address"},{"name":"","type":"uint256","internalType":"uint256"}],"outputs":[{"name":"tierId","type":"uint8","internalType":"uint8"},{"name":"instanceId","type":"uint8","internalType":"uint8"}],"stateMutability":"view"},{"type":"function","name":"playerEarnings","inputs":[{"name":"","type":"address","internalType":"address"}],"outputs":[{"name":"","type":"int256","internalType":"int256"}],"stateMutability":"view"},{"type":"function","name":"playerEnrollingTournaments","inputs":[{"name":"","type":"address","internalType":"address"},{"name":"","type":"uint256","internalType":"uint256"}],"outputs":[{"name":"tierId","type":"uint8","internalType":"uint8"},{"name":"instanceId","type":"uint8","internalType":"uint8"}],"stateMutability":"view"},{"type":"function","name":"playerMatchIndex","inputs":[{"name":"","type":"address","internalType":"address"},{"name":"","type":"bytes32","internalType":"bytes32"}],"outputs":[{"name":"","type":"uint256","internalType":"uint256"}],"stateMutability":"view"},{"type":"function","name":"playerPrizes","inputs":[{"name":"","type":"uint8","internalType":"uint8"},{"name":"","type":"uint8","internalType":"uint8"},{"name":"","type":"address","internalType":"address"}],"outputs":[{"name":"","type":"uint256","internalType":"uint256"}],"stateMutability":"view"},{"type":"function","name":"playerRanking","inputs":[{"name":"","type":"uint8","internalType":"uint8"},{"name":"","type":"uint8","internalType":"uint8"},{"name":"","type":"address","internalType":"address"}],"outputs":[{"name":"","type":"uint8","internalType":"uint8"}],"stateMutability":"view"},{"type":"function","name":"raffleResults","inputs":[{"name":"","type":"uint256","internalType":"uint256"}],"outputs":[{"name":"executor","type":"address","internalType":"address"},{"name":"timestamp","type":"uint256","internalType":"uint256"},{"name":"rafflePot","type":"uint256","internalType":"uint256"},{"name":"winner","type":"address","internalType":"address"},{"name":"winnerPrize","type":"uint256","internalType":"uint256"},{"name":"protocolReserve","type":"uint256","internalType":"uint256"},{"name":"ownerShare","type":"uint256","internalType":"uint256"}],"stateMutability":"view"},{"type":"function","name":"resetEnrollmentWindow","inputs":[{"name":"tierId","type":"uint8","internalType":"uint8"},{"name":"instanceId","type":"uint8","internalType":"uint8"}],"outputs":[],"stateMutability":"nonpayable"},{"type":"function","name":"rounds","inputs":[{"name":"","type":"uint8","internalType":"uint8"},{"name":"","type":"uint8","internalType":"uint8"},{"name":"","type":"uint8","internalType":"uint8"}],"outputs":[{"name":"totalMatches","type":"uint8","internalType":"uint8"},{"name":"completedMatches","type":"uint8","internalType":"uint8"},{"name":"initialized","type":"bool","internalType":"bool"},{"name":"drawCount","type":"uint8","internalType":"uint8"}],"stateMutability":"view"},{"type":"function","name":"tierCount","inputs":[],"outputs":[{"name":"","type":"uint8","internalType":"uint8"}],"stateMutability":"view"},{"type":"function","name":"tournaments","inputs":[{"name":"","type":"uint8","internalType":"uint8"},{"name":"","type":"uint8","internalType":"uint8"}],"outputs":[{"name":"tierId","type":"uint8","internalType":"uint8"},{"name":"instanceId","type":"uint8","internalType":"uint8"},{"name":"status","type":"uint8","internalType":"enum ETour_Storage.TournamentStatus"},{"name":"currentRound","type":"uint8","internalType":"uint8"},{"name":"enrolledCount","type":"uint8","internalType":"uint8"},{"name":"prizePool","type":"uint256","internalType":"uint256"},{"name":"startTime","type":"uint256","internalType":"uint256"},{"name":"winner","type":"address","internalType":"address"},{"name":"finalsWasDraw","type":"bool","internalType":"bool"},{"name":"allDrawResolution","type":"bool","internalType":"bool"},{"name":"allDrawRound","type":"uint8","internalType":"uint8"},{"name":"completionReason","type":"uint8","internalType":"enum ETour_Storage.CompletionReason"},{"name":"enrollmentTimeout","type":"tuple","internalType":"struct ETour_Storage.EnrollmentTimeoutState","components":[{"name":"escalation1Start","type":"uint256","internalType":"uint256"},{"name":"escalation2Start","type":"uint256","internalType":"uint256"},{"name":"activeEscalation","type":"uint8","internalType":"enum ETour_Storage.EscalationLevel"},{"name":"forfeitPool","type":"uint256","internalType":"uint256"}]}],"stateMutability":"view"},{"type":"event","name":"MatchCompleted","inputs":[{"name":"matchId","type":"bytes32","indexed":true,"internalType":"bytes32"},{"name":"player1","type":"address","indexed":true,"internalType":"address"},{"name":"player2","type":"address","indexed":true,"internalType":"address"},{"name":"winner","type":"address","indexed":false,"internalType":"address"},{"name":"isDraw","type":"bool","indexed":false,"internalType":"bool"},{"name":"reason","type":"uint8","indexed":false,"internalType":"enum ETour_Storage.CompletionReason"},{"name":"board","type":"uint256","indexed":false,"internalType":"uint256"}],"anonymous":false},{"type":"event","name":"MoveMade","inputs":[{"name":"matchId","type":"bytes32","indexed":true,"internalType":"bytes32"},{"name":"player","type":"address","indexed":true,"internalType":"address"},{"name":"cellIndex","type":"uint8","indexed":false,"internalType":"uint8"}],"anonymous":false},{"type":"event","name":"ProtocolRaffleExecuted","inputs":[{"name":"raffleIndex","type":"uint256","indexed":true,"internalType":"uint256"},{"name":"winner","type":"address","indexed":true,"internalType":"address"},{"name":"caller","type":"address","indexed":true,"internalType":"address"},{"name":"raffleAmount","type":"uint256","indexed":false,"internalType":"uint256"},{"name":"ownerShare","type":"uint256","indexed":false,"internalType":"uint256"},{"name":"winnerShare","type":"uint256","indexed":false,"internalType":"uint256"},{"name":"remainingReserve","type":"uint256","indexed":false,"internalType":"uint256"},{"name":"winnerEnrollmentCount","type":"uint256","indexed":false,"internalType":"uint256"}],"anonymous":false},{"type":"event","name":"TournamentCompleted","inputs":[{"name":"tierId","type":"uint8","indexed":true,"internalType":"uint8"},{"name":"instanceId","type":"uint8","indexed":true,"internalType":"uint8"},{"name":"winner","type":"address","indexed":false,"internalType":"address"},{"name":"prizeAmount","type":"uint256","indexed":false,"internalType":"uint256"},{"name":"reason","type":"uint8","indexed":false,"internalType":"enum ETour_Storage.CompletionReason"},{"name":"enrolledPlayers","type":"address[]","indexed":false,"internalType":"address[]"}],"anonymous":false},{"type":"event","name":"Transfer","inputs":[{"name":"from","type":"address","indexed":true,"internalType":"address"},{"name":"to","type":"address","indexed":true,"internalType":"address"},{"name":"value","type":"uint256","indexed":false,"internalType":"uint256"}],"anonymous":false},{"type":"error","name":"ReentrancyGuardReentrantCall","inputs":[]}],"bytecode":{"object":"0x610140604052346100ea5761001e6100156101e7565b939290926108d4565b6100266100ef565b619f73610d4a82396080518181816123cf01528181615f830152818161740f0152818161795e0152617afd015260a051818181612d6d0152818161409e01528181615b69015281816163a20152618a3d015260c05181818161177801528181615ff701528181617bf3015281816190480152818161919c0152818161929a015261931b015260e0518181816118670152617fcf0152610100518181816129f10152818161592d0152818161621a015261679e0152610120518161245e0152619f7390f35b6100f5565b60405190565b5f80fd5b601f801991011690565b634e487b7160e01b5f52604160045260245ffd5b90610121906100f9565b810190811060018060401b0382111761013957604052565b610103565b9061015161014a6100ef565b9283610117565b565b5f80fd5b60018060a01b031690565b61016b90610157565b90565b61017781610162565b0361017e57565b5f80fd5b9050519061018f8261016e565b565b919060a0838203126101e2576101a9815f8501610182565b926101b78260208301610182565b926101df6101c88460408501610182565b936101d68160608601610182565b93608001610182565b90565b610153565b61020561acbd803803806101fa8161013e565b928339810190610191565b9091929394565b61021660c061013e565b90565b90565b90565b90565b61023661023161023b92610219565b61021f565b61021c565b90565b906102489061021c565b9052565b90565b61026361025e6102689261024c565b61021f565b61021c565b90565b90565b61028261027d6102879261026b565b61021f565b61021c565b90565b90565b6102a161029c6102a69261028a565b61021f565b61021c565b90565b90565b6102c06102bb6102c5926102a9565b61021f565b61021c565b90565b60ff1690565b6102e26102dd6102e79261028a565b61021f565b6102c8565b90565b60016102f691016102c8565b90565b90565b61031061030b610315926102f9565b61021f565b6102c8565b90565b90565b61032f61032a61033492610318565b61021f565b6102c8565b90565b90565b61ffff1690565b61035561035061035a92610337565b61021f565b61033a565b90565b61037161036c610376926102a9565b61021f565b61033a565b90565b90565b61039061038b61039592610379565b61021f565b61033a565b90565b6103ac6103a76103b19261033a565b61021f565b61021c565b90565b6103be9051610162565b90565b90565b6103d86103d36103dd926103c1565b61021f565b6102c8565b90565b90565b6103f76103f26103fc926103e0565b61021f565b6102c8565b90565b90565b61041661041161041b926103ff565b61021f565b6102c8565b90565b90565b61043561043061043a9261041e565b61021f565b6102c8565b90565b90565b61045461044f6104599261043d565b61021f565b6102c8565b90565b90565b61047361046e6104789261045c565b61021f565b6102c8565b90565b90565b66ffffffffffffff1690565b61049e6104996104a39261047b565b61021f565b61047e565b90565b90565b6104bd6104b86104c2926104a6565b61021f565b61047e565b90565b90565b6104dc6104d76104e1926104c5565b61021f565b61047e565b90565b6104ed906102c8565b9052565b6104fa9061047e565b9052565b6105079061021c565b9052565b9060a080610575936105235f8201515f8601906104fe565b610535602082015160208601906104fe565b610547604082015160408601906104fe565b610559606082015160608601906104fe565b61056b608082015160808601906104fe565b01519101906104fe565b565b909594926105c3946105b26105bc926105a860809661059e61014088019c5f8901906104e4565b60208701906104e4565b60408501906104e4565b60608301906104f1565b019061050b565b565b60018060401b0381116105e1576105dd6020916100f9565b0190565b610103565b906105f86105f3836105c5565b61013e565b918252565b606090565b3d5f1461061d576106123d6105e6565b903d5f602084013e5b565b6106256105fd565b9061061b565b60209181520190565b5f7f5254000000000000000000000000000000000000000000000000000000000000910152565b610668600260209261062b565b61067181610634565b0190565b61068a9060208101905f81830391015261065b565b90565b1561069457565b61069c6100ef565b62461bcd60e51b8152806106b260048201610675565b0390fd5b90565b90565b6106d06106cb6106d5926106b9565b61021f565b61021c565b90565b5f5260205f2090565b634e487b7160e01b5f52603260045260245ffd5b5490565b610702816106f5565b82101561071c576107146001916106d8565b910201905f90565b6106e1565b1b90565b9190600861074091029161073a5f1984610721565b92610721565b9181191691161790565b61075e6107596107639261021c565b61021f565b61021c565b90565b90565b919061077f61077a6107879361074a565b610766565b908354610725565b9055565b90815491680100000000000000008310156107bb57826107b39160016107b9950181556106f9565b90610769565b565b610103565b90565b6107d76107d26107dc926107c0565b61021f565b61021c565b90565b90565b6107f66107f16107fb926107df565b61021f565b61021c565b90565b90565b61081561081061081a926107fe565b61021f565b61021c565b90565b90565b61083461082f6108399261081d565b61021f565b61021c565b90565b90565b61085361084e6108589261083c565b61021f565b61021c565b90565b90565b61087261086d6108779261085b565b61021f565b61021c565b90565b90565b61089161088c6108969261087a565b61021f565b61021c565b90565b5f1b90565b906108aa5f1991610899565b9181191691161790565b906108c96108c46108d09261074a565b610766565b825461089e565b9055565b93919290929091926108e594610cee565b6078600f607860f05f9161012c936108fb61020c565b9561090590610222565b5f8701906109129161023e565b61091b9061024f565b60208601906109299161023e565b61093290610222565b60408501906109409161023e565b6109499061026e565b60608401906109579161023e565b6109609061028d565b608083019061096e9161023e565b610977906102ac565b60a08201906109859161023e565b905f610990906102ce565b5b806109a561099f60036102fc565b916102c8565b1015610bd65780610ac2916109c26109bc5f6102ce565b916102c8565b145f14610b8e576109e86109df6109d960b461037c565b5b610398565b6080860161023e565b610abd5f806109f760806103b4565b8485610a0b610a05856102ce565b916102c8565b148314610b4d57610aa6610a1f6002610402565b915b87610a34610a2e876102ce565b916102c8565b148514610b0d57610a97610a48606461045f565b5b89610a5c610a56896102ce565b916102c8565b148714610ac757610a73660110d9316ec0006104c8565b5b8d91610a7e6100ef565b9687956004602088016358be2c1d60e01b815201610577565b60208201810382520382610117565b602081019051915af4610ab7610602565b5061068d565b6102ea565b610991565b89610adb610ad5600161031b565b916102c8565b148714610af857610af266027ca57357c0006104a9565b5b610a74565b610b0866049e57d635400061048a565b610af3565b87610b21610b1b600161031b565b916102c8565b148514610b3b57610a97610b356032610440565b5b610a49565b610a97610b486019610421565b610b36565b85610b61610b5b600161031b565b916102c8565b148314610b7c57610aa6610b7560046103e3565b5b91610a21565b610aa6610b8960086103c4565b610b76565b80610ba2610b9c600161031b565b916102c8565b145f14610bc0576109e86109df610bba61012c61035d565b5b6109da565b6109e86109df610bd16101e0610341565b610bbb565b509050610bfc610be660056106b6565b610bf666038d7ea4c680006106bc565b9061078b565b610c1f610c0960056106b6565b610c196611c37937e080006107c3565b9061078b565b610c42610c2c60056106b6565b610c3c66470de4df8200006107e2565b9061078b565b610c65610c4f60056106b6565b610c5f66b1a2bc2ec50000610801565b9061078b565b610c89610c7260056106b6565b610c836703782dace9d90000610820565b9061078b565b610cad610c9660056106b6565b610ca76706f05b59d3b2000061083f565b9061078b565b610cd1610cba60056106b6565b610ccb670a688906bd8b000061085e565b9061078b565b610cec610ce5670de0b6b3a764000061087d565b60066108b4565b565b610cf6610d36565b336101205260805260a05260c05260e05261010052565b610d21610d1c610d2692610318565b61021f565b61021c565b90565b610d336001610d0d565b90565b610d47610d41610d29565b5f6108b4565b56fe60806040526004361015610013575b6132ee565b61001d5f3561041b565b80625b0057146104165780630300e0b91461041157806319602c211461040c5780631ec3b8ad146104075780631f916aca1461040257806323e737aa146103fd578063273e3475146103f85780632ad7e3bf146103f35780632f26185d146103ee57806331449074146103e957806332e7c6aa146103e45780633475bd53146103df578063367639e2146103da5780633751d19f146103d55780633845753f146103d05780633864cd6b146103cb57806340861c1d146103c6578063414a488a146103c157806342baab49146103bc57806343bd18a2146103b75780634d9d1611146103b257806358f975f3146103ad5780635a3db19f146103a85780635d657cb1146103a3578063631039c71461039e57806365e12b1414610399578063666d968714610394578063685f1b121461038f57806369f927731461038a5780636b9be2c9146103855780636d763a6e1461038057806375da743d1461037b578063766d1fca146103765780637f515802146103715780638166f6b21461036c5780638238353514610367578063847a5e991461036257806387d416081461035d5780638c930e96146103585780638da5cb5b14610353578063928220471461034e57806395dd91761461034957806396b55f7d1461034457806397556f671461033f578063998c84b41461033a5780639fe9ada314610335578063a401a22314610330578063a5cd19da1461032b578063bb0d10b514610326578063c6c2d69c14610321578063c718d0e51461031c578063c743c0a814610317578063cd47b9a914610312578063d3f525dc1461030d578063d893088d14610308578063e1f1c4a714610303578063e545f486146102fe578063e6c455f5146102f9578063ea2b1d73146102f4578063ed96ffdf146102ef578063eed9a268146102ea578063f4df7cf0146102e5578063f4ed1743146102e05763f878ebf00361000e576132bb565b613286565b61321a565b613183565b61305a565b613026565b612ffc565b612fc3565b612e2f565b612dc4565b612d8f565b612d36565b612cca565b612c95565b612ba9565b612b06565b612a57565b612a13565b6129a7565b61264a565b612612565b61259e565b61255b565b6124ec565b612480565b612426565b6123f1565b612398565b612363565b6122ec565b612231565b6121f8565b6120f5565b61202d565b611f35565b611ecb565b611dfa565b611cc6565b611a43565b6119bf565b611989565b611889565b611830565b6117e4565b6117af565b611731565b6116e3565b6115e8565b611496565b61145f565b6113e7565b611383565b61134d565b611245565b6110c2565b611043565b611009565b610f49565b610ee0565b610e44565b610842565b6107dd565b610743565b6106cb565b60e01c90565b60405190565b5f80fd5b5f80fd5b5f80fd5b60ff1690565b61044281610433565b0361044957565b5f80fd5b9050359061045a82610439565b565b60808183031261049d57610472825f830161044d565b9261049a610483846020850161044d565b93610491816040860161044d565b9360600161044d565b90565b61042b565b60018060a01b031690565b6104b6906104a2565b90565b6104c2906104ad565b9052565b634e487b7160e01b5f52602160045260245ffd5b600311156104e457565b6104c6565b906104f3826104da565b565b6104fe906104e9565b90565b61050a906104f5565b9052565b151590565b61051c9061050e565b9052565b90565b61052c90610520565b9052565b61053990610433565b9052565b906101808061062e936105565f8201515f8601906104b9565b610568602082015160208601906104b9565b61057a604082015160408601906104b9565b61058c606082015160608601906104b9565b61059e60808201516080860190610501565b6105b060a082015160a0860190610513565b6105c260c082015160c0860190610523565b6105d460e082015160e0860190610523565b6105e8610100820151610100860190610530565b6105fc610120820151610120860190610530565b610610610140820151610140860190610530565b610624610160820151610160860190610530565b0151910190610513565b565b9061024060c06106b39361064a5f8201515f86019061053d565b61065d60208201516101a0860190610523565b61067060408201516101c08601906104b9565b61068360608201516101e08601906104b9565b6106966080820151610200860190610523565b6106a960a0820151610220860190610523565b0151910190610523565b565b91906106c9905f6102608501940190610630565b565b346106ff576106fb6106ea6106e136600461045c565b929190916134b8565b6106f2610421565b918291826106b5565b0390f35b610427565b90916060828403126107395761073661071f845f850161044d565b9361072d816020860161044d565b9360400161044d565b90565b61042b565b5f0190565b346107725761075c610756366004610704565b91613dce565b610764610421565b8061076e8161073e565b0390f35b610427565b90565b61078381610777565b0361078a57565b5f80fd5b9050359061079b8261077a565b565b906020828203126107b6576107b3915f0161078e565b90565b61042b565b6107c49061050e565b9052565b91906107db905f602085019401906107bb565b565b3461080d576108096107f86107f336600461079d565b614229565b610800610421565b918291826107c8565b0390f35b610427565b61081b906104ad565b9052565b91602061084092949361083960408201965f830190610812565b0190610812565b565b346108735761085a61085536600461079d565b6142ec565b9061086f610866610421565b9283928361081f565b0390f35b610427565b91906040838203126108a0578061089461089d925f860161044d565b9360200161044d565b90565b61042b565b90565b6108bc6108b76108c192610433565b6108a5565b610433565b90565b906108ce906108a8565b5f5260205260405f2090565b906108e4906108a8565b5f5260205260405f2090565b5f1c90565b60ff1690565b61090761090c916108f0565b6108f5565b90565b61091990546108fb565b90565b60081c90565b61092e6109339161091c565b6108f5565b90565b6109409054610922565b90565b60101c90565b60ff1690565b61095b61096091610943565b610949565b90565b61096d905461094f565b90565b60181c90565b61098261098791610970565b6108f5565b90565b6109949054610976565b90565b60201c90565b6109a96109ae91610997565b6108f5565b90565b6109bb905461099d565b90565b90565b6109cd6109d2916108f0565b6109be565b90565b6109df90546109c1565b90565b60018060a01b031690565b6109f96109fe916108f0565b6109e2565b90565b610a0b90546109ed565b90565b60a01c90565b60ff1690565b610a26610a2b91610a0e565b610a14565b90565b610a389054610a1a565b90565b60a81c90565b610a4d610a5291610a3b565b610a14565b90565b610a5f9054610a41565b90565b60b01c90565b610a74610a7991610a62565b6108f5565b90565b610a869054610a68565b90565b60b81c90565b60ff1690565b610aa1610aa691610a89565b610a8f565b90565b610ab39054610a95565b90565b90610ac090610520565b9052565b60ff1690565b610ad6610adb916108f0565b610ac4565b90565b610ae89054610aca565b90565b60041115610af557565b6104c6565b90610b0482610aeb565b565b90610b1090610afa565b9052565b601f801991011690565b634e487b7160e01b5f52604160045260245ffd5b90610b3c90610b14565b810190811067ffffffffffffffff821117610b5657604052565b610b1e565b90610b6e610b67610421565b9283610b32565b565b610b7a6080610b5b565b90565b90610be4610bdb6003610b8e610b70565b94610ba5610b9d5f83016109d5565b5f8801610ab6565b610bbd610bb4600183016109d5565b60208801610ab6565b610bd5610bcc60028301610ade565b60408801610b06565b016109d5565b60608401610ab6565b565b90610bf5610bfa9260086108c4565b6108da565b610c055f820161090f565b91610c115f8301610936565b91610c1d5f8201610963565b91610c295f830161098a565b91610c355f82016109b1565b91610c42600183016109d5565b91610c4f600282016109d5565b91610c5c60038301610a01565b91610c6960038201610a2e565b91610c7660038301610a55565b91610c8360038201610a7c565b91610c9c6004610c9560038501610aa9565b9301610b7d565b90565b610ca890610433565b9052565b60031115610cb657565b6104c6565b90610cc582610cac565b565b610cd090610cbb565b90565b610cdc90610cc7565b9052565b610ce990610520565b9052565b60061115610cf757565b6104c6565b90610d0682610ced565b565b610d1190610cfc565b90565b610d1d90610d08565b9052565b610d2a90610afa565b90565b610d3690610d21565b9052565b90606080610d8093610d525f8201515f860190610523565b610d6460208201516020860190610523565b610d7660408201516040860190610d2d565b0151910190610523565b565b9a98969492909d9c9b99979593916102008c019e5f8d01610da291610c9f565b60208c01610daf91610c9f565b60408b01610dbc91610cd3565b60608a01610dc991610c9f565b60808901610dd691610c9f565b60a08801610de391610ce0565b60c08701610df091610ce0565b60e08601610dfd91610812565b6101008501610e0b916107bb565b6101208401610e19916107bb565b6101408301610e2791610c9f565b6101608201610e3591610d14565b61018001610e4291610d3a565b565b34610e8557610e81610e60610e5a366004610878565b90610be6565b99610e789d9b9d999199989298979397969496610421565b9d8e9d8e610d82565b0390f35b610427565b919060a083820312610edb57610ea2815f850161044d565b92610eb0826020830161044d565b92610ed8610ec1846040850161044d565b93610ecf816060860161044d565b9360800161044d565b90565b61042b565b34610f1257610efc610ef3366004610e8a565b93929092614b03565b610f04610421565b80610f0e8161073e565b0390f35b610427565b604090610f40610f479496959396610f3660608401985f850190610c9f565b6020830190610c9f565b01906107bb565b565b34610f7d57610f79610f65610f5f366004610704565b91614b16565b610f70939193610421565b93849384610f17565b0390f35b610427565b610f8b816104ad565b03610f9257565b5f80fd5b90503590610fa382610f82565b565b909160c08284031261100457610fbd835f840161044d565b92610fcb816020850161044d565b92610fd9826040830161044d565b92611001610fea846060850161044d565b93610ff88160808601610f96565b9360a001610f96565b90565b61042b565b3461103e5761102861101c366004610fa5565b94939093929192614dd6565b611030610421565b8061103a8161073e565b0390f35b610427565b346110775761107361106261105936600461045c565b92919091614fbe565b61106a610421565b918291826107c8565b0390f35b610427565b6080818303126110bd57611092825f830161044d565b926110ba6110a3846020850161044d565b936110b1816040860161044d565b93606001610f96565b90565b61042b565b346110f6576110f26110e16110d836600461107c565b929190916152f5565b6110e9610421565b918291826107c8565b0390f35b610427565b61110481610520565b0361110b57565b5f80fd5b9050359061111c826110fb565b565b9190604083820312611146578061113a611143925f8601610f96565b9360200161110f565b90565b61042b565b61115f61115a611164926104a2565b6108a5565b6104a2565b90565b6111709061114b565b90565b61117c90611167565b90565b9061118990611173565b5f5260205260405f2090565b634e487b7160e01b5f52603260045260245ffd5b5490565b5f5260205f2090565b6111bf816111a9565b8210156111d9576111d16001916111ad565b910201905f90565b611195565b6111e990601861117f565b906111f3826111a9565b81101561121e57611203916111b6565b509061121b5f61121481850161090f565b9301610936565b90565b5f80fd5b91602061124392949361123c60408201965f830190610c9f565b0190610c9f565b565b346112775761125e61125836600461111e565b906111de565b9061127361126a610421565b92839283611222565b0390f35b610427565b90916060828403126112b1576112ae611297845f850161044d565b936112a5816020860161044d565b93604001610f96565b90565b61042b565b906112c0906108a8565b5f5260205260405f2090565b906112d6906108a8565b5f5260205260405f2090565b906112ec90611173565b5f5260205260405f2090565b1c90565b61130c90600861131193026112f8565b610a14565b90565b9061131f91546112fc565b90565b9061134a926113406113459261133b600a955f966112b6565b6112cc565b6112e2565b611314565b90565b3461137e5761137a61136961136336600461127c565b91611322565b611371610421565b918291826107c8565b0390f35b610427565b346113b55761139f61139636600461045c565b92919091615c2b565b6113a7610421565b806113b18161073e565b0390f35b610427565b91906040838203126113e257806113d66113df925f860161078e565b9360200161044d565b90565b61042b565b34611416576114006113fa3660046113ba565b90615ccc565b611408610421565b806114128161073e565b0390f35b610427565b61142690601661117f565b90611430826111a9565b81101561145b57611440916111b6565b50906114585f61145181850161090f565b9301610936565b90565b5f80fd5b346114915761147861147236600461111e565b9061141b565b9061148d611484610421565b92839283611222565b0390f35b610427565b346114c5576114af6114a9366004610878565b90616063565b6114b7610421565b806114c18161073e565b0390f35b610427565b906020828203126114e3576114e0915f0161110f565b90565b61042b565b6114fc6114f761150192610520565b6108a5565b610520565b90565b9061150e906114e8565b5f5260205260405f2090565b611525906007611504565b6115305f8201610a01565b9161153d600183016109d5565b9161154a600282016109d5565b9161155760058301610a01565b91611564600682016109d5565b9161157d6008611576600785016109d5565b93016109d5565b90565b949290979695939160e08601985f870161159991610812565b602086016115a691610ce0565b604085016115b391610ce0565b606084016115c091610812565b608083016115cd91610ce0565b60a082016115da91610ce0565b60c0016115e691610ce0565b565b3461161f5761161b6116036115fe3660046114ca565b61151a565b93611612979597939193610421565b97889788611580565b0390f35b610427565b919060a0838203126116755761163c815f850161044d565b9261164a826020830161044d565b9261167261165b846040850161044d565b93611669816060860161044d565b93608001610f96565b90565b61042b565b90611684906108a8565b5f5260205260405f2090565b9061169a906108a8565b5f5260205260405f2090565b926116d6906116d16116db946116cc6116e098956116c76010995f9a61167a565b611690565b6112b6565b6112cc565b6112e2565b611314565b90565b34611717576117136117026116f9366004611624565b939290926116a6565b61170a610421565b918291826107c8565b0390f35b610427565b919061172f905f60208501940190610c9f565b565b346117625761175e61174d611747366004610878565b90616091565b611755610421565b9182918261171c565b0390f35b610427565b5f91031261177157565b61042b565b7f000000000000000000000000000000000000000000000000000000000000000090565b91906117ad905f60208501940190610812565b565b346117df576117bf366004611767565b6117db6117ca611776565b6117d2610421565b9182918261179a565b0390f35b610427565b34611816576118006117f736600461045c565b92919091616464565b611808610421565b806118128161073e565b0390f35b610427565b919061182e905f60208501940190610ce0565b565b3461186057611840366004611767565b61185c61184b616495565b611853610421565b9182918261181b565b0390f35b610427565b7f000000000000000000000000000000000000000000000000000000000000000090565b346118b957611899366004611767565b6118b56118a4611865565b6118ac610421565b9182918261179a565b0390f35b610427565b906118c890611173565b5f5260205260405f2090565b5490565b5f5260205f2090565b6118ea816118d4565b821015611904576118fc6001916118d8565b910201905f90565b611195565b90565b61191c90600861192193026112f8565b611909565b90565b9061192f915461190c565b90565b61193d90600c6118be565b611946816118d4565b821015611963576119609161195a916118e1565b90611924565b90565b5f80fd5b61197090610777565b9052565b9190611987905f60208501940190611967565b565b346119ba576119b66119a561199f36600461111e565b90611932565b6119ad610421565b91829182611974565b0390f35b610427565b346119f1576119db6119d236600461045c565b9291909161685a565b6119e3610421565b806119ed8161073e565b0390f35b610427565b90959492611a4194611a30611a3a92611a26608096611a1c60a088019c5f890190610cd3565b6020870190610c9f565b6040850190610c9f565b6060830190610ce0565b0190610812565b565b34611a7857611a74611a5f611a59366004610878565b9061686c565b91611a6b959395610421565b958695866119f6565b0390f35b610427565b5190565b60209181520190565b60200190565b5190565b60209181520190565b60200190565b90611ab0816020936104b9565b0190565b60200190565b90611ad7611ad1611aca84611a90565b8093611a94565b92611a9d565b905f5b818110611ae75750505090565b909192611b00611afa6001928651611aa3565b94611ab4565b9101919091611ada565b5190565b60209181520190565b60200190565b90611b2a81602093610523565b0190565b60200190565b90611b51611b4b611b4484611b0a565b8093611b0e565b92611b17565b905f5b818110611b615750505090565b909192611b7a611b746001928651611b1d565b94611b2e565b9101919091611b54565b90611c319061010080611bf0611bde6101208501611ba85f8901515f8801906104b9565b611bba60208901516020880190610523565b611bcc60408901516040880190610523565b60608801518682036060880152611aba565b60808701518582036080870152611b34565b94611c0360a082015160a08601906104b9565b611c1560c082015160c0860190610523565b611c2760e082015160e0860190610523565b0151910190610523565b90565b90611c3e91611b84565b90565b60200190565b90611c5b611c5483611a7d565b8092611a81565b9081611c6c60208302840194611a8a565b925f915b838310611c7f57505050505090565b90919293946020611ca1611c9b83856001950387528951611c34565b97611c41565b9301930191939290611c70565b611cc39160208201915f818403910152611c47565b90565b34611cf657611cd6366004611767565b611cf2611ce1616c89565b611ce9610421565b91829182611cae565b0390f35b610427565b9091606082840312611d3057611d2d611d16845f850161044d565b93611d24816020860161044d565b9360400161110f565b90565b61042b565b90611d3f906108a8565b5f5260205260405f2090565b90611d55906108a8565b5f5260205260405f2090565b5490565b5f5260205f2090565b611d7781611d61565b821015611d9157611d89600191611d65565b910201905f90565b611195565b611da6906008611dab93026112f8565b6109e2565b90565b90611db99154611d96565b90565b90611dcb611dd0926009611d35565b611d4b565b611dd981611d61565b821015611df657611df391611ded91611d6e565b90611dae565b90565b5f80fd5b34611e2b57611e27611e16611e10366004611cfb565b91611dbc565b611e1e610421565b9182918261179a565b0390f35b610427565b90602082820312611e4957611e46915f01610f96565b90565b61042b565b90611e5890611173565b5f5260205260405f2090565b90565b611e77906008611e7c93026112f8565b611e64565b90565b90611e8a9154611e67565b90565b611ea390611e9e6011915f92611e4e565b611e7f565b90565b90565b611eb290611ea6565b9052565b9190611ec9905f60208501940190611ea9565b565b34611efb57611ef7611ee6611ee1366004611e30565b611e8d565b611eee610421565b91829182611eb6565b0390f35b610427565b611f10906008611f1593026112f8565b6109be565b90565b90611f239154611f00565b90565b611f3260035f90611f18565b90565b34611f6557611f45366004611767565b611f61611f50611f26565b611f58610421565b9182918261181b565b0390f35b610427565b5190565b60209181520190565b60200190565b611f8690611ea6565b9052565b90602080611fac93611fa25f8201515f8601906104b9565b0151910190611f7d565b565b90611fbb81604093611f8a565b0190565b60200190565b90611fe2611fdc611fd584611f6a565b8093611f6e565b92611f77565b905f5b818110611ff25750505090565b90919261200b6120056001928651611fae565b94611fbf565b9101919091611fe5565b61202a9160208201915f818403910152611fc5565b90565b3461205d5761203d366004611767565b612059612048616e3e565b612050610421565b91829182612015565b0390f35b610427565b9061206c906108a8565b5f5260205260405f2090565b90612082906108a8565b5f5260205260405f2090565b9061209890611173565b5f5260205260405f2090565b6120b49060086120b993026112f8565b6108f5565b90565b906120c791546120a4565b90565b906120f2926120e86120ed926120e3600e955f96612062565b612078565b61208e565b6120bc565b90565b346121265761212261211161210b36600461127c565b916120ca565b612119610421565b9182918261171c565b0390f35b610427565b61213490610777565b90565b906121419061212b565b5f5260205260405f2090565b61215961215e9161091c565b610a14565b90565b61216b905461214d565b90565b612179906014612137565b906121855f83016109d5565b91612192600182016109d5565b916121aa60026121a3818501610ade565b9301612161565b90565b6121b690610d21565b9052565b6121ef6121f6946121e56060949897956121db608086019a5f870190610ce0565b6020850190610ce0565b60408301906121ad565b01906107bb565b565b3461222c5761222861221361220e36600461079d565b61216e565b9061221f949294610421565b948594856121ba565b0390f35b610427565b346122615761225d61224c61224736600461079d565b616f0c565b612254610421565b918291826107c8565b0390f35b610427565b9694929099989795939161012088019a5f890161228291610ce0565b6020880161228f916107bb565b6040870161229c91610ce0565b606086016122a991610ce0565b608085016122b691610ce0565b60a084016122c391610ce0565b60c083016122d091610ce0565b60e082016122dd91610ce0565b610100016122ea91610ce0565b565b34612326576122fc366004611767565b612322612307617043565b95612319999799959195949294610421565b998a998a612266565b0390f35b610427565b90565b61234261233d6123479261232b565b6108a5565b610520565b90565b61235561232861232e565b90565b61236061234a565b90565b3461239357612373366004611767565b61238f61237e612358565b612386610421565b9182918261181b565b0390f35b610427565b346123c8576123a8366004611767565b6123c46123b3617159565b6123bb610421565b91829182611eb6565b0390f35b610427565b7f000000000000000000000000000000000000000000000000000000000000000090565b3461242157612401366004611767565b61241d61240c6123cd565b612414610421565b9182918261179a565b0390f35b610427565b346124575761245361244261243c366004610878565b90617179565b61244a610421565b918291826107c8565b0390f35b610427565b7f000000000000000000000000000000000000000000000000000000000000000090565b346124b057612490366004611767565b6124ac61249b61245c565b6124a3610421565b9182918261179a565b0390f35b610427565b90565b6124cc6124c76124d1926124b5565b6108a5565b610520565b90565b6124de60fa6124b8565b90565b6124e96124d4565b90565b3461251c576124fc366004611767565b6125186125076124e1565b61250f610421565b9182918261181b565b0390f35b610427565b90916060828403126125565761255361253c845f850161078e565b9361254a816020860161044d565b93604001610f96565b90565b61042b565b3461258a5761257461256e366004612521565b916172ba565b61257c610421565b806125868161073e565b0390f35b610427565b61259b60015f906120bc565b90565b346125ce576125ae366004611767565b6125ca6125b961258f565b6125c1610421565b9182918261171c565b0390f35b610427565b6125dc906104f5565b9052565b60409061260961261094969593966125ff60608401985f850190610812565b60208301906107bb565b01906125d3565b565b346126455761264161262d61262836600461079d565b61730c565b612638939193610421565b938493846125e0565b0390f35b610427565b346126795761266361265d366004610878565b9061747b565b61266b610421565b806126758161073e565b0390f35b610427565b906126889061212b565b5f5260205260405f2090565b60ff1690565b6126a66126ab91610a0e565b612694565b90565b6126b8905461269a565b90565b634e487b7160e01b5f52602260045260245ffd5b90600160028304921680156126ef575b60208310146126ea57565b6126bb565b91607f16916126df565b60209181520190565b5f5260205f2090565b905f929180549061272561271e836126cf565b80946126f9565b916001811690815f1461277c5750600114612740575b505050565b61274d9192939450612702565b915f925b81841061276457505001905f808061273b565b60018160209295939554848601520191019290612751565b92949550505060ff19168252151560200201905f808061273b565b906127a19161270b565b90565b906127c46127bd926127b4610421565b93848092612797565b0383610b32565b565b6127d190601561267e565b906127dd5f8301610a01565b916127ea60018201610a01565b916127f760028301610a01565b9161280460038201610a01565b9161281160048301610a01565b9161281e600482016126ae565b9161282b60048301610a55565b91612838600582016109d5565b91612845600683016109d5565b91612852600782016109d5565b9161285f600883016109d5565b9161286c600982016109d5565b91612885600b61287e600a85016109d5565b93016127a4565b90565b5190565b60209181520190565b90825f9392825e0152565b6128bf6128c86020936128cd936128b681612888565b9384809361288c565b95869101612895565b610b14565b0190565b9c9a9896949290918d9c9a989694926101c08e019e5f016128f191610812565b60208d016128fe91610812565b60408c0161290b91610812565b60608b0161291891610812565b60808a0161292591610812565b60a08901612932916125d3565b60c0880161293f916107bb565b60e0870161294c91610ce0565b610100860161295a91610ce0565b610120850161296891610ce0565b610140840161297691610ce0565b610160830161298491610ce0565b610180820161299291610ce0565b808203906101a001526129a4916128a0565b90565b346129ea576129e66129c26129bd36600461079d565b6127c6565b9a6129dd9e9c9e9a919a999299989398979497969596610421565b9e8f9e8f6128d1565b0390f35b610427565b7f000000000000000000000000000000000000000000000000000000000000000090565b34612a4357612a23366004611767565b612a3f612a2e6129ef565b612a36610421565b9182918261179a565b0390f35b610427565b612a5460045f90611f18565b90565b34612a8757612a67366004611767565b612a83612a72612a48565b612a7a610421565b9182918261181b565b0390f35b610427565b9190604083820312612ab45780612aa8612ab1925f8601610f96565b9360200161078e565b90565b61042b565b90612ac390611173565b5f5260205260405f2090565b90612ad99061212b565b5f5260205260405f2090565b612afe612b0392612af9600d935f94612ab9565b612acf565b611f18565b90565b34612b3757612b33612b22612b1c366004612a8c565b90612ae5565b612b2a610421565b9182918261181b565b0390f35b610427565b90612b46906108a8565b5f5260205260405f2090565b90612b5c906108a8565b5f5260205260405f2090565b90612b7290611173565b5f5260205260405f2090565b90612ba692612b9c612ba192612b97600f955f96612b3c565b612b52565b612b68565b611f18565b90565b34612bda57612bd6612bc5612bbf36600461127c565b91612b7e565b612bcd610421565b9182918261181b565b0390f35b610427565b5190565b60209181520190565b60200190565b90602080612c1493612c0a5f8201515f860190610530565b0151910190610530565b565b90612c2381604093612bf2565b0190565b60200190565b90612c4a612c44612c3d84612bdf565b8093612be3565b92612bec565b905f5b818110612c5a5750505090565b909192612c73612c6d6001928651612c16565b94612c27565b9101919091612c4d565b612c929160208201915f818403910152612c2d565b90565b34612cc557612cc1612cb0612cab366004611e30565b61756b565b612cb8610421565b91829182612c7d565b0390f35b610427565b34612cfa57612cf6612ce5612ce0366004611e30565b61758a565b612ced610421565b91829182612c7d565b0390f35b610427565b90565b612d16612d11612d1b92612cff565b6108a5565b610433565b90565b612d2860ff612d02565b90565b612d33612d1e565b90565b34612d6657612d46366004611767565b612d62612d51612d2b565b612d59610421565b9182918261171c565b0390f35b610427565b7f000000000000000000000000000000000000000000000000000000000000000090565b34612dbf57612d9f366004611767565b612dbb612daa612d6b565b612db2610421565b9182918261179a565b0390f35b610427565b34612df257612ddc612dd736600461079d565b6175a9565b612de4610421565b80612dee8161073e565b0390f35b610427565b90565b612e0e612e09612e1392612df7565b6108a5565b610520565b90565b612e21612710612dfa565b90565b612e2c612e16565b90565b34612e5f57612e3f366004611767565b612e5b612e4a612e24565b612e52610421565b9182918261181b565b0390f35b610427565b919060a083820312612eb557612e7c815f850161078e565b92612e8a826020830161044d565b92612eb2612e9b846040850161044d565b93612ea9816060860161044d565b9360800161044d565b90565b61042b565b9061018080612fab93612ed35f8201515f8601906104b9565b612ee5602082015160208601906104b9565b612ef7604082015160408601906104b9565b612f09606082015160608601906104b9565b612f1b60808201516080860190610501565b612f2d60a082015160a0860190610513565b612f3f60c082015160c0860190610523565b612f5160e082015160e0860190610523565b612f65610100820151610100860190610530565b612f79610120820151610120860190610530565b612f8d610140820151610140860190610530565b612fa1610160820151610160860190610530565b0151910190610513565b565b9190612fc1905f6101a08501940190612eba565b565b34612ff757612ff3612fe2612fd9366004612e64565b939290926176b4565b612fea610421565b91829182612fad565b0390f35b610427565b61301061300a366004610878565b9061792d565b613018610421565b806130228161073e565b0390f35b346130555761303f613039366004610878565b90617acb565b613047610421565b806130518161073e565b0390f35b610427565b3461308e5761308a61307961307036600461045c565b92919091617ce0565b613081610421565b918291826107c8565b0390f35b610427565b9061309d906108a8565b5f5260205260405f2090565b906130b3906108a8565b5f5260205260405f2090565b906130c9906108a8565b5f5260205260405f2090565b6130e16130e691610943565b610a14565b90565b6130f390546130d5565b90565b613113929161310961310e92600b613093565b6130a9565b6130bf565b9061311f5f830161090f565b9161312b5f8201610936565b916131425f61313b8185016130e9565b930161098a565b90565b61317a61318194613170606094989795613166608086019a5f870190610c9f565b6020850190610c9f565b60408301906107bb565b0190610c9f565b565b346131b8576131b461319f613199366004610704565b916130f6565b906131ab949294610421565b94859485613145565b0390f35b610427565b6131c68161050e565b036131cd57565b5f80fd5b905035906131de826131bd565b565b9091606082840312613215576132126131fb845f850161078e565b936132098160208601610f96565b936040016131d1565b90565b61042b565b346132495761323361322d3660046131e0565b91617ef0565b61323b610421565b806132458161073e565b0390f35b610427565b90565b61326561326061326a9261324e565b6108a5565b610520565b90565b6132786102ee613251565b90565b61328361326d565b90565b346132b657613296366004611767565b6132b26132a161327b565b6132a9610421565b9182918261181b565b0390f35b610427565b346132e9576132cb366004611767565b6132d361803b565b6132db610421565b806132e58161073e565b0390f35b610427565b5f80fd5b6132fc60e0610b5b565b90565b61330a6101a0610b5b565b90565b5f90565b5f90565b5f90565b5f90565b5f90565b6020908180808080808080808080806133386132ff565b9d8e61334261330d565b81520161334d61330d565b81520161335861330d565b81520161336361330d565b81520161336e613311565b815201613379613315565b815201613384613319565b81520161338f613319565b81520161339a61331d565b8152016133a561331d565b8152016133b061331d565b8152016133bb61331d565b8152016133c6613315565b81525050565b6133d4613321565b90565b6133df6132f2565b906020808080808080886133f16133cc565b8152016133fc613319565b81520161340761330d565b81520161341261330d565b81520161341d613319565b815201613428613319565b815201613433613319565b81525050565b6134416133d7565b90565b90565b90565b61345e61345961346392613447565b6108a5565b6104a2565b90565b61346f9061344a565b90565b61347d6101a0610b5b565b90565b9061348a906104ad565b9052565b90613498906104e9565b9052565b906134a69061050e565b9052565b906134b490610433565b9052565b6134c0613439565b506134e16134dc6134d5838587908992618081565b601561267e565b613444565b926134ed5f8501610a01565b6135076135016134fc5f613466565b6104ad565b916104ad565b0361351c575050505050613519613439565b90565b613524613439565b9461352e5f613466565b9161354461353e60048801610a55565b1561050e565b80613774575b613720575b855f0161355b90610a01565b948660010161356990610a01565b948760020161357790610a01565b9488600401613585906126ae565b8960040161359290610a55565b908a6007016135a0906109d5565b928b6008016135ae906109d5565b94959697985f9a6135bd613472565b9c5f8e01906135cb91613480565b60208d01906135d991613480565b60408c01906135e791613480565b60608b01906135f591613480565b60808a01906136039161348e565b60a08901906136119161349c565b60c088019061361f91610ab6565b60e087019061362d91610ab6565b61010086019061363c916134aa565b61012085019061364b916134aa565b61014084019061365a916134aa565b610160830190613669916134aa565b6101808201906136789161349c565b825f015280600501613689906109d5565b826020019061369791610ab6565b806003016136a490610a01565b82604001906136b291613480565b806004016136bf90610a01565b82606001906136cd91613480565b806009016136da906109d5565b82608001906136e891610ab6565b80600a016136f5906109d5565b8260a0019061370391610ab6565b60080161370f906109d5565b8160c0019061371d91610ab6565b90565b915061372e60028601610a01565b61374a61374461373f5f8901610a01565b6104ad565b916104ad565b145f146137645761375d60018601610a01565b5b9161354f565b61376f5f8601610a01565b61375e565b5061378160028701610a01565b61379b6137956137905f613466565b6104ad565b916104ad565b141561354a565b90565b5f1b90565b906137b660ff916137a5565b9181191691161790565b90565b906137d86137d36137df926108a8565b6137c0565b82546137aa565b9055565b6137f76137f26137fc92613447565b6108a5565b610433565b90565b60081b90565b9061381261ff00916137ff565b9181191691161790565b9061383161382c613838926108a8565b6137c0565b8254613805565b9055565b60101b90565b9061385062ff00009161383c565b9181191691161790565b6138639061050e565b90565b90565b9061387e6138796138859261385a565b613866565b8254613842565b9055565b60181b90565b9061389e63ff00000091613889565b9181191691161790565b906138bd6138b86138c4926108a8565b6137c0565b825461388f565b9055565b90565b90565b90565b6138e56138e06138ea926138ce565b6108a5565b610433565b90565b634e487b7160e01b5f52601260045260245ffd5b61390d61391391610433565b91610433565b90811561391e570690565b6138ed565b90565b61393a61393561393f92613923565b6108a5565b610433565b90565b90565b61395161395691610520565b613942565b9052565b60f81b90565b6139699061395a565b90565b61397861397d91610433565b613960565b9052565b60016139c4946139b4602083999895966139ac82876139a46139bc99899c613945565b018092613945565b01809261396c565b01809261396c565b01809261396c565b0190565b60200190565b5190565b6139de6139e3916108f0565b6114e8565b90565b6139fa6139f56139ff92610433565b6108a5565b610520565b90565b613a0e613a1491610520565b91610520565b908115613a1f570690565b6138ed565b613a38613a33613a3d92610520565b6108a5565b610433565b90565b5490565b5f5260205f2090565b613a5681613a40565b821015613a7057613a68600191613a44565b910201905f90565b611195565b634e487b7160e01b5f52601160045260245ffd5b613a95613a9b91610433565b91610433565b90039060ff8211613aa857565b613a75565b1b90565b91906008613ad1910291613acb60018060a01b0384613aad565b92613aad565b9181191691161790565b90565b9190613af4613aef613afc93611173565b613adb565b908354613ab1565b9055565b6001613b0c9101610433565b90565b613b1b613b2191610433565b91610433565b0290613b2c82610433565b918203613b3557565b613a75565b613b46613b4c91610433565b91610433565b019060ff8211613b5857565b613a75565b90565b5f5260205f2090565b5490565b613b7681613b69565b821015613b9057613b88600191613b60565b910201905f90565b611195565b91906008613bb0910291613baa5f1984613aad565b92613aad565b9181191691161790565b613bc3906108f0565b90565b9190613bdc613bd7613be49361212b565b613bba565b908354613b95565b9055565b9081549168010000000000000000831015613c185782613c10916001613c1695018155613b6d565b90613bc6565b565b610b1e565b613c31613c2c613c3692613923565b6108a5565b610520565b90565b613c48613c4e91939293610520565b92610520565b8203918211613c5957565b613a75565b90613c6a5f19916137a5565b9181191691161790565b90565b90613c8c613c87613c93926114e8565b613c74565b8254613c5e565b9055565b90959492613ce294613cd1613cdb92613cc7608096613cbd60a088019c5f890190610c9f565b6020870190610c9f565b6040850190610c9f565b6060830190610c9f565b0190610812565b565b67ffffffffffffffff8111613d0257613cfe602091610b14565b0190565b610b1e565b90613d19613d1483613ce4565b610b5b565b918252565b606090565b3d5f14613d3e57613d333d613d07565b903d5f602084013e5b565b613d46613d1e565b90613d3c565b5f7f4157000000000000000000000000000000000000000000000000000000000000910152565b613d80600260209261288c565b613d8981613d4c565b0190565b613da29060208101905f818303910152613d73565b90565b15613dac57565b613db4610421565b62461bcd60e51b815280613dca60048201613d8d565b0390fd5b9190613ddb838290616091565b91613e45613e07613e02613dfb613df4600b8990613093565b86906130a9565b84906130bf565b6137a2565b613e13855f83016137c3565b613e27613e1f5f6137e3565b5f830161381c565b613e3460015f8301613869565b5f613e3e816137e3565b91016138a8565b80613e58613e525f6137e3565b91610433565b14613e64575b50505050565b613e86613e81613e7a6009979596978890611d35565b8490611d4b565b6138c8565b92613ea5613ea0613e99600889906108c4565b85906108da565b6138cb565b94613eaf5f613466565b95613ece613ebe5f83016109b1565b613ec860026138d1565b90613901565b613ee1613edb6001613926565b91610433565b14614114575b50613ef15f6137e3565b5b80613f05613eff84610433565b91610433565b10156140605761405b906140568961405189613ffc613f9c613f7e613f78613f4a613f4486613f3e8c613f3860026138d1565b90613b0f565b90613a4d565b90611dae565b94613f72613f628b613f5c60026138d1565b90613b0f565b613f6c6001613926565b90613b3a565b90613a4d565b90611dae565b94613f928d8d8391908b9088928b94614dd6565b8c8c908992618081565b91613fbb613fb4613faf600c84906118be565b613b5d565b8490613be8565b613ff7613ff0613fe8613fd8613fd3600c86906118be565b6118d4565b613fe26001613c1d565b90613c39565b92600d612ab9565b8490612acf565b613c77565b61401a61401361400e600c86906118be565b613b5d565b8290613be8565b61404c61404461403461402f600c87906118be565b6118d4565b61403e6001613c1d565b90613c39565b93600d612ab9565b612acf565b613c77565b613b00565b613ef2565b509492935094908261408261407c6140775f613466565b6104ad565b916104ad565b0361408e575b50613e5e565b6140f35f946140e461410a9787967f00000000000000000000000000000000000000000000000000000000000000009693959190916140cb610421565b96879560046020880163b902ec4760e01b815201613c97565b60208201810382520382610b32565b602081019051915af4614104613d23565b50613da5565b5f80808080614088565b955061421f6141956141906141778a61415f8b6141508b449261413b5f42979392016109b1565b91614144610421565b96879560208701613981565b60208201810382520382610b32565b61417161416b826139ce565b916139c8565b206139d2565b61418a6141855f8c016109b1565b6139e6565b90613a02565b613a24565b966141ef6141ad6141a7898b90613a4d565b90611dae565b986141e96141e26141dc8b6141d66141c65f89016109b1565b6141d06001613926565b90613a89565b90613a4d565b90611dae565b918a613a4d565b90613ade565b61421988916142136142035f8b93016109b1565b61420d6001613926565b90613a89565b90613a4d565b90613ade565b5f613ee7565b5f90565b61424061424591614238614225565b50601561267e565b613444565b614251600482016126ae565b61426461425e60016104e9565b916104e9565b036142e3576142cd6142c76142854261427f600886016109d5565b90613c39565b9261429260038201610a01565b6142ae6142a86142a35f8501610a01565b6104ad565b916104ad565b145f146142d25760096142c191016109d5565b5b610520565b91610520565b101590565b600a6142de91016109d5565b6142c2565b505f90565b5f90565b61430c614311916142fb6142e8565b506143046142e8565b50601561267e565b613444565b9061432960016143225f8501610a01565b9301610a01565b90565b906143419493929161433c6180db565b6146c2565b61434961813e565b565b90565b61436261435d6143679261434b565b6108a5565b610433565b90565b5f7f4943000000000000000000000000000000000000000000000000000000000000910152565b61439e600260209261288c565b6143a78161436a565b0190565b6143c09060208101905f818303910152614391565b90565b156143ca57565b6143d2610421565b62461bcd60e51b8152806143e8600482016143ab565b0390fd5b5f7f4d41000000000000000000000000000000000000000000000000000000000000910152565b614420600260209261288c565b614429816143ec565b0190565b6144429060208101905f818303910152614413565b90565b1561444c57565b614454610421565b62461bcd60e51b81528061446a6004820161442d565b0390fd5b5f7f4e50000000000000000000000000000000000000000000000000000000000000910152565b6144a2600260209261288c565b6144ab8161446e565b0190565b6144c49060208101905f818303910152614495565b90565b156144ce57565b6144d6610421565b62461bcd60e51b8152806144ec600482016144af565b0390fd5b5f7f4e54000000000000000000000000000000000000000000000000000000000000910152565b614524600260209261288c565b61452d816144f0565b0190565b6145469060208101905f818303910152614517565b90565b1561455057565b614558610421565b62461bcd60e51b81528061456e60048201614531565b0390fd5b5f7f434f000000000000000000000000000000000000000000000000000000000000910152565b6145a6600260209261288c565b6145af81614572565b0190565b6145c89060208101905f818303910152614599565b90565b156145d257565b6145da610421565b62461bcd60e51b8152806145f0600482016145b3565b0390fd5b61460861460361460d92613447565b6108a5565b610520565b90565b61461f61462591939293610520565b92610520565b820180921161463057565b613a75565b90565b9061464d6146486146549261385a565b613866565b8254613805565b9055565b61466190610afa565b90565b90565b9061467c61467761468392614658565b614664565b82546137aa565b9055565b9061469860018060a01b03916137a5565b9181191691161790565b906146b76146b26146be92611173565b613adb565b8254614687565b9055565b9290926146e2856146dc6146d6600961434e565b91610433565b106143c3565b6149816146f3828686908692618081565b6147076147026015839061267e565b613444565b9661473061471760048a016126ae565b61472a61472460016104e9565b916104e9565b14614445565b3361474d6147476147425f8c01610a01565b6104ad565b916104ad565b148015614ad9575b61475e906144c7565b6147853361477f61477961477460038d01610a01565b6104ad565b916104ad565b14614549565b6147b661479e61479760058b016109d5565b8390618197565b6147b06147aa5f6137e3565b91610433565b146145cb565b6147cc426147c660088b016109d5565b90613c39565b6147d860038a01610a01565b6147f46147ee6147e95f8d01610a01565b6104ad565b916104ad565b145f14614a545761480760098a016109d5565b61481961481383610520565b91610520565b115f14614a42576148386148429161483360098c016109d5565b613c39565b5b60098a01613c77565b61486961484d616495565b61486360098b019161485e836109d5565b614610565b90613c77565b5b6148774260088a01613c77565b3361489461488e6148895f8c01610a01565b6104ad565b916104ad565b145f14614a33576148a56001613926565b5b916148ca6148c16148b960058c016109d5565b8486916181fc565b60058b01613c77565b6149216148e16148dc60148490612137565b614635565b6148ee5f60028301614638565b6149026148fa5f6145f4565b5f8301613c77565b61491761490e5f6145f4565b60018301613c77565b60025f9101614667565b9033909161496d61495b6149557f232b99b4b0c61841be48c52a5ce7579d06297f599d16a18d0232ff5d205b8ba79361212b565b93611173565b93614964610421565b9182918261171c565b0390a361497c600588016109d5565b618316565b614a1e57614999614994600587016109d5565b618b0d565b6149ff5750505050806149b160036149ea9301610a01565b6149cd6149c76149c25f8501610a01565b6104ad565b916104ad565b145f146149ec5760036149e260018301610a01565b915b016146a2565b565b60036149f95f8301610a01565b916149e4565b614a1c9450929190614a105f613466565b916001936002956188c3565b565b614a31945092919033915f935f956188c3565b565b614a3d60026138d1565b6148a6565b50614842614a4f5f6145f4565b614839565b614a60600a8a016109d5565b614a72614a6c83610520565b91610520565b115f14614ac757614a91614a9b91614a8c600a8c016109d5565b613c39565b5b600a8a01613c77565b614ac2614aa6616495565b614abc600a8b0191614ab7836109d5565b614610565b90613c77565b61486a565b50614a9b614ad45f6145f4565b614a92565b5061475e33614afb614af5614af060018d01610a01565b6104ad565b916104ad565b149050614755565b90614b109493929161432c565b565b5f90565b91614b4c614b5192614b47614b5695614b2d614b12565b50614b36614b12565b50614b3f614225565b50600b613093565b6130a9565b6130bf565b6137a2565b90614b625f830161090f565b90614b795f614b72818601610936565b94016130e9565b91929190565b5f7f5031000000000000000000000000000000000000000000000000000000000000910152565b614bb3600260209261288c565b614bbc81614b7f565b0190565b614bd59060208101905f818303910152614ba6565b90565b15614bdf57565b614be7610421565b62461bcd60e51b815280614bfd60048201614bc0565b0390fd5b5f7f5032000000000000000000000000000000000000000000000000000000000000910152565b614c35600260209261288c565b614c3e81614c01565b0190565b614c579060208101905f818303910152614c28565b90565b15614c6157565b614c69610421565b62461bcd60e51b815280614c7f60048201614c42565b0390fd5b60a01b90565b90614c9860ff60a01b91614c83565b9181191691161790565b614cab906104e9565b90565b90565b90614cc6614cc1614ccd92614ca2565b614cae565b8254614c89565b9055565b60a81b90565b90614ce660ff60a81b91614cd1565b9181191691161790565b90614d05614d00614d0c9261385a565b613866565b8254614cd7565b9055565b60601b90565b614d1f90614d10565b90565b614d2b90614d16565b90565b614d3a614d3f916104ad565b614d22565b9052565b90565b614d52614d5791610777565b614d43565b9052565b6014614d9d94614d8d60208396614d858287614d7d614d9599839f9e9b613945565b018092613945565b018092614d2e565b018092614d2e565b018092614d46565b0190565b614db5614db0614dba926138ce565b6108a5565b610520565b90565b90614dc7906108a8565b5f5260205260405f2090565b90565b614f51614f4c600292614f2e614eb298614f8c9a614f0a614efb614e515f9a614f7a9d614f719d614e1a88614e13614e0d8a6104ad565b916104ad565b1415614bd8565b87614e368f614e2b614e3091613466565b6104ad565b916104ad565b141580614f95575b614e4790614c5a565b8992909192618081565b614e65614e606015839061267e565b613444565b9d8e614e73878e83016146a2565b614e8086600183016146a2565b614e8e600160048301614cb1565b614e9b4260088301613c77565b614ea84260078301613c77565b60048d9101614cf0565b614ee344614ed442938890889091614ec8610421565b96879560208701614d5b565b60208201810382520382610b32565b614ef5614eef826139ce565b916139c8565b206139d2565b614f0489614da1565b90613a02565b614f1c614f168a6145f4565b91610520565b148814614f8e57505b60038a016146a2565b614f46614f3d60038a01610a01565b60048a016146a2565b83614dbd565b614dd3565b614f6a614f6184848401016109d5565b60098801613c77565b01016109d5565b600a8301613c77565b6005614f855f6145f4565b9101613c77565b565b9050614f25565b50614e47878f614faf614faa614fb592613466565b6104ad565b916104ad565b14159050614e3e565b92614fc7614225565b50614ff05f614fea614fe5614fde600889906108c4565b86906108da565b6138cb565b01610963565b615003614ffd6001610cbb565b91610cbb565b036151c857615016928492909192618081565b61502a6150256015839061267e565b613444565b906150365f8301610a01565b61505061504a6150455f613466565b6104ad565b916104ad565b1480156151a1575b61519a576150724261506c600885016109d5565b90613c39565b61507e60038401610a01565b61509a61509461508f5f8701610a01565b6104ad565b916104ad565b145f14615183576150bf6150b96150b3600986016109d5565b5b610520565b91610520565b1061517c576150d26150d7916014612137565b614635565b916150ed6150e760028501612161565b1561050e565b61511657505061511161510b61510660014294016109d5565b610520565b91610520565b101590565b615164925060036002615156615143600861513c61513761515e9786614dbd565b614dd3565b96016109d5565b6151505f848801016109d5565b90614610565b9301016109d5565b90614610565b6151776151714292610520565b91610520565b101590565b5050505f90565b6150bf6150b9615195600a86016109d5565b6150b4565b5050505f90565b506151ae600483016126ae565b6151c16151bb60016104e9565b916104e9565b1415615058565b505050505f90565b6151dc6151e1916108f0565b610a14565b90565b6151ee90546151d0565b90565b6151fa90611167565b90565b6152069061114b565b90565b615212906151fd565b90565b61521e90610433565b60ff811461522c5760010190565b613a75565b61523a90611167565b90565b60e01b90565b9050519061525082610f82565b565b9050519061525f826131bd565b565b6003111561526b57565b5f80fd5b9050519061527c82615261565b565b90916060828403126152b3576152b0615299845f8501615243565b936152a78160208601615252565b9360400161526f565b90565b61042b565b6152c0610421565b3d5f823e3d90fd5b91906040838203126152f057806152e46152ed925f8601615243565b93602001615243565b90565b61042b565b929190615300614225565b5061533261532c615327615320615319600a89906112b6565b85906112cc565b86906112e2565b6151e4565b1561050e565b6156a65761534a615345949294306151f1565b615209565b916153545f6137e3565b905b8161536961536388610433565b91610433565b116154d95761539661539161538a615383600b8590613093565b86906130a9565b84906130bf565b6137a2565b956153a05f6137e3565b5b806153be6153b86153b35f8c0161090f565b610433565b91610433565b10156154c55761540760606153d7858888908692618081565b6153e089615231565b6153fc6397556f676153f0610421565b9586948593849361523d565b835260048301611974565b03915afa80156154c0575f808093909261548e575b50909161543261542c60026104e9565b916104e9565b149081615473575b509081615462575b506154555761545090613b00565b6153a1565b5050505050505050600190565b61546d91501561050e565b5f615442565b90506154876154818a6104ad565b916104ad565b145f61543a565b9150506154b2915060603d81116154b9575b6154aa8183610b32565b81019061527e565b915f61541c565b503d6154a0565b6152b8565b50916154d2919650615215565b9094615356565b90506155036154f26154ed60028490614dbd565b614dd3565b956154fd6001613926565b90613b3a565b905b8161552361551d61551860088a0161090f565b610433565b91610433565b101561569c5761555161554c61554561553e600b8590613093565b86906130a9565b84906130bf565b6137a2565b956155666155605f89016130e9565b1561050e565b615690576155735f6137e3565b5b8061559161558b6155865f8c0161090f565b610433565b91610433565b101561567b576155da60406155aa858888908692618081565b6155b389615231565b6155cf631ec3b8ad6155c3610421565b9586948593849361523d565b835260048301611974565b03915afa8015615676575f80929091615645575b506156016155fb8a6104ad565b916104ad565b1490811561562a575b5061561d5761561890613b00565b615574565b5050505050505050600190565b905061563e615638896104ad565b916104ad565b145f61560a565b9050615668915060403d811161566f575b6156608183610b32565b8101906152c8565b905f6155ee565b503d615656565b6152b8565b50916156899196505b613b00565b9094615505565b91615689919650615684565b5050505050505f90565b505050505f90565b906156c29392916156bd6180db565b61586f565b6156ca61813e565b565b67ffffffffffffffff81116156e45760208091020190565b610b1e565b906156fb6156f6836156cc565b610b5b565b918252565b369037565b9061572a615712836156e9565b9260208061572086936156cc565b9201910390615700565b565b60016157389101610520565b90565b9061574582611a90565b811015615756576020809102010190565b611195565b6157906157979461578660609498979561577c608086019a5f870190610c9f565b6020850190610c9f565b6040830190610c9f565b0190610c9f565b565b5f7f4352000000000000000000000000000000000000000000000000000000000000910152565b6157cd600260209261288c565b6157d681615799565b0190565b6157ef9060208101905f8183039101526157c0565b90565b61582761582e9461581d606094989795615813608086019a5f870190610812565b60208501906107bb565b6040830190610d14565b0190610ce0565b565b604090615859615860949695939661584f60608401985f850190610c9f565b6020830190610c9f565b0190610c9f565b565b61586c90516104ad565b90565b90919361589861589361588e61588760098690611d35565b8690611d4b565b611d61565b615705565b946158a25f6145f4565b5b806158d36158cd6158c86158c36158bc60098a90611d35565b8a90611d4b565b611d61565b610520565b91610520565b1015615925576159209061591b6159096159036158fc6158f560098a90611d35565b8a90611d4b565b8490611d6e565b90611dae565b6159168a9184909261573b565b613480565b61572c565b6158a3565b509091935f807f0000000000000000000000000000000000000000000000000000000000000000876159888891615979888890615960610421565b958694600460208701631b3b1cf160e11b81520161575b565b60208201810382520382610b32565b602081019051915af46159a361599c613d23565b911561050e565b615bdf57506159b790859085849192618081565b6159cb6159c66015839061267e565b613444565b906159d75f8301610a01565b6159e360018401610a01565b91335f90615a466159f86005600498016109d5565b615a34615a2e615a287f9df5b4d746303d3796646c5fa6da5d7e660bde8b83369dadd626bb5fc1fcab1f9761212b565b97611173565b97611173565b97615a3d610421565b948594856157f2565b0390a4615a5584843391618b77565b615a7d615a78615a71615a6a600b8890613093565b86906130a9565b83906130bf565b6137a2565b615aa4615a9e615a995f615a92818601610936565b940161090f565b610433565b91610433565b14615b61575b50615acf615aca615aba86611a90565b615ac46001613c1d565b90614610565b615705565b91615ad95f6145f4565b5b80615af5615aef615aea89611a90565b610520565b91610520565b1015615b3157615b2c90615b27615b15615b1089849061573b565b615862565b615b22879184909261573b565b613480565b61572c565b615ada565b5091909392615b57615b5f94615b5233615b4b8693611a90565b909261573b565b613480565b919091618fb9565b565b5f80615bd9927f000000000000000000000000000000000000000000000000000000000000000090615bc288615bb38993615b9a610421565b948593600460208601630ee272f360e31b815201615830565b60208201810382520382610b32565b602081019051915af4615bd3613d23565b506145cb565b5f615aaa565b615be8816139ce565b615bfa615bf45f6145f4565b91610520565b115f14615c0957805190602001fd5b615c11610421565b62461bcd60e51b815280615c27600482016157da565b0390fd5b90615c379392916156ae565b565b905090565b5f7f7265706c61790000000000000000000000000000000000000000000000000000910152565b615c7160068092615c39565b615c7a81615c3e565b0190565b93615cbb6014615cc99795615cb36020615cc397615cab828c615ca3829e899c613945565b018092613945565b018092614d2e565b018092614d2e565b018092614d46565b01615c65565b90565b600a615e385f6002615e18615e13615e3f97615dc4615db5615cf8615cf360158c9061267e565b613444565b99615d07600160048d01614cb1565b615d144260078d01613c77565b615d214260088d01613c77565b615d36615d2d896145f4565b60058d01613c77565b615d438860048d01614cf0565b615d57615d4f89613466565b888d016146a2565b615d9d44615d8e8d4294615d786001615d718f8501610a01565b9301610a01565b9091615d82610421565b96879560208701615c7e565b60208201810382520382610b32565b615daf615da9826139ce565b916139c8565b206139d2565b615dbe86614da1565b90613a02565b615dd6615dd0876145f4565b91610520565b148514615e4157615df5615deb868a01610a01565b5b60038a016146a2565b615e0d615e0460038a01610a01565b60048a016146a2565b83614dbd565b614dd3565b615e31615e2884848401016109d5565b60098801613c77565b01016109d5565b9101613c77565b565b615df5615e5060018a01610a01565b615dec565b90615e6791615e626180db565b615f75565b615e6f61813e565b565b5f7f4341450000000000000000000000000000000000000000000000000000000000910152565b615ea5600360209261288c565b615eae81615e71565b0190565b615ec79060208101905f818303910152615e98565b90565b15615ed157565b615ed9610421565b62461bcd60e51b815280615eef60048201615eb2565b0390fd5b5f7f5254000000000000000000000000000000000000000000000000000000000000910152565b615f27600260209261288c565b615f3081615ef3565b0190565b615f499060208101905f818303910152615f1a565b90565b15615f5357565b615f5b610421565b62461bcd60e51b815280615f7160048201615f34565b0390fd5b5f809161606193615ff283807f000000000000000000000000000000000000000000000000000000000000000085615fdb8691615fcc615fb3610421565b938492600460208501633864cd6b60e01b815201611222565b60208201810382520382610b32565b602081019051915af4615fec613d23565b50615eca565b61604a7f00000000000000000000000000000000000000000000000000000000000000009261603b616022610421565b9384926004602085016357f7cf7160e01b815201611222565b60208201810382520382610b32565b602081019051915af461605b613d23565b50615f4c565b565b9061606d91615e55565b565b61607b61608191610433565b91610433565b90811561608c570490565b6138ed565b5f6160ca6160c56160e0946160c06160d0956160ab614b12565b506160b860028290614dbd565b5060086108c4565b6108da565b6138cb565b016109b1565b6160da60026138d1565b9061606f565b90565b906160f79392916160f26180db565b61615a565b6160ff61813e565b565b5f7f4645000000000000000000000000000000000000000000000000000000000000910152565b616135600260209261288c565b61613e81616101565b0190565b6161579060208101905f818303910152616128565b90565b9091939261618461617f61617a61617360098690611d35565b8690611d4b565b611d61565b615705565b9361618e5f6145f4565b5b806161bf6161b96161b46161af6161a860098a90611d35565b8a90611d4b565b611d61565b610520565b91610520565b10156162115761620c906162076161f56161ef6161e86161e160098a90611d35565b8a90611d4b565b8490611d6e565b90611dae565b616202899184909261573b565b613480565b61572c565b61618f565b50939190945f807f0000000000000000000000000000000000000000000000000000000000000000846162758891616266878d9061624d610421565b958694600460208701634d9d161160e01b81520161575b565b60208201810382520382610b32565b602081019051915af4616290616289613d23565b911561050e565b61641857506162a86163989596839086849192618081565b6162bc6162b76015839061267e565b613444565b906162c85f8301610a01565b6162d460018401610a01565b91335f906163376162e96005600398016109d5565b61632561631f6163197f9df5b4d746303d3796646c5fa6da5d7e660bde8b83369dadd626bb5fc1fcab1f9761212b565b97611173565b97611173565b9761632e610421565b948594856157f2565b0390a461636261635d61635661634f600b8690613093565b87906130a9565b83906130bf565b6137a2565b61638961638361637e5f616377818601610936565b940161090f565b610433565b91610433565b1461639a575b50919091618fb9565b565b5f80616412927f0000000000000000000000000000000000000000000000000000000000000000906163fb866163ec8a936163d3610421565b948593600460208601630ee272f360e31b815201615830565b60208201810382520382610b32565b602081019051915af461640c613d23565b506145cb565b5f61638f565b616421816139ce565b61643361642d5f6145f4565b91610520565b115f1461644257805190602001fd5b61644a610421565b62461bcd60e51b81528061646060048201616142565b0390fd5b906164709392916160e3565b565b5f90565b90565b61648d61648861649292616476565b6108a5565b610520565b90565b61649d616472565b506164a8600f616479565b90565b906164bf9392916164ba6180db565b616681565b6164c761813e565b565b5f7f4f54000000000000000000000000000000000000000000000000000000000000910152565b6164fd600260209261288c565b616506816164c9565b0190565b61651f9060208101905f8183039101526164f0565b90565b1561652957565b616531610421565b62461bcd60e51b8152806165476004820161650a565b0390fd5b5f7f544f000000000000000000000000000000000000000000000000000000000000910152565b61657f600260209261288c565b6165888161654b565b0190565b6165a19060208101905f818303910152616572565b90565b156165ab57565b6165b3610421565b62461bcd60e51b8152806165c96004820161658c565b0390fd5b6040906165f66165fd94969593966165ec60608401985f850190611967565b6020830190610c9f565b0190610ce0565b565b5f7f4d53000000000000000000000000000000000000000000000000000000000000910152565b616633600260209261288c565b61663c816165ff565b0190565b6166559060208101905f818303910152616626565b90565b1561665f57565b616667610421565b62461bcd60e51b81528061667d60048201616640565b0390fd5b9261681d9392919261680e5f8061669c848888908892618081565b61679c6166b36166ae6015849061267e565b613444565b6166db6166c2600483016126ae565b6166d56166cf60016104e9565b916104e9565b14614445565b336166f86166f26166ed878501610a01565b6104ad565b916104ad565b148015616830575b616709906144c7565b6167313361672a61672461671f60038601610a01565b6104ad565b916104ad565b1415616522565b61679561678f61674d42616747600886016109d5565b90613c39565b9261675a60038201610a01565b61677661677061676b8a8501610a01565b6104ad565b916104ad565b14871461681f57600961678991016109d5565b5b610520565b91610520565b10156165a4565b7f0000000000000000000000000000000000000000000000000000000000000000906167f786916167e8426167cf610421565b94859360046020860163501fd27160e11b8152016165cd565b60208201810382520382610b32565b602081019051915af4616808613d23565b50616658565b92919033915f936001956188c3565b565b600a61682b91016109d5565b61678a565b506167093361685261684c61684760018601610a01565b6104ad565b916104ad565b149050616700565b906168669392916164ab565b565b5f90565b6168b5916168ab6168b09261687f616868565b50616888614b12565b50616891614b12565b5061689a616472565b506168a36142e8565b5060086108c4565b6108da565b6138cb565b906168c15f8301610963565b916168cd5f820161098a565b926168d95f83016109b1565b926168f260036168eb600186016109d5565b9401610a01565b919493929190565b606090565b67ffffffffffffffff81116169175760208091020190565b610b1e565b9061692e616929836168ff565b610b5b565b918252565b61693e610120610b5b565b90565b606090565b606090565b616953616933565b90602080808080808080808a61696761330d565b815201616972613319565b81520161697d613319565b815201616988616941565b815201616993616946565b81520161699e61330d565b8152016169a9613319565b8152016169b4613319565b8152016169bf613319565b81525050565b6169cd61694b565b90565b5f5b8281106169de57505050565b6020906169e96169c5565b81840152016169d2565b90616a18616a008361691c565b92602080616a0e86936168ff565b92019103906169d0565b565b616a2390610520565b5f198114616a315760010190565b613a75565b90616a4082611a7d565b811015616a51576020809102010190565b611195565b616a6090546109ed565b90565b60010190565b90616a86616a80616a7984611d61565b8093611a94565b92611d65565b905f5b818110616a965750505090565b909192616ab6616ab0600192616aab87616a56565b611aa3565b94616a63565b9101919091616a89565b90616aca91616a69565b90565b90616aed616ae692616add610421565b93848092616ac0565b0383610b32565b565b52565b5490565b5f5260205f2090565b616b0990546109c1565b90565b60010190565b90616b2f616b29616b2284616af2565b8093611b0e565b92616af6565b905f5b818110616b3f5750505090565b909192616b5f616b59600192616b5487616aff565b611b1d565b94616b0c565b9101919091616b32565b90616b7391616b12565b90565b90616b96616b8f92616b86610421565b93848092616b69565b0383610b32565b565b52565b90616c7b616c716008616bac616933565b94616bc3616bbb5f8301610a01565b5f8801613480565b616bdb616bd2600183016109d5565b60208801610ab6565b616bf3616bea600283016109d5565b60408801610ab6565b616c0b616c0260038301616acd565b60608801616aef565b616c23616c1a60048301616b76565b60808801616b98565b616c3b616c3260058301610a01565b60a08801613480565b616c53616c4a600683016109d5565b60c08801610ab6565b616c6b616c62600783016109d5565b60e08801610ab6565b016109d5565b6101008401610ab6565b565b616c8690616b9b565b90565b616c916168fa565b50616c9c60046109d5565b90616ca6826169f3565b90616cb16001613c1d565b5b80616cc5616cbf86610520565b91610520565b11616d1757616d1290616d0b616cdd60078390611504565b85616cfb616cf585616cef6001613c1d565b90613c39565b92616c7d565b616d058383616a36565b52616a36565b5150616a1a565b616cb2565b50915090565b606090565b67ffffffffffffffff8111616d3a5760208091020190565b610b1e565b90616d51616d4c83616d22565b610b5b565b918252565b616d606040610b5b565b90565b5f90565b616d6f616d56565b9060208083616d7c61330d565b815201616d87616d63565b81525050565b616d95616d67565b90565b5f5b828110616da657505050565b602090616db1616d8d565b8184015201616d9a565b90616de0616dc883616d3f565b92602080616dd68693616d22565b9201910390616d98565b565b616dee616df3916108f0565b611e64565b90565b616e009054616de2565b90565b616e0d6040610b5b565b90565b90616e1a90611ea6565b9052565b90616e2882611f6a565b811015616e39576020809102010190565b611195565b616e46616d1d565b50616e59616e546012611d61565b616dbb565b616e625f6145f4565b5b80616e7f616e79616e746012611d61565b610520565b91610520565b1015616f0857616f0390616efc616ea1616e9b60128490611d6e565b90611dae565b616ee9616ecc616ec76011616ec1616ebb60128990611d6e565b90611dae565b90611e4e565b616df6565b616ee0616ed7616e03565b935f8501613480565b60208301616e10565b848391616ef68383616e1e565b52616e1e565b515061572c565b616e63565b5090565b616f14614225565b50616f28616f21826142ec565b509161730c565b91505090616f46616f40616f3b5f613466565b6104ad565b916104ad565b14159081616f53575b5090565b9050616f68616f6260026104e9565b916104e9565b14155f616f4f565b90565b616f87616f82616f8c92616f70565b6108a5565b610520565b90565b616f9e616fa491939293610520565b92610520565b91616fb0838202610520565b928184041490151715616fbf57565b613a75565b90565b616fdb616fd6616fe092616fc4565b6108a5565b610520565b90565b616fef616ff591610520565b91610520565b908115617000570490565b6138ed565b90565b61701c61701761702192617005565b6108a5565b610520565b90565b90565b61703b61703661704092617024565b6108a5565b610520565b90565b61704b616472565b50617054614225565b5061705d616472565b50617066616472565b5061706f616472565b50617078616472565b50617081616472565b5061708a616472565b50617093616472565b5061709e60046109d5565b906170a960036109d5565b6170b161941b565b6170d86170c8826170c26005616f73565b90616f8f565b6170d26064616fc7565b90616fe3565b826170eb6170e584610520565b91610520565b1015936170f9838390613c39565b906171216171118361710b6005616f73565b90616f8f565b61711b605f617008565b90616fe3565b9061714961713984617133605a617027565b90616f8f565b617143605f617008565b90616fe3565b906171526194d0565b90565b5f90565b617161617155565b5061717661717160113390611e4e565b616df6565b90565b617181614225565b5061719661719160028390614dbd565b614dd3565b6171ab6171a560088301612161565b1561050e565b908115617293575b5061728d576171d66171d16171ca600884906108c4565b84906108da565b6138cb565b916171e25f8401610963565b6171f46171ee5f610cbb565b91610cbb565b1480617268575b9182617239575b5050908161720f575b5090565b905061723161722b6172265f6004429501016109d5565b610520565b91610520565b10155f61720b565b617261925061725c9161725061725592600a6112b6565b6112cc565b33906112e2565b6151e4565b5f80617202565b506172745f84016109b1565b6172876172816001613926565b91610433565b146171fb565b50505f90565b90506172b26172ac6172a75f869401610936565b610433565b91610433565b10155f6171b3565b6172c86172cd91601561267e565b613444565b906172e06172da5f6137e3565b91610433565b145f146172f6575f6172f39291016146a2565b5b565b60016173039291016146a2565b6172f4565b5f90565b61733561733a9161731b6142e8565b50617324614225565b5061732d617308565b50601561267e565b613444565b9061734760028301610a01565b9061735f6004617358818601610a55565b94016126ae565b91929190565b90617377916173726180db565b617403565b61737f61813e565b565b5f7f5257000000000000000000000000000000000000000000000000000000000000910152565b6173b5600260209261288c565b6173be81617381565b0190565b6173d79060208101905f8183039101526173a8565b90565b156173e157565b6173e9610421565b62461bcd60e51b8152806173ff600482016173c2565b0390fd5b5f8091617479936174627f00000000000000000000000000000000000000000000000000000000000000009261745361743a610421565b938492600460208501632663212d60e21b815201611222565b60208201810382520382610b32565b602081019051915af4617473613d23565b506173da565b565b9061748591617365565b565b606090565b67ffffffffffffffff81116174a45760208091020190565b610b1e565b906174bb6174b68361748c565b610b5b565b918252565b6174ca6040610b5b565b90565b906175036174fa5f6174dd6174c0565b946174f46174ec83830161090f565b8388016134aa565b01610936565b602084016134aa565b565b61750e906174cd565b90565b9061751b826111a9565b617524816174a9565b9261753260208501916111ad565b5f915b8383106175425750505050565b60016020819261755185617505565b815201920192019190617535565b61756890617511565b90565b6175826175879161757a617487565b50601661117f565b61755f565b90565b6175a16175a691617599617487565b50601861117f565b61755f565b90565b6175bf6175ba6176a792601561267e565b613444565b6175d36175cb5f613466565b5f83016146a2565b6175e86175df5f613466565b600183016146a2565b6175fd6175f45f613466565b600283016146a2565b6176126176095f613466565b600383016146a2565b61762761761e5f613466565b600483016146a2565b6176345f60048301614cb1565b6176415f60048301614cf0565b61765661764d5f6145f4565b60058301613c77565b61766b6176625f6145f4565b60078301613c77565b6176806176775f6145f4565b60088301613c77565b61769561768c5f6145f4565b60098301613c77565b600a6176a05f6145f4565b9101613c77565b565b6176b1613321565b90565b6176ce6176d3919592956176c66176a9565b50601561267e565b613444565b926176dd5f613466565b926176f36176ed60048701610a55565b1561050e565b8061787d575b617829575b845f0161770a90610a01565b958560010161771890610a01565b958060020161772690610a01565b9581600401617734906126ae565b8260040161774190610a55565b918360070161774f906109d5565b9360080161775c906109d5565b94959697985f9a61776b613472565b9c5f8e019061777991613480565b60208d019061778791613480565b60408c019061779591613480565b60608b01906177a391613480565b60808a01906177b19161348e565b60a08901906177bf9161349c565b60c08801906177cd91610ab6565b60e08701906177db91610ab6565b6101008601906177ea916134aa565b6101208501906177f9916134aa565b610140840190617808916134aa565b610160830190617817916134aa565b6101808201906178269161349c565b90565b925061783760028501610a01565b61785361784d6178485f8801610a01565b6104ad565b916104ad565b145f1461786d5761786660018501610a01565b5b926176fe565b6178785f8501610a01565b617867565b5061788a60028601610a01565b6178a461789e6178995f613466565b6104ad565b916104ad565b14156176f9565b5f7f4500000000000000000000000000000000000000000000000000000000000000910152565b6178df600160209261288c565b6178e8816178ab565b0190565b6179019060208101905f8183039101526178d2565b90565b1561790b57565b617913610421565b62461bcd60e51b815280617929600482016178ec565b0390fd5b9061794c617947617940600885906108c4565b83906108da565b6138cb565b6179575f8201610963565b6179cd5f807f0000000000000000000000000000000000000000000000000000000000000000876179b688916179a761798e610421565b93849260046020850163e6c455f560e01b815201611222565b60208201810382520382610b32565b602081019051915af46179c7613d23565b50617904565b6179d98484339161972e565b6179eb6179e55f610cbb565b91610cbb565b149081617a23575b506179fd575b5050565b81617a0c617a1c93839061973d565b90617a165f6137e3565b91613dce565b5f806179f9565b617a2f91505f01610963565b617a42617a3c6001610cbb565b91610cbb565b145f6179f3565b5f7f4653000000000000000000000000000000000000000000000000000000000000910152565b617a7d600260209261288c565b617a8681617a49565b0190565b617a9f9060208101905f818303910152617a70565b90565b15617aa957565b617ab1610421565b62461bcd60e51b815280617ac760048201617a8a565b0390fd5b90617aea617ae5617ade600885906108c4565b83906108da565b6138cb565b91617af65f8401610963565b617b6c5f807f000000000000000000000000000000000000000000000000000000000000000085617b558891617b46617b2d610421565b93849260046020850163ea2b1d7360e01b815201611222565b60208201810382520382610b32565b602081019051915af4617b66613d23565b50617aa2565b80617b7f617b795f610cbb565b91610cbb565b1480617cbb575b617c97575b617b9d617b975f610cbb565b91610cbb565b1480617c72575b617bae575b505050565b617bbd6003617c6a9401610a01565b90617bec617bd3617bce6001613c1d565b615705565b92617be784617be15f6145f4565b9061573b565b613480565b617c625f807f000000000000000000000000000000000000000000000000000000000000000084617c4b8891617c3c617c23610421565b9384926004602085016357f7cf7160e01b815201611222565b60208201810382520382610b32565b602081019051915af4617c5c613d23565b50615f4c565b9190916197c8565b5f8080617ba9565b50617c7e5f8401610963565b617c91617c8b6002610cbb565b91610cbb565b14617ba4565b617ca282849061973d565b617cb68284617cb05f6137e3565b91613dce565b617b8b565b50617cc75f8501610963565b617cda617cd46001610cbb565b91610cbb565b14617b86565b92617ce9614225565b50617d125f617d0c617d07617d00600889906108c4565b86906108da565b6138cb565b01610963565b617d25617d1f6001610cbb565b91610cbb565b03617ee857617d38928492909192618081565b617d4c617d476015839061267e565b613444565b90617d585f8301610a01565b617d72617d6c617d675f613466565b6104ad565b916104ad565b148015617ec1575b617eba57617d9442617d8e600885016109d5565b90613c39565b617da060038401610a01565b617dbc617db6617db15f8701610a01565b6104ad565b916104ad565b145f14617ea357617de1617ddb617dd5600986016109d5565b5b610520565b91610520565b10617e9c57617df4617df9916014612137565b614635565b91617e0f617e0960028501612161565b1561050e565b617e37575050617e32617e2c617e275f4294016109d5565b610520565b91610520565b101590565b617e849250600280617e76617e636008617e5c617e57617e7e9786614dbd565b614dd3565b96016109d5565b617e705f848801016109d5565b90614610565b9301016109d5565b90614610565b617e97617e914292610520565b91610520565b101590565b5050505f90565b617de1617ddb617eb5600a86016109d5565b617dd6565b5050505f90565b50617ece600483016126ae565b617ee1617edb60016104e9565b916104e9565b1415617d7a565b505050505f90565b617f2a92617f23617f0c617f07600494601561267e565b613444565b93617f1a6002858701614cb1565b600285016146a2565b9101614cf0565b565b617f346180db565b617f3c617fc8565b617f4461813e565b565b5f7f4552000000000000000000000000000000000000000000000000000000000000910152565b617f7a600260209261288c565b617f8381617f46565b0190565b617f9c9060208101905f818303910152617f6d565b90565b15617fa657565b617fae610421565b62461bcd60e51b815280617fc460048201617f87565b0390fd5b6180395f807f0000000000000000000000000000000000000000000000000000000000000000617ff6610421565b61802281618013600460208301630f878ebf60e41b81520161073e565b60208201810382520382610b32565b602081019051915af4618033613d23565b50617f9f565b565b618043617f2c565b565b5f90565b92618075600161807d9461806d8288618065829b9a839961396c565b01809261396c565b01809261396c565b01809261396c565b0190565b6180b892936180a991618092618045565b50929461809d610421565b95869460208601618049565b60208201810382520382610b32565b6180ca6180c4826139ce565b916139c8565b2090565b6180d86002614da1565b90565b6180e45f6109d5565b6180fd6180f76180f26180ce565b610520565b91610520565b146181155761811361810d6180ce565b5f613c77565b565b5f633ee5aeb560e01b81528061812d6004820161073e565b0390fd5b61813b6001613c1d565b90565b61814f618149618131565b5f613c77565b565b6181709061816a61816461817594610433565b91610520565b906112f8565b610520565b90565b90565b61818f61818a61819492618178565b6108a5565b610520565b90565b6181d2916181bc6181c2926181aa614b12565b50916181b660026138d1565b90613b0f565b90618151565b6181cc600361817b565b16613a24565b90565b6181f4906181ee6181e86181f994610433565b91610520565b90613aad565b610520565b90565b9061825861824761825e9361820f616472565b5061824061823a618220600361817b565b6182348761822e60026138d1565b90613b0f565b906181d5565b19610520565b16946139e6565b9161825260026138d1565b90613b0f565b906181d5565b1790565b61827661827161827b92618178565b6108a5565b610433565b90565b90565b61829561829061829a9261827e565b6108a5565b610433565b90565b6182b16182ac6182b692616f70565b6108a5565b610433565b90565b90565b6182d06182cb6182d5926182b9565b6108a5565b610433565b90565b90565b6182ef6182ea6182f4926182d8565b6108a5565b610433565b90565b90565b61830e618309618313926182f7565b6108a5565b610433565b90565b9061831f614225565b506183338261832d5f6137e3565b90618197565b61834561833f83610433565b91610433565b14806187b9575b8061878c575b6187855761836a826183646003618262565b90618197565b61837c61837683610433565b91610433565b1480618758575b8061872b575b618724576183a18261839b60066182bc565b90618197565b6183b36183ad83610433565b91610433565b14806186f7575b806186ca575b6186c3576183d7826183d15f6137e3565b90618197565b6183e96183e383610433565b91610433565b1480618696575b80618669575b6186625761840e826184086001613926565b90618197565b61842061841a83610433565b91610433565b1480618635575b80618608575b618601576184458261843f60026138d1565b90618197565b61845761845183610433565b91610433565b14806185d4575b806185a7575b6185a05761847b826184755f6137e3565b90618197565b61848d61848783610433565b91610433565b1480618573575b80618546575b61853f576184b2826184ac60026138d1565b90618197565b6184c46184be83610433565b91610433565b1480618512575b91826184e1575b50506184dc575f90565b600190565b61850a9192506184fe618504916184f860066182bc565b90618197565b92610433565b91610433565b145f806184d2565b50618527826185216004618281565b90618197565b61853961853383610433565b91610433565b146184cb565b5050600190565b5061855b8261855560086182fa565b90618197565b61856d61856783610433565b91610433565b1461849a565b50618588826185826004618281565b90618197565b61859a61859483610433565b91610433565b14618494565b5050600190565b506185bc826185b660086182fa565b90618197565b6185ce6185c883610433565b91610433565b14618464565b506185e9826185e3600561829d565b90618197565b6185fb6185f583610433565b91610433565b1461845e565b5050600190565b5061861d8261861760076182db565b90618197565b61862f61862983610433565b91610433565b1461842d565b5061864a826186446004618281565b90618197565b61865c61865683610433565b91610433565b14618427565b5050600190565b5061867e8261867860066182bc565b90618197565b61869061868a83610433565b91610433565b146183f6565b506186ab826186a56003618262565b90618197565b6186bd6186b783610433565b91610433565b146183f0565b5050600190565b506186df826186d960086182fa565b90618197565b6186f16186eb83610433565b91610433565b146183c0565b5061870c8261870660076182db565b90618197565b61871e61871883610433565b91610433565b146183ba565b5050600190565b506187408261873a600561829d565b90618197565b61875261874c83610433565b91610433565b14618389565b5061876d826187676004618281565b90618197565b61877f61877983610433565b91610433565b14618383565b5050600190565b506187a18261879b60026138d1565b90618197565b6187b36187ad83610433565b91610433565b14618352565b506187ce826187c86001613926565b90618197565b6187e06187da83610433565b91610433565b1461834c565b919461882e6188389298979561882460a09661881a61883f9a61881060c08a019e5f8b0190610c9f565b6020890190610c9f565b6040870190610c9f565b6060850190610c9f565b6080830190610812565b01906107bb565b565b5f7f434d000000000000000000000000000000000000000000000000000000000000910152565b618875600260209261288c565b61887e81618841565b0190565b6188979060208101905f818303910152618868565b90565b156188a157565b6188a9610421565b62461bcd60e51b8152806188bf60048201618882565b0390fd5b93819793969291958587848a916188d993618081565b938688858b869186936188eb95619846565b6014856188f791612137565b61890090614635565b5f816002019061890f91614638565b5f618919906145f4565b815f019061892691613c77565b5f618930906145f4565b816001019061893e91613c77565b5f906002019061894d91614667565b60098761895991611d35565b8861896391611d4b565b61896c90611d61565b61897590615705565b98875f618981906145f4565b9b6189ac6189a76189a28f9361899d6189b2955b966009611d35565b611d4b565b611d61565b610520565b91610520565b1015618a1b57878a9b6189f98b9c6189f46189ec6189e68f6189df906189da60098a90611d35565b611d4b565b8690611d6e565b90611dae565b84909261573b565b613480565b618a029061572c565b9b9a6189ac6189a76189a28f9361899d6189b295618995565b87969a50618aba9291618aa95f80618aca9d9b89618a928f618a83618ab4998d7f0000000000000000000000000000000000000000000000000000000000000000969395918d92618a6a610421565b978896600460208901633df1d83160e01b8152016187e6565b60208201810382520382610b32565b602081019051915af4618aa3613d23565b5061889a565b869085849192619891565b1561050e565b618acc575b505050919091618fb9565b565b618ad8618afe936142ec565b91618aeb618ae5836104ad565b916104ad565b145f14618b0657505b9083869192619928565b5f8080618abf565b9050618af4565b618b15614225565b50618b1f5f6137e3565b5b80618b34618b2e600961434e565b91610433565b1015618b7057618b45828290618197565b618b57618b515f6137e3565b91610433565b14618b6a57618b6590613b00565b618b20565b50505f90565b5050600190565b90618b8492919091619a58565b565b606090565b606090565b618b9b5f809261288c565b0190565b9091618bde93618bc7618bd192618bbd60808601965f870190610c9f565b6020850190610c9f565b6040830190610ce0565b6060818303910152618b90565b90565b5f7f4450000000000000000000000000000000000000000000000000000000000000910152565b618c15600260209261288c565b618c1e81618be1565b0190565b618c379060208101905f818303910152618c08565b90565b15618c4157565b618c49610421565b62461bcd60e51b815280618c5f60048201618c22565b0390fd5b5f80fd5b5f80fd5b90929192618c80618c7b826156cc565b610b5b565b9381855260208086019202830192818411618cbd57915b838310618ca45750505050565b60208091618cb28486615243565b815201920191618c97565b618c67565b9080601f83011215618ce057816020618cdd93519101618c6b565b90565b618c63565b67ffffffffffffffff8111618cfd5760208091020190565b610b1e565b90505190618d0f826110fb565b565b90929192618d26618d2182618ce5565b610b5b565b9381855260208086019202830192818411618d6357915b838310618d4a5750505050565b60208091618d588486618d02565b815201920191618d3d565b618c67565b9080601f83011215618d8657816020618d8393519101618d11565b90565b618c63565b919091604081840312618de3575f81015167ffffffffffffffff8111618dde5783618db7918301618cc2565b92602082015167ffffffffffffffff8111618dd957618dd69201618d68565b90565b61042f565b61042f565b61042b565b60209181520190565b90618e0e618e08618e0184611a90565b8093618de8565b92611a9d565b905f5b818110618e1e5750505090565b909192618e37618e316001928651611aa3565b94611ab4565b9101919091618e11565b91618e8591618e929594618e6d618e7a93618e6360a08801945f890190610c9f565b6020870190610c9f565b8482036040860152618df1565b926060830190610ce0565b6080818303910152618b90565b90565b90618e9f82611b0a565b811015618eb0576020809102010190565b611195565b618ebf9051610520565b90565b604090618eeb618ef29496959396618ee160608401985f850190610c9f565b6020830190610c9f565b0190610812565b565b5f7f5545000000000000000000000000000000000000000000000000000000000000910152565b618f28600260209261288c565b618f3181618ef4565b0190565b618f4a9060208101905f818303910152618f1b565b90565b15618f5457565b618f5c610421565b62461bcd60e51b815280618f7260048201618f35565b0390fd5b9092618fa990618f9f618fb69694618f9560808601975f870190610812565b6020850190610ce0565b6040830190610d14565b6060818403910152618df1565b90565b618fd7618fd2618fcb600884906108c4565b84906108da565b6138cb565b91618fe35f8401610963565b618ff6618ff06002610cbb565b91610cbb565b141580156193b2575b6193ac5761900f60038401610a01565b9361901c600185016109d5565b619024618b86565b5061902d618b8b565b5061903a60038601610a55565b5f14619313575f806190d2927f0000000000000000000000000000000000000000000000000000000000000000906190a28861909389938961907a610421565b958694600460208701631f16ed5760e31b815201618e41565b60208201810382520382610b32565b602081019051915af46190bc6190b6613d23565b91618c3a565b60206190c7826139ce565b818301019101618d8b565b9390945b6190df5f6145f4565b5b806190fb6190f56190f08a611a90565b610520565b91610520565b101561918a576191859061910e306151f1565b61912161911c8a849061573b565b615862565b61913461912f8a8590618e95565b618eb5565b9161917d61916b6191657fddf252ad1be2c89b69c2b068fc378daa952ba7f163c4a11628f55a4df523b3ef93611173565b93611173565b93619174610421565b9182918261181b565b0390a361572c565b6190e0565b509193509193506193119461920c5f807f0000000000000000000000000000000000000000000000000000000000000000866191f58a916191e6886191cd610421565b94859360046020860163344dfa1b60e11b815201618ec2565b60208201810382520382610b32565b602081019051915af4619206613d23565b50618f4d565b61923461922f619228619221600f8790612b3c565b8890612b52565b8390612b68565b6109d5565b91839061924660038894959201610aa9565b936192908761927e6192787f3d4eb684a5f3e9917f4c91b1791efa1b0b8a8c95d62aac47b64fbabbfe57fae9966108a8565b966108a8565b96619287610421565b94859485618f76565b0390a36193095f807f0000000000000000000000000000000000000000000000000000000000000000846192f288916192e36192ca610421565b9384926004602085016357f7cf7160e01b815201611222565b60208201810382520382610b32565b602081019051915af4619303613d23565b50615f4c565b9190916197c8565b565b5f806193a4927f00000000000000000000000000000000000000000000000000000000000000009061937488619365899361934c610421565b948593600460208601638421af8560e01b815201618b9f565b60208201810382520382610b32565b602081019051915af461938e619388613d23565b91618c3a565b6020619399826139ce565b818301019101618d8b565b9390946190d6565b50505050565b506193bc84611a90565b6193ce6193c85f6145f4565b91610520565b14618fff565b90565b6193eb6193e66193f0926193d4565b6108a5565b610520565b90565b6193fc81616af2565b8210156194165761940e600191616af6565b910201905f90565b611195565b619423616472565b5061942e6005616af2565b61944061943a5f6145f4565b91610520565b1461949d5761944f60046109d5565b61946a61946461945f6005616af2565b610520565b91610520565b1061947c5761947960066109d5565b90565b61949a619494600561948e60046109d5565b906193f3565b90611f18565b90565b6194ae6729a2241af62c00006193d7565b90565b90565b6194c86194c36194cd926194b1565b6108a5565b610520565b90565b6194d8616472565b506194ec6194e76103e86194b4565b615705565b906194f65f6145f4565b916195005f6137e3565b5b8061951d619517619512600161090f565b610433565b91610433565b101561972a5761953761953260028390614dbd565b614dd3565b926195415f6137e3565b5b8061955f6195596195545f8901610936565b610433565b91610433565b10156197195761958361957e619577600886906108c4565b83906108da565b6138cb565b61958e5f8201610963565b6195a061959a5f610cbb565b91610cbb565b149081156196f3575b506195bd575b6195b890613b00565b619542565b6195df6195da6195d36009989594988590611d35565b8390611d4b565b6138c8565b906195e95f6145f4565b955b866196066196006195fb86613a40565b610520565b91610520565b10156196e15761962061961a848990613a4d565b90611dae565b935f9861962c5f6145f4565b5b8061964061963a8a610520565b91610520565b10156196d2576196596196548a839061573b565b615862565b61966b619665896104ad565b916104ad565b1461967e576196799061572c565b61962d565b5097919490985061969160015b1561050e565b6196a8575b506196a09061572c565b9596926195eb565b6196a091956196c66196cb926196c18a9184909261573b565b613480565b616a1a565b9490619696565b5097919490986196919061968b565b95506195b891509591929590506195af565b6196ff91505f01610963565b61971261970c6001610cbb565b91610cbb565b145f6195a9565b50925061972590613b00565b619501565b5050565b9061973b92919091619b17565b565b919061975d61975861975160098690611d35565b8390611d4b565b6138c8565b6197665f6145f4565b5b8061978261977c61977785613a40565b610520565b91610520565b10156197c1576197bc906197b76197a361979d858490613a4d565b90611dae565b6197af81898891619c6d565b878691619a58565b61572c565b619767565b5050509050565b92916197d35f6145f4565b5b806197ef6197e96197e485611a90565b610520565b91610520565b101561983f5761983a9061981761980f61980a85849061573b565b615862565b878691619c6d565b61983561982d61982885849061573b565b615862565b878691619dd5565b61572c565b6197d4565b5050509050565b61986c6198656198889360049661988f99966198719592909192618081565b601561267e565b613444565b9361987f6002858701614cb1565b600285016146a2565b9101614cf0565b565b929190916198a96198a46015869061267e565b613444565b93906198b65f8601610a01565b926199236198d560056198cb60018a01610a01565b97939498016109d5565b61991161990b6199057f9df5b4d746303d3796646c5fa6da5d7e660bde8b83369dadd626bb5fc1fcab1f9761212b565b97611173565b97611173565b9761991a610421565b948594856157f2565b0390a4565b6199329350619dd5565b565b9061993e90611173565b5f5260205260405f2090565b90619954906108a8565b5f5260205260405f2090565b9061996a906108a8565b5f5260205260405f2090565b90565b6199836040610b5b565b90565b5f5260205f2090565b5490565b61999c8161998f565b8210156199b6576199ae600191619986565b910201905f90565b611195565b634e487b7160e01b5f525f60045260245ffd5b6199d89051610433565b90565b90619a0560205f619a0b946199fd8282016199f78488016199ce565b906137c3565b0192016199ce565b9061381c565b565b9190619a1e57619a1c916199db565b565b6199bb565b9081549168010000000000000000831015619a535782619a4b916001619a5195018155619993565b90619a0d565b565b610b1e565b90619a81619a7c619a75619a6e60198690619934565b849061994a565b8590619960565b6109d5565b619a93619a8d5f6145f4565b91610520565b03619b1257619b1092619b06619b0b92619ae2619aba619ab56018889061117f565b619976565b8290619add86619ad4619acb619979565b945f86016134aa565b602084016134aa565b619a23565b619b01619af9619af46018889061117f565b6111a9565b956019619934565b61994a565b619960565b613c77565b565b505050565b90619b40619b3b619b34619b2d60178690619934565b849061994a565b8590619960565b6109d5565b619b52619b4c5f6145f4565b91610520565b03619bd157619bcf92619bc5619bca92619ba1619b79619b746016889061117f565b619976565b8290619b9c86619b93619b8a619979565b945f86016134aa565b602084016134aa565b619a23565b619bc0619bb8619bb36016889061117f565b6111a9565b956017619934565b61994a565b619960565b613c77565b565b505050565b634e487b7160e01b5f52603160045260245ffd5b5f80910155565b905f03619c0357619c0190619bea565b565b6199bb565b619c118161998f565b8015619c32576001900390619c2f619c298383619993565b90619bf1565b55565b619bd6565b9190619c4d619c48619c55936114e8565b613c74565b908354613b95565b9055565b619c6b91619c65616472565b91619c37565b565b91619c96619c91619c8a619c8360178790619934565b859061994a565b8390619960565b6109d5565b9081619caa619ca45f6145f4565b91610520565b14619dcf57619d3e5f93619d39619d489685619cd3619d4397619ccd6001613c1d565b90613c39565b619cfa619cea619ce56016869061117f565b6111a9565b619cf46001613c1d565b90613c39565b81619d0d619d0783610520565b91610520565b03619d4a575b505050619d32619d2d619d286016849061117f565b619976565b619c08565b6017619934565b61994a565b619960565b619c59565b565b619dc792619d8f619d72619d6c619dc294619d6760168a9061117f565b6111b6565b50617505565b93619d898591619d8460168a9061117f565b6111b6565b90619a0d565b91619dbc6020619db5619da460178990619934565b619daf8f86016199ce565b9061994a565b92016199ce565b90619960565b613c77565b5f8080619d13565b50505050565b91619dfe619df9619df2619deb60198790619934565b859061994a565b8390619960565b6109d5565b9081619e12619e0c5f6145f4565b91610520565b14619f3757619ea65f93619ea1619eb09685619e3b619eab97619e356001613c1d565b90613c39565b619e62619e52619e4d6018869061117f565b6111a9565b619e5c6001613c1d565b90613c39565b81619e75619e6f83610520565b91610520565b03619eb2575b505050619e9a619e95619e906018849061117f565b619976565b619c08565b6019619934565b61994a565b619960565b619c59565b565b619f2f92619ef7619eda619ed4619f2a94619ecf60188a9061117f565b6111b6565b50617505565b93619ef18591619eec60188a9061117f565b6111b6565b90619a0d565b91619f246020619f1d619f0c60198990619934565b619f178f86016199ce565b9061994a565b92016199ce565b90619960565b613c77565b5f8080619e7b565b5050505056fea264697066735822122093239612974fbf265e215800c7b398c7ef31f0fc1dc81ad74b050153e3f05a9f64736f6c634300081e0033","linkReferences":{}},"methodIdentifiers":{"BASIS_POINTS()":"e1f1c4a7","MODULE_CORE()":"87d41608","MODULE_ESCALATION()":"a401a223","MODULE_MATCHES()":"d3f525dc","MODULE_PRIZES()":"43bd18a2","MODULE_RAFFLE()":"5a3db19f","NO_ROUND()":"cd47b9a9","OWNER_SHARE_BPS()":"f4ed1743","PARTICIPANTS_SHARE_BPS()":"82383535","PROTOCOL_SHARE_BPS()":"92822047","_completeMatchWithResult(bytes32,address,bool)":"f4df7cf0","_createMatchGame(uint8,uint8,uint8,uint8,address,address)":"2ad7e3bf","_getActiveMatchData(bytes32,uint8,uint8,uint8,uint8)":"e545f486","_getMatchPlayers(bytes32)":"1ec3b8ad","_getMatchResult(bytes32)":"97556f67","_getTimeIncrement()":"58f975f3","_hasCurrentPlayerTimedOut(bytes32)":"19602c21","_initializeMatchForPlay(bytes32,uint8)":"3751d19f","_isMatchActive(bytes32)":"7f515802","_resetMatchGame(bytes32)":"d893088d","_setMatchPlayer(bytes32,uint8,address)":"95dd9176","accumulatedProtocolShare()":"6b9be2c9","canResetEnrollmentWindow(uint8,uint8)":"8c930e96","claimAbandonedEnrollmentPool(uint8,uint8)":"3864cd6b","claimMatchSlotByReplacement(uint8,uint8,uint8,uint8)":"367639e2","claimTimeoutWin(uint8,uint8,uint8,uint8)":"631039c7","currentRaffleIndex()":"a5cd19da","drawParticipants(uint8,uint8,uint8,uint8,address)":"414a488a","enrollInTournament(uint8,uint8)":"e6c455f5","enrolledPlayers(uint8,uint8,uint256)":"685f1b12","executeProtocolRaffle()":"f878ebf0","forceEliminateStalledMatch(uint8,uint8,uint8,uint8)":"4d9d1611","forceStartTournament(uint8,uint8)":"ea2b1d73","getLeaderboard()":"6d763a6e","getMatch(uint8,uint8,uint8,uint8)":"005b0057","getMatchCountForRound(uint8,uint8)":"42baab49","getPlayerActiveTournaments(address)":"c743c0a8","getPlayerEnrollingTournaments(address)":"c718d0e5","getPlayerStats()":"847a5e99","getRaffleHistory()":"666d9687","getRaffleInfo()":"8166f6b2","getRoundInfo(uint8,uint8,uint8)":"273e3475","getTournamentInfo(uint8,uint8)":"65e12b14","initializeRound(uint8,uint8,uint8)":"0300e0b9","isEnrolled(uint8,uint8,address)":"3475bd53","isMatchEscL2Available(uint8,uint8,uint8,uint8)":"ed96ffdf","isMatchEscL3Available(uint8,uint8,uint8,uint8)":"2f26185d","isPlayerInAdvancedRound(uint8,uint8,uint8,address)":"31449074","makeMove(uint8,uint8,uint8,uint8,uint8)":"23e737aa","matchTimeouts(bytes32)":"766d1fca","matches(bytes32)":"9fe9ada3","owner()":"8da5cb5b","playerActiveMatches(address,uint256)":"5d657cb1","playerActiveTournaments(address,uint256)":"32e7c6aa","playerEarnings(address)":"69f92773","playerEnrollingTournaments(address,uint256)":"3845753f","playerMatchIndex(address,bytes32)":"bb0d10b5","playerPrizes(uint8,uint8,address)":"c6c2d69c","playerRanking(uint8,uint8,address)":"75da743d","raffleResults(uint256)":"40861c1d","resetEnrollmentWindow(uint8,uint8)":"998c84b4","rounds(uint8,uint8,uint8)":"eed9a268","tierCount()":"96b55f7d","tournaments(uint8,uint8)":"1f916aca"},"id":3}