{"abi":[{"type":"constructor","inputs":[],"stateMutability":"nonpayable"},{"type":"function","name":"BASIS_POINTS","inputs":[],"outputs":[{"name":"","type":"uint256","internalType":"uint256"}],"stateMutability":"view"},{"type":"function","name":"ENTRY_FEES","inputs":[{"name":"tierId","type":"uint8","internalType":"uint8"}],"outputs":[{"name":"","type":"uint256","internalType":"uint256"}],"stateMutability":"view"},{"type":"function","name":"INSTANCE_COUNTS","inputs":[{"name":"tierId","type":"uint8","internalType":"uint8"}],"outputs":[{"name":"","type":"uint8","internalType":"uint8"}],"stateMutability":"view"},{"type":"function","name":"MODULE_CORE","inputs":[],"outputs":[{"name":"","type":"address","internalType":"address"}],"stateMutability":"view"},{"type":"function","name":"MODULE_ESCALATION","inputs":[],"outputs":[{"name":"","type":"address","internalType":"address"}],"stateMutability":"view"},{"type":"function","name":"MODULE_MATCHES","inputs":[],"outputs":[{"name":"","type":"address","internalType":"address"}],"stateMutability":"view"},{"type":"function","name":"MODULE_PRIZES","inputs":[],"outputs":[{"name":"","type":"address","internalType":"address"}],"stateMutability":"view"},{"type":"function","name":"MODULE_RAFFLE","inputs":[],"outputs":[{"name":"","type":"address","internalType":"address"}],"stateMutability":"view"},{"type":"function","name":"NO_ROUND","inputs":[],"outputs":[{"name":"","type":"uint8","internalType":"uint8"}],"stateMutability":"view"},{"type":"function","name":"OWNER_SHARE_BPS","inputs":[],"outputs":[{"name":"","type":"uint256","internalType":"uint256"}],"stateMutability":"view"},{"type":"function","name":"PARTICIPANTS_SHARE_BPS","inputs":[],"outputs":[{"name":"","type":"uint256","internalType":"uint256"}],"stateMutability":"view"},{"type":"function","name":"PROTOCOL_SHARE_BPS","inputs":[],"outputs":[{"name":"","type":"uint256","internalType":"uint256"}],"stateMutability":"view"},{"type":"function","name":"TIER_SIZES","inputs":[{"name":"tierId","type":"uint8","internalType":"uint8"}],"outputs":[{"name":"","type":"uint8","internalType":"uint8"}],"stateMutability":"view"},{"type":"function","name":"_completeMatchWithResult","inputs":[{"name":"","type":"bytes32","internalType":"bytes32"},{"name":"","type":"address","internalType":"address"},{"name":"","type":"bool","internalType":"bool"}],"outputs":[],"stateMutability":"nonpayable"},{"type":"function","name":"_createMatchGame","inputs":[{"name":"","type":"uint8","internalType":"uint8"},{"name":"","type":"uint8","internalType":"uint8"},{"name":"","type":"uint8","internalType":"uint8"},{"name":"","type":"uint8","internalType":"uint8"},{"name":"","type":"address","internalType":"address"},{"name":"","type":"address","internalType":"address"}],"outputs":[],"stateMutability":"nonpayable"},{"type":"function","name":"_getActiveMatchData","inputs":[{"name":"matchId","type":"bytes32","internalType":"bytes32"},{"name":"tierId","type":"uint8","internalType":"uint8"},{"name":"instanceId","type":"uint8","internalType":"uint8"},{"name":"roundNumber","type":"uint8","internalType":"uint8"},{"name":"matchNumber","type":"uint8","internalType":"uint8"}],"outputs":[{"name":"","type":"tuple","internalType":"struct ETour_Storage.CommonMatchData","components":[{"name":"player1","type":"address","internalType":"address"},{"name":"player2","type":"address","internalType":"address"},{"name":"winner","type":"address","internalType":"address"},{"name":"loser","type":"address","internalType":"address"},{"name":"status","type":"uint8","internalType":"enum ETour_Storage.MatchStatus"},{"name":"isDraw","type":"bool","internalType":"bool"},{"name":"startTime","type":"uint256","internalType":"uint256"},{"name":"lastMoveTime","type":"uint256","internalType":"uint256"},{"name":"tierId","type":"uint8","internalType":"uint8"},{"name":"instanceId","type":"uint8","internalType":"uint8"},{"name":"roundNumber","type":"uint8","internalType":"uint8"},{"name":"matchNumber","type":"uint8","internalType":"uint8"},{"name":"isCached","type":"bool","internalType":"bool"}]}],"stateMutability":"view"},{"type":"function","name":"_getMatchPlayers","inputs":[{"name":"matchId","type":"bytes32","internalType":"bytes32"}],"outputs":[{"name":"player1","type":"address","internalType":"address"},{"name":"player2","type":"address","internalType":"address"}],"stateMutability":"view"},{"type":"function","name":"_getMatchResult","inputs":[{"name":"","type":"bytes32","internalType":"bytes32"}],"outputs":[{"name":"","type":"address","internalType":"address"},{"name":"","type":"bool","internalType":"bool"},{"name":"","type":"uint8","internalType":"enum ETour_Storage.MatchStatus"}],"stateMutability":"view"},{"type":"function","name":"_getTimeIncrement","inputs":[],"outputs":[{"name":"","type":"uint256","internalType":"uint256"}],"stateMutability":"view"},{"type":"function","name":"_hasCurrentPlayerTimedOut","inputs":[{"name":"","type":"bytes32","internalType":"bytes32"}],"outputs":[{"name":"","type":"bool","internalType":"bool"}],"stateMutability":"view"},{"type":"function","name":"_initializeMatchForPlay","inputs":[{"name":"","type":"bytes32","internalType":"bytes32"},{"name":"","type":"uint8","internalType":"uint8"}],"outputs":[],"stateMutability":"nonpayable"},{"type":"function","name":"_isMatchActive","inputs":[{"name":"matchId","type":"bytes32","internalType":"bytes32"}],"outputs":[{"name":"","type":"bool","internalType":"bool"}],"stateMutability":"view"},{"type":"function","name":"_resetMatchGame","inputs":[{"name":"","type":"bytes32","internalType":"bytes32"}],"outputs":[],"stateMutability":"nonpayable"},{"type":"function","name":"_setMatchPlayer","inputs":[{"name":"matchId","type":"bytes32","internalType":"bytes32"},{"name":"slot","type":"uint8","internalType":"uint8"},{"name":"player","type":"address","internalType":"address"}],"outputs":[],"stateMutability":"nonpayable"},{"type":"function","name":"accumulatedProtocolShare","inputs":[],"outputs":[{"name":"","type":"uint256","internalType":"uint256"}],"stateMutability":"view"},{"type":"function","name":"canResetEnrollmentWindow","inputs":[{"name":"tierId","type":"uint8","internalType":"uint8"},{"name":"instanceId","type":"uint8","internalType":"uint8"}],"outputs":[{"name":"canReset","type":"bool","internalType":"bool"}],"stateMutability":"view"},{"type":"function","name":"claimAbandonedEnrollmentPool","inputs":[{"name":"tierId","type":"uint8","internalType":"uint8"},{"name":"instanceId","type":"uint8","internalType":"uint8"}],"outputs":[],"stateMutability":"nonpayable"},{"type":"function","name":"claimTimeoutWin","inputs":[{"name":"tierId","type":"uint8","internalType":"uint8"},{"name":"instanceId","type":"uint8","internalType":"uint8"},{"name":"roundNumber","type":"uint8","internalType":"uint8"},{"name":"matchNumber","type":"uint8","internalType":"uint8"}],"outputs":[],"stateMutability":"nonpayable"},{"type":"function","name":"currentRaffleIndex","inputs":[],"outputs":[{"name":"","type":"uint256","internalType":"uint256"}],"stateMutability":"view"},{"type":"function","name":"drawParticipants","inputs":[{"name":"","type":"uint8","internalType":"uint8"},{"name":"","type":"uint8","internalType":"uint8"},{"name":"","type":"uint8","internalType":"uint8"},{"name":"","type":"uint8","internalType":"uint8"},{"name":"","type":"address","internalType":"address"}],"outputs":[{"name":"","type":"bool","internalType":"bool"}],"stateMutability":"view"},{"type":"function","name":"enrollInTournament","inputs":[{"name":"tierId","type":"uint8","internalType":"uint8"},{"name":"instanceId","type":"uint8","internalType":"uint8"}],"outputs":[],"stateMutability":"payable"},{"type":"function","name":"enrolledPlayers","inputs":[{"name":"","type":"uint8","internalType":"uint8"},{"name":"","type":"uint8","internalType":"uint8"},{"name":"","type":"uint256","internalType":"uint256"}],"outputs":[{"name":"","type":"address","internalType":"address"}],"stateMutability":"view"},{"type":"function","name":"forceStartTournament","inputs":[{"name":"tierId","type":"uint8","internalType":"uint8"},{"name":"instanceId","type":"uint8","internalType":"uint8"}],"outputs":[],"stateMutability":"nonpayable"},{"type":"function","name":"getAllTierIds","inputs":[],"outputs":[{"name":"","type":"uint8[]","internalType":"uint8[]"}],"stateMutability":"view"},{"type":"function","name":"getLeaderboard","inputs":[],"outputs":[{"name":"","type":"tuple[]","internalType":"struct ETour_Storage.LeaderboardEntry[]","components":[{"name":"player","type":"address","internalType":"address"},{"name":"earnings","type":"int256","internalType":"int256"}]}],"stateMutability":"view"},{"type":"function","name":"getMatchId","inputs":[{"name":"tierId","type":"uint8","internalType":"uint8"},{"name":"instanceId","type":"uint8","internalType":"uint8"},{"name":"roundNumber","type":"uint8","internalType":"uint8"},{"name":"matchNumber","type":"uint8","internalType":"uint8"}],"outputs":[{"name":"","type":"bytes32","internalType":"bytes32"}],"stateMutability":"pure"},{"type":"function","name":"getPlayerActiveTournaments","inputs":[{"name":"player","type":"address","internalType":"address"}],"outputs":[{"name":"","type":"tuple[]","internalType":"struct ETour_Storage.TournamentRef[]","components":[{"name":"tierId","type":"uint8","internalType":"uint8"},{"name":"instanceId","type":"uint8","internalType":"uint8"}]}],"stateMutability":"view"},{"type":"function","name":"getPlayerEnrollingTournaments","inputs":[{"name":"player","type":"address","internalType":"address"}],"outputs":[{"name":"","type":"tuple[]","internalType":"struct ETour_Storage.TournamentRef[]","components":[{"name":"tierId","type":"uint8","internalType":"uint8"},{"name":"instanceId","type":"uint8","internalType":"uint8"}]}],"stateMutability":"view"},{"type":"function","name":"getPlayerStats","inputs":[],"outputs":[{"name":"totalEarnings","type":"int256","internalType":"int256"}],"stateMutability":"view"},{"type":"function","name":"getRaffleInfo","inputs":[],"outputs":[{"name":"raffleIndex","type":"uint256","internalType":"uint256"},{"name":"isReady","type":"bool","internalType":"bool"},{"name":"currentAccumulated","type":"uint256","internalType":"uint256"},{"name":"threshold","type":"uint256","internalType":"uint256"},{"name":"reserve","type":"uint256","internalType":"uint256"},{"name":"raffleAmount","type":"uint256","internalType":"uint256"},{"name":"ownerShare","type":"uint256","internalType":"uint256"},{"name":"winnerShare","type":"uint256","internalType":"uint256"},{"name":"eligiblePlayerCount","type":"uint256","internalType":"uint256"}],"stateMutability":"view"},{"type":"function","name":"getRoundInfo","inputs":[{"name":"tierId","type":"uint8","internalType":"uint8"},{"name":"instanceId","type":"uint8","internalType":"uint8"},{"name":"roundNumber","type":"uint8","internalType":"uint8"}],"outputs":[{"name":"totalMatches","type":"uint8","internalType":"uint8"},{"name":"completedMatches","type":"uint8","internalType":"uint8"},{"name":"initialized","type":"bool","internalType":"bool"}],"stateMutability":"view"},{"type":"function","name":"getTierInfo","inputs":[{"name":"tierId","type":"uint8","internalType":"uint8"}],"outputs":[{"name":"playerCount","type":"uint8","internalType":"uint8"},{"name":"instanceCount","type":"uint8","internalType":"uint8"},{"name":"entryFee","type":"uint256","internalType":"uint256"}],"stateMutability":"view"},{"type":"function","name":"getTierTimeouts","inputs":[{"name":"tierId","type":"uint8","internalType":"uint8"}],"outputs":[{"name":"matchTimePerPlayer","type":"uint256","internalType":"uint256"},{"name":"timeIncrementPerMove","type":"uint256","internalType":"uint256"},{"name":"matchLevel2Delay","type":"uint256","internalType":"uint256"},{"name":"matchLevel3Delay","type":"uint256","internalType":"uint256"},{"name":"enrollmentWindow","type":"uint256","internalType":"uint256"},{"name":"enrollmentLevel2Delay","type":"uint256","internalType":"uint256"}],"stateMutability":"view"},{"type":"function","name":"getTotalCapacity","inputs":[],"outputs":[{"name":"totalPlayers","type":"uint256","internalType":"uint256"}],"stateMutability":"view"},{"type":"function","name":"getTournamentInfo","inputs":[{"name":"tierId","type":"uint8","internalType":"uint8"},{"name":"instanceId","type":"uint8","internalType":"uint8"}],"outputs":[{"name":"status","type":"uint8","internalType":"enum ETour_Storage.TournamentStatus"},{"name":"currentRound","type":"uint8","internalType":"uint8"},{"name":"enrolledCount","type":"uint8","internalType":"uint8"},{"name":"prizePool","type":"uint256","internalType":"uint256"},{"name":"winner","type":"address","internalType":"address"}],"stateMutability":"view"},{"type":"function","name":"initializeRound","inputs":[{"name":"","type":"uint8","internalType":"uint8"},{"name":"","type":"uint8","internalType":"uint8"},{"name":"","type":"uint8","internalType":"uint8"}],"outputs":[],"stateMutability":"nonpayable"},{"type":"function","name":"isEnrolled","inputs":[{"name":"","type":"uint8","internalType":"uint8"},{"name":"","type":"uint8","internalType":"uint8"},{"name":"","type":"address","internalType":"address"}],"outputs":[{"name":"","type":"bool","internalType":"bool"}],"stateMutability":"view"},{"type":"function","name":"isMatchEscL2Available","inputs":[{"name":"tierId","type":"uint8","internalType":"uint8"},{"name":"instanceId","type":"uint8","internalType":"uint8"},{"name":"roundNumber","type":"uint8","internalType":"uint8"},{"name":"matchNumber","type":"uint8","internalType":"uint8"}],"outputs":[{"name":"","type":"bool","internalType":"bool"}],"stateMutability":"view"},{"type":"function","name":"isMatchEscL3Available","inputs":[{"name":"tierId","type":"uint8","internalType":"uint8"},{"name":"instanceId","type":"uint8","internalType":"uint8"},{"name":"roundNumber","type":"uint8","internalType":"uint8"},{"name":"matchNumber","type":"uint8","internalType":"uint8"}],"outputs":[{"name":"","type":"bool","internalType":"bool"}],"stateMutability":"view"},{"type":"function","name":"isPlayerInAdvancedRound","inputs":[{"name":"tierId","type":"uint8","internalType":"uint8"},{"name":"instanceId","type":"uint8","internalType":"uint8"},{"name":"stalledRoundNumber","type":"uint8","internalType":"uint8"},{"name":"player","type":"address","internalType":"address"}],"outputs":[{"name":"hasAdvanced","type":"bool","internalType":"bool"}],"stateMutability":"view"},{"type":"function","name":"matchTimeouts","inputs":[{"name":"","type":"bytes32","internalType":"bytes32"}],"outputs":[{"name":"escalation1Start","type":"uint256","internalType":"uint256"},{"name":"escalation2Start","type":"uint256","internalType":"uint256"},{"name":"activeEscalation","type":"uint8","internalType":"enum ETour_Storage.EscalationLevel"},{"name":"isStalled","type":"bool","internalType":"bool"}],"stateMutability":"view"},{"type":"function","name":"matches","inputs":[{"name":"","type":"bytes32","internalType":"bytes32"}],"outputs":[{"name":"player1","type":"address","internalType":"address"},{"name":"player2","type":"address","internalType":"address"},{"name":"winner","type":"address","internalType":"address"},{"name":"currentTurn","type":"address","internalType":"address"},{"name":"firstPlayer","type":"address","internalType":"address"},{"name":"status","type":"uint8","internalType":"enum ETour_Storage.MatchStatus"},{"name":"isDraw","type":"bool","internalType":"bool"},{"name":"packedBoard","type":"uint256","internalType":"uint256"},{"name":"packedState","type":"uint256","internalType":"uint256"},{"name":"startTime","type":"uint256","internalType":"uint256"},{"name":"lastMoveTime","type":"uint256","internalType":"uint256"},{"name":"player1TimeRemaining","type":"uint256","internalType":"uint256"},{"name":"player2TimeRemaining","type":"uint256","internalType":"uint256"},{"name":"moves","type":"string","internalType":"string"}],"stateMutability":"view"},{"type":"function","name":"owner","inputs":[],"outputs":[{"name":"","type":"address","internalType":"address"}],"stateMutability":"view"},{"type":"function","name":"playerActiveMatches","inputs":[{"name":"","type":"address","internalType":"address"},{"name":"","type":"uint256","internalType":"uint256"}],"outputs":[{"name":"","type":"bytes32","internalType":"bytes32"}],"stateMutability":"view"},{"type":"function","name":"playerActiveTournaments","inputs":[{"name":"","type":"address","internalType":"address"},{"name":"","type":"uint256","internalType":"uint256"}],"outputs":[{"name":"tierId","type":"uint8","internalType":"uint8"},{"name":"instanceId","type":"uint8","internalType":"uint8"}],"stateMutability":"view"},{"type":"function","name":"playerEarnings","inputs":[{"name":"","type":"address","internalType":"address"}],"outputs":[{"name":"","type":"int256","internalType":"int256"}],"stateMutability":"view"},{"type":"function","name":"playerEnrollingTournaments","inputs":[{"name":"","type":"address","internalType":"address"},{"name":"","type":"uint256","internalType":"uint256"}],"outputs":[{"name":"tierId","type":"uint8","internalType":"uint8"},{"name":"instanceId","type":"uint8","internalType":"uint8"}],"stateMutability":"view"},{"type":"function","name":"playerMatchIndex","inputs":[{"name":"","type":"address","internalType":"address"},{"name":"","type":"bytes32","internalType":"bytes32"}],"outputs":[{"name":"","type":"uint256","internalType":"uint256"}],"stateMutability":"view"},{"type":"function","name":"playerPrizes","inputs":[{"name":"","type":"uint8","internalType":"uint8"},{"name":"","type":"uint8","internalType":"uint8"},{"name":"","type":"address","internalType":"address"}],"outputs":[{"name":"","type":"uint256","internalType":"uint256"}],"stateMutability":"view"},{"type":"function","name":"playerRanking","inputs":[{"name":"","type":"uint8","internalType":"uint8"},{"name":"","type":"uint8","internalType":"uint8"},{"name":"","type":"address","internalType":"address"}],"outputs":[{"name":"","type":"uint8","internalType":"uint8"}],"stateMutability":"view"},{"type":"function","name":"raffleResults","inputs":[{"name":"","type":"uint256","internalType":"uint256"}],"outputs":[{"name":"executor","type":"address","internalType":"address"},{"name":"timestamp","type":"uint256","internalType":"uint256"},{"name":"rafflePot","type":"uint256","internalType":"uint256"},{"name":"winner","type":"address","internalType":"address"},{"name":"winnerPrize","type":"uint256","internalType":"uint256"},{"name":"protocolReserve","type":"uint256","internalType":"uint256"},{"name":"ownerShare","type":"uint256","internalType":"uint256"}],"stateMutability":"view"},{"type":"function","name":"registerRaffleThresholds","inputs":[{"name":"thresholds","type":"uint256[]","internalType":"uint256[]"},{"name":"finalThreshold","type":"uint256","internalType":"uint256"}],"outputs":[],"stateMutability":"nonpayable"},{"type":"function","name":"registerTier","inputs":[{"name":"tierId","type":"uint8","internalType":"uint8"},{"name":"playerCount","type":"uint8","internalType":"uint8"},{"name":"instanceCount","type":"uint8","internalType":"uint8"},{"name":"entryFee","type":"uint256","internalType":"uint256"},{"name":"timeouts","type":"tuple","internalType":"struct ETour_Storage.TimeoutConfig","components":[{"name":"matchTimePerPlayer","type":"uint256","internalType":"uint256"},{"name":"timeIncrementPerMove","type":"uint256","internalType":"uint256"},{"name":"matchLevel2Delay","type":"uint256","internalType":"uint256"},{"name":"matchLevel3Delay","type":"uint256","internalType":"uint256"},{"name":"enrollmentWindow","type":"uint256","internalType":"uint256"},{"name":"enrollmentLevel2Delay","type":"uint256","internalType":"uint256"}]}],"outputs":[],"stateMutability":"nonpayable"},{"type":"function","name":"resetEnrollmentWindow","inputs":[{"name":"tierId","type":"uint8","internalType":"uint8"},{"name":"instanceId","type":"uint8","internalType":"uint8"}],"outputs":[],"stateMutability":"nonpayable"},{"type":"function","name":"rounds","inputs":[{"name":"","type":"uint8","internalType":"uint8"},{"name":"","type":"uint8","internalType":"uint8"},{"name":"","type":"uint8","internalType":"uint8"}],"outputs":[{"name":"totalMatches","type":"uint8","internalType":"uint8"},{"name":"completedMatches","type":"uint8","internalType":"uint8"},{"name":"initialized","type":"bool","internalType":"bool"},{"name":"drawCount","type":"uint8","internalType":"uint8"}],"stateMutability":"view"},{"type":"function","name":"startTournament","inputs":[{"name":"tierId","type":"uint8","internalType":"uint8"},{"name":"instanceId","type":"uint8","internalType":"uint8"}],"outputs":[],"stateMutability":"nonpayable"},{"type":"function","name":"tierConfigs","inputs":[{"name":"tierId","type":"uint8","internalType":"uint8"}],"outputs":[{"name":"","type":"tuple","internalType":"struct ETour_Storage.TierConfig","components":[{"name":"playerCount","type":"uint8","internalType":"uint8"},{"name":"instanceCount","type":"uint8","internalType":"uint8"},{"name":"entryFee","type":"uint256","internalType":"uint256"},{"name":"timeouts","type":"tuple","internalType":"struct ETour_Storage.TimeoutConfig","components":[{"name":"matchTimePerPlayer","type":"uint256","internalType":"uint256"},{"name":"timeIncrementPerMove","type":"uint256","internalType":"uint256"},{"name":"matchLevel2Delay","type":"uint256","internalType":"uint256"},{"name":"matchLevel3Delay","type":"uint256","internalType":"uint256"},{"name":"enrollmentWindow","type":"uint256","internalType":"uint256"},{"name":"enrollmentLevel2Delay","type":"uint256","internalType":"uint256"}]},{"name":"totalRounds","type":"uint8","internalType":"uint8"},{"name":"initialized","type":"bool","internalType":"bool"}]}],"stateMutability":"view"},{"type":"function","name":"tierCount","inputs":[],"outputs":[{"name":"","type":"uint8","internalType":"uint8"}],"stateMutability":"view"},{"type":"function","name":"tournaments","inputs":[{"name":"","type":"uint8","internalType":"uint8"},{"name":"","type":"uint8","internalType":"uint8"}],"outputs":[{"name":"tierId","type":"uint8","internalType":"uint8"},{"name":"instanceId","type":"uint8","internalType":"uint8"},{"name":"status","type":"uint8","internalType":"enum ETour_Storage.TournamentStatus"},{"name":"currentRound","type":"uint8","internalType":"uint8"},{"name":"enrolledCount","type":"uint8","internalType":"uint8"},{"name":"prizePool","type":"uint256","internalType":"uint256"},{"name":"startTime","type":"uint256","internalType":"uint256"},{"name":"winner","type":"address","internalType":"address"},{"name":"finalsWasDraw","type":"bool","internalType":"bool"},{"name":"allDrawResolution","type":"bool","internalType":"bool"},{"name":"allDrawRound","type":"uint8","internalType":"uint8"},{"name":"completionReason","type":"uint8","internalType":"enum ETour_Storage.CompletionReason"},{"name":"enrollmentTimeout","type":"tuple","internalType":"struct ETour_Storage.EnrollmentTimeoutState","components":[{"name":"escalation1Start","type":"uint256","internalType":"uint256"},{"name":"escalation2Start","type":"uint256","internalType":"uint256"},{"name":"activeEscalation","type":"uint8","internalType":"enum ETour_Storage.EscalationLevel"},{"name":"forfeitPool","type":"uint256","internalType":"uint256"}]}],"stateMutability":"view"},{"type":"function","name":"updateAbandonedEarnings","inputs":[{"name":"tierId","type":"uint8","internalType":"uint8"},{"name":"instanceId","type":"uint8","internalType":"uint8"},{"name":"claimer","type":"address","internalType":"address"},{"name":"claimAmount","type":"uint256","internalType":"uint256"}],"outputs":[],"stateMutability":"nonpayable"},{"type":"event","name":"MatchCompleted","inputs":[{"name":"matchId","type":"bytes32","indexed":true,"internalType":"bytes32"},{"name":"player1","type":"address","indexed":true,"internalType":"address"},{"name":"player2","type":"address","indexed":true,"internalType":"address"},{"name":"winner","type":"address","indexed":false,"internalType":"address"},{"name":"isDraw","type":"bool","indexed":false,"internalType":"bool"},{"name":"reason","type":"uint8","indexed":false,"internalType":"enum ETour_Storage.CompletionReason"},{"name":"board","type":"uint256","indexed":false,"internalType":"uint256"}],"anonymous":false},{"type":"event","name":"ProtocolRaffleExecuted","inputs":[{"name":"raffleIndex","type":"uint256","indexed":true,"internalType":"uint256"},{"name":"winner","type":"address","indexed":true,"internalType":"address"},{"name":"caller","type":"address","indexed":true,"internalType":"address"},{"name":"raffleAmount","type":"uint256","indexed":false,"internalType":"uint256"},{"name":"ownerShare","type":"uint256","indexed":false,"internalType":"uint256"},{"name":"winnerShare","type":"uint256","indexed":false,"internalType":"uint256"},{"name":"remainingReserve","type":"uint256","indexed":false,"internalType":"uint256"},{"name":"winnerEnrollmentCount","type":"uint256","indexed":false,"internalType":"uint256"}],"anonymous":false},{"type":"event","name":"TournamentCompleted","inputs":[{"name":"tierId","type":"uint8","indexed":true,"internalType":"uint8"},{"name":"instanceId","type":"uint8","indexed":true,"internalType":"uint8"},{"name":"winner","type":"address","indexed":false,"internalType":"address"},{"name":"prizeAmount","type":"uint256","indexed":false,"internalType":"uint256"},{"name":"reason","type":"uint8","indexed":false,"internalType":"enum ETour_Storage.CompletionReason"},{"name":"enrolledPlayers","type":"address[]","indexed":false,"internalType":"address[]"}],"anonymous":false},{"type":"event","name":"Transfer","inputs":[{"name":"from","type":"address","indexed":true,"internalType":"address"},{"name":"to","type":"address","indexed":true,"internalType":"address"},{"name":"value","type":"uint256","indexed":false,"internalType":"uint256"}],"anonymous":false},{"type":"error","name":"ReentrancyGuardReentrantCall","inputs":[]}],"bytecode":{"object":"0x6101406040523461006e576100126100b6565b61001a610073565b617e0a6101ab82396080518161225f015260a05181612d3c015260c0518161157e015260e0518161176901526101005181818161298b0152614e7c0152610120518181816122ee01526171080152617e0a90f35b610079565b60405190565b5f80fd5b90565b60018060a01b031690565b90565b6100a261009d6100a79261007d565b61008b565b610080565b90565b6100b39061008e565b90565b6100ed6100c25f6100aa565b6100cb5f6100aa565b6100d45f6100aa565b6100dd5f6100aa565b916100e75f6100aa565b936100ef565b565b6100f7610197565b336101205260805260a05260c05260e05261010052565b90565b90565b61012861012361012d9261010e565b61008b565b610111565b90565b61013a6001610114565b90565b5f1b90565b9061014e5f199161013d565b9181191691161790565b61016c61016761017192610111565b61008b565b610111565b90565b90565b9061018c61018761019392610158565b610174565b8254610142565b9055565b6101a86101a2610130565b5f610177565b56fe60806040526004361015610013575b61336a565b61001d5f3561047c565b80630300e0b91461047757806319602c21146104725780631ec3b8ad1461046d5780631f916aca14610468578063273e3475146104635780632ad7e3bf1461045e5780632b5214cc146104595780632f26185d14610454578063314490741461044f57806332e7c6aa1461044a5780633475bd53146104455780633751d19f146104405780633845753f1461043b5780633864cd6b146104365780633df6a0a91461043157806340861c1d1461042c578063414a488a1461042757806343bd18a214610422578063442c18f31461041d57806358be2c1d1461041857806358f975f3146104135780635a3db19f1461040e5780635d657cb114610409578063631039c714610404578063640d3769146103ff57806365e12b14146103fa578063663d3148146103f5578063685f1b12146103f057806369f92773146103eb5780636b9be2c9146103e65780636d763a6e146103e157806375da743d146103dc578063766d1fca146103d75780637ed85ff3146103d25780637f515802146103cd5780638166f6b2146103c857806382383535146103c3578063847a5e99146103be57806386451b7e146103b957806387d41608146103b45780638c930e96146103af5780638da5cb5b146103aa57806392822047146103a557806395dd9176146103a057806396b55f7d1461039b57806397556f6714610396578063998c84b4146103915780639da9db2a1461038c5780639fe9ada314610387578063a401a22314610382578063a5cd19da1461037d578063b5ca37a114610378578063bb0d10b514610373578063c6c2d69c1461036e578063c718d0e514610369578063c743c0a814610364578063cd47b9a91461035f578063d3f525dc1461035a578063d6ae2dca14610355578063d893088d14610350578063e1f1c4a71461034b578063e545f48614610346578063e6c455f514610341578063ea2b1d731461033c578063ed96ffdf14610337578063eed9a26814610332578063f4df7cf01461032d578063f4ed174314610328578063f893617f146103235763faa36be70361000e57613331565b6132fc565b6132c7565b613274565b6131dd565b6130b4565b613080565b613056565b61301d565b612e7c565b612e2a565b612dee565b612d5e565b612d05565b612c99565b612c64565b612b78565b612ad5565b612a26565b6129f1565b6129ad565b612941565b6125e3565b6124b1565b612497565b61242e565b6123eb565b61237c565b612310565b6122b6565b612281565b612226565b6121ab565b612176565b6120ff565b61205f565b612027565b611fbc565b611eb9565b611df1565b611cec565b611c82565b611bb1565b611a7e565b611a44565b6119c3565b6118c1565b61188b565b61178b565b61174d565b611716565b6115ff565b6115b5565b611543565b611448565b6112f5565b61128e565b611257565b6111f8565b611195565b61108d565b610f0a565b610e8b565b610e10565b610d41565b610c81565b610c09565b6105e3565b610582565b6104fc565b60e01c90565b60405190565b5f80fd5b5f80fd5b5f80fd5b60ff1690565b6104a381610494565b036104aa57565b5f80fd5b905035906104bb8261049a565b565b90916060828403126104f2576104ef6104d8845f85016104ae565b936104e681602086016104ae565b936040016104ae565b90565b61048c565b5f0190565b346105125761050c3660046104bd565b916133c7565b610488565b90565b61052381610517565b0361052a57565b5f80fd5b9050359061053b8261051a565b565b9060208282031261055657610553915f0161052e565b90565b61048c565b151590565b6105699061055b565b9052565b9190610580905f60208501940190610560565b565b346105975761059236600461053d565b6133ed565b610488565b60018060a01b031690565b6105b09061059c565b90565b6105bc906105a7565b9052565b9160206105e19294936105da60408201965f8301906105b3565b01906105b3565b565b34610614576105fb6105f636600461053d565b61341f565b90610610610607610482565b928392836105c0565b0390f35b610488565b9190604083820312610641578061063561063e925f86016104ae565b936020016104ae565b90565b61048c565b90565b61065d61065861066292610494565b610646565b610494565b90565b9061066f90610649565b5f5260205260405f2090565b9061068590610649565b5f5260205260405f2090565b5f1c90565b60ff1690565b6106a86106ad91610691565b610696565b90565b6106ba905461069c565b90565b60081c90565b6106cf6106d4916106bd565b610696565b90565b6106e190546106c3565b90565b60101c90565b60ff1690565b6106fc610701916106e4565b6106ea565b90565b61070e90546106f0565b90565b60181c90565b61072361072891610711565b610696565b90565b6107359054610717565b90565b60201c90565b61074a61074f91610738565b610696565b90565b61075c905461073e565b90565b90565b61076e61077391610691565b61075f565b90565b6107809054610762565b90565b60018060a01b031690565b61079a61079f91610691565b610783565b90565b6107ac905461078e565b90565b60a01c90565b60ff1690565b6107c76107cc916107af565b6107b5565b90565b6107d990546107bb565b90565b60a81c90565b6107ee6107f3916107dc565b6107b5565b90565b61080090546107e2565b90565b60b01c90565b61081561081a91610803565b610696565b90565b6108279054610809565b90565b60b81c90565b60ff1690565b6108426108479161082a565b610830565b90565b6108549054610836565b90565b90565b9061086490610857565b9052565b60ff1690565b61087a61087f91610691565b610868565b90565b61088c905461086e565b90565b634e487b7160e01b5f52602160045260245ffd5b600411156108ad57565b61088f565b906108bc826108a3565b565b906108c8906108b2565b9052565b601f801991011690565b634e487b7160e01b5f52604160045260245ffd5b906108f4906108cc565b810190811067ffffffffffffffff82111761090e57604052565b6108d6565b9061092661091f610482565b92836108ea565b565b6109326080610913565b90565b9061099c6109936003610946610928565b9461095d6109555f8301610776565b5f880161085a565b61097561096c60018301610776565b6020880161085a565b61098d61098460028301610882565b604088016108be565b01610776565b6060840161085a565b565b906109ad6109b2926008610665565b61067b565b6109bd5f82016106b0565b916109c95f83016106d7565b916109d55f8201610704565b916109e15f830161072b565b916109ed5f8201610752565b916109fa60018301610776565b91610a0760028201610776565b91610a14600383016107a2565b91610a21600382016107cf565b91610a2e600383016107f6565b91610a3b6003820161081d565b91610a546004610a4d6003850161084a565b9301610935565b90565b610a6090610494565b9052565b60031115610a6e57565b61088f565b90610a7d82610a64565b565b610a8890610a73565b90565b610a9490610a7f565b9052565b610aa190610857565b9052565b60061115610aaf57565b61088f565b90610abe82610aa5565b565b610ac990610ab4565b90565b610ad590610ac0565b9052565b610ae290610857565b9052565b610aef906108b2565b90565b610afb90610ae6565b9052565b90606080610b4593610b175f8201515f860190610ad9565b610b2960208201516020860190610ad9565b610b3b60408201516040860190610af2565b0151910190610ad9565b565b9a98969492909d9c9b99979593916102008c019e5f8d01610b6791610a57565b60208c01610b7491610a57565b60408b01610b8191610a8b565b60608a01610b8e91610a57565b60808901610b9b91610a57565b60a08801610ba891610a98565b60c08701610bb591610a98565b60e08601610bc2916105b3565b6101008501610bd091610560565b6101208401610bde91610560565b6101408301610bec91610a57565b6101608201610bfa91610acc565b61018001610c0791610aff565b565b34610c4a57610c46610c25610c1f366004610619565b9061099e565b99610c3d9d9b9d999199989298979397969496610482565b9d8e9d8e610b47565b0390f35b610488565b604090610c78610c7f9496959396610c6e60608401985f850190610a57565b6020830190610a57565b0190610560565b565b34610cb557610cb1610c9d610c973660046104bd565b91613466565b610ca8939193610482565b93849384610c4f565b0390f35b610488565b610cc3816105a7565b03610cca57565b5f80fd5b90503590610cdb82610cba565b565b909160c082840312610d3c57610cf5835f84016104ae565b92610d0381602085016104ae565b92610d1182604083016104ae565b92610d39610d2284606085016104ae565b93610d308160808601610cce565b9360a001610cce565b90565b61048c565b34610d5d57610d51366004610cdd565b949390939291926134cf565b610488565b5f910312610d6c57565b61048c565b5190565b60209181520190565b60200190565b610d8d90610494565b9052565b90610d9e81602093610d84565b0190565b60200190565b90610dc5610dbf610db884610d71565b8093610d75565b92610d7e565b905f5b818110610dd55750505090565b909192610dee610de86001928651610d91565b94610da2565b9101919091610dc8565b610e0d9160208201915f818403910152610da8565b90565b34610e4057610e20366004610d62565b610e3c610e2b6135ce565b610e33610482565b91829182610df8565b0390f35b610488565b608081830312610e8657610e5b825f83016104ae565b92610e83610e6c84602085016104ae565b93610e7a81604086016104ae565b936060016104ae565b90565b61048c565b34610ebf57610ebb610eaa610ea1366004610e45565b929190916136f0565b610eb2610482565b9182918261056d565b0390f35b610488565b608081830312610f0557610eda825f83016104ae565b92610f02610eeb84602085016104ae565b93610ef981604086016104ae565b93606001610cce565b90565b61048c565b34610f3e57610f3a610f29610f20366004610ec4565b92919091613a69565b610f31610482565b9182918261056d565b0390f35b610488565b610f4c81610857565b03610f5357565b5f80fd5b90503590610f6482610f43565b565b9190604083820312610f8e5780610f82610f8b925f8601610cce565b93602001610f57565b90565b61048c565b610fa7610fa2610fac9261059c565b610646565b61059c565b90565b610fb890610f93565b90565b610fc490610faf565b90565b90610fd190610fbb565b5f5260205260405f2090565b634e487b7160e01b5f52603260045260245ffd5b5490565b5f5260205f2090565b61100781610ff1565b82101561102157611019600191610ff5565b910201905f90565b610fdd565b611031906018610fc7565b9061103b82610ff1565b8110156110665761104b91610ffe565b50906110635f61105c8185016106b0565b93016106d7565b90565b5f80fd5b91602061108b92949361108460408201965f830190610a57565b0190610a57565b565b346110bf576110a66110a0366004610f66565b90611026565b906110bb6110b2610482565b9283928361106a565b0390f35b610488565b90916060828403126110f9576110f66110df845f85016104ae565b936110ed81602086016104ae565b93604001610cce565b90565b61048c565b9061110890610649565b5f5260205260405f2090565b9061111e90610649565b5f5260205260405f2090565b9061113490610fbb565b5f5260205260405f2090565b1c90565b6111549060086111599302611140565b6107b5565b90565b906111679154611144565b90565b906111929261118861118d92611183600a955f966110fe565b611114565b61112a565b61115c565b90565b346111c6576111c26111b16111ab3660046110c4565b9161116a565b6111b9610482565b9182918261056d565b0390f35b610488565b91906040838203126111f357806111e76111f0925f860161052e565b936020016104ae565b90565b61048c565b3461120e576112083660046111cb565b90613e22565b610488565b61121e906016610fc7565b9061122882610ff1565b8110156112535761123891610ffe565b50906112505f6112498185016106b0565b93016106d7565b90565b5f80fd5b346112895761127061126a366004610f66565b90611213565b9061128561127c610482565b9283928361106a565b0390f35b610488565b346112bd576112a76112a1366004610619565b906142aa565b6112af610482565b806112b9816104f7565b0390f35b610488565b906020828203126112db576112d8915f016104ae565b90565b61048c565b91906112f3905f60208501940190610a57565b565b346113255761132161131061130b3660046112c2565b614474565b611318610482565b918291826112e0565b0390f35b610488565b9060208282031261134357611340915f01610f57565b90565b61048c565b61135c61135761136192610857565b610646565b610857565b90565b9061136e90611348565b5f5260205260405f2090565b611385906007611364565b6113905f82016107a2565b9161139d60018301610776565b916113aa60028201610776565b916113b7600583016107a2565b916113c460068201610776565b916113dd60086113d660078501610776565b9301610776565b90565b949290979695939160e08601985f87016113f9916105b3565b6020860161140691610a98565b6040850161141391610a98565b60608401611420916105b3565b6080830161142d91610a98565b60a0820161143a91610a98565b60c00161144691610a98565b565b3461147f5761147b61146361145e36600461132a565b61137a565b93611472979597939193610482565b978897886113e0565b0390f35b610488565b919060a0838203126114d55761149c815f85016104ae565b926114aa82602083016104ae565b926114d26114bb84604085016104ae565b936114c981606086016104ae565b93608001610cce565b90565b61048c565b906114e490610649565b5f5260205260405f2090565b906114fa90610649565b5f5260205260405f2090565b926115369061153161153b9461152c61154098956115276010995f9a6114da565b6114f0565b6110fe565b611114565b61112a565b61115c565b90565b3461157757611573611562611559366004611484565b93929092611506565b61156a610482565b9182918261056d565b0390f35b610488565b7f000000000000000000000000000000000000000000000000000000000000000090565b91906115b3905f602085019401906105b3565b565b346115e5576115c5366004610d62565b6115e16115d061157c565b6115d8610482565b918291826115a0565b0390f35b610488565b91906115fd905f60208501940190610a98565b565b3461162f5761160f366004610d62565b61162b61161a6144ce565b611622610482565b918291826115ea565b0390f35b610488565b5f80fd5b919060c0838203126116ba576116b39061165260c0610913565b9361165f825f8301610f57565b5f8601526116708260208301610f57565b60208601526116828260408301610f57565b60408601526116948260608301610f57565b60608601526116a68260808301610f57565b608086015260a001610f57565b60a0830152565b611634565b919061014083820312611711576116d8815f85016104ae565b926116e682602083016104ae565b9261170e6116f784604085016104ae565b936117058160608601610f57565b93608001611638565b90565b61048c565b34611748576117326117293660046116bf565b9392909261494a565b61173a610482565b80611744816104f7565b0390f35b610488565b346117625761175d366004610d62565b614a70565b610488565b7f000000000000000000000000000000000000000000000000000000000000000090565b346117bb5761179b366004610d62565b6117b76117a6611767565b6117ae610482565b918291826115a0565b0390f35b610488565b906117ca90610fbb565b5f5260205260405f2090565b5490565b5f5260205f2090565b6117ec816117d6565b821015611806576117fe6001916117da565b910201905f90565b610fdd565b90565b61181e9060086118239302611140565b61180b565b90565b90611831915461180e565b90565b61183f90600c6117c0565b611848816117d6565b821015611865576118629161185c916117e3565b90611826565b90565b5f80fd5b61187290610517565b9052565b9190611889905f60208501940190611869565b565b346118bc576118b86118a76118a1366004610f66565b90611834565b6118af610482565b91829182611876565b0390f35b610488565b346118da576118d1366004610e45565b92919091614f36565b610488565b5f80fd5b67ffffffffffffffff81116118fb5760208091020190565b6108d6565b5f80fd5b90929192611919611914826118e3565b610913565b938185526020808601920283019281841161195657915b83831061193d5750505050565b6020809161194b8486610f57565b815201920191611930565b611900565b9080601f830112156119795781602061197693359101611904565b90565b6118df565b91906040838203126119be575f8301359067ffffffffffffffff82116119b9576119ad816119b693860161195b565b93602001610f57565b90565b610490565b61048c565b346119f2576119dc6119d636600461197e565b906151ec565b6119e4610482565b806119ee816104f7565b0390f35b610488565b90959492611a4294611a31611a3b92611a27608096611a1d60a088019c5f890190610a8b565b6020870190610a57565b6040850190610a57565b6060830190610a98565b01906105b3565b565b34611a7957611a75611a60611a5a366004610619565b906152cf565b91611a6c959395610482565b958695866119f7565b0390f35b610488565b34611aad57611a97611a91366004610619565b90615766565b611a9f610482565b80611aa9816104f7565b0390f35b610488565b9091606082840312611ae757611ae4611acd845f85016104ae565b93611adb81602086016104ae565b93604001610f57565b90565b61048c565b90611af690610649565b5f5260205260405f2090565b90611b0c90610649565b5f5260205260405f2090565b5490565b5f5260205f2090565b611b2e81611b18565b821015611b4857611b40600191611b1c565b910201905f90565b610fdd565b611b5d906008611b629302611140565b610783565b90565b90611b709154611b4d565b90565b90611b82611b87926009611aec565b611b02565b611b9081611b18565b821015611bad57611baa91611ba491611b25565b90611b65565b90565b5f80fd5b34611be257611bde611bcd611bc7366004611ab2565b91611b73565b611bd5610482565b918291826115a0565b0390f35b610488565b90602082820312611c0057611bfd915f01610cce565b90565b61048c565b90611c0f90610fbb565b5f5260205260405f2090565b90565b611c2e906008611c339302611140565b611c1b565b90565b90611c419154611c1e565b90565b611c5a90611c556011915f92611c05565b611c36565b90565b90565b611c6990611c5d565b9052565b9190611c80905f60208501940190611c60565b565b34611cb257611cae611c9d611c98366004611be7565b611c44565b611ca5610482565b91829182611c6d565b0390f35b610488565b611cc7906008611ccc9302611140565b61075f565b90565b90611cda9154611cb7565b90565b611ce960035f90611ccf565b90565b34611d1c57611cfc366004610d62565b611d18611d07611cdd565b611d0f610482565b918291826115ea565b0390f35b610488565b5190565b60209181520190565b60200190565b611d3d906105a7565b9052565b611d4a90611c5d565b9052565b90602080611d7093611d665f8201515f860190611d34565b0151910190611d41565b565b90611d7f81604093611d4e565b0190565b60200190565b90611da6611da0611d9984611d21565b8093611d25565b92611d2e565b905f5b818110611db65750505090565b909192611dcf611dc96001928651611d72565b94611d83565b9101919091611da9565b611dee9160208201915f818403910152611d89565b90565b34611e2157611e01366004610d62565b611e1d611e0c615b34565b611e14610482565b91829182611dd9565b0390f35b610488565b90611e3090610649565b5f5260205260405f2090565b90611e4690610649565b5f5260205260405f2090565b90611e5c90610fbb565b5f5260205260405f2090565b611e78906008611e7d9302611140565b610696565b90565b90611e8b9154611e68565b90565b90611eb692611eac611eb192611ea7600e955f96611e26565b611e3c565b611e52565b611e80565b90565b34611eea57611ee6611ed5611ecf3660046110c4565b91611e8e565b611edd610482565b918291826112e0565b0390f35b610488565b611ef890610517565b90565b90611f0590611eef565b5f5260205260405f2090565b611f1d611f22916106bd565b6107b5565b90565b611f2f9054611f11565b90565b611f3d906014611efb565b90611f495f8301610776565b91611f5660018201610776565b91611f6e6002611f67818501610882565b9301611f25565b90565b611f7a90610ae6565b9052565b611fb3611fba94611fa9606094989795611f9f608086019a5f870190610a98565b6020850190610a98565b6040830190611f71565b0190610560565b565b34611ff057611fec611fd7611fd236600461053d565b611f32565b90611fe3949294610482565b94859485611f7e565b0390f35b610488565b60409061201e612025949695939661201460608401985f850190610a57565b6020830190610a57565b0190610a98565b565b3461205a5761205661204261203d3660046112c2565b615c02565b61204d939193610482565b93849384611ff5565b0390f35b610488565b346120745761206f36600461053d565b615c79565b610488565b9694929099989795939161012088019a5f890161209591610a98565b602088016120a291610560565b604087016120af91610a98565b606086016120bc91610a98565b608085016120c991610a98565b60a084016120d691610a98565b60c083016120e391610a98565b60e082016120f091610a98565b610100016120fd91610a98565b565b346121395761210f366004610d62565b61213561211a615d44565b9561212c999799959195949294610482565b998a998a612079565b0390f35b610488565b90565b61215561215061215a9261213e565b610646565b610857565b90565b612168612328612141565b90565b61217361215d565b90565b346121a657612186366004610d62565b6121a261219161216b565b612199610482565b918291826115ea565b0390f35b610488565b346121db576121bb366004610d62565b6121d76121c6615e5a565b6121ce610482565b91829182611c6d565b0390f35b610488565b608081830312612221576121f6825f83016104ae565b9261221e61220784602085016104ae565b936122158160408601610cce565b93606001610f57565b90565b61048c565b34612258576122426122393660046121e0565b92919091615e7a565b61224a610482565b80612254816104f7565b0390f35b610488565b7f000000000000000000000000000000000000000000000000000000000000000090565b346122b157612291366004610d62565b6122ad61229c61225d565b6122a4610482565b918291826115a0565b0390f35b610488565b346122e7576122e36122d26122cc366004610619565b90615f20565b6122da610482565b9182918261056d565b0390f35b610488565b7f000000000000000000000000000000000000000000000000000000000000000090565b3461234057612320366004610d62565b61233c61232b6122ec565b612333610482565b918291826115a0565b0390f35b610488565b90565b61235c61235761236192612345565b610646565b610857565b90565b61236e60fa612348565b90565b612379612364565b90565b346123ac5761238c366004610d62565b6123a8612397612371565b61239f610482565b918291826115ea565b0390f35b610488565b90916060828403126123e6576123e36123cc845f850161052e565b936123da81602086016104ae565b93604001610cce565b90565b61048c565b3461241a576124046123fe3660046123b1565b9161605f565b61240c610482565b80612416816104f7565b0390f35b610488565b61242b60015f90611e80565b90565b3461245e5761243e366004610d62565b61245a61244961241f565b612451610482565b918291826112e0565b0390f35b610488565b6003111561246d57565b61088f565b9061247c82612463565b565b61248790612472565b90565b6124939061247e565b9052565b346124ac576124a736600461053d565b6160b1565b610488565b346124e0576124ca6124c4366004610619565b9061629a565b6124d2610482565b806124dc816104f7565b0390f35b610488565b9060a08061254f936124fd5f8201515f860190610ad9565b61250f60208201516020860190610ad9565b61252160408201516040860190610ad9565b61253360608201516060860190610ad9565b61254560808201516080860190610ad9565b0151910190610ad9565b565b61255a9061055b565b9052565b9061014060a06125cb936125785f8201515f860190610d84565b61258a60208201516020860190610d84565b61259c60408201516040860190610ad9565b6125ae606082015160608601906124e5565b6125c16080820151610120860190610d84565b0151910190612551565b565b91906125e1905f610160850194019061255e565b565b346126135761260f6125fe6125f93660046112c2565b6166c0565b612606610482565b918291826125cd565b0390f35b610488565b9061262290611eef565b5f5260205260405f2090565b60ff1690565b612640612645916107af565b61262e565b90565b6126529054612634565b90565b634e487b7160e01b5f52602260045260245ffd5b9060016002830492168015612689575b602083101461268457565b612655565b91607f1691612679565b60209181520190565b5f5260205f2090565b905f92918054906126bf6126b883612669565b8094612693565b916001811690815f1461271657506001146126da575b505050565b6126e7919293945061269c565b915f925b8184106126fe57505001905f80806126d5565b600181602092959395548486015201910192906126eb565b92949550505060ff19168252151560200201905f80806126d5565b9061273b916126a5565b90565b9061275e6127579261274e610482565b93848092612731565b03836108ea565b565b61276b906015612618565b906127775f83016107a2565b91612784600182016107a2565b91612791600283016107a2565b9161279e600382016107a2565b916127ab600483016107a2565b916127b860048201612648565b916127c5600483016107f6565b916127d260058201610776565b916127df60068301610776565b916127ec60078201610776565b916127f960088301610776565b9161280660098201610776565b9161281f600b612818600a8501610776565b930161273e565b90565b5190565b60209181520190565b90825f9392825e0152565b6128596128626020936128679361285081612822565b93848093612826565b9586910161282f565b6108cc565b0190565b9c9a9896949290918d9c9a989694926101c08e019e5f0161288b916105b3565b60208d01612898916105b3565b60408c016128a5916105b3565b60608b016128b2916105b3565b60808a016128bf916105b3565b60a089016128cc9161248a565b60c088016128d991610560565b60e087016128e691610a98565b61010086016128f491610a98565b610120850161290291610a98565b610140840161291091610a98565b610160830161291e91610a98565b610180820161292c91610a98565b808203906101a0015261293e9161283a565b90565b346129845761298061295c61295736600461053d565b612760565b9a6129779e9c9e9a919a999299989398979497969596610482565b9e8f9e8f61286b565b0390f35b610488565b7f000000000000000000000000000000000000000000000000000000000000000090565b346129dd576129bd366004610d62565b6129d96129c8612989565b6129d0610482565b918291826115a0565b0390f35b610488565b6129ee60045f90611ccf565b90565b34612a2157612a01366004610d62565b612a1d612a0c6129e2565b612a14610482565b918291826115ea565b0390f35b610488565b34612a5657612a52612a41612a3c3660046112c2565b616704565b612a49610482565b918291826115ea565b0390f35b610488565b9190604083820312612a835780612a77612a80925f8601610cce565b9360200161052e565b90565b61048c565b90612a9290610fbb565b5f5260205260405f2090565b90612aa890611eef565b5f5260205260405f2090565b612acd612ad292612ac8600d935f94612a88565b612a9e565b611ccf565b90565b34612b0657612b02612af1612aeb366004612a5b565b90612ab4565b612af9610482565b918291826115ea565b0390f35b610488565b90612b1590610649565b5f5260205260405f2090565b90612b2b90610649565b5f5260205260405f2090565b90612b4190610fbb565b5f5260205260405f2090565b90612b7592612b6b612b7092612b66600f955f96612b0b565b612b21565b612b37565b611ccf565b90565b34612ba957612ba5612b94612b8e3660046110c4565b91612b4d565b612b9c610482565b918291826115ea565b0390f35b610488565b5190565b60209181520190565b60200190565b90602080612be393612bd95f8201515f860190610d84565b0151910190610d84565b565b90612bf281604093612bc1565b0190565b60200190565b90612c19612c13612c0c84612bae565b8093612bb2565b92612bbb565b905f5b818110612c295750505090565b909192612c42612c3c6001928651612be5565b94612bf6565b9101919091612c1c565b612c619160208201915f818403910152612bfc565b90565b34612c9457612c90612c7f612c7a366004611be7565b61680a565b612c87610482565b91829182612c4c565b0390f35b610488565b34612cc957612cc5612cb4612caf366004611be7565b616829565b612cbc610482565b91829182612c4c565b0390f35b610488565b90565b612ce5612ce0612cea92612cce565b610646565b610494565b90565b612cf760ff612cd1565b90565b612d02612ced565b90565b34612d3557612d15366004610d62565b612d31612d20612cfa565b612d28610482565b918291826112e0565b0390f35b610488565b7f000000000000000000000000000000000000000000000000000000000000000090565b34612d8e57612d6e366004610d62565b612d8a612d79612d3a565b612d81610482565b918291826115a0565b0390f35b610488565b9194612ddb612de592989795612dd160a096612dc7612dec9a612dbd60c08a019e5f8b0190610a98565b6020890190610a98565b6040870190610a98565b6060850190610a98565b6080830190610a98565b0190610a98565b565b34612e2557612e21612e09612e043660046112c2565b61684b565b92612e18969496929192610482565b96879687612d93565b0390f35b610488565b34612e3f57612e3a36600461053d565b616909565b610488565b90565b612e5b612e56612e6092612e44565b610646565b610857565b90565b612e6e612710612e47565b90565b612e79612e63565b90565b34612eac57612e8c366004610d62565b612ea8612e97612e71565b612e9f610482565b918291826115ea565b0390f35b610488565b919060a083820312612f0257612ec9815f850161052e565b92612ed782602083016104ae565b92612eff612ee884604085016104ae565b93612ef681606086016104ae565b936080016104ae565b90565b61048c565b612f109061247e565b9052565b906101808061300593612f2d5f8201515f860190611d34565b612f3f60208201516020860190611d34565b612f5160408201516040860190611d34565b612f6360608201516060860190611d34565b612f7560808201516080860190612f07565b612f8760a082015160a0860190612551565b612f9960c082015160c0860190610ad9565b612fab60e082015160e0860190610ad9565b612fbf610100820151610100860190610d84565b612fd3610120820151610120860190610d84565b612fe7610140820151610140860190610d84565b612ffb610160820151610160860190610d84565b0151910190612551565b565b919061301b905f6101a08501940190612f14565b565b346130515761304d61303c613033366004612eb1565b93929092616a0f565b613044610482565b91829182613007565b0390f35b610488565b61306a613064366004610619565b90616ef6565b613072610482565b8061307c816104f7565b0390f35b346130af57613099613093366004610619565b906173e8565b6130a1610482565b806130ab816104f7565b0390f35b610488565b346130e8576130e46130d36130ca366004610e45565b92919091617545565b6130db610482565b9182918261056d565b0390f35b610488565b906130f790610649565b5f5260205260405f2090565b9061310d90610649565b5f5260205260405f2090565b9061312390610649565b5f5260205260405f2090565b61313b613140916106e4565b6107b5565b90565b61314d905461312f565b90565b61316d929161316361316892600b6130ed565b613103565b613119565b906131795f83016106b0565b916131855f82016106d7565b9161319c5f613195818501613143565b930161072b565b90565b6131d46131db946131ca6060949897956131c0608086019a5f870190610a57565b6020850190610a57565b6040830190610560565b0190610a57565b565b346132125761320e6131f96131f33660046104bd565b91613150565b90613205949294610482565b9485948561319f565b0390f35b610488565b6132208161055b565b0361322757565b5f80fd5b9050359061323882613217565b565b909160608284031261326f5761326c613255845f850161052e565b936132638160208601610cce565b9360400161322b565b90565b61048c565b3461328a5761328436600461323a565b91617755565b610488565b90565b6132a66132a16132ab9261328f565b610646565b610857565b90565b6132b96102ee613292565b90565b6132c46132ae565b90565b346132f7576132d7366004610d62565b6132f36132e26132bc565b6132ea610482565b918291826115ea565b0390f35b610488565b3461332c576133286133176133123660046112c2565b617777565b61331f610482565b918291826112e0565b0390f35b610488565b3461336557613361613350613347366004610e45565b9291909161779c565b613358610482565b91829182611876565b0390f35b610488565b5f80fd5b5f7f4d6f64756c653a20557365204945546f757247616d6500000000000000000000910152565b6133a26016602092612826565b6133ab8161336e565b0190565b6133c49060208101905f818303910152613395565b90565b6133cf610482565b62461bcd60e51b8152806133e5600482016133af565b0390fd5b5f90565b6133f56133e9565b506133fe610482565b62461bcd60e51b815280613414600482016133af565b0390fd5b5f90565b90565b61343f6134449161342e613418565b50613437613418565b506015612618565b61341c565b9061345c60016134555f85016107a2565b93016107a2565b90565b5f90565b90565b9161349c6134a1926134976134a69561347d61345f565b5061348661345f565b5061348f6133e9565b50600b6130ed565b613103565b613119565b613463565b906134b25f83016106b0565b906134c95f6134c28186016106d7565b9401613143565b91929190565b6134d7610482565b62461bcd60e51b8152806134ed600482016133af565b0390fd5b606090565b61350a61350561350f92610494565b610646565b610857565b90565b67ffffffffffffffff811161352a5760208091020190565b6108d6565b9061354161353c83613512565b610913565b918252565b369037565b906135706135588361352f565b926020806135668693613512565b9201910390613546565b565b90565b61358961358461358e92613572565b610646565b610494565b90565b600161359d9101610494565b90565b906135aa82610d71565b8110156135bb576020809102010190565b610fdd565b906135ca90610494565b9052565b6135d66134f1565b506135f16135ec6135e760016106b0565b6134f6565b61354b565b6135fa5f613575565b5b8061361761361161360c60016106b0565b610494565b91610494565b1015613647578061363d6136429261363885613632856134f6565b906135a0565b6135c0565b613591565b6135fb565b5090565b90565b61366261365d61366792613572565b610646565b61059c565b90565b6136739061364e565b90565b634e487b7160e01b5f52601160045260245ffd5b61369961369f91939293610857565b92610857565b82039182116136aa57565b613676565b90565b906136bc90610649565b5f5260205260405f2090565b90565b6136da6136e091939293610857565b92610857565b82018092116136eb57565b613676565b926136f96133e9565b506137225f61371c61371761371060088990610665565b869061067b565b61364b565b01610704565b61373561372f6001610a73565b91610a73565b036138fa57613748928492909192617821565b61375c61375760158390612618565b61341c565b906137685f83016107a2565b61378261377c6137775f61366a565b6105a7565b916105a7565b1480156138d3575b6138cc576137a44261379e60088501610776565b9061368a565b6137b0600384016107a2565b6137cc6137c66137c15f87016107a2565b6105a7565b916105a7565b145f146138b5576137f16137eb6137e560098601610776565b5b610857565b91610857565b106138ae57613804613809916014611efb565b6136af565b9161381f61381960028501611f25565b1561055b565b61384857505061384361383d6138386001429401610776565b610857565b91610857565b101590565b613896925060036002613888613875600861386e61386961389097866136b2565b6136c8565b9601610776565b6138825f84880101610776565b906136cb565b930101610776565b906136cb565b6138a96138a34292610857565b91610857565b101590565b5050505f90565b6137f16137eb6138c7600a8601610776565b6137e6565b5050505f90565b506138e060048301612648565b6138f36138ed6001612472565b91612472565b141561378a565b505050505f90565b61390e61391391610691565b6107b5565b90565b6139209054613902565b90565b61392c90610faf565b90565b61393890610f93565b90565b6139449061392f565b90565b61395090610494565b60ff811461395e5760010190565b613676565b61396c90610faf565b90565b60e01b90565b9050519061398282610cba565b565b9050519061399182613217565b565b6003111561399d57565b5f80fd5b905051906139ae82613993565b565b90916060828403126139e5576139e26139cb845f8501613975565b936139d98160208601613984565b936040016139a1565b90565b61048c565b6139f2610482565b3d5f823e3d90fd5b90565b613a11613a0c613a16926139fa565b610646565b610494565b90565b613a25613a2b91610494565b91610494565b019060ff8211613a3757565b613676565b9190604083820312613a645780613a58613a61925f8601613975565b93602001613975565b90565b61048c565b929190613a746133e9565b50613aa6613aa0613a9b613a94613a8d600a89906110fe565b8590611114565b869061112a565b613916565b1561055b565b613e1a57613abe613ab994929430613923565b61393b565b91613ac85f613575565b905b81613add613ad788610494565b91610494565b11613c4d57613b0a613b05613afe613af7600b85906130ed565b8690613103565b8490613119565b613463565b95613b145f613575565b5b80613b32613b2c613b275f8c016106b0565b610494565b91610494565b1015613c3957613b7b6060613b4b858888908692617821565b613b5489613963565b613b706397556f67613b64610482565b9586948593849361396f565b835260048301611876565b03915afa8015613c34575f8080939092613c02575b509091613ba6613ba06002612472565b91612472565b149081613be7575b509081613bd6575b50613bc957613bc490613591565b613b15565b5050505050505050600190565b613be191501561055b565b5f613bb6565b9050613bfb613bf58a6105a7565b916105a7565b145f613bae565b915050613c26915060603d8111613c2d575b613c1e81836108ea565b8101906139b0565b915f613b90565b503d613c14565b6139ea565b5091613c46919650613947565b9094613aca565b9050613c77613c66613c61600284906136b2565b6136c8565b95613c7160016139fd565b90613a19565b905b81613c97613c91613c8c60088a016106b0565b610494565b91610494565b1015613e1057613cc5613cc0613cb9613cb2600b85906130ed565b8690613103565b8490613119565b613463565b95613cda613cd45f8901613143565b1561055b565b613e0457613ce75f613575565b5b80613d05613cff613cfa5f8c016106b0565b610494565b91610494565b1015613def57613d4e6040613d1e858888908692617821565b613d2789613963565b613d43631ec3b8ad613d37610482565b9586948593849361396f565b835260048301611876565b03915afa8015613dea575f80929091613db9575b50613d75613d6f8a6105a7565b916105a7565b14908115613d9e575b50613d9157613d8c90613591565b613ce8565b5050505050505050600190565b9050613db2613dac896105a7565b916105a7565b145f613d7e565b9050613ddc915060403d8111613de3575b613dd481836108ea565b810190613a3c565b905f613d62565b503d613dca565b6139ea565b5091613dfd9196505b613591565b9094613c79565b91613dfd919650613df8565b5050505050505f90565b505050505f90565b613e2a610482565b62461bcd60e51b815280613e40600482016133af565b0390fd5b5f7f496e76616c696420746965720000000000000000000000000000000000000000910152565b613e78600c602092612826565b613e8181613e44565b0190565b613e9a9060208101905f818303910152613e6b565b90565b15613ea457565b613eac610482565b62461bcd60e51b815280613ec260048201613e85565b0390fd5b5f7f496e76616c696420696e7374616e636500000000000000000000000000000000910152565b613efa6010602092612826565b613f0381613ec6565b0190565b613f1c9060208101905f818303910152613eed565b90565b15613f2657565b613f2e610482565b62461bcd60e51b815280613f4460048201613f07565b0390fd5b5f7f4e6f7420656e726f6c6c696e6700000000000000000000000000000000000000910152565b613f7c600d602092612826565b613f8581613f48565b0190565b613f9e9060208101905f818303910152613f6f565b90565b15613fa857565b613fb0610482565b62461bcd60e51b815280613fc660048201613f89565b0390fd5b5f7f5075626c696320636c61696d2077696e646f77206e6f74207265616368656400910152565b613ffe601f602092612826565b61400781613fca565b0190565b6140209060208101905f818303910152613ff1565b90565b1561402a57565b614032610482565b62461bcd60e51b8152806140486004820161400b565b0390fd5b5f7f4e6f20656e726f6c6c6d656e7420706f6f6c20746f20636c61696d0000000000910152565b614080601b602092612826565b6140898161404c565b0190565b6140a29060208101905f818303910152614073565b90565b156140ac57565b6140b4610482565b62461bcd60e51b8152806140ca6004820161408d565b0390fd5b5f1b90565b906140df60ff916140ce565b9181191691161790565b6140f2906108b2565b90565b90565b9061410d614108614114926140e9565b6140f5565b82546140d3565b9055565b61412c61412761413192613572565b610646565b610857565b90565b906141405f19916140ce565b9181191691161790565b90565b9061416261415d61416992611348565b61414a565b8254614134565b9055565b60016141799101610857565b90565b61418590610f93565b90565b6141919061417c565b90565b61419d90610faf565b90565b905090565b6141b05f80926141a0565b0190565b6141bd906141a5565b90565b67ffffffffffffffff81116141de576141da6020916108cc565b0190565b6108d6565b906141f56141f0836141c0565b610913565b918252565b606090565b3d5f1461421a5761420f3d6141e3565b903d5f602084013e5b565b6142226141fa565b90614218565b5f7f5472616e73666572206661696c65640000000000000000000000000000000000910152565b61425c600f602092612826565b61426581614228565b0190565b61427e9060208101905f81830391015261424f565b90565b1561428857565b614290610482565b62461bcd60e51b8152806142a660048201614269565b0390fd5b91906142fa6142c36142be600286906136b2565b6136c8565b6142d76142d260088301611f25565b613e9d565b6142f46142ee6142e95f8694016106d7565b610494565b91610494565b10613f1f565b61431861431361430c60088690610665565b839061067b565b61364b565b9161433f6143275f8501610704565b6143396143335f610a73565b91610a73565b14613fa1565b61436a4261436361435d61435860016004890101610776565b610857565b91610857565b1015614023565b6143906143785f8501610752565b61438a6143845f613575565b91610494565b116140a5565b6143a16003600260048601016140f8565b6143b060036004850101610776565b6143c86143bc5f614118565b6003600487010161414d565b6143d15f614118565b5b806143ef6143e96143e45f8901610752565b6134f6565b91610857565b1015614425576144209061441961441261440b60098a90611aec565b8790611b02565b8290611b25565b505061416d565b6143d2565b50909361447293506144695f8061444361443e33614188565b614194565b8561444c610482565b9081614457816141b4565b03925af16144636141ff565b50614281565b91339192615e7a565b565b5f61448c6144929261448461345f565b5060026136b2565b016106b0565b90565b5f90565b6144a86144ae91939293610857565b92610857565b916144ba838202610857565b9281840414901517156144c957565b613676565b6144d6614495565b6144df5f613575565b5b806144fc6144f66144f160016106b0565b610494565b91610494565b1015614585576145196008614513600284906136b2565b01611f25565b61452c575b61452790613591565b6144e0565b9061457d6145279161457761454b614546600287906136b2565b6136c8565b61457161456c5f6145656145608286016106b0565b6134f6565b93016106d7565b6134f6565b90614499565b906136cb565b91905061451e565b5090565b5f7f5469657220616c72656164792072656769737465726564000000000000000000910152565b6145bd6017602092612826565b6145c681614589565b0190565b6145df9060208101905f8183039101526145b0565b90565b156145e957565b6145f1610482565b62461bcd60e51b815280614607600482016145ca565b0390fd5b90565b61462261461d6146279261460b565b610646565b610494565b90565b5f7f4e656564206174206c65617374203220706c6179657273000000000000000000910152565b61465e6017602092612826565b6146678161462a565b0190565b6146809060208101905f818303910152614651565b90565b1561468a57565b614692610482565b62461bcd60e51b8152806146a86004820161466b565b0390fd5b5f7f4e656564206174206c65617374203120696e7374616e63650000000000000000910152565b6146e06018602092612826565b6146e9816146ac565b0190565b6147029060208101905f8183039101526146d3565b90565b1561470c57565b614714610482565b62461bcd60e51b81528061472a600482016146ed565b0390fd5b61473860c0610913565b90565b52565b906147489061055b565b9052565b6147569051610494565b90565b90565b9061477161476c61477892610649565b614759565b82546140d3565b9055565b60081b90565b9061478f61ff009161477c565b9181191691161790565b906147ae6147a96147b592610649565b614759565b8254614782565b9055565b6147c39051610857565b90565b5190565b9061485960a0600561485f946147ed5f82016147e75f88016147b9565b9061414d565b61480660018201614800602088016147b9565b9061414d565b61481f60028201614819604088016147b9565b9061414d565b61483860038201614832606088016147b9565b9061414d565b6148516004820161484b608088016147b9565b9061414d565b0192016147b9565b9061414d565b565b9061486b916147ca565b565b614877905161055b565b90565b6148839061055b565b90565b90565b9061489e6148996148a59261487a565b614886565b8254614782565b9055565b9061493660a0600861493c946148cc5f82016148c65f880161474c565b9061475c565b6148e45f82016148de6020880161474c565b90614799565b6148fd600182016148f7604088016147b9565b9061414d565b61491660028201614910606088016147c6565b90614861565b61492e8282016149286080880161474c565b9061475c565b01920161486d565b90614889565b565b90614948916148a9565b565b9392614a0c614a2694614a03614a159461498161497c61497660086149708d60026136b2565b01611f25565b1561055b565b6145e2565b61499f81614998614992600261460e565b91610494565b1015614683565b6149bd876149b66149b060016139fd565b91610494565b1015614705565b6149fa6149cd8298969492617890565b936149f16001976149e86149df61472e565b9b5f8d016135c0565b60208b016135c0565b6040890161085a565b6060870161473b565b608085016135c0565b60a0830161473e565b614a21600284906136b2565b61493e565b80614a42614a3c614a3760016106b0565b610494565b91610494565b1015614a4c575b50565b614a63614a6a91614a5d60016139fd565b90613a19565b600161475c565b5f614a49565b614a78614495565b50614a81610482565b62461bcd60e51b815280614a97600482016133af565b0390fd5b614aa361790e565b614d64565b5f7f4d41000000000000000000000000000000000000000000000000000000000000910152565b614adc6002602092612826565b614ae581614aa8565b0190565b614afe9060208101905f818303910152614acf565b90565b15614b0857565b614b10610482565b62461bcd60e51b815280614b2660048201614ae9565b0390fd5b5f7f4e50000000000000000000000000000000000000000000000000000000000000910152565b614b5e6002602092612826565b614b6781614b2a565b0190565b614b809060208101905f818303910152614b51565b90565b15614b8a57565b614b92610482565b62461bcd60e51b815280614ba860048201614b6b565b0390fd5b5f7f4f54000000000000000000000000000000000000000000000000000000000000910152565b614be06002602092612826565b614be981614bac565b0190565b614c029060208101905f818303910152614bd3565b90565b15614c0c57565b614c14610482565b62461bcd60e51b815280614c2a60048201614bed565b0390fd5b5f7f544f000000000000000000000000000000000000000000000000000000000000910152565b614c626002602092612826565b614c6b81614c2e565b0190565b614c849060208101905f818303910152614c55565b90565b15614c8e57565b614c96610482565b62461bcd60e51b815280614cac60048201614c6f565b0390fd5b604090614cd9614ce09496959396614ccf60608401985f850190611869565b6020830190610a57565b0190610a98565b565b5f7f4d53000000000000000000000000000000000000000000000000000000000000910152565b614d166002602092612826565b614d1f81614ce2565b0190565b614d389060208101905f818303910152614d09565b90565b15614d4257565b614d4a610482565b62461bcd60e51b815280614d6060048201614d23565b0390fd5b929092614eec5f80614d7a848888908892617821565b614e7a614d91614d8c60158490612618565b61341c565b614db9614da060048301612648565b614db3614dad6001612472565b91612472565b14614b01565b33614dd6614dd0614dcb8785016107a2565b6105a7565b916105a7565b148015614f0c575b614de790614b83565b614e0f33614e08614e02614dfd600386016107a2565b6105a7565b916105a7565b1415614c05565b614e73614e6d614e2b42614e2560088601610776565b9061368a565b92614e38600382016107a2565b614e54614e4e614e498a85016107a2565b6105a7565b916105a7565b148714614efb576009614e679101610776565b5b610857565b91610857565b1015614c87565b7f000000000000000000000000000000000000000000000000000000000000000090614ed58691614ec642614ead610482565b94859360046020860163501fd27160e11b815201614cb0565b602082018103825203826108ea565b602081019051915af4614ee66141ff565b50614d3b565b92919033915f93600195617964565b600a614f079101610776565b614e68565b50614de733614f2e614f28614f23600186016107a2565b6105a7565b916105a7565b149050614dde565b614a9b565b5490565b60207f6572656400000000000000000000000000000000000000000000000000000000917f526166666c65207468726573686f6c647320616c7265616479207265676973745f8201520152565b614f996024604092612826565b614fa281614f3f565b0190565b614fbb9060208101905f818303910152614f8c565b90565b15614fc557565b614fcd610482565b62461bcd60e51b815280614fe360048201614fa6565b0390fd5b60207f7468616e20300000000000000000000000000000000000000000000000000000917f46696e616c207468726573686f6c64206d7573742062652067726561746572205f8201520152565b6150416026604092612826565b61504a81614fe7565b0190565b6150639060208101905f818303910152615034565b90565b1561506d57565b615075610482565b62461bcd60e51b81528061508b6004820161504e565b0390fd5b5190565b9061509d8261508f565b8110156150ae576020809102010190565b610fdd565b5f7f5468726573686f6c64206d7573742062652067726561746572207468616e2030910152565b6150e660208092612826565b6150ef816150b3565b0190565b6151089060208101905f8183039101526150da565b90565b1561511257565b61511a610482565b62461bcd60e51b815280615130600482016150f3565b0390fd5b90565b5f5260205f2090565b5490565b61514d81615140565b8210156151675761515f600191615137565b910201905f90565b610fdd565b1b90565b9190600861518b9102916151855f198461516c565b9261516c565b9181191691161790565b91906151ab6151a66151b393611348565b61414a565b908354615170565b9055565b90815491680100000000000000008310156151e757826151df9160016151e595018155615144565b90615195565b565b6108d6565b916152126151fa6005614f3b565b61520c6152065f614118565b91610857565b14614fbe565b61522e826152286152225f614118565b91610857565b11615066565b6152375f614118565b5b8061525361524d6152488761508f565b610857565b91610857565b10156152bb576152b69061528b61527361526e878490615093565b6147b9565b61528561527f5f614118565b91610857565b1161510b565b6152b16152986005615134565b6152ab6152a6888590615093565b6147b9565b906151b7565b61416d565b615238565b5091506152c990600661414d565b565b5f90565b6153189161530e615313926152e26152cb565b506152eb61345f565b506152f461345f565b506152fd614495565b50615306613418565b506008610665565b61067b565b61364b565b906153245f8301610704565b916153305f820161072b565b9261533c5f8301610752565b92615355600361534e60018601610776565b94016107a2565b919493929190565b60101b90565b9061537162ff00009161535d565b9181191691161790565b61538490610a73565b90565b90565b9061539f61539a6153a69261537b565b615387565b8254615363565b9055565b60181b90565b906153bf63ff000000916153aa565b9181191691161790565b906153de6153d96153e592610649565b614759565b82546153b0565b9055565b906153fa60018060a01b03916140ce565b9181191691161790565b90565b9061541c61541761542392610fbb565b615404565b82546153e9565b9055565b60b81b90565b9061543c60ff60b81b91615427565b9181191691161790565b61544f90610ab4565b90565b90565b9061546a61546561547192615446565b615452565b825461542d565b9055565b61548961548461548e926139fa565b610646565b610857565b90565b67ffffffffffffffff81116154a95760208091020190565b6108d6565b906154c06154bb83615491565b610913565b918252565b369037565b906154ef6154d7836154ae565b926020806154e58693615491565b92019103906154c5565b565b5190565b906154ff826154f1565b811015615510576020809102010190565b610fdd565b9061551f906105a7565b9052565b60209181520190565b60200190565b9061553f81602093611d34565b0190565b60200190565b90615566615560615559846154f1565b8093615523565b9261552c565b905f5b8181106155765750505090565b90919261558f6155896001928651615532565b94615543565b9101919091615569565b90926155cc906155c26155d996946155b860808601975f8701906105b3565b6020850190610a98565b6040830190610acc565b6060818403910152615549565b90565b906155f16155ec6155f89261487a565b614886565b82546140d3565b9055565b90565b5f5260205f2090565b5490565b61561581615608565b82101561562f576156276001916155ff565b910201905f90565b610fdd565b9190600861565491029161564e60018060a01b038461516c565b9261516c565b9181191691161790565b919061567461566f61567c93610fbb565b615404565b908354615634565b9055565b90815491680100000000000000008310156156b057826156a89160016156ae9501815561560c565b9061565e565b565b6108d6565b6156c96156c46156ce92610857565b610646565b611c5d565b90565b6156dd6156e291610691565b611c1b565b90565b6156ef90546156d1565b90565b61570161570791939293611c5d565b92611c5d565b808301925f8285121581831216928512911215161761572257565b613676565b61573b61573661574092611c5d565b610646565b611c5d565b90565b90565b9061575b61575661576292615727565b615743565b8254614134565b9055565b61578461577f61577860088490610665565b849061067b565b61364b565b9061579260015f840161538a565b61579f426002840161414d565b6157b36157ab5f613575565b5f84016153c9565b6157be5f8301610752565b6157d16157cb60016139fd565b91610494565b146157db57505050565b61586860016158096158036157fc6157f560098790611aec565b8890611b02565b5f90611b25565b90611b65565b936158178560038301615407565b61582460025f830161538a565b6158315f60038301615455565b61586261583d836139fd565b61585d61585661584f600e8990611e26565b8a90611e3c565b8890611e52565b61475c565b01610776565b926158928461588d61588661587f600f8790612b0b565b8590612b21565b8690612b37565b61414d565b836158a561589f5f614118565b91610857565b116159ce575b6158bd6158b86001615475565b6154ca565b916158da846158d5856158cf5f614118565b906154f5565b615515565b8385906159275f9561591561590f7f3d4eb684a5f3e9917f4c91b1791efa1b0b8a8c95d62aac47b64fbabbfe57fae996610649565b96610649565b9661591e610482565b94859485615599565b0390a38161593d6159375f614118565b91610857565b11615947575b5050565b61599261598361597b6159989461597161596b6159666013889061112a565b613916565b1561055b565b61599f575b6156b5565b926011611c05565b9161598d836156e5565b6156f2565b90615746565b5f80615943565b6159b560016159b06013889061112a565b6155dc565b6159c96159c260126155fc565b8690615680565b615976565b5f806159e16159dc86614188565b614194565b866159ea610482565b90816159f5816141b4565b03925af1615a016141ff565b505f14615a0e575b6158ab565b615a2b615a2485615a1f6003610776565b6136cb565b600361414d565b615a09565b606090565b67ffffffffffffffff8111615a4d5760208091020190565b6108d6565b90615a64615a5f83615a35565b610913565b918252565b615a736040610913565b90565b5f90565b5f90565b615a86615a69565b9060208083615a93615a76565b815201615a9e615a7a565b81525050565b615aac615a7e565b90565b5f5b828110615abd57505050565b602090615ac8615aa4565b8184015201615ab1565b90615af7615adf83615a52565b92602080615aed8693615a35565b9201910390615aaf565b565b615b036040610913565b90565b90615b1090611c5d565b9052565b90615b1e82611d21565b811015615b2f576020809102010190565b610fdd565b615b3c615a30565b50615b4f615b4a6012611b18565b615ad2565b615b585f614118565b5b80615b75615b6f615b6a6012611b18565b610857565b91610857565b1015615bfe57615bf990615bf2615b97615b9160128490611b25565b90611b65565b615bdf615bc2615bbd6011615bb7615bb160128990611b25565b90611b65565b90611c05565b6156e5565b615bd6615bcd615af9565b935f8501615515565b60208301615b06565b848391615bec8383615b14565b52615b14565b515061416d565b615b59565b5090565b615c4a615c4f91615c1161345f565b50615c1a61345f565b50615c23614495565b50615c43615c3e6008615c38600285906136b2565b01611f25565b613e9d565b60026136b2565b6136c8565b90615c5b5f83016106b0565b90615c736001615c6c5f86016106d7565b9401610776565b91929190565b615c816133e9565b50615c8b8161341f565b50506160b1565b90565b615ca9615ca4615cae92615c92565b610646565b610857565b90565b90565b615cc8615cc3615ccd92615cb1565b610646565b610857565b90565b634e487b7160e01b5f52601260045260245ffd5b615cf0615cf691610857565b91610857565b908115615d01570490565b615cd0565b90565b615d1d615d18615d2292615d06565b610646565b610857565b90565b90565b615d3c615d37615d4192615d25565b610646565b610857565b90565b615d4c614495565b50615d556133e9565b50615d5e614495565b50615d67614495565b50615d70614495565b50615d79614495565b50615d82614495565b50615d8b614495565b50615d94614495565b50615d9f6004610776565b90615daa6003610776565b615db26179d1565b615dd9615dc982615dc36005615c95565b90614499565b615dd36064615cb4565b90615ce4565b82615dec615de684610857565b91610857565b101593615dfa83839061368a565b90615e22615e1283615e0c6005615c95565b90614499565b615e1c605f615d09565b90615ce4565b90615e4a615e3a84615e34605a615d28565b90614499565b615e44605f615d09565b90615ce4565b90615e53617aaf565b90565b5f90565b615e62615e56565b50615e77615e7260113390611c05565b6156e5565b90565b505081615e8f615e895f614118565b91610857565b11615e99575b5050565b615ee4615ed5615ecd615eea94615ec3615ebd615eb86013889061112a565b613916565b1561055b565b615ef1575b6156b5565b926011611c05565b91615edf836156e5565b6156f2565b90615746565b5f80615e95565b615f076001615f026013889061112a565b6155dc565b615f1b615f1460126155fc565b8690615680565b615ec8565b615f286133e9565b50615f3d615f38600283906136b2565b6136c8565b615f52615f4c60088301611f25565b1561055b565b61605857615f73615f6d615f685f8694016106d7565b610494565b91610494565b101561605257615f97615f92615f8b60088490610665565b849061067b565b61364b565b90615ffb615ff6615fef615fac5f8601610704565b615fbe615fb85f610a73565b91610a73565b1495615fea615fce5f8801610752565b615fe1615fdb60016139fd565b91610494565b1495600a6110fe565b611114565b339061112a565b613916565b9161601c6160166160115f600442950101610776565b610857565b91610857565b101592908161604a575b509081616042575b50908161603a575b5090565b90505f616036565b90505f61602e565b90505f616026565b50505f90565b5050505f90565b61606d616072916015612618565b61341c565b9061608561607f5f613575565b91610494565b145f1461609b575f616098929101615407565b5b565b60016160a8929101615407565b616099565b5f90565b6160b9613418565b506160c26133e9565b506160cb6160ad565b506160d4610482565b62461bcd60e51b8152806160ea600482016133af565b0390fd5b60207f6c65640000000000000000000000000000000000000000000000000000000000917f4d75737420686176652065786163746c79203120706c6179657220656e726f6c5f8201520152565b6161486023604092612826565b616151816160ee565b0190565b61616a9060208101905f81830391015261613b565b90565b1561617457565b61617c610482565b62461bcd60e51b81528061619260048201616155565b0390fd5b5f7f4e6f7420656e726f6c6c65640000000000000000000000000000000000000000910152565b6161ca600c602092612826565b6161d381616196565b0190565b6161ec9060208101905f8183039101526161bd565b90565b156161f657565b6161fe610482565b62461bcd60e51b815280616214600482016161d7565b0390fd5b5f7f456e726f6c6c6d656e742077696e646f77206e6f742065787069726564000000910152565b61624c601d602092612826565b61625581616218565b0190565b61626e9060208101905f81830391015261623f565b90565b1561627857565b616280610482565b62461bcd60e51b81528061629660048201616259565b0390fd5b61640b6163ff6164189361638b61638661638161637a6162c46162bf60028a906136b2565b6136c8565b946162d96162d460088801611f25565b613e9d565b6162ff816162f96162f36162ee5f8b016106d7565b610494565b91610494565b10613f1f565b61637561632061631b61631460088d90610665565b849061067b565b61364b565b9961634761632f5f8d01610704565b61634161633b5f610a73565b91610a73565b14613fa1565b61636e6163555f8d01610752565b61636861636260016139fd565b91610494565b1461616d565b600a6110fe565b611114565b339061112a565b613916565b6161ef565b6163b5426163ae6163a86163a35f60048a0101610776565b610857565b91610857565b1015616271565b6163dc6163d1426163cb60046002860101610776565b906136cb565b5f600487010161414d565b6163f9600560026163f15f6004890101610776565b930101610776565b906136cb565b6001600484010161414d565b600260045f9201016140f8565b565b61642460c0610913565b90565b5f90565b5f90565b61643960c0610913565b90565b61644461642f565b90602080808080808761645561642b565b81520161646061642b565b81520161646b61642b565b81520161647661642b565b81520161648161642b565b81520161648c61642b565b81525050565b61649a61643c565b90565b5f90565b6164a961641a565b9060208080808080876164ba616427565b8152016164c5616427565b8152016164d061642b565b8152016164db616492565b8152016164e6616427565b8152016164f161649d565b81525050565b6164ff6164a1565b90565b5f7f496e76616c696420746965722049440000000000000000000000000000000000910152565b616536600f602092612826565b61653f81616502565b0190565b6165589060208101905f818303910152616529565b90565b1561656257565b61656a610482565b62461bcd60e51b81528061658060048201616543565b0390fd5b9061661b616612600561659561642f565b946165ac6165a45f8301610776565b5f880161085a565b6165c46165bb60018301610776565b6020880161085a565b6165dc6165d360028301610776565b6040880161085a565b6165f46165eb60038301610776565b6060880161085a565b61660c61660360048301610776565b6080880161085a565b01610776565b60a0840161085a565b565b906166b26166a9600861662e61641a565b9461664561663d5f83016106b0565b5f88016135c0565b61665c6166535f83016106d7565b602088016135c0565b61667461666b60018301610776565b6040880161085a565b61668c61668360028301616584565b6060880161473b565b6166a361669a8383016106b0565b608088016135c0565b01611f25565b60a0840161473e565b565b6166bd9061661d565b90565b6166fc616701916166cf6164f7565b506166f5816166ef6166e96166e460016106b0565b610494565b91610494565b1061655b565b60026136b2565b6166b4565b90565b600161671d61672392616715614495565b5060026136b2565b01610776565b90565b606090565b67ffffffffffffffff81116167435760208091020190565b6108d6565b9061675a6167558361672b565b610913565b918252565b6167696040610913565b90565b906167a26167995f61677c61675f565b9461679361678b8383016106b0565b8388016135c0565b016106d7565b602084016135c0565b565b6167ad9061676c565b90565b906167ba82610ff1565b6167c381616748565b926167d16020850191610ff5565b5f915b8383106167e15750505050565b6001602081926167f0856167a4565b8152019201920191906167d4565b616807906167b0565b90565b61682161682691616819616726565b506016610fc7565b6167fe565b90565b61684061684591616838616726565b506018610fc7565b6167fe565b90565b90565b60026168ae6168b49261685c614495565b50616865614495565b5061686e614495565b50616877614495565b50616880614495565b50616889614495565b506168a86168a3600861689d8685906136b2565b01611f25565b613e9d565b826136b2565b01616848565b906168c05f8301610776565b906168cd60018401610776565b926168da60028201610776565b926168e760038301610776565b9261690060056168f960048601610776565b9401610776565b91959493929190565b616911610482565b62461bcd60e51b815280616927600482016133af565b0390fd5b6169366101a0610913565b90565b5f90565b60209081808080808080808080808061695461692b565b9d8e61695e615a76565b815201616969615a76565b815201616974615a76565b81520161697f615a76565b81520161698a616939565b81520161699561649d565b8152016169a061642b565b8152016169ab61642b565b8152016169b6616427565b8152016169c1616427565b8152016169cc616427565b8152016169d7616427565b8152016169e261649d565b81525050565b6169f061693d565b90565b6169fe6101a0610913565b90565b90616a0b90612472565b9052565b616a29616a2e91959295616a216169e8565b506015612618565b61341c565b92616a385f61366a565b92616a4e616a48600487016107f6565b1561055b565b80616bd8575b616b84575b845f01616a65906107a2565b9585600101616a73906107a2565b9580600201616a81906107a2565b9581600401616a8f90612648565b82600401616a9c906107f6565b9183600701616aaa90610776565b93600801616ab790610776565b94959697985f9a616ac66169f3565b9c5f8e0190616ad491615515565b60208d0190616ae291615515565b60408c0190616af091615515565b60608b0190616afe91615515565b60808a0190616b0c91616a01565b60a0890190616b1a9161473e565b60c0880190616b289161085a565b60e0870190616b369161085a565b610100860190616b45916135c0565b610120850190616b54916135c0565b610140840190616b63916135c0565b610160830190616b72916135c0565b610180820190616b819161473e565b90565b9250616b92600285016107a2565b616bae616ba8616ba35f88016107a2565b6105a7565b916105a7565b145f14616bc857616bc1600185016107a2565b5b92616a59565b616bd35f85016107a2565b616bc2565b50616be5600286016107a2565b616bff616bf9616bf45f61366a565b6105a7565b916105a7565b1415616a54565b5f7f496e636f727265637420656e7472792066656500000000000000000000000000910152565b616c3a6013602092612826565b616c4381616c06565b0190565b616c5c9060208101905f818303910152616c2d565b90565b15616c6657565b616c6e610482565b62461bcd60e51b815280616c8460048201616c47565b0390fd5b60207f656e747300000000000000000000000000000000000000000000000000000000917f546f75726e616d656e74206e6f7420616363657074696e6720656e726f6c6c6d5f8201520152565b616ce26024604092612826565b616ceb81616c88565b0190565b616d049060208101905f818303910152616cd5565b90565b15616d0e57565b616d16610482565b62461bcd60e51b815280616d2c60048201616cef565b0390fd5b5f7f416c726561647920656e726f6c6c656400000000000000000000000000000000910152565b616d646010602092612826565b616d6d81616d30565b0190565b616d869060208101905f818303910152616d57565b90565b15616d9057565b616d98610482565b62461bcd60e51b815280616dae60048201616d71565b0390fd5b5f7f546f75726e616d656e742066756c6c0000000000000000000000000000000000910152565b616de6600f602092612826565b616def81616db2565b0190565b616e089060208101905f818303910152616dd9565b90565b15616e1257565b616e1a610482565b62461bcd60e51b815280616e3060048201616df3565b0390fd5b5f7f4f776e657220666565207472616e73666572206661696c656400000000000000910152565b616e686019602092612826565b616e7181616e34565b0190565b616e8a9060208101905f818303910152616e5b565b90565b15616e9457565b616e9c610482565b62461bcd60e51b815280616eb260048201616e75565b0390fd5b60201b90565b90616ecc64ff0000000091616eb6565b9181191691161790565b90616eeb616ee6616ef292610649565b614759565b8254616ebc565b9055565b9061700b6172046171fe6171f95f6171f2818861702761702261701c6170176170108d616f2d616f28600289906136b2565b6136c8565b9d8e97616f44616f3f60088b01611f25565b613e9d565b616f6b89616f65616f5f616f5a8e8894016106d7565b610494565b91610494565b10613f1f565b616f9389616f8d616f87616f826001349401610776565b610857565b91610857565b14616c5f565b616fb1616fac616fa560088490610665565b859061067b565b61364b565b9889616fbe8c8201610752565b616fd0616fca8e613575565b91610494565b14806172c0575b61721e575b61700491508b616fec9101610704565b616ffe616ff88d610a73565b91610a73565b14616d07565b600a6110fe565b611114565b339061112a565b613916565b1561055b565b616d89565b617057617035838301610752565b61705161704b617046868d016106b0565b610494565b91610494565b10616e0b565b6171ec896171b38c6171ae6171a761708861707a3461707461215d565b90614499565b617082612e63565b90615ce4565b9461716d617166876171578c808d6171006170bc6170ae346170a86132ae565b90614499565b6170b6612e63565b90615ce4565b916170fa600360046170e76170d9346170d3612364565b90614499565b6170e1612e63565b90615ce4565b99930101916170f583610776565b6136cb565b9061414d565b61713161712c7f0000000000000000000000000000000000000000000000000000000000000000614188565b614194565b9061713a610482565b9081617145816141b4565b03925af16171516141ff565b50616e8d565b6171616003610776565b6136cb565b600361414d565b61719561718e61718961718260098890611aec565b8490611b02565b6155fc565b3390615680565b6171a2600194600a6110fe565b611114565b339061112a565b6155dc565b6171d08484016171ca6171c582610752565b613947565b90616ed6565b6171e660018401916171e183610776565b6136cb565b9061414d565b01610752565b94016106b0565b610494565b91610494565b1461720e575b5050565b61721791615766565b5f8061720a565b6172919161727f600560028f617277906004617285976172408b84830161475c565b61724c8d848301614799565b6172706172664261726085898d0101610776565b906136cb565b848484010161414d565b0101610776565b930101610776565b906136cb565b600160048c010161414d565b6172a18a600260048c01016140f8565b6172b96172ad8b614118565b600360048c010161414d565b8f89616fdc565b506172cc8c8201610704565b6172de6172d88e610a73565b91610a73565b14616fd7565b5f7f5075626c6963207469657220616c726561647920616374697665000000000000910152565b617318601a602092612826565b617321816172e4565b0190565b61733a9060208101905f81830391015261730b565b90565b1561734457565b61734c610482565b62461bcd60e51b81528061736260048201617325565b0390fd5b5f7f4e656564206174206c65617374203120706c6179657200000000000000000000910152565b61739a6016602092612826565b6173a381617366565b0190565b6173bc9060208101905f81830391015261738d565b90565b156173c657565b6173ce610482565b62461bcd60e51b8152806173e4600482016173a7565b0390fd5b906175439161743b6174046173ff600284906136b2565b6136c8565b61741861741360088301611f25565b613e9d565b61743561742f61742a5f8794016106d7565b610494565b91610494565b10613f1f565b61753e61745c61745761745060088590610665565b859061067b565b61364b565b61748261746a5f8301610704565b61747c6174765f610a73565b91610a73565b14613fa1565b6174b26174ad6174a86174a161749a600a88906110fe565b8890611114565b339061112a565b613916565b6161ef565b6174dc426174d56174cf6174ca5f6004870101610776565b610857565b91610857565b1015616271565b6175086174ee60026004840101610882565b6175016174fb60036108b2565b916108b2565b141561733d565b6175306175165f8301610752565b61752961752360016139fd565b91610494565b10156173bf565b6002600460019201016140f8565b615766565b565b9261754e6133e9565b506175775f61757161756c61756560088990610665565b869061067b565b61364b565b01610704565b61758a6175846001610a73565b91610a73565b0361774d5761759d928492909192617821565b6175b16175ac60158390612618565b61341c565b906175bd5f83016107a2565b6175d76175d16175cc5f61366a565b6105a7565b916105a7565b148015617726575b61771f576175f9426175f360088501610776565b9061368a565b617605600384016107a2565b61762161761b6176165f87016107a2565b6105a7565b916105a7565b145f146177085761764661764061763a60098601610776565b5b610857565b91610857565b106177015761765961765e916014611efb565b6136af565b9161767461766e60028501611f25565b1561055b565b61769c57505061769761769161768c5f429401610776565b610857565b91610857565b101590565b6176e992506002806176db6176c860086176c16176bc6176e397866136b2565b6136c8565b9601610776565b6176d55f84880101610776565b906136cb565b930101610776565b906136cb565b6176fc6176f64292610857565b91610857565b101590565b5050505f90565b61764661764061771a600a8601610776565b61763b565b5050505f90565b5061773360048301612648565b6177466177406001612472565b91612472565b14156175df565b505050505f90565b61775d610482565b62461bcd60e51b815280617773600482016133af565b0390fd5b5f61778f6177959261778761345f565b5060026136b2565b016106d7565b90565b5f90565b916177b59391926177ab617798565b5092909192617821565b90565b60f81b90565b6177c7906177b8565b90565b6177d66177db91610494565b6177be565b9052565b9261780b60016178139461780382886177fb829b9a83996177ca565b0180926177ca565b0180926177ca565b0180926177ca565b0190565b60200190565b5190565b617858929361784991617832617798565b50929461783d610482565b958694602086016177df565b602082018103825203826108ea565b61786a6178648261781d565b91617817565b2090565b61787a61788091610494565b91610494565b90811561788b570490565b615cd0565b9061789961345f565b506178a35f613575565b915b806178b96178b360016139fd565b91610494565b11156178e2576178d66178dc916178d0600261460e565b9061786e565b92613947565b916178a5565b50565b6178f96178f46178fe9261460b565b610646565b610857565b90565b61790b60026178e5565b90565b6179175f610776565b61793061792a617925617901565b610857565b91610857565b1461794857617946617940617901565b5f61414d565b565b5f633ee5aeb560e01b815280617960600482016104f7565b0390fd5b909550617975818784908692617821565b50949091929394617db2565b90565b61799861799361799d92617981565b610646565b610857565b90565b5f5260205f2090565b6179b281614f3b565b8210156179cc576179c46001916179a0565b910201905f90565b610fdd565b6179d9614495565b506179e46005614f3b565b6179f66179f05f614118565b91610857565b14617a5357617a056004610776565b617a20617a1a617a156005614f3b565b610857565b91610857565b10617a3257617a2f6006610776565b90565b617a50617a4a6005617a446004610776565b906179a9565b90611ccf565b90565b617a646729a2241af62c0000617984565b90565b90565b617a7e617a79617a8392617a67565b610646565b610857565b90565b617a9090516105a7565b90565b617a9c90610857565b5f198114617aaa5760010190565b613676565b617ab7614495565b50617acb617ac66103e8617a6a565b6154ca565b90617ad55f614118565b91617adf5f613575565b5b80617afc617af6617af160016106b0565b610494565b91610494565b1015617d0957617b16617b11600283906136b2565b6136c8565b92617b205f613575565b5b80617b3e617b38617b335f89016106d7565b610494565b91610494565b1015617cf857617b62617b5d617b5660088690610665565b839061067b565b61364b565b617b6d5f8201610704565b617b7f617b795f610a73565b91610a73565b14908115617cd2575b50617b9c575b617b9790613591565b617b21565b617bbe617bb9617bb26009989594988590611aec565b8390611b02565b6155fc565b90617bc85f614118565b955b86617be5617bdf617bda86615608565b610857565b91610857565b1015617cc057617bff617bf984899061560c565b90611b65565b935f98617c0b5f614118565b5b80617c1f617c198a610857565b91610857565b1015617cb157617c38617c338a83906154f5565b617a86565b617c4a617c44896105a7565b916105a7565b14617c5d57617c589061416d565b617c0c565b50979194909850617c7060015b1561055b565b617c87575b50617c7f9061416d565b959692617bca565b617c7f9195617ca5617caa92617ca08a918490926154f5565b615515565b617a93565b9490617c75565b509791949098617c7090617c6a565b9550617b979150959192959050617b8e565b617cde91505f01610704565b617cf1617ceb6001610a73565b91610a73565b145f617b88565b509250617d0490613591565b617ae0565b5050565b60407f2067616d6520636f6e7472616374000000000000000000000000000000000000917f45546f75725f53746f726167653a205f636f6d706c6574654d6174636847616d5f8201527f655370656369666963206d75737420626520696d706c656d656e74656420627960208201520152565b617d8d604e606092612826565b617d9681617d0d565b0190565b617daf9060208101905f818303910152617d80565b90565b617dba610482565b62461bcd60e51b815280617dd060048201617d9a565b0390fdfea26469706673582212207a3690c7a0ef854324429772723436dd01e5576a3536e137d7d0332006cd612864736f6c634300081e0033","linkReferences":{}},"methodIdentifiers":{"BASIS_POINTS()":"e1f1c4a7","ENTRY_FEES(uint8)":"b5ca37a1","INSTANCE_COUNTS(uint8)":"f893617f","MODULE_CORE()":"87d41608","MODULE_ESCALATION()":"a401a223","MODULE_MATCHES()":"d3f525dc","MODULE_PRIZES()":"43bd18a2","MODULE_RAFFLE()":"5a3db19f","NO_ROUND()":"cd47b9a9","OWNER_SHARE_BPS()":"f4ed1743","PARTICIPANTS_SHARE_BPS()":"82383535","PROTOCOL_SHARE_BPS()":"92822047","TIER_SIZES(uint8)":"3df6a0a9","_completeMatchWithResult(bytes32,address,bool)":"f4df7cf0","_createMatchGame(uint8,uint8,uint8,uint8,address,address)":"2ad7e3bf","_getActiveMatchData(bytes32,uint8,uint8,uint8,uint8)":"e545f486","_getMatchPlayers(bytes32)":"1ec3b8ad","_getMatchResult(bytes32)":"97556f67","_getTimeIncrement()":"58f975f3","_hasCurrentPlayerTimedOut(bytes32)":"19602c21","_initializeMatchForPlay(bytes32,uint8)":"3751d19f","_isMatchActive(bytes32)":"7f515802","_resetMatchGame(bytes32)":"d893088d","_setMatchPlayer(bytes32,uint8,address)":"95dd9176","accumulatedProtocolShare()":"6b9be2c9","canResetEnrollmentWindow(uint8,uint8)":"8c930e96","claimAbandonedEnrollmentPool(uint8,uint8)":"3864cd6b","claimTimeoutWin(uint8,uint8,uint8,uint8)":"631039c7","currentRaffleIndex()":"a5cd19da","drawParticipants(uint8,uint8,uint8,uint8,address)":"414a488a","enrollInTournament(uint8,uint8)":"e6c455f5","enrolledPlayers(uint8,uint8,uint256)":"685f1b12","forceStartTournament(uint8,uint8)":"ea2b1d73","getAllTierIds()":"2b5214cc","getLeaderboard()":"6d763a6e","getMatchId(uint8,uint8,uint8,uint8)":"faa36be7","getPlayerActiveTournaments(address)":"c743c0a8","getPlayerEnrollingTournaments(address)":"c718d0e5","getPlayerStats()":"847a5e99","getRaffleInfo()":"8166f6b2","getRoundInfo(uint8,uint8,uint8)":"273e3475","getTierInfo(uint8)":"7ed85ff3","getTierTimeouts(uint8)":"d6ae2dca","getTotalCapacity()":"442c18f3","getTournamentInfo(uint8,uint8)":"65e12b14","initializeRound(uint8,uint8,uint8)":"0300e0b9","isEnrolled(uint8,uint8,address)":"3475bd53","isMatchEscL2Available(uint8,uint8,uint8,uint8)":"ed96ffdf","isMatchEscL3Available(uint8,uint8,uint8,uint8)":"2f26185d","isPlayerInAdvancedRound(uint8,uint8,uint8,address)":"31449074","matchTimeouts(bytes32)":"766d1fca","matches(bytes32)":"9fe9ada3","owner()":"8da5cb5b","playerActiveMatches(address,uint256)":"5d657cb1","playerActiveTournaments(address,uint256)":"32e7c6aa","playerEarnings(address)":"69f92773","playerEnrollingTournaments(address,uint256)":"3845753f","playerMatchIndex(address,bytes32)":"bb0d10b5","playerPrizes(uint8,uint8,address)":"c6c2d69c","playerRanking(uint8,uint8,address)":"75da743d","raffleResults(uint256)":"40861c1d","registerRaffleThresholds(uint256[],uint256)":"640d3769","registerTier(uint8,uint8,uint8,uint256,(uint256,uint256,uint256,uint256,uint256,uint256))":"58be2c1d","resetEnrollmentWindow(uint8,uint8)":"998c84b4","rounds(uint8,uint8,uint8)":"eed9a268","startTournament(uint8,uint8)":"663d3148","tierConfigs(uint8)":"9da9db2a","tierCount()":"96b55f7d","tournaments(uint8,uint8)":"1f916aca","updateAbandonedEarnings(uint8,uint8,address,uint256)":"86451b7e"},"id":6}