{"abi":[{"type":"constructor","inputs":[{"name":"_moduleCoreAddress","type":"address","internalType":"address"},{"name":"_moduleMatchesAddress","type":"address","internalType":"address"},{"name":"_modulePrizesAddress","type":"address","internalType":"address"},{"name":"_moduleRaffleAddress","type":"address","internalType":"address"},{"name":"_moduleEscalationAddress","type":"address","internalType":"address"}],"stateMutability":"nonpayable"},{"type":"function","name":"BASIS_POINTS","inputs":[],"outputs":[{"name":"","type":"uint256","internalType":"uint256"}],"stateMutability":"view"},{"type":"function","name":"MODULE_CORE","inputs":[],"outputs":[{"name":"","type":"address","internalType":"address"}],"stateMutability":"view"},{"type":"function","name":"MODULE_ESCALATION","inputs":[],"outputs":[{"name":"","type":"address","internalType":"address"}],"stateMutability":"view"},{"type":"function","name":"MODULE_MATCHES","inputs":[],"outputs":[{"name":"","type":"address","internalType":"address"}],"stateMutability":"view"},{"type":"function","name":"MODULE_PRIZES","inputs":[],"outputs":[{"name":"","type":"address","internalType":"address"}],"stateMutability":"view"},{"type":"function","name":"MODULE_RAFFLE","inputs":[],"outputs":[{"name":"","type":"address","internalType":"address"}],"stateMutability":"view"},{"type":"function","name":"NO_ROUND","inputs":[],"outputs":[{"name":"","type":"uint8","internalType":"uint8"}],"stateMutability":"view"},{"type":"function","name":"OWNER_SHARE_BPS","inputs":[],"outputs":[{"name":"","type":"uint256","internalType":"uint256"}],"stateMutability":"view"},{"type":"function","name":"PARTICIPANTS_SHARE_BPS","inputs":[],"outputs":[{"name":"","type":"uint256","internalType":"uint256"}],"stateMutability":"view"},{"type":"function","name":"PROTOCOL_SHARE_BPS","inputs":[],"outputs":[{"name":"","type":"uint256","internalType":"uint256"}],"stateMutability":"view"},{"type":"function","name":"_completeMatchWithResult","inputs":[{"name":"matchId","type":"bytes32","internalType":"bytes32"},{"name":"winner","type":"address","internalType":"address"},{"name":"isDraw","type":"bool","internalType":"bool"}],"outputs":[],"stateMutability":"nonpayable"},{"type":"function","name":"_createMatchGame","inputs":[{"name":"tierId","type":"uint8","internalType":"uint8"},{"name":"instanceId","type":"uint8","internalType":"uint8"},{"name":"roundNumber","type":"uint8","internalType":"uint8"},{"name":"matchNumber","type":"uint8","internalType":"uint8"},{"name":"player1","type":"address","internalType":"address"},{"name":"player2","type":"address","internalType":"address"}],"outputs":[],"stateMutability":"nonpayable"},{"type":"function","name":"_getActiveMatchData","inputs":[{"name":"matchId","type":"bytes32","internalType":"bytes32"},{"name":"tierId","type":"uint8","internalType":"uint8"},{"name":"instanceId","type":"uint8","internalType":"uint8"},{"name":"roundNumber","type":"uint8","internalType":"uint8"},{"name":"matchNumber","type":"uint8","internalType":"uint8"}],"outputs":[{"name":"","type":"tuple","internalType":"struct ETour_Storage.CommonMatchData","components":[{"name":"player1","type":"address","internalType":"address"},{"name":"player2","type":"address","internalType":"address"},{"name":"winner","type":"address","internalType":"address"},{"name":"loser","type":"address","internalType":"address"},{"name":"status","type":"uint8","internalType":"enum ETour_Storage.MatchStatus"},{"name":"isDraw","type":"bool","internalType":"bool"},{"name":"startTime","type":"uint256","internalType":"uint256"},{"name":"lastMoveTime","type":"uint256","internalType":"uint256"},{"name":"tierId","type":"uint8","internalType":"uint8"},{"name":"instanceId","type":"uint8","internalType":"uint8"},{"name":"roundNumber","type":"uint8","internalType":"uint8"},{"name":"matchNumber","type":"uint8","internalType":"uint8"},{"name":"isCached","type":"bool","internalType":"bool"}]}],"stateMutability":"view"},{"type":"function","name":"_getMatchPlayers","inputs":[{"name":"matchId","type":"bytes32","internalType":"bytes32"}],"outputs":[{"name":"player1","type":"address","internalType":"address"},{"name":"player2","type":"address","internalType":"address"}],"stateMutability":"view"},{"type":"function","name":"_getMatchResult","inputs":[{"name":"matchId","type":"bytes32","internalType":"bytes32"}],"outputs":[{"name":"winner","type":"address","internalType":"address"},{"name":"isDraw","type":"bool","internalType":"bool"},{"name":"status","type":"uint8","internalType":"enum ETour_Storage.MatchStatus"}],"stateMutability":"view"},{"type":"function","name":"_getTimeIncrement","inputs":[],"outputs":[{"name":"","type":"uint256","internalType":"uint256"}],"stateMutability":"pure"},{"type":"function","name":"_hasCurrentPlayerTimedOut","inputs":[{"name":"matchId","type":"bytes32","internalType":"bytes32"}],"outputs":[{"name":"","type":"bool","internalType":"bool"}],"stateMutability":"view"},{"type":"function","name":"_initializeMatchForPlay","inputs":[{"name":"matchId","type":"bytes32","internalType":"bytes32"},{"name":"tierId","type":"uint8","internalType":"uint8"}],"outputs":[],"stateMutability":"nonpayable"},{"type":"function","name":"_isMatchActive","inputs":[{"name":"matchId","type":"bytes32","internalType":"bytes32"}],"outputs":[{"name":"","type":"bool","internalType":"bool"}],"stateMutability":"view"},{"type":"function","name":"_resetMatchGame","inputs":[{"name":"matchId","type":"bytes32","internalType":"bytes32"}],"outputs":[],"stateMutability":"nonpayable"},{"type":"function","name":"_setMatchPlayer","inputs":[{"name":"matchId","type":"bytes32","internalType":"bytes32"},{"name":"slot","type":"uint8","internalType":"uint8"},{"name":"player","type":"address","internalType":"address"}],"outputs":[],"stateMutability":"nonpayable"},{"type":"function","name":"accumulatedProtocolShare","inputs":[],"outputs":[{"name":"","type":"uint256","internalType":"uint256"}],"stateMutability":"view"},{"type":"function","name":"canResetEnrollmentWindow","inputs":[{"name":"tierId","type":"uint8","internalType":"uint8"},{"name":"instanceId","type":"uint8","internalType":"uint8"}],"outputs":[{"name":"","type":"bool","internalType":"bool"}],"stateMutability":"view"},{"type":"function","name":"claimAbandonedEnrollmentPool","inputs":[{"name":"tierId","type":"uint8","internalType":"uint8"},{"name":"instanceId","type":"uint8","internalType":"uint8"}],"outputs":[],"stateMutability":"nonpayable"},{"type":"function","name":"claimMatchSlotByReplacement","inputs":[{"name":"tierId","type":"uint8","internalType":"uint8"},{"name":"instanceId","type":"uint8","internalType":"uint8"},{"name":"roundNumber","type":"uint8","internalType":"uint8"},{"name":"matchNumber","type":"uint8","internalType":"uint8"}],"outputs":[],"stateMutability":"nonpayable"},{"type":"function","name":"claimTimeoutWin","inputs":[{"name":"tierId","type":"uint8","internalType":"uint8"},{"name":"instanceId","type":"uint8","internalType":"uint8"},{"name":"roundNumber","type":"uint8","internalType":"uint8"},{"name":"matchNumber","type":"uint8","internalType":"uint8"}],"outputs":[],"stateMutability":"nonpayable"},{"type":"function","name":"currentRaffleIndex","inputs":[],"outputs":[{"name":"","type":"uint256","internalType":"uint256"}],"stateMutability":"view"},{"type":"function","name":"drawParticipants","inputs":[{"name":"","type":"uint8","internalType":"uint8"},{"name":"","type":"uint8","internalType":"uint8"},{"name":"","type":"uint8","internalType":"uint8"},{"name":"","type":"uint8","internalType":"uint8"},{"name":"","type":"address","internalType":"address"}],"outputs":[{"name":"","type":"bool","internalType":"bool"}],"stateMutability":"view"},{"type":"function","name":"enrollInTournament","inputs":[{"name":"tierId","type":"uint8","internalType":"uint8"},{"name":"instanceId","type":"uint8","internalType":"uint8"}],"outputs":[],"stateMutability":"payable"},{"type":"function","name":"enrolledPlayers","inputs":[{"name":"","type":"uint8","internalType":"uint8"},{"name":"","type":"uint8","internalType":"uint8"},{"name":"","type":"uint256","internalType":"uint256"}],"outputs":[{"name":"","type":"address","internalType":"address"}],"stateMutability":"view"},{"type":"function","name":"executeProtocolRaffle","inputs":[],"outputs":[],"stateMutability":"nonpayable"},{"type":"function","name":"forceEliminateStalledMatch","inputs":[{"name":"tierId","type":"uint8","internalType":"uint8"},{"name":"instanceId","type":"uint8","internalType":"uint8"},{"name":"roundNumber","type":"uint8","internalType":"uint8"},{"name":"matchNumber","type":"uint8","internalType":"uint8"}],"outputs":[],"stateMutability":"nonpayable"},{"type":"function","name":"forceStartTournament","inputs":[{"name":"tierId","type":"uint8","internalType":"uint8"},{"name":"instanceId","type":"uint8","internalType":"uint8"}],"outputs":[],"stateMutability":"nonpayable"},{"type":"function","name":"getLeaderboard","inputs":[],"outputs":[{"name":"","type":"tuple[]","internalType":"struct ETour_Storage.LeaderboardEntry[]","components":[{"name":"player","type":"address","internalType":"address"},{"name":"earnings","type":"int256","internalType":"int256"}]}],"stateMutability":"view"},{"type":"function","name":"getMatch","inputs":[{"name":"tierId","type":"uint8","internalType":"uint8"},{"name":"instanceId","type":"uint8","internalType":"uint8"},{"name":"roundNumber","type":"uint8","internalType":"uint8"},{"name":"matchNumber","type":"uint8","internalType":"uint8"}],"outputs":[{"name":"","type":"tuple","internalType":"struct ConnectFourOnChain.ConnectFourMatchData","components":[{"name":"common","type":"tuple","internalType":"struct ETour_Storage.CommonMatchData","components":[{"name":"player1","type":"address","internalType":"address"},{"name":"player2","type":"address","internalType":"address"},{"name":"winner","type":"address","internalType":"address"},{"name":"loser","type":"address","internalType":"address"},{"name":"status","type":"uint8","internalType":"enum ETour_Storage.MatchStatus"},{"name":"isDraw","type":"bool","internalType":"bool"},{"name":"startTime","type":"uint256","internalType":"uint256"},{"name":"lastMoveTime","type":"uint256","internalType":"uint256"},{"name":"tierId","type":"uint8","internalType":"uint8"},{"name":"instanceId","type":"uint8","internalType":"uint8"},{"name":"roundNumber","type":"uint8","internalType":"uint8"},{"name":"matchNumber","type":"uint8","internalType":"uint8"},{"name":"isCached","type":"bool","internalType":"bool"}]},{"name":"packedBoard","type":"uint256","internalType":"uint256"},{"name":"currentTurn","type":"address","internalType":"address"},{"name":"firstPlayer","type":"address","internalType":"address"},{"name":"player1TimeRemaining","type":"uint256","internalType":"uint256"},{"name":"player2TimeRemaining","type":"uint256","internalType":"uint256"}]}],"stateMutability":"view"},{"type":"function","name":"getMatchCountForRound","inputs":[{"name":"tierId","type":"uint8","internalType":"uint8"},{"name":"instanceId","type":"uint8","internalType":"uint8"}],"outputs":[{"name":"","type":"uint8","internalType":"uint8"}],"stateMutability":"view"},{"type":"function","name":"getPlayerActiveTournaments","inputs":[{"name":"player","type":"address","internalType":"address"}],"outputs":[{"name":"","type":"tuple[]","internalType":"struct ETour_Storage.TournamentRef[]","components":[{"name":"tierId","type":"uint8","internalType":"uint8"},{"name":"instanceId","type":"uint8","internalType":"uint8"}]}],"stateMutability":"view"},{"type":"function","name":"getPlayerEnrollingTournaments","inputs":[{"name":"player","type":"address","internalType":"address"}],"outputs":[{"name":"","type":"tuple[]","internalType":"struct ETour_Storage.TournamentRef[]","components":[{"name":"tierId","type":"uint8","internalType":"uint8"},{"name":"instanceId","type":"uint8","internalType":"uint8"}]}],"stateMutability":"view"},{"type":"function","name":"getPlayerStats","inputs":[],"outputs":[{"name":"totalEarnings","type":"int256","internalType":"int256"}],"stateMutability":"view"},{"type":"function","name":"getRaffleHistory","inputs":[],"outputs":[{"name":"","type":"tuple[]","internalType":"struct ETour_Storage.RaffleResult[]","components":[{"name":"executor","type":"address","internalType":"address"},{"name":"timestamp","type":"uint256","internalType":"uint256"},{"name":"rafflePot","type":"uint256","internalType":"uint256"},{"name":"participants","type":"address[]","internalType":"address[]"},{"name":"weights","type":"uint256[]","internalType":"uint256[]"},{"name":"winner","type":"address","internalType":"address"},{"name":"winnerPrize","type":"uint256","internalType":"uint256"},{"name":"protocolReserve","type":"uint256","internalType":"uint256"},{"name":"ownerShare","type":"uint256","internalType":"uint256"}]}],"stateMutability":"view"},{"type":"function","name":"getRaffleInfo","inputs":[],"outputs":[{"name":"raffleIndex","type":"uint256","internalType":"uint256"},{"name":"isReady","type":"bool","internalType":"bool"},{"name":"currentAccumulated","type":"uint256","internalType":"uint256"},{"name":"threshold","type":"uint256","internalType":"uint256"},{"name":"reserve","type":"uint256","internalType":"uint256"},{"name":"raffleAmount","type":"uint256","internalType":"uint256"},{"name":"ownerShare","type":"uint256","internalType":"uint256"},{"name":"winnerShare","type":"uint256","internalType":"uint256"},{"name":"eligiblePlayerCount","type":"uint256","internalType":"uint256"}],"stateMutability":"view"},{"type":"function","name":"getRoundInfo","inputs":[{"name":"tierId","type":"uint8","internalType":"uint8"},{"name":"instanceId","type":"uint8","internalType":"uint8"},{"name":"roundNumber","type":"uint8","internalType":"uint8"}],"outputs":[{"name":"totalMatches","type":"uint8","internalType":"uint8"},{"name":"completedMatches","type":"uint8","internalType":"uint8"},{"name":"initialized","type":"bool","internalType":"bool"}],"stateMutability":"view"},{"type":"function","name":"getTournamentInfo","inputs":[{"name":"tierId","type":"uint8","internalType":"uint8"},{"name":"instanceId","type":"uint8","internalType":"uint8"}],"outputs":[{"name":"status","type":"uint8","internalType":"enum ETour_Storage.TournamentStatus"},{"name":"currentRound","type":"uint8","internalType":"uint8"},{"name":"enrolledCount","type":"uint8","internalType":"uint8"},{"name":"prizePool","type":"uint256","internalType":"uint256"},{"name":"winner","type":"address","internalType":"address"}],"stateMutability":"view"},{"type":"function","name":"initializeRound","inputs":[{"name":"tierId","type":"uint8","internalType":"uint8"},{"name":"instanceId","type":"uint8","internalType":"uint8"},{"name":"roundNumber","type":"uint8","internalType":"uint8"}],"outputs":[],"stateMutability":"nonpayable"},{"type":"function","name":"isEnrolled","inputs":[{"name":"","type":"uint8","internalType":"uint8"},{"name":"","type":"uint8","internalType":"uint8"},{"name":"","type":"address","internalType":"address"}],"outputs":[{"name":"","type":"bool","internalType":"bool"}],"stateMutability":"view"},{"type":"function","name":"isMatchEscL2Available","inputs":[{"name":"tierId","type":"uint8","internalType":"uint8"},{"name":"instanceId","type":"uint8","internalType":"uint8"},{"name":"roundNumber","type":"uint8","internalType":"uint8"},{"name":"matchNumber","type":"uint8","internalType":"uint8"}],"outputs":[{"name":"","type":"bool","internalType":"bool"}],"stateMutability":"view"},{"type":"function","name":"isMatchEscL3Available","inputs":[{"name":"tierId","type":"uint8","internalType":"uint8"},{"name":"instanceId","type":"uint8","internalType":"uint8"},{"name":"roundNumber","type":"uint8","internalType":"uint8"},{"name":"matchNumber","type":"uint8","internalType":"uint8"}],"outputs":[{"name":"","type":"bool","internalType":"bool"}],"stateMutability":"view"},{"type":"function","name":"isPlayerInAdvancedRound","inputs":[{"name":"tierId","type":"uint8","internalType":"uint8"},{"name":"instanceId","type":"uint8","internalType":"uint8"},{"name":"stalledRoundNumber","type":"uint8","internalType":"uint8"},{"name":"player","type":"address","internalType":"address"}],"outputs":[{"name":"hasAdvanced","type":"bool","internalType":"bool"}],"stateMutability":"view"},{"type":"function","name":"makeMove","inputs":[{"name":"tierId","type":"uint8","internalType":"uint8"},{"name":"instanceId","type":"uint8","internalType":"uint8"},{"name":"roundNumber","type":"uint8","internalType":"uint8"},{"name":"matchNumber","type":"uint8","internalType":"uint8"},{"name":"column","type":"uint8","internalType":"uint8"}],"outputs":[],"stateMutability":"nonpayable"},{"type":"function","name":"matchTimeouts","inputs":[{"name":"","type":"bytes32","internalType":"bytes32"}],"outputs":[{"name":"escalation1Start","type":"uint256","internalType":"uint256"},{"name":"escalation2Start","type":"uint256","internalType":"uint256"},{"name":"activeEscalation","type":"uint8","internalType":"enum ETour_Storage.EscalationLevel"},{"name":"isStalled","type":"bool","internalType":"bool"}],"stateMutability":"view"},{"type":"function","name":"matches","inputs":[{"name":"","type":"bytes32","internalType":"bytes32"}],"outputs":[{"name":"player1","type":"address","internalType":"address"},{"name":"player2","type":"address","internalType":"address"},{"name":"winner","type":"address","internalType":"address"},{"name":"currentTurn","type":"address","internalType":"address"},{"name":"firstPlayer","type":"address","internalType":"address"},{"name":"status","type":"uint8","internalType":"enum ETour_Storage.MatchStatus"},{"name":"isDraw","type":"bool","internalType":"bool"},{"name":"packedBoard","type":"uint256","internalType":"uint256"},{"name":"packedState","type":"uint256","internalType":"uint256"},{"name":"startTime","type":"uint256","internalType":"uint256"},{"name":"lastMoveTime","type":"uint256","internalType":"uint256"},{"name":"player1TimeRemaining","type":"uint256","internalType":"uint256"},{"name":"player2TimeRemaining","type":"uint256","internalType":"uint256"},{"name":"moves","type":"string","internalType":"string"}],"stateMutability":"view"},{"type":"function","name":"owner","inputs":[],"outputs":[{"name":"","type":"address","internalType":"address"}],"stateMutability":"view"},{"type":"function","name":"playerActiveMatches","inputs":[{"name":"","type":"address","internalType":"address"},{"name":"","type":"uint256","internalType":"uint256"}],"outputs":[{"name":"","type":"bytes32","internalType":"bytes32"}],"stateMutability":"view"},{"type":"function","name":"playerActiveTournaments","inputs":[{"name":"","type":"address","internalType":"address"},{"name":"","type":"uint256","internalType":"uint256"}],"outputs":[{"name":"tierId","type":"uint8","internalType":"uint8"},{"name":"instanceId","type":"uint8","internalType":"uint8"}],"stateMutability":"view"},{"type":"function","name":"playerEarnings","inputs":[{"name":"","type":"address","internalType":"address"}],"outputs":[{"name":"","type":"int256","internalType":"int256"}],"stateMutability":"view"},{"type":"function","name":"playerEnrollingTournaments","inputs":[{"name":"","type":"address","internalType":"address"},{"name":"","type":"uint256","internalType":"uint256"}],"outputs":[{"name":"tierId","type":"uint8","internalType":"uint8"},{"name":"instanceId","type":"uint8","internalType":"uint8"}],"stateMutability":"view"},{"type":"function","name":"playerMatchIndex","inputs":[{"name":"","type":"address","internalType":"address"},{"name":"","type":"bytes32","internalType":"bytes32"}],"outputs":[{"name":"","type":"uint256","internalType":"uint256"}],"stateMutability":"view"},{"type":"function","name":"playerPrizes","inputs":[{"name":"","type":"uint8","internalType":"uint8"},{"name":"","type":"uint8","internalType":"uint8"},{"name":"","type":"address","internalType":"address"}],"outputs":[{"name":"","type":"uint256","internalType":"uint256"}],"stateMutability":"view"},{"type":"function","name":"playerRanking","inputs":[{"name":"","type":"uint8","internalType":"uint8"},{"name":"","type":"uint8","internalType":"uint8"},{"name":"","type":"address","internalType":"address"}],"outputs":[{"name":"","type":"uint8","internalType":"uint8"}],"stateMutability":"view"},{"type":"function","name":"raffleResults","inputs":[{"name":"","type":"uint256","internalType":"uint256"}],"outputs":[{"name":"executor","type":"address","internalType":"address"},{"name":"timestamp","type":"uint256","internalType":"uint256"},{"name":"rafflePot","type":"uint256","internalType":"uint256"},{"name":"winner","type":"address","internalType":"address"},{"name":"winnerPrize","type":"uint256","internalType":"uint256"},{"name":"protocolReserve","type":"uint256","internalType":"uint256"},{"name":"ownerShare","type":"uint256","internalType":"uint256"}],"stateMutability":"view"},{"type":"function","name":"resetEnrollmentWindow","inputs":[{"name":"tierId","type":"uint8","internalType":"uint8"},{"name":"instanceId","type":"uint8","internalType":"uint8"}],"outputs":[],"stateMutability":"nonpayable"},{"type":"function","name":"rounds","inputs":[{"name":"","type":"uint8","internalType":"uint8"},{"name":"","type":"uint8","internalType":"uint8"},{"name":"","type":"uint8","internalType":"uint8"}],"outputs":[{"name":"totalMatches","type":"uint8","internalType":"uint8"},{"name":"completedMatches","type":"uint8","internalType":"uint8"},{"name":"initialized","type":"bool","internalType":"bool"},{"name":"drawCount","type":"uint8","internalType":"uint8"}],"stateMutability":"view"},{"type":"function","name":"tierCount","inputs":[],"outputs":[{"name":"","type":"uint8","internalType":"uint8"}],"stateMutability":"view"},{"type":"function","name":"tournaments","inputs":[{"name":"","type":"uint8","internalType":"uint8"},{"name":"","type":"uint8","internalType":"uint8"}],"outputs":[{"name":"tierId","type":"uint8","internalType":"uint8"},{"name":"instanceId","type":"uint8","internalType":"uint8"},{"name":"status","type":"uint8","internalType":"enum ETour_Storage.TournamentStatus"},{"name":"currentRound","type":"uint8","internalType":"uint8"},{"name":"enrolledCount","type":"uint8","internalType":"uint8"},{"name":"prizePool","type":"uint256","internalType":"uint256"},{"name":"startTime","type":"uint256","internalType":"uint256"},{"name":"winner","type":"address","internalType":"address"},{"name":"finalsWasDraw","type":"bool","internalType":"bool"},{"name":"allDrawResolution","type":"bool","internalType":"bool"},{"name":"allDrawRound","type":"uint8","internalType":"uint8"},{"name":"completionReason","type":"uint8","internalType":"enum ETour_Storage.CompletionReason"},{"name":"enrollmentTimeout","type":"tuple","internalType":"struct ETour_Storage.EnrollmentTimeoutState","components":[{"name":"escalation1Start","type":"uint256","internalType":"uint256"},{"name":"escalation2Start","type":"uint256","internalType":"uint256"},{"name":"activeEscalation","type":"uint8","internalType":"enum ETour_Storage.EscalationLevel"},{"name":"forfeitPool","type":"uint256","internalType":"uint256"}]}],"stateMutability":"view"},{"type":"event","name":"MatchCompleted","inputs":[{"name":"matchId","type":"bytes32","indexed":true,"internalType":"bytes32"},{"name":"player1","type":"address","indexed":true,"internalType":"address"},{"name":"player2","type":"address","indexed":true,"internalType":"address"},{"name":"winner","type":"address","indexed":false,"internalType":"address"},{"name":"isDraw","type":"bool","indexed":false,"internalType":"bool"},{"name":"reason","type":"uint8","indexed":false,"internalType":"enum ETour_Storage.CompletionReason"},{"name":"board","type":"uint256","indexed":false,"internalType":"uint256"}],"anonymous":false},{"type":"event","name":"MoveMade","inputs":[{"name":"matchId","type":"bytes32","indexed":true,"internalType":"bytes32"},{"name":"player","type":"address","indexed":true,"internalType":"address"},{"name":"column","type":"uint8","indexed":false,"internalType":"uint8"},{"name":"row","type":"uint8","indexed":false,"internalType":"uint8"}],"anonymous":false},{"type":"event","name":"ProtocolRaffleExecuted","inputs":[{"name":"raffleIndex","type":"uint256","indexed":true,"internalType":"uint256"},{"name":"winner","type":"address","indexed":true,"internalType":"address"},{"name":"caller","type":"address","indexed":true,"internalType":"address"},{"name":"raffleAmount","type":"uint256","indexed":false,"internalType":"uint256"},{"name":"ownerShare","type":"uint256","indexed":false,"internalType":"uint256"},{"name":"winnerShare","type":"uint256","indexed":false,"internalType":"uint256"},{"name":"remainingReserve","type":"uint256","indexed":false,"internalType":"uint256"},{"name":"winnerEnrollmentCount","type":"uint256","indexed":false,"internalType":"uint256"}],"anonymous":false},{"type":"event","name":"TournamentCompleted","inputs":[{"name":"tierId","type":"uint8","indexed":true,"internalType":"uint8"},{"name":"instanceId","type":"uint8","indexed":true,"internalType":"uint8"},{"name":"winner","type":"address","indexed":false,"internalType":"address"},{"name":"prizeAmount","type":"uint256","indexed":false,"internalType":"uint256"},{"name":"reason","type":"uint8","indexed":false,"internalType":"enum ETour_Storage.CompletionReason"},{"name":"enrolledPlayers","type":"address[]","indexed":false,"internalType":"address[]"}],"anonymous":false},{"type":"event","name":"Transfer","inputs":[{"name":"from","type":"address","indexed":true,"internalType":"address"},{"name":"to","type":"address","indexed":true,"internalType":"address"},{"name":"value","type":"uint256","indexed":false,"internalType":"uint256"}],"anonymous":false},{"type":"error","name":"ReentrancyGuardReentrantCall","inputs":[]}],"bytecode":{"object":"0x610140604052346100f15761001e6100156101ee565b939290926103f9565b6100266100f6565b61a034610cce82396080518181816123bc015281816160fe0152818161755201528181617aa10152617c40015260a051818181612d5a0152818161406401528181615d3001528181616531015261879f015260c0518181816117650152818161617201528181617d3601528181618ddc01528181618f300152818161902e01526190af015260e05181818161185401526181120152610100518181816129de015281816149c001528181615b01015281816163ba01526168e10152610120518161244b015261a03490f35b6100fc565b60405190565b5f80fd5b601f801991011690565b634e487b7160e01b5f52604160045260245ffd5b9061012890610100565b810190811060018060401b0382111761014057604052565b61010a565b906101586101516100f6565b928361011e565b565b5f80fd5b60018060a01b031690565b6101729061015e565b90565b61017e81610169565b0361018557565b5f80fd5b9050519061019682610175565b565b919060a0838203126101e9576101b0815f8501610189565b926101be8260208301610189565b926101e66101cf8460408501610189565b936101dd8160608601610189565b93608001610189565b90565b61015a565b61020c61ad028038038061020181610145565b928339810190610198565b9091929394565b90565b90565b90565b90565b61023361022e61023892610216565b61021c565b610219565b90565b5f5260205f2090565b634e487b7160e01b5f52603260045260245ffd5b5490565b61026581610258565b82101561027f5761027760019161023b565b910201905f90565b610244565b1b90565b919060086102a391029161029d5f1984610284565b92610284565b9181191691161790565b6102c16102bc6102c692610219565b61021c565b610219565b90565b90565b91906102e26102dd6102ea936102ad565b6102c9565b908354610288565b9055565b908154916801000000000000000083101561031e578261031691600161031c9501815561025c565b906102cc565b565b61010a565b90565b61033a61033561033f92610323565b61021c565b610219565b90565b90565b61035961035461035e92610342565b61021c565b610219565b90565b90565b61037861037361037d92610361565b61021c565b610219565b90565b90565b61039761039261039c92610380565b61021c565b610219565b90565b90565b6103b66103b16103bb9261039f565b61021c565b610219565b90565b5f1b90565b906103cf5f19916103be565b9181191691161790565b906103ee6103e96103f5926102ad565b6102c9565b82546103c3565b9055565b9161040a94929391909192936104e0565b610412610a80565b61043561041f6005610213565b61042f66038d7ea4c6800061021f565b906102ee565b6104586104426005610213565b610452662386f26fc10000610326565b906102ee565b61047b6104656005610213565b61047566b1a2bc2ec50000610345565b906102ee565b61049f6104886005610213565b61049967058d15e176280000610364565b906102ee565b6104c36104ac6005610213565b6104bd670a688906bd8b0000610383565b906102ee565b6104de6104d7670de0b6b3a76400006103a2565b60066103d9565b565b6104e861052b565b336101205260805260a05260c05260e05261010052565b90565b61051661051161051b926104ff565b61021c565b610219565b90565b6105286001610502565b90565b61053c61053661051e565b5f6103d9565b565b61054860c0610145565b90565b90565b61056261055d6105679261054b565b61021c565b610219565b90565b9061057490610219565b9052565b90565b61058f61058a61059492610578565b61021c565b610219565b90565b90565b6105ae6105a96105b392610597565b61021c565b610219565b90565b90565b6105cd6105c86105d2926105b6565b61021c565b610219565b90565b90565b6105ec6105e76105f1926105d5565b61021c565b610219565b90565b6105fe9051610169565b90565b60ff1690565b61061b610616610620926105d5565b61021c565b610601565b90565b61062c90610607565b9052565b90565b61064761064261064c92610630565b61021c565b610601565b90565b61065890610633565b9052565b90565b61067361066e6106789261065c565b61021c565b610601565b90565b6106849061065f565b9052565b66ffffffffffffff1690565b6106a86106a36106ad92610216565b61021c565b610688565b90565b6106b990610694565b9052565b6106c690610219565b9052565b9060a080610734936106e25f8201515f8601906106bd565b6106f4602082015160208601906106bd565b610706604082015160408601906106bd565b610718606082015160608601906106bd565b61072a608082015160808601906106bd565b01519101906106bd565b565b909594926107829461077161077b9261076760809661075d61014088019c5f890190610623565b602087019061064f565b604085019061067b565b60608301906106b0565b01906106ca565b565b60018060401b0381116107a05761079c602091610100565b0190565b61010a565b906107b76107b283610784565b610145565b918252565b606090565b3d5f146107dc576107d13d6107a5565b903d5f602084013e5b565b6107e46107bc565b906107da565b60209181520190565b5f7f5254000000000000000000000000000000000000000000000000000000000000910152565b61082760026020926107ea565b610830816107f3565b0190565b6108499060208101905f81830391015261081a565b90565b1561085357565b61085b6100f6565b62461bcd60e51b81528061087160048201610834565b0390fd5b90565b61088c61088761089192610875565b61021c565b610219565b90565b6108a86108a36108ad926104ff565b61021c565b610601565b90565b6108b990610894565b9052565b90565b6108d46108cf6108d9926108bd565b61021c565b610601565b90565b6108e5906108c0565b9052565b90565b6109006108fb610905926108e9565b61021c565b610601565b90565b610911906108ec565b9052565b90565b61092c61092761093192610915565b61021c565b610688565b90565b61093d90610918565b9052565b9095949261098d9461097c6109869261097260809661096861014088019c5f8901906108b0565b60208701906108dc565b6040850190610908565b6060830190610934565b01906106ca565b565b90565b6109a66109a16109ab9261098f565b61021c565b610219565b90565b90565b6109c56109c06109ca926109ae565b61021c565b610601565b90565b6109d6906109b1565b9052565b90565b6109f16109ec6109f6926109da565b61021c565b610601565b90565b610a02906109dd565b9052565b90565b610a1d610a18610a2292610a06565b61021c565b610688565b90565b610a2e90610a09565b9052565b90959492610a7e94610a6d610a7792610a63608096610a5961014088019c5f89019061064f565b60208701906109cd565b60408501906109f9565b6060830190610a25565b01906106ca565b565b61012c600f607860f05f9161012c93610a9761053e565b95610aa19061054e565b5f870190610aae9161056a565b610ab79061057b565b6020860190610ac59161056a565b610ace9061059a565b6040850190610adc9161056a565b610ae5906105b9565b6060840190610af39161056a565b610afc906105d8565b6080830190610b0a9161056a565b610b139061054e565b60a0820190610b219161056a565b61012c610b2d9061054e565b8160800190610b3b9161056a565b610b4560806105f4565b5f90600260649266038d7ea4c680008590610b5e6100f6565b958694602086016358be2c1d60e01b815260040194610b7c95610736565b602082018103825203610b8f908361011e565b6020820191515a925f93928493f4610ba56107c1565b50610baf9061084c565b610258610bbb90610878565b8160800190610bc99161056a565b610bd360806105f4565b600190600460329266071afd498d00008590610bed6100f6565b958694602086016358be2c1d60e01b815260040194610c0b95610941565b602082018103825203610c1e908361011e565b6020820191515a925f93928493f4610c346107c1565b50610c3e9061084c565b610384610c4a90610992565b8160800190610c589161056a565b610c6260806105f4565b6002600890601993660e35fa931a0000610c7a6100f6565b958694602086016358be2c1d60e01b815260040194610c9895610a32565b602082018103825203610cab908361011e565b6020820191515a925f93928493f4610cc16107c1565b50610ccb9061084c565b56fe60806040526004361015610013575b6132db565b61001d5f3561041b565b80625b0057146104165780630300e0b91461041157806319602c211461040c5780631ec3b8ad146104075780631f916aca1461040257806323e737aa146103fd578063273e3475146103f85780632ad7e3bf146103f35780632f26185d146103ee57806331449074146103e957806332e7c6aa146103e45780633475bd53146103df578063367639e2146103da5780633751d19f146103d55780633845753f146103d05780633864cd6b146103cb57806340861c1d146103c6578063414a488a146103c157806342baab49146103bc57806343bd18a2146103b75780634d9d1611146103b257806358f975f3146103ad5780635a3db19f146103a85780635d657cb1146103a3578063631039c71461039e57806365e12b1414610399578063666d968714610394578063685f1b121461038f57806369f927731461038a5780636b9be2c9146103855780636d763a6e1461038057806375da743d1461037b578063766d1fca146103765780637f515802146103715780638166f6b21461036c5780638238353514610367578063847a5e991461036257806387d416081461035d5780638c930e96146103585780638da5cb5b14610353578063928220471461034e57806395dd91761461034957806396b55f7d1461034457806397556f671461033f578063998c84b41461033a5780639fe9ada314610335578063a401a22314610330578063a5cd19da1461032b578063bb0d10b514610326578063c6c2d69c14610321578063c718d0e51461031c578063c743c0a814610317578063cd47b9a914610312578063d3f525dc1461030d578063d893088d14610308578063e1f1c4a714610303578063e545f486146102fe578063e6c455f5146102f9578063ea2b1d73146102f4578063ed96ffdf146102ef578063eed9a268146102ea578063f4df7cf0146102e5578063f4ed1743146102e05763f878ebf00361000e576132a8565b613273565b613207565b613170565b613047565b613013565b612fe9565b612fb0565b612e1c565b612db1565b612d7c565b612d23565b612cb7565b612c82565b612b96565b612af3565b612a44565b612a00565b612994565b612637565b6125ff565b61258b565b612548565b6124d9565b61246d565b612413565b6123de565b612385565b612350565b6122d9565b61221e565b6121e5565b6120e2565b61201a565b611f22565b611eb8565b611de7565b611cb3565b611a30565b6119ac565b611976565b611876565b61181d565b6117d1565b61179c565b61171e565b6116d0565b6115d5565b611483565b61144c565b6113d4565b611370565b61133a565b611232565b6110af565b611030565b610ff6565b610f36565b610ecd565b610e31565b61082f565b6107ca565b610730565b6106b8565b60e01c90565b60405190565b5f80fd5b5f80fd5b5f80fd5b60ff1690565b61044281610433565b0361044957565b5f80fd5b9050359061045a82610439565b565b60808183031261049d57610472825f830161044d565b9261049a610483846020850161044d565b93610491816040860161044d565b9360600161044d565b90565b61042b565b60018060a01b031690565b6104b6906104a2565b90565b6104c2906104ad565b9052565b634e487b7160e01b5f52602160045260245ffd5b600311156104e457565b6104c6565b906104f3826104da565b565b6104fe906104e9565b90565b61050a906104f5565b9052565b151590565b61051c9061050e565b9052565b90565b61052c90610520565b9052565b61053990610433565b9052565b906101808061062e936105565f8201515f8601906104b9565b610568602082015160208601906104b9565b61057a604082015160408601906104b9565b61058c606082015160608601906104b9565b61059e60808201516080860190610501565b6105b060a082015160a0860190610513565b6105c260c082015160c0860190610523565b6105d460e082015160e0860190610523565b6105e8610100820151610100860190610530565b6105fc610120820151610120860190610530565b610610610140820151610140860190610530565b610624610160820151610160860190610530565b0151910190610513565b565b9061022060a06106a09361064a5f8201515f86019061053d565b61065d60208201516101a0860190610523565b61067060408201516101c08601906104b9565b61068360608201516101e08601906104b9565b6106966080820151610200860190610523565b0151910190610523565b565b91906106b6905f6102408501940190610630565b565b346106ec576106e86106d76106ce36600461045c565b92919091613499565b6106df610421565b918291826106a2565b0390f35b610427565b90916060828403126107265761072361070c845f850161044d565b9361071a816020860161044d565b9360400161044d565b90565b61042b565b5f0190565b3461075f576107496107433660046106f1565b91613d94565b610751610421565b8061075b8161072b565b0390f35b610427565b90565b61077081610764565b0361077757565b5f80fd5b9050359061078882610767565b565b906020828203126107a3576107a0915f0161077b565b90565b61042b565b6107b19061050e565b9052565b91906107c8905f602085019401906107a8565b565b346107fa576107f66107e56107e036600461078a565b6141ef565b6107ed610421565b918291826107b5565b0390f35b610427565b610808906104ad565b9052565b91602061082d92949361082660408201965f8301906107ff565b01906107ff565b565b346108605761084761084236600461078a565b6142b2565b9061085c610853610421565b9283928361080c565b0390f35b610427565b919060408382031261088d578061088161088a925f860161044d565b9360200161044d565b90565b61042b565b90565b6108a96108a46108ae92610433565b610892565b610433565b90565b906108bb90610895565b5f5260205260405f2090565b906108d190610895565b5f5260205260405f2090565b5f1c90565b60ff1690565b6108f46108f9916108dd565b6108e2565b90565b61090690546108e8565b90565b60081c90565b61091b61092091610909565b6108e2565b90565b61092d905461090f565b90565b60101c90565b60ff1690565b61094861094d91610930565b610936565b90565b61095a905461093c565b90565b60181c90565b61096f6109749161095d565b6108e2565b90565b6109819054610963565b90565b60201c90565b61099661099b91610984565b6108e2565b90565b6109a8905461098a565b90565b90565b6109ba6109bf916108dd565b6109ab565b90565b6109cc90546109ae565b90565b60018060a01b031690565b6109e66109eb916108dd565b6109cf565b90565b6109f890546109da565b90565b60a01c90565b60ff1690565b610a13610a18916109fb565b610a01565b90565b610a259054610a07565b90565b60a81c90565b610a3a610a3f91610a28565b610a01565b90565b610a4c9054610a2e565b90565b60b01c90565b610a61610a6691610a4f565b6108e2565b90565b610a739054610a55565b90565b60b81c90565b60ff1690565b610a8e610a9391610a76565b610a7c565b90565b610aa09054610a82565b90565b90610aad90610520565b9052565b60ff1690565b610ac3610ac8916108dd565b610ab1565b90565b610ad59054610ab7565b90565b60041115610ae257565b6104c6565b90610af182610ad8565b565b90610afd90610ae7565b9052565b601f801991011690565b634e487b7160e01b5f52604160045260245ffd5b90610b2990610b01565b810190811067ffffffffffffffff821117610b4357604052565b610b0b565b90610b5b610b54610421565b9283610b1f565b565b610b676080610b48565b90565b90610bd1610bc86003610b7b610b5d565b94610b92610b8a5f83016109c2565b5f8801610aa3565b610baa610ba1600183016109c2565b60208801610aa3565b610bc2610bb960028301610acb565b60408801610af3565b016109c2565b60608401610aa3565b565b90610be2610be79260086108b1565b6108c7565b610bf25f82016108fc565b91610bfe5f8301610923565b91610c0a5f8201610950565b91610c165f8301610977565b91610c225f820161099e565b91610c2f600183016109c2565b91610c3c600282016109c2565b91610c49600383016109ee565b91610c5660038201610a1b565b91610c6360038301610a42565b91610c7060038201610a69565b91610c896004610c8260038501610a96565b9301610b6a565b90565b610c9590610433565b9052565b60031115610ca357565b6104c6565b90610cb282610c99565b565b610cbd90610ca8565b90565b610cc990610cb4565b9052565b610cd690610520565b9052565b60061115610ce457565b6104c6565b90610cf382610cda565b565b610cfe90610ce9565b90565b610d0a90610cf5565b9052565b610d1790610ae7565b90565b610d2390610d0e565b9052565b90606080610d6d93610d3f5f8201515f860190610523565b610d5160208201516020860190610523565b610d6360408201516040860190610d1a565b0151910190610523565b565b9a98969492909d9c9b99979593916102008c019e5f8d01610d8f91610c8c565b60208c01610d9c91610c8c565b60408b01610da991610cc0565b60608a01610db691610c8c565b60808901610dc391610c8c565b60a08801610dd091610ccd565b60c08701610ddd91610ccd565b60e08601610dea916107ff565b6101008501610df8916107a8565b6101208401610e06916107a8565b6101408301610e1491610c8c565b6101608201610e2291610d01565b61018001610e2f91610d27565b565b34610e7257610e6e610e4d610e47366004610865565b90610bd3565b99610e659d9b9d999199989298979397969496610421565b9d8e9d8e610d6f565b0390f35b610427565b919060a083820312610ec857610e8f815f850161044d565b92610e9d826020830161044d565b92610ec5610eae846040850161044d565b93610ebc816060860161044d565b9360800161044d565b90565b61042b565b34610eff57610ee9610ee0366004610e77565b93929092614c22565b610ef1610421565b80610efb8161072b565b0390f35b610427565b604090610f2d610f349496959396610f2360608401985f850190610c8c565b6020830190610c8c565b01906107a8565b565b34610f6a57610f66610f52610f4c3660046106f1565b91614c35565b610f5d939193610421565b93849384610f04565b0390f35b610427565b610f78816104ad565b03610f7f57565b5f80fd5b90503590610f9082610f6f565b565b909160c082840312610ff157610faa835f840161044d565b92610fb8816020850161044d565b92610fc6826040830161044d565b92610fee610fd7846060850161044d565b93610fe58160808601610f83565b9360a001610f83565b90565b61042b565b3461102b57611015611009366004610f92565b94939093929192614ef5565b61101d610421565b806110278161072b565b0390f35b610427565b346110645761106061104f61104636600461045c565b929190916150e0565b611057610421565b918291826107b5565b0390f35b610427565b6080818303126110aa5761107f825f830161044d565b926110a7611090846020850161044d565b9361109e816040860161044d565b93606001610f83565b90565b61042b565b346110e3576110df6110ce6110c5366004611069565b92919091615417565b6110d6610421565b918291826107b5565b0390f35b610427565b6110f181610520565b036110f857565b5f80fd5b90503590611109826110e8565b565b91906040838203126111335780611127611130925f8601610f83565b936020016110fc565b90565b61042b565b61114c611147611151926104a2565b610892565b6104a2565b90565b61115d90611138565b90565b61116990611154565b90565b9061117690611160565b5f5260205260405f2090565b634e487b7160e01b5f52603260045260245ffd5b5490565b5f5260205f2090565b6111ac81611196565b8210156111c6576111be60019161119a565b910201905f90565b611182565b6111d690601861116c565b906111e082611196565b81101561120b576111f0916111a3565b50906112085f6112018185016108fc565b9301610923565b90565b5f80fd5b91602061123092949361122960408201965f830190610c8c565b0190610c8c565b565b346112645761124b61124536600461110b565b906111cb565b90611260611257610421565b9283928361120f565b0390f35b610427565b909160608284031261129e5761129b611284845f850161044d565b93611292816020860161044d565b93604001610f83565b90565b61042b565b906112ad90610895565b5f5260205260405f2090565b906112c390610895565b5f5260205260405f2090565b906112d990611160565b5f5260205260405f2090565b1c90565b6112f99060086112fe93026112e5565b610a01565b90565b9061130c91546112e9565b90565b906113379261132d61133292611328600a955f966112a3565b6112b9565b6112cf565b611301565b90565b3461136b57611367611356611350366004611269565b9161130f565b61135e610421565b918291826107b5565b0390f35b610427565b346113a25761138c61138336600461045c565b92919091615da6565b611394610421565b8061139e8161072b565b0390f35b610427565b91906040838203126113cf57806113c36113cc925f860161077b565b9360200161044d565b90565b61042b565b34611403576113ed6113e73660046113a7565b90615e47565b6113f5610421565b806113ff8161072b565b0390f35b610427565b61141390601661116c565b9061141d82611196565b8110156114485761142d916111a3565b50906114455f61143e8185016108fc565b9301610923565b90565b5f80fd5b3461147e5761146561145f36600461110b565b90611408565b9061147a611471610421565b9283928361120f565b0390f35b610427565b346114b25761149c611496366004610865565b906161de565b6114a4610421565b806114ae8161072b565b0390f35b610427565b906020828203126114d0576114cd915f016110fc565b90565b61042b565b6114e96114e46114ee92610520565b610892565b610520565b90565b906114fb906114d5565b5f5260205260405f2090565b6115129060076114f1565b61151d5f82016109ee565b9161152a600183016109c2565b91611537600282016109c2565b91611544600583016109ee565b91611551600682016109c2565b9161156a6008611563600785016109c2565b93016109c2565b90565b949290979695939160e08601985f8701611586916107ff565b6020860161159391610ccd565b604085016115a091610ccd565b606084016115ad916107ff565b608083016115ba91610ccd565b60a082016115c791610ccd565b60c0016115d391610ccd565b565b3461160c576116086115f06115eb3660046114b7565b611507565b936115ff979597939193610421565b9788978861156d565b0390f35b610427565b919060a08382031261166257611629815f850161044d565b92611637826020830161044d565b9261165f611648846040850161044d565b93611656816060860161044d565b93608001610f83565b90565b61042b565b9061167190610895565b5f5260205260405f2090565b9061168790610895565b5f5260205260405f2090565b926116c3906116be6116c8946116b96116cd98956116b46010995f9a611667565b61167d565b6112a3565b6112b9565b6112cf565b611301565b90565b34611704576117006116ef6116e6366004611611565b93929092611693565b6116f7610421565b918291826107b5565b0390f35b610427565b919061171c905f60208501940190610c8c565b565b3461174f5761174b61173a611734366004610865565b9061620c565b611742610421565b91829182611709565b0390f35b610427565b5f91031261175e57565b61042b565b7f000000000000000000000000000000000000000000000000000000000000000090565b919061179a905f602085019401906107ff565b565b346117cc576117ac366004611754565b6117c86117b7611763565b6117bf610421565b91829182611787565b0390f35b610427565b34611803576117ed6117e436600461045c565b929190916165a7565b6117f5610421565b806117ff8161072b565b0390f35b610427565b919061181b905f60208501940190610ccd565b565b3461184d5761182d366004611754565b6118496118386165d8565b611840610421565b91829182611808565b0390f35b610427565b7f000000000000000000000000000000000000000000000000000000000000000090565b346118a657611886366004611754565b6118a2611891611852565b611899610421565b91829182611787565b0390f35b610427565b906118b590611160565b5f5260205260405f2090565b5490565b5f5260205f2090565b6118d7816118c1565b8210156118f1576118e96001916118c5565b910201905f90565b611182565b90565b61190990600861190e93026112e5565b6118f6565b90565b9061191c91546118f9565b90565b61192a90600c6118ab565b611933816118c1565b8210156119505761194d91611947916118ce565b90611911565b90565b5f80fd5b61195d90610764565b9052565b9190611974905f60208501940190611954565b565b346119a7576119a361199261198c36600461110b565b9061191f565b61199a610421565b91829182611961565b0390f35b610427565b346119de576119c86119bf36600461045c565b9291909161699d565b6119d0610421565b806119da8161072b565b0390f35b610427565b90959492611a2e94611a1d611a2792611a13608096611a0960a088019c5f890190610cc0565b6020870190610c8c565b6040850190610c8c565b6060830190610ccd565b01906107ff565b565b34611a6557611a61611a4c611a46366004610865565b906169af565b91611a58959395610421565b958695866119e3565b0390f35b610427565b5190565b60209181520190565b60200190565b5190565b60209181520190565b60200190565b90611a9d816020936104b9565b0190565b60200190565b90611ac4611abe611ab784611a7d565b8093611a81565b92611a8a565b905f5b818110611ad45750505090565b909192611aed611ae76001928651611a90565b94611aa1565b9101919091611ac7565b5190565b60209181520190565b60200190565b90611b1781602093610523565b0190565b60200190565b90611b3e611b38611b3184611af7565b8093611afb565b92611b04565b905f5b818110611b4e5750505090565b909192611b67611b616001928651611b0a565b94611b1b565b9101919091611b41565b90611c1e9061010080611bdd611bcb6101208501611b955f8901515f8801906104b9565b611ba760208901516020880190610523565b611bb960408901516040880190610523565b60608801518682036060880152611aa7565b60808701518582036080870152611b21565b94611bf060a082015160a08601906104b9565b611c0260c082015160c0860190610523565b611c1460e082015160e0860190610523565b0151910190610523565b90565b90611c2b91611b71565b90565b60200190565b90611c48611c4183611a6a565b8092611a6e565b9081611c5960208302840194611a77565b925f915b838310611c6c57505050505090565b90919293946020611c8e611c8883856001950387528951611c21565b97611c2e565b9301930191939290611c5d565b611cb09160208201915f818403910152611c34565b90565b34611ce357611cc3366004611754565b611cdf611cce616dcc565b611cd6610421565b91829182611c9b565b0390f35b610427565b9091606082840312611d1d57611d1a611d03845f850161044d565b93611d11816020860161044d565b936040016110fc565b90565b61042b565b90611d2c90610895565b5f5260205260405f2090565b90611d4290610895565b5f5260205260405f2090565b5490565b5f5260205f2090565b611d6481611d4e565b821015611d7e57611d76600191611d52565b910201905f90565b611182565b611d93906008611d9893026112e5565b6109cf565b90565b90611da69154611d83565b90565b90611db8611dbd926009611d22565b611d38565b611dc681611d4e565b821015611de357611de091611dda91611d5b565b90611d9b565b90565b5f80fd5b34611e1857611e14611e03611dfd366004611ce8565b91611da9565b611e0b610421565b91829182611787565b0390f35b610427565b90602082820312611e3657611e33915f01610f83565b90565b61042b565b90611e4590611160565b5f5260205260405f2090565b90565b611e64906008611e6993026112e5565b611e51565b90565b90611e779154611e54565b90565b611e9090611e8b6011915f92611e3b565b611e6c565b90565b90565b611e9f90611e93565b9052565b9190611eb6905f60208501940190611e96565b565b34611ee857611ee4611ed3611ece366004611e1d565b611e7a565b611edb610421565b91829182611ea3565b0390f35b610427565b611efd906008611f0293026112e5565b6109ab565b90565b90611f109154611eed565b90565b611f1f60035f90611f05565b90565b34611f5257611f32366004611754565b611f4e611f3d611f13565b611f45610421565b91829182611808565b0390f35b610427565b5190565b60209181520190565b60200190565b611f7390611e93565b9052565b90602080611f9993611f8f5f8201515f8601906104b9565b0151910190611f6a565b565b90611fa881604093611f77565b0190565b60200190565b90611fcf611fc9611fc284611f57565b8093611f5b565b92611f64565b905f5b818110611fdf5750505090565b909192611ff8611ff26001928651611f9b565b94611fac565b9101919091611fd2565b6120179160208201915f818403910152611fb2565b90565b3461204a5761202a366004611754565b612046612035616f81565b61203d610421565b91829182612002565b0390f35b610427565b9061205990610895565b5f5260205260405f2090565b9061206f90610895565b5f5260205260405f2090565b9061208590611160565b5f5260205260405f2090565b6120a19060086120a693026112e5565b6108e2565b90565b906120b49154612091565b90565b906120df926120d56120da926120d0600e955f9661204f565b612065565b61207b565b6120a9565b90565b346121135761210f6120fe6120f8366004611269565b916120b7565b612106610421565b91829182611709565b0390f35b610427565b61212190610764565b90565b9061212e90612118565b5f5260205260405f2090565b61214661214b91610909565b610a01565b90565b612158905461213a565b90565b612166906014612124565b906121725f83016109c2565b9161217f600182016109c2565b916121976002612190818501610acb565b930161214e565b90565b6121a390610d0e565b9052565b6121dc6121e3946121d26060949897956121c8608086019a5f870190610ccd565b6020850190610ccd565b604083019061219a565b01906107a8565b565b34612219576122156122006121fb36600461078a565b61215b565b9061220c949294610421565b948594856121a7565b0390f35b610427565b3461224e5761224a61223961223436600461078a565b61704f565b612241610421565b918291826107b5565b0390f35b610427565b9694929099989795939161012088019a5f890161226f91610ccd565b6020880161227c916107a8565b6040870161228991610ccd565b6060860161229691610ccd565b608085016122a391610ccd565b60a084016122b091610ccd565b60c083016122bd91610ccd565b60e082016122ca91610ccd565b610100016122d791610ccd565b565b34612313576122e9366004611754565b61230f6122f4617186565b95612306999799959195949294610421565b998a998a612253565b0390f35b610427565b90565b61232f61232a61233492612318565b610892565b610520565b90565b61234261232861231b565b90565b61234d612337565b90565b3461238057612360366004611754565b61237c61236b612345565b612373610421565b91829182611808565b0390f35b610427565b346123b557612395366004611754565b6123b16123a061729c565b6123a8610421565b91829182611ea3565b0390f35b610427565b7f000000000000000000000000000000000000000000000000000000000000000090565b3461240e576123ee366004611754565b61240a6123f96123ba565b612401610421565b91829182611787565b0390f35b610427565b346124445761244061242f612429366004610865565b906172bc565b612437610421565b918291826107b5565b0390f35b610427565b7f000000000000000000000000000000000000000000000000000000000000000090565b3461249d5761247d366004611754565b612499612488612449565b612490610421565b91829182611787565b0390f35b610427565b90565b6124b96124b46124be926124a2565b610892565b610520565b90565b6124cb60fa6124a5565b90565b6124d66124c1565b90565b34612509576124e9366004611754565b6125056124f46124ce565b6124fc610421565b91829182611808565b0390f35b610427565b909160608284031261254357612540612529845f850161077b565b93612537816020860161044d565b93604001610f83565b90565b61042b565b346125775761256161255b36600461250e565b916173fd565b612569610421565b806125738161072b565b0390f35b610427565b61258860015f906120a9565b90565b346125bb5761259b366004611754565b6125b76125a661257c565b6125ae610421565b91829182611709565b0390f35b610427565b6125c9906104f5565b9052565b6040906125f66125fd94969593966125ec60608401985f8501906107ff565b60208301906107a8565b01906125c0565b565b346126325761262e61261a61261536600461078a565b61744f565b612625939193610421565b938493846125cd565b0390f35b610427565b346126665761265061264a366004610865565b906175be565b612658610421565b806126628161072b565b0390f35b610427565b9061267590612118565b5f5260205260405f2090565b60ff1690565b612693612698916109fb565b612681565b90565b6126a59054612687565b90565b634e487b7160e01b5f52602260045260245ffd5b90600160028304921680156126dc575b60208310146126d757565b6126a8565b91607f16916126cc565b60209181520190565b5f5260205f2090565b905f929180549061271261270b836126bc565b80946126e6565b916001811690815f14612769575060011461272d575b505050565b61273a91929394506126ef565b915f925b81841061275157505001905f8080612728565b6001816020929593955484860152019101929061273e565b92949550505060ff19168252151560200201905f8080612728565b9061278e916126f8565b90565b906127b16127aa926127a1610421565b93848092612784565b0383610b1f565b565b6127be90601561266b565b906127ca5f83016109ee565b916127d7600182016109ee565b916127e4600283016109ee565b916127f1600382016109ee565b916127fe600483016109ee565b9161280b6004820161269b565b9161281860048301610a42565b91612825600582016109c2565b91612832600683016109c2565b9161283f600782016109c2565b9161284c600883016109c2565b91612859600982016109c2565b91612872600b61286b600a85016109c2565b9301612791565b90565b5190565b60209181520190565b90825f9392825e0152565b6128ac6128b56020936128ba936128a381612875565b93848093612879565b95869101612882565b610b01565b0190565b9c9a9896949290918d9c9a989694926101c08e019e5f016128de916107ff565b60208d016128eb916107ff565b60408c016128f8916107ff565b60608b01612905916107ff565b60808a01612912916107ff565b60a0890161291f916125c0565b60c0880161292c916107a8565b60e0870161293991610ccd565b610100860161294791610ccd565b610120850161295591610ccd565b610140840161296391610ccd565b610160830161297191610ccd565b610180820161297f91610ccd565b808203906101a001526129919161288d565b90565b346129d7576129d36129af6129aa36600461078a565b6127b3565b9a6129ca9e9c9e9a919a999299989398979497969596610421565b9e8f9e8f6128be565b0390f35b610427565b7f000000000000000000000000000000000000000000000000000000000000000090565b34612a3057612a10366004611754565b612a2c612a1b6129dc565b612a23610421565b91829182611787565b0390f35b610427565b612a4160045f90611f05565b90565b34612a7457612a54366004611754565b612a70612a5f612a35565b612a67610421565b91829182611808565b0390f35b610427565b9190604083820312612aa15780612a95612a9e925f8601610f83565b9360200161077b565b90565b61042b565b90612ab090611160565b5f5260205260405f2090565b90612ac690612118565b5f5260205260405f2090565b612aeb612af092612ae6600d935f94612aa6565b612abc565b611f05565b90565b34612b2457612b20612b0f612b09366004612a79565b90612ad2565b612b17610421565b91829182611808565b0390f35b610427565b90612b3390610895565b5f5260205260405f2090565b90612b4990610895565b5f5260205260405f2090565b90612b5f90611160565b5f5260205260405f2090565b90612b9392612b89612b8e92612b84600f955f96612b29565b612b3f565b612b55565b611f05565b90565b34612bc757612bc3612bb2612bac366004611269565b91612b6b565b612bba610421565b91829182611808565b0390f35b610427565b5190565b60209181520190565b60200190565b90602080612c0193612bf75f8201515f860190610530565b0151910190610530565b565b90612c1081604093612bdf565b0190565b60200190565b90612c37612c31612c2a84612bcc565b8093612bd0565b92612bd9565b905f5b818110612c475750505090565b909192612c60612c5a6001928651612c03565b94612c14565b9101919091612c3a565b612c7f9160208201915f818403910152612c1a565b90565b34612cb257612cae612c9d612c98366004611e1d565b6176ae565b612ca5610421565b91829182612c6a565b0390f35b610427565b34612ce757612ce3612cd2612ccd366004611e1d565b6176cd565b612cda610421565b91829182612c6a565b0390f35b610427565b90565b612d03612cfe612d0892612cec565b610892565b610433565b90565b612d1560ff612cef565b90565b612d20612d0b565b90565b34612d5357612d33366004611754565b612d4f612d3e612d18565b612d46610421565b91829182611709565b0390f35b610427565b7f000000000000000000000000000000000000000000000000000000000000000090565b34612dac57612d8c366004611754565b612da8612d97612d58565b612d9f610421565b91829182611787565b0390f35b610427565b34612ddf57612dc9612dc436600461078a565b6176ec565b612dd1610421565b80612ddb8161072b565b0390f35b610427565b90565b612dfb612df6612e0092612de4565b610892565b610520565b90565b612e0e612710612de7565b90565b612e19612e03565b90565b34612e4c57612e2c366004611754565b612e48612e37612e11565b612e3f610421565b91829182611808565b0390f35b610427565b919060a083820312612ea257612e69815f850161077b565b92612e77826020830161044d565b92612e9f612e88846040850161044d565b93612e96816060860161044d565b9360800161044d565b90565b61042b565b9061018080612f9893612ec05f8201515f8601906104b9565b612ed2602082015160208601906104b9565b612ee4604082015160408601906104b9565b612ef6606082015160608601906104b9565b612f0860808201516080860190610501565b612f1a60a082015160a0860190610513565b612f2c60c082015160c0860190610523565b612f3e60e082015160e0860190610523565b612f52610100820151610100860190610530565b612f66610120820151610120860190610530565b612f7a610140820151610140860190610530565b612f8e610160820151610160860190610530565b0151910190610513565b565b9190612fae905f6101a08501940190612ea7565b565b34612fe457612fe0612fcf612fc6366004612e51565b939290926177f7565b612fd7610421565b91829182612f9a565b0390f35b610427565b612ffd612ff7366004610865565b90617a70565b613005610421565b8061300f8161072b565b0390f35b346130425761302c613026366004610865565b90617c0e565b613034610421565b8061303e8161072b565b0390f35b610427565b3461307b5761307761306661305d36600461045c565b92919091617e23565b61306e610421565b918291826107b5565b0390f35b610427565b9061308a90610895565b5f5260205260405f2090565b906130a090610895565b5f5260205260405f2090565b906130b690610895565b5f5260205260405f2090565b6130ce6130d391610930565b610a01565b90565b6130e090546130c2565b90565b61310092916130f66130fb92600b613080565b613096565b6130ac565b9061310c5f83016108fc565b916131185f8201610923565b9161312f5f6131288185016130d6565b9301610977565b90565b61316761316e9461315d606094989795613153608086019a5f870190610c8c565b6020850190610c8c565b60408301906107a8565b0190610c8c565b565b346131a5576131a161318c6131863660046106f1565b916130e3565b90613198949294610421565b94859485613132565b0390f35b610427565b6131b38161050e565b036131ba57565b5f80fd5b905035906131cb826131aa565b565b9091606082840312613202576131ff6131e8845f850161077b565b936131f68160208601610f83565b936040016131be565b90565b61042b565b346132365761322061321a3660046131cd565b91618033565b613228610421565b806132328161072b565b0390f35b610427565b90565b61325261324d6132579261323b565b610892565b610520565b90565b6132656102ee61323e565b90565b61327061325a565b90565b346132a357613283366004611754565b61329f61328e613268565b613296610421565b91829182611808565b0390f35b610427565b346132d6576132b8366004611754565b6132c061817e565b6132c8610421565b806132d28161072b565b0390f35b610427565b5f80fd5b6132e960c0610b48565b90565b6132f76101a0610b48565b90565b5f90565b5f90565b5f90565b5f90565b5f90565b6020908180808080808080808080806133256132ec565b9d8e61332f6132fa565b81520161333a6132fa565b8152016133456132fa565b8152016133506132fa565b81520161335b6132fe565b815201613366613302565b815201613371613306565b81520161337c613306565b81520161338761330a565b81520161339261330a565b81520161339d61330a565b8152016133a861330a565b8152016133b3613302565b81525050565b6133c161330e565b90565b6133cc6132df565b9060208080808080876133dd6133b9565b8152016133e8613306565b8152016133f36132fa565b8152016133fe6132fa565b815201613409613306565b815201613414613306565b81525050565b6134226133c4565b90565b90565b90565b61343f61343a61344492613428565b610892565b6104a2565b90565b6134509061342b565b90565b61345e6101a0610b48565b90565b9061346b906104ad565b9052565b90613479906104e9565b9052565b906134879061050e565b9052565b9061349590610433565b9052565b6134a161341a565b506134c26134bd6134b68385879089926181c4565b601561266b565b613425565b926134ce5f85016109ee565b6134e86134e26134dd5f613447565b6104ad565b916104ad565b036134fd5750505050506134fa61341a565b90565b61350561341a565b9461350f5f613447565b9161352561351f60048801610a42565b1561050e565b8061373a575b6136e6575b855f0161353c906109ee565b948660010161354a906109ee565b9487600201613558906109ee565b94886004016135669061269b565b8960040161357390610a42565b908a600701613581906109c2565b928b60080161358f906109c2565b94959697985f9a61359e613453565b9c5f8e01906135ac91613461565b60208d01906135ba91613461565b60408c01906135c891613461565b60608b01906135d691613461565b60808a01906135e49161346f565b60a08901906135f29161347d565b60c088019061360091610aa3565b60e087019061360e91610aa3565b61010086019061361d9161348b565b61012085019061362c9161348b565b61014084019061363b9161348b565b61016083019061364a9161348b565b6101808201906136599161347d565b825f01528060050161366a906109c2565b826020019061367891610aa3565b80600301613685906109ee565b826040019061369391613461565b806004016136a0906109ee565b82606001906136ae91613461565b806009016136bb906109c2565b82608001906136c991610aa3565b600a016136d5906109c2565b8160a001906136e391610aa3565b90565b91506136f4600286016109ee565b61371061370a6137055f89016109ee565b6104ad565b916104ad565b145f1461372a57613723600186016109ee565b5b91613530565b6137355f86016109ee565b613724565b50613747600287016109ee565b61376161375b6137565f613447565b6104ad565b916104ad565b141561352b565b90565b5f1b90565b9061377c60ff9161376b565b9181191691161790565b90565b9061379e6137996137a592610895565b613786565b8254613770565b9055565b6137bd6137b86137c292613428565b610892565b610433565b90565b60081b90565b906137d861ff00916137c5565b9181191691161790565b906137f76137f26137fe92610895565b613786565b82546137cb565b9055565b60101b90565b9061381662ff000091613802565b9181191691161790565b6138299061050e565b90565b90565b9061384461383f61384b92613820565b61382c565b8254613808565b9055565b60181b90565b9061386463ff0000009161384f565b9181191691161790565b9061388361387e61388a92610895565b613786565b8254613855565b9055565b90565b90565b90565b6138ab6138a66138b092613894565b610892565b610433565b90565b634e487b7160e01b5f52601260045260245ffd5b6138d36138d991610433565b91610433565b9081156138e4570690565b6138b3565b90565b6139006138fb613905926138e9565b610892565b610433565b90565b90565b61391761391c91610520565b613908565b9052565b60f81b90565b61392f90613920565b90565b61393e61394391610433565b613926565b9052565b600161398a9461397a60208399989596613972828761396a61398299899c61390b565b01809261390b565b018092613932565b018092613932565b018092613932565b0190565b60200190565b5190565b6139a46139a9916108dd565b6114d5565b90565b6139c06139bb6139c592610433565b610892565b610520565b90565b6139d46139da91610520565b91610520565b9081156139e5570690565b6138b3565b6139fe6139f9613a0392610520565b610892565b610433565b90565b5490565b5f5260205f2090565b613a1c81613a06565b821015613a3657613a2e600191613a0a565b910201905f90565b611182565b634e487b7160e01b5f52601160045260245ffd5b613a5b613a6191610433565b91610433565b90039060ff8211613a6e57565b613a3b565b1b90565b91906008613a97910291613a9160018060a01b0384613a73565b92613a73565b9181191691161790565b90565b9190613aba613ab5613ac293611160565b613aa1565b908354613a77565b9055565b6001613ad29101610433565b90565b613ae1613ae791610433565b91610433565b0290613af282610433565b918203613afb57565b613a3b565b613b0c613b1291610433565b91610433565b019060ff8211613b1e57565b613a3b565b90565b5f5260205f2090565b5490565b613b3c81613b2f565b821015613b5657613b4e600191613b26565b910201905f90565b611182565b91906008613b76910291613b705f1984613a73565b92613a73565b9181191691161790565b613b89906108dd565b90565b9190613ba2613b9d613baa93612118565b613b80565b908354613b5b565b9055565b9081549168010000000000000000831015613bde5782613bd6916001613bdc95018155613b33565b90613b8c565b565b610b0b565b613bf7613bf2613bfc926138e9565b610892565b610520565b90565b613c0e613c1491939293610520565b92610520565b8203918211613c1f57565b613a3b565b90613c305f199161376b565b9181191691161790565b90565b90613c52613c4d613c59926114d5565b613c3a565b8254613c24565b9055565b90959492613ca894613c97613ca192613c8d608096613c8360a088019c5f890190610c8c565b6020870190610c8c565b6040850190610c8c565b6060830190610c8c565b01906107ff565b565b67ffffffffffffffff8111613cc857613cc4602091610b01565b0190565b610b0b565b90613cdf613cda83613caa565b610b48565b918252565b606090565b3d5f14613d0457613cf93d613ccd565b903d5f602084013e5b565b613d0c613ce4565b90613d02565b5f7f4157000000000000000000000000000000000000000000000000000000000000910152565b613d466002602092612879565b613d4f81613d12565b0190565b613d689060208101905f818303910152613d39565b90565b15613d7257565b613d7a610421565b62461bcd60e51b815280613d9060048201613d53565b0390fd5b9190613da183829061620c565b91613e0b613dcd613dc8613dc1613dba600b8990613080565b8690613096565b84906130ac565b613768565b613dd9855f8301613789565b613ded613de55f6137a9565b5f83016137e2565b613dfa60015f830161382f565b5f613e04816137a9565b910161386e565b80613e1e613e185f6137a9565b91610433565b14613e2a575b50505050565b613e4c613e47613e406009979596978890611d22565b8490611d38565b61388e565b92613e6b613e66613e5f600889906108b1565b85906108c7565b613891565b94613e755f613447565b95613e94613e845f830161099e565b613e8e6002613897565b906138c7565b613ea7613ea160016138ec565b91610433565b146140da575b50613eb75f6137a9565b5b80613ecb613ec584610433565b91610433565b1015614026576140219061401c8961401789613fc2613f62613f44613f3e613f10613f0a86613f048c613efe6002613897565b90613ad5565b90613a13565b90611d9b565b94613f38613f288b613f226002613897565b90613ad5565b613f3260016138ec565b90613b00565b90613a13565b90611d9b565b94613f588d8d8391908b9088928b94614ef5565b8c8c9089926181c4565b91613f81613f7a613f75600c84906118ab565b613b23565b8490613bae565b613fbd613fb6613fae613f9e613f99600c86906118ab565b6118c1565b613fa86001613be3565b90613bff565b92600d612aa6565b8490612abc565b613c3d565b613fe0613fd9613fd4600c86906118ab565b613b23565b8290613bae565b61401261400a613ffa613ff5600c87906118ab565b6118c1565b6140046001613be3565b90613bff565b93600d612aa6565b612abc565b613c3d565b613ac6565b613eb8565b509492935094908261404861404261403d5f613447565b6104ad565b916104ad565b03614054575b50613e24565b6140b95f946140aa6140d09787967f0000000000000000000000000000000000000000000000000000000000000000969395919091614091610421565b96879560046020880163b902ec4760e01b815201613c5d565b60208201810382520382610b1f565b602081019051915af46140ca613ce9565b50613d6b565b5f8080808061404e565b95506141e561415b61415661413d8a6141258b6141168b44926141015f429793920161099e565b9161410a610421565b96879560208701613947565b60208201810382520382610b1f565b61413761413182613994565b9161398e565b20613998565b61415061414b5f8c0161099e565b6139ac565b906139c8565b6139ea565b966141b561417361416d898b90613a13565b90611d9b565b986141af6141a86141a28b61419c61418c5f890161099e565b61419660016138ec565b90613a4f565b90613a13565b90611d9b565b918a613a13565b90613aa4565b6141df88916141d96141c95f8b930161099e565b6141d360016138ec565b90613a4f565b90613a13565b90613aa4565b5f613ead565b5f90565b61420661420b916141fe6141eb565b50601561266b565b613425565b6142176004820161269b565b61422a61422460016104e9565b916104e9565b036142a95761429361428d61424b42614245600886016109c2565b90613bff565b92614258600382016109ee565b61427461426e6142695f85016109ee565b6104ad565b916104ad565b145f1461429857600961428791016109c2565b5b610520565b91610520565b101590565b600a6142a491016109c2565b614288565b505f90565b5f90565b6142d26142d7916142c16142ae565b506142ca6142ae565b50601561266b565b613425565b906142ef60016142e85f85016109ee565b93016109ee565b90565b906143079493929161430261821e565b61470d565b61430f618281565b565b90565b61432861432361432d92614311565b610892565b610433565b90565b61433a6007614314565b90565b5f7f4943000000000000000000000000000000000000000000000000000000000000910152565b6143716002602092612879565b61437a8161433d565b0190565b6143939060208101905f818303910152614364565b90565b1561439d57565b6143a5610421565b62461bcd60e51b8152806143bb6004820161437e565b0390fd5b5f7f4d41000000000000000000000000000000000000000000000000000000000000910152565b6143f36002602092612879565b6143fc816143bf565b0190565b6144159060208101905f8183039101526143e6565b90565b1561441f57565b614427610421565b62461bcd60e51b81528061443d60048201614400565b0390fd5b5f7f4e50000000000000000000000000000000000000000000000000000000000000910152565b6144756002602092612879565b61447e81614441565b0190565b6144979060208101905f818303910152614468565b90565b156144a157565b6144a9610421565b62461bcd60e51b8152806144bf60048201614482565b0390fd5b5f7f4e54000000000000000000000000000000000000000000000000000000000000910152565b6144f76002602092612879565b614500816144c3565b0190565b6145199060208101905f8183039101526144ea565b90565b1561452357565b61452b610421565b62461bcd60e51b81528061454160048201614504565b0390fd5b61455961455461455e92613428565b610892565b610520565b90565b61457061457691939293610520565b92610520565b820180921161458157565b613a3b565b90565b61459d6145986145a292614586565b610892565b610433565b90565b6145af6006614589565b90565b6145bb90610433565b5f81146145c9576001900390565b613a3b565b5f7f4346000000000000000000000000000000000000000000000000000000000000910152565b6146026002602092612879565b61460b816145ce565b0190565b6146249060208101905f8183039101526145f5565b90565b1561462e57565b614636610421565b62461bcd60e51b81528061464c6004820161460f565b0390fd5b5f7f4345000000000000000000000000000000000000000000000000000000000000910152565b6146846002602092612879565b61468d81614650565b0190565b6146a69060208101905f818303910152614677565b90565b156146b057565b6146b8610421565b62461bcd60e51b8152806146ce60048201614691565b0390fd5b906146e360018060a01b039161376b565b9181191691161790565b906147026146fd61470992611160565b613aa1565b82546146d2565b9055565b929190916147348561472e614728614723614330565b610433565b91610433565b10614396565b6147428484849084926181c4565b936147576147526015879061266b565b613425565b946147806147676004880161269b565b61477a61477460016104e9565b916104e9565b14614418565b3361479d6147976147925f8a016109ee565b6104ad565b916104ad565b148015614bf8575b6147ae9061449a565b6147d5336147cf6147c96147c460038b016109ee565b6104ad565b916104ad565b1461451c565b6147eb426147e5600889016109c2565b90613bff565b6147f7600388016109ee565b61481361480d6148085f8b016109ee565b6104ad565b916104ad565b145f14614b7357614826600988016109c2565b61483861483283610520565b91610520565b115f14614b61576148576148619161485260098a016109c2565b613bff565b5b60098801613c3d565b61488861486c6165d8565b614882600989019161487d836109c2565b614561565b90613c3d565b5b6148964260088801613c3d565b61489e6145a5565b966148a76145a5565b5b806148bb6148b55f6137a9565b91610433565b1115614b52576148f36148e26148db836148d560016138ec565b90613a4f565b8490618294565b6148ee60058b016109c2565b618301565b6149056148ff5f6137a9565b91610433565b1461491857614913906145b2565b6148a8565b614a91939495969798506149369061493060016138ec565b90613a4f565b5b61495a8161495461494e6149496145a5565b610433565b91610433565b10614627565b3361497761497161496c5f8d016109ee565b6104ad565b916104ad565b145f14614b435761498860016138ec565b5b926149b96149b08b6149a860056149a1878990618294565b92016109c2565b908791618366565b60058c01613c3d565b614a2d5f807f0000000000000000000000000000000000000000000000000000000000000000614a07614a16866149ee610421565b928391600460208401633dd24e3f60e11b815201611961565b60208201810382520382610b1f565b602081019051915af4614a27613ce9565b506146a9565b33839183614a64614a5e7f3daa317d6fe1ae5dd08bf2b6d8399a85c9c625c19b11903ba67e6b7856fdb71c93612118565b93611160565b93614a79614a70610421565b9283928361120f565b0390a3614a8860058a016109c2565b92909192618428565b614b2e57614aa9614aa4600587016109c2565b61889b565b614b0f575050505080614ac16003614afa93016109ee565b614add614ad7614ad25f85016109ee565b6104ad565b916104ad565b145f14614afc576003614af2600183016109ee565b915b016146ed565b565b6003614b095f83016109ee565b91614af4565b614b2c9450929190614b205f613447565b91600193600295618625565b565b614b41945092919033915f935f95618625565b565b614b4d6002613897565b614989565b50614a91929394959697614937565b50614861614b6e5f614545565b614858565b614b7f600a88016109c2565b614b91614b8b83610520565b91610520565b115f14614be657614bb0614bba91614bab600a8a016109c2565b613bff565b5b600a8801613c3d565b614be1614bc56165d8565b614bdb600a890191614bd6836109c2565b614561565b90613c3d565b614889565b50614bba614bf35f614545565b614bb1565b506147ae33614c1a614c14614c0f60018b016109ee565b6104ad565b916104ad565b1490506147a5565b90614c2f949392916142f2565b565b5f90565b91614c6b614c7092614c66614c7595614c4c614c31565b50614c55614c31565b50614c5e6141eb565b50600b613080565b613096565b6130ac565b613768565b90614c815f83016108fc565b90614c985f614c91818601610923565b94016130d6565b91929190565b5f7f5031000000000000000000000000000000000000000000000000000000000000910152565b614cd26002602092612879565b614cdb81614c9e565b0190565b614cf49060208101905f818303910152614cc5565b90565b15614cfe57565b614d06610421565b62461bcd60e51b815280614d1c60048201614cdf565b0390fd5b5f7f5032000000000000000000000000000000000000000000000000000000000000910152565b614d546002602092612879565b614d5d81614d20565b0190565b614d769060208101905f818303910152614d47565b90565b15614d8057565b614d88610421565b62461bcd60e51b815280614d9e60048201614d61565b0390fd5b60a01b90565b90614db760ff60a01b91614da2565b9181191691161790565b614dca906104e9565b90565b90565b90614de5614de0614dec92614dc1565b614dcd565b8254614da8565b9055565b60a81b90565b90614e0560ff60a81b91614df0565b9181191691161790565b90614e24614e1f614e2b92613820565b61382c565b8254614df6565b9055565b60601b90565b614e3e90614e2f565b90565b614e4a90614e35565b90565b614e59614e5e916104ad565b614e41565b9052565b90565b614e71614e7691610764565b614e62565b9052565b6014614ebc94614eac60208396614ea48287614e9c614eb499839f9e9b61390b565b01809261390b565b018092614e4d565b018092614e4d565b018092614e65565b0190565b614ed4614ecf614ed992613894565b610892565b610520565b90565b90614ee690610895565b5f5260205260405f2090565b90565b61507061506b60029261504d614fd1986150ab9a61502961501a614f705f9a6150999d6150909d614f3988614f32614f2c8a6104ad565b916104ad565b1415614cf7565b87614f558f614f4a614f4f91613447565b6104ad565b916104ad565b1415806150b4575b614f6690614d79565b89929091926181c4565b614f84614f7f6015839061266b565b613425565b9d8e614f92878e83016146ed565b614f9f86600183016146ed565b614fad600160048301614dd0565b614fba4260088301613c3d565b614fc74260078301613c3d565b60048d9101614e0f565b61500244614ff342938890889091614fe7610421565b96879560208701614e7a565b60208201810382520382610b1f565b61501461500e82613994565b9161398e565b20613998565b61502389614ec0565b906139c8565b61503b6150358a614545565b91610520565b1488146150ad57505b60038a016146ed565b61506561505c60038a016109ee565b60048a016146ed565b83614edc565b614ef2565b61508961508084848401016109c2565b60098801613c3d565b01016109c2565b600a8301613c3d565b60056150a45f614545565b9101613c3d565b565b9050615044565b50614f66878f6150ce6150c96150d492613447565b6104ad565b916104ad565b14159050614f5d565b90565b926150e96141eb565b506151125f61510c615107615100600889906108b1565b86906108c7565b613891565b01610950565b61512561511f6001610ca8565b91610ca8565b036152ea576151389284929091926181c4565b61514c6151476015839061266b565b613425565b906151585f83016109ee565b61517261516c6151675f613447565b6104ad565b916104ad565b1480156152c3575b6152bc576151944261518e600885016109c2565b90613bff565b6151a0600384016109ee565b6151bc6151b66151b15f87016109ee565b6104ad565b916104ad565b145f146152a5576151e16151db6151d5600986016109c2565b5b610520565b91610520565b1061529e576151f46151f9916014612124565b6150dd565b9161520f6152096002850161214e565b1561050e565b61523857505061523361522d61522860014294016109c2565b610520565b91610520565b101590565b615286925060036002615278615265600861525e6152596152809786614edc565b614ef2565b96016109c2565b6152725f848801016109c2565b90614561565b9301016109c2565b90614561565b6152996152934292610520565b91610520565b101590565b5050505f90565b6151e16151db6152b7600a86016109c2565b6151d6565b5050505f90565b506152d06004830161269b565b6152e36152dd60016104e9565b916104e9565b141561517a565b505050505f90565b6152fe615303916108dd565b610a01565b90565b61531090546152f2565b90565b61531c90611154565b90565b61532890611138565b90565b6153349061531f565b90565b61534090610433565b60ff811461534e5760010190565b613a3b565b61535c90611154565b90565b60e01b90565b9050519061537282610f6f565b565b90505190615381826131aa565b565b6003111561538d57565b5f80fd5b9050519061539e82615383565b565b90916060828403126153d5576153d26153bb845f8501615365565b936153c98160208601615374565b93604001615391565b90565b61042b565b6153e2610421565b3d5f823e3d90fd5b9190604083820312615412578061540661540f925f8601615365565b93602001615365565b90565b61042b565b9291906154226141eb565b5061545461544e61544961544261543b600a89906112a3565b85906112b9565b86906112cf565b615306565b1561050e565b6157c85761546c61546794929430615313565b61532b565b916154765f6137a9565b905b8161548b61548588610433565b91610433565b116155fb576154b86154b36154ac6154a5600b8590613080565b8690613096565b84906130ac565b613768565b956154c25f6137a9565b5b806154e06154da6154d55f8c016108fc565b610433565b91610433565b10156155e75761552960606154f98588889086926181c4565b61550289615353565b61551e6397556f67615512610421565b9586948593849361535f565b835260048301611961565b03915afa80156155e2575f80809390926155b0575b50909161555461554e60026104e9565b916104e9565b149081615595575b509081615584575b506155775761557290613ac6565b6154c3565b5050505050505050600190565b61558f91501561050e565b5f615564565b90506155a96155a38a6104ad565b916104ad565b145f61555c565b9150506155d4915060603d81116155db575b6155cc8183610b1f565b8101906153a0565b915f61553e565b503d6155c2565b6153da565b50916155f4919650615337565b9094615478565b905061562561561461560f60028490614edc565b614ef2565b9561561f60016138ec565b90613b00565b905b8161564561563f61563a60088a016108fc565b610433565b91610433565b10156157be5761567361566e615667615660600b8590613080565b8690613096565b84906130ac565b613768565b956156886156825f89016130d6565b1561050e565b6157b2576156955f6137a9565b5b806156b36156ad6156a85f8c016108fc565b610433565b91610433565b101561579d576156fc60406156cc8588889086926181c4565b6156d589615353565b6156f1631ec3b8ad6156e5610421565b9586948593849361535f565b835260048301611961565b03915afa8015615798575f80929091615767575b5061572361571d8a6104ad565b916104ad565b1490811561574c575b5061573f5761573a90613ac6565b615696565b5050505050505050600190565b905061576061575a896104ad565b916104ad565b145f61572c565b905061578a915060403d8111615791575b6157828183610b1f565b8101906153ea565b905f615710565b503d615778565b6153da565b50916157ab9196505b613ac6565b9094615627565b916157ab9196506157a6565b5050505050505f90565b505050505f90565b906157e49392916157df61821e565b615a3c565b6157ec618281565b565b67ffffffffffffffff81116158065760208091020190565b610b0b565b9061581d615818836157ee565b610b48565b918252565b369037565b9061584c6158348361580b565b9260208061584286936157ee565b9201910390615822565b565b600161585a9101610520565b90565b9061586782611a7d565b811015615878576020809102010190565b611182565b6158b26158b9946158a860609498979561589e608086019a5f870190610c8c565b6020850190610c8c565b6040830190610c8c565b0190610c8c565b565b5f7f4352000000000000000000000000000000000000000000000000000000000000910152565b6158ef6002602092612879565b6158f8816158bb565b0190565b6159119060208101905f8183039101526158e2565b90565b1561591b57565b615923610421565b62461bcd60e51b815280615939600482016158fc565b0390fd5b6159726159799461596860609498979561595e608086019a5f8701906107ff565b60208501906107a8565b6040830190610d01565b0190610ccd565b565b6040906159a46159ab949695939661599a60608401985f850190610c8c565b6020830190610c8c565b0190610c8c565b565b5f7f434f000000000000000000000000000000000000000000000000000000000000910152565b6159e16002602092612879565b6159ea816159ad565b0190565b615a039060208101905f8183039101526159d4565b90565b15615a0d57565b615a15610421565b62461bcd60e51b815280615a2b600482016159ee565b0390fd5b615a3990516104ad565b90565b909193615a65615a60615a5b615a5460098690611d22565b8690611d38565b611d4e565b615827565b94615a6f5f614545565b5b80615aa0615a9a615a95615a90615a8960098a90611d22565b8a90611d38565b611d4e565b610520565b91610520565b1015615af257615aed90615ae8615ad6615ad0615ac9615ac260098a90611d22565b8a90611d38565b8490611d5b565b90611d9b565b615ae38a9184909261585d565b613461565b61584e565b615a70565b50909193615b7e90615b735f807f000000000000000000000000000000000000000000000000000000000000000089615b5c8a91615b4d8a8990615b34610421565b958694600460208701631b3b1cf160e11b81520161587d565b60208201810382520382610b1f565b602081019051915af4615b6d613ce9565b50615914565b8590858491926181c4565b615b92615b8d6015839061266b565b613425565b90615b9e5f83016109ee565b615baa600184016109ee565b91335f90615c0d615bbf6005600498016109c2565b615bfb615bf5615bef7f9df5b4d746303d3796646c5fa6da5d7e660bde8b83369dadd626bb5fc1fcab1f97612118565b97611160565b97611160565b97615c04610421565b9485948561593d565b0390a4615c1c8484339161890b565b615c44615c3f615c38615c31600b8890613080565b8690613096565b83906130ac565b613768565b615c6b615c65615c605f615c59818601610923565b94016108fc565b610433565b91610433565b14615d28575b50615c96615c91615c8186611a7d565b615c8b6001613be3565b90614561565b615827565b91615ca05f614545565b5b80615cbc615cb6615cb189611a7d565b610520565b91610520565b1015615cf857615cf390615cee615cdc615cd789849061585d565b615a2f565b615ce9879184909261585d565b613461565b61584e565b615ca1565b5091909392615d1e615d2694615d1933615d128693611a7d565b909261585d565b613461565b919091618d4d565b565b5f80615da0927f000000000000000000000000000000000000000000000000000000000000000090615d8988615d7a8993615d61610421565b948593600460208601630ee272f360e31b81520161597b565b60208201810382520382610b1f565b602081019051915af4615d9a613ce9565b50615a06565b5f615c71565b90615db29392916157d0565b565b905090565b5f7f7265706c61790000000000000000000000000000000000000000000000000000910152565b615dec60068092615db4565b615df581615db9565b0190565b93615e366014615e449795615e2e6020615e3e97615e26828c615e1e829e899c61390b565b01809261390b565b018092614e4d565b018092614e4d565b018092614e65565b01615de0565b90565b600a615fb35f6002615f93615f8e615fba97615f3f615f30615e73615e6e60158c9061266b565b613425565b99615e82600160048d01614dd0565b615e8f4260078d01613c3d565b615e9c4260088d01613c3d565b615eb1615ea889614545565b60058d01613c3d565b615ebe8860048d01614e0f565b615ed2615eca89613447565b888d016146ed565b615f1844615f098d4294615ef36001615eec8f85016109ee565b93016109ee565b9091615efd610421565b96879560208701615df9565b60208201810382520382610b1f565b615f2a615f2482613994565b9161398e565b20613998565b615f3986614ec0565b906139c8565b615f51615f4b87614545565b91610520565b148514615fbc57615f70615f66868a016109ee565b5b60038a016146ed565b615f88615f7f60038a016109ee565b60048a016146ed565b83614edc565b614ef2565b615fac615fa384848401016109c2565b60098801613c3d565b01016109c2565b9101613c3d565b565b615f70615fcb60018a016109ee565b615f67565b90615fe291615fdd61821e565b6160f0565b615fea618281565b565b5f7f4341450000000000000000000000000000000000000000000000000000000000910152565b6160206003602092612879565b61602981615fec565b0190565b6160429060208101905f818303910152616013565b90565b1561604c57565b616054610421565b62461bcd60e51b81528061606a6004820161602d565b0390fd5b5f7f5254000000000000000000000000000000000000000000000000000000000000910152565b6160a26002602092612879565b6160ab8161606e565b0190565b6160c49060208101905f818303910152616095565b90565b156160ce57565b6160d6610421565b62461bcd60e51b8152806160ec600482016160af565b0390fd5b5f80916161dc9361616d83807f000000000000000000000000000000000000000000000000000000000000000085616156869161614761612e610421565b938492600460208501633864cd6b60e01b81520161120f565b60208201810382520382610b1f565b602081019051915af4616167613ce9565b50616045565b6161c57f0000000000000000000000000000000000000000000000000000000000000000926161b661619d610421565b9384926004602085016357f7cf7160e01b81520161120f565b60208201810382520382610b1f565b602081019051915af46161d6613ce9565b506160c7565b565b906161e891615fd0565b565b6161f66161fc91610433565b91610433565b908115616207570490565b6138b3565b5f61623861623361624e9461622e61623e95616226614c31565b5060086108b1565b6108c7565b613891565b0161099e565b6162486002613897565b906161ea565b90565b9061626593929161626061821e565b6162f1565b61626d618281565b565b5f7f4645000000000000000000000000000000000000000000000000000000000000910152565b6162a36002602092612879565b6162ac8161626f565b0190565b6162c59060208101905f818303910152616296565b90565b156162cf57565b6162d7610421565b62461bcd60e51b8152806162ed600482016162b0565b0390fd5b9091929361631b61631661631161630a60098690611d22565b8690611d38565b611d4e565b615827565b936163255f614545565b5b8061635661635061634b61634661633f60098a90611d22565b8a90611d38565b611d4e565b610520565b91610520565b10156163a8576163a39061639e61638c61638661637f61637860098a90611d22565b8a90611d38565b8490611d5b565b90611d9b565b616399899184909261585d565b613461565b61584e565b616326565b506164376165279593929661642c5f807f0000000000000000000000000000000000000000000000000000000000000000876164158b916164068a89906163ed610421565b958694600460208701634d9d161160e01b81520161587d565b60208201810382520382610b1f565b602081019051915af4616426613ce9565b506162c8565b8390868491926181c4565b61644b6164466015839061266b565b613425565b906164575f83016109ee565b616463600184016109ee565b91335f906164c66164786005600398016109c2565b6164b46164ae6164a87f9df5b4d746303d3796646c5fa6da5d7e660bde8b83369dadd626bb5fc1fcab1f97612118565b97611160565b97611160565b976164bd610421565b9485948561593d565b0390a46164f16164ec6164e56164de600b8690613080565b8790613096565b83906130ac565b613768565b61651861651261650d5f616506818601610923565b94016108fc565b610433565b91610433565b14616529575b50919091618d4d565b565b5f806165a1927f00000000000000000000000000000000000000000000000000000000000000009061658a8661657b8a93616562610421565b948593600460208601630ee272f360e31b81520161597b565b60208201810382520382610b1f565b602081019051915af461659b613ce9565b50615a06565b5f61651e565b906165b3939291616251565b565b5f90565b90565b6165d06165cb6165d5926165b9565b610892565b610520565b90565b6165e06165b5565b506165eb600f6165bc565b90565b906166029392916165fd61821e565b6167c4565b61660a618281565b565b5f7f4f54000000000000000000000000000000000000000000000000000000000000910152565b6166406002602092612879565b6166498161660c565b0190565b6166629060208101905f818303910152616633565b90565b1561666c57565b616674610421565b62461bcd60e51b81528061668a6004820161664d565b0390fd5b5f7f544f000000000000000000000000000000000000000000000000000000000000910152565b6166c26002602092612879565b6166cb8161668e565b0190565b6166e49060208101905f8183039101526166b5565b90565b156166ee57565b6166f6610421565b62461bcd60e51b81528061670c600482016166cf565b0390fd5b604090616739616740949695939661672f60608401985f850190611954565b6020830190610c8c565b0190610ccd565b565b5f7f4d53000000000000000000000000000000000000000000000000000000000000910152565b6167766002602092612879565b61677f81616742565b0190565b6167989060208101905f818303910152616769565b90565b156167a257565b6167aa610421565b62461bcd60e51b8152806167c060048201616783565b0390fd5b92616960939291926169515f806167df8488889088926181c4565b6168df6167f66167f16015849061266b565b613425565b61681e6168056004830161269b565b61681861681260016104e9565b916104e9565b14614418565b3361683b6168356168308785016109ee565b6104ad565b916104ad565b148015616973575b61684c9061449a565b6168743361686d616867616862600386016109ee565b6104ad565b916104ad565b1415616665565b6168d86168d26168904261688a600886016109c2565b90613bff565b9261689d600382016109ee565b6168b96168b36168ae8a85016109ee565b6104ad565b916104ad565b1487146169625760096168cc91016109c2565b5b610520565b91610520565b10156166e7565b7f00000000000000000000000000000000000000000000000000000000000000009061693a869161692b42616912610421565b94859360046020860163501fd27160e11b815201616710565b60208201810382520382610b1f565b602081019051915af461694b613ce9565b5061679b565b92919033915f93600195618625565b565b600a61696e91016109c2565b6168cd565b5061684c3361699561698f61698a600186016109ee565b6104ad565b916104ad565b149050616843565b906169a99392916165ee565b565b5f90565b6169f8916169ee6169f3926169c26169ab565b506169cb614c31565b506169d4614c31565b506169dd6165b5565b506169e66142ae565b5060086108b1565b6108c7565b613891565b90616a045f8301610950565b91616a105f8201610977565b92616a1c5f830161099e565b92616a356003616a2e600186016109c2565b94016109ee565b919493929190565b606090565b67ffffffffffffffff8111616a5a5760208091020190565b610b0b565b90616a71616a6c83616a42565b610b48565b918252565b616a81610120610b48565b90565b606090565b606090565b616a96616a76565b90602080808080808080808a616aaa6132fa565b815201616ab5613306565b815201616ac0613306565b815201616acb616a84565b815201616ad6616a89565b815201616ae16132fa565b815201616aec613306565b815201616af7613306565b815201616b02613306565b81525050565b616b10616a8e565b90565b5f5b828110616b2157505050565b602090616b2c616b08565b8184015201616b15565b90616b5b616b4383616a5f565b92602080616b518693616a42565b9201910390616b13565b565b616b6690610520565b5f198114616b745760010190565b613a3b565b90616b8382611a6a565b811015616b94576020809102010190565b611182565b616ba390546109da565b90565b60010190565b90616bc9616bc3616bbc84611d4e565b8093611a81565b92611d52565b905f5b818110616bd95750505090565b909192616bf9616bf3600192616bee87616b99565b611a90565b94616ba6565b9101919091616bcc565b90616c0d91616bac565b90565b90616c30616c2992616c20610421565b93848092616c03565b0383610b1f565b565b52565b5490565b5f5260205f2090565b616c4c90546109ae565b90565b60010190565b90616c72616c6c616c6584616c35565b8093611afb565b92616c39565b905f5b818110616c825750505090565b909192616ca2616c9c600192616c9787616c42565b611b0a565b94616c4f565b9101919091616c75565b90616cb691616c55565b90565b90616cd9616cd292616cc9610421565b93848092616cac565b0383610b1f565b565b52565b90616dbe616db46008616cef616a76565b94616d06616cfe5f83016109ee565b5f8801613461565b616d1e616d15600183016109c2565b60208801610aa3565b616d36616d2d600283016109c2565b60408801610aa3565b616d4e616d4560038301616c10565b60608801616c32565b616d66616d5d60048301616cb9565b60808801616cdb565b616d7e616d75600583016109ee565b60a08801613461565b616d96616d8d600683016109c2565b60c08801610aa3565b616dae616da5600783016109c2565b60e08801610aa3565b016109c2565b6101008401610aa3565b565b616dc990616cde565b90565b616dd4616a3d565b50616ddf60046109c2565b90616de982616b36565b90616df46001613be3565b5b80616e08616e0286610520565b91610520565b11616e5a57616e5590616e4e616e20600783906114f1565b85616e3e616e3885616e326001613be3565b90613bff565b92616dc0565b616e488383616b79565b52616b79565b5150616b5d565b616df5565b50915090565b606090565b67ffffffffffffffff8111616e7d5760208091020190565b610b0b565b90616e94616e8f83616e65565b610b48565b918252565b616ea36040610b48565b90565b5f90565b616eb2616e99565b9060208083616ebf6132fa565b815201616eca616ea6565b81525050565b616ed8616eaa565b90565b5f5b828110616ee957505050565b602090616ef4616ed0565b8184015201616edd565b90616f23616f0b83616e82565b92602080616f198693616e65565b9201910390616edb565b565b616f31616f36916108dd565b611e51565b90565b616f439054616f25565b90565b616f506040610b48565b90565b90616f5d90611e93565b9052565b90616f6b82611f57565b811015616f7c576020809102010190565b611182565b616f89616e60565b50616f9c616f976012611d4e565b616efe565b616fa55f614545565b5b80616fc2616fbc616fb76012611d4e565b610520565b91610520565b101561704b576170469061703f616fe4616fde60128490611d5b565b90611d9b565b61702c61700f61700a6011617004616ffe60128990611d5b565b90611d9b565b90611e3b565b616f39565b61702361701a616f46565b935f8501613461565b60208301616f53565b8483916170398383616f61565b52616f61565b515061584e565b616fa6565b5090565b6170576141eb565b5061706b617064826142b2565b509161744f565b9150509061708961708361707e5f613447565b6104ad565b916104ad565b14159081617096575b5090565b90506170ab6170a560026104e9565b916104e9565b14155f617092565b90565b6170ca6170c56170cf926170b3565b610892565b610520565b90565b6170e16170e791939293610520565b92610520565b916170f3838202610520565b92818404149015171561710257565b613a3b565b90565b61711e61711961712392617107565b610892565b610520565b90565b61713261713891610520565b91610520565b908115617143570490565b6138b3565b90565b61715f61715a61716492617148565b610892565b610520565b90565b90565b61717e61717961718392617167565b610892565b610520565b90565b61718e6165b5565b506171976141eb565b506171a06165b5565b506171a96165b5565b506171b26165b5565b506171bb6165b5565b506171c46165b5565b506171cd6165b5565b506171d66165b5565b506171e160046109c2565b906171ec60036109c2565b6171f46191af565b61721b61720b8261720560056170b6565b906170d2565b617215606461710a565b90617126565b8261722e61722884610520565b91610520565b10159361723c838390613bff565b906172646172548361724e60056170b6565b906170d2565b61725e605f61714b565b90617126565b9061728c61727c84617276605a61716a565b906170d2565b617286605f61714b565b90617126565b90617295619264565b90565b5f90565b6172a4617298565b506172b96172b460113390611e3b565b616f39565b90565b6172c46141eb565b506172d96172d460028390614edc565b614ef2565b6172ee6172e86008830161214e565b1561050e565b9081156173d6575b506173d05761731961731461730d600884906108b1565b84906108c7565b613891565b916173255f8401610950565b6173376173315f610ca8565b91610ca8565b14806173ab575b918261737c575b50509081617352575b5090565b905061737461736e6173695f6004429501016109c2565b610520565b91610520565b10155f61734e565b6173a4925061739f9161739361739892600a6112a3565b6112b9565b33906112cf565b615306565b5f80617345565b506173b75f840161099e565b6173ca6173c460016138ec565b91610433565b1461733e565b50505f90565b90506173f56173ef6173ea5f869401610923565b610433565b91610433565b10155f6172f6565b61740b61741091601561266b565b613425565b9061742361741d5f6137a9565b91610433565b145f14617439575f6174369291016146ed565b5b565b60016174469291016146ed565b617437565b5f90565b61747861747d9161745e6142ae565b506174676141eb565b5061747061744b565b50601561266b565b613425565b9061748a600283016109ee565b906174a2600461749b818601610a42565b940161269b565b91929190565b906174ba916174b561821e565b617546565b6174c2618281565b565b5f7f5257000000000000000000000000000000000000000000000000000000000000910152565b6174f86002602092612879565b617501816174c4565b0190565b61751a9060208101905f8183039101526174eb565b90565b1561752457565b61752c610421565b62461bcd60e51b81528061754260048201617505565b0390fd5b5f80916175bc936175a57f00000000000000000000000000000000000000000000000000000000000000009261759661757d610421565b938492600460208501632663212d60e21b81520161120f565b60208201810382520382610b1f565b602081019051915af46175b6613ce9565b5061751d565b565b906175c8916174a8565b565b606090565b67ffffffffffffffff81116175e75760208091020190565b610b0b565b906175fe6175f9836175cf565b610b48565b918252565b61760d6040610b48565b90565b9061764661763d5f617620617603565b9461763761762f8383016108fc565b83880161348b565b01610923565b6020840161348b565b565b61765190617610565b90565b9061765e82611196565b617667816175ec565b92617675602085019161119a565b5f915b8383106176855750505050565b60016020819261769485617648565b815201920192019190617678565b6176ab90617654565b90565b6176c56176ca916176bd6175ca565b50601661116c565b6176a2565b90565b6176e46176e9916176dc6175ca565b50601861116c565b6176a2565b90565b6177026176fd6177ea92601561266b565b613425565b61771661770e5f613447565b5f83016146ed565b61772b6177225f613447565b600183016146ed565b6177406177375f613447565b600283016146ed565b61775561774c5f613447565b600383016146ed565b61776a6177615f613447565b600483016146ed565b6177775f60048301614dd0565b6177845f60048301614e0f565b6177996177905f614545565b60058301613c3d565b6177ae6177a55f614545565b60078301613c3d565b6177c36177ba5f614545565b60088301613c3d565b6177d86177cf5f614545565b60098301613c3d565b600a6177e35f614545565b9101613c3d565b565b6177f461330e565b90565b617811617816919592956178096177ec565b50601561266b565b613425565b926178205f613447565b9261783661783060048701610a42565b1561050e565b806179c0575b61796c575b845f0161784d906109ee565b958560010161785b906109ee565b9580600201617869906109ee565b95816004016178779061269b565b8260040161788490610a42565b9183600701617892906109c2565b9360080161789f906109c2565b94959697985f9a6178ae613453565b9c5f8e01906178bc91613461565b60208d01906178ca91613461565b60408c01906178d891613461565b60608b01906178e691613461565b60808a01906178f49161346f565b60a08901906179029161347d565b60c088019061791091610aa3565b60e087019061791e91610aa3565b61010086019061792d9161348b565b61012085019061793c9161348b565b61014084019061794b9161348b565b61016083019061795a9161348b565b6101808201906179699161347d565b90565b925061797a600285016109ee565b61799661799061798b5f88016109ee565b6104ad565b916104ad565b145f146179b0576179a9600185016109ee565b5b92617841565b6179bb5f85016109ee565b6179aa565b506179cd600286016109ee565b6179e76179e16179dc5f613447565b6104ad565b916104ad565b141561783c565b5f7f4500000000000000000000000000000000000000000000000000000000000000910152565b617a226001602092612879565b617a2b816179ee565b0190565b617a449060208101905f818303910152617a15565b90565b15617a4e57565b617a56610421565b62461bcd60e51b815280617a6c60048201617a2f565b0390fd5b90617a8f617a8a617a83600885906108b1565b83906108c7565b613891565b617a9a5f8201610950565b617b105f807f000000000000000000000000000000000000000000000000000000000000000087617af98891617aea617ad1610421565b93849260046020850163e6c455f560e01b81520161120f565b60208201810382520382610b1f565b602081019051915af4617b0a613ce9565b50617a47565b617b1c848433916194c2565b617b2e617b285f610ca8565b91610ca8565b149081617b66575b50617b40575b5050565b81617b4f617b5f9383906194d1565b90617b595f6137a9565b91613d94565b5f80617b3c565b617b7291505f01610950565b617b85617b7f6001610ca8565b91610ca8565b145f617b36565b5f7f4653000000000000000000000000000000000000000000000000000000000000910152565b617bc06002602092612879565b617bc981617b8c565b0190565b617be29060208101905f818303910152617bb3565b90565b15617bec57565b617bf4610421565b62461bcd60e51b815280617c0a60048201617bcd565b0390fd5b90617c2d617c28617c21600885906108b1565b83906108c7565b613891565b91617c395f8401610950565b617caf5f807f000000000000000000000000000000000000000000000000000000000000000085617c988891617c89617c70610421565b93849260046020850163ea2b1d7360e01b81520161120f565b60208201810382520382610b1f565b602081019051915af4617ca9613ce9565b50617be5565b80617cc2617cbc5f610ca8565b91610ca8565b1480617dfe575b617dda575b617ce0617cda5f610ca8565b91610ca8565b1480617db5575b617cf1575b505050565b617d006003617dad94016109ee565b90617d2f617d16617d116001613be3565b615827565b92617d2a84617d245f614545565b9061585d565b613461565b617da55f807f000000000000000000000000000000000000000000000000000000000000000084617d8e8891617d7f617d66610421565b9384926004602085016357f7cf7160e01b81520161120f565b60208201810382520382610b1f565b602081019051915af4617d9f613ce9565b506160c7565b91909161955c565b5f8080617cec565b50617dc15f8401610950565b617dd4617dce6002610ca8565b91610ca8565b14617ce7565b617de58284906194d1565b617df98284617df35f6137a9565b91613d94565b617cce565b50617e0a5f8501610950565b617e1d617e176001610ca8565b91610ca8565b14617cc9565b92617e2c6141eb565b50617e555f617e4f617e4a617e43600889906108b1565b86906108c7565b613891565b01610950565b617e68617e626001610ca8565b91610ca8565b0361802b57617e7b9284929091926181c4565b617e8f617e8a6015839061266b565b613425565b90617e9b5f83016109ee565b617eb5617eaf617eaa5f613447565b6104ad565b916104ad565b148015618004575b617ffd57617ed742617ed1600885016109c2565b90613bff565b617ee3600384016109ee565b617eff617ef9617ef45f87016109ee565b6104ad565b916104ad565b145f14617fe657617f24617f1e617f18600986016109c2565b5b610520565b91610520565b10617fdf57617f37617f3c916014612124565b6150dd565b91617f52617f4c6002850161214e565b1561050e565b617f7a575050617f75617f6f617f6a5f4294016109c2565b610520565b91610520565b101590565b617fc79250600280617fb9617fa66008617f9f617f9a617fc19786614edc565b614ef2565b96016109c2565b617fb35f848801016109c2565b90614561565b9301016109c2565b90614561565b617fda617fd44292610520565b91610520565b101590565b5050505f90565b617f24617f1e617ff8600a86016109c2565b617f19565b5050505f90565b506180116004830161269b565b61802461801e60016104e9565b916104e9565b1415617ebd565b505050505f90565b61806d9261806661804f61804a600494601561266b565b613425565b9361805d6002858701614dd0565b600285016146ed565b9101614e0f565b565b61807761821e565b61807f61810b565b618087618281565b565b5f7f4552000000000000000000000000000000000000000000000000000000000000910152565b6180bd6002602092612879565b6180c681618089565b0190565b6180df9060208101905f8183039101526180b0565b90565b156180e957565b6180f1610421565b62461bcd60e51b815280618107600482016180ca565b0390fd5b61817c5f807f0000000000000000000000000000000000000000000000000000000000000000618139610421565b61816581618156600460208301630f878ebf60e41b81520161072b565b60208201810382520382610b1f565b602081019051915af4618176613ce9565b506180e2565b565b61818661806f565b565b5f90565b926181b860016181c0946181b082886181a8829b9a8399613932565b018092613932565b018092613932565b018092613932565b0190565b6181fb92936181ec916181d5618188565b5092946181e0610421565b9586946020860161818c565b60208201810382520382610b1f565b61820d61820782613994565b9161398e565b2090565b61821b6002614ec0565b90565b6182275f6109c2565b61824061823a618235618211565b610520565b91610520565b1461825857618256618250618211565b5f613c3d565b565b5f633ee5aeb560e01b8152806182706004820161072b565b0390fd5b61827e6001613be3565b90565b61829261828c618274565b5f613c3d565b565b906182b36182b8926182a4614c31565b506182ad614330565b90613ad5565b613b00565b90565b6182da906182d46182ce6182df94610433565b91610520565b906112e5565b610520565b90565b90565b6182f96182f46182fe926182e2565b610892565b610520565b90565b61833c9161832661832c92618314614c31565b50916183206002613897565b90613ad5565b906182bb565b61833660036182e5565b166139ea565b90565b61835e9061835861835261836394610433565b91610520565b90613a73565b610520565b90565b906183c26183b16183c8936183796165b5565b506183aa6183a461838a60036182e5565b61839e876183986002613897565b90613ad5565b9061833f565b19610520565b16946139ac565b916183bc6002613897565b90613ad5565b9061833f565b1790565b5f0b90565b6183e56183e06183ea92613428565b610892565b6183cc565b90565b6184016183fc618406926138e9565b610892565b6183cc565b90565b90565b61842061841b61842592618409565b610892565b6183cc565b90565b929190916184346141eb565b5061845984848484905f9261845361844d6001956183d1565b946183ed565b94619691565b6184f057618481848484849060019261847b6184755f956183ed565b946183d1565b94619691565b6184e7576184aa84848484906001926184a461849e6001956183ed565b946183ed565b94619691565b6184de576184d19392916001926184cb6184c55f19956183ed565b9461840c565b94619691565b6184d9575f90565b600190565b50505050600190565b50505050600190565b50505050600190565b9061850e61850961851592613820565b61382c565b82546137cb565b9055565b61852290610ae7565b90565b90565b9061853d61853861854492618519565b618525565b8254613770565b9055565b919461859061859a9298979561858660a09661857c6185a19a61857260c08a019e5f8b0190610c8c565b6020890190610c8c565b6040870190610c8c565b6060850190610c8c565b60808301906107ff565b01906107a8565b565b5f7f434d000000000000000000000000000000000000000000000000000000000000910152565b6185d76002602092612879565b6185e0816185a3565b0190565b6185f99060208101905f8183039101526185ca565b90565b1561860357565b61860b610421565b62461bcd60e51b815280618621600482016185e4565b0390fd5b93819793969291958587848a9161863b936181c4565b938688858b8691869361864d95619861565b60148561865991612124565b618662906150dd565b5f8160020190618671916184f9565b5f61867b90614545565b815f019061868891613c3d565b5f61869290614545565b81600101906186a091613c3d565b5f90600201906186af91618528565b6009876186bb91611d22565b886186c591611d38565b6186ce90611d4e565b6186d790615827565b98875f6186e390614545565b9b61870e6187096187048f936186ff618714955b966009611d22565b611d38565b611d4e565b610520565b91610520565b101561877d57878a9b61875b8b9c61875661874e6187488f6187419061873c60098a90611d22565b611d38565b8690611d5b565b90611d9b565b84909261585d565b613461565b6187649061584e565b9b9a61870e6187096187048f936186ff618714956186f7565b87969a5061881c929161880b5f8061882c9d9b896187f48f6187e5618816998d7f0000000000000000000000000000000000000000000000000000000000000000969395918d926187cc610421565b978896600460208901633df1d83160e01b815201618548565b60208201810382520382610b1f565b602081019051915af4618805613ce9565b506185fc565b8690858491926198ac565b1561050e565b61882e575b505050919091618d4d565b565b61883a618860936142b2565b9161884d618847836104ad565b916104ad565b145f1461886857505b9083869192619943565b5f8080618821565b9050618856565b90565b61888661888161888b9261886f565b610892565b610433565b90565b618898602a618872565b90565b6188a36141eb565b506188ad5f6137a9565b5b806188c86188c26188bd61888e565b610433565b91610433565b1015618904576188d9828290618301565b6188eb6188e55f6137a9565b91610433565b146188fe576188f990613ac6565b6188ae565b50505f90565b5050600190565b9061891892919091619a73565b565b606090565b606090565b61892f5f8092612879565b0190565b90916189729361895b6189659261895160808601965f870190610c8c565b6020850190610c8c565b6040830190610ccd565b6060818303910152618924565b90565b5f7f4450000000000000000000000000000000000000000000000000000000000000910152565b6189a96002602092612879565b6189b281618975565b0190565b6189cb9060208101905f81830391015261899c565b90565b156189d557565b6189dd610421565b62461bcd60e51b8152806189f3600482016189b6565b0390fd5b5f80fd5b5f80fd5b90929192618a14618a0f826157ee565b610b48565b9381855260208086019202830192818411618a5157915b838310618a385750505050565b60208091618a468486615365565b815201920191618a2b565b6189fb565b9080601f83011215618a7457816020618a71935191016189ff565b90565b6189f7565b67ffffffffffffffff8111618a915760208091020190565b610b0b565b90505190618aa3826110e8565b565b90929192618aba618ab582618a79565b610b48565b9381855260208086019202830192818411618af757915b838310618ade5750505050565b60208091618aec8486618a96565b815201920191618ad1565b6189fb565b9080601f83011215618b1a57816020618b1793519101618aa5565b90565b6189f7565b919091604081840312618b77575f81015167ffffffffffffffff8111618b725783618b4b918301618a56565b92602082015167ffffffffffffffff8111618b6d57618b6a9201618afc565b90565b61042f565b61042f565b61042b565b60209181520190565b90618ba2618b9c618b9584611a7d565b8093618b7c565b92611a8a565b905f5b818110618bb25750505090565b909192618bcb618bc56001928651611a90565b94611aa1565b9101919091618ba5565b91618c1991618c269594618c01618c0e93618bf760a08801945f890190610c8c565b6020870190610c8c565b8482036040860152618b85565b926060830190610ccd565b6080818303910152618924565b90565b90618c3382611af7565b811015618c44576020809102010190565b611182565b618c539051610520565b90565b604090618c7f618c869496959396618c7560608401985f850190610c8c565b6020830190610c8c565b01906107ff565b565b5f7f5545000000000000000000000000000000000000000000000000000000000000910152565b618cbc6002602092612879565b618cc581618c88565b0190565b618cde9060208101905f818303910152618caf565b90565b15618ce857565b618cf0610421565b62461bcd60e51b815280618d0660048201618cc9565b0390fd5b9092618d3d90618d33618d4a9694618d2960808601975f8701906107ff565b6020850190610ccd565b6040830190610d01565b6060818403910152618b85565b90565b618d6b618d66618d5f600884906108b1565b84906108c7565b613891565b91618d775f8401610950565b618d8a618d846002610ca8565b91610ca8565b14158015619146575b61914057618da3600384016109ee565b93618db0600185016109c2565b618db861891a565b50618dc161891f565b50618dce60038601610a42565b5f146190a7575f80618e66927f000000000000000000000000000000000000000000000000000000000000000090618e3688618e27899389618e0e610421565b958694600460208701631f16ed5760e31b815201618bd5565b60208201810382520382610b1f565b602081019051915af4618e50618e4a613ce9565b916189ce565b6020618e5b82613994565b818301019101618b1f565b9390945b618e735f614545565b5b80618e8f618e89618e848a611a7d565b610520565b91610520565b1015618f1e57618f1990618ea230615313565b618eb5618eb08a849061585d565b615a2f565b618ec8618ec38a8590618c29565b618c49565b91618f11618eff618ef97fddf252ad1be2c89b69c2b068fc378daa952ba7f163c4a11628f55a4df523b3ef93611160565b93611160565b93618f08610421565b91829182611808565b0390a361584e565b618e74565b509193509193506190a594618fa05f807f000000000000000000000000000000000000000000000000000000000000000086618f898a91618f7a88618f61610421565b94859360046020860163344dfa1b60e11b815201618c56565b60208201810382520382610b1f565b602081019051915af4618f9a613ce9565b50618ce1565b618fc8618fc3618fbc618fb5600f8790612b29565b8890612b3f565b8390612b55565b6109c2565b918390618fda60038894959201610a96565b936190248761901261900c7f3d4eb684a5f3e9917f4c91b1791efa1b0b8a8c95d62aac47b64fbabbfe57fae996610895565b96610895565b9661901b610421565b94859485618d0a565b0390a361909d5f807f000000000000000000000000000000000000000000000000000000000000000084619086889161907761905e610421565b9384926004602085016357f7cf7160e01b81520161120f565b60208201810382520382610b1f565b602081019051915af4619097613ce9565b506160c7565b91909161955c565b565b5f80619138927f000000000000000000000000000000000000000000000000000000000000000090619108886190f989936190e0610421565b948593600460208601638421af8560e01b815201618933565b60208201810382520382610b1f565b602081019051915af461912261911c613ce9565b916189ce565b602061912d82613994565b818301019101618b1f565b939094618e6a565b50505050565b5061915084611a7d565b61916261915c5f614545565b91610520565b14618d93565b90565b61917f61917a61918492619168565b610892565b610520565b90565b61919081616c35565b8210156191aa576191a2600191616c39565b910201905f90565b611182565b6191b76165b5565b506191c26005616c35565b6191d46191ce5f614545565b91610520565b14619231576191e360046109c2565b6191fe6191f86191f36005616c35565b610520565b91610520565b106192105761920d60066109c2565b90565b61922e619228600561922260046109c2565b90619187565b90611f05565b90565b6192426729a2241af62c000061916b565b90565b90565b61925c61925761926192619245565b610892565b610520565b90565b61926c6165b5565b5061928061927b6103e8619248565b615827565b9061928a5f614545565b916192945f6137a9565b5b806192b16192ab6192a660016108fc565b610433565b91610433565b10156194be576192cb6192c660028390614edc565b614ef2565b926192d55f6137a9565b5b806192f36192ed6192e85f8901610923565b610433565b91610433565b10156194ad5761931761931261930b600886906108b1565b83906108c7565b613891565b6193225f8201610950565b61933461932e5f610ca8565b91610ca8565b14908115619487575b50619351575b61934c90613ac6565b6192d6565b61937361936e6193676009989594988590611d22565b8390611d38565b61388e565b9061937d5f614545565b955b8661939a61939461938f86613a06565b610520565b91610520565b1015619475576193b46193ae848990613a13565b90611d9b565b935f986193c05f614545565b5b806193d46193ce8a610520565b91610520565b1015619466576193ed6193e88a839061585d565b615a2f565b6193ff6193f9896104ad565b916104ad565b146194125761940d9061584e565b6193c1565b5097919490985061942560015b1561050e565b61943c575b506194349061584e565b95969261937f565b619434919561945a61945f926194558a9184909261585d565b613461565b616b5d565b949061942a565b5097919490986194259061941f565b955061934c9150959192959050619343565b61949391505f01610950565b6194a66194a06001610ca8565b91610ca8565b145f61933d565b5092506194b990613ac6565b619295565b5050565b906194cf92919091619b32565b565b91906194f16194ec6194e560098690611d22565b8390611d38565b61388e565b6194fa5f614545565b5b8061951661951061950b85613a06565b610520565b91610520565b1015619555576195509061954b619537619531858490613a13565b90611d9b565b61954381898891619c88565b878691619a73565b61584e565b6194fb565b5050509050565b92916195675f614545565b5b8061958361957d61957885611a7d565b610520565b91610520565b10156195d3576195ce906195ab6195a361959e85849061585d565b615a2f565b878691619c88565b6195c96195c16195bc85849061585d565b615a2f565b878691619df0565b61584e565b619568565b5050509050565b6195ee6195e96195f392610433565b610892565b6183cc565b90565b619602619608916183cc565b916183cc565b0190607f198212607f83131761961a57565b613a3b565b61963361962e619638926183cc565b610892565b610433565b90565b90565b61965261964d6196579261963b565b610892565b610433565b90565b619664600461963e565b90565b619673619679916183cc565b916183cc565b900390607f8213607f1983121761968c57565b613a3b565b90959194939261969f6141eb565b506196aa60016138ec565b966196be6196b7886195da565b86906195f6565b926196d26196cb846195da565b88906195f6565b985b6196df858b90619f58565b80619822575b15619740576196f390615337565b938461970e61970861970361965a565b610433565b91610433565b10156197315761972261972a9188906195f6565b9988906195f6565b98936196d4565b50505050509350505050600190565b98509192509561976561975f61975861976c936195da565b8790619667565b936195da565b8690619667565b965b619779838990619f58565b806197e4575b156197d85761978d90615337565b91826197a86197a261979d61965a565b610433565b91610433565b10156197cb576197bc6197c4918690619667565b978690619667565b969161976e565b5050509350505050600190565b50505093505050505f90565b5061980a826198046197f58661961f565b6197fe8c61961f565b90618294565b90618301565b61981c61981689610433565b91610433565b1461977f565b50619849826198438c61983d6198378a61961f565b9161961f565b90618294565b90618301565b61985b61985585610433565b91610433565b146196e5565b6198876198806198a3936004966198aa999661988c95929091926181c4565b601561266b565b613425565b9361989a6002858701614dd0565b600285016146ed565b9101614e0f565b565b929190916198c46198bf6015869061266b565b613425565b93906198d15f86016109ee565b9261993e6198f060056198e660018a016109ee565b97939498016109c2565b61992c6199266199207f9df5b4d746303d3796646c5fa6da5d7e660bde8b83369dadd626bb5fc1fcab1f97612118565b97611160565b97611160565b97619935610421565b9485948561593d565b0390a4565b61994d9350619df0565b565b9061995990611160565b5f5260205260405f2090565b9061996f90610895565b5f5260205260405f2090565b9061998590610895565b5f5260205260405f2090565b90565b61999e6040610b48565b90565b5f5260205f2090565b5490565b6199b7816199aa565b8210156199d1576199c96001916199a1565b910201905f90565b611182565b634e487b7160e01b5f525f60045260245ffd5b6199f39051610433565b90565b90619a2060205f619a2694619a18828201619a128488016199e9565b90613789565b0192016199e9565b906137e2565b565b9190619a3957619a37916199f6565b565b6199d6565b9081549168010000000000000000831015619a6e5782619a66916001619a6c950181556199ae565b90619a28565b565b610b0b565b90619a9c619a97619a90619a896019869061994f565b8490619965565b859061997b565b6109c2565b619aae619aa85f614545565b91610520565b03619b2d57619b2b92619b21619b2692619afd619ad5619ad06018889061116c565b619991565b8290619af886619aef619ae6619994565b945f860161348b565b6020840161348b565b619a3e565b619b1c619b14619b0f6018889061116c565b611196565b95601961994f565b619965565b61997b565b613c3d565b565b505050565b90619b5b619b56619b4f619b486017869061994f565b8490619965565b859061997b565b6109c2565b619b6d619b675f614545565b91610520565b03619bec57619bea92619be0619be592619bbc619b94619b8f6016889061116c565b619991565b8290619bb786619bae619ba5619994565b945f860161348b565b6020840161348b565b619a3e565b619bdb619bd3619bce6016889061116c565b611196565b95601761994f565b619965565b61997b565b613c3d565b565b505050565b634e487b7160e01b5f52603160045260245ffd5b5f80910155565b905f03619c1e57619c1c90619c05565b565b6199d6565b619c2c816199aa565b8015619c4d576001900390619c4a619c4483836199ae565b90619c0c565b55565b619bf1565b9190619c68619c63619c70936114d5565b613c3a565b908354613b5b565b9055565b619c8691619c806165b5565b91619c52565b565b91619cb1619cac619ca5619c9e6017879061994f565b8590619965565b839061997b565b6109c2565b9081619cc5619cbf5f614545565b91610520565b14619dea57619d595f93619d54619d639685619cee619d5e97619ce86001613be3565b90613bff565b619d15619d05619d006016869061116c565b611196565b619d0f6001613be3565b90613bff565b81619d28619d2283610520565b91610520565b03619d65575b505050619d4d619d48619d436016849061116c565b619991565b619c23565b601761994f565b619965565b61997b565b619c74565b565b619de292619daa619d8d619d87619ddd94619d8260168a9061116c565b6111a3565b50617648565b93619da48591619d9f60168a9061116c565b6111a3565b90619a28565b91619dd76020619dd0619dbf6017899061994f565b619dca8f86016199e9565b90619965565b92016199e9565b9061997b565b613c3d565b5f8080619d2e565b50505050565b91619e19619e14619e0d619e066019879061994f565b8590619965565b839061997b565b6109c2565b9081619e2d619e275f614545565b91610520565b14619f5257619ec15f93619ebc619ecb9685619e56619ec697619e506001613be3565b90613bff565b619e7d619e6d619e686018869061116c565b611196565b619e776001613be3565b90613bff565b81619e90619e8a83610520565b91610520565b03619ecd575b505050619eb5619eb0619eab6018849061116c565b619991565b619c23565b601961994f565b619965565b61997b565b619c74565b565b619f4a92619f12619ef5619eef619f4594619eea60188a9061116c565b6111a3565b50617648565b93619f0c8591619f0760188a9061116c565b6111a3565b90619a28565b91619f3f6020619f38619f276019899061994f565b619f328f86016199e9565b90619965565b92016199e9565b9061997b565b613c3d565b5f8080619e96565b50505050565b619f606141eb565b5080619f74619f6e5f6183d1565b916183cc565b12159081619fd4575b5080619fb9575b9081619f8f575b5090565b9050619fb2619fac619fa7619fa2614330565b6195da565b6183cc565b916183cc565b125f619f8b565b5080619fcd619fc75f6183d1565b916183cc565b1215619f84565b9050619ff7619ff1619fec619fe76145a5565b6195da565b6183cc565b916183cc565b125f619f7d56fea264697066735822122041c16698b9e22f959b2ba3612d9dde7adaf784250ff687fb3633550d6395ad2c64736f6c634300081e0033","linkReferences":{}},"methodIdentifiers":{"BASIS_POINTS()":"e1f1c4a7","MODULE_CORE()":"87d41608","MODULE_ESCALATION()":"a401a223","MODULE_MATCHES()":"d3f525dc","MODULE_PRIZES()":"43bd18a2","MODULE_RAFFLE()":"5a3db19f","NO_ROUND()":"cd47b9a9","OWNER_SHARE_BPS()":"f4ed1743","PARTICIPANTS_SHARE_BPS()":"82383535","PROTOCOL_SHARE_BPS()":"92822047","_completeMatchWithResult(bytes32,address,bool)":"f4df7cf0","_createMatchGame(uint8,uint8,uint8,uint8,address,address)":"2ad7e3bf","_getActiveMatchData(bytes32,uint8,uint8,uint8,uint8)":"e545f486","_getMatchPlayers(bytes32)":"1ec3b8ad","_getMatchResult(bytes32)":"97556f67","_getTimeIncrement()":"58f975f3","_hasCurrentPlayerTimedOut(bytes32)":"19602c21","_initializeMatchForPlay(bytes32,uint8)":"3751d19f","_isMatchActive(bytes32)":"7f515802","_resetMatchGame(bytes32)":"d893088d","_setMatchPlayer(bytes32,uint8,address)":"95dd9176","accumulatedProtocolShare()":"6b9be2c9","canResetEnrollmentWindow(uint8,uint8)":"8c930e96","claimAbandonedEnrollmentPool(uint8,uint8)":"3864cd6b","claimMatchSlotByReplacement(uint8,uint8,uint8,uint8)":"367639e2","claimTimeoutWin(uint8,uint8,uint8,uint8)":"631039c7","currentRaffleIndex()":"a5cd19da","drawParticipants(uint8,uint8,uint8,uint8,address)":"414a488a","enrollInTournament(uint8,uint8)":"e6c455f5","enrolledPlayers(uint8,uint8,uint256)":"685f1b12","executeProtocolRaffle()":"f878ebf0","forceEliminateStalledMatch(uint8,uint8,uint8,uint8)":"4d9d1611","forceStartTournament(uint8,uint8)":"ea2b1d73","getLeaderboard()":"6d763a6e","getMatch(uint8,uint8,uint8,uint8)":"005b0057","getMatchCountForRound(uint8,uint8)":"42baab49","getPlayerActiveTournaments(address)":"c743c0a8","getPlayerEnrollingTournaments(address)":"c718d0e5","getPlayerStats()":"847a5e99","getRaffleHistory()":"666d9687","getRaffleInfo()":"8166f6b2","getRoundInfo(uint8,uint8,uint8)":"273e3475","getTournamentInfo(uint8,uint8)":"65e12b14","initializeRound(uint8,uint8,uint8)":"0300e0b9","isEnrolled(uint8,uint8,address)":"3475bd53","isMatchEscL2Available(uint8,uint8,uint8,uint8)":"ed96ffdf","isMatchEscL3Available(uint8,uint8,uint8,uint8)":"2f26185d","isPlayerInAdvancedRound(uint8,uint8,uint8,address)":"31449074","makeMove(uint8,uint8,uint8,uint8,uint8)":"23e737aa","matchTimeouts(bytes32)":"766d1fca","matches(bytes32)":"9fe9ada3","owner()":"8da5cb5b","playerActiveMatches(address,uint256)":"5d657cb1","playerActiveTournaments(address,uint256)":"32e7c6aa","playerEarnings(address)":"69f92773","playerEnrollingTournaments(address,uint256)":"3845753f","playerMatchIndex(address,bytes32)":"bb0d10b5","playerPrizes(uint8,uint8,address)":"c6c2d69c","playerRanking(uint8,uint8,address)":"75da743d","raffleResults(uint256)":"40861c1d","resetEnrollmentWindow(uint8,uint8)":"998c84b4","rounds(uint8,uint8,uint8)":"eed9a268","tierCount()":"96b55f7d","tournaments(uint8,uint8)":"1f916aca"},"id":1}