{"abi":[{"type":"fallback","stateMutability":"payable"},{"type":"receive","stateMutability":"payable"},{"type":"function","name":"getRejectionStats","inputs":[],"outputs":[{"name":"count","type":"uint256","internalType":"uint256"},{"name":"amount","type":"uint256","internalType":"uint256"}],"stateMutability":"view"},{"type":"function","name":"lastRejectedAmount","inputs":[],"outputs":[{"name":"","type":"uint256","internalType":"uint256"}],"stateMutability":"view"},{"type":"function","name":"rejectionCount","inputs":[],"outputs":[{"name":"","type":"uint256","internalType":"uint256"}],"stateMutability":"view"}],"bytecode":{"object":"0x608060405234601c57600e6020565b6103d261002b82396103d290f35b6026565b60405190565b5f80fdfe60806040526004361015610018575b366103555761030e565b6100225f35610051565b80631f3187901461004c5780633290afed14610047576348b30ad00361000e57610171565b61012d565b6100a7565b60e01c90565b60405190565b5f80fd5b5f80fd5b5f91031261006f57565b610061565b90565b61008090610074565b9052565b9160206100a592949361009e60408201965f830190610077565b0190610077565b565b346100d8576100b7366004610065565b6100bf6101d0565b906100d46100cb610057565b92839283610084565b0390f35b61005d565b1c90565b90565b6100f49060086100f993026100dd565b6100e1565b90565b9061010791546100e4565b90565b6101155f5f906100fc565b90565b919061012b905f60208501940190610077565b565b3461015d5761013d366004610065565b61015961014861010a565b610150610057565b91829182610118565b0390f35b61005d565b61016e60015f906100fc565b90565b346101a157610181366004610065565b61019d61018c610162565b610194610057565b91829182610118565b0390f35b61005d565b5f90565b5f1c90565b6101bb6101c0916101aa565b6100e1565b90565b6101cd90546101af565b90565b6101d86101a6565b506101e16101a6565b506101eb5f6101c3565b906101f660016101c3565b90565b634e487b7160e01b5f52601160045260245ffd5b61021690610074565b5f1981146102245760010190565b6101f9565b5f1b90565b9061023a5f1991610229565b9181191691161790565b90565b61025b61025661026092610074565b610244565b610074565b90565b90565b9061027b61027661028292610247565b610263565b825461022e565b9055565b60209181520190565b60207f2045544821000000000000000000000000000000000000000000000000000000917f52656a656374696e6752656365697665723a20492072656a65637420796f75725f8201520152565b6102e96025604092610286565b6102f28161028f565b0190565b61030b9060208101905f8183039101526102dc565b90565b61032861032261031d5f6101c3565b61020d565b5f610266565b610333346001610266565b61033b610057565b62461bcd60e51b815280610351600482016102f6565b0390fd5b61036f6103696103645f6101c3565b61020d565b5f610266565b61037a346001610266565b610382610057565b62461bcd60e51b815280610398600482016102f6565b0390fdfea26469706673582212202dc1668856f882d8a65ac81f0f7ec139ecb50ba9c6346fdea8130e9bc1154d0e64736f6c634300081e0033","linkReferences":{}},"methodIdentifiers":{"getRejectionStats()":"1f318790","lastRejectedAmount()":"48b30ad0","rejectionCount()":"3290afed"},"id":12}